{
  "_format": "hh-sol-artifact-1",
  "contractName": "StakingVerifier",
  "sourceName": "contracts/staking/StakingVerifier.sol",
  "abi": [
    {
      "inputs": [
        {
          "internalType": "address",
          "name": "_olas",
          "type": "address"
        },
        {
          "internalType": "address",
          "name": "_serviceRegistry",
          "type": "address"
        },
        {
          "internalType": "address",
          "name": "_serviceRegistryTokenUtility",
          "type": "address"
        },
        {
          "internalType": "uint256",
          "name": "_rewardsPerSecondLimit",
          "type": "uint256"
        },
        {
          "internalType": "uint256",
          "name": "_timeForEmissionsLimit",
          "type": "uint256"
        },
        {
          "internalType": "uint256",
          "name": "_numServicesLimit",
          "type": "uint256"
        }
      ],
      "stateMutability": "nonpayable",
      "type": "constructor"
    },
    {
      "inputs": [
        {
          "internalType": "address",
          "name": "sender",
          "type": "address"
        },
        {
          "internalType": "address",
          "name": "owner",
          "type": "address"
        }
      ],
      "name": "OwnerOnly",
      "type": "error"
    },
    {
      "inputs": [
        {
          "internalType": "uint256",
          "name": "numValues1",
          "type": "uint256"
        },
        {
          "internalType": "uint256",
          "name": "numValues2",
          "type": "uint256"
        }
      ],
      "name": "WrongArrayLength",
      "type": "error"
    },
    {
      "inputs": [],
      "name": "ZeroAddress",
      "type": "error"
    },
    {
      "inputs": [],
      "name": "ZeroValue",
      "type": "error"
    },
    {
      "anonymous": false,
      "inputs": [
        {
          "indexed": false,
          "internalType": "address[]",
          "name": "implementations",
          "type": "address[]"
        },
        {
          "indexed": false,
          "internalType": "bool[]",
          "name": "statuses",
          "type": "bool[]"
        },
        {
          "indexed": false,
          "internalType": "bool",
          "name": "setCheck",
          "type": "bool"
        }
      ],
      "name": "ImplementationsWhitelistUpdated",
      "type": "event"
    },
    {
      "anonymous": false,
      "inputs": [
        {
          "indexed": true,
          "internalType": "address",
          "name": "owner",
          "type": "address"
        }
      ],
      "name": "OwnerUpdated",
      "type": "event"
    },
    {
      "anonymous": false,
      "inputs": [
        {
          "indexed": false,
          "internalType": "bool",
          "name": "setCheck",
          "type": "bool"
        }
      ],
      "name": "SetImplementationsCheck",
      "type": "event"
    },
    {
      "anonymous": false,
      "inputs": [
        {
          "indexed": false,
          "internalType": "uint256",
          "name": "rewardsPerSecondLimit",
          "type": "uint256"
        },
        {
          "indexed": false,
          "internalType": "uint256",
          "name": "timeForEmissionsLimit",
          "type": "uint256"
        },
        {
          "indexed": false,
          "internalType": "uint256",
          "name": "_numServicesLimit",
          "type": "uint256"
        },
        {
          "indexed": false,
          "internalType": "uint256",
          "name": "emissionsLimit",
          "type": "uint256"
        }
      ],
      "name": "StakingLimitsUpdated",
      "type": "event"
    },
    {
      "inputs": [
        {
          "internalType": "address",
          "name": "newOwner",
          "type": "address"
        }
      ],
      "name": "changeOwner",
      "outputs": [],
      "stateMutability": "nonpayable",
      "type": "function"
    },
    {
      "inputs": [
        {
          "internalType": "uint256",
          "name": "_rewardsPerSecondLimit",
          "type": "uint256"
        },
        {
          "internalType": "uint256",
          "name": "_timeForEmissionsLimit",
          "type": "uint256"
        },
        {
          "internalType": "uint256",
          "name": "_numServicesLimit",
          "type": "uint256"
        }
      ],
      "name": "changeStakingLimits",
      "outputs": [],
      "stateMutability": "nonpayable",
      "type": "function"
    },
    {
      "inputs": [],
      "name": "emissionsLimit",
      "outputs": [
        {
          "internalType": "uint256",
          "name": "",
          "type": "uint256"
        }
      ],
      "stateMutability": "view",
      "type": "function"
    },
    {
      "inputs": [
        {
          "internalType": "address",
          "name": "",
          "type": "address"
        }
      ],
      "name": "getEmissionsAmountLimit",
      "outputs": [
        {
          "internalType": "uint256",
          "name": "",
          "type": "uint256"
        }
      ],
      "stateMutability": "view",
      "type": "function"
    },
    {
      "inputs": [],
      "name": "implementationsCheck",
      "outputs": [
        {
          "internalType": "bool",
          "name": "",
          "type": "bool"
        }
      ],
      "stateMutability": "view",
      "type": "function"
    },
    {
      "inputs": [
        {
          "internalType": "address",
          "name": "",
          "type": "address"
        }
      ],
      "name": "mapImplementations",
      "outputs": [
        {
          "internalType": "bool",
          "name": "",
          "type": "bool"
        }
      ],
      "stateMutability": "view",
      "type": "function"
    },
    {
      "inputs": [],
      "name": "numServicesLimit",
      "outputs": [
        {
          "internalType": "uint256",
          "name": "",
          "type": "uint256"
        }
      ],
      "stateMutability": "view",
      "type": "function"
    },
    {
      "inputs": [],
      "name": "olas",
      "outputs": [
        {
          "internalType": "address",
          "name": "",
          "type": "address"
        }
      ],
      "stateMutability": "view",
      "type": "function"
    },
    {
      "inputs": [],
      "name": "owner",
      "outputs": [
        {
          "internalType": "address",
          "name": "",
          "type": "address"
        }
      ],
      "stateMutability": "view",
      "type": "function"
    },
    {
      "inputs": [],
      "name": "rewardsPerSecondLimit",
      "outputs": [
        {
          "internalType": "uint256",
          "name": "",
          "type": "uint256"
        }
      ],
      "stateMutability": "view",
      "type": "function"
    },
    {
      "inputs": [],
      "name": "serviceRegistry",
      "outputs": [
        {
          "internalType": "address",
          "name": "",
          "type": "address"
        }
      ],
      "stateMutability": "view",
      "type": "function"
    },
    {
      "inputs": [],
      "name": "serviceRegistryTokenUtility",
      "outputs": [
        {
          "internalType": "address",
          "name": "",
          "type": "address"
        }
      ],
      "stateMutability": "view",
      "type": "function"
    },
    {
      "inputs": [
        {
          "internalType": "bool",
          "name": "setCheck",
          "type": "bool"
        }
      ],
      "name": "setImplementationsCheck",
      "outputs": [],
      "stateMutability": "nonpayable",
      "type": "function"
    },
    {
      "inputs": [
        {
          "internalType": "address[]",
          "name": "implementations",
          "type": "address[]"
        },
        {
          "internalType": "bool[]",
          "name": "statuses",
          "type": "bool[]"
        },
        {
          "internalType": "bool",
          "name": "setCheck",
          "type": "bool"
        }
      ],
      "name": "setImplementationsStatuses",
      "outputs": [],
      "stateMutability": "nonpayable",
      "type": "function"
    },
    {
      "inputs": [],
      "name": "timeForEmissionsLimit",
      "outputs": [
        {
          "internalType": "uint256",
          "name": "",
          "type": "uint256"
        }
      ],
      "stateMutability": "view",
      "type": "function"
    },
    {
      "inputs": [
        {
          "internalType": "address",
          "name": "implementation",
          "type": "address"
        }
      ],
      "name": "verifyImplementation",
      "outputs": [
        {
          "internalType": "bool",
          "name": "",
          "type": "bool"
        }
      ],
      "stateMutability": "view",
      "type": "function"
    },
    {
      "inputs": [
        {
          "internalType": "address",
          "name": "instance",
          "type": "address"
        },
        {
          "internalType": "address",
          "name": "implementation",
          "type": "address"
        }
      ],
      "name": "verifyInstance",
      "outputs": [
        {
          "internalType": "bool",
          "name": "",
          "type": "bool"
        }
      ],
      "stateMutability": "view",
      "type": "function"
    }
  ],
  "bytecode": "0x60e060405234801561000f575f80fd5b5060405161111038038061111083398101604081905261002e91610113565b6001600160a01b038616158061004b57506001600160a01b038516155b156100695760405163d92e233d60e01b815260040160405180910390fd5b821580610074575081155b8061007d575080155b1561009b57604051637c946ed760e01b815260040160405180910390fd5b600480546001600160a01b031916331790556001600160a01b0386811660805285811660a052841660c0525f83905560018290556002819055806100df838561016e565b6100e9919061016e565b60035550610197945050505050565b80516001600160a01b038116811461010e575f80fd5b919050565b5f805f805f8060c08789031215610128575f80fd5b610131876100f8565b955061013f602088016100f8565b945061014d604088016100f8565b9350606087015192506080870151915060a087015190509295509295509295565b808202811582820484141761019157634e487b7160e01b5f52601160045260245ffd5b92915050565b60805160a05160c051610f336101dd5f395f81816101bf015281816107c101526108a301525f8181610287015261055f01525f818161011d01526107520152610f335ff3fe608060405234801561000f575f80fd5b5060043610610114575f3560e01c80638da5cb5b116100ad578063a6f9dae11161007d578063c78c050e11610063578063c78c050e1461027a578063cbcf252a14610282578063fcf7684e146102a9575f80fd5b8063a6f9dae114610254578063c446841814610267575f80fd5b80638da5cb5b1461021257806396324ed6146102255780639ac28fa0146102385780639ce0588514610241575f80fd5b806328714051116100e857806328714051146101ba57806338786784146101e1578063517c0a8f146101f657806369be670b146101ff575f80fd5b806231d115146101185780630bea55ed1461015c5780630d93650c146101715780631aa402f0146101a3575b5f80fd5b61013f7f000000000000000000000000000000000000000000000000000000000000000081565b6040516001600160a01b0390911681526020015b60405180910390f35b61016f61016a366004610c85565b6102bd565b005b61019361017f366004610d50565b60056020525f908152604090205460ff1681565b6040519015158152602001610153565b6101ac60035481565b604051908152602001610153565b61013f7f000000000000000000000000000000000000000000000000000000000000000081565b6101ac6101ef366004610d50565b5060035490565b6101ac60025481565b61019361020d366004610d72565b610456565b60045461013f906001600160a01b031681565b610193610233366004610d50565b6108fe565b6101ac60015481565b61016f61024f366004610da9565b610938565b61016f610262366004610d50565b610a1b565b61016f610275366004610dd2565b610ae4565b6101ac5f5481565b61013f7f000000000000000000000000000000000000000000000000000000000000000081565b60045461019390600160a01b900460ff1681565b6004546001600160a01b03163314610305576004805460405163521eb56d60e11b81526001600160a01b03909116918101919091523360248201526044015b60405180910390fd5b8251158061031557508151835114155b1561034057825182516040516308151c1160e41b8152600481019290925260248201526044016102fc565b6004805460ff60a01b1916600160a01b831515021790555f5b8351811015610415575f6001600160a01b031684828151811061037e5761037e610deb565b60200260200101516001600160a01b0316036103ad5760405163d92e233d60e01b815260040160405180910390fd5b8281815181106103bf576103bf610deb565b602002602001015160055f8684815181106103dc576103dc610deb565b6020908102919091018101516001600160a01b031682528101919091526040015f20805460ff1916911515919091179055600101610359565b507fa75993bdbe9ad771324babfee934d208587d3321632d15aa92547ee71226354183838360405161044993929190610dff565b60405180910390a1505050565b6004545f90600160a01b900460ff16801561048957506001600160a01b0382165f9081526005602052604090205460ff16155b1561049557505f6108f8565b826001600160a01b03163b5f036104ad57505f6108f8565b60408051600481526024810182526020810180516001600160e01b03166365e7929560e11b17905290515f9081906001600160a01b038716906104f1908590610e92565b5f60405180830381855afa9150503d805f8114610529576040519150601f19603f3d011682016040523d82523d5f602084013e61052e565b606091505b5091509150818015610541575080516020145b156105a8575f8180602001905181019061055b9190610ea8565b90507f00000000000000000000000000000000000000000000000000000000000000006001600160a01b0316816001600160a01b0316146105a2575f9450505050506108f8565b506105b3565b5f93505050506108f8565b5f866001600160a01b031663eacdaabc6040518163ffffffff1660e01b8152600401602060405180830381865afa1580156105f0573d5f803e3d5ffd5b505050506040513d601f19601f820116820180604052508101906106149190610ec3565b90505f5481111561062b575f9450505050506108f8565b5f876001600160a01b03166316a751726040518163ffffffff1660e01b8152600401602060405180830381865afa158015610668573d5f803e3d5ffd5b505050506040513d601f19601f8201168201806040525081019061068c9190610ec3565b90506002548111156106a5575f955050505050506108f8565b60408051600481526024810182526020810180516001600160e01b03166372f702f360e01b17905290515f91906001600160a01b038b16906106e8908390610e92565b5f60405180830381855afa9150503d805f8114610720576040519150601f19603f3d011682016040523d82523d5f602084013e610725565b606091505b50909650945085156107ac57845160200361079d578480602001905181019061074e9190610ea8565b91507f00000000000000000000000000000000000000000000000000000000000000006001600160a01b0316826001600160a01b031614610798575f9750505050505050506108f8565b6107ac565b5f9750505050505050506108f8565b6001600160a01b038216158015906107ec57507f00000000000000000000000000000000000000000000000000000000000000006001600160a01b031615155b156108ec5760408051600481526024810182526020810180516001600160e01b0316632871405160e01b17905290519097506001600160a01b038b1690610834908990610e92565b5f60405180830381855afa9150503d805f811461086c576040519150601f19603f3d011682016040523d82523d5f602084013e610871565b606091505b509096509450858015610885575084516020145b1561079d575f8580602001905181019061089f9190610ea8565b90507f00000000000000000000000000000000000000000000000000000000000000006001600160a01b0316816001600160a01b0316146108ea575f985050505050505050506108f8565b505b60019750505050505050505b92915050565b6004545f90600160a01b900460ff161561093057506001600160a01b03165f9081526005602052604090205460ff1690565b506001919050565b6004546001600160a01b0316331461097b576004805460405163521eb56d60e11b81526001600160a01b03909116918101919091523360248201526044016102fc565b821580610986575081155b8061098f575080155b156109ad57604051637c946ed760e01b815260040160405180910390fd5b5f83905560018290556002819055806109c68385610eda565b6109d09190610eda565b6003819055604080518581526020810185905290810183905260608101919091527faf40dfd820e3c4d9869867d01bef72bc7355b89f888bde8f0e24025202b0d74590608001610449565b6004546001600160a01b03163314610a5c576004805460405163521eb56d60e11b815233928101929092526001600160a01b031660248201526044016102fc565b6001600160a01b038116610a835760405163d92e233d60e01b815260040160405180910390fd5b600480547fffffffffffffffffffffffff0000000000000000000000000000000000000000166001600160a01b0383169081179091556040517f4ffd725fc4a22075e9ec71c59edf9c38cdeb588a91b24fc5b61388c5be41282b905f90a250565b6004546001600160a01b03163314610b27576004805460405163521eb56d60e11b81526001600160a01b03909116918101919091523360248201526044016102fc565b60048054821515600160a01b0260ff60a01b199091161790556040517fdc17e046a4e55c5445deae0e2503d60b1ce5ecce83a0dc62c9066bbc7f39db5690610b7490831515815260200190565b60405180910390a150565b634e487b7160e01b5f52604160045260245ffd5b604051601f8201601f1916810167ffffffffffffffff81118282101715610bbc57610bbc610b7f565b604052919050565b5f67ffffffffffffffff821115610bdd57610bdd610b7f565b5060051b60200190565b6001600160a01b0381168114610bfb575f80fd5b50565b80358015158114610c0d575f80fd5b919050565b5f82601f830112610c21575f80fd5b81356020610c36610c3183610bc4565b610b93565b8083825260208201915060208460051b870101935086841115610c57575f80fd5b602086015b84811015610c7a57610c6d81610bfe565b8352918301918301610c5c565b509695505050505050565b5f805f60608486031215610c97575f80fd5b833567ffffffffffffffff80821115610cae575f80fd5b818601915086601f830112610cc1575f80fd5b81356020610cd1610c3183610bc4565b82815260059290921b8401810191818101908a841115610cef575f80fd5b948201945b83861015610d16578535610d0781610be7565b82529482019490820190610cf4565b97505087013592505080821115610d2b575f80fd5b50610d3886828701610c12565b925050610d4760408501610bfe565b90509250925092565b5f60208284031215610d60575f80fd5b8135610d6b81610be7565b9392505050565b5f8060408385031215610d83575f80fd5b8235610d8e81610be7565b91506020830135610d9e81610be7565b809150509250929050565b5f805f60608486031215610dbb575f80fd5b505081359360208301359350604090920135919050565b5f60208284031215610de2575f80fd5b610d6b82610bfe565b634e487b7160e01b5f52603260045260245ffd5b606080825284519082018190525f906020906080840190828801845b82811015610e405781516001600160a01b031684529284019290840190600101610e1b565b505050838103828501528551808252868301918301905f5b81811015610e76578351151583529284019291840191600101610e58565b505085151560408601529250610e8a915050565b949350505050565b5f82518060208501845e5f920191825250919050565b5f60208284031215610eb8575f80fd5b8151610d6b81610be7565b5f60208284031215610ed3575f80fd5b5051919050565b80820281158282048414176108f857634e487b7160e01b5f52601160045260245ffdfea26469706673582212208933ee8226784fa65f3039186c4694256c4f04d99d1ca1452b60e57ea9427bd864736f6c63430008190033",
  "linkReferences": {},
  "deployedLinkReferences": {}
}