{
  "_format": "hh-sol-artifact-1",
  "contractName": "StakingToken",
  "sourceName": "contracts/staking/StakingToken.sol",
  "abi": [
    {
      "inputs": [],
      "name": "AlreadyInitialized",
      "type": "error"
    },
    {
      "inputs": [
        {
          "internalType": "address",
          "name": "activityChecker",
          "type": "address"
        }
      ],
      "name": "ContractOnly",
      "type": "error"
    },
    {
      "inputs": [
        {
          "internalType": "uint256",
          "name": "provided",
          "type": "uint256"
        },
        {
          "internalType": "uint256",
          "name": "expected",
          "type": "uint256"
        }
      ],
      "name": "LowerThan",
      "type": "error"
    },
    {
      "inputs": [
        {
          "internalType": "uint256",
          "name": "maxNumServices",
          "type": "uint256"
        }
      ],
      "name": "MaxNumServicesReached",
      "type": "error"
    },
    {
      "inputs": [],
      "name": "NoRewardsAvailable",
      "type": "error"
    },
    {
      "inputs": [
        {
          "internalType": "uint256",
          "name": "serviceId",
          "type": "uint256"
        },
        {
          "internalType": "uint256",
          "name": "tsProvided",
          "type": "uint256"
        },
        {
          "internalType": "uint256",
          "name": "tsExpected",
          "type": "uint256"
        }
      ],
      "name": "NotEnoughTimeStaked",
      "type": "error"
    },
    {
      "inputs": [
        {
          "internalType": "address",
          "name": "sender",
          "type": "address"
        },
        {
          "internalType": "address",
          "name": "owner",
          "type": "address"
        }
      ],
      "name": "OwnerOnly",
      "type": "error"
    },
    {
      "inputs": [
        {
          "internalType": "uint256",
          "name": "serviceId",
          "type": "uint256"
        }
      ],
      "name": "ServiceNotUnstaked",
      "type": "error"
    },
    {
      "inputs": [
        {
          "internalType": "address",
          "name": "token",
          "type": "address"
        },
        {
          "internalType": "address",
          "name": "from",
          "type": "address"
        },
        {
          "internalType": "address",
          "name": "to",
          "type": "address"
        },
        {
          "internalType": "uint256",
          "name": "value",
          "type": "uint256"
        }
      ],
      "name": "TokenTransferFailed",
      "type": "error"
    },
    {
      "inputs": [
        {
          "internalType": "address",
          "name": "multisig",
          "type": "address"
        }
      ],
      "name": "UnauthorizedMultisig",
      "type": "error"
    },
    {
      "inputs": [
        {
          "internalType": "uint256",
          "name": "provided",
          "type": "uint256"
        },
        {
          "internalType": "uint256",
          "name": "expected",
          "type": "uint256"
        }
      ],
      "name": "ValueLowerThan",
      "type": "error"
    },
    {
      "inputs": [
        {
          "internalType": "uint256",
          "name": "agentId",
          "type": "uint256"
        }
      ],
      "name": "WrongAgentId",
      "type": "error"
    },
    {
      "inputs": [
        {
          "internalType": "uint256",
          "name": "serviceId",
          "type": "uint256"
        }
      ],
      "name": "WrongServiceConfiguration",
      "type": "error"
    },
    {
      "inputs": [
        {
          "internalType": "uint256",
          "name": "state",
          "type": "uint256"
        },
        {
          "internalType": "uint256",
          "name": "serviceId",
          "type": "uint256"
        }
      ],
      "name": "WrongServiceState",
      "type": "error"
    },
    {
      "inputs": [
        {
          "internalType": "address",
          "name": "expected",
          "type": "address"
        },
        {
          "internalType": "address",
          "name": "provided",
          "type": "address"
        }
      ],
      "name": "WrongStakingToken",
      "type": "error"
    },
    {
      "inputs": [],
      "name": "ZeroAddress",
      "type": "error"
    },
    {
      "inputs": [],
      "name": "ZeroTokenAddress",
      "type": "error"
    },
    {
      "inputs": [],
      "name": "ZeroValue",
      "type": "error"
    },
    {
      "anonymous": false,
      "inputs": [
        {
          "indexed": true,
          "internalType": "uint256",
          "name": "epoch",
          "type": "uint256"
        },
        {
          "indexed": false,
          "internalType": "uint256",
          "name": "availableRewards",
          "type": "uint256"
        },
        {
          "indexed": false,
          "internalType": "uint256[]",
          "name": "serviceIds",
          "type": "uint256[]"
        },
        {
          "indexed": false,
          "internalType": "uint256[]",
          "name": "rewards",
          "type": "uint256[]"
        },
        {
          "indexed": false,
          "internalType": "uint256",
          "name": "epochLength",
          "type": "uint256"
        }
      ],
      "name": "Checkpoint",
      "type": "event"
    },
    {
      "anonymous": false,
      "inputs": [
        {
          "indexed": true,
          "internalType": "address",
          "name": "sender",
          "type": "address"
        },
        {
          "indexed": false,
          "internalType": "uint256",
          "name": "amount",
          "type": "uint256"
        },
        {
          "indexed": false,
          "internalType": "uint256",
          "name": "balance",
          "type": "uint256"
        },
        {
          "indexed": false,
          "internalType": "uint256",
          "name": "availableRewards",
          "type": "uint256"
        }
      ],
      "name": "Deposit",
      "type": "event"
    },
    {
      "anonymous": false,
      "inputs": [
        {
          "indexed": false,
          "internalType": "uint256",
          "name": "epoch",
          "type": "uint256"
        },
        {
          "indexed": true,
          "internalType": "uint256",
          "name": "serviceId",
          "type": "uint256"
        },
        {
          "indexed": true,
          "internalType": "address",
          "name": "owner",
          "type": "address"
        },
        {
          "indexed": true,
          "internalType": "address",
          "name": "multisig",
          "type": "address"
        },
        {
          "indexed": false,
          "internalType": "uint256[]",
          "name": "nonces",
          "type": "uint256[]"
        },
        {
          "indexed": false,
          "internalType": "uint256",
          "name": "reward",
          "type": "uint256"
        }
      ],
      "name": "RewardClaimed",
      "type": "event"
    },
    {
      "anonymous": false,
      "inputs": [
        {
          "indexed": false,
          "internalType": "uint256",
          "name": "epoch",
          "type": "uint256"
        },
        {
          "indexed": true,
          "internalType": "uint256",
          "name": "serviceId",
          "type": "uint256"
        },
        {
          "indexed": false,
          "internalType": "uint256",
          "name": "serviceInactivity",
          "type": "uint256"
        }
      ],
      "name": "ServiceInactivityWarning",
      "type": "event"
    },
    {
      "anonymous": false,
      "inputs": [
        {
          "indexed": false,
          "internalType": "uint256",
          "name": "epoch",
          "type": "uint256"
        },
        {
          "indexed": true,
          "internalType": "uint256",
          "name": "serviceId",
          "type": "uint256"
        },
        {
          "indexed": true,
          "internalType": "address",
          "name": "owner",
          "type": "address"
        },
        {
          "indexed": true,
          "internalType": "address",
          "name": "multisig",
          "type": "address"
        },
        {
          "indexed": false,
          "internalType": "uint256[]",
          "name": "nonces",
          "type": "uint256[]"
        }
      ],
      "name": "ServiceStaked",
      "type": "event"
    },
    {
      "anonymous": false,
      "inputs": [
        {
          "indexed": false,
          "internalType": "uint256",
          "name": "epoch",
          "type": "uint256"
        },
        {
          "indexed": true,
          "internalType": "uint256",
          "name": "serviceId",
          "type": "uint256"
        },
        {
          "indexed": true,
          "internalType": "address",
          "name": "owner",
          "type": "address"
        },
        {
          "indexed": true,
          "internalType": "address",
          "name": "multisig",
          "type": "address"
        },
        {
          "indexed": false,
          "internalType": "uint256[]",
          "name": "nonces",
          "type": "uint256[]"
        },
        {
          "indexed": false,
          "internalType": "uint256",
          "name": "reward",
          "type": "uint256"
        }
      ],
      "name": "ServiceUnstaked",
      "type": "event"
    },
    {
      "anonymous": false,
      "inputs": [
        {
          "indexed": true,
          "internalType": "uint256",
          "name": "epoch",
          "type": "uint256"
        },
        {
          "indexed": false,
          "internalType": "uint256[]",
          "name": "serviceIds",
          "type": "uint256[]"
        },
        {
          "indexed": false,
          "internalType": "address[]",
          "name": "owners",
          "type": "address[]"
        },
        {
          "indexed": false,
          "internalType": "address[]",
          "name": "multisigs",
          "type": "address[]"
        },
        {
          "indexed": false,
          "internalType": "uint256[]",
          "name": "serviceInactivity",
          "type": "uint256[]"
        }
      ],
      "name": "ServicesEvicted",
      "type": "event"
    },
    {
      "anonymous": false,
      "inputs": [
        {
          "indexed": true,
          "internalType": "address",
          "name": "to",
          "type": "address"
        },
        {
          "indexed": false,
          "internalType": "uint256",
          "name": "amount",
          "type": "uint256"
        }
      ],
      "name": "Withdraw",
      "type": "event"
    },
    {
      "inputs": [],
      "name": "VERSION",
      "outputs": [
        {
          "internalType": "string",
          "name": "",
          "type": "string"
        }
      ],
      "stateMutability": "view",
      "type": "function"
    },
    {
      "inputs": [],
      "name": "activityChecker",
      "outputs": [
        {
          "internalType": "address",
          "name": "",
          "type": "address"
        }
      ],
      "stateMutability": "view",
      "type": "function"
    },
    {
      "inputs": [
        {
          "internalType": "uint256",
          "name": "",
          "type": "uint256"
        }
      ],
      "name": "agentIds",
      "outputs": [
        {
          "internalType": "uint256",
          "name": "",
          "type": "uint256"
        }
      ],
      "stateMutability": "view",
      "type": "function"
    },
    {
      "inputs": [],
      "name": "availableRewards",
      "outputs": [
        {
          "internalType": "uint256",
          "name": "",
          "type": "uint256"
        }
      ],
      "stateMutability": "view",
      "type": "function"
    },
    {
      "inputs": [],
      "name": "balance",
      "outputs": [
        {
          "internalType": "uint256",
          "name": "",
          "type": "uint256"
        }
      ],
      "stateMutability": "view",
      "type": "function"
    },
    {
      "inputs": [
        {
          "internalType": "uint256",
          "name": "serviceId",
          "type": "uint256"
        }
      ],
      "name": "calculateStakingLastReward",
      "outputs": [
        {
          "internalType": "uint256",
          "name": "reward",
          "type": "uint256"
        }
      ],
      "stateMutability": "view",
      "type": "function"
    },
    {
      "inputs": [
        {
          "internalType": "uint256",
          "name": "serviceId",
          "type": "uint256"
        }
      ],
      "name": "calculateStakingReward",
      "outputs": [
        {
          "internalType": "uint256",
          "name": "reward",
          "type": "uint256"
        }
      ],
      "stateMutability": "view",
      "type": "function"
    },
    {
      "inputs": [],
      "name": "checkpoint",
      "outputs": [
        {
          "internalType": "uint256[]",
          "name": "",
          "type": "uint256[]"
        },
        {
          "internalType": "uint256[][]",
          "name": "",
          "type": "uint256[][]"
        },
        {
          "internalType": "uint256[]",
          "name": "",
          "type": "uint256[]"
        },
        {
          "internalType": "uint256[]",
          "name": "",
          "type": "uint256[]"
        },
        {
          "internalType": "uint256[]",
          "name": "evictServiceIds",
          "type": "uint256[]"
        }
      ],
      "stateMutability": "nonpayable",
      "type": "function"
    },
    {
      "inputs": [
        {
          "internalType": "uint256",
          "name": "serviceId",
          "type": "uint256"
        }
      ],
      "name": "checkpointAndClaim",
      "outputs": [
        {
          "internalType": "uint256",
          "name": "",
          "type": "uint256"
        }
      ],
      "stateMutability": "nonpayable",
      "type": "function"
    },
    {
      "inputs": [
        {
          "internalType": "uint256",
          "name": "serviceId",
          "type": "uint256"
        }
      ],
      "name": "claim",
      "outputs": [
        {
          "internalType": "uint256",
          "name": "",
          "type": "uint256"
        }
      ],
      "stateMutability": "nonpayable",
      "type": "function"
    },
    {
      "inputs": [],
      "name": "configHash",
      "outputs": [
        {
          "internalType": "bytes32",
          "name": "",
          "type": "bytes32"
        }
      ],
      "stateMutability": "view",
      "type": "function"
    },
    {
      "inputs": [
        {
          "internalType": "uint256",
          "name": "amount",
          "type": "uint256"
        }
      ],
      "name": "deposit",
      "outputs": [],
      "stateMutability": "nonpayable",
      "type": "function"
    },
    {
      "inputs": [],
      "name": "emissionsAmount",
      "outputs": [
        {
          "internalType": "uint256",
          "name": "",
          "type": "uint256"
        }
      ],
      "stateMutability": "view",
      "type": "function"
    },
    {
      "inputs": [],
      "name": "epochCounter",
      "outputs": [
        {
          "internalType": "uint256",
          "name": "",
          "type": "uint256"
        }
      ],
      "stateMutability": "view",
      "type": "function"
    },
    {
      "inputs": [],
      "name": "getAgentIds",
      "outputs": [
        {
          "internalType": "uint256[]",
          "name": "",
          "type": "uint256[]"
        }
      ],
      "stateMutability": "view",
      "type": "function"
    },
    {
      "inputs": [],
      "name": "getNextRewardCheckpointTimestamp",
      "outputs": [
        {
          "internalType": "uint256",
          "name": "tsNext",
          "type": "uint256"
        }
      ],
      "stateMutability": "view",
      "type": "function"
    },
    {
      "inputs": [],
      "name": "getServiceIds",
      "outputs": [
        {
          "internalType": "uint256[]",
          "name": "",
          "type": "uint256[]"
        }
      ],
      "stateMutability": "view",
      "type": "function"
    },
    {
      "inputs": [
        {
          "internalType": "uint256",
          "name": "serviceId",
          "type": "uint256"
        }
      ],
      "name": "getServiceInfo",
      "outputs": [
        {
          "components": [
            {
              "internalType": "address",
              "name": "multisig",
              "type": "address"
            },
            {
              "internalType": "address",
              "name": "owner",
              "type": "address"
            },
            {
              "internalType": "uint256[]",
              "name": "nonces",
              "type": "uint256[]"
            },
            {
              "internalType": "uint256",
              "name": "tsStart",
              "type": "uint256"
            },
            {
              "internalType": "uint256",
              "name": "reward",
              "type": "uint256"
            },
            {
              "internalType": "uint256",
              "name": "inactivity",
              "type": "uint256"
            }
          ],
          "internalType": "struct ServiceInfo",
          "name": "sInfo",
          "type": "tuple"
        }
      ],
      "stateMutability": "view",
      "type": "function"
    },
    {
      "inputs": [
        {
          "internalType": "uint256",
          "name": "serviceId",
          "type": "uint256"
        }
      ],
      "name": "getStakingState",
      "outputs": [
        {
          "internalType": "enum StakingBase.StakingState",
          "name": "stakingState",
          "type": "uint8"
        }
      ],
      "stateMutability": "view",
      "type": "function"
    },
    {
      "inputs": [
        {
          "components": [
            {
              "internalType": "bytes32",
              "name": "metadataHash",
              "type": "bytes32"
            },
            {
              "internalType": "uint256",
              "name": "maxNumServices",
              "type": "uint256"
            },
            {
              "internalType": "uint256",
              "name": "rewardsPerSecond",
              "type": "uint256"
            },
            {
              "internalType": "uint256",
              "name": "minStakingDeposit",
              "type": "uint256"
            },
            {
              "internalType": "uint256",
              "name": "minNumStakingPeriods",
              "type": "uint256"
            },
            {
              "internalType": "uint256",
              "name": "maxNumInactivityPeriods",
              "type": "uint256"
            },
            {
              "internalType": "uint256",
              "name": "livenessPeriod",
              "type": "uint256"
            },
            {
              "internalType": "uint256",
              "name": "timeForEmissions",
              "type": "uint256"
            },
            {
              "internalType": "uint256",
              "name": "numAgentInstances",
              "type": "uint256"
            },
            {
              "internalType": "uint256[]",
              "name": "agentIds",
              "type": "uint256[]"
            },
            {
              "internalType": "uint256",
              "name": "threshold",
              "type": "uint256"
            },
            {
              "internalType": "bytes32",
              "name": "configHash",
              "type": "bytes32"
            },
            {
              "internalType": "bytes32",
              "name": "proxyHash",
              "type": "bytes32"
            },
            {
              "internalType": "address",
              "name": "serviceRegistry",
              "type": "address"
            },
            {
              "internalType": "address",
              "name": "activityChecker",
              "type": "address"
            }
          ],
          "internalType": "struct StakingBase.StakingParams",
          "name": "_stakingParams",
          "type": "tuple"
        },
        {
          "internalType": "address",
          "name": "_serviceRegistryTokenUtility",
          "type": "address"
        },
        {
          "internalType": "address",
          "name": "_stakingToken",
          "type": "address"
        }
      ],
      "name": "initialize",
      "outputs": [],
      "stateMutability": "nonpayable",
      "type": "function"
    },
    {
      "inputs": [],
      "name": "livenessPeriod",
      "outputs": [
        {
          "internalType": "uint256",
          "name": "",
          "type": "uint256"
        }
      ],
      "stateMutability": "view",
      "type": "function"
    },
    {
      "inputs": [
        {
          "internalType": "uint256",
          "name": "",
          "type": "uint256"
        }
      ],
      "name": "mapServiceInfo",
      "outputs": [
        {
          "internalType": "address",
          "name": "multisig",
          "type": "address"
        },
        {
          "internalType": "address",
          "name": "owner",
          "type": "address"
        },
        {
          "internalType": "uint256",
          "name": "tsStart",
          "type": "uint256"
        },
        {
          "internalType": "uint256",
          "name": "reward",
          "type": "uint256"
        },
        {
          "internalType": "uint256",
          "name": "inactivity",
          "type": "uint256"
        }
      ],
      "stateMutability": "view",
      "type": "function"
    },
    {
      "inputs": [],
      "name": "maxInactivityDuration",
      "outputs": [
        {
          "internalType": "uint256",
          "name": "",
          "type": "uint256"
        }
      ],
      "stateMutability": "view",
      "type": "function"
    },
    {
      "inputs": [],
      "name": "maxNumInactivityPeriods",
      "outputs": [
        {
          "internalType": "uint256",
          "name": "",
          "type": "uint256"
        }
      ],
      "stateMutability": "view",
      "type": "function"
    },
    {
      "inputs": [],
      "name": "maxNumServices",
      "outputs": [
        {
          "internalType": "uint256",
          "name": "",
          "type": "uint256"
        }
      ],
      "stateMutability": "view",
      "type": "function"
    },
    {
      "inputs": [],
      "name": "metadataHash",
      "outputs": [
        {
          "internalType": "bytes32",
          "name": "",
          "type": "bytes32"
        }
      ],
      "stateMutability": "view",
      "type": "function"
    },
    {
      "inputs": [],
      "name": "minStakingDeposit",
      "outputs": [
        {
          "internalType": "uint256",
          "name": "",
          "type": "uint256"
        }
      ],
      "stateMutability": "view",
      "type": "function"
    },
    {
      "inputs": [],
      "name": "minStakingDuration",
      "outputs": [
        {
          "internalType": "uint256",
          "name": "",
          "type": "uint256"
        }
      ],
      "stateMutability": "view",
      "type": "function"
    },
    {
      "inputs": [],
      "name": "numAgentInstances",
      "outputs": [
        {
          "internalType": "uint256",
          "name": "",
          "type": "uint256"
        }
      ],
      "stateMutability": "view",
      "type": "function"
    },
    {
      "inputs": [
        {
          "internalType": "address",
          "name": "",
          "type": "address"
        },
        {
          "internalType": "address",
          "name": "",
          "type": "address"
        },
        {
          "internalType": "uint256",
          "name": "",
          "type": "uint256"
        },
        {
          "internalType": "bytes",
          "name": "",
          "type": "bytes"
        }
      ],
      "name": "onERC721Received",
      "outputs": [
        {
          "internalType": "bytes4",
          "name": "",
          "type": "bytes4"
        }
      ],
      "stateMutability": "nonpayable",
      "type": "function"
    },
    {
      "inputs": [],
      "name": "proxyHash",
      "outputs": [
        {
          "internalType": "bytes32",
          "name": "",
          "type": "bytes32"
        }
      ],
      "stateMutability": "view",
      "type": "function"
    },
    {
      "inputs": [],
      "name": "rewardsPerSecond",
      "outputs": [
        {
          "internalType": "uint256",
          "name": "",
          "type": "uint256"
        }
      ],
      "stateMutability": "view",
      "type": "function"
    },
    {
      "inputs": [],
      "name": "serviceRegistry",
      "outputs": [
        {
          "internalType": "address",
          "name": "",
          "type": "address"
        }
      ],
      "stateMutability": "view",
      "type": "function"
    },
    {
      "inputs": [],
      "name": "serviceRegistryTokenUtility",
      "outputs": [
        {
          "internalType": "address",
          "name": "",
          "type": "address"
        }
      ],
      "stateMutability": "view",
      "type": "function"
    },
    {
      "inputs": [
        {
          "internalType": "uint256",
          "name": "",
          "type": "uint256"
        }
      ],
      "name": "setServiceIds",
      "outputs": [
        {
          "internalType": "uint256",
          "name": "",
          "type": "uint256"
        }
      ],
      "stateMutability": "view",
      "type": "function"
    },
    {
      "inputs": [
        {
          "internalType": "uint256",
          "name": "serviceId",
          "type": "uint256"
        }
      ],
      "name": "stake",
      "outputs": [],
      "stateMutability": "nonpayable",
      "type": "function"
    },
    {
      "inputs": [],
      "name": "stakingToken",
      "outputs": [
        {
          "internalType": "address",
          "name": "",
          "type": "address"
        }
      ],
      "stateMutability": "view",
      "type": "function"
    },
    {
      "inputs": [],
      "name": "threshold",
      "outputs": [
        {
          "internalType": "uint256",
          "name": "",
          "type": "uint256"
        }
      ],
      "stateMutability": "view",
      "type": "function"
    },
    {
      "inputs": [],
      "name": "timeForEmissions",
      "outputs": [
        {
          "internalType": "uint256",
          "name": "",
          "type": "uint256"
        }
      ],
      "stateMutability": "view",
      "type": "function"
    },
    {
      "inputs": [],
      "name": "tsCheckpoint",
      "outputs": [
        {
          "internalType": "uint256",
          "name": "",
          "type": "uint256"
        }
      ],
      "stateMutability": "view",
      "type": "function"
    },
    {
      "inputs": [
        {
          "internalType": "uint256",
          "name": "serviceId",
          "type": "uint256"
        }
      ],
      "name": "unstake",
      "outputs": [
        {
          "internalType": "uint256",
          "name": "reward",
          "type": "uint256"
        }
      ],
      "stateMutability": "nonpayable",
      "type": "function"
    }
  ],
  "bytecode": "0x6080604052348015600e575f80fd5b506180048061001c5f395ff3fe608060405234801561000f575f80fd5b50600436106102d1575f3560e01c80638f9e0a6211610184578063c5a1d7f0116100e1578063eb338c9611610095578063f86ad2b61161006f578063f86ad2b6146107ff578063fd0bba8c1461081d578063ffa1ad741461084d576102d1565b8063eb338c9614610793578063f189e85a146107c3578063f4dce714146107e1576102d1565b8063e1f1176d116100c6578063e1f1176d14610739578063e77cdcc914610757578063eacdaabc14610775576102d1565b8063c5a1d7f0146106fd578063cbcf252a1461071b576102d1565b8063b150876011610138578063b69ef8a81161011d578063b69ef8a8146106a1578063b6b55f25146106bf578063c2c4c5c1146106db576102d1565b8063b150876014610667578063b267c67b14610685576102d1565b8063a0ed60e011610169578063a0ed60e0146105f9578063a694fc3a14610617578063a74466ad14610633576102d1565b80638f9e0a62146105bd57806395732361146105db576102d1565b806352c824f5116102325780637fbe2833116101e657806382a8ea58116101cb57806382a8ea581461053f57806383f9eb221461056f578063879d90901461059f576102d1565b80637fbe2833146104f1578063809cee2f14610521576102d1565b806356e760581161021757806356e76058146104855780635829c5ec146104b557806372f702f3146104d3576102d1565b806352c824f514610437578063546af2e014610455576102d1565b80632871405111610289578063379607f51161026e578063379607f5146103cb5780633e732997146103fb57806342cde4e814610419576102d1565b8063287140511461037d5780632e17de781461039b576102d1565b8063150b7a02116102ba578063150b7a021461031157806316a75172146103415780631f7794081461035f576102d1565b806308ae7e54146102d557806314b19c5a146102f3575b5f80fd5b6102dd61086b565b6040516102ea9190616975565b60405180910390f35b6102fb610871565b6040516103089190616975565b60405180910390f35b61032b60048036038101906103269190616a84565b610877565b6040516103389190616b42565b60405180910390f35b61034961088b565b6040516103569190616975565b60405180910390f35b610367610891565b6040516103749190616975565b60405180910390f35b610385610897565b6040516103929190616b6a565b60405180910390f35b6103b560048036038101906103b09190616b83565b6108bc565b6040516103c29190616975565b60405180910390f35b6103e560048036038101906103e09190616b83565b611277565b6040516103f29190616975565b60405180910390f35b6104036112c5565b6040516104109190616975565b60405180910390f35b6104216112cb565b60405161042e9190616975565b60405180910390f35b61043f6112d1565b60405161044c9190616975565b60405180910390f35b61046f600480360381019061046a9190616b83565b6112d7565b60405161047c9190616975565b60405180910390f35b61049f600480360381019061049a9190616b83565b611326565b6040516104ac9190616975565b60405180910390f35b6104bd611346565b6040516104ca9190616975565b60405180910390f35b6104db61134c565b6040516104e89190616b6a565b60405180910390f35b61050b60048036038101906105069190616b83565b611371565b6040516105189190616975565b60405180910390f35b610529611535565b6040516105369190616bc6565b60405180910390f35b61055960048036038101906105549190616b83565b61153b565b6040516105669190616d2b565b60405180910390f35b61058960048036038101906105849190616b83565b6116ab565b6040516105969190616975565b60405180910390f35b6105a76118aa565b6040516105b49190616975565b60405180910390f35b6105c56118b0565b6040516105d29190616b6a565b60405180910390f35b6105e36118d5565b6040516105f09190616975565b60405180910390f35b6106016118db565b60405161060e9190616975565b60405180910390f35b610631600480360381019061062c9190616b83565b6118e1565b005b61064d60048036038101906106489190616b83565b6126ae565b60405161065e959493929190616d4b565b60405180910390f35b61066f61271e565b60405161067c9190616e08565b60405180910390f35b61069f600480360381019061069a919061711f565b6127b0565b005b6106a96129da565b6040516106b69190616975565b60405180910390f35b6106d960048036038101906106d49190616b83565b6129e0565b005b6106e3612b70565b6040516106f4959493929190617246565b60405180910390f35b610705613981565b6040516107129190616bc6565b60405180910390f35b610723613986565b6040516107309190616b6a565b60405180910390f35b6107416139ab565b60405161074e9190616bc6565b60405180910390f35b61075f6139b1565b60405161076c9190616975565b60405180910390f35b61077d6139b7565b60405161078a9190616975565b60405180910390f35b6107ad60048036038101906107a89190616b83565b6139bd565b6040516107ba9190616975565b60405180910390f35b6107cb6139dd565b6040516107d89190616e08565b60405180910390f35b6107e9613a6f565b6040516107f69190616975565b60405180910390f35b610807613aad565b6040516108149190616975565b60405180910390f35b61083760048036038101906108329190616b83565b613ab3565b604051610844919061732d565b60405180910390f35b610855613d14565b60405161086291906173a6565b60405180910390f35b600d5481565b600f5481565b5f63150b7a0260e01b905095945050505050565b60015481565b60065481565b60175f9054906101000a900473ffffffffffffffffffffffffffffffffffffffff1681565b5f6108d167d6755c171545b9c260c01b613d4d565b6108e567abf698ce3687364360c01b613d4d565b6108f9670c254353e2f886a160c01b613d4d565b5f60155f8481526020019081526020015f2090506109216741b8255cc38ef46860c01b613d4d565b6109356747943334148502ab60c01b613d4d565b806001015f9054906101000a900473ffffffffffffffffffffffffffffffffffffffff1673ffffffffffffffffffffffffffffffffffffffff163373ffffffffffffffffffffffffffffffffffffffff1614610a155761099f674d4348e03d5bc95860c01b613d4d565b6109b36764ab5d7941d54d5d60c01b613d4d565b33816001015f9054906101000a900473ffffffffffffffffffffffffffffffffffffffff166040517fa43d6ada000000000000000000000000000000000000000000000000000000008152600401610a0c9291906173c6565b60405180910390fd5b610a2967ccc831c1beb3174960c01b613d4d565b610a3d673d5d653ea5564d2860c01b613d4d565b610a5167040d83f3dfa3dc1b60c01b613d4d565b5f81600301549050610a6d67db0f22bd8fe22b0e60c01b613d4d565b610a81674c22625b74ee680c60c01b613d4d565b5f8142610a8e919061741a565b9050610aa467fd41d722d30ee2e160c01b613d4d565b610ab8674fac538071eaa24160c01b613d4d565b600d548111158015610acb57505f601154115b15610b3b57610ae467a10d4cf8fb4490df60c01b613d4d565b610af8676923fdda55f0c1bc60c01b613d4d565b8481600d546040517fba2bbc6b000000000000000000000000000000000000000000000000000000008152600401610b329392919061744d565b60405180910390fd5b610b4f670494ebe34a00134160c01b613d4d565b610b63675d35c5bad93a49fc60c01b613d4d565b610b776706cd75f98e548ada60c01b613d4d565b5f80610b81612b70565b94505050509150610b9c673c85412dfdebdfec60c01b613d4d565b610bb0675a62f15756ba1c9060c01b613d4d565b5f825103610c4f57610bcc67d549b494afb7360060c01b613d4d565b610be067ddbaf49574b3bcb260c01b613d4d565b610be86139dd565b9150610bfe676360b8070a77543c60c01b613d4d565b815167ffffffffffffffff811115610c1957610c18616e3c565b5b604051908082528060200260200182016040528015610c475781602001602082028036833780820191505090505b509050610c64565b610c63679a1dd615841cf90c60c01b613d4d565b5b610c7867c186bc31302e573660c01b613d4d565b610c8c67b999abe063fb806460c01b613d4d565b5f610ca1672469703ccc3629eb60c01b613d4d565b610cb567cc9b1a9064cdbb8260c01b613d4d565b5f610cca678913234c572d754d60c01b613d4d565b610cde67da31350fdae9cb9460c01b613d4d565b5b8351821015610e0b57610cfc677eef093798a8cede60c01b613d4d565b610d10677c29f585b6d68c3260c01b613d4d565b88838381518110610d2457610d23617482565b5b602002602001015103610d5e57610d456701f72275272166ab60c01b613d4d565b610d5967e24ff8d41aab8f9b60c01b613d4d565b610e0b565b610d7267cbd2447dbc91632b60c01b613d4d565b610d86673befeffeeef3502760c01b613d4d565b88848381518110610d9a57610d99617482565b5b602002602001015103610dec57610dbb6769d9cb16e960204060c01b613d4d565b610dcf67d9c3bc008689110460c01b613d4d565b60019050610de767133100f5968fb04c60c01b613d4d565b610e0b565b610e0067e68daaf45d132cfa60c01b613d4d565b816001019150610cdf565b610e1f67d3081de80e03ea4660c01b613d4d565b86600401549750610e3a67e479aed0045968c960c01b613d4d565b610e4e671cd31201162abcc860c01b613d4d565b5f87600201805480602002602001604051908101604052809291908181526020018280548015610e9b57602002820191905f5260205f20905b815481526020019060010190808311610e87575b50505050509050610eb667032c7ac7c0d0792a60c01b613d4d565b610eca679b87c2cb5b6435c260c01b613d4d565b5f885f015f9054906101000a900473ffffffffffffffffffffffffffffffffffffffff169050610f04679eb223c78a9e43c960c01b613d4d565b60155f8c81526020019081526020015f205f8082015f6101000a81549073ffffffffffffffffffffffffffffffffffffffff0219169055600182015f6101000a81549073ffffffffffffffffffffffffffffffffffffffff0219169055600282015f610f70919061687c565b600382015f9055600482015f9055600582015f90555050610f9b67b26c249f9d0cf50260c01b613d4d565b610faf672580fe8db60b3f3860c01b613d4d565b821561107d57610fc967684754f081b4379a60c01b613d4d565b610fdd6775dc443937b08fe460c01b613d4d565b60166001601680549050610ff1919061741a565b8154811061100257611001617482565b5b905f5260205f2001546016858154811061101f5761101e617482565b5b905f5260205f20018190555061103f67c525999e1356e66b60c01b613d4d565b6110536787eade3476d5fb3860c01b613d4d565b6016805480611065576110646174af565b5b600190038181905f5260205f20015f90559055611092565b611091674c2bc052235cf1d660c01b613d4d565b5b6110a66724911a42eb20931860c01b613d4d565b6110ba678782e5f2439d135960c01b613d4d565b600b5f9054906101000a900473ffffffffffffffffffffffffffffffffffffffff1673ffffffffffffffffffffffffffffffffffffffff166342842e0e30338e6040518463ffffffff1660e01b8152600401611118939291906174dc565b5f604051808303815f87803b15801561112f575f80fd5b505af1158015611141573d5f803e3d5ffd5b5050505061115967d813b9061f64d1ec60c01b613d4d565b61116d67b24405b0cf99dbad60c01b613d4d565b5f8a11156111c05761118967f5f0b50db482c20560c01b613d4d565b61119d673d37be54775761e360c01b613d4d565b6111b16797d756c4ce4434db60c01b613d4d565b6111bb818b613d50565b6111d5565b6111d46797149f4b7471a7b360c01b613d4d565b5b6111e967080974d05e1878bc60c01b613d4d565b6111fd67354a2f62a2a4463d60c01b613d4d565b8073ffffffffffffffffffffffffffffffffffffffff163373ffffffffffffffffffffffffffffffffffffffff168c7f950733f4c0bf951b8e770f3cc619a4288e7b59b1236d59aeaf2c238488e8ae81600f54868f60405161126193929190617511565b60405180910390a4505050505050505050919050565b5f61128c678db644063f5adf4f60c01b613d4d565b6112a067b27b24271f1b0e3c60c01b613d4d565b6112b467bec2e51abe22f74960c01b613d4d565b6112be825f613e5e565b9050919050565b60135481565b60085481565b60055481565b5f6112ec67945cb38be3af9f9d60c01b613d4d565b61130067d0a54266e84a02ec60c01b613d4d565b61131467d893a7d7b0fa01c160c01b613d4d565b61131f826001613e5e565b9050919050565b60148181548110611335575f80fd5b905f5260205f20015f915090505481565b60075481565b60185f9054906101000a900473ffffffffffffffffffffffffffffffffffffffff1681565b5f61138667b79b8697177dd29a60c01b613d4d565b61139a672afc903ba38d427760c01b613d4d565b6113ae6738c35eda9fd6a22060c01b613d4d565b5f60155f8481526020019081526020015f206040518060c00160405290815f82015f9054906101000a900473ffffffffffffffffffffffffffffffffffffffff1673ffffffffffffffffffffffffffffffffffffffff1673ffffffffffffffffffffffffffffffffffffffff168152602001600182015f9054906101000a900473ffffffffffffffffffffffffffffffffffffffff1673ffffffffffffffffffffffffffffffffffffffff1673ffffffffffffffffffffffffffffffffffffffff168152602001600282018054806020026020016040519081016040528092919081815260200182805480156114c157602002820191905f5260205f20905b8154815260200190600101908083116114ad575b50505050508152602001600382015481526020016004820154815260200160058201548152505090506114fe67d5fac9bb35d886b760c01b613d4d565b8060800151915061151967d5c1a4020a6d386f60c01b613d4d565b611522836116ab565b8261152d919061754d565b915050919050565b600a5481565b61154361689a565b611557673b60f9673b695e3e60c01b613d4d565b61156b67d10c79f4285630fc60c01b613d4d565b60155f8381526020019081526020015f206040518060c00160405290815f82015f9054906101000a900473ffffffffffffffffffffffffffffffffffffffff1673ffffffffffffffffffffffffffffffffffffffff1673ffffffffffffffffffffffffffffffffffffffff168152602001600182015f9054906101000a900473ffffffffffffffffffffffffffffffffffffffff1673ffffffffffffffffffffffffffffffffffffffff1673ffffffffffffffffffffffffffffffffffffffff1681526020016002820180548060200260200160405190810160405280929190818152602001828054801561167d57602002820191905f5260205f20905b815481526020019060010190808311611669575b5050505050815260200160038201548152602001600482015481526020016005820154815250509050919050565b5f6116c067262c59f3e313c89160c01b613d4d565b6116d46740bf241300da1e9c60c01b613d4d565b6116e867c4df44903f2f13ca60c01b613d4d565b5f805f805f6116f5614250565b5050509450945094509450945061171667d51abdaa34ee93b060c01b613d4d565b61172a67378539c599fef7e960c01b613d4d565b5f5b8481101561189f57611748671dfb3903d728b8ca60c01b613d4d565b61175c67e8c56492e036ae0760c01b613d4d565b878382815181106117705761176f617482565b5b602002602001015103611880576117916717f23a878887b77660c01b613d4d565b6117a56790a6ede5742c2a0160c01b613d4d565b6117b96702c2039aa911235d60c01b613d4d565b85841115611821576117d56798f3591c4c3aa71460c01b613d4d565b6117e967b8f73c154caec73f60c01b613d4d565b83868383815181106117fe576117fd617482565b5b60200260200101516118109190617580565b61181a91906175ee565b9650611867565b61183567250544333eafc33860c01b613d4d565b611849674902fa686d4f14a360c01b613d4d565b81818151811061185c5761185b617482565b5b602002602001015196505b61187b671d68da5645902b3e60c01b613d4d565b61189f565b61189467a87bf913ef8ba97d60c01b613d4d565b80600101905061172c565b505050505050919050565b60115481565b600c5f9054906101000a900473ffffffffffffffffffffffffffffffffffffffff1681565b60125481565b60045481565b6118f5675fb095e68572c7fd60c01b613d4d565b611909674ffaff87fe4a931460c01b613d4d565b61191d67f92ba27a0d1553a660c01b613d4d565b5f601154036119805761193a6773dc6e18d35462e360c01b613d4d565b61194e676abbaf21b96af02f60c01b613d4d565b6040517fafb0be3300000000000000000000000000000000000000000000000000000000815260040160405180910390fd5b611994677676b013e6bde90660c01b613d4d565b6119a867f4789f7a14c2305c60c01b613d4d565b6119bc674e81b46311594afb60c01b613d4d565b5f60155f8381526020019081526020015f2090506119e467febd230606e3b11460c01b613d4d565b6119f867cfbd7b7f9709f3c160c01b613d4d565b5f81600301541115611a6957611a18674e3f59a6b49d243960c01b613d4d565b611a2c67707e95c37fa72df860c01b613d4d565b816040517fb4817ce7000000000000000000000000000000000000000000000000000000008152600401611a609190616975565b60405180910390fd5b611a7d6784e4125aa78cb14560c01b613d4d565b611a916719112f2310cdc0dd60c01b613d4d565b611aa567350240c1759f388560c01b613d4d565b5f6016805490509050611ac2677416502d37caff3460c01b613d4d565b611ad667d12261cc293881b760c01b613d4d565b6001548103611b4657611af367db8e22a2aae4c4c960c01b613d4d565b611b0767e2f8c1c8b07e397060c01b613d4d565b6001546040517ffd208615000000000000000000000000000000000000000000000000000000008152600401611b3d9190616975565b60405180910390fd5b611b5a6778a76e2ecccbf8fd60c01b613d4d565b611b6e67e45e6b48753826a060c01b613d4d565b611b826758ae19e3380ef36b60c01b613d4d565b5f600b5f9054906101000a900473ffffffffffffffffffffffffffffffffffffffff1673ffffffffffffffffffffffffffffffffffffffff1663ef0e239b856040518263ffffffff1660e01b8152600401611bdd9190616975565b5f60405180830381865afa158015611bf7573d5f803e3d5ffd5b505050506040513d5f823e3d601f19601f82011682018060405250810190611c1f9190617886565b9050611c35673a76fcb38b8420da60c01b613d4d565b611c4967e8ea110735df28f960c01b613d4d565b806080015163ffffffff1660075414611cc157611c70673a5ea511aec9683060c01b613d4d565b611c8467d22fe1044ec96d5060c01b613d4d565b836040517ff5a8097e000000000000000000000000000000000000000000000000000000008152600401611cb89190616975565b60405180910390fd5b611cd5670513308ca3644fb060c01b613d4d565b611ce96743f997de3d60f0d660c01b613d4d565b611cfd67368018565349192f60c01b613d4d565b5f801b60095414158015611d175750806040015160095414155b15611d8157611d30670800042bd0766b6f60c01b613d4d565b611d4467200df1d94f8ec1c760c01b613d4d565b836040517ff5a8097e000000000000000000000000000000000000000000000000000000008152600401611d789190616975565b60405180910390fd5b611d9567903248d5fddacd2f60c01b613d4d565b611da9677d155379856fc4ff60c01b613d4d565b611dbd679b82f7e84a90a54b60c01b613d4d565b5f600854118015611dda5750806060015163ffffffff1660085414155b15611e4457611df36747a36aa443be518060c01b613d4d565b611e076782dd798b09b0927e60c01b613d4d565b836040517ff5a8097e000000000000000000000000000000000000000000000000000000008152600401611e3b9190616975565b60405180910390fd5b611e5867af427bb8c050d97b60c01b613d4d565b611e6c67e95abe07f1abc35b60c01b613d4d565b611e8067458f7aa80cd725c260c01b613d4d565b60046005811115611e9457611e936172ba565b5b8160c001516005811115611eab57611eaa6172ba565b5b14611f2d57611ec46785438317cf8c678760c01b613d4d565b611ed867bd22984ddbe7c34960c01b613d4d565b8060c001516005811115611eef57611eee6172ba565b5b846040517ff014fe74000000000000000000000000000000000000000000000000000000008152600401611f249291906178cd565b60405180910390fd5b611f41672644ac6cc93d656660c01b613d4d565b611f5567308627550cc110c160c01b613d4d565b611f696751e795df4b68630260c01b613d4d565b5f816020015173ffffffffffffffffffffffffffffffffffffffff16803b806020016040519081016040528181525f908060200190933c805190602001209050611fbd67f129f4578b64385f60c01b613d4d565b611fd167d93d59b9440803b960c01b613d4d565b80600a541461204357611fee672f0be14ad63c061760c01b613d4d565b61200267e0c239128ff11c8260c01b613d4d565b81602001516040517f14460f2000000000000000000000000000000000000000000000000000000000815260040161203a9190616b6a565b60405180910390fd5b61205767d85b4441f7dc6e2760c01b613d4d565b61206b67c7ccf53593187cd460c01b613d4d565b61207f673936cdd6b028183860c01b613d4d565b5f601480549050905061209c67c2f4801b15bbbe8f60c01b613d4d565b6120b06761b3d67327101b3c60c01b613d4d565b5f8111156122ed576120cc67e7ee16ebed2540f360c01b613d4d565b6120e067a72e15bbb5655f2860c01b613d4d565b6120f467c47e2dd416eb04a160c01b613d4d565b5f8360e00151519050612111670c535f053be3fded60c01b613d4d565b61212567cd8610e4440655f760c01b613d4d565b80821461219157612140676611b0dd036acc2f60c01b613d4d565b61215467b046214fd3e4a7e560c01b613d4d565b866040517ff5a8097e0000000000000000000000000000000000000000000000000000000081526004016121889190616975565b60405180910390fd5b6121a5678c9c52218d1a6f9c60c01b613d4d565b6121b96783e9520d8c0d555f60c01b613d4d565b6121cd67fb86409e70338c5860c01b613d4d565b5f5b818110156122e6576121eb6723c2b097d0e1d78c60c01b613d4d565b6121ff67677db1216d5fcbe360c01b613d4d565b8460e00151818151811061221657612215617482565b5b602002602001015163ffffffff166014828154811061223857612237617482565b5b905f5260205f200154146122c75761225a6756ee63aad6d0cfc460c01b613d4d565b61226e671c97d3671c40ebae60c01b613d4d565b6014818154811061228257612281617482565b5b905f5260205f2001546040517faac42c2c0000000000000000000000000000000000000000000000000000000081526004016122be9190616975565b60405180910390fd5b6122db6792dc38080d3f7e3c60c01b613d4d565b8060010190506121cf565b5050612302565b6123016764b4517ed7078d7c60c01b613d4d565b5b61231667bcd4b3a1611f5b0160c01b613d4d565b61232a6717cd9be80d2dbea460c01b613d4d565b61234a86845f01516bffffffffffffffffffffffff168560e0015161497c565b61235e67499814e574e839ab60c01b613d4d565b8260200151855f015f6101000a81548173ffffffffffffffffffffffffffffffffffffffff021916908373ffffffffffffffffffffffffffffffffffffffff1602179055506123b76748732a6cde6e6fc360c01b613d4d565b33856001015f6101000a81548173ffffffffffffffffffffffffffffffffffffffff021916908373ffffffffffffffffffffffffffffffffffffffff16021790555061240d671771c072daf95cd560c01b613d4d565b61242167feb5763f56bc8af960c01b613d4d565b5f600c5f9054906101000a900473ffffffffffffffffffffffffffffffffffffffff1673ffffffffffffffffffffffffffffffffffffffff1663d564c4bf85602001516040518263ffffffff1660e01b81526004016124809190616b6a565b5f60405180830381865afa15801561249a573d5f803e3d5ffd5b505050506040513d5f823e3d601f19601f820116820180604052508101906124c2919061799d565b90506124d867577b3d76cacb88d160c01b613d4d565b808660020190805190602001906124f09291906168f7565b5061250567fc3361e73fd2e7b360c01b613d4d565b428660030181905550612522674587f09f8291706f60c01b613d4d565b6125366797ffc119fa1a6f4760c01b613d4d565b601687908060018154018082558091505060019003905f5260205f20015f9091909190915055612570675baef065073e94fb60c01b613d4d565b6125846768ff90b278ea102360c01b613d4d565b600b5f9054906101000a900473ffffffffffffffffffffffffffffffffffffffff1673ffffffffffffffffffffffffffffffffffffffff166342842e0e33308a6040518463ffffffff1660e01b81526004016125e2939291906174dc565b5f604051808303815f87803b1580156125f9575f80fd5b505af115801561260b573d5f803e3d5ffd5b50505050612623672639c340aa65939360c01b613d4d565b612637671549099502cdde1960c01b613d4d565b836020015173ffffffffffffffffffffffffffffffffffffffff163373ffffffffffffffffffffffffffffffffffffffff16887faa6b005b4958114a0c90492461c24af6525ae0178db7fbf44125ae9217c69ccb600f548560405161269d9291906179e4565b60405180910390a450505050505050565b6015602052805f5260405f205f91509050805f015f9054906101000a900473ffffffffffffffffffffffffffffffffffffffff1690806001015f9054906101000a900473ffffffffffffffffffffffffffffffffffffffff16908060030154908060040154908060050154905085565b60606127346793cea67fac559c3d60c01b613d4d565b612748672ec9ae8ec2f25e1660c01b613d4d565b61275c679cbc0eaa2ad2497c60c01b613d4d565b60148054806020026020016040519081016040528092919081815260200182805480156127a657602002820191905f5260205f20905b815481526020019060010190808311612792575b5050505050905090565b6127c467728251e3cf7536fb60c01b614e28565b6127d867f67121bf33ddecee60c01b614e28565b6127ec6719eed9c659e1fd4460c01b614e28565b6127f583614e2b565b612809670d146e417eb893c760c01b614e28565b61281d67700b44f0b7d75bb660c01b614e28565b5f73ffffffffffffffffffffffffffffffffffffffff168173ffffffffffffffffffffffffffffffffffffffff16148015612868575061286767fff6d896a810c10160c01b615a6a565b5b806128ba57505f73ffffffffffffffffffffffffffffffffffffffff168273ffffffffffffffffffffffffffffffffffffffff161480156128b957506128b867b08f33255ba0830360c01b615a6a565b5b5b15612919576128d367fd2036a86b639e5460c01b614e28565b6128e7678f1e98ffe833c05860c01b614e28565b6040517f6b093aad00000000000000000000000000000000000000000000000000000000815260040160405180910390fd5b61292d673d231ffddfa4a7fc60c01b614e28565b612941673bfa40a7d3c741df60c01b614e28565b8060185f6101000a81548173ffffffffffffffffffffffffffffffffffffffff021916908373ffffffffffffffffffffffffffffffffffffffff16021790555061299567a97ab8d59b34effb60c01b614e28565b8160175f6101000a81548173ffffffffffffffffffffffffffffffffffffffff021916908373ffffffffffffffffffffffffffffffffffffffff160217905550505050565b60105481565b6129f467e51ce209f260b79460c01b614e28565b612a0867e15fa7f1fc69f65760c01b614e28565b612a1c6717eec75a9d49bc2960c01b614e28565b5f81601054612a2b919061754d565b9050612a41674280e561b45dc3c860c01b614e28565b612a5567de28c801fbf6460960c01b614e28565b5f82601154612a64919061754d565b9050612a7a67de16e5f19441848c60c01b614e28565b81601081905550612a9567e1a0652d568fb7f560c01b614e28565b80601181905550612ab067f08a3e0c13e75bcf60c01b614e28565b612ac467617cc62bf3586c6c60c01b614e28565b612af160185f9054906101000a900473ffffffffffffffffffffffffffffffffffffffff16333086615a74565b612b05673b1715f63f9e21ce60c01b614e28565b612b1967233db05f3608822460c01b614e28565b3373ffffffffffffffffffffffffffffffffffffffff167f36af321ec8d3c75236829c5317affd40ddb308863a1236d2d277a4025cccee1e848484604051612b639392919061744d565b60405180910390a2505050565b6060806060806060612b8c674fdba129aa2af90060c01b613d4d565b612ba0674c5b49b15e35389960c01b613d4d565b612bb4678d61fbb04380d8d660c01b613d4d565b5f805f805f805f80612bc4614250565b97509750975097509750975097509750612be8671f6f4aa8168d8c5160c01b613d4d565b612bfc6748ad113f12de3d0a60c01b613d4d565b6060612c126729dc887e991dd68a60c01b613d4d565b612c26676991e22f2e4da58f60c01b613d4d565b6060612c3c672076a78c48b531d060c01b613d4d565b845167ffffffffffffffff811115612c5757612c56616e3c565b5b604051908082528060200260200182016040528015612c855781602001602082028036833780820191505090505b509a50612c9c676c6f161b209eaa8c60c01b613d4d565b612cb067d36860aaa93719ab60c01b613d4d565b5f612cc5675ce556df33a31d3c60c01b613d4d565b612cd96706f34f2bc459439d60c01b613d4d565b5f8a11156133a257612cf5677c32e98a33aa864660c01b613d4d565b612d0967877ce4ba46d6ea3960c01b613d4d565b8967ffffffffffffffff811115612d2357612d22616e3c565b5b604051908082528060200260200182016040528015612d515781602001602082028036833780820191505090505b509250612d6867f417a4433783737360c01b613d4d565b8967ffffffffffffffff811115612d8257612d81616e3c565b5b604051908082528060200260200182016040528015612db05781602001602082028036833780820191505090505b509150612dc767619f31846396b74660c01b613d4d565b612ddb679499473f2c8f00d160c01b613d4d565b8a8911156131e857612df767b8080b68113ed43160c01b613d4d565b612e0b67306a64e4c70368b660c01b613d4d565b612e1f67bbb03f2b224f87bc60c01b613d4d565b5f612e346705b3030cf51892c960c01b613d4d565b612e4867cf713722127b0bfe60c01b613d4d565b5f612e5d677edf22ec1d3ce46360c01b613d4d565b612e7167bfe24e495781dac260c01b613d4d565b5f600190505b8c811015612fe457612e9367e84c32caa6cea60760c01b613d4d565b8b8e8b8381518110612ea857612ea7617482565b5b6020026020010151612eba9190617580565b612ec491906175ee565b9250612eda67d2f401776d11c89d60c01b613d4d565b8282612ee6919061754d565b9150612efc67811942612c76f5f960c01b613d4d565b8a8181518110612f0f57612f0e617482565b5b60200260200101519350612f2d67c91c541069baa6d260c01b613d4d565b8a8181518110612f4057612f3f617482565b5b6020026020010151868281518110612f5b57612f5a617482565b5b602002602001018181525050612f7b67e1ad6cb375a3cfb360c01b613d4d565b82858281518110612f8f57612f8e617482565b5b602002602001018181525050612faf67341595e3f65d793960c01b613d4d565b8260155f8681526020019081526020015f206004015f828254612fd2919061754d565b92505081905550806001019050612e77565b50612ff96714222f69194ca49f60c01b613d4d565b8a8d8a5f8151811061300e5761300d617482565b5b60200260200101516130209190617580565b61302a91906175ee565b915061304067346cfce79ec5b51760c01b613d4d565b818161304c919061754d565b905061306267ae819aa360ce4c9760c01b613d4d565b895f8151811061307557613074617482565b5b6020026020010151925061309367e2fc9dbc2a3ce15d60c01b613d4d565b895f815181106130a6576130a5617482565b5b6020026020010151855f815181106130c1576130c0617482565b5b6020026020010181815250506130e1672ca61f0e99fa7af860c01b613d4d565b6130f56757e700bf11ca008b60c01b613d4d565b808d111561314357613111672098ca7749b604e060c01b613d4d565b613125677215b59e5eb8d9cb60c01b613d4d565b808d613131919061741a565b8261313c919061754d565b9150613158565b613157678c04c2ca0fd90d5c60c01b613d4d565b5b61316c6738ca05658486f26a60c01b613d4d565b81845f815181106131805761317f617482565b5b6020026020010181815250506131a06790042ade28dd9ea460c01b613d4d565b8160155f8581526020019081526020015f206004015f8282546131c3919061754d565b925050819055506131de67515d37aa32fc842560c01b613d4d565b5f9c505050613382565b6131fc67d774894937d82f8d60c01b613d4d565b61321067dea9aa1ab1dc07fc60c01b613d4d565b61322467dae1f694e6dd724e60c01b613d4d565b5f5b8a81101561335e5761324267cc62e287cb2e58ec60c01b613d4d565b88818151811061325557613254617482565b5b60200260200101519150613273679286a905d343ba5860c01b613d4d565b88818151811061328657613285617482565b5b60200260200101518482815181106132a1576132a0617482565b5b6020026020010181815250506132c167fe0e963d96dd379b60c01b613d4d565b8781815181106132d4576132d3617482565b5b60200260200101518382815181106132ef576132ee617482565b5b60200260200101818152505061330f67a32141656bdf7d2b60c01b613d4d565b87818151811061332257613321617482565b5b602002602001015160155f8481526020019081526020015f206004015f82825461334c919061754d565b92505081905550806001019050613226565b5061337367c4fda6cfdcda280f60c01b613d4d565b888b61337f919061741a565b9a505b6133966709f19c8348f84c5160c01b613d4d565b8a6011819055506133b7565b6133b6674f3e95ac004ba9dc60c01b613d4d565b5b6133cb67f5f94e24aac8854160c01b613d4d565b6133df676bdfc65183ad79e160c01b613d4d565b5f86511115613926576133fc6770b935fbe3b5e80060c01b613d4d565b6134106718beaf48ca51eceb60c01b613d4d565b61342467714c0a0acbd239e760c01b613d4d565b5f600f54905061343e670988da0ad546d59660c01b613d4d565b5f9a5061345567b279bcfd6a2e32c460c01b613d4d565b61346967b0c377f0e2e35dd160c01b613d4d565b5f5b87518110156137ac57613488676ebb827bd4a0b18b60c01b613d4d565b87818151811061349b5761349a617482565b5b602002602001015192506134b9674de57254f447e96260c01b613d4d565b8681815181106134cc576134cb617482565b5b602002602001015160155f8581526020019081526020015f2060020190805190602001906134fb9291906168f7565b5061351067823eaafb77a238c160c01b613d4d565b6135246787daeb6ff783808e60c01b613d4d565b5f86828151811061353857613537617482565b5b6020026020010151111561375f5761355a67667b54ca39d435d060c01b613d4d565b61356e67446c71363753bcdb60c01b613d4d565b85818151811061358157613580617482565b5b602002602001015160155f8581526020019081526020015f20600501546135a8919061754d565b8682815181106135bb576135ba617482565b5b6020026020010181815250506135db674b5d2ecfa9564ae360c01b613d4d565b8581815181106135ee576135ed617482565b5b602002602001015160155f8581526020019081526020015f206005018190555061362267060189fa49c1003360c01b613d4d565b61363667b9f9b5a693a266e160c01b613d4d565b600e5486828151811061364c5761364b617482565b5b602002602001015111156136c95761366e67526901b60e11e31b60c01b613d4d565b61368267b18e6670bf7b021160c01b613d4d565b828e828151811061369657613695617482565b5b6020026020010181815250506136b6679d7dad34115111ba60c01b613d4d565b8b806136c190617a12565b9c505061375a565b6136dd67570ec01a454902f260c01b613d4d565b6136f167173fe970a80dc00360c01b613d4d565b613705670c8d79295660f89b60c01b613d4d565b827f33dc5cdf1e035de8a7fe16ad7a30a441d30ee51719d3f07703ee35d4348f07798388848151811061373b5761373a617482565b5b60200260200101516040516137519291906178cd565b60405180910390a25b6137a1565b61377367c7588d0cb9fdd8a260c01b613d4d565b61378767ec15829699da8a5a60c01b613d4d565b5f60155f8581526020019081526020015f20600501819055505b80600101905061346b565b506137c1676822dcd476d0699f60c01b613d4d565b6137d567891ab7a1d0192f4160c01b613d4d565b5f8b1115613829576137f167cd992e9f9f9b4f8b60c01b613d4d565b613805671e4c6cf4153d4b4960c01b613d4d565b6138196730d3a6507786907460c01b613d4d565b6138248d868d615bcd565b61383e565b61383d67dba0dd89dd5d12a260c01b613d4d565b5b61385267fec66c235dea1af060c01b613d4d565b613866673acbdcc90d8ce29b60c01b613d4d565b5f60135442613875919061741a565b905061388b677ea0f16a4db6248460c01b613d4d565b426013819055506138a6677eadbe1822440bdf60c01b613d4d565b6001826138b3919061754d565b600f819055506138cd67b68f40ad8755a47560c01b613d4d565b6138e167e04325b461c2b7d660c01b613d4d565b817f48b735a18ed32318d316214e41387be29c52e29df4598f2b8e40fa843be3f9408e8787856040516139179493929190617a59565b60405180910390a2505061393b565b61393a671aab091140872ddf60c01b613d4d565b5b61394f673910848cecf6a65c60c01b613d4d565b613963672a17f538c83ec5ca60c01b613d4d565b858584849f509f509f509f5050505050505050505050509091929394565b5f5481565b600b5f9054906101000a900473ffffffffffffffffffffffffffffffffffffffff1681565b60095481565b60035481565b60025481565b601681815481106139cc575f80fd5b905f5260205f20015f915090505481565b60606139f367ec75e3ae4d9af9e060c01b613d4d565b613a0767cac24b1853f05c8760c01b613d4d565b613a1b67f85acd8abc3966f160c01b613d4d565b6016805480602002602001604051908101604052809291908181526020018280548015613a6557602002820191905f5260205f20905b815481526020019060010190808311613a51575b5050505050905090565b5f613a8467ec91034272ec50b360c01b613d4d565b613a9867ec3983fa7c7b9c2c60c01b613d4d565b600554601354613aa8919061754d565b905090565b600e5481565b5f613ac8679278db44829ffe3060c01b613d4d565b613adc675ee2d2ec16b31aaa60c01b613d4d565b613af067f628e123289c1d4760c01b613d4d565b5f60155f8481526020019081526020015f206040518060c00160405290815f82015f9054906101000a900473ffffffffffffffffffffffffffffffffffffffff1673ffffffffffffffffffffffffffffffffffffffff1673ffffffffffffffffffffffffffffffffffffffff168152602001600182015f9054906101000a900473ffffffffffffffffffffffffffffffffffffffff1673ffffffffffffffffffffffffffffffffffffffff1673ffffffffffffffffffffffffffffffffffffffff16815260200160028201805480602002602001604051908101604052809291908181526020018280548015613c0357602002820191905f5260205f20905b815481526020019060010190808311613bef575b5050505050815260200160038201548152602001600482015481526020016005820154815250509050613c40676a86e8d520467a7e60c01b613d4d565b613c5467121de578823c7c9e60c01b613d4d565b600e548160a001511115613c9357613c7667183e6ed21df5305a60c01b613d4d565b613c8a67671e2f0e76f5ff0e60c01b613d4d565b60029150613d0e565b613ca7671673779190781c6260c01b613d4d565b613cbb678792e8b3a2fe4ce860c01b613d4d565b5f81606001511115613cf857613cdb673d328f99bc73beb060c01b613d4d565b613cef6724905de915fba30b60c01b613d4d565b60019150613d0d565b613d0c674fa3e15d1b86bb7460c01b613d4d565b5b5b50919050565b6040518060400160405280600581526020017f302e322e3000000000000000000000000000000000000000000000000000000081525081565b50565b613d6467635885f49ad8f5fd60c01b614e28565b613d7867fb34313d3861f89260c01b614e28565b8060105f828254613d89919061741a565b92505081905550613da467dcb895f2ea4ffe3a60c01b614e28565b613db867da4d7baa996def3d60c01b614e28565b613de460185f9054906101000a900473ffffffffffffffffffffffffffffffffffffffff168383616378565b613df867616d6488ce55219f60c01b614e28565b613e0c67e8e9c8f79a29c6fd60c01b614e28565b8173ffffffffffffffffffffffffffffffffffffffff167f884edad9ce6fa2440d8a54cc123490eb96d2768479d49ff9c7366125a942436482604051613e529190616975565b60405180910390a25050565b5f613e736767970a625609726060c01b613d4d565b613e87670b6d0ac970986fd360c01b613d4d565b613e9b6790c89c1b555b703b60c01b613d4d565b5f60155f8581526020019081526020015f209050613ec367a68f3c46a3e047ea60c01b613d4d565b613ed76732ca36aea097423660c01b613d4d565b806001015f9054906101000a900473ffffffffffffffffffffffffffffffffffffffff1673ffffffffffffffffffffffffffffffffffffffff163373ffffffffffffffffffffffffffffffffffffffff1614613fb757613f4167e1848d64d4c4f05060c01b613d4d565b613f5567bd590461ae54ffb060c01b613d4d565b33816001015f9054906101000a900473ffffffffffffffffffffffffffffffffffffffff166040517fa43d6ada000000000000000000000000000000000000000000000000000000008152600401613fae9291906173c6565b60405180910390fd5b613fcb6781a3c9180c0edf1b60c01b613d4d565b613fdf6730cb4e9d9bcb384660c01b613d4d565b613ff367ba7542e73e0e0e0a60c01b613d4d565b82156140475761400d67e1e4061e2aca908260c01b613d4d565b614021679a3d663afee03db660c01b613d4d565b614035671faed90b85b665e060c01b613d4d565b61403d612b70565b505050505061405c565b61405b67395d45650fa07d1c60c01b613d4d565b5b614070676aa413e550bf26cb60c01b613d4d565b8060040154915061408b677dca38111e83ca3e60c01b613d4d565b61409f67f8a7ef0f7e4733cd60c01b613d4d565b5f8203614100576140ba679b0b81678d4ca52c60c01b613d4d565b6140ce675ca3e5a3f224f48e60c01b613d4d565b6040517f7c946ed700000000000000000000000000000000000000000000000000000000815260040160405180910390fd5b61411467d23096aa9693781c60c01b613d4d565b6141286738f5ca520727e9f460c01b613d4d565b5f8160040181905550614145671af0acbeff52230e60c01b613d4d565b61415967ce3dbaf3d1190c3160c01b613d4d565b5f815f015f9054906101000a900473ffffffffffffffffffffffffffffffffffffffff16905061419367bba51feff582f07260c01b613d4d565b6141a767cd5ead69cfc4288e60c01b613d4d565b6141b18184613d50565b6141c5670fd034317bc2272760c01b613d4d565b6141d96754f1360b8352b74160c01b613d4d565b8073ffffffffffffffffffffffffffffffffffffffff163373ffffffffffffffffffffffffffffffffffffffff16867f31add0166dae59ea66bbc180e4fae85b72fc9b7b5fc7b0f7257e4721a840c96e600f54866002018860405161424093929190617b74565b60405180910390a4505092915050565b5f805f606080606080606061426f67c62ed9990cf6492460c01b613d4d565b614283674b6032b7c02e918f60c01b613d4d565b61429767e23533bc7741408f60c01b613d4d565b5f60135490506142b1672be650819e9f5fef60c01b613d4d565b60115498506142ca67efc1e0918338106c60c01b613d4d565b6142de6702072b5b1e4cc00f60c01b613d4d565b60055481426142ed919061741a565b101580156142fa57505f89115b1561495c5761431367bfc4a320adecdb3660c01b613d4d565b614327672e42c98b38c6419f60c01b613d4d565b61433b6769e41269f4582bf260c01b613d4d565b5f60168054905090506143586756adfc8fd8e631c260c01b613d4d565b8067ffffffffffffffff81111561437257614371616e3c565b5b6040519080825280602002602001820160405280156143a05781602001602082028036833780820191505090505b5094506143b767736c93f44d2f18c160c01b613d4d565b8067ffffffffffffffff8111156143d1576143d0616e3c565b5b6040519080825280602002602001820160405280156143ff5781602001602082028036833780820191505090505b50965061441667c877b9a0720594ce60c01b613d4d565b8067ffffffffffffffff8111156144305761442f616e3c565b5b60405190808252806020026020018201604052801561445e5781602001602082028036833780820191505090505b509550614475676c5bb81a6ab4d9ac60c01b613d4d565b8067ffffffffffffffff81111561448f5761448e616e3c565b5b6040519080825280602002602001820160405280156144c257816020015b60608152602001906001900390816144ad5790505b5093506144d96737ea36bb74e2a28960c01b613d4d565b8067ffffffffffffffff8111156144f3576144f2616e3c565b5b6040519080825280602002602001820160405280156145215781602001602082028036833780820191505090505b5092506145386776191fde51a39ebe60c01b613d4d565b61454c67aa08b3565a23888660c01b613d4d565b5f5b818110156149555761456a67694c7320372772ee60c01b613d4d565b6016818154811061457e5761457d617482565b5b905f5260205f20015486828151811061459a57614599617482565b5b6020026020010181815250506145ba6779cc23ed0aa1c0f660c01b613d4d565b6145ce67b07c0aae1c26850360c01b613d4d565b5f60155f8884815181106145e5576145e4617482565b5b602002602001015181526020019081526020015f209050614610672d250099e645c12a60c01b613d4d565b614624679e613fb7b26ab5e660c01b613d4d565b5f84905061463c670434fec454358ebf60c01b613d4d565b614650678e8144037a6d176a60c01b613d4d565b5f8260030154905061466c6767337e594c5d5e8d60c01b613d4d565b61468067f0d71fc1aac5ac9e60c01b613d4d565b818111156146b85761469c67e741436269fab0c860c01b613d4d565b6146b06723ba939320068d5360c01b613d4d565b8091506146cd565b6146cc67e4ac84816504597260c01b613d4d565b5b6146e1671b31ed9df2ad02ef60c01b613d4d565b81426146ed919061741a565b9050614703670301236afd685d8a60c01b613d4d565b61471767e36d286d5de291da60c01b613d4d565b5f61472c67a1d2a9fbde161cd960c01b613d4d565b6147a9845f015f9054906101000a900473ffffffffffffffffffffffffffffffffffffffff168560020180548060200260200160405190810160405280929190818152602001828054801561479e57602002820191905f5260205f20905b81548152602001906001019080831161478a575b5050505050846164cc565b8a87815181106147bc576147bb617482565b5b6020026020010181905281925050506147df67ae722a9c65abd1a960c01b613d4d565b6147f367c26f2ea815938b1760c01b613d4d565b80156148fd5761480d672c6af4a56a8cae0260c01b613d4d565b6148216702a311700a924e7260c01b613d4d565b8160025461482f9190617580565b8b8f8151811061484257614841617482565b5b6020026020010181815250506148626715e8547b4f015e6760c01b613d4d565b8a8e8151811061487557614874617482565b5b60200260200101518d614888919061754d565b9c5061489e677538415f78b6eb6760c01b613d4d565b8985815181106148b1576148b0617482565b5b60200260200101518c8f815181106148cc576148cb617482565b5b6020026020010181815250506148ec6740364d66ca34263860c01b613d4d565b8d6148f690617a12565b9d50614946565b614911679eb1f6115433b3f160c01b613d4d565b61492567920ab61dd6c323cb60c01b613d4d565b8188868151811061493957614938617482565b5b6020026020010181815250505b5050505080600101905061454e565b5050614971565b6149706747b1af292e9d97e060c01b613d4d565b5b509091929394959697565b61499067589e9956abedeb3660c01b614e28565b6149a4673036e3de2c6cbc5b60c01b614e28565b6149b867a75aa88e19eb699760c01b614e28565b5f8060175f9054906101000a900473ffffffffffffffffffffffffffffffffffffffff1673ffffffffffffffffffffffffffffffffffffffff16633cebfa4f866040518263ffffffff1660e01b8152600401614a149190616975565b6040805180830381865afa158015614a2e573d5f803e3d5ffd5b505050506040513d601f19601f82011682018060405250810190614a529190617bb0565b91509150614a6a677e98e3305f56bfd960c01b614e28565b614a7e67d86b3ac8b4cf1ade60c01b614e28565b8173ffffffffffffffffffffffffffffffffffffffff1660185f9054906101000a900473ffffffffffffffffffffffffffffffffffffffff1673ffffffffffffffffffffffffffffffffffffffff1614614b5a57614ae667f1ba3ca13b633dbe60c01b614e28565b614afa6735bc4aaf24337e0a60c01b614e28565b60185f9054906101000a900473ffffffffffffffffffffffffffffffffffffffff16826040517f5c01c068000000000000000000000000000000000000000000000000000000008152600401614b519291906173c6565b60405180910390fd5b614b6e67902f3a6101c9543b60c01b614e28565b614b82676acccf5d9d8ca7ce60c01b614e28565b614b9667f09e62e4b38315b460c01b614e28565b5f6003549050614bb06797baa5a27c0aa71560c01b614e28565b614bc46759163cf86578882960c01b614e28565b80826bffffffffffffffffffffffff161015614c4157614bee67cfa73824b32ab15760c01b614e28565b614c0267bb38b483d5092b7a60c01b614e28565b81816040517facc2c91c000000000000000000000000000000000000000000000000000000008152600401614c38929190617c27565b60405180910390fd5b614c55676c67238891c0ebda60c01b614e28565b614c69670e361bc65aa4d97860c01b614e28565b614c7d679c2657f2607e601960c01b614e28565b5f5b8451811015614e1f57614c9c67b65d2738fa24396860c01b614e28565b614cb06759c1891386691c2860c01b614e28565b5f60175f9054906101000a900473ffffffffffffffffffffffffffffffffffffffff1673ffffffffffffffffffffffffffffffffffffffff166375c1f93489888581518110614d0257614d01617482565b5b60200260200101516040518363ffffffff1660e01b8152600401614d27929190617c7e565b602060405180830381865afa158015614d42573d5f803e3d5ffd5b505050506040513d601f19601f82011682018060405250810190614d669190617ca5565b9050614d7c67128fc72dca8998c060c01b614e28565b614d9067386ce43cad0a2a4260c01b614e28565b82811015614dff57614dac67e6136c92759824ac60c01b614e28565b614dc0671f316e1ab848d9c760c01b614e28565b80836040517facc2c91c000000000000000000000000000000000000000000000000000000008152600401614df69291906178cd565b60405180910390fd5b614e136771c50a898711863160c01b614e28565b50806001019050614c7f565b50505050505050565b50565b614e3f672a2db44514264ffd60c01b613d4d565b614e53672492e18708658a6560c01b613d4d565b614e6767dac35e88b67bf01c60c01b613d4d565b5f73ffffffffffffffffffffffffffffffffffffffff16600b5f9054906101000a900473ffffffffffffffffffffffffffffffffffffffff1673ffffffffffffffffffffffffffffffffffffffff1614614f1557614ecf67e51092924f43d31660c01b613d4d565b614ee36798fd479897b9601e60c01b613d4d565b6040517f0dc149f000000000000000000000000000000000000000000000000000000000815260040160405180910390fd5b614f29678488ca0ab9776a2260c01b613d4d565b614f3d679649767eb9d5859e60c01b613d4d565b614f51674a3e26ae92b767af60c01b613d4d565b5f801b815f0151148015614f755750614f746763519cb412a8b1d160c01b61686f565b5b80614fbb57505f8160200151148015614f9e5750614f9d6787c53cc632d7768f60c01b61686f565b5b8015614fba5750614fb96717c4c9c2d0caca5960c01b61686f565b5b5b8061500157505f8160400151148015614fe45750614fe36716708f27892fd71060c01b61686f565b5b80156150005750614fff67ea49f4214eb167cf60c01b61686f565b5b5b8061504757505f8160c0015114801561502a5750615029674b08c3081087cddb60c01b61686f565b5b80156150465750615045675baf056e2bc91f2a60c01b61686f565b5b5b8061508e57505f816101000151148015615071575061507067ca1bf2427659a1c060c01b61686f565b5b801561508d575061508c6767111a1a8b48c54c60c01b61686f565b5b5b806150d457505f8160e001511480156150b757506150b66728f7bc0e90ee644360c01b61686f565b5b80156150d357506150d26799daef071859bbef60c01b61686f565b5b5b8061511a57505f81608001511480156150fd57506150fc67ffe060ff7e9fb36160c01b61686f565b5b8015615119575061511867ea07e773377e04a160c01b61686f565b5b5b8061514457505f8160a00151148015615143575061514267e9f390a82f6c709c60c01b61686f565b5b5b156151a35761515d679eba09dc015cbcc560c01b613d4d565b6151716745d6ca59ecad015f60c01b613d4d565b6040517f7c946ed700000000000000000000000000000000000000000000000000000000815260040160405180910390fd5b6151b76787b2fe39823145fc60c01b613d4d565b6151cb67033f3d5ef40af8a560c01b613d4d565b6151df67e3c5e157ec327f7c60c01b613d4d565b8060a001518160800151101561525e5761520367522ac55dddb6a1a060c01b613d4d565b6152176718fa65bf27755e3c60c01b613d4d565b80608001518160a001516040517f491a2bb10000000000000000000000000000000000000000000000000000000081526004016152559291906178cd565b60405180910390fd5b615272671041b1b339a3659260c01b613d4d565b615286671bbe027a05b3400e60c01b613d4d565b61529a67121f520129c0653a60c01b613d4d565b600281606001511015615313576152bb67488751e83e4402dd60c01b613d4d565b6152cf671e2b8373cd4becbd60c01b613d4d565b806060015160026040517f491a2bb100000000000000000000000000000000000000000000000000000000815260040161530a929190617d09565b60405180910390fd5b61532767f1b915603dbbd60560c01b613d4d565b61533b6727102663856c91ef60c01b613d4d565b61534f675aaf843c58cbcafe60c01b613d4d565b5f73ffffffffffffffffffffffffffffffffffffffff16816101a0015173ffffffffffffffffffffffffffffffffffffffff1614801561539f575061539e67d074cca46dde3f4860c01b61686f565b5b806153f657505f73ffffffffffffffffffffffffffffffffffffffff16816101c0015173ffffffffffffffffffffffffffffffffffffffff161480156153f557506153f46724221c7a7f174a0360c01b61686f565b5b5b156154555761540f67fd83697690fa5acf60c01b613d4d565b6154236784baadb5284c9e4160c01b613d4d565b6040517fd92e233d00000000000000000000000000000000000000000000000000000000815260040160405180910390fd5b6154696742431a4ae767d8b960c01b613d4d565b61547d6753a5692cd1a8ec0d60c01b613d4d565b61549167a2b188ae2b8ea93160c01b613d4d565b5f816101c0015173ffffffffffffffffffffffffffffffffffffffff163b0361551e576154c8677727249dc078aa9560c01b613d4d565b6154dc6732f795007cfc85b060c01b613d4d565b806101c001516040517f601c0c210000000000000000000000000000000000000000000000000000000081526004016155159190616b6a565b60405180910390fd5b6155326749700644e020a10f60c01b613d4d565b61554667fe074953ff6be5c760c01b613d4d565b805f01515f819055506155636737c66154ce79c23f60c01b613d4d565b806020015160018190555061558267c7d76957307f666a60c01b613d4d565b80604001516002819055506155a1678ff518eb839d2f5d60c01b613d4d565b80606001516003819055506155c067411c6ce04d8ab74160c01b613d4d565b8060a001516004819055506155df672d3717c07dbdb43e60c01b613d4d565b8060c001516005819055506155fe67e7a8dc2d23ad8a1f60c01b613d4d565b8060e0015160068190555061561d67abe8eb0cbd6135d160c01b613d4d565b80610100015160078190555061563d67b151868ec52f50c160c01b613d4d565b806101a00151600b5f6101000a81548173ffffffffffffffffffffffffffffffffffffffff021916908373ffffffffffffffffffffffffffffffffffffffff160217905550615696671f37a0b0ad0595b860c01b613d4d565b806101c00151600c5f6101000a81548173ffffffffffffffffffffffffffffffffffffffff021916908373ffffffffffffffffffffffffffffffffffffffff1602179055506156ef67c7deadc03df6f46860c01b613d4d565b80610140015160088190555061570f67f50d2600a5d638e660c01b613d4d565b80610160015160098190555061572f6747958d183a38d2ca60c01b613d4d565b61574367f9012e0094bdf7b560c01b613d4d565b5f615758675ce53b547c08d35460c01b613d4d565b61576c671fc53c5a1e69f05a60c01b613d4d565b5f5b826101200151518110156158f15761579067b96026a178f29abc60c01b613d4d565b6157a46741a8cf9f36c6f80c60c01b613d4d565b8183610120015182815181106157bd576157bc617482565b5b60200260200101511161584e576157de674c2bf8fc1665643260c01b613d4d565b6157f26765bc5ccec8bce95260c01b613d4d565b826101200151818151811061580a57615809617482565b5b60200260200101516040517faac42c2c0000000000000000000000000000000000000000000000000000000081526004016158459190616975565b60405180910390fd5b61586267cae5d426a67e376a60c01b613d4d565b6158766750343f9506e9dacc60c01b613d4d565b826101200151818151811061588e5761588d617482565b5b602002602001015191506158ac672b6a9167ccc80ceb60c01b613d4d565b6158c06730058f839559c96360c01b613d4d565b601482908060018154018082558091505060019003905f5260205f20015f909190919091505580600101905061576e565b5061590667ca9624a86bd5407360c01b613d4d565b61591a67fbd1d40ec6571a9460c01b613d4d565b5f801b826101800151036159825761593c67d8c0e2607a1ad1d560c01b613d4d565b61595067942f39686211a15d60c01b613d4d565b6040517f7c946ed700000000000000000000000000000000000000000000000000000000815260040160405180910390fd5b61599667f55ea79d96a65ea960c01b613d4d565b6159aa676cc3ea43d7dcf3db60c01b613d4d565b816101800151600a819055506159ca671b1731a399a7be8a60c01b613d4d565b60055482608001516159dc9190617580565b600d819055506159f66736604ef96fe5027160c01b613d4d565b6005548260a00151615a089190617580565b600e81905550615a2267c47c17c89464dc8c60c01b613d4d565b8160e0015182602001518360400151615a3b9190617580565b615a459190617580565b601281905550615a5f6777c70997f350a74960c01b613d4d565b426013819055505050565b5f60019050919050565b615a88677a9af0919098f18760c01b616879565b615a9c67405c6584ae153a6860c01b616879565b615ab067c19b8e54ef772cc960c01b616879565b5f615ac5678f06248bfb1134a860c01b616879565b6040517f23b872dd000000000000000000000000000000000000000000000000000000005f5284600452836024528260445260205f60645f808a5af13d15601f3d1160015f511416171691505f6060528060405250615b2e67b75489fd1b428d7d60c01b616879565b615b4267ab0c1b2e6c071a0860c01b616879565b80615bb257615b5b67e101a13537bfc76d60c01b616879565b615b6f67669f363c698ad88e60c01b616879565b848484846040517fabae3d6d000000000000000000000000000000000000000000000000000000008152600401615ba99493929190617d30565b60405180910390fd5b615bc667a137dfed14e50bb960c01b616879565b5050505050565b615be167a1e38b3a4a4fb61660c01b613d4d565b615bf5670633a3212b111f0360c01b613d4d565b615c0967dc7cf9adf3752cc460c01b613d4d565b5f83519050615c2267e34ef1df653fe56660c01b613d4d565b615c36671256969752f00cd560c01b613d4d565b5f8267ffffffffffffffff811115615c5157615c50616e3c565b5b604051908082528060200260200182016040528015615c7f5781602001602082028036833780820191505090505b509050615c9667886de0739fa9b63760c01b613d4d565b615caa67970fecb2ec45ff3560c01b613d4d565b5f8367ffffffffffffffff811115615cc557615cc4616e3c565b5b604051908082528060200260200182016040528015615cf35781602001602082028036833780820191505090505b509050615d0a670758d01c6072e34b60c01b613d4d565b615d1e670c5b5d4960893e0860c01b613d4d565b5f8467ffffffffffffffff811115615d3957615d38616e3c565b5b604051908082528060200260200182016040528015615d675781602001602082028036833780820191505090505b509050615d7e672ee9bec04b6325cd60c01b613d4d565b615d9267a65d30ba3b47833f60c01b613d4d565b5f8567ffffffffffffffff811115615dad57615dac616e3c565b5b604051908082528060200260200182016040528015615ddb5781602001602082028036833780820191505090505b509050615df2674a6ab9743b728bfb60c01b613d4d565b615e066708415ae3e506163c60c01b613d4d565b5f8667ffffffffffffffff811115615e2157615e20616e3c565b5b604051908082528060200260200182016040528015615e4f5781602001602082028036833780820191505090505b509050615e6667c26d0d7a3837036160c01b613d4d565b615e7a674a9bbdbd6b5e6e5660c01b613d4d565b5f615e8f670a8a492be52f497160c01b613d4d565b615ea3679dd8da52aa195d5e60c01b613d4d565b5f615eb8671d1e07ea1e66855760c01b613d4d565b615ecc67bcb116e71e42f7c260c01b613d4d565b5f5b888110156161a857615eea6783e5b9eca320686760c01b613d4d565b615efe671f61fcf82b3c8ac960c01b613d4d565b5f8c8281518110615f1257615f11617482565b5b6020026020010151111561618857615f3467f5cc334fd8f73cec60c01b613d4d565b615f4867736100e072ae6f7b60c01b613d4d565b8b8181518110615f5b57615f5a617482565b5b60200260200101519150615f79678ed3ba11580c394060c01b613d4d565b81888481518110615f8d57615f8c617482565b5b602002602001018181525050615fad676839d81b411edbc660c01b613d4d565b615fc167adc72ad76084de4c60c01b613d4d565b5f60155f8481526020019081526020015f209050615fe96760ba6ae1fc3490e960c01b613d4d565b806001015f9054906101000a900473ffffffffffffffffffffffffffffffffffffffff168885815181106160205761601f617482565b5b602002602001019073ffffffffffffffffffffffffffffffffffffffff16908173ffffffffffffffffffffffffffffffffffffffff168152505061606e6707df650fd84d894860c01b613d4d565b805f015f9054906101000a900473ffffffffffffffffffffffffffffffffffffffff168785815181106160a4576160a3617482565b5b602002602001019073ffffffffffffffffffffffffffffffffffffffff16908173ffffffffffffffffffffffffffffffffffffffff16815250506160f267ad22ae8bdbe66e6b60c01b613d4d565b8b828151811061610557616104617482565b5b60200260200101518685815181106161205761611f617482565b5b602002602001018181525050616140679f15895e146a948b60c01b613d4d565b8185858151811061615457616153617482565b5b602002602001018181525050616174672a864bb022c309a360c01b613d4d565b838061617f90617a12565b9450505061619d565b61619c67a44197129041ef8160c01b613d4d565b5b806001019050615ece565b506161bd67442240375e2dcdc060c01b613d4d565b6161d1672505405220d53de160c01b613d4d565b5f8990505b5f811115616302576161f26796792a6a868ca69560c01b613d4d565b88806161fd90617d73565b99505061621467e53ecd5bc73aabd460c01b613d4d565b6162286785525f5c5dc9476460c01b613d4d565b5f84600183616237919061741a565b8151811061624857616247617482565b5b60200260200101519050616266675d755d6d7fddb0a060c01b613d4d565b60168a8154811061627a57616279617482565b5b905f5260205f2001546016828154811061629757616296617482565b5b905f5260205f2001819055506162b767c35385d23d76663760c01b613d4d565b6162cb675eae68123f153dab60c01b613d4d565b60168054806162dd576162dc6174af565b5b600190038181905f5260205f20015f9055905550806162fb90617d73565b90506161d6565b506163176706f019f598be612060c01b613d4d565b61632b67c76f08735e3403c660c01b613d4d565b600f547fd19a3d42ed383465e4058c322d9411aeac76ddb8454d22e139fc99808bd56952888888886040516163639493929190617e42565b60405180910390a25050505050505050505050565b61638c67468f2f49d1a3122060c01b616879565b6163a0674a1838339993d89660c01b616879565b6163b4670f0fb3b1685ae87f60c01b616879565b5f6163c967af999f8ebe57af7060c01b616879565b6040517fa9059cbb000000000000000000000000000000000000000000000000000000005f52836004528260245260205f60445f80895af13d15601f3d1160015f511416171691505f606052806040525061642e67b2de8b9e806a705760c01b616879565b616442670ad9bd4d73a05c5060c01b616879565b806164b25761645b672f73d525fe87dc4c60c01b616879565b61646f6785303aead9fd0df560c01b616879565b833084846040517fabae3d6d0000000000000000000000000000000000000000000000000000000081526004016164a99493929190617d30565b60405180910390fd5b6164c66759a947202e7ed9d160c01b616879565b50505050565b5f60606164e3673aa73f0dbe188a1460c01b613d4d565b6164f7678de3ef7d0602d93a60c01b613d4d565b61650b6737b5dcc0e869e7aa60c01b613d4d565b5f8560405160240161651d9190616b6a565b60405160208183030381529060405263d564c4bf60e01b6020820180517bffffffffffffffffffffffffffffffffffffffffffffffffffffffff83818316178352505050509050616578671503e0ee697fcd6660c01b613d4d565b61658c6752d1d43fce1cb9d960c01b613d4d565b5f80600c5f9054906101000a900473ffffffffffffffffffffffffffffffffffffffff1673ffffffffffffffffffffffffffffffffffffffff16836040516165d49190617ee5565b5f60405180830381855afa9150503d805f811461660c576040519150601f19603f3d011682016040523d82523d5f602084013e616611565b606091505b509150915061662a67bb3cb17aa7825de360c01b613d4d565b61663e67fc4857cc95bcbf2160c01b613d4d565b81801561664c5750603f8151115b801561666457505f602082516166629190617efb565b145b1561684f5761667d674c4ad4819781483560c01b613d4d565b61669167ac0326345a3a811660c01b613d4d565b808060200190518101906166a5919061799d565b93506166bb67c5ff4890630eca0160c01b613d4d565b8387876040516024016166d093929190617f2b565b60405160208183030381529060405263184023a560e01b6020820180517bffffffffffffffffffffffffffffffffffffffffffffffffffffffff8381831617835250505050925061672b673576372cfc12681660c01b613d4d565b600c5f9054906101000a900473ffffffffffffffffffffffffffffffffffffffff1673ffffffffffffffffffffffffffffffffffffffff16836040516167719190617ee5565b5f60405180830381855afa9150503d805f81146167a9576040519150601f19603f3d011682016040523d82523d5f602084013e6167ae565b606091505b5080925081935050506167cb67391f942a74c7ed4760c01b613d4d565b6167df67c26472c71557484060c01b613d4d565b8180156167ed575060208151145b156168355761680667ea94f2073a617f2c60c01b613d4d565b61681a674e2c0b6cf1194eb460c01b613d4d565b8080602001905181019061682e9190617fa3565b945061684a565b61684967fb93ee12fd282be860c01b613d4d565b5b616864565b61686367b208f30d65ffc46960c01b613d4d565b5b505050935093915050565b5f60019050919050565b50565b5080545f8255905f5260205f20908101906168979190616942565b50565b6040518060c001604052805f73ffffffffffffffffffffffffffffffffffffffff1681526020015f73ffffffffffffffffffffffffffffffffffffffff168152602001606081526020015f81526020015f81526020015f81525090565b828054828255905f5260205f20908101928215616931579160200282015b82811115616930578251825591602001919060010190616915565b5b50905061693e9190616942565b5090565b5b80821115616959575f815f905550600101616943565b5090565b5f819050919050565b61696f8161695d565b82525050565b5f6020820190506169885f830184616966565b92915050565b5f604051905090565b5f80fd5b5f80fd5b5f73ffffffffffffffffffffffffffffffffffffffff82169050919050565b5f6169c88261699f565b9050919050565b6169d8816169be565b81146169e2575f80fd5b50565b5f813590506169f3816169cf565b92915050565b616a028161695d565b8114616a0c575f80fd5b50565b5f81359050616a1d816169f9565b92915050565b5f80fd5b5f80fd5b5f80fd5b5f8083601f840112616a4457616a43616a23565b5b8235905067ffffffffffffffff811115616a6157616a60616a27565b5b602083019150836001820283011115616a7d57616a7c616a2b565b5b9250929050565b5f805f805f60808688031215616a9d57616a9c616997565b5b5f616aaa888289016169e5565b9550506020616abb888289016169e5565b9450506040616acc88828901616a0f565b935050606086013567ffffffffffffffff811115616aed57616aec61699b565b5b616af988828901616a2f565b92509250509295509295909350565b5f7fffffffff0000000000000000000000000000000000000000000000000000000082169050919050565b616b3c81616b08565b82525050565b5f602082019050616b555f830184616b33565b92915050565b616b64816169be565b82525050565b5f602082019050616b7d5f830184616b5b565b92915050565b5f60208284031215616b9857616b97616997565b5b5f616ba584828501616a0f565b91505092915050565b5f819050919050565b616bc081616bae565b82525050565b5f602082019050616bd95f830184616bb7565b92915050565b616be8816169be565b82525050565b5f81519050919050565b5f82825260208201905092915050565b5f819050602082019050919050565b616c208161695d565b82525050565b5f616c318383616c17565b60208301905092915050565b5f602082019050919050565b5f616c5382616bee565b616c5d8185616bf8565b9350616c6883616c08565b805f5b83811015616c98578151616c7f8882616c26565b9750616c8a83616c3d565b925050600181019050616c6b565b5085935050505092915050565b5f60c083015f830151616cba5f860182616bdf565b506020830151616ccd6020860182616bdf565b5060408301518482036040860152616ce58282616c49565b9150506060830151616cfa6060860182616c17565b506080830151616d0d6080860182616c17565b5060a0830151616d2060a0860182616c17565b508091505092915050565b5f6020820190508181035f830152616d438184616ca5565b905092915050565b5f60a082019050616d5e5f830188616b5b565b616d6b6020830187616b5b565b616d786040830186616966565b616d856060830185616966565b616d926080830184616966565b9695505050505050565b5f82825260208201905092915050565b5f616db682616bee565b616dc08185616d9c565b9350616dcb83616c08565b805f5b83811015616dfb578151616de28882616c26565b9750616ded83616c3d565b925050600181019050616dce565b5085935050505092915050565b5f6020820190508181035f830152616e208184616dac565b905092915050565b5f80fd5b5f601f19601f8301169050919050565b7f4e487b71000000000000000000000000000000000000000000000000000000005f52604160045260245ffd5b616e7282616e2c565b810181811067ffffffffffffffff82111715616e9157616e90616e3c565b5b80604052505050565b5f616ea361698e565b9050616eaf8282616e69565b919050565b5f80fd5b616ec181616bae565b8114616ecb575f80fd5b50565b5f81359050616edc81616eb8565b92915050565b5f67ffffffffffffffff821115616efc57616efb616e3c565b5b602082029050602081019050919050565b5f616f1f616f1a84616ee2565b616e9a565b90508083825260208201905060208402830185811115616f4257616f41616a2b565b5b835b81811015616f6b5780616f578882616a0f565b845260208401935050602081019050616f44565b5050509392505050565b5f82601f830112616f8957616f88616a23565b5b8135616f99848260208601616f0d565b91505092915050565b5f6101e08284031215616fb857616fb7616e28565b5b616fc36101e0616e9a565b90505f616fd284828501616ece565b5f830152506020616fe584828501616a0f565b6020830152506040616ff984828501616a0f565b604083015250606061700d84828501616a0f565b606083015250608061702184828501616a0f565b60808301525060a061703584828501616a0f565b60a08301525060c061704984828501616a0f565b60c08301525060e061705d84828501616a0f565b60e08301525061010061707284828501616a0f565b6101008301525061012082013567ffffffffffffffff81111561709857617097616eb4565b5b6170a484828501616f75565b610120830152506101406170ba84828501616a0f565b610140830152506101606170d084828501616ece565b610160830152506101806170e684828501616ece565b610180830152506101a06170fc848285016169e5565b6101a0830152506101c0617112848285016169e5565b6101c08301525092915050565b5f805f6060848603121561713657617135616997565b5b5f84013567ffffffffffffffff8111156171535761715261699b565b5b61715f86828701616fa2565b9350506020617170868287016169e5565b9250506040617181868287016169e5565b9150509250925092565b5f81519050919050565b5f82825260208201905092915050565b5f819050602082019050919050565b5f6171bf8383616c49565b905092915050565b5f602082019050919050565b5f6171dd8261718b565b6171e78185617195565b9350836020820285016171f9856171a5565b805f5b85811015617234578484038952815161721585826171b4565b9450617220836171c7565b925060208a019950506001810190506171fc565b50829750879550505050505092915050565b5f60a0820190508181035f83015261725e8188616dac565b9050818103602083015261727281876171d3565b905081810360408301526172868186616dac565b9050818103606083015261729a8185616dac565b905081810360808301526172ae8184616dac565b90509695505050505050565b7f4e487b71000000000000000000000000000000000000000000000000000000005f52602160045260245ffd5b600381106172f8576172f76172ba565b5b50565b5f819050617308826172e7565b919050565b5f617317826172fb565b9050919050565b6173278161730d565b82525050565b5f6020820190506173405f83018461731e565b92915050565b5f81519050919050565b5f82825260208201905092915050565b8281835e5f83830152505050565b5f61737882617346565b6173828185617350565b9350617392818560208601617360565b61739b81616e2c565b840191505092915050565b5f6020820190508181035f8301526173be818461736e565b905092915050565b5f6040820190506173d95f830185616b5b565b6173e66020830184616b5b565b9392505050565b7f4e487b71000000000000000000000000000000000000000000000000000000005f52601160045260245ffd5b5f6174248261695d565b915061742f8361695d565b9250828203905081811115617447576174466173ed565b5b92915050565b5f6060820190506174605f830186616966565b61746d6020830185616966565b61747a6040830184616966565b949350505050565b7f4e487b71000000000000000000000000000000000000000000000000000000005f52603260045260245ffd5b7f4e487b71000000000000000000000000000000000000000000000000000000005f52603160045260245ffd5b5f6060820190506174ef5f830186616b5b565b6174fc6020830185616b5b565b6175096040830184616966565b949350505050565b5f6060820190506175245f830186616966565b81810360208301526175368185616dac565b90506175456040830184616966565b949350505050565b5f6175578261695d565b91506175628361695d565b925082820190508082111561757a576175796173ed565b5b92915050565b5f61758a8261695d565b91506175958361695d565b92508282026175a38161695d565b915082820484148315176175ba576175b96173ed565b5b5092915050565b7f4e487b71000000000000000000000000000000000000000000000000000000005f52601260045260245ffd5b5f6175f88261695d565b91506176038361695d565b925082617613576176126175c1565b5b828204905092915050565b5f6bffffffffffffffffffffffff82169050919050565b61763e8161761e565b8114617648575f80fd5b50565b5f8151905061765981617635565b92915050565b5f8151905061766d816169cf565b92915050565b5f8151905061768181616eb8565b92915050565b5f63ffffffff82169050919050565b61769f81617687565b81146176a9575f80fd5b50565b5f815190506176ba81617696565b92915050565b600681106176cc575f80fd5b50565b5f815190506176dd816176c0565b92915050565b5f67ffffffffffffffff8211156176fd576176fc616e3c565b5b602082029050602081019050919050565b5f61772061771b846176e3565b616e9a565b9050808382526020820190506020840283018581111561774357617742616a2b565b5b835b8181101561776c578061775888826176ac565b845260208401935050602081019050617745565b5050509392505050565b5f82601f83011261778a57617789616a23565b5b815161779a84826020860161770e565b91505092915050565b5f61010082840312156177b9576177b8616e28565b5b6177c4610100616e9a565b90505f6177d38482850161764b565b5f8301525060206177e68482850161765f565b60208301525060406177fa84828501617673565b604083015250606061780e848285016176ac565b6060830152506080617822848285016176ac565b60808301525060a0617836848285016176ac565b60a08301525060c061784a848285016176cf565b60c08301525060e082015167ffffffffffffffff81111561786e5761786d616eb4565b5b61787a84828501617776565b60e08301525092915050565b5f6020828403121561789b5761789a616997565b5b5f82015167ffffffffffffffff8111156178b8576178b761699b565b5b6178c4848285016177a3565b91505092915050565b5f6040820190506178e05f830185616966565b6178ed6020830184616966565b9392505050565b5f81519050617902816169f9565b92915050565b5f61791a61791584616ee2565b616e9a565b9050808382526020820190506020840283018581111561793d5761793c616a2b565b5b835b81811015617966578061795288826178f4565b84526020840193505060208101905061793f565b5050509392505050565b5f82601f83011261798457617983616a23565b5b8151617994848260208601617908565b91505092915050565b5f602082840312156179b2576179b1616997565b5b5f82015167ffffffffffffffff8111156179cf576179ce61699b565b5b6179db84828501617970565b91505092915050565b5f6040820190506179f75f830185616966565b8181036020830152617a098184616dac565b90509392505050565b5f617a1c8261695d565b91507fffffffffffffffffffffffffffffffffffffffffffffffffffffffffffffffff8203617a4e57617a4d6173ed565b5b600182019050919050565b5f608082019050617a6c5f830187616966565b8181036020830152617a7e8186616dac565b90508181036040830152617a928185616dac565b9050617aa16060830184616966565b95945050505050565b5f81549050919050565b5f819050815f5260205f209050919050565b5f815f1c9050919050565b5f819050919050565b5f617aec617ae783617ac6565b617ad1565b9050919050565b5f617afe8254617ada565b9050919050565b5f600182019050919050565b5f617b1b82617aaa565b617b258185616d9c565b9350617b3083617ab4565b805f5b83811015617b6757617b4482617af3565b617b4e8882616c26565b9750617b5983617b05565b925050600181019050617b33565b5085935050505092915050565b5f606082019050617b875f830186616966565b8181036020830152617b998185617b11565b9050617ba86040830184616966565b949350505050565b5f8060408385031215617bc657617bc5616997565b5b5f617bd38582860161765f565b9250506020617be48582860161764b565b9150509250929050565b5f819050919050565b5f617c11617c0c617c078461761e565b617bee565b61695d565b9050919050565b617c2181617bf7565b82525050565b5f604082019050617c3a5f830185617c18565b617c476020830184616966565b9392505050565b5f617c68617c63617c5e84617687565b617bee565b61695d565b9050919050565b617c7881617c4e565b82525050565b5f604082019050617c915f830185616966565b617c9e6020830184617c6f565b9392505050565b5f60208284031215617cba57617cb9616997565b5b5f617cc7848285016178f4565b91505092915050565b5f819050919050565b5f617cf3617cee617ce984617cd0565b617bee565b61695d565b9050919050565b617d0381617cd9565b82525050565b5f604082019050617d1c5f830185616966565b617d296020830184617cfa565b9392505050565b5f608082019050617d435f830187616b5b565b617d506020830186616b5b565b617d5d6040830185616b5b565b617d6a6060830184616966565b95945050505050565b5f617d7d8261695d565b91505f8203617d8f57617d8e6173ed565b5b600182039050919050565b5f81519050919050565b5f82825260208201905092915050565b5f819050602082019050919050565b5f617dce8383616bdf565b60208301905092915050565b5f602082019050919050565b5f617df082617d9a565b617dfa8185617da4565b9350617e0583617db4565b805f5b83811015617e35578151617e1c8882617dc3565b9750617e2783617dda565b925050600181019050617e08565b5085935050505092915050565b5f6080820190508181035f830152617e5a8187616dac565b90508181036020830152617e6e8186617de6565b90508181036040830152617e828185617de6565b90508181036060830152617e968184616dac565b905095945050505050565b5f81519050919050565b5f81905092915050565b5f617ebf82617ea1565b617ec98185617eab565b9350617ed9818560208601617360565b80840191505092915050565b5f617ef08284617eb5565b915081905092915050565b5f617f058261695d565b9150617f108361695d565b925082617f2057617f1f6175c1565b5b828206905092915050565b5f6060820190508181035f830152617f438186616dac565b90508181036020830152617f578185616dac565b9050617f666040830184616966565b949350505050565b5f8115159050919050565b617f8281617f6e565b8114617f8c575f80fd5b50565b5f81519050617f9d81617f79565b92915050565b5f60208284031215617fb857617fb7616997565b5b5f617fc584828501617f8f565b9150509291505056fea2646970667358221220a83f4894cd76e913e2c0d7b6fb649e35c1bfbd8534e443e234b06c70005e8c2864736f6c63430008190033",
  "linkReferences": {},
  "deployedLinkReferences": {}
}