{
  "_format": "hh-sol-artifact-1",
  "contractName": "StakingNativeToken",
  "sourceName": "contracts/staking/StakingNativeToken.sol",
  "abi": [
    {
      "inputs": [],
      "name": "AlreadyInitialized",
      "type": "error"
    },
    {
      "inputs": [
        {
          "internalType": "address",
          "name": "activityChecker",
          "type": "address"
        }
      ],
      "name": "ContractOnly",
      "type": "error"
    },
    {
      "inputs": [
        {
          "internalType": "uint256",
          "name": "provided",
          "type": "uint256"
        },
        {
          "internalType": "uint256",
          "name": "expected",
          "type": "uint256"
        }
      ],
      "name": "LowerThan",
      "type": "error"
    },
    {
      "inputs": [
        {
          "internalType": "uint256",
          "name": "maxNumServices",
          "type": "uint256"
        }
      ],
      "name": "MaxNumServicesReached",
      "type": "error"
    },
    {
      "inputs": [],
      "name": "NoRewardsAvailable",
      "type": "error"
    },
    {
      "inputs": [
        {
          "internalType": "uint256",
          "name": "serviceId",
          "type": "uint256"
        },
        {
          "internalType": "uint256",
          "name": "tsProvided",
          "type": "uint256"
        },
        {
          "internalType": "uint256",
          "name": "tsExpected",
          "type": "uint256"
        }
      ],
      "name": "NotEnoughTimeStaked",
      "type": "error"
    },
    {
      "inputs": [
        {
          "internalType": "address",
          "name": "sender",
          "type": "address"
        },
        {
          "internalType": "address",
          "name": "owner",
          "type": "address"
        }
      ],
      "name": "OwnerOnly",
      "type": "error"
    },
    {
      "inputs": [
        {
          "internalType": "uint256",
          "name": "serviceId",
          "type": "uint256"
        }
      ],
      "name": "ServiceNotUnstaked",
      "type": "error"
    },
    {
      "inputs": [
        {
          "internalType": "address",
          "name": "token",
          "type": "address"
        },
        {
          "internalType": "address",
          "name": "from",
          "type": "address"
        },
        {
          "internalType": "address",
          "name": "to",
          "type": "address"
        },
        {
          "internalType": "uint256",
          "name": "value",
          "type": "uint256"
        }
      ],
      "name": "TransferFailed",
      "type": "error"
    },
    {
      "inputs": [
        {
          "internalType": "address",
          "name": "multisig",
          "type": "address"
        }
      ],
      "name": "UnauthorizedMultisig",
      "type": "error"
    },
    {
      "inputs": [
        {
          "internalType": "uint256",
          "name": "agentId",
          "type": "uint256"
        }
      ],
      "name": "WrongAgentId",
      "type": "error"
    },
    {
      "inputs": [
        {
          "internalType": "uint256",
          "name": "serviceId",
          "type": "uint256"
        }
      ],
      "name": "WrongServiceConfiguration",
      "type": "error"
    },
    {
      "inputs": [
        {
          "internalType": "uint256",
          "name": "state",
          "type": "uint256"
        },
        {
          "internalType": "uint256",
          "name": "serviceId",
          "type": "uint256"
        }
      ],
      "name": "WrongServiceState",
      "type": "error"
    },
    {
      "inputs": [],
      "name": "ZeroAddress",
      "type": "error"
    },
    {
      "inputs": [],
      "name": "ZeroValue",
      "type": "error"
    },
    {
      "anonymous": false,
      "inputs": [
        {
          "indexed": true,
          "internalType": "uint256",
          "name": "epoch",
          "type": "uint256"
        },
        {
          "indexed": false,
          "internalType": "uint256",
          "name": "availableRewards",
          "type": "uint256"
        },
        {
          "indexed": false,
          "internalType": "uint256[]",
          "name": "serviceIds",
          "type": "uint256[]"
        },
        {
          "indexed": false,
          "internalType": "uint256[]",
          "name": "rewards",
          "type": "uint256[]"
        },
        {
          "indexed": false,
          "internalType": "uint256",
          "name": "epochLength",
          "type": "uint256"
        }
      ],
      "name": "Checkpoint",
      "type": "event"
    },
    {
      "anonymous": false,
      "inputs": [
        {
          "indexed": true,
          "internalType": "address",
          "name": "sender",
          "type": "address"
        },
        {
          "indexed": false,
          "internalType": "uint256",
          "name": "amount",
          "type": "uint256"
        },
        {
          "indexed": false,
          "internalType": "uint256",
          "name": "balance",
          "type": "uint256"
        },
        {
          "indexed": false,
          "internalType": "uint256",
          "name": "availableRewards",
          "type": "uint256"
        }
      ],
      "name": "Deposit",
      "type": "event"
    },
    {
      "anonymous": false,
      "inputs": [
        {
          "indexed": false,
          "internalType": "uint256",
          "name": "epoch",
          "type": "uint256"
        },
        {
          "indexed": true,
          "internalType": "uint256",
          "name": "serviceId",
          "type": "uint256"
        },
        {
          "indexed": true,
          "internalType": "address",
          "name": "owner",
          "type": "address"
        },
        {
          "indexed": true,
          "internalType": "address",
          "name": "multisig",
          "type": "address"
        },
        {
          "indexed": false,
          "internalType": "uint256[]",
          "name": "nonces",
          "type": "uint256[]"
        },
        {
          "indexed": false,
          "internalType": "uint256",
          "name": "reward",
          "type": "uint256"
        }
      ],
      "name": "RewardClaimed",
      "type": "event"
    },
    {
      "anonymous": false,
      "inputs": [
        {
          "indexed": false,
          "internalType": "uint256",
          "name": "epoch",
          "type": "uint256"
        },
        {
          "indexed": true,
          "internalType": "uint256",
          "name": "serviceId",
          "type": "uint256"
        },
        {
          "indexed": false,
          "internalType": "uint256",
          "name": "serviceInactivity",
          "type": "uint256"
        }
      ],
      "name": "ServiceInactivityWarning",
      "type": "event"
    },
    {
      "anonymous": false,
      "inputs": [
        {
          "indexed": false,
          "internalType": "uint256",
          "name": "epoch",
          "type": "uint256"
        },
        {
          "indexed": true,
          "internalType": "uint256",
          "name": "serviceId",
          "type": "uint256"
        },
        {
          "indexed": true,
          "internalType": "address",
          "name": "owner",
          "type": "address"
        },
        {
          "indexed": true,
          "internalType": "address",
          "name": "multisig",
          "type": "address"
        },
        {
          "indexed": false,
          "internalType": "uint256[]",
          "name": "nonces",
          "type": "uint256[]"
        }
      ],
      "name": "ServiceStaked",
      "type": "event"
    },
    {
      "anonymous": false,
      "inputs": [
        {
          "indexed": false,
          "internalType": "uint256",
          "name": "epoch",
          "type": "uint256"
        },
        {
          "indexed": true,
          "internalType": "uint256",
          "name": "serviceId",
          "type": "uint256"
        },
        {
          "indexed": true,
          "internalType": "address",
          "name": "owner",
          "type": "address"
        },
        {
          "indexed": true,
          "internalType": "address",
          "name": "multisig",
          "type": "address"
        },
        {
          "indexed": false,
          "internalType": "uint256[]",
          "name": "nonces",
          "type": "uint256[]"
        },
        {
          "indexed": false,
          "internalType": "uint256",
          "name": "reward",
          "type": "uint256"
        }
      ],
      "name": "ServiceUnstaked",
      "type": "event"
    },
    {
      "anonymous": false,
      "inputs": [
        {
          "indexed": true,
          "internalType": "uint256",
          "name": "epoch",
          "type": "uint256"
        },
        {
          "indexed": false,
          "internalType": "uint256[]",
          "name": "serviceIds",
          "type": "uint256[]"
        },
        {
          "indexed": false,
          "internalType": "address[]",
          "name": "owners",
          "type": "address[]"
        },
        {
          "indexed": false,
          "internalType": "address[]",
          "name": "multisigs",
          "type": "address[]"
        },
        {
          "indexed": false,
          "internalType": "uint256[]",
          "name": "serviceInactivity",
          "type": "uint256[]"
        }
      ],
      "name": "ServicesEvicted",
      "type": "event"
    },
    {
      "anonymous": false,
      "inputs": [
        {
          "indexed": true,
          "internalType": "address",
          "name": "to",
          "type": "address"
        },
        {
          "indexed": false,
          "internalType": "uint256",
          "name": "amount",
          "type": "uint256"
        }
      ],
      "name": "Withdraw",
      "type": "event"
    },
    {
      "inputs": [],
      "name": "VERSION",
      "outputs": [
        {
          "internalType": "string",
          "name": "",
          "type": "string"
        }
      ],
      "stateMutability": "view",
      "type": "function"
    },
    {
      "inputs": [],
      "name": "activityChecker",
      "outputs": [
        {
          "internalType": "address",
          "name": "",
          "type": "address"
        }
      ],
      "stateMutability": "view",
      "type": "function"
    },
    {
      "inputs": [
        {
          "internalType": "uint256",
          "name": "",
          "type": "uint256"
        }
      ],
      "name": "agentIds",
      "outputs": [
        {
          "internalType": "uint256",
          "name": "",
          "type": "uint256"
        }
      ],
      "stateMutability": "view",
      "type": "function"
    },
    {
      "inputs": [],
      "name": "availableRewards",
      "outputs": [
        {
          "internalType": "uint256",
          "name": "",
          "type": "uint256"
        }
      ],
      "stateMutability": "view",
      "type": "function"
    },
    {
      "inputs": [],
      "name": "balance",
      "outputs": [
        {
          "internalType": "uint256",
          "name": "",
          "type": "uint256"
        }
      ],
      "stateMutability": "view",
      "type": "function"
    },
    {
      "inputs": [
        {
          "internalType": "uint256",
          "name": "serviceId",
          "type": "uint256"
        }
      ],
      "name": "calculateStakingLastReward",
      "outputs": [
        {
          "internalType": "uint256",
          "name": "reward",
          "type": "uint256"
        }
      ],
      "stateMutability": "view",
      "type": "function"
    },
    {
      "inputs": [
        {
          "internalType": "uint256",
          "name": "serviceId",
          "type": "uint256"
        }
      ],
      "name": "calculateStakingReward",
      "outputs": [
        {
          "internalType": "uint256",
          "name": "reward",
          "type": "uint256"
        }
      ],
      "stateMutability": "view",
      "type": "function"
    },
    {
      "inputs": [],
      "name": "checkpoint",
      "outputs": [
        {
          "internalType": "uint256[]",
          "name": "",
          "type": "uint256[]"
        },
        {
          "internalType": "uint256[][]",
          "name": "",
          "type": "uint256[][]"
        },
        {
          "internalType": "uint256[]",
          "name": "",
          "type": "uint256[]"
        },
        {
          "internalType": "uint256[]",
          "name": "",
          "type": "uint256[]"
        },
        {
          "internalType": "uint256[]",
          "name": "evictServiceIds",
          "type": "uint256[]"
        }
      ],
      "stateMutability": "nonpayable",
      "type": "function"
    },
    {
      "inputs": [
        {
          "internalType": "uint256",
          "name": "serviceId",
          "type": "uint256"
        }
      ],
      "name": "checkpointAndClaim",
      "outputs": [
        {
          "internalType": "uint256",
          "name": "",
          "type": "uint256"
        }
      ],
      "stateMutability": "nonpayable",
      "type": "function"
    },
    {
      "inputs": [
        {
          "internalType": "uint256",
          "name": "serviceId",
          "type": "uint256"
        }
      ],
      "name": "claim",
      "outputs": [
        {
          "internalType": "uint256",
          "name": "",
          "type": "uint256"
        }
      ],
      "stateMutability": "nonpayable",
      "type": "function"
    },
    {
      "inputs": [],
      "name": "configHash",
      "outputs": [
        {
          "internalType": "bytes32",
          "name": "",
          "type": "bytes32"
        }
      ],
      "stateMutability": "view",
      "type": "function"
    },
    {
      "inputs": [],
      "name": "emissionsAmount",
      "outputs": [
        {
          "internalType": "uint256",
          "name": "",
          "type": "uint256"
        }
      ],
      "stateMutability": "view",
      "type": "function"
    },
    {
      "inputs": [],
      "name": "epochCounter",
      "outputs": [
        {
          "internalType": "uint256",
          "name": "",
          "type": "uint256"
        }
      ],
      "stateMutability": "view",
      "type": "function"
    },
    {
      "inputs": [],
      "name": "getAgentIds",
      "outputs": [
        {
          "internalType": "uint256[]",
          "name": "",
          "type": "uint256[]"
        }
      ],
      "stateMutability": "view",
      "type": "function"
    },
    {
      "inputs": [],
      "name": "getNextRewardCheckpointTimestamp",
      "outputs": [
        {
          "internalType": "uint256",
          "name": "tsNext",
          "type": "uint256"
        }
      ],
      "stateMutability": "view",
      "type": "function"
    },
    {
      "inputs": [],
      "name": "getServiceIds",
      "outputs": [
        {
          "internalType": "uint256[]",
          "name": "",
          "type": "uint256[]"
        }
      ],
      "stateMutability": "view",
      "type": "function"
    },
    {
      "inputs": [
        {
          "internalType": "uint256",
          "name": "serviceId",
          "type": "uint256"
        }
      ],
      "name": "getServiceInfo",
      "outputs": [
        {
          "components": [
            {
              "internalType": "address",
              "name": "multisig",
              "type": "address"
            },
            {
              "internalType": "address",
              "name": "owner",
              "type": "address"
            },
            {
              "internalType": "uint256[]",
              "name": "nonces",
              "type": "uint256[]"
            },
            {
              "internalType": "uint256",
              "name": "tsStart",
              "type": "uint256"
            },
            {
              "internalType": "uint256",
              "name": "reward",
              "type": "uint256"
            },
            {
              "internalType": "uint256",
              "name": "inactivity",
              "type": "uint256"
            }
          ],
          "internalType": "struct ServiceInfo",
          "name": "sInfo",
          "type": "tuple"
        }
      ],
      "stateMutability": "view",
      "type": "function"
    },
    {
      "inputs": [
        {
          "internalType": "uint256",
          "name": "serviceId",
          "type": "uint256"
        }
      ],
      "name": "getStakingState",
      "outputs": [
        {
          "internalType": "enum StakingBase.StakingState",
          "name": "stakingState",
          "type": "uint8"
        }
      ],
      "stateMutability": "view",
      "type": "function"
    },
    {
      "inputs": [
        {
          "components": [
            {
              "internalType": "bytes32",
              "name": "metadataHash",
              "type": "bytes32"
            },
            {
              "internalType": "uint256",
              "name": "maxNumServices",
              "type": "uint256"
            },
            {
              "internalType": "uint256",
              "name": "rewardsPerSecond",
              "type": "uint256"
            },
            {
              "internalType": "uint256",
              "name": "minStakingDeposit",
              "type": "uint256"
            },
            {
              "internalType": "uint256",
              "name": "minNumStakingPeriods",
              "type": "uint256"
            },
            {
              "internalType": "uint256",
              "name": "maxNumInactivityPeriods",
              "type": "uint256"
            },
            {
              "internalType": "uint256",
              "name": "livenessPeriod",
              "type": "uint256"
            },
            {
              "internalType": "uint256",
              "name": "timeForEmissions",
              "type": "uint256"
            },
            {
              "internalType": "uint256",
              "name": "numAgentInstances",
              "type": "uint256"
            },
            {
              "internalType": "uint256[]",
              "name": "agentIds",
              "type": "uint256[]"
            },
            {
              "internalType": "uint256",
              "name": "threshold",
              "type": "uint256"
            },
            {
              "internalType": "bytes32",
              "name": "configHash",
              "type": "bytes32"
            },
            {
              "internalType": "bytes32",
              "name": "proxyHash",
              "type": "bytes32"
            },
            {
              "internalType": "address",
              "name": "serviceRegistry",
              "type": "address"
            },
            {
              "internalType": "address",
              "name": "activityChecker",
              "type": "address"
            }
          ],
          "internalType": "struct StakingBase.StakingParams",
          "name": "_stakingParams",
          "type": "tuple"
        }
      ],
      "name": "initialize",
      "outputs": [],
      "stateMutability": "nonpayable",
      "type": "function"
    },
    {
      "inputs": [],
      "name": "livenessPeriod",
      "outputs": [
        {
          "internalType": "uint256",
          "name": "",
          "type": "uint256"
        }
      ],
      "stateMutability": "view",
      "type": "function"
    },
    {
      "inputs": [
        {
          "internalType": "uint256",
          "name": "",
          "type": "uint256"
        }
      ],
      "name": "mapServiceInfo",
      "outputs": [
        {
          "internalType": "address",
          "name": "multisig",
          "type": "address"
        },
        {
          "internalType": "address",
          "name": "owner",
          "type": "address"
        },
        {
          "internalType": "uint256",
          "name": "tsStart",
          "type": "uint256"
        },
        {
          "internalType": "uint256",
          "name": "reward",
          "type": "uint256"
        },
        {
          "internalType": "uint256",
          "name": "inactivity",
          "type": "uint256"
        }
      ],
      "stateMutability": "view",
      "type": "function"
    },
    {
      "inputs": [],
      "name": "maxInactivityDuration",
      "outputs": [
        {
          "internalType": "uint256",
          "name": "",
          "type": "uint256"
        }
      ],
      "stateMutability": "view",
      "type": "function"
    },
    {
      "inputs": [],
      "name": "maxNumInactivityPeriods",
      "outputs": [
        {
          "internalType": "uint256",
          "name": "",
          "type": "uint256"
        }
      ],
      "stateMutability": "view",
      "type": "function"
    },
    {
      "inputs": [],
      "name": "maxNumServices",
      "outputs": [
        {
          "internalType": "uint256",
          "name": "",
          "type": "uint256"
        }
      ],
      "stateMutability": "view",
      "type": "function"
    },
    {
      "inputs": [],
      "name": "metadataHash",
      "outputs": [
        {
          "internalType": "bytes32",
          "name": "",
          "type": "bytes32"
        }
      ],
      "stateMutability": "view",
      "type": "function"
    },
    {
      "inputs": [],
      "name": "minStakingDeposit",
      "outputs": [
        {
          "internalType": "uint256",
          "name": "",
          "type": "uint256"
        }
      ],
      "stateMutability": "view",
      "type": "function"
    },
    {
      "inputs": [],
      "name": "minStakingDuration",
      "outputs": [
        {
          "internalType": "uint256",
          "name": "",
          "type": "uint256"
        }
      ],
      "stateMutability": "view",
      "type": "function"
    },
    {
      "inputs": [],
      "name": "numAgentInstances",
      "outputs": [
        {
          "internalType": "uint256",
          "name": "",
          "type": "uint256"
        }
      ],
      "stateMutability": "view",
      "type": "function"
    },
    {
      "inputs": [
        {
          "internalType": "address",
          "name": "",
          "type": "address"
        },
        {
          "internalType": "address",
          "name": "",
          "type": "address"
        },
        {
          "internalType": "uint256",
          "name": "",
          "type": "uint256"
        },
        {
          "internalType": "bytes",
          "name": "",
          "type": "bytes"
        }
      ],
      "name": "onERC721Received",
      "outputs": [
        {
          "internalType": "bytes4",
          "name": "",
          "type": "bytes4"
        }
      ],
      "stateMutability": "nonpayable",
      "type": "function"
    },
    {
      "inputs": [],
      "name": "proxyHash",
      "outputs": [
        {
          "internalType": "bytes32",
          "name": "",
          "type": "bytes32"
        }
      ],
      "stateMutability": "view",
      "type": "function"
    },
    {
      "inputs": [],
      "name": "rewardsPerSecond",
      "outputs": [
        {
          "internalType": "uint256",
          "name": "",
          "type": "uint256"
        }
      ],
      "stateMutability": "view",
      "type": "function"
    },
    {
      "inputs": [],
      "name": "serviceRegistry",
      "outputs": [
        {
          "internalType": "address",
          "name": "",
          "type": "address"
        }
      ],
      "stateMutability": "view",
      "type": "function"
    },
    {
      "inputs": [
        {
          "internalType": "uint256",
          "name": "",
          "type": "uint256"
        }
      ],
      "name": "setServiceIds",
      "outputs": [
        {
          "internalType": "uint256",
          "name": "",
          "type": "uint256"
        }
      ],
      "stateMutability": "view",
      "type": "function"
    },
    {
      "inputs": [
        {
          "internalType": "uint256",
          "name": "serviceId",
          "type": "uint256"
        }
      ],
      "name": "stake",
      "outputs": [],
      "stateMutability": "nonpayable",
      "type": "function"
    },
    {
      "inputs": [],
      "name": "threshold",
      "outputs": [
        {
          "internalType": "uint256",
          "name": "",
          "type": "uint256"
        }
      ],
      "stateMutability": "view",
      "type": "function"
    },
    {
      "inputs": [],
      "name": "timeForEmissions",
      "outputs": [
        {
          "internalType": "uint256",
          "name": "",
          "type": "uint256"
        }
      ],
      "stateMutability": "view",
      "type": "function"
    },
    {
      "inputs": [],
      "name": "tsCheckpoint",
      "outputs": [
        {
          "internalType": "uint256",
          "name": "",
          "type": "uint256"
        }
      ],
      "stateMutability": "view",
      "type": "function"
    },
    {
      "inputs": [
        {
          "internalType": "uint256",
          "name": "serviceId",
          "type": "uint256"
        }
      ],
      "name": "unstake",
      "outputs": [
        {
          "internalType": "uint256",
          "name": "reward",
          "type": "uint256"
        }
      ],
      "stateMutability": "nonpayable",
      "type": "function"
    },
    {
      "stateMutability": "payable",
      "type": "receive"
    }
  ],
  "bytecode": "0x6080604052348015600e575f80fd5b50617b148061001c5f395ff3fe608060405260043610610288575f3560e01c80638f9e0a6211610152578063cbcf252a116100ca578063f189e85a1161007e578063f86ad2b611610063578063f86ad2b6146109ef578063fd0bba8c14610a19578063ffa1ad7414610a5557610375565b8063f189e85a1461099b578063f4dce714146109c557610375565b8063e77cdcc9116100af578063e77cdcc91461090b578063eacdaabc14610935578063eb338c961461095f57610375565b8063cbcf252a146108b7578063e1f1176d146108e157610375565b8063a74466ad11610121578063b69ef8a811610106578063b69ef8a814610835578063c2c4c5c11461085f578063c5a1d7f01461088d57610375565b8063a74466ad146107cb578063b15087601461080b57610375565b80638f9e0a6214610725578063957323611461074f578063a0ed60e014610779578063a694fc3a146107a357610375565b806342cde4e8116102005780637fbe2833116101b457806382a8ea581161019957806382a8ea581461068357806383f9eb22146106bf578063879d9090146106fb57610375565b80637fbe28331461061d578063809cee2f1461065957610375565b8063546af2e0116101e5578063546af2e01461057b57806356e76058146105b75780635829c5ec146105f357610375565b806342cde4e81461052757806352c824f51461055157610375565b806316a75172116102575780632e17de781161023c5780632e17de7814610485578063379607f5146104c15780633e732997146104fd57610375565b806316a75172146104315780631f7794081461045b57610375565b806308ae7e54146103795780630a07dc30146103a357806314b19c5a146103cb578063150b7a02146103f557610375565b36610375576102a167af3972689548ba3460c01b610a7f565b5f346010546102b091906163ea565b90506102c6670bb2eff6e95a871660c01b610a7f565b5f346011546102d591906163ea565b90506102eb679d2e569617182ea360c01b610a7f565b816010819055506103066704971a4ae4c1854560c01b610a7f565b80601181905550610321678c915b12962ab14a60c01b610a7f565b3373ffffffffffffffffffffffffffffffffffffffff167f36af321ec8d3c75236829c5317affd40ddb308863a1236d2d277a4025cccee1e34848460405161036b9392919061642c565b60405180910390a2005b5f80fd5b348015610384575f80fd5b5061038d610a82565b60405161039a9190616461565b60405180910390f35b3480156103ae575f80fd5b506103c960048036038101906103c49190616817565b610a88565b005b3480156103d6575f80fd5b506103df610ad0565b6040516103ec9190616461565b60405180910390f35b348015610400575f80fd5b5061041b600480360381019061041691906168b7565b610ad6565b6040516104289190616975565b60405180910390f35b34801561043c575f80fd5b50610445610aea565b6040516104529190616461565b60405180910390f35b348015610466575f80fd5b5061046f610af0565b60405161047c9190616461565b60405180910390f35b348015610490575f80fd5b506104ab60048036038101906104a6919061698e565b610af6565b6040516104b89190616461565b60405180910390f35b3480156104cc575f80fd5b506104e760048036038101906104e2919061698e565b6114b1565b6040516104f49190616461565b60405180910390f35b348015610508575f80fd5b506105116114ff565b60405161051e9190616461565b60405180910390f35b348015610532575f80fd5b5061053b611505565b6040516105489190616461565b60405180910390f35b34801561055c575f80fd5b5061056561150b565b6040516105729190616461565b60405180910390f35b348015610586575f80fd5b506105a1600480360381019061059c919061698e565b611511565b6040516105ae9190616461565b60405180910390f35b3480156105c2575f80fd5b506105dd60048036038101906105d8919061698e565b611560565b6040516105ea9190616461565b60405180910390f35b3480156105fe575f80fd5b50610607611580565b6040516106149190616461565b60405180910390f35b348015610628575f80fd5b50610643600480360381019061063e919061698e565b611586565b6040516106509190616461565b60405180910390f35b348015610664575f80fd5b5061066d61174a565b60405161067a91906169c8565b60405180910390f35b34801561068e575f80fd5b506106a960048036038101906106a4919061698e565b611750565b6040516106b69190616b2d565b60405180910390f35b3480156106ca575f80fd5b506106e560048036038101906106e0919061698e565b6118c0565b6040516106f29190616461565b60405180910390f35b348015610706575f80fd5b5061070f611abf565b60405161071c9190616461565b60405180910390f35b348015610730575f80fd5b50610739611ac5565b6040516107469190616b5c565b60405180910390f35b34801561075a575f80fd5b50610763611aea565b6040516107709190616461565b60405180910390f35b348015610784575f80fd5b5061078d611af0565b60405161079a9190616461565b60405180910390f35b3480156107ae575f80fd5b506107c960048036038101906107c4919061698e565b611af6565b005b3480156107d6575f80fd5b506107f160048036038101906107ec919061698e565b6128c3565b604051610802959493929190616b75565b60405180910390f35b348015610816575f80fd5b5061081f612933565b60405161082c9190616c32565b60405180910390f35b348015610840575f80fd5b506108496129c5565b6040516108569190616461565b60405180910390f35b34801561086a575f80fd5b506108736129cb565b604051610884959493929190616d0d565b60405180910390f35b348015610898575f80fd5b506108a16137dc565b6040516108ae91906169c8565b60405180910390f35b3480156108c2575f80fd5b506108cb6137e1565b6040516108d89190616b5c565b60405180910390f35b3480156108ec575f80fd5b506108f5613806565b60405161090291906169c8565b60405180910390f35b348015610916575f80fd5b5061091f61380c565b60405161092c9190616461565b60405180910390f35b348015610940575f80fd5b50610949613812565b6040516109569190616461565b60405180910390f35b34801561096a575f80fd5b506109856004803603810190610980919061698e565b613818565b6040516109929190616461565b60405180910390f35b3480156109a6575f80fd5b506109af613838565b6040516109bc9190616c32565b60405180910390f35b3480156109d0575f80fd5b506109d96138ca565b6040516109e69190616461565b60405180910390f35b3480156109fa575f80fd5b50610a03613908565b604051610a109190616461565b60405180910390f35b348015610a24575f80fd5b50610a3f6004803603810190610a3a919061698e565b61390e565b604051610a4c9190616df4565b60405180910390f35b348015610a60575f80fd5b50610a69613b6f565b604051610a769190616e6d565b60405180910390f35b50565b600d5481565b610a9c674a2c1365f4ddb5d660c01b610a7f565b610ab067b0453379501a33ef60c01b610a7f565b610ac46742afc5e11248e85060c01b610a7f565b610acd81613ba8565b50565b600f5481565b5f63150b7a0260e01b905095945050505050565b60015481565b60065481565b5f610b0b67d6755c171545b9c260c01b6147e7565b610b1f67abf698ce3687364360c01b6147e7565b610b33670c254353e2f886a160c01b6147e7565b5f60155f8481526020019081526020015f209050610b5b6741b8255cc38ef46860c01b6147e7565b610b6f6747943334148502ab60c01b6147e7565b806001015f9054906101000a900473ffffffffffffffffffffffffffffffffffffffff1673ffffffffffffffffffffffffffffffffffffffff163373ffffffffffffffffffffffffffffffffffffffff1614610c4f57610bd9674d4348e03d5bc95860c01b6147e7565b610bed6764ab5d7941d54d5d60c01b6147e7565b33816001015f9054906101000a900473ffffffffffffffffffffffffffffffffffffffff166040517fa43d6ada000000000000000000000000000000000000000000000000000000008152600401610c46929190616e8d565b60405180910390fd5b610c6367ccc831c1beb3174960c01b6147e7565b610c77673d5d653ea5564d2860c01b6147e7565b610c8b67040d83f3dfa3dc1b60c01b6147e7565b5f81600301549050610ca767db0f22bd8fe22b0e60c01b6147e7565b610cbb674c22625b74ee680c60c01b6147e7565b5f8142610cc89190616eb4565b9050610cde67fd41d722d30ee2e160c01b6147e7565b610cf2674fac538071eaa24160c01b6147e7565b600d548111158015610d0557505f601154115b15610d7557610d1e67a10d4cf8fb4490df60c01b6147e7565b610d32676923fdda55f0c1bc60c01b6147e7565b8481600d546040517fba2bbc6b000000000000000000000000000000000000000000000000000000008152600401610d6c9392919061642c565b60405180910390fd5b610d89670494ebe34a00134160c01b6147e7565b610d9d675d35c5bad93a49fc60c01b6147e7565b610db16706cd75f98e548ada60c01b6147e7565b5f80610dbb6129cb565b94505050509150610dd6673c85412dfdebdfec60c01b6147e7565b610dea675a62f15756ba1c9060c01b6147e7565b5f825103610e8957610e0667d549b494afb7360060c01b6147e7565b610e1a67ddbaf49574b3bcb260c01b6147e7565b610e22613838565b9150610e38676360b8070a77543c60c01b6147e7565b815167ffffffffffffffff811115610e5357610e5261649f565b5b604051908082528060200260200182016040528015610e815781602001602082028036833780820191505090505b509050610e9e565b610e9d679a1dd615841cf90c60c01b6147e7565b5b610eb267c186bc31302e573660c01b6147e7565b610ec667b999abe063fb806460c01b6147e7565b5f610edb672469703ccc3629eb60c01b6147e7565b610eef67cc9b1a9064cdbb8260c01b6147e7565b5f610f04678913234c572d754d60c01b6147e7565b610f1867da31350fdae9cb9460c01b6147e7565b5b835182101561104557610f36677eef093798a8cede60c01b6147e7565b610f4a677c29f585b6d68c3260c01b6147e7565b88838381518110610f5e57610f5d616ee7565b5b602002602001015103610f9857610f7f6701f72275272166ab60c01b6147e7565b610f9367e24ff8d41aab8f9b60c01b6147e7565b611045565b610fac67cbd2447dbc91632b60c01b6147e7565b610fc0673befeffeeef3502760c01b6147e7565b88848381518110610fd457610fd3616ee7565b5b60200260200101510361102657610ff56769d9cb16e960204060c01b6147e7565b61100967d9c3bc008689110460c01b6147e7565b6001905061102167133100f5968fb04c60c01b6147e7565b611045565b61103a67e68daaf45d132cfa60c01b6147e7565b816001019150610f19565b61105967d3081de80e03ea4660c01b6147e7565b8660040154975061107467e479aed0045968c960c01b6147e7565b611088671cd31201162abcc860c01b6147e7565b5f876002018054806020026020016040519081016040528092919081815260200182805480156110d557602002820191905f5260205f20905b8154815260200190600101908083116110c1575b505050505090506110f067032c7ac7c0d0792a60c01b6147e7565b611104679b87c2cb5b6435c260c01b6147e7565b5f885f015f9054906101000a900473ffffffffffffffffffffffffffffffffffffffff16905061113e679eb223c78a9e43c960c01b6147e7565b60155f8c81526020019081526020015f205f8082015f6101000a81549073ffffffffffffffffffffffffffffffffffffffff0219169055600182015f6101000a81549073ffffffffffffffffffffffffffffffffffffffff0219169055600282015f6111aa91906162d3565b600382015f9055600482015f9055600582015f905550506111d567b26c249f9d0cf50260c01b6147e7565b6111e9672580fe8db60b3f3860c01b6147e7565b82156112b75761120367684754f081b4379a60c01b6147e7565b6112176775dc443937b08fe460c01b6147e7565b6016600160168054905061122b9190616eb4565b8154811061123c5761123b616ee7565b5b905f5260205f2001546016858154811061125957611258616ee7565b5b905f5260205f20018190555061127967c525999e1356e66b60c01b6147e7565b61128d6787eade3476d5fb3860c01b6147e7565b601680548061129f5761129e616f14565b5b600190038181905f5260205f20015f905590556112cc565b6112cb674c2bc052235cf1d660c01b6147e7565b5b6112e06724911a42eb20931860c01b6147e7565b6112f4678782e5f2439d135960c01b6147e7565b600b5f9054906101000a900473ffffffffffffffffffffffffffffffffffffffff1673ffffffffffffffffffffffffffffffffffffffff166342842e0e30338e6040518463ffffffff1660e01b815260040161135293929190616f41565b5f604051808303815f87803b158015611369575f80fd5b505af115801561137b573d5f803e3d5ffd5b5050505061139367d813b9061f64d1ec60c01b6147e7565b6113a767b24405b0cf99dbad60c01b6147e7565b5f8a11156113fa576113c367f5f0b50db482c20560c01b6147e7565b6113d7673d37be54775761e360c01b6147e7565b6113eb6797d756c4ce4434db60c01b6147e7565b6113f5818b6147ea565b61140f565b61140e6797149f4b7471a7b360c01b6147e7565b5b61142367080974d05e1878bc60c01b6147e7565b61143767354a2f62a2a4463d60c01b6147e7565b8073ffffffffffffffffffffffffffffffffffffffff163373ffffffffffffffffffffffffffffffffffffffff168c7f950733f4c0bf951b8e770f3cc619a4288e7b59b1236d59aeaf2c238488e8ae81600f54868f60405161149b93929190616f76565b60405180910390a4505050505050505050919050565b5f6114c6678db644063f5adf4f60c01b6147e7565b6114da67b27b24271f1b0e3c60c01b6147e7565b6114ee67bec2e51abe22f74960c01b6147e7565b6114f8825f61496b565b9050919050565b60135481565b60085481565b60055481565b5f61152667945cb38be3af9f9d60c01b6147e7565b61153a67d0a54266e84a02ec60c01b6147e7565b61154e67d893a7d7b0fa01c160c01b6147e7565b61155982600161496b565b9050919050565b6014818154811061156f575f80fd5b905f5260205f20015f915090505481565b60075481565b5f61159b67b79b8697177dd29a60c01b6147e7565b6115af672afc903ba38d427760c01b6147e7565b6115c36738c35eda9fd6a22060c01b6147e7565b5f60155f8481526020019081526020015f206040518060c00160405290815f82015f9054906101000a900473ffffffffffffffffffffffffffffffffffffffff1673ffffffffffffffffffffffffffffffffffffffff1673ffffffffffffffffffffffffffffffffffffffff168152602001600182015f9054906101000a900473ffffffffffffffffffffffffffffffffffffffff1673ffffffffffffffffffffffffffffffffffffffff1673ffffffffffffffffffffffffffffffffffffffff168152602001600282018054806020026020016040519081016040528092919081815260200182805480156116d657602002820191905f5260205f20905b8154815260200190600101908083116116c2575b505050505081526020016003820154815260200160048201548152602001600582015481525050905061171367d5fac9bb35d886b760c01b6147e7565b8060800151915061172e67d5c1a4020a6d386f60c01b6147e7565b611737836118c0565b8261174291906163ea565b915050919050565b600a5481565b6117586162f1565b61176c673b60f9673b695e3e60c01b6147e7565b61178067d10c79f4285630fc60c01b6147e7565b60155f8381526020019081526020015f206040518060c00160405290815f82015f9054906101000a900473ffffffffffffffffffffffffffffffffffffffff1673ffffffffffffffffffffffffffffffffffffffff1673ffffffffffffffffffffffffffffffffffffffff168152602001600182015f9054906101000a900473ffffffffffffffffffffffffffffffffffffffff1673ffffffffffffffffffffffffffffffffffffffff1673ffffffffffffffffffffffffffffffffffffffff1681526020016002820180548060200260200160405190810160405280929190818152602001828054801561189257602002820191905f5260205f20905b81548152602001906001019080831161187e575b5050505050815260200160038201548152602001600482015481526020016005820154815250509050919050565b5f6118d567262c59f3e313c89160c01b6147e7565b6118e96740bf241300da1e9c60c01b6147e7565b6118fd67c4df44903f2f13ca60c01b6147e7565b5f805f805f61190a614d5d565b5050509450945094509450945061192b67d51abdaa34ee93b060c01b6147e7565b61193f67378539c599fef7e960c01b6147e7565b5f5b84811015611ab45761195d671dfb3903d728b8ca60c01b6147e7565b61197167e8c56492e036ae0760c01b6147e7565b8783828151811061198557611984616ee7565b5b602002602001015103611a95576119a66717f23a878887b77660c01b6147e7565b6119ba6790a6ede5742c2a0160c01b6147e7565b6119ce6702c2039aa911235d60c01b6147e7565b85841115611a36576119ea6798f3591c4c3aa71460c01b6147e7565b6119fe67b8f73c154caec73f60c01b6147e7565b8386838381518110611a1357611a12616ee7565b5b6020026020010151611a259190616fb2565b611a2f9190617020565b9650611a7c565b611a4a67250544333eafc33860c01b6147e7565b611a5e674902fa686d4f14a360c01b6147e7565b818181518110611a7157611a70616ee7565b5b602002602001015196505b611a90671d68da5645902b3e60c01b6147e7565b611ab4565b611aa967a87bf913ef8ba97d60c01b6147e7565b806001019050611941565b505050505050919050565b60115481565b600c5f9054906101000a900473ffffffffffffffffffffffffffffffffffffffff1681565b60125481565b60045481565b611b0a675fb095e68572c7fd60c01b6147e7565b611b1e674ffaff87fe4a931460c01b6147e7565b611b3267f92ba27a0d1553a660c01b6147e7565b5f60115403611b9557611b4f6773dc6e18d35462e360c01b6147e7565b611b63676abbaf21b96af02f60c01b6147e7565b6040517fafb0be3300000000000000000000000000000000000000000000000000000000815260040160405180910390fd5b611ba9677676b013e6bde90660c01b6147e7565b611bbd67f4789f7a14c2305c60c01b6147e7565b611bd1674e81b46311594afb60c01b6147e7565b5f60155f8381526020019081526020015f209050611bf967febd230606e3b11460c01b6147e7565b611c0d67cfbd7b7f9709f3c160c01b6147e7565b5f81600301541115611c7e57611c2d674e3f59a6b49d243960c01b6147e7565b611c4167707e95c37fa72df860c01b6147e7565b816040517fb4817ce7000000000000000000000000000000000000000000000000000000008152600401611c759190616461565b60405180910390fd5b611c926784e4125aa78cb14560c01b6147e7565b611ca66719112f2310cdc0dd60c01b6147e7565b611cba67350240c1759f388560c01b6147e7565b5f6016805490509050611cd7677416502d37caff3460c01b6147e7565b611ceb67d12261cc293881b760c01b6147e7565b6001548103611d5b57611d0867db8e22a2aae4c4c960c01b6147e7565b611d1c67e2f8c1c8b07e397060c01b6147e7565b6001546040517ffd208615000000000000000000000000000000000000000000000000000000008152600401611d529190616461565b60405180910390fd5b611d6f6778a76e2ecccbf8fd60c01b6147e7565b611d8367e45e6b48753826a060c01b6147e7565b611d976758ae19e3380ef36b60c01b6147e7565b5f600b5f9054906101000a900473ffffffffffffffffffffffffffffffffffffffff1673ffffffffffffffffffffffffffffffffffffffff1663ef0e239b856040518263ffffffff1660e01b8152600401611df29190616461565b5f60405180830381865afa158015611e0c573d5f803e3d5ffd5b505050506040513d5f823e3d601f19601f82011682018060405250810190611e3491906172b8565b9050611e4a673a76fcb38b8420da60c01b6147e7565b611e5e67e8ea110735df28f960c01b6147e7565b806080015163ffffffff1660075414611ed657611e85673a5ea511aec9683060c01b6147e7565b611e9967d22fe1044ec96d5060c01b6147e7565b836040517ff5a8097e000000000000000000000000000000000000000000000000000000008152600401611ecd9190616461565b60405180910390fd5b611eea670513308ca3644fb060c01b6147e7565b611efe6743f997de3d60f0d660c01b6147e7565b611f1267368018565349192f60c01b6147e7565b5f801b60095414158015611f2c5750806040015160095414155b15611f9657611f45670800042bd0766b6f60c01b6147e7565b611f5967200df1d94f8ec1c760c01b6147e7565b836040517ff5a8097e000000000000000000000000000000000000000000000000000000008152600401611f8d9190616461565b60405180910390fd5b611faa67903248d5fddacd2f60c01b6147e7565b611fbe677d155379856fc4ff60c01b6147e7565b611fd2679b82f7e84a90a54b60c01b6147e7565b5f600854118015611fef5750806060015163ffffffff1660085414155b15612059576120086747a36aa443be518060c01b6147e7565b61201c6782dd798b09b0927e60c01b6147e7565b836040517ff5a8097e0000000000000000000000000000000000000000000000000000000081526004016120509190616461565b60405180910390fd5b61206d67af427bb8c050d97b60c01b6147e7565b61208167e95abe07f1abc35b60c01b6147e7565b61209567458f7aa80cd725c260c01b6147e7565b600460058111156120a9576120a8616d81565b5b8160c0015160058111156120c0576120bf616d81565b5b14612142576120d96785438317cf8c678760c01b6147e7565b6120ed67bd22984ddbe7c34960c01b6147e7565b8060c00151600581111561210457612103616d81565b5b846040517ff014fe740000000000000000000000000000000000000000000000000000000081526004016121399291906172ff565b60405180910390fd5b612156672644ac6cc93d656660c01b6147e7565b61216a67308627550cc110c160c01b6147e7565b61217e6751e795df4b68630260c01b6147e7565b5f816020015173ffffffffffffffffffffffffffffffffffffffff16803b806020016040519081016040528181525f908060200190933c8051906020012090506121d267f129f4578b64385f60c01b6147e7565b6121e667d93d59b9440803b960c01b6147e7565b80600a541461225857612203672f0be14ad63c061760c01b6147e7565b61221767e0c239128ff11c8260c01b6147e7565b81602001516040517f14460f2000000000000000000000000000000000000000000000000000000000815260040161224f9190616b5c565b60405180910390fd5b61226c67d85b4441f7dc6e2760c01b6147e7565b61228067c7ccf53593187cd460c01b6147e7565b612294673936cdd6b028183860c01b6147e7565b5f60148054905090506122b167c2f4801b15bbbe8f60c01b6147e7565b6122c56761b3d67327101b3c60c01b6147e7565b5f811115612502576122e167e7ee16ebed2540f360c01b6147e7565b6122f567a72e15bbb5655f2860c01b6147e7565b61230967c47e2dd416eb04a160c01b6147e7565b5f8360e00151519050612326670c535f053be3fded60c01b6147e7565b61233a67cd8610e4440655f760c01b6147e7565b8082146123a657612355676611b0dd036acc2f60c01b6147e7565b61236967b046214fd3e4a7e560c01b6147e7565b866040517ff5a8097e00000000000000000000000000000000000000000000000000000000815260040161239d9190616461565b60405180910390fd5b6123ba678c9c52218d1a6f9c60c01b6147e7565b6123ce6783e9520d8c0d555f60c01b6147e7565b6123e267fb86409e70338c5860c01b6147e7565b5f5b818110156124fb576124006723c2b097d0e1d78c60c01b6147e7565b61241467677db1216d5fcbe360c01b6147e7565b8460e00151818151811061242b5761242a616ee7565b5b602002602001015163ffffffff166014828154811061244d5761244c616ee7565b5b905f5260205f200154146124dc5761246f6756ee63aad6d0cfc460c01b6147e7565b612483671c97d3671c40ebae60c01b6147e7565b6014818154811061249757612496616ee7565b5b905f5260205f2001546040517faac42c2c0000000000000000000000000000000000000000000000000000000081526004016124d39190616461565b60405180910390fd5b6124f06792dc38080d3f7e3c60c01b6147e7565b8060010190506123e4565b5050612517565b6125166764b4517ed7078d7c60c01b6147e7565b5b61252b67bcd4b3a1611f5b0160c01b6147e7565b61253f6717cd9be80d2dbea460c01b6147e7565b61255f86845f01516bffffffffffffffffffffffff168560e00151615489565b61257367499814e574e839ab60c01b6147e7565b8260200151855f015f6101000a81548173ffffffffffffffffffffffffffffffffffffffff021916908373ffffffffffffffffffffffffffffffffffffffff1602179055506125cc6748732a6cde6e6fc360c01b6147e7565b33856001015f6101000a81548173ffffffffffffffffffffffffffffffffffffffff021916908373ffffffffffffffffffffffffffffffffffffffff160217905550612622671771c072daf95cd560c01b6147e7565b61263667feb5763f56bc8af960c01b6147e7565b5f600c5f9054906101000a900473ffffffffffffffffffffffffffffffffffffffff1673ffffffffffffffffffffffffffffffffffffffff1663d564c4bf85602001516040518263ffffffff1660e01b81526004016126959190616b5c565b5f60405180830381865afa1580156126af573d5f803e3d5ffd5b505050506040513d5f823e3d601f19601f820116820180604052508101906126d791906173cf565b90506126ed67577b3d76cacb88d160c01b6147e7565b8086600201908051906020019061270592919061634e565b5061271a67fc3361e73fd2e7b360c01b6147e7565b428660030181905550612737674587f09f8291706f60c01b6147e7565b61274b6797ffc119fa1a6f4760c01b6147e7565b601687908060018154018082558091505060019003905f5260205f20015f9091909190915055612785675baef065073e94fb60c01b6147e7565b6127996768ff90b278ea102360c01b6147e7565b600b5f9054906101000a900473ffffffffffffffffffffffffffffffffffffffff1673ffffffffffffffffffffffffffffffffffffffff166342842e0e33308a6040518463ffffffff1660e01b81526004016127f793929190616f41565b5f604051808303815f87803b15801561280e575f80fd5b505af1158015612820573d5f803e3d5ffd5b50505050612838672639c340aa65939360c01b6147e7565b61284c671549099502cdde1960c01b6147e7565b836020015173ffffffffffffffffffffffffffffffffffffffff163373ffffffffffffffffffffffffffffffffffffffff16887faa6b005b4958114a0c90492461c24af6525ae0178db7fbf44125ae9217c69ccb600f54856040516128b2929190617416565b60405180910390a450505050505050565b6015602052805f5260405f205f91509050805f015f9054906101000a900473ffffffffffffffffffffffffffffffffffffffff1690806001015f9054906101000a900473ffffffffffffffffffffffffffffffffffffffff16908060030154908060040154908060050154905085565b60606129496793cea67fac559c3d60c01b6147e7565b61295d672ec9ae8ec2f25e1660c01b6147e7565b612971679cbc0eaa2ad2497c60c01b6147e7565b60148054806020026020016040519081016040528092919081815260200182805480156129bb57602002820191905f5260205f20905b8154815260200190600101908083116129a7575b5050505050905090565b60105481565b60608060608060606129e7674fdba129aa2af90060c01b6147e7565b6129fb674c5b49b15e35389960c01b6147e7565b612a0f678d61fbb04380d8d660c01b6147e7565b5f805f805f805f80612a1f614d5d565b97509750975097509750975097509750612a43671f6f4aa8168d8c5160c01b6147e7565b612a576748ad113f12de3d0a60c01b6147e7565b6060612a6d6729dc887e991dd68a60c01b6147e7565b612a81676991e22f2e4da58f60c01b6147e7565b6060612a97672076a78c48b531d060c01b6147e7565b845167ffffffffffffffff811115612ab257612ab161649f565b5b604051908082528060200260200182016040528015612ae05781602001602082028036833780820191505090505b509a50612af7676c6f161b209eaa8c60c01b6147e7565b612b0b67d36860aaa93719ab60c01b6147e7565b5f612b20675ce556df33a31d3c60c01b6147e7565b612b346706f34f2bc459439d60c01b6147e7565b5f8a11156131fd57612b50677c32e98a33aa864660c01b6147e7565b612b6467877ce4ba46d6ea3960c01b6147e7565b8967ffffffffffffffff811115612b7e57612b7d61649f565b5b604051908082528060200260200182016040528015612bac5781602001602082028036833780820191505090505b509250612bc367f417a4433783737360c01b6147e7565b8967ffffffffffffffff811115612bdd57612bdc61649f565b5b604051908082528060200260200182016040528015612c0b5781602001602082028036833780820191505090505b509150612c2267619f31846396b74660c01b6147e7565b612c36679499473f2c8f00d160c01b6147e7565b8a89111561304357612c5267b8080b68113ed43160c01b6147e7565b612c6667306a64e4c70368b660c01b6147e7565b612c7a67bbb03f2b224f87bc60c01b6147e7565b5f612c8f6705b3030cf51892c960c01b6147e7565b612ca367cf713722127b0bfe60c01b6147e7565b5f612cb8677edf22ec1d3ce46360c01b6147e7565b612ccc67bfe24e495781dac260c01b6147e7565b5f600190505b8c811015612e3f57612cee67e84c32caa6cea60760c01b6147e7565b8b8e8b8381518110612d0357612d02616ee7565b5b6020026020010151612d159190616fb2565b612d1f9190617020565b9250612d3567d2f401776d11c89d60c01b6147e7565b8282612d4191906163ea565b9150612d5767811942612c76f5f960c01b6147e7565b8a8181518110612d6a57612d69616ee7565b5b60200260200101519350612d8867c91c541069baa6d260c01b6147e7565b8a8181518110612d9b57612d9a616ee7565b5b6020026020010151868281518110612db657612db5616ee7565b5b602002602001018181525050612dd667e1ad6cb375a3cfb360c01b6147e7565b82858281518110612dea57612de9616ee7565b5b602002602001018181525050612e0a67341595e3f65d793960c01b6147e7565b8260155f8681526020019081526020015f206004015f828254612e2d91906163ea565b92505081905550806001019050612cd2565b50612e546714222f69194ca49f60c01b6147e7565b8a8d8a5f81518110612e6957612e68616ee7565b5b6020026020010151612e7b9190616fb2565b612e859190617020565b9150612e9b67346cfce79ec5b51760c01b6147e7565b8181612ea791906163ea565b9050612ebd67ae819aa360ce4c9760c01b6147e7565b895f81518110612ed057612ecf616ee7565b5b60200260200101519250612eee67e2fc9dbc2a3ce15d60c01b6147e7565b895f81518110612f0157612f00616ee7565b5b6020026020010151855f81518110612f1c57612f1b616ee7565b5b602002602001018181525050612f3c672ca61f0e99fa7af860c01b6147e7565b612f506757e700bf11ca008b60c01b6147e7565b808d1115612f9e57612f6c672098ca7749b604e060c01b6147e7565b612f80677215b59e5eb8d9cb60c01b6147e7565b808d612f8c9190616eb4565b82612f9791906163ea565b9150612fb3565b612fb2678c04c2ca0fd90d5c60c01b6147e7565b5b612fc76738ca05658486f26a60c01b6147e7565b81845f81518110612fdb57612fda616ee7565b5b602002602001018181525050612ffb6790042ade28dd9ea460c01b6147e7565b8160155f8581526020019081526020015f206004015f82825461301e91906163ea565b9250508190555061303967515d37aa32fc842560c01b6147e7565b5f9c5050506131dd565b61305767d774894937d82f8d60c01b6147e7565b61306b67dea9aa1ab1dc07fc60c01b6147e7565b61307f67dae1f694e6dd724e60c01b6147e7565b5f5b8a8110156131b95761309d67cc62e287cb2e58ec60c01b6147e7565b8881815181106130b0576130af616ee7565b5b602002602001015191506130ce679286a905d343ba5860c01b6147e7565b8881815181106130e1576130e0616ee7565b5b60200260200101518482815181106130fc576130fb616ee7565b5b60200260200101818152505061311c67fe0e963d96dd379b60c01b6147e7565b87818151811061312f5761312e616ee7565b5b602002602001015183828151811061314a57613149616ee7565b5b60200260200101818152505061316a67a32141656bdf7d2b60c01b6147e7565b87818151811061317d5761317c616ee7565b5b602002602001015160155f8481526020019081526020015f206004015f8282546131a791906163ea565b92505081905550806001019050613081565b506131ce67c4fda6cfdcda280f60c01b6147e7565b888b6131da9190616eb4565b9a505b6131f16709f19c8348f84c5160c01b6147e7565b8a601181905550613212565b613211674f3e95ac004ba9dc60c01b6147e7565b5b61322667f5f94e24aac8854160c01b6147e7565b61323a676bdfc65183ad79e160c01b6147e7565b5f86511115613781576132576770b935fbe3b5e80060c01b6147e7565b61326b6718beaf48ca51eceb60c01b6147e7565b61327f67714c0a0acbd239e760c01b6147e7565b5f600f549050613299670988da0ad546d59660c01b6147e7565b5f9a506132b067b279bcfd6a2e32c460c01b6147e7565b6132c467b0c377f0e2e35dd160c01b6147e7565b5f5b8751811015613607576132e3676ebb827bd4a0b18b60c01b6147e7565b8781815181106132f6576132f5616ee7565b5b60200260200101519250613314674de57254f447e96260c01b6147e7565b86818151811061332757613326616ee7565b5b602002602001015160155f8581526020019081526020015f20600201908051906020019061335692919061634e565b5061336b67823eaafb77a238c160c01b6147e7565b61337f6787daeb6ff783808e60c01b6147e7565b5f86828151811061339357613392616ee7565b5b602002602001015111156135ba576133b567667b54ca39d435d060c01b6147e7565b6133c967446c71363753bcdb60c01b6147e7565b8581815181106133dc576133db616ee7565b5b602002602001015160155f8581526020019081526020015f206005015461340391906163ea565b86828151811061341657613415616ee7565b5b602002602001018181525050613436674b5d2ecfa9564ae360c01b6147e7565b85818151811061344957613448616ee7565b5b602002602001015160155f8581526020019081526020015f206005018190555061347d67060189fa49c1003360c01b6147e7565b61349167b9f9b5a693a266e160c01b6147e7565b600e548682815181106134a7576134a6616ee7565b5b60200260200101511115613524576134c967526901b60e11e31b60c01b6147e7565b6134dd67b18e6670bf7b021160c01b6147e7565b828e82815181106134f1576134f0616ee7565b5b602002602001018181525050613511679d7dad34115111ba60c01b6147e7565b8b8061351c90617444565b9c50506135b5565b61353867570ec01a454902f260c01b6147e7565b61354c67173fe970a80dc00360c01b6147e7565b613560670c8d79295660f89b60c01b6147e7565b827f33dc5cdf1e035de8a7fe16ad7a30a441d30ee51719d3f07703ee35d4348f07798388848151811061359657613595616ee7565b5b60200260200101516040516135ac9291906172ff565b60405180910390a25b6135fc565b6135ce67c7588d0cb9fdd8a260c01b6147e7565b6135e267ec15829699da8a5a60c01b6147e7565b5f60155f8581526020019081526020015f20600501819055505b8060010190506132c6565b5061361c676822dcd476d0699f60c01b6147e7565b61363067891ab7a1d0192f4160c01b6147e7565b5f8b11156136845761364c67cd992e9f9f9b4f8b60c01b6147e7565b613660671e4c6cf4153d4b4960c01b6147e7565b6136746730d3a6507786907460c01b6147e7565b61367f8d868d61577b565b613699565b61369867dba0dd89dd5d12a260c01b6147e7565b5b6136ad67fec66c235dea1af060c01b6147e7565b6136c1673acbdcc90d8ce29b60c01b6147e7565b5f601354426136d09190616eb4565b90506136e6677ea0f16a4db6248460c01b6147e7565b42601381905550613701677eadbe1822440bdf60c01b6147e7565b60018261370e91906163ea565b600f8190555061372867b68f40ad8755a47560c01b6147e7565b61373c67e04325b461c2b7d660c01b6147e7565b817f48b735a18ed32318d316214e41387be29c52e29df4598f2b8e40fa843be3f9408e878785604051613772949392919061748b565b60405180910390a25050613796565b613795671aab091140872ddf60c01b6147e7565b5b6137aa673910848cecf6a65c60c01b6147e7565b6137be672a17f538c83ec5ca60c01b6147e7565b858584849f509f509f509f5050505050505050505050509091929394565b5f5481565b600b5f9054906101000a900473ffffffffffffffffffffffffffffffffffffffff1681565b60095481565b60035481565b60025481565b60168181548110613827575f80fd5b905f5260205f20015f915090505481565b606061384e67ec75e3ae4d9af9e060c01b6147e7565b61386267cac24b1853f05c8760c01b6147e7565b61387667f85acd8abc3966f160c01b6147e7565b60168054806020026020016040519081016040528092919081815260200182805480156138c057602002820191905f5260205f20905b8154815260200190600101908083116138ac575b5050505050905090565b5f6138df67ec91034272ec50b360c01b6147e7565b6138f367ec3983fa7c7b9c2c60c01b6147e7565b60055460135461390391906163ea565b905090565b600e5481565b5f613923679278db44829ffe3060c01b6147e7565b613937675ee2d2ec16b31aaa60c01b6147e7565b61394b67f628e123289c1d4760c01b6147e7565b5f60155f8481526020019081526020015f206040518060c00160405290815f82015f9054906101000a900473ffffffffffffffffffffffffffffffffffffffff1673ffffffffffffffffffffffffffffffffffffffff1673ffffffffffffffffffffffffffffffffffffffff168152602001600182015f9054906101000a900473ffffffffffffffffffffffffffffffffffffffff1673ffffffffffffffffffffffffffffffffffffffff1673ffffffffffffffffffffffffffffffffffffffff16815260200160028201805480602002602001604051908101604052809291908181526020018280548015613a5e57602002820191905f5260205f20905b815481526020019060010190808311613a4a575b5050505050815260200160038201548152602001600482015481526020016005820154815250509050613a9b676a86e8d520467a7e60c01b6147e7565b613aaf67121de578823c7c9e60c01b6147e7565b600e548160a001511115613aee57613ad167183e6ed21df5305a60c01b6147e7565b613ae567671e2f0e76f5ff0e60c01b6147e7565b60029150613b69565b613b02671673779190781c6260c01b6147e7565b613b16678792e8b3a2fe4ce860c01b6147e7565b5f81606001511115613b5357613b36673d328f99bc73beb060c01b6147e7565b613b4a6724905de915fba30b60c01b6147e7565b60019150613b68565b613b67674fa3e15d1b86bb7460c01b6147e7565b5b5b50919050565b6040518060400160405280600581526020017f302e322e3000000000000000000000000000000000000000000000000000000081525081565b613bbc672a2db44514264ffd60c01b6147e7565b613bd0672492e18708658a6560c01b6147e7565b613be467dac35e88b67bf01c60c01b6147e7565b5f73ffffffffffffffffffffffffffffffffffffffff16600b5f9054906101000a900473ffffffffffffffffffffffffffffffffffffffff1673ffffffffffffffffffffffffffffffffffffffff1614613c9257613c4c67e51092924f43d31660c01b6147e7565b613c606798fd479897b9601e60c01b6147e7565b6040517f0dc149f000000000000000000000000000000000000000000000000000000000815260040160405180910390fd5b613ca6678488ca0ab9776a2260c01b6147e7565b613cba679649767eb9d5859e60c01b6147e7565b613cce674a3e26ae92b767af60c01b6147e7565b5f801b815f0151148015613cf25750613cf16763519cb412a8b1d160c01b615f26565b5b80613d3857505f8160200151148015613d1b5750613d1a6787c53cc632d7768f60c01b615f26565b5b8015613d375750613d366717c4c9c2d0caca5960c01b615f26565b5b5b80613d7e57505f8160400151148015613d615750613d606716708f27892fd71060c01b615f26565b5b8015613d7d5750613d7c67ea49f4214eb167cf60c01b615f26565b5b5b80613dc457505f8160c00151148015613da75750613da6674b08c3081087cddb60c01b615f26565b5b8015613dc35750613dc2675baf056e2bc91f2a60c01b615f26565b5b5b80613e0b57505f816101000151148015613dee5750613ded67ca1bf2427659a1c060c01b615f26565b5b8015613e0a5750613e096767111a1a8b48c54c60c01b615f26565b5b5b80613e5157505f8160e00151148015613e345750613e336728f7bc0e90ee644360c01b615f26565b5b8015613e505750613e4f6799daef071859bbef60c01b615f26565b5b5b80613e9757505f8160800151148015613e7a5750613e7967ffe060ff7e9fb36160c01b615f26565b5b8015613e965750613e9567ea07e773377e04a160c01b615f26565b5b5b80613ec157505f8160a00151148015613ec05750613ebf67e9f390a82f6c709c60c01b615f26565b5b5b15613f2057613eda679eba09dc015cbcc560c01b6147e7565b613eee6745d6ca59ecad015f60c01b6147e7565b6040517f7c946ed700000000000000000000000000000000000000000000000000000000815260040160405180910390fd5b613f346787b2fe39823145fc60c01b6147e7565b613f4867033f3d5ef40af8a560c01b6147e7565b613f5c67e3c5e157ec327f7c60c01b6147e7565b8060a0015181608001511015613fdb57613f8067522ac55dddb6a1a060c01b6147e7565b613f946718fa65bf27755e3c60c01b6147e7565b80608001518160a001516040517f491a2bb1000000000000000000000000000000000000000000000000000000008152600401613fd29291906172ff565b60405180910390fd5b613fef671041b1b339a3659260c01b6147e7565b614003671bbe027a05b3400e60c01b6147e7565b61401767121f520129c0653a60c01b6147e7565b6002816060015110156140905761403867488751e83e4402dd60c01b6147e7565b61404c671e2b8373cd4becbd60c01b6147e7565b806060015160026040517f491a2bb100000000000000000000000000000000000000000000000000000000815260040161408792919061751e565b60405180910390fd5b6140a467f1b915603dbbd60560c01b6147e7565b6140b86727102663856c91ef60c01b6147e7565b6140cc675aaf843c58cbcafe60c01b6147e7565b5f73ffffffffffffffffffffffffffffffffffffffff16816101a0015173ffffffffffffffffffffffffffffffffffffffff1614801561411c575061411b67d074cca46dde3f4860c01b615f26565b5b8061417357505f73ffffffffffffffffffffffffffffffffffffffff16816101c0015173ffffffffffffffffffffffffffffffffffffffff1614801561417257506141716724221c7a7f174a0360c01b615f26565b5b5b156141d25761418c67fd83697690fa5acf60c01b6147e7565b6141a06784baadb5284c9e4160c01b6147e7565b6040517fd92e233d00000000000000000000000000000000000000000000000000000000815260040160405180910390fd5b6141e66742431a4ae767d8b960c01b6147e7565b6141fa6753a5692cd1a8ec0d60c01b6147e7565b61420e67a2b188ae2b8ea93160c01b6147e7565b5f816101c0015173ffffffffffffffffffffffffffffffffffffffff163b0361429b57614245677727249dc078aa9560c01b6147e7565b6142596732f795007cfc85b060c01b6147e7565b806101c001516040517f601c0c210000000000000000000000000000000000000000000000000000000081526004016142929190616b5c565b60405180910390fd5b6142af6749700644e020a10f60c01b6147e7565b6142c367fe074953ff6be5c760c01b6147e7565b805f01515f819055506142e06737c66154ce79c23f60c01b6147e7565b80602001516001819055506142ff67c7d76957307f666a60c01b6147e7565b806040015160028190555061431e678ff518eb839d2f5d60c01b6147e7565b806060015160038190555061433d67411c6ce04d8ab74160c01b6147e7565b8060a0015160048190555061435c672d3717c07dbdb43e60c01b6147e7565b8060c0015160058190555061437b67e7a8dc2d23ad8a1f60c01b6147e7565b8060e0015160068190555061439a67abe8eb0cbd6135d160c01b6147e7565b8061010001516007819055506143ba67b151868ec52f50c160c01b6147e7565b806101a00151600b5f6101000a81548173ffffffffffffffffffffffffffffffffffffffff021916908373ffffffffffffffffffffffffffffffffffffffff160217905550614413671f37a0b0ad0595b860c01b6147e7565b806101c00151600c5f6101000a81548173ffffffffffffffffffffffffffffffffffffffff021916908373ffffffffffffffffffffffffffffffffffffffff16021790555061446c67c7deadc03df6f46860c01b6147e7565b80610140015160088190555061448c67f50d2600a5d638e660c01b6147e7565b8061016001516009819055506144ac6747958d183a38d2ca60c01b6147e7565b6144c067f9012e0094bdf7b560c01b6147e7565b5f6144d5675ce53b547c08d35460c01b6147e7565b6144e9671fc53c5a1e69f05a60c01b6147e7565b5f5b8261012001515181101561466e5761450d67b96026a178f29abc60c01b6147e7565b6145216741a8cf9f36c6f80c60c01b6147e7565b81836101200151828151811061453a57614539616ee7565b5b6020026020010151116145cb5761455b674c2bf8fc1665643260c01b6147e7565b61456f6765bc5ccec8bce95260c01b6147e7565b826101200151818151811061458757614586616ee7565b5b60200260200101516040517faac42c2c0000000000000000000000000000000000000000000000000000000081526004016145c29190616461565b60405180910390fd5b6145df67cae5d426a67e376a60c01b6147e7565b6145f36750343f9506e9dacc60c01b6147e7565b826101200151818151811061460b5761460a616ee7565b5b60200260200101519150614629672b6a9167ccc80ceb60c01b6147e7565b61463d6730058f839559c96360c01b6147e7565b601482908060018154018082558091505060019003905f5260205f20015f90919091909150558060010190506144eb565b5061468367ca9624a86bd5407360c01b6147e7565b61469767fbd1d40ec6571a9460c01b6147e7565b5f801b826101800151036146ff576146b967d8c0e2607a1ad1d560c01b6147e7565b6146cd67942f39686211a15d60c01b6147e7565b6040517f7c946ed700000000000000000000000000000000000000000000000000000000815260040160405180910390fd5b61471367f55ea79d96a65ea960c01b6147e7565b614727676cc3ea43d7dcf3db60c01b6147e7565b816101800151600a81905550614747671b1731a399a7be8a60c01b6147e7565b60055482608001516147599190616fb2565b600d819055506147736736604ef96fe5027160c01b6147e7565b6005548260a001516147859190616fb2565b600e8190555061479f67c47c17c89464dc8c60c01b6147e7565b8160e00151826020015183604001516147b89190616fb2565b6147c29190616fb2565b6012819055506147dc6777c70997f350a74960c01b6147e7565b426013819055505050565b50565b6147fe67102efa7ba35b0a3460c01b610a7f565b61481267d42150832b2ca36060c01b610a7f565b8060105f8282546148239190616eb4565b9250508190555061483e6783507bee649b6b5560c01b610a7f565b614852678ef48d1e6c71be3160c01b610a7f565b5f8273ffffffffffffffffffffffffffffffffffffffff168260405161487790617572565b5f6040518083038185875af1925050503d805f81146148b1576040519150601f19603f3d011682016040523d82523d5f602084013e6148b6565b606091505b505090506148ce67d93c79b5b8c744b260c01b610a7f565b6148e267131bfa80892497e460c01b610a7f565b80614952576148fb675378ba266a829b2a60c01b610a7f565b61490f678e72c5fe3d70980f60c01b610a7f565b5f3084846040517fcd3f16590000000000000000000000000000000000000000000000000000000081526004016149499493929190617586565b60405180910390fd5b61496667e50a4a3a6871086460c01b610a7f565b505050565b5f6149806767970a625609726060c01b6147e7565b614994670b6d0ac970986fd360c01b6147e7565b6149a86790c89c1b555b703b60c01b6147e7565b5f60155f8581526020019081526020015f2090506149d067a68f3c46a3e047ea60c01b6147e7565b6149e46732ca36aea097423660c01b6147e7565b806001015f9054906101000a900473ffffffffffffffffffffffffffffffffffffffff1673ffffffffffffffffffffffffffffffffffffffff163373ffffffffffffffffffffffffffffffffffffffff1614614ac457614a4e67e1848d64d4c4f05060c01b6147e7565b614a6267bd590461ae54ffb060c01b6147e7565b33816001015f9054906101000a900473ffffffffffffffffffffffffffffffffffffffff166040517fa43d6ada000000000000000000000000000000000000000000000000000000008152600401614abb929190616e8d565b60405180910390fd5b614ad86781a3c9180c0edf1b60c01b6147e7565b614aec6730cb4e9d9bcb384660c01b6147e7565b614b0067ba7542e73e0e0e0a60c01b6147e7565b8215614b5457614b1a67e1e4061e2aca908260c01b6147e7565b614b2e679a3d663afee03db660c01b6147e7565b614b42671faed90b85b665e060c01b6147e7565b614b4a6129cb565b5050505050614b69565b614b6867395d45650fa07d1c60c01b6147e7565b5b614b7d676aa413e550bf26cb60c01b6147e7565b80600401549150614b98677dca38111e83ca3e60c01b6147e7565b614bac67f8a7ef0f7e4733cd60c01b6147e7565b5f8203614c0d57614bc7679b0b81678d4ca52c60c01b6147e7565b614bdb675ca3e5a3f224f48e60c01b6147e7565b6040517f7c946ed700000000000000000000000000000000000000000000000000000000815260040160405180910390fd5b614c2167d23096aa9693781c60c01b6147e7565b614c356738f5ca520727e9f460c01b6147e7565b5f8160040181905550614c52671af0acbeff52230e60c01b6147e7565b614c6667ce3dbaf3d1190c3160c01b6147e7565b5f815f015f9054906101000a900473ffffffffffffffffffffffffffffffffffffffff169050614ca067bba51feff582f07260c01b6147e7565b614cb467cd5ead69cfc4288e60c01b6147e7565b614cbe81846147ea565b614cd2670fd034317bc2272760c01b6147e7565b614ce66754f1360b8352b74160c01b6147e7565b8073ffffffffffffffffffffffffffffffffffffffff163373ffffffffffffffffffffffffffffffffffffffff16867f31add0166dae59ea66bbc180e4fae85b72fc9b7b5fc7b0f7257e4721a840c96e600f548660020188604051614d4d93929190617693565b60405180910390a4505092915050565b5f805f6060806060806060614d7c67c62ed9990cf6492460c01b6147e7565b614d90674b6032b7c02e918f60c01b6147e7565b614da467e23533bc7741408f60c01b6147e7565b5f6013549050614dbe672be650819e9f5fef60c01b6147e7565b6011549850614dd767efc1e0918338106c60c01b6147e7565b614deb6702072b5b1e4cc00f60c01b6147e7565b6005548142614dfa9190616eb4565b10158015614e0757505f89115b1561546957614e2067bfc4a320adecdb3660c01b6147e7565b614e34672e42c98b38c6419f60c01b6147e7565b614e486769e41269f4582bf260c01b6147e7565b5f6016805490509050614e656756adfc8fd8e631c260c01b6147e7565b8067ffffffffffffffff811115614e7f57614e7e61649f565b5b604051908082528060200260200182016040528015614ead5781602001602082028036833780820191505090505b509450614ec467736c93f44d2f18c160c01b6147e7565b8067ffffffffffffffff811115614ede57614edd61649f565b5b604051908082528060200260200182016040528015614f0c5781602001602082028036833780820191505090505b509650614f2367c877b9a0720594ce60c01b6147e7565b8067ffffffffffffffff811115614f3d57614f3c61649f565b5b604051908082528060200260200182016040528015614f6b5781602001602082028036833780820191505090505b509550614f82676c5bb81a6ab4d9ac60c01b6147e7565b8067ffffffffffffffff811115614f9c57614f9b61649f565b5b604051908082528060200260200182016040528015614fcf57816020015b6060815260200190600190039081614fba5790505b509350614fe66737ea36bb74e2a28960c01b6147e7565b8067ffffffffffffffff81111561500057614fff61649f565b5b60405190808252806020026020018201604052801561502e5781602001602082028036833780820191505090505b5092506150456776191fde51a39ebe60c01b6147e7565b61505967aa08b3565a23888660c01b6147e7565b5f5b818110156154625761507767694c7320372772ee60c01b6147e7565b6016818154811061508b5761508a616ee7565b5b905f5260205f2001548682815181106150a7576150a6616ee7565b5b6020026020010181815250506150c76779cc23ed0aa1c0f660c01b6147e7565b6150db67b07c0aae1c26850360c01b6147e7565b5f60155f8884815181106150f2576150f1616ee7565b5b602002602001015181526020019081526020015f20905061511d672d250099e645c12a60c01b6147e7565b615131679e613fb7b26ab5e660c01b6147e7565b5f849050615149670434fec454358ebf60c01b6147e7565b61515d678e8144037a6d176a60c01b6147e7565b5f826003015490506151796767337e594c5d5e8d60c01b6147e7565b61518d67f0d71fc1aac5ac9e60c01b6147e7565b818111156151c5576151a967e741436269fab0c860c01b6147e7565b6151bd6723ba939320068d5360c01b6147e7565b8091506151da565b6151d967e4ac84816504597260c01b6147e7565b5b6151ee671b31ed9df2ad02ef60c01b6147e7565b81426151fa9190616eb4565b9050615210670301236afd685d8a60c01b6147e7565b61522467e36d286d5de291da60c01b6147e7565b5f61523967a1d2a9fbde161cd960c01b6147e7565b6152b6845f015f9054906101000a900473ffffffffffffffffffffffffffffffffffffffff16856002018054806020026020016040519081016040528092919081815260200182805480156152ab57602002820191905f5260205f20905b815481526020019060010190808311615297575b505050505084615f30565b8a87815181106152c9576152c8616ee7565b5b6020026020010181905281925050506152ec67ae722a9c65abd1a960c01b6147e7565b61530067c26f2ea815938b1760c01b6147e7565b801561540a5761531a672c6af4a56a8cae0260c01b6147e7565b61532e6702a311700a924e7260c01b6147e7565b8160025461533c9190616fb2565b8b8f8151811061534f5761534e616ee7565b5b60200260200101818152505061536f6715e8547b4f015e6760c01b6147e7565b8a8e8151811061538257615381616ee7565b5b60200260200101518d61539591906163ea565b9c506153ab677538415f78b6eb6760c01b6147e7565b8985815181106153be576153bd616ee7565b5b60200260200101518c8f815181106153d9576153d8616ee7565b5b6020026020010181815250506153f96740364d66ca34263860c01b6147e7565b8d61540390617444565b9d50615453565b61541e679eb1f6115433b3f160c01b6147e7565b61543267920ab61dd6c323cb60c01b6147e7565b8188868151811061544657615445616ee7565b5b6020026020010181815250505b5050505080600101905061505b565b505061547e565b61547d6747b1af292e9d97e060c01b6147e7565b5b509091929394959697565b61549d6764db88a0dedbfe0260c01b6147e7565b6154b1672aaeb9741d60b7cf60c01b6147e7565b6154c567ca407475d221210660c01b6147e7565b5f60035490506154df67a62d084ada48120660c01b6147e7565b6154f367a7ff9c627c660ab460c01b6147e7565b808310156155625761550f67331bad6e00794ff060c01b6147e7565b61552367186fe2ee4596ea6260c01b6147e7565b82816040517f491a2bb10000000000000000000000000000000000000000000000000000000081526004016155599291906172ff565b60405180910390fd5b615576671b32d8ef84b6e79160c01b6147e7565b61558a67e07d02d6e600c27360c01b6147e7565b61559e67049c4ccb90881a6460c01b6147e7565b5f80600b5f9054906101000a900473ffffffffffffffffffffffffffffffffffffffff1673ffffffffffffffffffffffffffffffffffffffff16631de286ba876040518263ffffffff1660e01b81526004016155fa9190616461565b5f60405180830381865afa158015615614573d5f803e3d5ffd5b505050506040513d5f823e3d601f19601f8201168201806040525081019061563c91906177dc565b9150915061565467caf2c8d3ef596cbc60c01b6147e7565b61566867cf014af51b98a4f360c01b6147e7565b5f5b82811015615772576156866796a1aae5b69ec28a60c01b6147e7565b61569a678ec7442febe77e5160c01b6147e7565b838282815181106156ae576156ad616ee7565b5b6020026020010151602001516bffffffffffffffffffffffff161015615753576156e2677470ae7e87fca44960c01b6147e7565b6156f66794cdbafb4931a10060c01b6147e7565b81818151811061570957615708616ee7565b5b602002602001015160200151846040517f491a2bb100000000000000000000000000000000000000000000000000000000815260040161574a929190617866565b60405180910390fd5b61576767d217873bee84248c60c01b6147e7565b80600101905061566a565b50505050505050565b61578f67a1e38b3a4a4fb61660c01b6147e7565b6157a3670633a3212b111f0360c01b6147e7565b6157b767dc7cf9adf3752cc460c01b6147e7565b5f835190506157d067e34ef1df653fe56660c01b6147e7565b6157e4671256969752f00cd560c01b6147e7565b5f8267ffffffffffffffff8111156157ff576157fe61649f565b5b60405190808252806020026020018201604052801561582d5781602001602082028036833780820191505090505b50905061584467886de0739fa9b63760c01b6147e7565b61585867970fecb2ec45ff3560c01b6147e7565b5f8367ffffffffffffffff8111156158735761587261649f565b5b6040519080825280602002602001820160405280156158a15781602001602082028036833780820191505090505b5090506158b8670758d01c6072e34b60c01b6147e7565b6158cc670c5b5d4960893e0860c01b6147e7565b5f8467ffffffffffffffff8111156158e7576158e661649f565b5b6040519080825280602002602001820160405280156159155781602001602082028036833780820191505090505b50905061592c672ee9bec04b6325cd60c01b6147e7565b61594067a65d30ba3b47833f60c01b6147e7565b5f8567ffffffffffffffff81111561595b5761595a61649f565b5b6040519080825280602002602001820160405280156159895781602001602082028036833780820191505090505b5090506159a0674a6ab9743b728bfb60c01b6147e7565b6159b46708415ae3e506163c60c01b6147e7565b5f8667ffffffffffffffff8111156159cf576159ce61649f565b5b6040519080825280602002602001820160405280156159fd5781602001602082028036833780820191505090505b509050615a1467c26d0d7a3837036160c01b6147e7565b615a28674a9bbdbd6b5e6e5660c01b6147e7565b5f615a3d670a8a492be52f497160c01b6147e7565b615a51679dd8da52aa195d5e60c01b6147e7565b5f615a66671d1e07ea1e66855760c01b6147e7565b615a7a67bcb116e71e42f7c260c01b6147e7565b5f5b88811015615d5657615a986783e5b9eca320686760c01b6147e7565b615aac671f61fcf82b3c8ac960c01b6147e7565b5f8c8281518110615ac057615abf616ee7565b5b60200260200101511115615d3657615ae267f5cc334fd8f73cec60c01b6147e7565b615af667736100e072ae6f7b60c01b6147e7565b8b8181518110615b0957615b08616ee7565b5b60200260200101519150615b27678ed3ba11580c394060c01b6147e7565b81888481518110615b3b57615b3a616ee7565b5b602002602001018181525050615b5b676839d81b411edbc660c01b6147e7565b615b6f67adc72ad76084de4c60c01b6147e7565b5f60155f8481526020019081526020015f209050615b976760ba6ae1fc3490e960c01b6147e7565b806001015f9054906101000a900473ffffffffffffffffffffffffffffffffffffffff16888581518110615bce57615bcd616ee7565b5b602002602001019073ffffffffffffffffffffffffffffffffffffffff16908173ffffffffffffffffffffffffffffffffffffffff1681525050615c1c6707df650fd84d894860c01b6147e7565b805f015f9054906101000a900473ffffffffffffffffffffffffffffffffffffffff16878581518110615c5257615c51616ee7565b5b602002602001019073ffffffffffffffffffffffffffffffffffffffff16908173ffffffffffffffffffffffffffffffffffffffff1681525050615ca067ad22ae8bdbe66e6b60c01b6147e7565b8b8281518110615cb357615cb2616ee7565b5b6020026020010151868581518110615cce57615ccd616ee7565b5b602002602001018181525050615cee679f15895e146a948b60c01b6147e7565b81858581518110615d0257615d01616ee7565b5b602002602001018181525050615d22672a864bb022c309a360c01b6147e7565b8380615d2d90617444565b94505050615d4b565b615d4a67a44197129041ef8160c01b6147e7565b5b806001019050615a7c565b50615d6b67442240375e2dcdc060c01b6147e7565b615d7f672505405220d53de160c01b6147e7565b5f8990505b5f811115615eb057615da06796792a6a868ca69560c01b6147e7565b8880615dab9061788d565b995050615dc267e53ecd5bc73aabd460c01b6147e7565b615dd66785525f5c5dc9476460c01b6147e7565b5f84600183615de59190616eb4565b81518110615df657615df5616ee7565b5b60200260200101519050615e14675d755d6d7fddb0a060c01b6147e7565b60168a81548110615e2857615e27616ee7565b5b905f5260205f20015460168281548110615e4557615e44616ee7565b5b905f5260205f200181905550615e6567c35385d23d76663760c01b6147e7565b615e79675eae68123f153dab60c01b6147e7565b6016805480615e8b57615e8a616f14565b5b600190038181905f5260205f20015f905590555080615ea99061788d565b9050615d84565b50615ec56706f019f598be612060c01b6147e7565b615ed967c76f08735e3403c660c01b6147e7565b600f547fd19a3d42ed383465e4058c322d9411aeac76ddb8454d22e139fc99808bd5695288888888604051615f11949392919061795c565b60405180910390a25050505050505050505050565b5f60019050919050565b5f6060615f47673aa73f0dbe188a1460c01b6147e7565b615f5b678de3ef7d0602d93a60c01b6147e7565b615f6f6737b5dcc0e869e7aa60c01b6147e7565b5f85604051602401615f819190616b5c565b60405160208183030381529060405263d564c4bf60e01b6020820180517bffffffffffffffffffffffffffffffffffffffffffffffffffffffff83818316178352505050509050615fdc671503e0ee697fcd6660c01b6147e7565b615ff06752d1d43fce1cb9d960c01b6147e7565b5f80600c5f9054906101000a900473ffffffffffffffffffffffffffffffffffffffff1673ffffffffffffffffffffffffffffffffffffffff168360405161603891906179f5565b5f60405180830381855afa9150503d805f8114616070576040519150601f19603f3d011682016040523d82523d5f602084013e616075565b606091505b509150915061608e67bb3cb17aa7825de360c01b6147e7565b6160a267fc4857cc95bcbf2160c01b6147e7565b8180156160b05750603f8151115b80156160c857505f602082516160c69190617a0b565b145b156162b3576160e1674c4ad4819781483560c01b6147e7565b6160f567ac0326345a3a811660c01b6147e7565b8080602001905181019061610991906173cf565b935061611f67c5ff4890630eca0160c01b6147e7565b83878760405160240161613493929190617a3b565b60405160208183030381529060405263184023a560e01b6020820180517bffffffffffffffffffffffffffffffffffffffffffffffffffffffff8381831617835250505050925061618f673576372cfc12681660c01b6147e7565b600c5f9054906101000a900473ffffffffffffffffffffffffffffffffffffffff1673ffffffffffffffffffffffffffffffffffffffff16836040516161d591906179f5565b5f60405180830381855afa9150503d805f811461620d576040519150601f19603f3d011682016040523d82523d5f602084013e616212565b606091505b50809250819350505061622f67391f942a74c7ed4760c01b6147e7565b61624367c26472c71557484060c01b6147e7565b818015616251575060208151145b156162995761626a67ea94f2073a617f2c60c01b6147e7565b61627e674e2c0b6cf1194eb460c01b6147e7565b808060200190518101906162929190617ab3565b94506162ae565b6162ad67fb93ee12fd282be860c01b6147e7565b5b6162c8565b6162c767b208f30d65ffc46960c01b6147e7565b5b505050935093915050565b5080545f8255905f5260205f20908101906162ee9190616399565b50565b6040518060c001604052805f73ffffffffffffffffffffffffffffffffffffffff1681526020015f73ffffffffffffffffffffffffffffffffffffffff168152602001606081526020015f81526020015f81526020015f81525090565b828054828255905f5260205f20908101928215616388579160200282015b8281111561638757825182559160200191906001019061636c565b5b5090506163959190616399565b5090565b5b808211156163b0575f815f90555060010161639a565b5090565b5f819050919050565b7f4e487b71000000000000000000000000000000000000000000000000000000005f52601160045260245ffd5b5f6163f4826163b4565b91506163ff836163b4565b9250828201905080821115616417576164166163bd565b5b92915050565b616426816163b4565b82525050565b5f60608201905061643f5f83018661641d565b61644c602083018561641d565b616459604083018461641d565b949350505050565b5f6020820190506164745f83018461641d565b92915050565b5f604051905090565b5f80fd5b5f80fd5b5f80fd5b5f601f19601f8301169050919050565b7f4e487b71000000000000000000000000000000000000000000000000000000005f52604160045260245ffd5b6164d58261648f565b810181811067ffffffffffffffff821117156164f4576164f361649f565b5b80604052505050565b5f61650661647a565b905061651282826164cc565b919050565b5f80fd5b5f819050919050565b61652d8161651b565b8114616537575f80fd5b50565b5f8135905061654881616524565b92915050565b616557816163b4565b8114616561575f80fd5b50565b5f813590506165728161654e565b92915050565b5f80fd5b5f67ffffffffffffffff8211156165965761659561649f565b5b602082029050602081019050919050565b5f80fd5b5f6165bd6165b88461657c565b6164fd565b905080838252602082019050602084028301858111156165e0576165df6165a7565b5b835b8181101561660957806165f58882616564565b8452602084019350506020810190506165e2565b5050509392505050565b5f82601f83011261662757616626616578565b5b81356166378482602086016165ab565b91505092915050565b5f73ffffffffffffffffffffffffffffffffffffffff82169050919050565b5f61666982616640565b9050919050565b6166798161665f565b8114616683575f80fd5b50565b5f8135905061669481616670565b92915050565b5f6101e082840312156166b0576166af61648b565b5b6166bb6101e06164fd565b90505f6166ca8482850161653a565b5f8301525060206166dd84828501616564565b60208301525060406166f184828501616564565b604083015250606061670584828501616564565b606083015250608061671984828501616564565b60808301525060a061672d84828501616564565b60a08301525060c061674184828501616564565b60c08301525060e061675584828501616564565b60e08301525061010061676a84828501616564565b6101008301525061012082013567ffffffffffffffff8111156167905761678f616517565b5b61679c84828501616613565b610120830152506101406167b284828501616564565b610140830152506101606167c88482850161653a565b610160830152506101806167de8482850161653a565b610180830152506101a06167f484828501616686565b6101a0830152506101c061680a84828501616686565b6101c08301525092915050565b5f6020828403121561682c5761682b616483565b5b5f82013567ffffffffffffffff81111561684957616848616487565b5b6168558482850161669a565b91505092915050565b5f80fd5b5f8083601f84011261687757616876616578565b5b8235905067ffffffffffffffff8111156168945761689361685e565b5b6020830191508360018202830111156168b0576168af6165a7565b5b9250929050565b5f805f805f608086880312156168d0576168cf616483565b5b5f6168dd88828901616686565b95505060206168ee88828901616686565b94505060406168ff88828901616564565b935050606086013567ffffffffffffffff8111156169205761691f616487565b5b61692c88828901616862565b92509250509295509295909350565b5f7fffffffff0000000000000000000000000000000000000000000000000000000082169050919050565b61696f8161693b565b82525050565b5f6020820190506169885f830184616966565b92915050565b5f602082840312156169a3576169a2616483565b5b5f6169b084828501616564565b91505092915050565b6169c28161651b565b82525050565b5f6020820190506169db5f8301846169b9565b92915050565b6169ea8161665f565b82525050565b5f81519050919050565b5f82825260208201905092915050565b5f819050602082019050919050565b616a22816163b4565b82525050565b5f616a338383616a19565b60208301905092915050565b5f602082019050919050565b5f616a55826169f0565b616a5f81856169fa565b9350616a6a83616a0a565b805f5b83811015616a9a578151616a818882616a28565b9750616a8c83616a3f565b925050600181019050616a6d565b5085935050505092915050565b5f60c083015f830151616abc5f8601826169e1565b506020830151616acf60208601826169e1565b5060408301518482036040860152616ae78282616a4b565b9150506060830151616afc6060860182616a19565b506080830151616b0f6080860182616a19565b5060a0830151616b2260a0860182616a19565b508091505092915050565b5f6020820190508181035f830152616b458184616aa7565b905092915050565b616b568161665f565b82525050565b5f602082019050616b6f5f830184616b4d565b92915050565b5f60a082019050616b885f830188616b4d565b616b956020830187616b4d565b616ba2604083018661641d565b616baf606083018561641d565b616bbc608083018461641d565b9695505050505050565b5f82825260208201905092915050565b5f616be0826169f0565b616bea8185616bc6565b9350616bf583616a0a565b805f5b83811015616c25578151616c0c8882616a28565b9750616c1783616a3f565b925050600181019050616bf8565b5085935050505092915050565b5f6020820190508181035f830152616c4a8184616bd6565b905092915050565b5f81519050919050565b5f82825260208201905092915050565b5f819050602082019050919050565b5f616c868383616a4b565b905092915050565b5f602082019050919050565b5f616ca482616c52565b616cae8185616c5c565b935083602082028501616cc085616c6c565b805f5b85811015616cfb5784840389528151616cdc8582616c7b565b9450616ce783616c8e565b925060208a01995050600181019050616cc3565b50829750879550505050505092915050565b5f60a0820190508181035f830152616d258188616bd6565b90508181036020830152616d398187616c9a565b90508181036040830152616d4d8186616bd6565b90508181036060830152616d618185616bd6565b90508181036080830152616d758184616bd6565b90509695505050505050565b7f4e487b71000000000000000000000000000000000000000000000000000000005f52602160045260245ffd5b60038110616dbf57616dbe616d81565b5b50565b5f819050616dcf82616dae565b919050565b5f616dde82616dc2565b9050919050565b616dee81616dd4565b82525050565b5f602082019050616e075f830184616de5565b92915050565b5f81519050919050565b5f82825260208201905092915050565b8281835e5f83830152505050565b5f616e3f82616e0d565b616e498185616e17565b9350616e59818560208601616e27565b616e628161648f565b840191505092915050565b5f6020820190508181035f830152616e858184616e35565b905092915050565b5f604082019050616ea05f830185616b4d565b616ead6020830184616b4d565b9392505050565b5f616ebe826163b4565b9150616ec9836163b4565b9250828203905081811115616ee157616ee06163bd565b5b92915050565b7f4e487b71000000000000000000000000000000000000000000000000000000005f52603260045260245ffd5b7f4e487b71000000000000000000000000000000000000000000000000000000005f52603160045260245ffd5b5f606082019050616f545f830186616b4d565b616f616020830185616b4d565b616f6e604083018461641d565b949350505050565b5f606082019050616f895f83018661641d565b8181036020830152616f9b8185616bd6565b9050616faa604083018461641d565b949350505050565b5f616fbc826163b4565b9150616fc7836163b4565b9250828202616fd5816163b4565b91508282048414831517616fec57616feb6163bd565b5b5092915050565b7f4e487b71000000000000000000000000000000000000000000000000000000005f52601260045260245ffd5b5f61702a826163b4565b9150617035836163b4565b92508261704557617044616ff3565b5b828204905092915050565b5f6bffffffffffffffffffffffff82169050919050565b61707081617050565b811461707a575f80fd5b50565b5f8151905061708b81617067565b92915050565b5f8151905061709f81616670565b92915050565b5f815190506170b381616524565b92915050565b5f63ffffffff82169050919050565b6170d1816170b9565b81146170db575f80fd5b50565b5f815190506170ec816170c8565b92915050565b600681106170fe575f80fd5b50565b5f8151905061710f816170f2565b92915050565b5f67ffffffffffffffff82111561712f5761712e61649f565b5b602082029050602081019050919050565b5f61715261714d84617115565b6164fd565b90508083825260208201905060208402830185811115617175576171746165a7565b5b835b8181101561719e578061718a88826170de565b845260208401935050602081019050617177565b5050509392505050565b5f82601f8301126171bc576171bb616578565b5b81516171cc848260208601617140565b91505092915050565b5f61010082840312156171eb576171ea61648b565b5b6171f66101006164fd565b90505f6172058482850161707d565b5f83015250602061721884828501617091565b602083015250604061722c848285016170a5565b6040830152506060617240848285016170de565b6060830152506080617254848285016170de565b60808301525060a0617268848285016170de565b60a08301525060c061727c84828501617101565b60c08301525060e082015167ffffffffffffffff8111156172a05761729f616517565b5b6172ac848285016171a8565b60e08301525092915050565b5f602082840312156172cd576172cc616483565b5b5f82015167ffffffffffffffff8111156172ea576172e9616487565b5b6172f6848285016171d5565b91505092915050565b5f6040820190506173125f83018561641d565b61731f602083018461641d565b9392505050565b5f815190506173348161654e565b92915050565b5f61734c6173478461657c565b6164fd565b9050808382526020820190506020840283018581111561736f5761736e6165a7565b5b835b8181101561739857806173848882617326565b845260208401935050602081019050617371565b5050509392505050565b5f82601f8301126173b6576173b5616578565b5b81516173c684826020860161733a565b91505092915050565b5f602082840312156173e4576173e3616483565b5b5f82015167ffffffffffffffff81111561740157617400616487565b5b61740d848285016173a2565b91505092915050565b5f6040820190506174295f83018561641d565b818103602083015261743b8184616bd6565b90509392505050565b5f61744e826163b4565b91507fffffffffffffffffffffffffffffffffffffffffffffffffffffffffffffffff82036174805761747f6163bd565b5b600182019050919050565b5f60808201905061749e5f83018761641d565b81810360208301526174b08186616bd6565b905081810360408301526174c48185616bd6565b90506174d3606083018461641d565b95945050505050565b5f819050919050565b5f819050919050565b5f6175086175036174fe846174dc565b6174e5565b6163b4565b9050919050565b617518816174ee565b82525050565b5f6040820190506175315f83018561641d565b61753e602083018461750f565b9392505050565b5f81905092915050565b50565b5f61755d5f83617545565b91506175688261754f565b5f82019050919050565b5f61757c82617552565b9150819050919050565b5f6080820190506175995f830187616b4d565b6175a66020830186616b4d565b6175b36040830185616b4d565b6175c0606083018461641d565b95945050505050565b5f81549050919050565b5f819050815f5260205f209050919050565b5f815f1c9050919050565b5f819050919050565b5f61760b617606836175e5565b6175f0565b9050919050565b5f61761d82546175f9565b9050919050565b5f600182019050919050565b5f61763a826175c9565b6176448185616bc6565b935061764f836175d3565b805f5b838110156176865761766382617612565b61766d8882616a28565b975061767883617624565b925050600181019050617652565b5085935050505092915050565b5f6060820190506176a65f83018661641d565b81810360208301526176b88185617630565b90506176c7604083018461641d565b949350505050565b5f67ffffffffffffffff8211156176e9576176e861649f565b5b602082029050602081019050919050565b5f6040828403121561770f5761770e61648b565b5b61771960406164fd565b90505f617728848285016170de565b5f83015250602061773b8482850161707d565b60208301525092915050565b5f617759617754846176cf565b6164fd565b9050808382526020820190506040840283018581111561777c5761777b6165a7565b5b835b818110156177a5578061779188826176fa565b84526020840193505060408101905061777e565b5050509392505050565b5f82601f8301126177c3576177c2616578565b5b81516177d3848260208601617747565b91505092915050565b5f80604083850312156177f2576177f1616483565b5b5f6177ff85828601617326565b925050602083015167ffffffffffffffff8111156178205761781f616487565b5b61782c858286016177af565b9150509250929050565b5f61785061784b61784684617050565b6174e5565b6163b4565b9050919050565b61786081617836565b82525050565b5f6040820190506178795f830185617857565b617886602083018461641d565b9392505050565b5f617897826163b4565b91505f82036178a9576178a86163bd565b5b600182039050919050565b5f81519050919050565b5f82825260208201905092915050565b5f819050602082019050919050565b5f6178e883836169e1565b60208301905092915050565b5f602082019050919050565b5f61790a826178b4565b61791481856178be565b935061791f836178ce565b805f5b8381101561794f57815161793688826178dd565b9750617941836178f4565b925050600181019050617922565b5085935050505092915050565b5f6080820190508181035f8301526179748187616bd6565b905081810360208301526179888186617900565b9050818103604083015261799c8185617900565b905081810360608301526179b08184616bd6565b905095945050505050565b5f81519050919050565b5f6179cf826179bb565b6179d98185617545565b93506179e9818560208601616e27565b80840191505092915050565b5f617a0082846179c5565b915081905092915050565b5f617a15826163b4565b9150617a20836163b4565b925082617a3057617a2f616ff3565b5b828206905092915050565b5f6060820190508181035f830152617a538186616bd6565b90508181036020830152617a678185616bd6565b9050617a76604083018461641d565b949350505050565b5f8115159050919050565b617a9281617a7e565b8114617a9c575f80fd5b50565b5f81519050617aad81617a89565b92915050565b5f60208284031215617ac857617ac7616483565b5b5f617ad584828501617a9f565b9150509291505056fea264697066735822122020bc3194ce17c8ebb9ff90728156b4bfa0b2115cc9fcea2680a6cb1f2feb1da264736f6c63430008190033",
  "linkReferences": {},
  "deployedLinkReferences": {}
}