{
  "_format": "hh-sol-artifact-1",
  "contractName": "StakingActivityChecker",
  "sourceName": "contracts/staking/StakingActivityChecker.sol",
  "abi": [
    {
      "inputs": [
        {
          "internalType": "uint256",
          "name": "_livenessRatio",
          "type": "uint256"
        }
      ],
      "stateMutability": "nonpayable",
      "type": "constructor"
    },
    {
      "inputs": [],
      "name": "ZeroValue",
      "type": "error"
    },
    {
      "inputs": [
        {
          "internalType": "address",
          "name": "multisig",
          "type": "address"
        }
      ],
      "name": "getMultisigNonces",
      "outputs": [
        {
          "internalType": "uint256[]",
          "name": "nonces",
          "type": "uint256[]"
        }
      ],
      "stateMutability": "view",
      "type": "function"
    },
    {
      "inputs": [
        {
          "internalType": "uint256[]",
          "name": "curNonces",
          "type": "uint256[]"
        },
        {
          "internalType": "uint256[]",
          "name": "lastNonces",
          "type": "uint256[]"
        },
        {
          "internalType": "uint256",
          "name": "ts",
          "type": "uint256"
        }
      ],
      "name": "isRatioPass",
      "outputs": [
        {
          "internalType": "bool",
          "name": "ratioPass",
          "type": "bool"
        }
      ],
      "stateMutability": "view",
      "type": "function"
    },
    {
      "inputs": [],
      "name": "livenessRatio",
      "outputs": [
        {
          "internalType": "uint256",
          "name": "",
          "type": "uint256"
        }
      ],
      "stateMutability": "view",
      "type": "function"
    }
  ],
  "bytecode": "0x60a060405234801561000f575f80fd5b50604051610aa5380380610aa583398181016040528101906100319190610168565b61004b676617e32766c05de060c01b61012e60201b60201c565b61006567393572870f5d11c360c01b61012e60201b60201c565b61007f674fa8983a662ce38360c01b61012e60201b60201c565b5f81036100ec576100a067f8862f112fc1c37b60c01b61012e60201b60201c565b6100ba6710985dfe55b6230560c01b61012e60201b60201c565b6040517f7c946ed700000000000000000000000000000000000000000000000000000000815260040160405180910390fd5b6101066722b5ab214252274760c01b61012e60201b60201c565b61012067bf7a83b0fdece21f60c01b61012e60201b60201c565b806080818152505050610193565b50565b5f80fd5b5f819050919050565b61014781610135565b8114610151575f80fd5b50565b5f815190506101628161013e565b92915050565b5f6020828403121561017d5761017c610131565b5b5f61018a84828501610154565b91505092915050565b6080516108f36101b25f395f81816101f8015261024001526108f35ff3fe608060405234801561000f575f80fd5b506004361061003f575f3560e01c8063184023a514610043578063592cf3fb14610073578063d564c4bf14610091575b5f80fd5b61005d60048036038101906100589190610514565b6100c1565b60405161006a91906105b6565b60405180910390f35b61007b61023e565b60405161008891906105de565b60405180910390f35b6100ab60048036038101906100a69190610651565b610262565b6040516100b89190610733565b60405180910390f35b5f6100d6676f33dac20b417b5060c01b61037d565b6100ea676e3ed5d349f45fea60c01b61037d565b6100fe67104827519a9ece8a60c01b61037d565b5f821180156101405750825f8151811061011b5761011a610753565b5b6020026020010151845f8151811061013657610135610753565b5b6020026020010151115b1561022257610159676663611cb4e9e81060c01b61037d565b61016d67ae1333aeb3151bec60c01b61037d565b610181678ef94676250915e560c01b61037d565b5f82670de0b6b3a7640000855f8151811061019f5761019e610753565b5b6020026020010151875f815181106101ba576101b9610753565b5b60200260200101516101cc91906107ad565b6101d691906107e0565b6101e0919061084e565b90506101f667a5c5448b1b08dda860c01b61037d565b7f0000000000000000000000000000000000000000000000000000000000000000811015915050610237565b610236671887c19c4d2321bd60c01b61037d565b5b9392505050565b7f000000000000000000000000000000000000000000000000000000000000000081565b60606102786799a0a35a65ec4e1760c01b61037d565b61028c67a002cddf2800b4fa60c01b61037d565b600167ffffffffffffffff8111156102a7576102a66103a5565b5b6040519080825280602002602001820160405280156102d55781602001602082028036833780820191505090505b5090506102ec6768a2cb81a442a2a860c01b61037d565b8173ffffffffffffffffffffffffffffffffffffffff1663affed0e06040518163ffffffff1660e01b8152600401602060405180830381865afa158015610335573d5f803e3d5ffd5b505050506040513d601f19601f820116820180604052508101906103599190610892565b815f8151811061036c5761036b610753565b5b602002602001018181525050919050565b50565b5f604051905090565b5f80fd5b5f80fd5b5f80fd5b5f601f19601f8301169050919050565b7f4e487b71000000000000000000000000000000000000000000000000000000005f52604160045260245ffd5b6103db82610395565b810181811067ffffffffffffffff821117156103fa576103f96103a5565b5b80604052505050565b5f61040c610380565b905061041882826103d2565b919050565b5f67ffffffffffffffff821115610437576104366103a5565b5b602082029050602081019050919050565b5f80fd5b5f819050919050565b61045e8161044c565b8114610468575f80fd5b50565b5f8135905061047981610455565b92915050565b5f61049161048c8461041d565b610403565b905080838252602082019050602084028301858111156104b4576104b3610448565b5b835b818110156104dd57806104c9888261046b565b8452602084019350506020810190506104b6565b5050509392505050565b5f82601f8301126104fb576104fa610391565b5b813561050b84826020860161047f565b91505092915050565b5f805f6060848603121561052b5761052a610389565b5b5f84013567ffffffffffffffff8111156105485761054761038d565b5b610554868287016104e7565b935050602084013567ffffffffffffffff8111156105755761057461038d565b5b610581868287016104e7565b92505060406105928682870161046b565b9150509250925092565b5f8115159050919050565b6105b08161059c565b82525050565b5f6020820190506105c95f8301846105a7565b92915050565b6105d88161044c565b82525050565b5f6020820190506105f15f8301846105cf565b92915050565b5f73ffffffffffffffffffffffffffffffffffffffff82169050919050565b5f610620826105f7565b9050919050565b61063081610616565b811461063a575f80fd5b50565b5f8135905061064b81610627565b92915050565b5f6020828403121561066657610665610389565b5b5f6106738482850161063d565b91505092915050565b5f81519050919050565b5f82825260208201905092915050565b5f819050602082019050919050565b6106ae8161044c565b82525050565b5f6106bf83836106a5565b60208301905092915050565b5f602082019050919050565b5f6106e18261067c565b6106eb8185610686565b93506106f683610696565b805f5b8381101561072657815161070d88826106b4565b9750610718836106cb565b9250506001810190506106f9565b5085935050505092915050565b5f6020820190508181035f83015261074b81846106d7565b905092915050565b7f4e487b71000000000000000000000000000000000000000000000000000000005f52603260045260245ffd5b7f4e487b71000000000000000000000000000000000000000000000000000000005f52601160045260245ffd5b5f6107b78261044c565b91506107c28361044c565b92508282039050818111156107da576107d9610780565b5b92915050565b5f6107ea8261044c565b91506107f58361044c565b92508282026108038161044c565b9150828204841483151761081a57610819610780565b5b5092915050565b7f4e487b71000000000000000000000000000000000000000000000000000000005f52601260045260245ffd5b5f6108588261044c565b91506108638361044c565b92508261087357610872610821565b5b828204905092915050565b5f8151905061088c81610455565b92915050565b5f602082840312156108a7576108a6610389565b5b5f6108b48482850161087e565b9150509291505056fea2646970667358221220ed178373805dd9ab8d8d988f87a606f8e696e098d300b94afa16758ec2ced7bd64736f6c63430008190033",
  "linkReferences": {},
  "deployedLinkReferences": {}
}