{
  "_format": "hh-sol-artifact-1",
  "contractName": "StakingVerifier",
  "sourceName": "contracts/staking/StakingVerifier.sol",
  "abi": [
    {
      "inputs": [
        {
          "internalType": "address",
          "name": "_olas",
          "type": "address"
        },
        {
          "internalType": "uint256",
          "name": "_rewardsPerSecondLimit",
          "type": "uint256"
        },
        {
          "internalType": "uint256",
          "name": "_timeForEmissionsLimit",
          "type": "uint256"
        },
        {
          "internalType": "uint256",
          "name": "_numServicesLimit",
          "type": "uint256"
        }
      ],
      "stateMutability": "nonpayable",
      "type": "constructor"
    },
    {
      "inputs": [
        {
          "internalType": "address",
          "name": "sender",
          "type": "address"
        },
        {
          "internalType": "address",
          "name": "owner",
          "type": "address"
        }
      ],
      "name": "OwnerOnly",
      "type": "error"
    },
    {
      "inputs": [
        {
          "internalType": "uint256",
          "name": "numValues1",
          "type": "uint256"
        },
        {
          "internalType": "uint256",
          "name": "numValues2",
          "type": "uint256"
        }
      ],
      "name": "WrongArrayLength",
      "type": "error"
    },
    {
      "inputs": [],
      "name": "ZeroAddress",
      "type": "error"
    },
    {
      "inputs": [],
      "name": "ZeroValue",
      "type": "error"
    },
    {
      "anonymous": false,
      "inputs": [
        {
          "indexed": false,
          "internalType": "address[]",
          "name": "implementations",
          "type": "address[]"
        },
        {
          "indexed": false,
          "internalType": "bool[]",
          "name": "statuses",
          "type": "bool[]"
        },
        {
          "indexed": false,
          "internalType": "bool",
          "name": "setCheck",
          "type": "bool"
        }
      ],
      "name": "ImplementationsWhitelistUpdated",
      "type": "event"
    },
    {
      "anonymous": false,
      "inputs": [
        {
          "indexed": true,
          "internalType": "address",
          "name": "owner",
          "type": "address"
        }
      ],
      "name": "OwnerUpdated",
      "type": "event"
    },
    {
      "anonymous": false,
      "inputs": [
        {
          "indexed": false,
          "internalType": "bool",
          "name": "setCheck",
          "type": "bool"
        }
      ],
      "name": "SetImplementationsCheck",
      "type": "event"
    },
    {
      "anonymous": false,
      "inputs": [
        {
          "indexed": false,
          "internalType": "uint256",
          "name": "rewardsPerSecondLimit",
          "type": "uint256"
        },
        {
          "indexed": false,
          "internalType": "uint256",
          "name": "timeForEmissionsLimit",
          "type": "uint256"
        },
        {
          "indexed": false,
          "internalType": "uint256",
          "name": "_numServicesLimit",
          "type": "uint256"
        }
      ],
      "name": "StakingLimitsUpdated",
      "type": "event"
    },
    {
      "inputs": [
        {
          "internalType": "address",
          "name": "newOwner",
          "type": "address"
        }
      ],
      "name": "changeOwner",
      "outputs": [],
      "stateMutability": "nonpayable",
      "type": "function"
    },
    {
      "inputs": [
        {
          "internalType": "uint256",
          "name": "_rewardsPerSecondLimit",
          "type": "uint256"
        },
        {
          "internalType": "uint256",
          "name": "_timeForEmissionsLimit",
          "type": "uint256"
        },
        {
          "internalType": "uint256",
          "name": "_numServicesLimit",
          "type": "uint256"
        }
      ],
      "name": "changeStakingLimits",
      "outputs": [],
      "stateMutability": "nonpayable",
      "type": "function"
    },
    {
      "inputs": [],
      "name": "emissionsLimit",
      "outputs": [
        {
          "internalType": "uint256",
          "name": "",
          "type": "uint256"
        }
      ],
      "stateMutability": "view",
      "type": "function"
    },
    {
      "inputs": [
        {
          "internalType": "address",
          "name": "",
          "type": "address"
        }
      ],
      "name": "getEmissionsAmountLimit",
      "outputs": [
        {
          "internalType": "uint256",
          "name": "",
          "type": "uint256"
        }
      ],
      "stateMutability": "view",
      "type": "function"
    },
    {
      "inputs": [],
      "name": "implementationsCheck",
      "outputs": [
        {
          "internalType": "bool",
          "name": "",
          "type": "bool"
        }
      ],
      "stateMutability": "view",
      "type": "function"
    },
    {
      "inputs": [
        {
          "internalType": "address",
          "name": "",
          "type": "address"
        }
      ],
      "name": "mapImplementations",
      "outputs": [
        {
          "internalType": "bool",
          "name": "",
          "type": "bool"
        }
      ],
      "stateMutability": "view",
      "type": "function"
    },
    {
      "inputs": [],
      "name": "numServicesLimit",
      "outputs": [
        {
          "internalType": "uint256",
          "name": "",
          "type": "uint256"
        }
      ],
      "stateMutability": "view",
      "type": "function"
    },
    {
      "inputs": [],
      "name": "olas",
      "outputs": [
        {
          "internalType": "address",
          "name": "",
          "type": "address"
        }
      ],
      "stateMutability": "view",
      "type": "function"
    },
    {
      "inputs": [],
      "name": "owner",
      "outputs": [
        {
          "internalType": "address",
          "name": "",
          "type": "address"
        }
      ],
      "stateMutability": "view",
      "type": "function"
    },
    {
      "inputs": [],
      "name": "rewardsPerSecondLimit",
      "outputs": [
        {
          "internalType": "uint256",
          "name": "",
          "type": "uint256"
        }
      ],
      "stateMutability": "view",
      "type": "function"
    },
    {
      "inputs": [
        {
          "internalType": "bool",
          "name": "setCheck",
          "type": "bool"
        }
      ],
      "name": "setImplementationsCheck",
      "outputs": [],
      "stateMutability": "nonpayable",
      "type": "function"
    },
    {
      "inputs": [
        {
          "internalType": "address[]",
          "name": "implementations",
          "type": "address[]"
        },
        {
          "internalType": "bool[]",
          "name": "statuses",
          "type": "bool[]"
        },
        {
          "internalType": "bool",
          "name": "setCheck",
          "type": "bool"
        }
      ],
      "name": "setImplementationsStatuses",
      "outputs": [],
      "stateMutability": "nonpayable",
      "type": "function"
    },
    {
      "inputs": [],
      "name": "timeForEmissionsLimit",
      "outputs": [
        {
          "internalType": "uint256",
          "name": "",
          "type": "uint256"
        }
      ],
      "stateMutability": "view",
      "type": "function"
    },
    {
      "inputs": [
        {
          "internalType": "address",
          "name": "implementation",
          "type": "address"
        }
      ],
      "name": "verifyImplementation",
      "outputs": [
        {
          "internalType": "bool",
          "name": "",
          "type": "bool"
        }
      ],
      "stateMutability": "view",
      "type": "function"
    },
    {
      "inputs": [
        {
          "internalType": "address",
          "name": "instance",
          "type": "address"
        },
        {
          "internalType": "address",
          "name": "implementation",
          "type": "address"
        }
      ],
      "name": "verifyInstance",
      "outputs": [
        {
          "internalType": "bool",
          "name": "",
          "type": "bool"
        }
      ],
      "stateMutability": "view",
      "type": "function"
    }
  ],
  "bytecode": "0x60a060405234801561000f575f80fd5b506040516125243803806125248339818101604052810190610031919061043b565b61004b670d13409cf43c364a60c01b61039d60201b60201c565b6100656787b6836a7e25057260c01b61039d60201b60201c565b61007f676cd4b74b842328d360c01b61039d60201b60201c565b5f73ffffffffffffffffffffffffffffffffffffffff168473ffffffffffffffffffffffffffffffffffffffff1603610118576100cc670344c16acdda23ab60c01b61039d60201b60201c565b6100e667ae2bfe0b5c5c06bd60c01b61039d60201b60201c565b6040517fd92e233d00000000000000000000000000000000000000000000000000000000815260040160405180910390fd5b61013267c91e57fb17aacadc60c01b61039d60201b60201c565b61014c67536892b654b8c8b960c01b61039d60201b60201c565b610166670a1586c67047fc9260c01b61039d60201b60201c565b5f8314801561018b575061018a671dff6d36bf9e800460c01b6103a060201b60201c565b5b806101d957505f821480156101b657506101b567c11c9a78ddd715f060c01b6103a060201b60201c565b5b80156101d857506101d7677461adc3912d78bc60c01b6103a060201b60201c565b5b5b8061020557505f81148015610204575061020367f285e1860954549a60c01b6103a060201b60201c565b5b5b156102705761022467e2d83bbecc34359e60c01b61039d60201b60201c565b61023e67653dd02d93cfa09b60c01b61039d60201b60201c565b6040517f7c946ed700000000000000000000000000000000000000000000000000000000815260040160405180910390fd5b61028a6769c11a56f0f502ea60c01b61039d60201b60201c565b6102a46759031267406ba14f60c01b61039d60201b60201c565b3360045f6101000a81548173ffffffffffffffffffffffffffffffffffffffff021916908373ffffffffffffffffffffffffffffffffffffffff1602179055506102fe672419df72eb08377260c01b61039d60201b60201c565b8373ffffffffffffffffffffffffffffffffffffffff1660808173ffffffffffffffffffffffffffffffffffffffff168152505061034c67424affd2ecc1f7e760c01b61039d60201b60201c565b825f8190555061036c67acfd4d9d1b5f59ee60c01b61039d60201b60201c565b8160018190555061038d67860e17e693b2153460c01b61039d60201b60201c565b806002819055505050505061049f565b50565b5f60019050919050565b5f80fd5b5f73ffffffffffffffffffffffffffffffffffffffff82169050919050565b5f6103d7826103ae565b9050919050565b6103e7816103cd565b81146103f1575f80fd5b50565b5f81519050610402816103de565b92915050565b5f819050919050565b61041a81610408565b8114610424575f80fd5b50565b5f8151905061043581610411565b92915050565b5f805f8060808587031215610453576104526103aa565b5b5f610460878288016103f4565b945050602061047187828801610427565b935050604061048287828801610427565b925050606061049387828801610427565b91505092959194509250565b6080516120666104be5f395f81816102fa0152610d3901526120665ff3fe608060405234801561000f575f80fd5b50600436106100f2575f3560e01c80638da5cb5b11610095578063a6f9dae111610064578063a6f9dae114610284578063c4468418146102a0578063c78c050e146102bc578063fcf7684e146102da576100f2565b80638da5cb5b146101fc57806396324ed61461021a5780639ac28fa01461024a5780639ce0588514610268576100f2565b80631aa402f0116100d15780631aa402f014610160578063387867841461017e578063517c0a8f146101ae57806369be670b146101cc576100f2565b806231d115146100f65780630bea55ed146101145780630d93650c14610130575b5f80fd5b6100fe6102f8565b60405161010b91906117cc565b60405180910390f35b61012e60048036038101906101299190611a65565b61031c565b005b61014a60048036038101906101459190611aed565b61078f565b6040516101579190611b27565b60405180910390f35b6101686107ac565b6040516101759190611b58565b60405180910390f35b61019860048036038101906101939190611aed565b6107b2565b6040516101a59190611b58565b60405180910390f35b6101b66107f9565b6040516101c39190611b58565b60405180910390f35b6101e660048036038101906101e19190611b71565b6107ff565b6040516101f39190611b27565b60405180910390f35b610204610e89565b60405161021191906117cc565b60405180910390f35b610234600480360381019061022f9190611aed565b610eae565b6040516102419190611b27565b60405180910390f35b610252610fd3565b60405161025f9190611b58565b60405180910390f35b610282600480360381019061027d9190611bd9565b610fd9565b005b61029e60048036038101906102999190611aed565b6112f5565b005b6102ba60048036038101906102b59190611c29565b6115ac565b005b6102c4611768565b6040516102d19190611b58565b60405180910390f35b6102e261176d565b6040516102ef9190611b27565b60405180910390f35b7f000000000000000000000000000000000000000000000000000000000000000081565b610330677375bfe55af913b260c01b611780565b61034467ffb5ba81b93671d360c01b611780565b610358672d3d7384dae38e3860c01b611780565b3373ffffffffffffffffffffffffffffffffffffffff1660045f9054906101000a900473ffffffffffffffffffffffffffffffffffffffff1673ffffffffffffffffffffffffffffffffffffffff1614610434576103c0673ef0679946c5685060c01b611780565b6103d467476a88cee60045ee60c01b611780565b60045f9054906101000a900473ffffffffffffffffffffffffffffffffffffffff16336040517fa43d6ada00000000000000000000000000000000000000000000000000000000815260040161042b929190611c54565b60405180910390fd5b610448676c79f4b6ac3257c160c01b611780565b61045c67780ed26c49f68b2560c01b611780565b610470678451087d7d0fe9a460c01b611780565b5f8351148015610490575061048f67340a7ca2659a7a6960c01b611783565b5b806104b9575081518351141580156104b857506104b767f41c0ed44d7703c460c01b611783565b5b5b15610527576104d267ae0a990be03e21b260c01b611780565b6104e667bacb8f8e872ef94d60c01b611780565b825182516040517f8151c11000000000000000000000000000000000000000000000000000000000815260040161051e929190611c7b565b60405180910390fd5b61053b67a5427920c6c2994c60c01b611780565b61054f67aa3b6638eda1330e60c01b611780565b80600460146101000a81548160ff02191690831515021790555061057d677bd84e54f13a7acd60c01b611780565b6105916715471ef1caf549f160c01b611780565b5f5b8351811015610726576105b067864dc87f687e52e960c01b611780565b6105c4671a99e3b1570184ef60c01b611780565b5f73ffffffffffffffffffffffffffffffffffffffff168482815181106105ee576105ed611ca2565b5b602002602001015173ffffffffffffffffffffffffffffffffffffffff160361066b57610625677f54e7ff63e5c25360c01b611780565b61063967dcfebfe98e42651160c01b611780565b6040517fd92e233d00000000000000000000000000000000000000000000000000000000815260040160405180910390fd5b61067f6736a9fa14ff02783e60c01b611780565b61069367a891d69f5540587860c01b611780565b8281815181106106a6576106a5611ca2565b5b602002602001015160055f8684815181106106c4576106c3611ca2565b5b602002602001015173ffffffffffffffffffffffffffffffffffffffff1673ffffffffffffffffffffffffffffffffffffffff1681526020019081526020015f205f6101000a81548160ff021916908315150217905550806001019050610593565b5061073b677bcd0d17ecfc65e560c01b611780565b61074f67e6661dd6682a80e260c01b611780565b7fa75993bdbe9ad771324babfee934d208587d3321632d15aa92547ee71226354183838360405161078293929190611e3d565b60405180910390a1505050565b6005602052805f5260405f205f915054906101000a900460ff1681565b60035481565b5f6107c76714ba3b5ada50c53460c01b611780565b6107db6707a695a074e9807760c01b611780565b6107ef672177c2c958e06f9360c01b611780565b6003549050919050565b60025481565b5f6108146743cf799d6dc9319c60c01b611780565b6108286783f0e752805db33160c01b611780565b61083c67bd2b86c710ec0b2760c01b611780565b600460149054906101000a900460ff16801561089f575060055f8373ffffffffffffffffffffffffffffffffffffffff1673ffffffffffffffffffffffffffffffffffffffff1681526020019081526020015f205f9054906101000a900460ff16155b156108e8576108b867d82aacb069b31b3c60c01b611780565b6108cc6731f1bd80fabee08d60c01b611780565b6108e0672892b8266957969460c01b611780565b5f9050610e83565b6108fc6745fcdd22907b921960c01b611780565b61091067ddd041cc38594c6960c01b611780565b61092467d7f2d53ed002985060c01b611780565b5f8373ffffffffffffffffffffffffffffffffffffffff1663eacdaabc6040518163ffffffff1660e01b8152600401602060405180830381865afa15801561096e573d5f803e3d5ffd5b505050506040513d601f19601f820116820180604052508101906109929190611e94565b90506109a8670c7908f456c8a18260c01b611780565b6109bc67fea7f6fcd913d75660c01b611780565b5f54811115610a0a576109d967fc496929db9d7b8760c01b611780565b6109ed67ba4043642f1c823360c01b611780565b610a0167308bdf0d626df8a360c01b611780565b5f915050610e83565b610a1e67e3227a4cc4fd020260c01b611780565b610a3267169f9288db1a859560c01b611780565b610a4667bf1dc149c5f7270060c01b611780565b5f8473ffffffffffffffffffffffffffffffffffffffff166316a751726040518163ffffffff1660e01b8152600401602060405180830381865afa158015610a90573d5f803e3d5ffd5b505050506040513d601f19601f82011682018060405250810190610ab49190611e94565b9050610aca670c383c91d4ae813660c01b611780565b610ade671e1129511e2bc12860c01b611780565b600254811115610b2e57610afc6722ba4091f2ae5ce160c01b611780565b610b1067cd7ba8f5f7e03eb560c01b611780565b610b2467f711c4c18ad1bebf60c01b611780565b5f92505050610e83565b610b42677db2ef22cc66089860c01b611780565b610b5667f52a6ec4f534556c60c01b611780565b610b6a6740b4e4f85740fde260c01b611780565b5f6040516024016040516020818303038152906040526372f702f360e01b6020820180517bffffffffffffffffffffffffffffffffffffffffffffffffffffffff83818316178352505050509050610bcc676282b70467108f5e60c01b611780565b610be0679fd92cc394743bb860c01b611780565b5f808773ffffffffffffffffffffffffffffffffffffffff1683604051610c079190611f11565b5f60405180830381855afa9150503d805f8114610c3f576040519150601f19603f3d011682016040523d82523d5f602084013e610c44565b606091505b5091509150610c5d6768ee84644a6c73fd60c01b611780565b610c71672e52ceace2933d4360c01b611780565b8115610e3c57610c8b67819c7761de3e2dc960c01b611780565b610c9f675472d366479f868160c01b611780565b610cb36766273d43399e1fb560c01b611780565b6020815103610dee57610cd06706e4bcc14882f89160c01b611780565b610ce467cf76fc5aca2422a060c01b611780565b610cf8673d53a1ffd3a1809d60c01b611780565b5f81806020019051810190610d0d9190611f62565b9050610d2367edfa5a4e7b7f163e60c01b611780565b610d3767690d878bb8c0d29860c01b611780565b7f000000000000000000000000000000000000000000000000000000000000000073ffffffffffffffffffffffffffffffffffffffff168173ffffffffffffffffffffffffffffffffffffffff1614610dd457610d9e6708ce3ed579f421d760c01b611780565b610db267e1850164fd049b6660c01b611780565b610dc667358916f4788ea6ce60c01b611780565b5f9650505050505050610e83565b610de867be90dc6783599a4160c01b611780565b50610e37565b610e0267e750aad98f7f5dfc60c01b611780565b610e1667fdaa4d06cb5f5a2b60c01b611780565b610e2a6755fdeaffbe49e0d160c01b611780565b5f95505050505050610e83565b610e51565b610e50672f008dc1a6da549060c01b611780565b5b610e6567b5b07b87502783d160c01b611780565b610e796746b48992119327f260c01b611780565b6001955050505050505b92915050565b60045f9054906101000a900473ffffffffffffffffffffffffffffffffffffffff1681565b5f610ec367ed725ea424a3e97d60c01b611780565b610ed767a4531557b178eb2160c01b611780565b610eeb67eb9137e12e7ad4fe60c01b611780565b600460149054906101000a900460ff1615610f8d57610f146772cb56d82ffc0e3960c01b611780565b610f2867bcaf5b217513185160c01b611780565b610f3c6743719cbce32d7cea60c01b611780565b60055f8373ffffffffffffffffffffffffffffffffffffffff1673ffffffffffffffffffffffffffffffffffffffff1681526020019081526020015f205f9054906101000a900460ff169050610fce565b610fa167e728d59071c6fbc960c01b611780565b610fb567738e6c2faab353a960c01b611780565b610fc9671044e46d8be328dd60c01b611780565b600190505b919050565b60015481565b610fed672782bcf54d00285460c01b611780565b611001670631414817c0ad0360c01b611780565b6110156706dc54ecc7fc7e5f60c01b611780565b3373ffffffffffffffffffffffffffffffffffffffff1660045f9054906101000a900473ffffffffffffffffffffffffffffffffffffffff1673ffffffffffffffffffffffffffffffffffffffff16146110f15761107d67196a92c64b66569060c01b611780565b611091673c0c2eec77ea968060c01b611780565b60045f9054906101000a900473ffffffffffffffffffffffffffffffffffffffff16336040517fa43d6ada0000000000000000000000000000000000000000000000000000000081526004016110e8929190611c54565b60405180910390fd5b611105676ebe60643fed7b0d60c01b611780565b61111967470ec7c1cf08fb2660c01b611780565b61112d67c217319e149c943960c01b611780565b5f8314801561114c575061114b67de49ac4ef3a0c29e60c01b611783565b5b8061118e57505f82148015611171575061117067df01c00359d3111a60c01b611783565b5b801561118d575061118c67aecfa198be44aa1f60c01b611783565b5b5b806111b457505f811480156111b357506111b267a80609f34d218e5060c01b611783565b5b5b15611213576111cd67bbfaee01191217a860c01b611780565b6111e167c3e8343ab513be4660c01b611780565b6040517f7c946ed700000000000000000000000000000000000000000000000000000000815260040160405180910390fd5b611227678b1b790b374860f860c01b611780565b61123b679934714f7601d6f660c01b611780565b825f8190555061125567cfbe11e00a22fb2460c01b611780565b81600181905550611270672d67745a518a8b7960c01b611780565b80828461127d9190611fba565b6112879190611fba565b6003819055506112a167a469493910190afb60c01b611780565b6112b56792bae9068b4036ba60c01b611780565b7fcf0821634b30ea47aecd3debe34ba015bf7ee9734d798897999d5e3f66efe68a8383836040516112e893929190611ffb565b60405180910390a1505050565b611309679bd97f9afab0fb2d60c01b611780565b61131d6784fb3588a0e6c90360c01b611780565b611331677c53292eeac93b6760c01b611780565b60045f9054906101000a900473ffffffffffffffffffffffffffffffffffffffff1673ffffffffffffffffffffffffffffffffffffffff163373ffffffffffffffffffffffffffffffffffffffff161461140d5761139967cc5ba243d7e37e0460c01b611780565b6113ad67c9ce24b4f31570b160c01b611780565b3360045f9054906101000a900473ffffffffffffffffffffffffffffffffffffffff166040517fa43d6ada000000000000000000000000000000000000000000000000000000008152600401611404929190611c54565b60405180910390fd5b61142167ab4edd938ffde25660c01b611780565b61143567dfc96c8bf3aa91e460c01b611780565b61144967e699f32107e906b260c01b611780565b5f73ffffffffffffffffffffffffffffffffffffffff168173ffffffffffffffffffffffffffffffffffffffff16036114d65761149067d73700aedba8ad6560c01b611780565b6114a4672f4d538e75cebfb360c01b611780565b6040517fd92e233d00000000000000000000000000000000000000000000000000000000815260040160405180910390fd5b6114ea678e5c3ef54515f99160c01b611780565b6114fe67dced26d92b0073f860c01b611780565b8060045f6101000a81548173ffffffffffffffffffffffffffffffffffffffff021916908373ffffffffffffffffffffffffffffffffffffffff16021790555061155267e24ca53964f565bc60c01b611780565b61156667653b1e7819a06eb560c01b611780565b8073ffffffffffffffffffffffffffffffffffffffff167f4ffd725fc4a22075e9ec71c59edf9c38cdeb588a91b24fc5b61388c5be41282b60405160405180910390a250565b6115c06780be1bd8246caebb60c01b611780565b6115d46762028f20b16a13b060c01b611780565b6115e8673b45abfa70eea65660c01b611780565b3373ffffffffffffffffffffffffffffffffffffffff1660045f9054906101000a900473ffffffffffffffffffffffffffffffffffffffff1673ffffffffffffffffffffffffffffffffffffffff16146116c457611650670e807aa1de9d6b7360c01b611780565b61166467757ff547825de25760c01b611780565b60045f9054906101000a900473ffffffffffffffffffffffffffffffffffffffff16336040517fa43d6ada0000000000000000000000000000000000000000000000000000000081526004016116bb929190611c54565b60405180910390fd5b6116d8674c46420e5635e9d060c01b611780565b6116ec6711f1b3728754ce2760c01b611780565b80600460146101000a81548160ff02191690831515021790555061171a674ed4f631fac4936460c01b611780565b61172e6755f200595159f14760c01b611780565b7fdc17e046a4e55c5445deae0e2503d60b1ce5ecce83a0dc62c9066bbc7f39db568160405161175d9190611b27565b60405180910390a150565b5f5481565b600460149054906101000a900460ff1681565b50565b5f60019050919050565b5f73ffffffffffffffffffffffffffffffffffffffff82169050919050565b5f6117b68261178d565b9050919050565b6117c6816117ac565b82525050565b5f6020820190506117df5f8301846117bd565b92915050565b5f604051905090565b5f80fd5b5f80fd5b5f80fd5b5f601f19601f8301169050919050565b7f4e487b71000000000000000000000000000000000000000000000000000000005f52604160045260245ffd5b611840826117fa565b810181811067ffffffffffffffff8211171561185f5761185e61180a565b5b80604052505050565b5f6118716117e5565b905061187d8282611837565b919050565b5f67ffffffffffffffff82111561189c5761189b61180a565b5b602082029050602081019050919050565b5f80fd5b6118ba816117ac565b81146118c4575f80fd5b50565b5f813590506118d5816118b1565b92915050565b5f6118ed6118e884611882565b611868565b905080838252602082019050602084028301858111156119105761190f6118ad565b5b835b81811015611939578061192588826118c7565b845260208401935050602081019050611912565b5050509392505050565b5f82601f830112611957576119566117f6565b5b81356119678482602086016118db565b91505092915050565b5f67ffffffffffffffff82111561198a5761198961180a565b5b602082029050602081019050919050565b5f8115159050919050565b6119af8161199b565b81146119b9575f80fd5b50565b5f813590506119ca816119a6565b92915050565b5f6119e26119dd84611970565b611868565b90508083825260208201905060208402830185811115611a0557611a046118ad565b5b835b81811015611a2e5780611a1a88826119bc565b845260208401935050602081019050611a07565b5050509392505050565b5f82601f830112611a4c57611a4b6117f6565b5b8135611a5c8482602086016119d0565b91505092915050565b5f805f60608486031215611a7c57611a7b6117ee565b5b5f84013567ffffffffffffffff811115611a9957611a986117f2565b5b611aa586828701611943565b935050602084013567ffffffffffffffff811115611ac657611ac56117f2565b5b611ad286828701611a38565b9250506040611ae3868287016119bc565b9150509250925092565b5f60208284031215611b0257611b016117ee565b5b5f611b0f848285016118c7565b91505092915050565b611b218161199b565b82525050565b5f602082019050611b3a5f830184611b18565b92915050565b5f819050919050565b611b5281611b40565b82525050565b5f602082019050611b6b5f830184611b49565b92915050565b5f8060408385031215611b8757611b866117ee565b5b5f611b94858286016118c7565b9250506020611ba5858286016118c7565b9150509250929050565b611bb881611b40565b8114611bc2575f80fd5b50565b5f81359050611bd381611baf565b92915050565b5f805f60608486031215611bf057611bef6117ee565b5b5f611bfd86828701611bc5565b9350506020611c0e86828701611bc5565b9250506040611c1f86828701611bc5565b9150509250925092565b5f60208284031215611c3e57611c3d6117ee565b5b5f611c4b848285016119bc565b91505092915050565b5f604082019050611c675f8301856117bd565b611c7460208301846117bd565b9392505050565b5f604082019050611c8e5f830185611b49565b611c9b6020830184611b49565b9392505050565b7f4e487b71000000000000000000000000000000000000000000000000000000005f52603260045260245ffd5b5f81519050919050565b5f82825260208201905092915050565b5f819050602082019050919050565b611d01816117ac565b82525050565b5f611d128383611cf8565b60208301905092915050565b5f602082019050919050565b5f611d3482611ccf565b611d3e8185611cd9565b9350611d4983611ce9565b805f5b83811015611d79578151611d608882611d07565b9750611d6b83611d1e565b925050600181019050611d4c565b5085935050505092915050565b5f81519050919050565b5f82825260208201905092915050565b5f819050602082019050919050565b611db88161199b565b82525050565b5f611dc98383611daf565b60208301905092915050565b5f602082019050919050565b5f611deb82611d86565b611df58185611d90565b9350611e0083611da0565b805f5b83811015611e30578151611e178882611dbe565b9750611e2283611dd5565b925050600181019050611e03565b5085935050505092915050565b5f6060820190508181035f830152611e558186611d2a565b90508181036020830152611e698185611de1565b9050611e786040830184611b18565b949350505050565b5f81519050611e8e81611baf565b92915050565b5f60208284031215611ea957611ea86117ee565b5b5f611eb684828501611e80565b91505092915050565b5f81519050919050565b5f81905092915050565b8281835e5f83830152505050565b5f611eeb82611ebf565b611ef58185611ec9565b9350611f05818560208601611ed3565b80840191505092915050565b5f611f1c8284611ee1565b915081905092915050565b5f611f318261178d565b9050919050565b611f4181611f27565b8114611f4b575f80fd5b50565b5f81519050611f5c81611f38565b92915050565b5f60208284031215611f7757611f766117ee565b5b5f611f8484828501611f4e565b91505092915050565b7f4e487b71000000000000000000000000000000000000000000000000000000005f52601160045260245ffd5b5f611fc482611b40565b9150611fcf83611b40565b9250828202611fdd81611b40565b91508282048414831517611ff457611ff3611f8d565b5b5092915050565b5f60608201905061200e5f830186611b49565b61201b6020830185611b49565b6120286040830184611b49565b94935050505056fea2646970667358221220a0b816a162f14014fb662487348e9e773fe7c409f41673630335a266a0730eb264736f6c63430008190033",
  "linkReferences": {},
  "deployedLinkReferences": {}
}