{
  "_format": "hh-sol-artifact-1",
  "contractName": "StakingFactory",
  "sourceName": "contracts/staking/StakingFactory.sol",
  "abi": [
    {
      "inputs": [
        {
          "internalType": "address",
          "name": "_verifier",
          "type": "address"
        }
      ],
      "stateMutability": "nonpayable",
      "type": "constructor"
    },
    {
      "inputs": [
        {
          "internalType": "address",
          "name": "implementation",
          "type": "address"
        }
      ],
      "name": "ContractOnly",
      "type": "error"
    },
    {
      "inputs": [
        {
          "internalType": "uint256",
          "name": "expected",
          "type": "uint256"
        },
        {
          "internalType": "uint256",
          "name": "provided",
          "type": "uint256"
        }
      ],
      "name": "IncorrectDataLength",
      "type": "error"
    },
    {
      "inputs": [
        {
          "internalType": "address",
          "name": "instance",
          "type": "address"
        }
      ],
      "name": "InitializationFailed",
      "type": "error"
    },
    {
      "inputs": [
        {
          "internalType": "address",
          "name": "sender",
          "type": "address"
        },
        {
          "internalType": "address",
          "name": "owner",
          "type": "address"
        }
      ],
      "name": "OwnerOnly",
      "type": "error"
    },
    {
      "inputs": [
        {
          "internalType": "address",
          "name": "implementation",
          "type": "address"
        }
      ],
      "name": "ProxyCreationFailed",
      "type": "error"
    },
    {
      "inputs": [],
      "name": "ReentrancyGuard",
      "type": "error"
    },
    {
      "inputs": [
        {
          "internalType": "address",
          "name": "implementation",
          "type": "address"
        }
      ],
      "name": "UnverifiedImplementation",
      "type": "error"
    },
    {
      "inputs": [
        {
          "internalType": "address",
          "name": "instance",
          "type": "address"
        }
      ],
      "name": "UnverifiedProxy",
      "type": "error"
    },
    {
      "inputs": [],
      "name": "ZeroAddress",
      "type": "error"
    },
    {
      "anonymous": false,
      "inputs": [
        {
          "indexed": true,
          "internalType": "address",
          "name": "sender",
          "type": "address"
        },
        {
          "indexed": true,
          "internalType": "address",
          "name": "instance",
          "type": "address"
        },
        {
          "indexed": true,
          "internalType": "address",
          "name": "implementation",
          "type": "address"
        }
      ],
      "name": "InstanceCreated",
      "type": "event"
    },
    {
      "anonymous": false,
      "inputs": [
        {
          "indexed": true,
          "internalType": "address",
          "name": "owner",
          "type": "address"
        }
      ],
      "name": "OwnerUpdated",
      "type": "event"
    },
    {
      "anonymous": false,
      "inputs": [
        {
          "indexed": true,
          "internalType": "address",
          "name": "verifier",
          "type": "address"
        }
      ],
      "name": "VerifierUpdated",
      "type": "event"
    },
    {
      "inputs": [],
      "name": "SELECTOR_DATA_LENGTH",
      "outputs": [
        {
          "internalType": "uint256",
          "name": "",
          "type": "uint256"
        }
      ],
      "stateMutability": "view",
      "type": "function"
    },
    {
      "inputs": [
        {
          "internalType": "address",
          "name": "newOwner",
          "type": "address"
        }
      ],
      "name": "changeOwner",
      "outputs": [],
      "stateMutability": "nonpayable",
      "type": "function"
    },
    {
      "inputs": [
        {
          "internalType": "address",
          "name": "newVerifier",
          "type": "address"
        }
      ],
      "name": "changeVerifier",
      "outputs": [],
      "stateMutability": "nonpayable",
      "type": "function"
    },
    {
      "inputs": [
        {
          "internalType": "address",
          "name": "implementation",
          "type": "address"
        },
        {
          "internalType": "bytes",
          "name": "initPayload",
          "type": "bytes"
        }
      ],
      "name": "createStakingInstance",
      "outputs": [
        {
          "internalType": "address payable",
          "name": "instance",
          "type": "address"
        }
      ],
      "stateMutability": "nonpayable",
      "type": "function"
    },
    {
      "inputs": [
        {
          "internalType": "address",
          "name": "implementation",
          "type": "address"
        }
      ],
      "name": "getProxyAddress",
      "outputs": [
        {
          "internalType": "address",
          "name": "",
          "type": "address"
        }
      ],
      "stateMutability": "view",
      "type": "function"
    },
    {
      "inputs": [
        {
          "internalType": "address",
          "name": "implementation",
          "type": "address"
        },
        {
          "internalType": "uint256",
          "name": "localNonce",
          "type": "uint256"
        }
      ],
      "name": "getProxyAddressWithNonce",
      "outputs": [
        {
          "internalType": "address",
          "name": "",
          "type": "address"
        }
      ],
      "stateMutability": "view",
      "type": "function"
    },
    {
      "inputs": [
        {
          "internalType": "address",
          "name": "",
          "type": "address"
        }
      ],
      "name": "mapInstanceParams",
      "outputs": [
        {
          "internalType": "address",
          "name": "implementation",
          "type": "address"
        },
        {
          "internalType": "address",
          "name": "deployer",
          "type": "address"
        },
        {
          "internalType": "bool",
          "name": "isEnabled",
          "type": "bool"
        }
      ],
      "stateMutability": "view",
      "type": "function"
    },
    {
      "inputs": [],
      "name": "nonce",
      "outputs": [
        {
          "internalType": "uint256",
          "name": "",
          "type": "uint256"
        }
      ],
      "stateMutability": "view",
      "type": "function"
    },
    {
      "inputs": [],
      "name": "owner",
      "outputs": [
        {
          "internalType": "address",
          "name": "",
          "type": "address"
        }
      ],
      "stateMutability": "view",
      "type": "function"
    },
    {
      "inputs": [
        {
          "internalType": "address",
          "name": "instance",
          "type": "address"
        },
        {
          "internalType": "bool",
          "name": "isEnabled",
          "type": "bool"
        }
      ],
      "name": "setInstanceStatus",
      "outputs": [],
      "stateMutability": "nonpayable",
      "type": "function"
    },
    {
      "inputs": [],
      "name": "verifier",
      "outputs": [
        {
          "internalType": "address",
          "name": "",
          "type": "address"
        }
      ],
      "stateMutability": "view",
      "type": "function"
    },
    {
      "inputs": [
        {
          "internalType": "address",
          "name": "instance",
          "type": "address"
        }
      ],
      "name": "verifyInstance",
      "outputs": [
        {
          "internalType": "bool",
          "name": "",
          "type": "bool"
        }
      ],
      "stateMutability": "view",
      "type": "function"
    },
    {
      "inputs": [
        {
          "internalType": "address",
          "name": "instance",
          "type": "address"
        }
      ],
      "name": "verifyInstanceAndGetEmissionsAmount",
      "outputs": [
        {
          "internalType": "uint256",
          "name": "amount",
          "type": "uint256"
        }
      ],
      "stateMutability": "view",
      "type": "function"
    }
  ],
  "bytecode": "0x60806040526001600355348015610014575f80fd5b50604051612c8b380380612c8b8339818101604052810190610036919061016b565b61005067fd21d56588162c7260c01b61010a60201b60201c565b61006a671b086fb4c5ae202260c01b61010a60201b60201c565b3360015f6101000a81548173ffffffffffffffffffffffffffffffffffffffff021916908373ffffffffffffffffffffffffffffffffffffffff1602179055506100c46710e076686f34eac560c01b61010a60201b60201c565b8060025f6101000a81548173ffffffffffffffffffffffffffffffffffffffff021916908373ffffffffffffffffffffffffffffffffffffffff16021790555050610196565b50565b5f80fd5b5f73ffffffffffffffffffffffffffffffffffffffff82169050919050565b5f61013a82610111565b9050919050565b61014a81610130565b8114610154575f80fd5b50565b5f8151905061016581610141565b92915050565b5f602082840312156101805761017f61010d565b5b5f61018d84828501610157565b91505092915050565b612ae8806101a35f395ff3fe608060405234801561000f575f80fd5b50600436106100dd575f3560e01c80638da5cb5b1161008a578063cf04fb9411610064578063cf04fb9414610221578063e8dc705a1461023d578063ec2ee1f61461026f578063fa2a5b011461029f576100dd565b80638da5cb5b146101c9578063a6f9dae1146101e7578063affed0e014610203576100dd565b80633ce3778c116100bb5780633ce3778c1461014b578063479e372e14610169578063555b8adb14610199576100dd565b8063118e24bd146100e15780631eda94d7146100fd5780632b7ac3f31461012d575b5f80fd5b6100fb60048036038101906100f69190611f86565b6102cf565b005b61011760048036038101906101129190611fc4565b6104a5565b6040516101249190612007565b60405180910390f35b6101356107c3565b604051610142919061202f565b60405180910390f35b6101536107e8565b6040516101609190612007565b60405180910390f35b610183600480360381019061017e9190611fc4565b6107ed565b6040516101909190612057565b60405180910390f35b6101b360048036038101906101ae919061209a565b610bb6565b6040516101c0919061202f565b60405180910390f35b6101d1610d3e565b6040516101de919061202f565b60405180910390f35b61020160048036038101906101fc9190611fc4565b610d63565b005b61020b61101a565b6040516102189190612007565b60405180910390f35b61023b60048036038101906102369190611fc4565b61101f565b005b61025760048036038101906102529190611fc4565b61120d565b604051610266939291906120d8565b60405180910390f35b61028960048036038101906102849190612249565b61127e565b60405161029691906122c3565b60405180910390f35b6102b960048036038101906102b49190611fc4565b611e87565b6040516102c6919061202f565b60405180910390f35b6102e367582bd2ab9873494960c01b611ed6565b6102f7673d7e2ae64d68f04660c01b611ed6565b61030b679112631eb23efc9960c01b611ed6565b5f60045f8473ffffffffffffffffffffffffffffffffffffffff1673ffffffffffffffffffffffffffffffffffffffff1681526020019081526020015f20905061035f67626cbaf508e1250b60c01b611ed6565b610373675e2e9618c11b6db960c01b611ed6565b5f816001015f9054906101000a900473ffffffffffffffffffffffffffffffffffffffff1690506103ad667a6e39121d54f960c01b611ed6565b6103c167526a43269b15bd4660c01b611ed6565b8073ffffffffffffffffffffffffffffffffffffffff163373ffffffffffffffffffffffffffffffffffffffff161461045b5761040867fb20614bd3d94d1f60c01b611ed6565b61041c672306f9faa4f6769860c01b611ed6565b33816040517fa43d6ada0000000000000000000000000000000000000000000000000000000081526004016104529291906122dc565b60405180910390fd5b61046f675c2d4d293630f78660c01b611ed6565b610483676ec70c4bd701e12260c01b611ed6565b828260010160146101000a81548160ff02191690831515021790555050505050565b5f6104ba6795bda76deb41442a60c01b611ed6565b6104ce6792975c8e4602ae3560c01b611ed6565b6104e267c3c9651f866c8ec560c01b611ed6565b5f6104ec836107ed565b9050610502673645c4ca4d19736260c01b611ed6565b610516672aed90b62db6286160c01b611ed6565b80156107a85761053067fa61b3a0977a9f7a60c01b611ed6565b61054467038abd1c1baaa67360c01b611ed6565b8273ffffffffffffffffffffffffffffffffffffffff1663957323616040518163ffffffff1660e01b8152600401602060405180830381865afa15801561058d573d5f803e3d5ffd5b505050506040513d601f19601f820116820180604052508101906105b19190612317565b91506105c7673d6f38e5fdd62be860c01b611ed6565b6105db677f53c5ba94fca08e60c01b611ed6565b5f60025f9054906101000a900473ffffffffffffffffffffffffffffffffffffffff1690506106146708f35844afa52c2660c01b611ed6565b61062867d36c8f8fb52abded60c01b611ed6565b5f73ffffffffffffffffffffffffffffffffffffffff168173ffffffffffffffffffffffffffffffffffffffff161461078d5761066f671ce0b3395318612c60c01b611ed6565b610683676032f4ed0b42630e60c01b611ed6565b61069767d5f3aeff31d250c260c01b611ed6565b5f8173ffffffffffffffffffffffffffffffffffffffff166338786784866040518263ffffffff1660e01b81526004016106d1919061202f565b602060405180830381865afa1580156106ec573d5f803e3d5ffd5b505050506040513d601f19601f820116820180604052508101906107109190612317565b9050610726670bdd58e6a8266cec60c01b611ed6565b61073a67bae17d209961007760c01b611ed6565b808411156107725761075667222d55ca74019b2760c01b611ed6565b61076a6771f6a4c882d6b3d260c01b611ed6565b809350610787565b610786679471e2cffb26c92560c01b611ed6565b5b506107a2565b6107a167eef484cf6760982360c01b611ed6565b5b506107bd565b6107bc67a64bd5f6ec2dd2e360c01b611ed6565b5b50919050565b60025f9054906101000a900473ffffffffffffffffffffffffffffffffffffffff1681565b600481565b5f61080267d46602c3a2150e3960c01b611ed6565b6108166742f46e31a6c3a4dd60c01b611ed6565b61082a679e45a6baa15e4f9f60c01b611ed6565b5f60045f8473ffffffffffffffffffffffffffffffffffffffff1673ffffffffffffffffffffffffffffffffffffffff1681526020019081526020015f20905061087e67fb8e3abad17c81da60c01b611ed6565b6108926749322304837e21aa60c01b611ed6565b5f815f015f9054906101000a900473ffffffffffffffffffffffffffffffffffffffff1690506108cc6707ecbaa2b061be6760c01b611ed6565b6108e06739ab7f2351511d4160c01b611ed6565b5f73ffffffffffffffffffffffffffffffffffffffff168173ffffffffffffffffffffffffffffffffffffffff16036109595761092767e2da24bd62fabce160c01b611ed6565b61093b67c6b43d22fa6c7c6960c01b611ed6565b61094f67099c816c157160ef60c01b611ed6565b5f92505050610bb1565b61096d671bf0a36f2a68b94760c01b611ed6565b61098167f13b5a225793cb7760c01b611ed6565b6109956770204cf8346f753e60c01b611ed6565b8160010160149054906101000a900460ff166109f1576109bf67b0ae93d25ed9eac660c01b611ed6565b6109d3675cbf1614b1c61ddc60c01b611ed6565b6109e767ec23eb85b917a72860c01b611ed6565b5f92505050610bb1565b610a05675c957b948f7cd7ad60c01b611ed6565b610a196799e944c29b3f8c8860c01b611ed6565b610a2d675c841a30b6453dce60c01b611ed6565b5f60025f9054906101000a900473ffffffffffffffffffffffffffffffffffffffff169050610a6667c1791841a12f551d60c01b611ed6565b610a7a67184ddd736beaafac60c01b611ed6565b5f73ffffffffffffffffffffffffffffffffffffffff168173ffffffffffffffffffffffffffffffffffffffff1614610b6d57610ac167de0d6c736bae68dc60c01b611ed6565b610ad567db9a6d364db16dad60c01b611ed6565b610ae9672c1361f73881c0fc60c01b611ed6565b8073ffffffffffffffffffffffffffffffffffffffff166369be670b86846040518363ffffffff1660e01b8152600401610b249291906122dc565b602060405180830381865afa158015610b3f573d5f803e3d5ffd5b505050506040513d601f19601f82011682018060405250810190610b639190612356565b9350505050610bb1565b610b816714adb1b8fcae0de960c01b611ed6565b610b95672e9c7487a9ae8a8360c01b611ed6565b610ba967c9c3022ba8c3c35560c01b611ed6565b600193505050505b919050565b5f610bcb672621d4a952c5277260c01b611ed6565b610bdf67a43ff0a7501d279d60c01b611ed6565b610bf3676e99f5670233074960c01b611ed6565b5f4683604051602001610c079291906123a1565b604051602081830303815290604052805190602001209050610c3367df3d6dc3046bd57060c01b611ed6565b610c47678822c701543919e360c01b611ed6565b5f60405180602001610c5890611ed9565b6020820181038252601f19601f820116604052508573ffffffffffffffffffffffffffffffffffffffff16604051602001610c9492919061241e565b6040516020818303038152906040529050610cb9674dafc9dbc4cc5bef60c01b611ed6565b610ccd677a64c925f411a13c60c01b611ed6565b5f60ff60f81b30848480519060200120604051602001610cf094939291906124fe565b604051602081830303815290604052805190602001209050610d1c674623efe18a4b21c260c01b611ed6565b610d3067940bd6ee2ae6f67d60c01b611ed6565b805f1c935050505092915050565b60015f9054906101000a900473ffffffffffffffffffffffffffffffffffffffff1681565b610d7767b49d284d13d0e62560c01b611ed6565b610d8b679265fe093b04d14f60c01b611ed6565b610d9f67a81030f97ce77e4060c01b611ed6565b60015f9054906101000a900473ffffffffffffffffffffffffffffffffffffffff1673ffffffffffffffffffffffffffffffffffffffff163373ffffffffffffffffffffffffffffffffffffffff1614610e7b57610e0767cf088e236a31def260c01b611ed6565b610e1b672ac19f9ab27b313a60c01b611ed6565b3360015f9054906101000a900473ffffffffffffffffffffffffffffffffffffffff166040517fa43d6ada000000000000000000000000000000000000000000000000000000008152600401610e729291906122dc565b60405180910390fd5b610e8f672bda87b9b82e3eca60c01b611ed6565b610ea367364c009ab0f6a98c60c01b611ed6565b610eb76711586d69acb2836260c01b611ed6565b5f73ffffffffffffffffffffffffffffffffffffffff168173ffffffffffffffffffffffffffffffffffffffff1603610f4457610efe673c8898d27b56bb9460c01b611ed6565b610f1267378170239b8cb52160c01b611ed6565b6040517fd92e233d00000000000000000000000000000000000000000000000000000000815260040160405180910390fd5b610f586735930ba42bbdbbf360c01b611ed6565b610f6c678f6c20d82d3e8cfc60c01b611ed6565b8060015f6101000a81548173ffffffffffffffffffffffffffffffffffffffff021916908373ffffffffffffffffffffffffffffffffffffffff160217905550610fc067fb19d16c41d443f660c01b611ed6565b610fd467c03391965587ee2c60c01b611ed6565b8073ffffffffffffffffffffffffffffffffffffffff167f4ffd725fc4a22075e9ec71c59edf9c38cdeb588a91b24fc5b61388c5be41282b60405160405180910390a250565b5f5481565b61103367735b7b58ff6b619260c01b611ed6565b61104767f8bff70f60dfda9460c01b611ed6565b61105b679abebf90918d118060c01b611ed6565b60015f9054906101000a900473ffffffffffffffffffffffffffffffffffffffff1673ffffffffffffffffffffffffffffffffffffffff163373ffffffffffffffffffffffffffffffffffffffff1614611137576110c36764141ac085e865b660c01b611ed6565b6110d767d4ac7ce42cdbc72060c01b611ed6565b3360015f9054906101000a900473ffffffffffffffffffffffffffffffffffffffff166040517fa43d6ada00000000000000000000000000000000000000000000000000000000815260040161112e9291906122dc565b60405180910390fd5b61114b6741e48316d5d5f9f560c01b611ed6565b61115f67f8e6fd4f17eda5f960c01b611ed6565b8060025f6101000a81548173ffffffffffffffffffffffffffffffffffffffff021916908373ffffffffffffffffffffffffffffffffffffffff1602179055506111b367798a75e2d34cf57d60c01b611ed6565b6111c767d76fb1d7f3cc7f5360c01b611ed6565b8073ffffffffffffffffffffffffffffffffffffffff167fd24015cc99cc1700cafca3042840a1d8ac1e3964fd2e0e37ea29c654056ee32760405160405180910390a250565b6004602052805f5260405f205f91509050805f015f9054906101000a900473ffffffffffffffffffffffffffffffffffffffff1690806001015f9054906101000a900473ffffffffffffffffffffffffffffffffffffffff16908060010160149054906101000a900460ff16905083565b5f6112936730f959e65d7e4e9260c01b611ed6565b6112a7676e73604683a56a5e60c01b611ed6565b6112bb67f69109dbf69d170560c01b611ed6565b60016003541115611320576112da67b2d87e39487646fe60c01b611ed6565b6112ee6798ceb750cc72cdea60c01b611ed6565b6040517f8beb9d1600000000000000000000000000000000000000000000000000000000815260040160405180910390fd5b611334675bbe333bfce61f2d60c01b611ed6565b61134867885fcc6fb30a24f660c01b611ed6565b600260038190555061136467641c567b0815310a60c01b611ed6565b61137867c4884a38d8a828d360c01b611ed6565b5f73ffffffffffffffffffffffffffffffffffffffff168373ffffffffffffffffffffffffffffffffffffffff1603611405576113bf67504cccf765a0641b60c01b611ed6565b6113d367141ac290bf36477e60c01b611ed6565b6040517fd92e233d00000000000000000000000000000000000000000000000000000000815260040160405180910390fd5b6114196721faa9186a012f7260c01b611ed6565b61142d675f625e2b914b9e1460c01b611ed6565b6114416785f75b0e4459b3c460c01b611ed6565b5f8373ffffffffffffffffffffffffffffffffffffffff163b036114c45761147367d5ed5c954c3e695f60c01b611ed6565b611487674e8c5340e631b67d60c01b611ed6565b826040517f601c0c210000000000000000000000000000000000000000000000000000000081526004016114bb919061202f565b60405180910390fd5b6114d867660a47d20ae488bc60c01b611ed6565b6114ec67093e3ca2356a7bc860c01b611ed6565b61150067ba71e1913687544d60c01b611ed6565b6004825110156115735761151e67ee582a2c6b4a758260c01b611ed6565b6115326735a31133426b328b60c01b611ed6565b815160046040517f34c9027a00000000000000000000000000000000000000000000000000000000815260040161156a92919061254b565b60405180910390fd5b61158767fa0218edab9049ab60c01b611ed6565b61159b67bce195a32631c21e60c01b611ed6565b6115af67ba5c5bdaa2ae453660c01b611ed6565b5f60025f9054906101000a900473ffffffffffffffffffffffffffffffffffffffff1690506115e8677673fe0a02e0228c60c01b611ed6565b6115fc6730b2a1be318e4cb760c01b611ed6565b5f73ffffffffffffffffffffffffffffffffffffffff168173ffffffffffffffffffffffffffffffffffffffff16141580156116ad57508073ffffffffffffffffffffffffffffffffffffffff166396324ed6856040518263ffffffff1660e01b815260040161166c919061202f565b602060405180830381865afa158015611687573d5f803e3d5ffd5b505050506040513d601f19601f820116820180604052508101906116ab9190612356565b155b15611717576116c667150e926a55f1113f60c01b611ed6565b6116da67975f49f9190a37f560c01b611ed6565b836040517ff7de8e7400000000000000000000000000000000000000000000000000000000815260040161170e919061202f565b60405180910390fd5b61172b670683c2f65c51286c60c01b611ed6565b61173f67cc3bba45c98a995e60c01b611ed6565b61175367346a31e88b27683760c01b611ed6565b5f8054905061176c6709946e0a267bdae160c01b611ed6565b61178067d8a875941aa626a060c01b611ed6565b5f46826040516020016117949291906123a1565b6040516020818303038152906040528051906020012090506117c0673f53926d3ddebfac60c01b611ed6565b6117d4676fe5362a7c0cb78a60c01b611ed6565b5f604051806020016117e590611ed9565b6020820181038252601f19601f820116604052508773ffffffffffffffffffffffffffffffffffffffff1660405160200161182192919061241e565b60405160208183030381529060405290506118466704a19f1a74bed53560c01b611ed6565b818151826020015ff594506118656759ec206d647307d360c01b611ed6565b611879673edae882cea4302460c01b611ed6565b5f73ffffffffffffffffffffffffffffffffffffffff168573ffffffffffffffffffffffffffffffffffffffff1603611911576118c06728b6b8600b2f930760c01b611ed6565b6118d467ee749969e938155d60c01b611ed6565b866040517f5384bd7a000000000000000000000000000000000000000000000000000000008152600401611908919061202f565b60405180910390fd5b61192567666c0360c92ee87f60c01b611ed6565b61193967d861497f5f25bbcd60c01b611ed6565b61194d67fd7b9adfe8b7c04660c01b611ed6565b5f808673ffffffffffffffffffffffffffffffffffffffff16886040516119749190612572565b5f604051808303815f865af19150503d805f81146119ad576040519150601f19603f3d011682016040523d82523d5f602084013e6119b2565b606091505b50915091506119cb678b08a500a1c280a760c01b611ed6565b6119df677f97ca45e45c7d0260c01b611ed6565b81611abe576119f8675694ba9f73e3ab6660c01b611ed6565b611a0c67b6843843ea885bda60c01b611ed6565b611a1f66dc7a333287d1d260c01b611ed6565b5f81511115611a5957611a3c678e693478f63011be60c01b611ed6565b611a50675431633348fc92cc60c01b611ed6565b80518082602001fd5b611a6d676fb6e729dc709fc160c01b611ed6565b611a8167d39345aa93ef271360c01b611ed6565b866040517ff1324f24000000000000000000000000000000000000000000000000000000008152600401611ab591906125e3565b60405180910390fd5b611ad267438a48c4a16fdffd60c01b611ed6565b611ae667274cda67eae97dc960c01b611ed6565b611afa67f26f2e63c1b5097960c01b611ed6565b5f73ffffffffffffffffffffffffffffffffffffffff168673ffffffffffffffffffffffffffffffffffffffff1614158015611bad57508573ffffffffffffffffffffffffffffffffffffffff166369be670b888b6040518363ffffffff1660e01b8152600401611b6c9291906125fc565b602060405180830381865afa158015611b87573d5f803e3d5ffd5b505050506040513d601f19601f82011682018060405250810190611bab9190612356565b155b15611c1757611bc667971c07fba15a87ff60c01b611ed6565b611bda67963bd1afc123d75f60c01b611ed6565b866040517f29fc9abc000000000000000000000000000000000000000000000000000000008152600401611c0e91906125e3565b60405180910390fd5b611c2b67666e9b2ac844f9fa60c01b611ed6565b611c3f67ae1c1354b92b711660c01b611ed6565b611c5367631d5e7bb5d7ace060c01b611ed6565b5f60405180606001604052808b73ffffffffffffffffffffffffffffffffffffffff1681526020013373ffffffffffffffffffffffffffffffffffffffff168152602001600115158152509050611cb467b1506cca8e7d93ed60c01b611ed6565b8060045f8a73ffffffffffffffffffffffffffffffffffffffff1673ffffffffffffffffffffffffffffffffffffffff1681526020019081526020015f205f820151815f015f6101000a81548173ffffffffffffffffffffffffffffffffffffffff021916908373ffffffffffffffffffffffffffffffffffffffff1602179055506020820151816001015f6101000a81548173ffffffffffffffffffffffffffffffffffffffff021916908373ffffffffffffffffffffffffffffffffffffffff16021790555060408201518160010160146101000a81548160ff021916908315150217905550905050611db3675a7c1e188ce6760460c01b611ed6565b600186611dc09190612650565b5f81905550611dd9672b4557321db00f4160c01b611ed6565b611ded675f31cf5207cb7fad60c01b611ed6565b8973ffffffffffffffffffffffffffffffffffffffff168873ffffffffffffffffffffffffffffffffffffffff163373ffffffffffffffffffffffffffffffffffffffff167fc88bd7cfbe8bae024ebb6f3cf291adfd7db2588a07e1c78768ea3c81b992496b60405160405180910390a4611e7267873cd36d71c0ad7060c01b611ed6565b60016003819055505050505050505092915050565b5f611e9c67ef3105e7129ea64d60c01b611ed6565b611eb067ed35b7a363997d9360c01b611ed6565b611ec467b0adec97cb79aaf260c01b611ed6565b611ecf825f54610bb6565b9050919050565b50565b61042f8061268483390190565b5f604051905090565b5f80fd5b5f80fd5b5f73ffffffffffffffffffffffffffffffffffffffff82169050919050565b5f611f2082611ef7565b9050919050565b611f3081611f16565b8114611f3a575f80fd5b50565b5f81359050611f4b81611f27565b92915050565b5f8115159050919050565b611f6581611f51565b8114611f6f575f80fd5b50565b5f81359050611f8081611f5c565b92915050565b5f8060408385031215611f9c57611f9b611eef565b5b5f611fa985828601611f3d565b9250506020611fba85828601611f72565b9150509250929050565b5f60208284031215611fd957611fd8611eef565b5b5f611fe684828501611f3d565b91505092915050565b5f819050919050565b61200181611fef565b82525050565b5f60208201905061201a5f830184611ff8565b92915050565b61202981611f16565b82525050565b5f6020820190506120425f830184612020565b92915050565b61205181611f51565b82525050565b5f60208201905061206a5f830184612048565b92915050565b61207981611fef565b8114612083575f80fd5b50565b5f8135905061209481612070565b92915050565b5f80604083850312156120b0576120af611eef565b5b5f6120bd85828601611f3d565b92505060206120ce85828601612086565b9150509250929050565b5f6060820190506120eb5f830186612020565b6120f86020830185612020565b6121056040830184612048565b949350505050565b5f80fd5b5f80fd5b5f601f19601f8301169050919050565b7f4e487b71000000000000000000000000000000000000000000000000000000005f52604160045260245ffd5b61215b82612115565b810181811067ffffffffffffffff8211171561217a57612179612125565b5b80604052505050565b5f61218c611ee6565b90506121988282612152565b919050565b5f67ffffffffffffffff8211156121b7576121b6612125565b5b6121c082612115565b9050602081019050919050565b828183375f83830152505050565b5f6121ed6121e88461219d565b612183565b90508281526020810184848401111561220957612208612111565b5b6122148482856121cd565b509392505050565b5f82601f8301126122305761222f61210d565b5b81356122408482602086016121db565b91505092915050565b5f806040838503121561225f5761225e611eef565b5b5f61226c85828601611f3d565b925050602083013567ffffffffffffffff81111561228d5761228c611ef3565b5b6122998582860161221c565b9150509250929050565b5f6122ad82611ef7565b9050919050565b6122bd816122a3565b82525050565b5f6020820190506122d65f8301846122b4565b92915050565b5f6040820190506122ef5f830185612020565b6122fc6020830184612020565b9392505050565b5f8151905061231181612070565b92915050565b5f6020828403121561232c5761232b611eef565b5b5f61233984828501612303565b91505092915050565b5f8151905061235081611f5c565b92915050565b5f6020828403121561236b5761236a611eef565b5b5f61237884828501612342565b91505092915050565b5f819050919050565b61239b61239682611fef565b612381565b82525050565b5f6123ac828561238a565b6020820191506123bc828461238a565b6020820191508190509392505050565b5f81519050919050565b5f81905092915050565b8281835e5f83830152505050565b5f6123f8826123cc565b61240281856123d6565b93506124128185602086016123e0565b80840191505092915050565b5f61242982856123ee565b9150612435828461238a565b6020820191508190509392505050565b5f7fff0000000000000000000000000000000000000000000000000000000000000082169050919050565b5f819050919050565b61248a61248582612445565b612470565b82525050565b5f8160601b9050919050565b5f6124a682612490565b9050919050565b5f6124b78261249c565b9050919050565b6124cf6124ca82611f16565b6124ad565b82525050565b5f819050919050565b5f819050919050565b6124f86124f3826124d5565b6124de565b82525050565b5f6125098287612479565b60018201915061251982866124be565b60148201915061252982856124e7565b60208201915061253982846124e7565b60208201915081905095945050505050565b5f60408201905061255e5f830185611ff8565b61256b6020830184611ff8565b9392505050565b5f61257d82846123ee565b915081905092915050565b5f819050919050565b5f6125ab6125a66125a184611ef7565b612588565b611ef7565b9050919050565b5f6125bc82612591565b9050919050565b5f6125cd826125b2565b9050919050565b6125dd816125c3565b82525050565b5f6020820190506125f65f8301846125d4565b92915050565b5f60408201905061260f5f8301856125d4565b61261c6020830184612020565b9392505050565b7f4e487b71000000000000000000000000000000000000000000000000000000005f52601160045260245ffd5b5f61265a82611fef565b915061266583611fef565b925082820190508082111561267d5761267c612623565b5b9291505056fe608060405234801561000f575f80fd5b5060405161042f38038061042f833981810160405281019061003191906101d6565b61004b67f1438357a26e54b260c01b61017560201b60201c565b61006567cf3a8e6b545f3e4d60c01b61017560201b60201c565b61007f67a090e59a352d549660c01b61017560201b60201c565b5f73ffffffffffffffffffffffffffffffffffffffff168173ffffffffffffffffffffffffffffffffffffffff1603610118576100cc675c4699eae03f26b160c01b61017560201b60201c565b6100e6671fd1cbad23643b0060c01b61017560201b60201c565b6040517fd02c623d00000000000000000000000000000000000000000000000000000000815260040160405180910390fd5b61013267ff5510b4ae228f7660c01b61017560201b60201c565b61014c678240a54cbbae5b6b60c01b61017560201b60201c565b807f9e5e169c1098011e4e5940a3ec1797686b2a8294a9b77a4c676b121bdc0ebb5e5550610201565b50565b5f80fd5b5f73ffffffffffffffffffffffffffffffffffffffff82169050919050565b5f6101a58261017c565b9050919050565b6101b58161019b565b81146101bf575f80fd5b50565b5f815190506101d0816101ac565b92915050565b5f602082840312156101eb576101ea610178565b5b5f6101f8848285016101c2565b91505092915050565b6102218061020e5f395ff3fe60806040526004361061002c575f3560e01c806346032dbc14610095578063aaf10f42146100bf5761002d565b5b6100416730413254b8cc5be860c01b6100e9565b6100556784e12936d3e373af60c01b6100e9565b7f9e5e169c1098011e4e5940a3ec1797686b2a8294a9b77a4c676b121bdc0ebb5e54365f80375f80365f845af43d5f803e5f8103610091573d5ffd5b3d5ff35b3480156100a0575f80fd5b506100a96100ec565b6040516100b6919061017a565b60405180910390f35b3480156100ca575f80fd5b506100d3610112565b6040516100e091906101d2565b60405180910390f35b50565b7f9e5e169c1098011e4e5940a3ec1797686b2a8294a9b77a4c676b121bdc0ebb5e5f1b81565b5f61012767662a0f1a51a76a6e60c01b6100e9565b61013b673db142b314fa8ccb60c01b6100e9565b7f9e5e169c1098011e4e5940a3ec1797686b2a8294a9b77a4c676b121bdc0ebb5e54905090565b5f819050919050565b61017481610162565b82525050565b5f60208201905061018d5f83018461016b565b92915050565b5f73ffffffffffffffffffffffffffffffffffffffff82169050919050565b5f6101bc82610193565b9050919050565b6101cc816101b2565b82525050565b5f6020820190506101e55f8301846101c3565b9291505056fea264697066735822122002233fc03104850f63da42cd99af989d2919895a62f2685f538ab825dd6c9dca64736f6c63430008190033a2646970667358221220fe47d9a1c87bbb925f5030a2315dec52029c2d2d87d5e8aeed8b4c6c2835d3a164736f6c63430008190033",
  "linkReferences": {},
  "deployedLinkReferences": {}
}