{
  "_format": "hh-sol-artifact-1",
  "contractName": "StakingNativeToken",
  "sourceName": "contracts/staking/StakingNativeToken.sol",
  "abi": [
    {
      "inputs": [],
      "name": "AlreadyInitialized",
      "type": "error"
    },
    {
      "inputs": [
        {
          "internalType": "address",
          "name": "activityChecker",
          "type": "address"
        }
      ],
      "name": "ContractOnly",
      "type": "error"
    },
    {
      "inputs": [
        {
          "internalType": "uint256",
          "name": "provided",
          "type": "uint256"
        },
        {
          "internalType": "uint256",
          "name": "expected",
          "type": "uint256"
        }
      ],
      "name": "LowerThan",
      "type": "error"
    },
    {
      "inputs": [
        {
          "internalType": "uint256",
          "name": "maxNumServices",
          "type": "uint256"
        }
      ],
      "name": "MaxNumServicesReached",
      "type": "error"
    },
    {
      "inputs": [],
      "name": "NoRewardsAvailable",
      "type": "error"
    },
    {
      "inputs": [
        {
          "internalType": "uint256",
          "name": "serviceId",
          "type": "uint256"
        },
        {
          "internalType": "uint256",
          "name": "tsProvided",
          "type": "uint256"
        },
        {
          "internalType": "uint256",
          "name": "tsExpected",
          "type": "uint256"
        }
      ],
      "name": "NotEnoughTimeStaked",
      "type": "error"
    },
    {
      "inputs": [
        {
          "internalType": "address",
          "name": "sender",
          "type": "address"
        },
        {
          "internalType": "address",
          "name": "owner",
          "type": "address"
        }
      ],
      "name": "OwnerOnly",
      "type": "error"
    },
    {
      "inputs": [
        {
          "internalType": "uint256",
          "name": "serviceId",
          "type": "uint256"
        }
      ],
      "name": "ServiceNotUnstaked",
      "type": "error"
    },
    {
      "inputs": [
        {
          "internalType": "address",
          "name": "token",
          "type": "address"
        },
        {
          "internalType": "address",
          "name": "from",
          "type": "address"
        },
        {
          "internalType": "address",
          "name": "to",
          "type": "address"
        },
        {
          "internalType": "uint256",
          "name": "value",
          "type": "uint256"
        }
      ],
      "name": "TransferFailed",
      "type": "error"
    },
    {
      "inputs": [
        {
          "internalType": "address",
          "name": "multisig",
          "type": "address"
        }
      ],
      "name": "UnauthorizedMultisig",
      "type": "error"
    },
    {
      "inputs": [
        {
          "internalType": "uint256",
          "name": "agentId",
          "type": "uint256"
        }
      ],
      "name": "WrongAgentId",
      "type": "error"
    },
    {
      "inputs": [
        {
          "internalType": "uint256",
          "name": "serviceId",
          "type": "uint256"
        }
      ],
      "name": "WrongServiceConfiguration",
      "type": "error"
    },
    {
      "inputs": [
        {
          "internalType": "uint256",
          "name": "state",
          "type": "uint256"
        },
        {
          "internalType": "uint256",
          "name": "serviceId",
          "type": "uint256"
        }
      ],
      "name": "WrongServiceState",
      "type": "error"
    },
    {
      "inputs": [],
      "name": "ZeroAddress",
      "type": "error"
    },
    {
      "inputs": [],
      "name": "ZeroValue",
      "type": "error"
    },
    {
      "anonymous": false,
      "inputs": [
        {
          "indexed": true,
          "internalType": "uint256",
          "name": "epoch",
          "type": "uint256"
        },
        {
          "indexed": false,
          "internalType": "uint256",
          "name": "availableRewards",
          "type": "uint256"
        },
        {
          "indexed": false,
          "internalType": "uint256[]",
          "name": "serviceIds",
          "type": "uint256[]"
        },
        {
          "indexed": false,
          "internalType": "uint256[]",
          "name": "rewards",
          "type": "uint256[]"
        },
        {
          "indexed": false,
          "internalType": "uint256",
          "name": "epochLength",
          "type": "uint256"
        }
      ],
      "name": "Checkpoint",
      "type": "event"
    },
    {
      "anonymous": false,
      "inputs": [
        {
          "indexed": true,
          "internalType": "address",
          "name": "sender",
          "type": "address"
        },
        {
          "indexed": false,
          "internalType": "uint256",
          "name": "amount",
          "type": "uint256"
        },
        {
          "indexed": false,
          "internalType": "uint256",
          "name": "balance",
          "type": "uint256"
        },
        {
          "indexed": false,
          "internalType": "uint256",
          "name": "availableRewards",
          "type": "uint256"
        }
      ],
      "name": "Deposit",
      "type": "event"
    },
    {
      "anonymous": false,
      "inputs": [
        {
          "indexed": false,
          "internalType": "uint256",
          "name": "epoch",
          "type": "uint256"
        },
        {
          "indexed": true,
          "internalType": "uint256",
          "name": "serviceId",
          "type": "uint256"
        },
        {
          "indexed": true,
          "internalType": "address",
          "name": "owner",
          "type": "address"
        },
        {
          "indexed": true,
          "internalType": "address",
          "name": "multisig",
          "type": "address"
        },
        {
          "indexed": false,
          "internalType": "uint256[]",
          "name": "nonces",
          "type": "uint256[]"
        },
        {
          "indexed": false,
          "internalType": "uint256",
          "name": "reward",
          "type": "uint256"
        }
      ],
      "name": "RewardClaimed",
      "type": "event"
    },
    {
      "anonymous": false,
      "inputs": [
        {
          "indexed": false,
          "internalType": "uint256",
          "name": "epoch",
          "type": "uint256"
        },
        {
          "indexed": true,
          "internalType": "uint256",
          "name": "serviceId",
          "type": "uint256"
        },
        {
          "indexed": true,
          "internalType": "address",
          "name": "owner",
          "type": "address"
        },
        {
          "indexed": true,
          "internalType": "address",
          "name": "multisig",
          "type": "address"
        },
        {
          "indexed": false,
          "internalType": "uint256[]",
          "name": "nonces",
          "type": "uint256[]"
        },
        {
          "indexed": false,
          "internalType": "uint256",
          "name": "reward",
          "type": "uint256"
        },
        {
          "indexed": false,
          "internalType": "uint256",
          "name": "availableRewards",
          "type": "uint256"
        }
      ],
      "name": "ServiceForceUnstaked",
      "type": "event"
    },
    {
      "anonymous": false,
      "inputs": [
        {
          "indexed": false,
          "internalType": "uint256",
          "name": "epoch",
          "type": "uint256"
        },
        {
          "indexed": true,
          "internalType": "uint256",
          "name": "serviceId",
          "type": "uint256"
        },
        {
          "indexed": false,
          "internalType": "uint256",
          "name": "serviceInactivity",
          "type": "uint256"
        }
      ],
      "name": "ServiceInactivityWarning",
      "type": "event"
    },
    {
      "anonymous": false,
      "inputs": [
        {
          "indexed": false,
          "internalType": "uint256",
          "name": "epoch",
          "type": "uint256"
        },
        {
          "indexed": true,
          "internalType": "uint256",
          "name": "serviceId",
          "type": "uint256"
        },
        {
          "indexed": true,
          "internalType": "address",
          "name": "owner",
          "type": "address"
        },
        {
          "indexed": true,
          "internalType": "address",
          "name": "multisig",
          "type": "address"
        },
        {
          "indexed": false,
          "internalType": "uint256[]",
          "name": "nonces",
          "type": "uint256[]"
        }
      ],
      "name": "ServiceStaked",
      "type": "event"
    },
    {
      "anonymous": false,
      "inputs": [
        {
          "indexed": false,
          "internalType": "uint256",
          "name": "epoch",
          "type": "uint256"
        },
        {
          "indexed": true,
          "internalType": "uint256",
          "name": "serviceId",
          "type": "uint256"
        },
        {
          "indexed": true,
          "internalType": "address",
          "name": "owner",
          "type": "address"
        },
        {
          "indexed": true,
          "internalType": "address",
          "name": "multisig",
          "type": "address"
        },
        {
          "indexed": false,
          "internalType": "uint256[]",
          "name": "nonces",
          "type": "uint256[]"
        },
        {
          "indexed": false,
          "internalType": "uint256",
          "name": "reward",
          "type": "uint256"
        },
        {
          "indexed": false,
          "internalType": "uint256",
          "name": "availableRewards",
          "type": "uint256"
        }
      ],
      "name": "ServiceUnstaked",
      "type": "event"
    },
    {
      "anonymous": false,
      "inputs": [
        {
          "indexed": true,
          "internalType": "uint256",
          "name": "epoch",
          "type": "uint256"
        },
        {
          "indexed": false,
          "internalType": "uint256[]",
          "name": "serviceIds",
          "type": "uint256[]"
        },
        {
          "indexed": false,
          "internalType": "address[]",
          "name": "owners",
          "type": "address[]"
        },
        {
          "indexed": false,
          "internalType": "address[]",
          "name": "multisigs",
          "type": "address[]"
        },
        {
          "indexed": false,
          "internalType": "uint256[]",
          "name": "serviceInactivity",
          "type": "uint256[]"
        }
      ],
      "name": "ServicesEvicted",
      "type": "event"
    },
    {
      "anonymous": false,
      "inputs": [
        {
          "indexed": true,
          "internalType": "address",
          "name": "to",
          "type": "address"
        },
        {
          "indexed": false,
          "internalType": "uint256",
          "name": "amount",
          "type": "uint256"
        }
      ],
      "name": "Withdraw",
      "type": "event"
    },
    {
      "inputs": [],
      "name": "VERSION",
      "outputs": [
        {
          "internalType": "string",
          "name": "",
          "type": "string"
        }
      ],
      "stateMutability": "view",
      "type": "function"
    },
    {
      "inputs": [],
      "name": "activityChecker",
      "outputs": [
        {
          "internalType": "address",
          "name": "",
          "type": "address"
        }
      ],
      "stateMutability": "view",
      "type": "function"
    },
    {
      "inputs": [
        {
          "internalType": "uint256",
          "name": "",
          "type": "uint256"
        }
      ],
      "name": "agentIds",
      "outputs": [
        {
          "internalType": "uint256",
          "name": "",
          "type": "uint256"
        }
      ],
      "stateMutability": "view",
      "type": "function"
    },
    {
      "inputs": [],
      "name": "availableRewards",
      "outputs": [
        {
          "internalType": "uint256",
          "name": "",
          "type": "uint256"
        }
      ],
      "stateMutability": "view",
      "type": "function"
    },
    {
      "inputs": [],
      "name": "balance",
      "outputs": [
        {
          "internalType": "uint256",
          "name": "",
          "type": "uint256"
        }
      ],
      "stateMutability": "view",
      "type": "function"
    },
    {
      "inputs": [
        {
          "internalType": "uint256",
          "name": "serviceId",
          "type": "uint256"
        }
      ],
      "name": "calculateStakingLastReward",
      "outputs": [
        {
          "internalType": "uint256",
          "name": "reward",
          "type": "uint256"
        }
      ],
      "stateMutability": "view",
      "type": "function"
    },
    {
      "inputs": [
        {
          "internalType": "uint256",
          "name": "serviceId",
          "type": "uint256"
        }
      ],
      "name": "calculateStakingReward",
      "outputs": [
        {
          "internalType": "uint256",
          "name": "reward",
          "type": "uint256"
        }
      ],
      "stateMutability": "view",
      "type": "function"
    },
    {
      "inputs": [],
      "name": "checkpoint",
      "outputs": [
        {
          "internalType": "uint256[]",
          "name": "",
          "type": "uint256[]"
        },
        {
          "internalType": "uint256[]",
          "name": "",
          "type": "uint256[]"
        },
        {
          "internalType": "uint256[]",
          "name": "",
          "type": "uint256[]"
        },
        {
          "internalType": "uint256[]",
          "name": "evictServiceIds",
          "type": "uint256[]"
        }
      ],
      "stateMutability": "nonpayable",
      "type": "function"
    },
    {
      "inputs": [
        {
          "internalType": "uint256",
          "name": "serviceId",
          "type": "uint256"
        }
      ],
      "name": "checkpointAndClaim",
      "outputs": [
        {
          "internalType": "uint256",
          "name": "",
          "type": "uint256"
        }
      ],
      "stateMutability": "nonpayable",
      "type": "function"
    },
    {
      "inputs": [
        {
          "internalType": "uint256",
          "name": "serviceId",
          "type": "uint256"
        }
      ],
      "name": "claim",
      "outputs": [
        {
          "internalType": "uint256",
          "name": "",
          "type": "uint256"
        }
      ],
      "stateMutability": "nonpayable",
      "type": "function"
    },
    {
      "inputs": [],
      "name": "configHash",
      "outputs": [
        {
          "internalType": "bytes32",
          "name": "",
          "type": "bytes32"
        }
      ],
      "stateMutability": "view",
      "type": "function"
    },
    {
      "inputs": [],
      "name": "emissionsAmount",
      "outputs": [
        {
          "internalType": "uint256",
          "name": "",
          "type": "uint256"
        }
      ],
      "stateMutability": "view",
      "type": "function"
    },
    {
      "inputs": [],
      "name": "epochCounter",
      "outputs": [
        {
          "internalType": "uint256",
          "name": "",
          "type": "uint256"
        }
      ],
      "stateMutability": "view",
      "type": "function"
    },
    {
      "inputs": [
        {
          "internalType": "uint256",
          "name": "serviceId",
          "type": "uint256"
        }
      ],
      "name": "forcedUnstake",
      "outputs": [],
      "stateMutability": "nonpayable",
      "type": "function"
    },
    {
      "inputs": [],
      "name": "getAgentIds",
      "outputs": [
        {
          "internalType": "uint256[]",
          "name": "",
          "type": "uint256[]"
        }
      ],
      "stateMutability": "view",
      "type": "function"
    },
    {
      "inputs": [],
      "name": "getNextRewardCheckpointTimestamp",
      "outputs": [
        {
          "internalType": "uint256",
          "name": "tsNext",
          "type": "uint256"
        }
      ],
      "stateMutability": "view",
      "type": "function"
    },
    {
      "inputs": [],
      "name": "getServiceIds",
      "outputs": [
        {
          "internalType": "uint256[]",
          "name": "",
          "type": "uint256[]"
        }
      ],
      "stateMutability": "view",
      "type": "function"
    },
    {
      "inputs": [
        {
          "internalType": "uint256",
          "name": "serviceId",
          "type": "uint256"
        }
      ],
      "name": "getServiceInfo",
      "outputs": [
        {
          "components": [
            {
              "internalType": "address",
              "name": "multisig",
              "type": "address"
            },
            {
              "internalType": "address",
              "name": "owner",
              "type": "address"
            },
            {
              "internalType": "uint256[]",
              "name": "nonces",
              "type": "uint256[]"
            },
            {
              "internalType": "uint256",
              "name": "tsStart",
              "type": "uint256"
            },
            {
              "internalType": "uint256",
              "name": "reward",
              "type": "uint256"
            },
            {
              "internalType": "uint256",
              "name": "inactivity",
              "type": "uint256"
            }
          ],
          "internalType": "struct ServiceInfo",
          "name": "sInfo",
          "type": "tuple"
        }
      ],
      "stateMutability": "view",
      "type": "function"
    },
    {
      "inputs": [
        {
          "internalType": "uint256",
          "name": "serviceId",
          "type": "uint256"
        }
      ],
      "name": "getStakingState",
      "outputs": [
        {
          "internalType": "enum StakingBase.StakingState",
          "name": "stakingState",
          "type": "uint8"
        }
      ],
      "stateMutability": "view",
      "type": "function"
    },
    {
      "inputs": [
        {
          "components": [
            {
              "internalType": "bytes32",
              "name": "metadataHash",
              "type": "bytes32"
            },
            {
              "internalType": "uint256",
              "name": "maxNumServices",
              "type": "uint256"
            },
            {
              "internalType": "uint256",
              "name": "rewardsPerSecond",
              "type": "uint256"
            },
            {
              "internalType": "uint256",
              "name": "minStakingDeposit",
              "type": "uint256"
            },
            {
              "internalType": "uint256",
              "name": "minNumStakingPeriods",
              "type": "uint256"
            },
            {
              "internalType": "uint256",
              "name": "maxNumInactivityPeriods",
              "type": "uint256"
            },
            {
              "internalType": "uint256",
              "name": "livenessPeriod",
              "type": "uint256"
            },
            {
              "internalType": "uint256",
              "name": "timeForEmissions",
              "type": "uint256"
            },
            {
              "internalType": "uint256",
              "name": "numAgentInstances",
              "type": "uint256"
            },
            {
              "internalType": "uint256[]",
              "name": "agentIds",
              "type": "uint256[]"
            },
            {
              "internalType": "uint256",
              "name": "threshold",
              "type": "uint256"
            },
            {
              "internalType": "bytes32",
              "name": "configHash",
              "type": "bytes32"
            },
            {
              "internalType": "bytes32",
              "name": "proxyHash",
              "type": "bytes32"
            },
            {
              "internalType": "address",
              "name": "serviceRegistry",
              "type": "address"
            },
            {
              "internalType": "address",
              "name": "activityChecker",
              "type": "address"
            }
          ],
          "internalType": "struct StakingBase.StakingParams",
          "name": "_stakingParams",
          "type": "tuple"
        }
      ],
      "name": "initialize",
      "outputs": [],
      "stateMutability": "nonpayable",
      "type": "function"
    },
    {
      "inputs": [],
      "name": "livenessPeriod",
      "outputs": [
        {
          "internalType": "uint256",
          "name": "",
          "type": "uint256"
        }
      ],
      "stateMutability": "view",
      "type": "function"
    },
    {
      "inputs": [
        {
          "internalType": "uint256",
          "name": "",
          "type": "uint256"
        }
      ],
      "name": "mapServiceInfo",
      "outputs": [
        {
          "internalType": "address",
          "name": "multisig",
          "type": "address"
        },
        {
          "internalType": "address",
          "name": "owner",
          "type": "address"
        },
        {
          "internalType": "uint256",
          "name": "tsStart",
          "type": "uint256"
        },
        {
          "internalType": "uint256",
          "name": "reward",
          "type": "uint256"
        },
        {
          "internalType": "uint256",
          "name": "inactivity",
          "type": "uint256"
        }
      ],
      "stateMutability": "view",
      "type": "function"
    },
    {
      "inputs": [],
      "name": "maxInactivityDuration",
      "outputs": [
        {
          "internalType": "uint256",
          "name": "",
          "type": "uint256"
        }
      ],
      "stateMutability": "view",
      "type": "function"
    },
    {
      "inputs": [],
      "name": "maxNumInactivityPeriods",
      "outputs": [
        {
          "internalType": "uint256",
          "name": "",
          "type": "uint256"
        }
      ],
      "stateMutability": "view",
      "type": "function"
    },
    {
      "inputs": [],
      "name": "maxNumServices",
      "outputs": [
        {
          "internalType": "uint256",
          "name": "",
          "type": "uint256"
        }
      ],
      "stateMutability": "view",
      "type": "function"
    },
    {
      "inputs": [],
      "name": "metadataHash",
      "outputs": [
        {
          "internalType": "bytes32",
          "name": "",
          "type": "bytes32"
        }
      ],
      "stateMutability": "view",
      "type": "function"
    },
    {
      "inputs": [],
      "name": "minStakingDeposit",
      "outputs": [
        {
          "internalType": "uint256",
          "name": "",
          "type": "uint256"
        }
      ],
      "stateMutability": "view",
      "type": "function"
    },
    {
      "inputs": [],
      "name": "minStakingDuration",
      "outputs": [
        {
          "internalType": "uint256",
          "name": "",
          "type": "uint256"
        }
      ],
      "stateMutability": "view",
      "type": "function"
    },
    {
      "inputs": [],
      "name": "numAgentInstances",
      "outputs": [
        {
          "internalType": "uint256",
          "name": "",
          "type": "uint256"
        }
      ],
      "stateMutability": "view",
      "type": "function"
    },
    {
      "inputs": [
        {
          "internalType": "address",
          "name": "",
          "type": "address"
        },
        {
          "internalType": "address",
          "name": "",
          "type": "address"
        },
        {
          "internalType": "uint256",
          "name": "",
          "type": "uint256"
        },
        {
          "internalType": "bytes",
          "name": "",
          "type": "bytes"
        }
      ],
      "name": "onERC721Received",
      "outputs": [
        {
          "internalType": "bytes4",
          "name": "",
          "type": "bytes4"
        }
      ],
      "stateMutability": "nonpayable",
      "type": "function"
    },
    {
      "inputs": [],
      "name": "proxyHash",
      "outputs": [
        {
          "internalType": "bytes32",
          "name": "",
          "type": "bytes32"
        }
      ],
      "stateMutability": "view",
      "type": "function"
    },
    {
      "inputs": [],
      "name": "rewardsPerSecond",
      "outputs": [
        {
          "internalType": "uint256",
          "name": "",
          "type": "uint256"
        }
      ],
      "stateMutability": "view",
      "type": "function"
    },
    {
      "inputs": [],
      "name": "serviceRegistry",
      "outputs": [
        {
          "internalType": "address",
          "name": "",
          "type": "address"
        }
      ],
      "stateMutability": "view",
      "type": "function"
    },
    {
      "inputs": [
        {
          "internalType": "uint256",
          "name": "",
          "type": "uint256"
        }
      ],
      "name": "setServiceIds",
      "outputs": [
        {
          "internalType": "uint256",
          "name": "",
          "type": "uint256"
        }
      ],
      "stateMutability": "view",
      "type": "function"
    },
    {
      "inputs": [
        {
          "internalType": "uint256",
          "name": "serviceId",
          "type": "uint256"
        }
      ],
      "name": "stake",
      "outputs": [],
      "stateMutability": "nonpayable",
      "type": "function"
    },
    {
      "inputs": [],
      "name": "threshold",
      "outputs": [
        {
          "internalType": "uint256",
          "name": "",
          "type": "uint256"
        }
      ],
      "stateMutability": "view",
      "type": "function"
    },
    {
      "inputs": [],
      "name": "timeForEmissions",
      "outputs": [
        {
          "internalType": "uint256",
          "name": "",
          "type": "uint256"
        }
      ],
      "stateMutability": "view",
      "type": "function"
    },
    {
      "inputs": [],
      "name": "tsCheckpoint",
      "outputs": [
        {
          "internalType": "uint256",
          "name": "",
          "type": "uint256"
        }
      ],
      "stateMutability": "view",
      "type": "function"
    },
    {
      "inputs": [
        {
          "internalType": "uint256",
          "name": "serviceId",
          "type": "uint256"
        }
      ],
      "name": "unstake",
      "outputs": [
        {
          "internalType": "uint256",
          "name": "",
          "type": "uint256"
        }
      ],
      "stateMutability": "nonpayable",
      "type": "function"
    },
    {
      "stateMutability": "payable",
      "type": "receive"
    }
  ],
  "bytecode": "0x6080604052348015600e575f80fd5b506136808061001c5f395ff3fe608060405260043610610294575f3560e01c80638f9e0a6211610165578063cbcf252a116100c6578063f189e85a1161007c578063f86ad2b611610062578063f86ad2b614610790578063fd0bba8c146107a5578063ffa1ad74146107d1575f80fd5b8063f189e85a14610768578063f4dce7141461077c575f80fd5b8063e77cdcc9116100ac578063e77cdcc91461071f578063eacdaabc14610734578063eb338c9614610749575f80fd5b8063cbcf252a146106eb578063e1f1176d1461070a575f80fd5b8063a74466ad1161011b578063b69ef8a811610101578063b69ef8a81461069e578063c2c4c5c1146106b3578063c5a1d7f0146106d7575f80fd5b8063a74466ad146105f6578063b15087601461067d575f80fd5b8063957323611161014b57806395732361146105ad578063a0ed60e0146105c2578063a694fc3a146105d7575f80fd5b80638f9e0a621461055757806393ac752f1461058e575f80fd5b806342cde4e81161020f5780637fbe2833116101c557806382a8ea58116101ab57806382a8ea58146104f757806383f9eb2214610523578063879d909014610542575f80fd5b80637fbe2833146104c3578063809cee2f146104e2575f80fd5b8063546af2e0116101f5578063546af2e01461047057806356e760581461048f5780635829c5ec146104ae575f80fd5b806342cde4e81461044657806352c824f51461045b575f80fd5b806316a75172116102645780632e17de781161024a5780632e17de78146103f3578063379607f5146104125780633e73299714610431575f80fd5b806316a75172146103c95780631f779408146103de575f80fd5b806308ae7e541461030f5780630a07dc301461033757806314b19c5a14610358578063150b7a021461036d575f80fd5b3661030b575f346010546102a89190612c28565b90505f346011546102b99190612c28565b60108390556011819055604080513481526020810185905290810182905290915033907f36af321ec8d3c75236829c5317affd40ddb308863a1236d2d277a4025cccee1e9060600160405180910390a2005b5f80fd5b34801561031a575f80fd5b50610324600d5481565b6040519081526020015b60405180910390f35b348015610342575f80fd5b50610356610351366004612da4565b61080e565b005b348015610363575f80fd5b50610324600f5481565b348015610378575f80fd5b50610398610387366004612eb8565b630a85bd0160e11b95945050505050565b6040517fffffffff00000000000000000000000000000000000000000000000000000000909116815260200161032e565b3480156103d4575f80fd5b5061032460015481565b3480156103e9575f80fd5b5061032460065481565b3480156103fe575f80fd5b5061032461040d366004612f4f565b61081a565b34801561041d575f80fd5b5061032461042c366004612f4f565b61082b565b34801561043c575f80fd5b5061032460135481565b348015610451575f80fd5b5061032460085481565b348015610466575f80fd5b5061032460055481565b34801561047b575f80fd5b5061032461048a366004612f4f565b610836565b34801561049a575f80fd5b506103246104a9366004612f4f565b610842565b3480156104b9575f80fd5b5061032460075481565b3480156104ce575f80fd5b506103246104dd366004612f4f565b610861565b3480156104ed575f80fd5b50610324600a5481565b348015610502575f80fd5b50610516610511366004612f4f565b610928565b60405161032e9190612f66565b34801561052e575f80fd5b5061032461053d366004612f4f565b610a17565b34801561054d575f80fd5b5061032460115481565b348015610562575f80fd5b50600c54610576906001600160a01b031681565b6040516001600160a01b03909116815260200161032e565b348015610599575f80fd5b506103566105a8366004612f4f565b610acf565b3480156105b8575f80fd5b5061032460125481565b3480156105cd575f80fd5b5061032460045481565b3480156105e2575f80fd5b506103566105f1366004612f4f565b610ade565b348015610601575f80fd5b5061064a610610366004612f4f565b60156020525f9081526040902080546001820154600383015460048401546005909401546001600160a01b03938416949390921692909185565b604080516001600160a01b039687168152959094166020860152928401919091526060830152608082015260a00161032e565b348015610688575f80fd5b50610691610fdb565b60405161032e9190613032565b3480156106a9575f80fd5b5061032460105481565b3480156106be575f80fd5b506106c7611031565b60405161032e9493929190613044565b3480156106e2575f80fd5b506103245f5481565b3480156106f6575f80fd5b50600b54610576906001600160a01b031681565b348015610715575f80fd5b5061032460095481565b34801561072a575f80fd5b5061032460035481565b34801561073f575f80fd5b5061032460025481565b348015610754575f80fd5b50610324610763366004612f4f565b6116c5565b348015610773575f80fd5b506106916116d4565b348015610787575f80fd5b50610324611728565b34801561079b575f80fd5b50610324600e5481565b3480156107b0575f80fd5b506107c46107bf366004612f4f565b61173e565b60405161032e91906130af565b3480156107dc575f80fd5b50610801604051806040016040528060058152602001640302e322e360dc1b81525081565b60405161032e91906130d5565b61081781611810565b50565b5f610825825f611b9b565b92915050565b5f610825825f611f2f565b5f610825826001611f2f565b60148181548110610851575f80fd5b5f91825260209091200154905081565b5f818152601560209081526040808320815160c08101835281546001600160a01b03908116825260018301541681850152600282018054845181870281018701865281815287969395860193909291908301828280156108de57602002820191905f5260205f20905b8154815260200190600101908083116108ca575b50505050508152602001600382015481526020016004820154815260200160058201548152505090508060800151915061091783610a17565b6109219083612c28565b9392505050565b61096e6040518060c001604052805f6001600160a01b031681526020015f6001600160a01b03168152602001606081526020015f81526020015f81526020015f81525090565b5f82815260156020908152604091829020825160c08101845281546001600160a01b03908116825260018301541681840152600282018054855181860281018601875281815292959394938601938301828280156109e957602002820191905f5260205f20905b8154815260200190600101908083116109d5575b5050505050815260200160038201548152602001600482015481526020016005820154815250509050919050565b5f805f805f80610a25612032565b505050945094509450945094505f5b84811015610ac45787838281518110610a4f57610a4f61310a565b602002602001015103610abc5785841115610a9b578386838381518110610a7857610a7861310a565b6020026020010151610a8a919061311e565b610a949190613149565b9650610ac4565b818181518110610aad57610aad61310a565b60200260200101519650610ac4565b600101610a34565b505050505050919050565b610ada816001611b9b565b5050565b610ae6611031565b505050506011545f03610b0c5760405163afb0be3360e01b815260040160405180910390fd5b5f818152601560205260409020600381015415610b445760405163b4817ce760e01b8152600481018390526024015b60405180910390fd5b6016546001548103610b6f5760015460405163fd20861560e01b8152600401610b3b91815260200190565b600b5460405163ef0e239b60e01b8152600481018590525f916001600160a01b03169063ef0e239b906024015f60405180830381865afa158015610bb5573d5f803e3d5ffd5b505050506040513d5f823e601f3d908101601f19168201604052610bdc9190810190613206565b9050806080015163ffffffff1660075414610c0d57604051637ad404bf60e11b815260048101859052602401610b3b565b60095415801590610c245750806040015160095414155b15610c4557604051637ad404bf60e11b815260048101859052602401610b3b565b5f600854118015610c625750806060015163ffffffff1660085414155b15610c8357604051637ad404bf60e11b815260048101859052602401610b3b565b60048160c001516005811115610c9b57610c9b61309b565b14610cda578060c001516005811115610cb657610cb661309b565b604051633c053f9d60e21b8152600481019190915260248101859052604401610b3b565b5f81602001516001600160a01b0316803b806020016040519081016040528181525f908060200190933c80519060200120905080600a5414610d3f57602082015160405162a2307960e51b81526001600160a01b039091166004820152602401610b3b565b6014548015610e035760e083015151818114610d7157604051637ad404bf60e11b815260048101889052602401610b3b565b5f5b81811015610e00578460e001518181518110610d9157610d9161310a565b602002602001015163ffffffff1660148281548110610db257610db261310a565b905f5260205f20015414610df85760148181548110610dd357610dd361310a565b905f5260205f200154604051632ab10b0b60e21b8152600401610b3b91815260200190565b600101610d73565b50505b610e2386845f01516bffffffffffffffffffffffff168560e001516123d2565b602083015185546001600160a01b0391821673ffffffffffffffffffffffffffffffffffffffff19918216811788556001880180549092163317909155600c5460405163d564c4bf60e01b815260048101929092525f92169063d564c4bf906024015f60405180830381865afa158015610e9f573d5f803e3d5ffd5b505050506040513d5f823e601f3d908101601f19168201604052610ec691908101906132df565b8051909150610ede9060028801906020840190612ba0565b50426003870155601680546001810182555f919091527fd833147d7dc355ba459fc788f669e58cfaf9dc25ddcd0702e87d69c7b512428901879055600b54604051632142170760e11b8152336004820152306024820152604481018990526001600160a01b03909116906342842e0e906064015f604051808303815f87803b158015610f68575f80fd5b505af1158015610f7a573d5f803e3d5ffd5b5050505083602001516001600160a01b0316336001600160a01b0316887faa6b005b4958114a0c90492461c24af6525ae0178db7fbf44125ae9217c69ccb600f5485604051610fca929190613360565b60405180910390a450505050505050565b6060601480548060200260200160405190810160405280929190818152602001828054801561102757602002820191905f5260205f20905b815481526020019060010190808311611013575b5050505050905090565b6060806060805f805f805f805f80611047612032565b97509750975097509750975097509750606080845167ffffffffffffffff81111561107457611074612c3b565b60405190808252806020026020018201604052801561109d578160200160208202803683370190505b509a505f891561141e578967ffffffffffffffff8111156110c0576110c0612c3b565b6040519080825280602002602001820160405280156110e9578160200160208202803683370190505b5092508967ffffffffffffffff81111561110557611105612c3b565b60405190808252806020026020018201604052801561112e578160200160208202803683370190505b5091508a89111561132b575f8060015b8c811015611227578b8e8b838151811061115a5761115a61310a565b602002602001015161116c919061311e565b6111769190613149565b92506111828383612c28565b91508a81815181106111965761119661310a565b602002602001015193508a81815181106111b2576111b261310a565b60200260200101518682815181106111cc576111cc61310a565b602002602001018181525050828582815181106111eb576111eb61310a565b6020026020010181815250508260155f8681526020019081526020015f206004015f82825461121a9190612c28565b909155505060010161113e565b508a8d8a5f8151811061123c5761123c61310a565b602002602001015161124e919061311e565b6112589190613149565b91506112648282612c28565b9050895f815181106112785761127861310a565b60200260200101519250895f815181106112945761129461310a565b6020026020010151855f815181106112ae576112ae61310a565b602002602001018181525050808d11156112d9576112cc818e613380565b6112d69083612c28565b91505b81845f815181106112ec576112ec61310a565b6020026020010181815250508160155f8581526020019081526020015f206004015f82825461131b9190612c28565b909155505f9d5061141892505050565b5f5b8a81101561140a578881815181106113475761134761310a565b602002602001015191508881815181106113635761136361310a565b602002602001015184828151811061137d5761137d61310a565b60200260200101818152505087818151811061139b5761139b61310a565b60200260200101518382815181106113b5576113b561310a565b6020026020010181815250508781815181106113d3576113d361310a565b602002602001015160155f8481526020019081526020015f206004015f8282546113fd9190612c28565b909155505060010161132d565b50611415898c613380565b9a505b60118b90555b85511561169157600f545f9a508a5b875181101561160c578781815181106114485761144861310a565b602002602001015192508681815181106114645761146461310a565b602002602001015160155f8581526020019081526020015f206002019080519060200190611493929190612ba0565b505f8682815181106114a7576114a761310a565b602002602001015111156115f2578581815181106114c7576114c761310a565b602002602001015160155f8581526020019081526020015f20600501546114ee9190612c28565b8682815181106115005761150061310a565b60200260200101818152505085818151811061151e5761151e61310a565b602002602001015160155f8581526020019081526020015f2060050181905550600e548682815181106115535761155361310a565b6020026020010151111561159157828e82815181106115745761157461310a565b60209081029190910101528b61158981613393565b9c5050611604565b827f33dc5cdf1e035de8a7fe16ad7a30a441d30ee51719d3f07703ee35d4348f0779838884815181106115c6576115c661310a565b60200260200101516040516115e5929190918252602082015260400190565b60405180910390a2611604565b5f838152601560205260408120600501555b60010161142d565b508a156116255761161e8d868d612516565b9c5061162a565b60609c505b5f601354426116399190613380565b42601355905061164a826001612c28565b600f81905550817f48b735a18ed32318d316214e41387be29c52e29df4598f2b8e40fa843be3f9408e87878560405161168694939291906133ab565b60405180910390a250505b8551158061169f57505f8c51115b156116af576116ac6116d4565b95505b50939c509a509198505050505050505090919293565b60168181548110610851575f80fd5b6060601680548060200260200160405190810160405280929190818152602001828054801561102757602002820191905f5260205f2090815481526020019060010190808311611013575050505050905090565b5f6005546013546117399190612c28565b905090565b5f818152601560209081526040808320815160c08101835281546001600160a01b03908116825260018301541681850152600282018054845181870281018701865281815287969395860193909291908301828280156117bb57602002820191905f5260205f20905b8154815260200190600101908083116117a7575b5050505050815260200160038201548152602001600482015481526020016005820154815250509050600e548160a0015111156117fb576002915061180a565b60608101511561180a57600191505b50919050565b600b546001600160a01b0316156118395760405162dc149f60e41b815260040160405180910390fd5b8051158061184957506020810151155b8061185657506040810151155b80611863575060c0810151155b806118715750610100810151155b8061187e575060e0810151155b8061188b57506080810151155b80611898575060a0810151155b156118b657604051637c946ed760e01b815260040160405180910390fd5b8060a00151816080015110156118f257608081015160a082015160405163491a2bb160e01b815260048101929092526024820152604401610b3b565b60028160600151101561192857606081015160405163491a2bb160e01b8152600481019190915260026024820152604401610b3b565b6101a08101516001600160a01b0316158061194f57506101c08101516001600160a01b0316155b1561196d5760405163d92e233d60e01b815260040160405180910390fd5b806101c001516001600160a01b03163b5f036119ae576101c081015160405163601c0c2160e01b81526001600160a01b039091166004820152602401610b3b565b80515f90815560208201516001556040820151600255606082015160035560a082015160045560c082015160055560e08201516006556101008201516007556101a0820151600b80546001600160a01b0392831673ffffffffffffffffffffffffffffffffffffffff19918216179091556101c0840151600c8054919093169116179055610140820151600855610160820151600955805b82610120015151811015611b1457818361012001518281518110611a6c57611a6c61310a565b602002602001015111611ab4578261012001518181518110611a9057611a9061310a565b6020026020010151604051632ab10b0b60e21b8152600401610b3b91815260200190565b8261012001518181518110611acb57611acb61310a565b602090810291909101015160148054600181810183555f929092527fce6d7b5282bd9a3661ae061feed1dbda4e52ab073b1f9285be6e155d9c38d4ec0182905590925001611a46565b506101808201515f03611b3a57604051637c946ed760e01b815260040160405180910390fd5b610180820151600a556005546080830151611b55919061311e565b600d5560055460a0830151611b6a919061311e565b600e5560e082015160208301516040840151611b86919061311e565b611b90919061311e565b601255505042601355565b5f82815260156020526040812060018101546001600160a01b03163314611bec57600181015460405163521eb56d60e11b81523360048201526001600160a01b039091166024820152604401610b3b565b5f611bf5611031565b505050600483015460115460038501549195509192505f90611c179042613380565b9050600d548111158015611c2a57505f82115b15611c5d57600d5460405163ba2bbc6b60e01b815260048101899052602481018390526044810191909152606401610b3b565b5f805b8451821015611c9c5788858381518110611c7c57611c7c61310a565b602002602001015103611c9157506001611c9c565b816001019150611c60565b5f86600201805480602002602001604051908101604052809291908181526020018280548015611ce957602002820191905f5260205f20905b815481526020019060010190808311611cd5575b50508a545f8f8152601560205260408120805473ffffffffffffffffffffffffffffffffffffffff19908116825560018201805490911690559596506001600160a01b039091169493509150611d4490506002830182612be9565b505f60038201819055600482018190556005909101558215611dda576016545f90611d7190600190613380565b90508015611db45760168181548110611d8c57611d8c61310a565b905f5260205f20015460168681548110611da857611da861310a565b5f918252602090912001555b6016805480611dc557611dc56133e7565b600190038181905f5260205f20015f90559055505b600b546040516323b872dd60e01b8152306004820152336024820152604481018d90526001600160a01b03909116906323b872dd906064015f604051808303815f87803b158015611e29575f80fd5b505af1158015611e3b573d5f803e3d5ffd5b505050505f891115611e6d578915611e6357611e578987612c28565b60118190559550611e6d565b611e6d818a6128ce565b8915611ecc57806001600160a01b0316336001600160a01b03168c7f91c9f7c7f307bcc0ae02ba613bd8d07c29e94952f0a28803ded176fcd7d96d64600f54868e8c604051611ebf94939291906133fb565b60405180910390a4611f21565b806001600160a01b0316336001600160a01b03168c7f6d789d063e079a4c156e77a20008529fc448dca2cd7e5e7a20abf969fffb9226600f54868e8c604051611f1894939291906133fb565b60405180910390a45b505050505050505092915050565b5f82815260156020526040812060018101546001600160a01b03163314611f8057600181015460405163521eb56d60e11b81523360048201526001600160a01b039091166024820152604401610b3b565b8215611f9357611f8e611031565b505050505b80600401549150815f03611fba57604051637c946ed760e01b815260040160405180910390fd5b5f600482015580546001600160a01b0316611fd581846128ce565b806001600160a01b0316336001600160a01b0316867f31add0166dae59ea66bbc180e4fae85b72fc9b7b5fc7b0f7257e4721a840c96e600f54866002018860405161202293929190613426565b60405180910390a4505092915050565b60135460115460165490915f9182916060918291829182918291801580159061206657506005546120638342613380565b10155b801561207157505f8a115b156123c6578067ffffffffffffffff81111561208f5761208f612c3b565b6040519080825280602002602001820160405280156120b8578160200160208202803683370190505b5094508067ffffffffffffffff8111156120d4576120d4612c3b565b6040519080825280602002602001820160405280156120fd578160200160208202803683370190505b5096508067ffffffffffffffff81111561211957612119612c3b565b604051908082528060200260200182016040528015612142578160200160208202803683370190505b5095508067ffffffffffffffff81111561215e5761215e612c3b565b60405190808252806020026020018201604052801561219157816020015b606081526020019060019003908161217c5790505b5093508067ffffffffffffffff8111156121ad576121ad612c3b565b6040519080825280602002602001820160405280156121d6578160200160208202803683370190505b5092505f5b818110156123c457601681815481106121f6576121f661310a565b905f5260205f2001548682815181106122115761221161310a565b6020026020010181815250505f60155f8884815181106122335761223361310a565b602002602001015181526020019081526020015f2090505f8490505f8260030154905081811115612262578091505b61226c8242613380565b8354600285018054604080516020808402820181019092528281529495505f946122d6946001600160a01b031693909290918301828280156122cb57602002820191905f5260205f20905b8154815260200190600101908083116122b7575b5050505050846129b9565b8a87815181106122e8576122e861310a565b6020908102919091010152905080156123955781600254612309919061311e565b8b8f8151811061231b5761231b61310a565b6020026020010181815250508a8e815181106123395761233961310a565b60200260200101518d61234c9190612c28565b9c508985815181106123605761236061310a565b60200260200101518c8f8151811061237a5761237a61310a565b602090810291909101015261238e8e613393565b9d506123b5565b818886815181106123a8576123a861310a565b6020026020010181815250505b505050508060010190506121db565b505b50509091929394959697565b600354808310156124005760405163491a2bb160e01b81526004810184905260248101829052604401610b3b565b600b54604051630ef1435d60e11b8152600481018690525f9182916001600160a01b0390911690631de286ba906024015f60405180830381865afa15801561244a573d5f803e3d5ffd5b505050506040513d5f823e601f3d908101601f191682016040526124719190810190613480565b915091505f5b8281101561250d57838282815181106124925761249261310a565b6020026020010151602001516bffffffffffffffffffffffff161015612505578181815181106124c4576124c461310a565b6020026020010151602001518460405163491a2bb160e01b8152600401610b3b9291906bffffffffffffffffffffffff929092168252602082015260400190565b600101612477565b50505050505050565b82516060908267ffffffffffffffff81111561253457612534612c3b565b60405190808252806020026020018201604052801561255d578160200160208202803683370190505b5091505f8367ffffffffffffffff81111561257a5761257a612c3b565b6040519080825280602002602001820160405280156125a3578160200160208202803683370190505b5090505f8467ffffffffffffffff8111156125c0576125c0612c3b565b6040519080825280602002602001820160405280156125e9578160200160208202803683370190505b5090505f8567ffffffffffffffff81111561260657612606612c3b565b60405190808252806020026020018201604052801561262f578160200160208202803683370190505b5090505f8667ffffffffffffffff81111561264c5761264c612c3b565b604051908082528060200260200182016040528015612675578160200160208202803683370190505b5090505f805f5b878110156127d1575f8c82815181106126975761269761310a565b602002602001015111156127c9578b81815181106126b7576126b761310a565b60200260200101519150818984815181106126d4576126d461310a565b6020908102919091018101919091525f838152601590915260409020600181015488516001600160a01b03909116908990869081106127155761271561310a565b6001600160a01b039283166020918202929092010152815488519116908890869081106127445761274461310a565b60200260200101906001600160a01b031690816001600160a01b0316815250508b82815181106127765761277661310a565b60200260200101518685815181106127905761279061310a565b602002602001018181525050818585815181106127af576127af61310a565b6020908102919091010152836127c481613393565b945050505b60010161267c565b50885b801561287f57876127e481613548565b98505f9050846127f5600184613380565b815181106128055761280561310a565b60200260200101519050601689815481106128225761282261310a565b905f5260205f2001546016828154811061283e5761283e61310a565b5f91825260209091200155601680548061285a5761285a6133e7565b600190038181905f5260205f20015f90559055508061287890613548565b90506127d4565b50600f547fd19a3d42ed383465e4058c322d9411aeac76ddb8454d22e139fc99808bd56952898888886040516128b89493929190613595565b60405180910390a2505050505050509392505050565b8060105f8282546128df9190613380565b90915550506040515f906001600160a01b0384169083908381818185875af1925050503d805f811461292c576040519150601f19603f3d011682016040523d82523d5f602084013e612931565b606091505b50509050806129715760405163cd3f165960e01b81525f60048201523060248201526001600160a01b038416604482015260648101839052608401610b3b565b826001600160a01b03167f884edad9ce6fa2440d8a54cc123490eb96d2768479d49ff9c7366125a9424364836040516129ac91815260200190565b60405180910390a2505050565b6040516001600160a01b03841660248201525f90606090829060440160408051601f198184030181529181526020820180517bffffffffffffffffffffffffffffffffffffffffffffffffffffffff1663d564c4bf60e01b179052600c5490519192505f9182916001600160a01b031690612a359085906135cd565b5f60405180830381855afa9150503d805f8114612a6d576040519150601f19603f3d011682016040523d82523d5f602084013e612a72565b606091505b5091509150818015612a855750603f8151115b8015612a9c575060208151612a9a91906135e3565b155b15612b955780806020019051810190612ab591906132df565b9350838787604051602401612acc939291906135f6565b60408051601f198184030181529181526020820180517bffffffffffffffffffffffffffffffffffffffffffffffffffffffff1663184023a560e01b179052600c5490519194506001600160a01b031690612b289085906135cd565b5f60405180830381855afa9150503d805f8114612b60576040519150601f19603f3d011682016040523d82523d5f602084013e612b65565b606091505b509092509050818015612b79575080516020145b15612b955780806020019051810190612b92919061362b565b94505b505050935093915050565b828054828255905f5260205f20908101928215612bd9579160200282015b82811115612bd9578251825591602001919060010190612bbe565b50612be5929150612c00565b5090565b5080545f8255905f5260205f209081019061081791905b5b80821115612be5575f8155600101612c01565b634e487b7160e01b5f52601160045260245ffd5b8082018082111561082557610825612c14565b634e487b7160e01b5f52604160045260245ffd5b6040516101e0810167ffffffffffffffff81118282101715612c7357612c73612c3b565b60405290565b604051610100810167ffffffffffffffff81118282101715612c7357612c73612c3b565b6040805190810167ffffffffffffffff81118282101715612c7357612c73612c3b565b604051601f8201601f1916810167ffffffffffffffff81118282101715612ce957612ce9612c3b565b604052919050565b5f67ffffffffffffffff821115612d0a57612d0a612c3b565b5060051b60200190565b5f82601f830112612d23575f80fd5b81356020612d38612d3383612cf1565b612cc0565b8083825260208201915060208460051b870101935086841115612d59575f80fd5b602086015b84811015612d755780358352918301918301612d5e565b509695505050505050565b6001600160a01b0381168114610817575f80fd5b8035612d9f81612d80565b919050565b5f60208284031215612db4575f80fd5b813567ffffffffffffffff80821115612dcb575f80fd5b908301906101e08286031215612ddf575f80fd5b612de7612c4f565b823581526020830135602082015260408301356040820152606083013560608201526080830135608082015260a083013560a082015260c083013560c082015260e083013560e08201526101008084013581830152506101208084013583811115612e50575f80fd5b612e5c88828701612d14565b91830191909152506101408381013590820152610160808401359082015261018080840135908201526101a09150612e95828401612d94565b828201526101c09150612ea9828401612d94565b91810191909152949350505050565b5f805f805f60808688031215612ecc575f80fd5b8535612ed781612d80565b94506020860135612ee781612d80565b935060408601359250606086013567ffffffffffffffff80821115612f0a575f80fd5b818801915088601f830112612f1d575f80fd5b813581811115612f2b575f80fd5b896020828501011115612f3c575f80fd5b9699959850939650602001949392505050565b5f60208284031215612f5f575f80fd5b5035919050565b602080825282516001600160a01b0390811683830152838201511660408084019190915283015160c06060840152805160e084018190525f929182019083906101008601905b80831015612fcc5783518252928401926001929092019190840190612fac565b5060608701516080870152608087015160a087015260a087015160c08701528094505050505092915050565b5f815180845260208085019450602084015f5b838110156130275781518752958201959082019060010161300b565b509495945050505050565b602081525f6109216020830184612ff8565b608081525f6130566080830187612ff8565b82810360208401526130688187612ff8565b9050828103604084015261307c8186612ff8565b905082810360608401526130908185612ff8565b979650505050505050565b634e487b7160e01b5f52602160045260245ffd5b60208101600383106130cf57634e487b7160e01b5f52602160045260245ffd5b91905290565b602081525f82518060208401528060208501604085015e5f604082850101526040601f19601f83011684010191505092915050565b634e487b7160e01b5f52603260045260245ffd5b808202811582820484141761082557610825612c14565b634e487b7160e01b5f52601260045260245ffd5b5f8261315757613157613135565b500490565b80516bffffffffffffffffffffffff81168114612d9f575f80fd5b8051612d9f81612d80565b805163ffffffff81168114612d9f575f80fd5b805160068110612d9f575f80fd5b5f82601f8301126131b2575f80fd5b815160206131c2612d3383612cf1565b8083825260208201915060208460051b8701019350868411156131e3575f80fd5b602086015b84811015612d75576131f981613182565b83529183019183016131e8565b5f60208284031215613216575f80fd5b815167ffffffffffffffff8082111561322d575f80fd5b908301906101008286031215613241575f80fd5b613249612c79565b6132528361315c565b815261326060208401613177565b60208201526040830151604082015261327b60608401613182565b606082015261328c60808401613182565b608082015261329d60a08401613182565b60a08201526132ae60c08401613195565b60c082015260e0830151828111156132c4575f80fd5b6132d0878286016131a3565b60e08301525095945050505050565b5f60208083850312156132f0575f80fd5b825167ffffffffffffffff811115613306575f80fd5b8301601f81018513613316575f80fd5b8051613324612d3382612cf1565b81815260059190911b82018301908381019087831115613342575f80fd5b928401925b8284101561309057835182529284019290840190613347565b828152604060208201525f6133786040830184612ff8565b949350505050565b8181038181111561082557610825612c14565b5f600182016133a4576133a4612c14565b5060010190565b848152608060208201525f6133c36080830186612ff8565b82810360408401526133d58186612ff8565b91505082606083015295945050505050565b634e487b7160e01b5f52603160045260245ffd5b848152608060208201525f6134136080830186612ff8565b6040830194909452506060015292915050565b5f60608201858352602060606020850152818654808452608086019150875f5260205f2093505f5b8181101561346a5784548352600194850194928401920161344e565b5050809350505050826040830152949350505050565b5f806040808486031215613492575f80fd5b8351925060208085015167ffffffffffffffff8111156134b0575f80fd5b8501601f810187136134c0575f80fd5b80516134ce612d3382612cf1565b81815260069190911b820183019083810190898311156134ec575f80fd5b928401925b828410156135385785848b031215613507575f80fd5b61350f612c9d565b61351885613182565b815261352586860161315c565b81870152825292850192908401906134f1565b8096505050505050509250929050565b5f8161355657613556612c14565b505f190190565b5f815180845260208085019450602084015f5b838110156130275781516001600160a01b031687529582019590820190600101613570565b608081525f6135a76080830187612ff8565b82810360208401526135b9818761355d565b9050828103604084015261307c818661355d565b5f82518060208501845e5f920191825250919050565b5f826135f1576135f1613135565b500690565b606081525f6136086060830186612ff8565b828103602084015261361a8186612ff8565b915050826040830152949350505050565b5f6020828403121561363b575f80fd5b81518015158114610921575f80fdfea26469706673582212204b1d9b90df31992559b900c063da1915bfb8acc764ea1f29ef1322c8105f50a264736f6c63430008190033",
  "linkReferences": {},
  "deployedLinkReferences": {}
}