{
  "_format": "hh-sol-artifact-1",
  "contractName": "StakingFactory",
  "sourceName": "contracts/staking/StakingFactory.sol",
  "abi": [
    {
      "inputs": [
        {
          "internalType": "address",
          "name": "_verifier",
          "type": "address"
        }
      ],
      "stateMutability": "nonpayable",
      "type": "constructor"
    },
    {
      "inputs": [
        {
          "internalType": "address",
          "name": "implementation",
          "type": "address"
        }
      ],
      "name": "ContractOnly",
      "type": "error"
    },
    {
      "inputs": [
        {
          "internalType": "uint256",
          "name": "expected",
          "type": "uint256"
        },
        {
          "internalType": "uint256",
          "name": "provided",
          "type": "uint256"
        }
      ],
      "name": "IncorrectDataLength",
      "type": "error"
    },
    {
      "inputs": [
        {
          "internalType": "address",
          "name": "instance",
          "type": "address"
        }
      ],
      "name": "InitializationFailed",
      "type": "error"
    },
    {
      "inputs": [
        {
          "internalType": "address",
          "name": "sender",
          "type": "address"
        },
        {
          "internalType": "address",
          "name": "owner",
          "type": "address"
        }
      ],
      "name": "OwnerOnly",
      "type": "error"
    },
    {
      "inputs": [
        {
          "internalType": "address",
          "name": "implementation",
          "type": "address"
        }
      ],
      "name": "ProxyCreationFailed",
      "type": "error"
    },
    {
      "inputs": [],
      "name": "ReentrancyGuard",
      "type": "error"
    },
    {
      "inputs": [
        {
          "internalType": "address",
          "name": "implementation",
          "type": "address"
        }
      ],
      "name": "UnverifiedImplementation",
      "type": "error"
    },
    {
      "inputs": [
        {
          "internalType": "address",
          "name": "instance",
          "type": "address"
        }
      ],
      "name": "UnverifiedProxy",
      "type": "error"
    },
    {
      "inputs": [],
      "name": "ZeroAddress",
      "type": "error"
    },
    {
      "anonymous": false,
      "inputs": [
        {
          "indexed": true,
          "internalType": "address",
          "name": "sender",
          "type": "address"
        },
        {
          "indexed": true,
          "internalType": "address",
          "name": "instance",
          "type": "address"
        },
        {
          "indexed": true,
          "internalType": "address",
          "name": "implementation",
          "type": "address"
        }
      ],
      "name": "InstanceCreated",
      "type": "event"
    },
    {
      "anonymous": false,
      "inputs": [
        {
          "indexed": true,
          "internalType": "address",
          "name": "instance",
          "type": "address"
        }
      ],
      "name": "InstanceRemoved",
      "type": "event"
    },
    {
      "anonymous": false,
      "inputs": [
        {
          "indexed": true,
          "internalType": "address",
          "name": "instance",
          "type": "address"
        },
        {
          "indexed": false,
          "internalType": "bool",
          "name": "isEnabled",
          "type": "bool"
        }
      ],
      "name": "InstanceStatusChanged",
      "type": "event"
    },
    {
      "anonymous": false,
      "inputs": [
        {
          "indexed": true,
          "internalType": "address",
          "name": "owner",
          "type": "address"
        }
      ],
      "name": "OwnerUpdated",
      "type": "event"
    },
    {
      "anonymous": false,
      "inputs": [
        {
          "indexed": true,
          "internalType": "address",
          "name": "verifier",
          "type": "address"
        }
      ],
      "name": "VerifierUpdated",
      "type": "event"
    },
    {
      "inputs": [],
      "name": "SELECTOR_DATA_LENGTH",
      "outputs": [
        {
          "internalType": "uint256",
          "name": "",
          "type": "uint256"
        }
      ],
      "stateMutability": "view",
      "type": "function"
    },
    {
      "inputs": [
        {
          "internalType": "address",
          "name": "newOwner",
          "type": "address"
        }
      ],
      "name": "changeOwner",
      "outputs": [],
      "stateMutability": "nonpayable",
      "type": "function"
    },
    {
      "inputs": [
        {
          "internalType": "address",
          "name": "newVerifier",
          "type": "address"
        }
      ],
      "name": "changeVerifier",
      "outputs": [],
      "stateMutability": "nonpayable",
      "type": "function"
    },
    {
      "inputs": [
        {
          "internalType": "address",
          "name": "implementation",
          "type": "address"
        },
        {
          "internalType": "bytes",
          "name": "initPayload",
          "type": "bytes"
        }
      ],
      "name": "createStakingInstance",
      "outputs": [
        {
          "internalType": "address payable",
          "name": "instance",
          "type": "address"
        }
      ],
      "stateMutability": "nonpayable",
      "type": "function"
    },
    {
      "inputs": [
        {
          "internalType": "address",
          "name": "implementation",
          "type": "address"
        }
      ],
      "name": "getProxyAddress",
      "outputs": [
        {
          "internalType": "address",
          "name": "",
          "type": "address"
        }
      ],
      "stateMutability": "view",
      "type": "function"
    },
    {
      "inputs": [
        {
          "internalType": "address",
          "name": "implementation",
          "type": "address"
        },
        {
          "internalType": "uint256",
          "name": "localNonce",
          "type": "uint256"
        }
      ],
      "name": "getProxyAddressWithNonce",
      "outputs": [
        {
          "internalType": "address",
          "name": "",
          "type": "address"
        }
      ],
      "stateMutability": "view",
      "type": "function"
    },
    {
      "inputs": [
        {
          "internalType": "address",
          "name": "",
          "type": "address"
        }
      ],
      "name": "mapInstanceParams",
      "outputs": [
        {
          "internalType": "address",
          "name": "implementation",
          "type": "address"
        },
        {
          "internalType": "address",
          "name": "deployer",
          "type": "address"
        },
        {
          "internalType": "bool",
          "name": "isEnabled",
          "type": "bool"
        }
      ],
      "stateMutability": "view",
      "type": "function"
    },
    {
      "inputs": [],
      "name": "nonce",
      "outputs": [
        {
          "internalType": "uint256",
          "name": "",
          "type": "uint256"
        }
      ],
      "stateMutability": "view",
      "type": "function"
    },
    {
      "inputs": [],
      "name": "owner",
      "outputs": [
        {
          "internalType": "address",
          "name": "",
          "type": "address"
        }
      ],
      "stateMutability": "view",
      "type": "function"
    },
    {
      "inputs": [
        {
          "internalType": "address",
          "name": "instance",
          "type": "address"
        }
      ],
      "name": "removeInstance",
      "outputs": [],
      "stateMutability": "nonpayable",
      "type": "function"
    },
    {
      "inputs": [
        {
          "internalType": "address",
          "name": "instance",
          "type": "address"
        },
        {
          "internalType": "bool",
          "name": "isEnabled",
          "type": "bool"
        }
      ],
      "name": "setInstanceStatus",
      "outputs": [],
      "stateMutability": "nonpayable",
      "type": "function"
    },
    {
      "inputs": [],
      "name": "verifier",
      "outputs": [
        {
          "internalType": "address",
          "name": "",
          "type": "address"
        }
      ],
      "stateMutability": "view",
      "type": "function"
    },
    {
      "inputs": [
        {
          "internalType": "address",
          "name": "instance",
          "type": "address"
        }
      ],
      "name": "verifyInstance",
      "outputs": [
        {
          "internalType": "bool",
          "name": "",
          "type": "bool"
        }
      ],
      "stateMutability": "view",
      "type": "function"
    },
    {
      "inputs": [
        {
          "internalType": "address",
          "name": "instance",
          "type": "address"
        }
      ],
      "name": "verifyInstanceAndGetEmissionsAmount",
      "outputs": [
        {
          "internalType": "uint256",
          "name": "amount",
          "type": "uint256"
        }
      ],
      "stateMutability": "view",
      "type": "function"
    }
  ],
  "bytecode": "0x608060405260016003553480156013575f80fd5b506040516111913803806111918339810160408190526030916062565b60018054336001600160a01b031991821617909155600280549091166001600160a01b0392909216919091179055608d565b5f602082840312156071575f80fd5b81516001600160a01b03811681146086575f80fd5b9392505050565b6110f78061009a5f395ff3fe608060405234801561000f575f80fd5b50600436106100e5575f3560e01c80638da5cb5b11610088578063cf04fb9411610063578063cf04fb94146101ce578063e8dc705a146101e1578063ec2ee1f614610248578063fa2a5b011461025b575f80fd5b80638da5cb5b146101a0578063a6f9dae1146101b3578063affed0e0146101c6575f80fd5b80633ce3778c116100c35780633ce3778c1461014f578063479e372e14610157578063555b8adb1461017a578063830a322a1461018d575f80fd5b8063118e24bd146100e95780631eda94d7146100fe5780632b7ac3f314610124575b5f80fd5b6100fc6100f7366004610ce7565b61026e565b005b61011161010c366004610d1c565b610347565b6040519081526020015b60405180910390f35b600254610137906001600160a01b031681565b6040516001600160a01b03909116815260200161011b565b610111600481565b61016a610165366004610d1c565b610452565b604051901515815260200161011b565b610137610188366004610d3c565b610531565b6100fc61019b366004610d1c565b610605565b600154610137906001600160a01b031681565b6100fc6101c1366004610d1c565b6106ee565b6101115f5481565b6100fc6101dc366004610d1c565b61079e565b6102206101ef366004610d1c565b60046020525f9081526040902080546001909101546001600160a01b0391821691811690600160a01b900460ff1683565b604080516001600160a01b03948516815293909216602084015215159082015260600161011b565b610137610256366004610d78565b610827565b610137610269366004610d1c565b610c48565b6001600160a01b038083165f90815260046020526040902060018101549091163381146102c45760405163521eb56d60e11b81523360048201526001600160a01b03821660248201526044015b60405180910390fd5b600182018054841515600160a01b027fffffffffffffffffffffff00ffffffffffffffffffffffffffffffffffffffff9091161790556040516001600160a01b038516907f11126b4c1d3b69d7dd553c2f8b2be5f8fabfe22552ceffc3240126fdc087eca09061033990861515815260200190565b60405180910390a250505050565b5f8061035283610452565b9050801561044c57826001600160a01b031663957323616040518163ffffffff1660e01b8152600401602060405180830381865afa158015610396573d5f803e3d5ffd5b505050506040513d601f19601f820116820180604052508101906103ba9190610e34565b6002549092506001600160a01b0316801561044a57604051630e1e19e160e21b81526001600160a01b0385811660048301525f9190831690633878678490602401602060405180830381865afa158015610416573d5f803e3d5ffd5b505050506040513d601f19601f8201168201806040525081019061043a9190610e34565b905080841115610448578093505b505b505b50919050565b6001600160a01b038082165f908152600460205260408120805491929091168061047f57505f9392505050565b6001820154600160a01b900460ff1661049b57505f9392505050565b6002546001600160a01b03168015610526576040516369be670b60e01b81526001600160a01b03868116600483015283811660248301528216906369be670b90604401602060405180830381865afa1580156104f9573d5f803e3d5ffd5b505050506040513d601f19601f8201168201806040525081019061051d9190610e4b565b95945050505050565b506001949350505050565b5f8061053c83610c54565b90505f6040518060200161054f90610caf565b601f1982820381018352601f90910116604081905261057c91906001600160a01b03881690602001610e7d565b60408051808303601f1901815282825280516020918201207fff00000000000000000000000000000000000000000000000000000000000000828501523060601b6bffffffffffffffffffffffff191660218501526035840195909552605580840195909552815180840390950185526075909201905282519201919091209150505b92915050565b6001546001600160a01b031633146106455760015460405163521eb56d60e11b81523360048201526001600160a01b0390911660248201526044016102bb565b6001600160a01b038082165f9081526004602052604090206001015416806106805760405163d92e233d60e01b815260040160405180910390fd5b6001600160a01b0382165f8181526004602052604080822080546001600160a01b0319168155600101805474ffffffffffffffffffffffffffffffffffffffffff19169055517f5e8652b9d1a24d82bfe7a9bfae71e26899d688827382d41f69b1c79342c586aa9190a25050565b6001546001600160a01b0316331461072e5760015460405163521eb56d60e11b81523360048201526001600160a01b0390911660248201526044016102bb565b6001600160a01b0381166107555760405163d92e233d60e01b815260040160405180910390fd5b600180546001600160a01b0319166001600160a01b0383169081179091556040517f4ffd725fc4a22075e9ec71c59edf9c38cdeb588a91b24fc5b61388c5be41282b905f90a250565b6001546001600160a01b031633146107de5760015460405163521eb56d60e11b81523360048201526001600160a01b0390911660248201526044016102bb565b600280546001600160a01b0319166001600160a01b0383169081179091556040517fd24015cc99cc1700cafca3042840a1d8ac1e3964fd2e0e37ea29c654056ee327905f90a250565b5f6001600354111561084c576040516345f5ce8b60e11b815260040160405180910390fd5b60026003556001600160a01b0383166108785760405163d92e233d60e01b815260040160405180910390fd5b826001600160a01b03163b5f036108ad5760405163601c0c2160e01b81526001600160a01b03841660048201526024016102bb565b6004825110156108df5781516004604051631a64813d60e11b81526004016102bb929190918252602082015260400190565b6002546001600160a01b0316801580159061095f5750604051634b19276b60e11b81526001600160a01b0385811660048301528216906396324ed690602401602060405180830381865afa158015610939573d5f803e3d5ffd5b505050506040513d601f19601f8201168201806040525081019061095d9190610e4b565b155b1561098857604051633df7a39d60e21b81526001600160a01b03851660048201526024016102bb565b5f80549061099582610c54565b90505f604051806020016109a890610caf565b601f1982820381018352601f9091011660408190526109d591906001600160a01b038a1690602001610e7d565b6040516020818303038152906040529050818151826020015ff594506001600160a01b038516610a23576040516329c25ebd60e11b81526001600160a01b03881660048201526024016102bb565b5f80866001600160a01b031688604051610a3d9190610e95565b5f604051808303815f865af19150503d805f8114610a76576040519150601f19603f3d011682016040523d82523d5f602084013e610a7b565b606091505b509150915081610ab957805115610a955780518082602001fd5b604051633c4c93c960e21b81526001600160a01b03881660048201526024016102bb565b6001600160a01b03861615801590610b3e57506040516369be670b60e01b81526001600160a01b0388811660048301528a811660248301528716906369be670b90604401602060405180830381865afa158015610b18573d5f803e3d5ffd5b505050506040513d601f19601f82011682018060405250810190610b3c9190610e4b565b155b15610b6757604051630a7f26af60e21b81526001600160a01b03881660048201526024016102bb565b604080516060810182526001600160a01b038b8116825233602080840191825260018486018181528d85165f908152600490935295909120845181546001600160a01b0319169085161781559151918101805495519290931674ffffffffffffffffffffffffffffffffffffffffff1990951694909417600160a01b9115159190910217905590610bf9908790610eb4565b5f9081556040516001600160a01b03808d1692908b169133917fc88bd7cfbe8bae024ebb6f3cf291adfd7db2588a07e1c78768ea3c81b992496b91a45050600160035550939695505050505050565b5f6105ff825f54610531565b5f468233610c63600143610ec7565b6040805160208101959095528401929092526001600160a01b031660608301524060808201524260a082015260c001604051602081830303815290604052805190602001209050919050565b6101e780610edb83390190565b80356001600160a01b0381168114610cd2575f80fd5b919050565b8015158114610ce4575f80fd5b50565b5f8060408385031215610cf8575f80fd5b610d0183610cbc565b91506020830135610d1181610cd7565b809150509250929050565b5f60208284031215610d2c575f80fd5b610d3582610cbc565b9392505050565b5f8060408385031215610d4d575f80fd5b610d5683610cbc565b946020939093013593505050565b634e487b7160e01b5f52604160045260245ffd5b5f8060408385031215610d89575f80fd5b610d9283610cbc565b9150602083013567ffffffffffffffff80821115610dae575f80fd5b818501915085601f830112610dc1575f80fd5b813581811115610dd357610dd3610d64565b604051601f8201601f19908116603f01168101908382118183101715610dfb57610dfb610d64565b81604052828152886020848701011115610e13575f80fd5b826020860160208301375f6020848301015280955050505050509250929050565b5f60208284031215610e44575f80fd5b5051919050565b5f60208284031215610e5b575f80fd5b8151610d3581610cd7565b5f81518060208401855e5f93019283525090919050565b5f610e888285610e66565b9283525050602001919050565b5f610d358284610e66565b634e487b7160e01b5f52601160045260245ffd5b808201808211156105ff576105ff610ea0565b818103818111156105ff576105ff610ea056fe6080604052348015600e575f80fd5b506040516101e73803806101e7833981016040819052602b916077565b6001600160a01b03811660515760405163d02c623d60e01b815260040160405180910390fd5b7f9e5e169c1098011e4e5940a3ec1797686b2a8294a9b77a4c676b121bdc0ebb5e5560a2565b5f602082840312156086575f80fd5b81516001600160a01b0381168114609b575f80fd5b9392505050565b610138806100af5f395ff3fe608060405260043610610028575f3560e01c806346032dbc14610069578063aaf10f42146100af575b7f9e5e169c1098011e4e5940a3ec1797686b2a8294a9b77a4c676b121bdc0ebb5e54365f80375f80365f845af490503d5f803e80610064573d5ffd5b503d5ff35b348015610074575f80fd5b5061009c7f9e5e169c1098011e4e5940a3ec1797686b2a8294a9b77a4c676b121bdc0ebb5e81565b6040519081526020015b60405180910390f35b3480156100ba575f80fd5b507f9e5e169c1098011e4e5940a3ec1797686b2a8294a9b77a4c676b121bdc0ebb5e5460405173ffffffffffffffffffffffffffffffffffffffff90911681526020016100a656fea2646970667358221220cd2f3d25e9410d8ca6f1f5af516d26b4d6351d087dd182806de06350446497fb64736f6c63430008190033a2646970667358221220c7c877e3bd5012d4b978ad07d61e0409822a9c5c93866ac784dc412bf002521164736f6c63430008190033",
  "linkReferences": {},
  "deployedLinkReferences": {}
}