{
  "_format": "hh-sol-artifact-1",
  "contractName": "GnosisSafeSameAddressMultisig",
  "sourceName": "contracts/multisigs/GnosisSafeSameAddressMultisig.sol",
  "abi": [
    {
      "inputs": [
        {
          "internalType": "bytes32",
          "name": "_proxyHash",
          "type": "bytes32"
        }
      ],
      "stateMutability": "nonpayable",
      "type": "constructor"
    },
    {
      "inputs": [
        {
          "internalType": "uint256",
          "name": "expected",
          "type": "uint256"
        },
        {
          "internalType": "uint256",
          "name": "provided",
          "type": "uint256"
        }
      ],
      "name": "IncorrectDataLength",
      "type": "error"
    },
    {
      "inputs": [
        {
          "internalType": "address",
          "name": "provided",
          "type": "address"
        }
      ],
      "name": "MultisigExecFailed",
      "type": "error"
    },
    {
      "inputs": [
        {
          "internalType": "address",
          "name": "multisig",
          "type": "address"
        }
      ],
      "name": "UnauthorizedMultisig",
      "type": "error"
    },
    {
      "inputs": [
        {
          "internalType": "uint256",
          "name": "expected",
          "type": "uint256"
        },
        {
          "internalType": "uint256",
          "name": "provided",
          "type": "uint256"
        }
      ],
      "name": "WrongNumOwners",
      "type": "error"
    },
    {
      "inputs": [
        {
          "internalType": "address",
          "name": "provided",
          "type": "address"
        }
      ],
      "name": "WrongOwner",
      "type": "error"
    },
    {
      "inputs": [
        {
          "internalType": "uint256",
          "name": "expected",
          "type": "uint256"
        },
        {
          "internalType": "uint256",
          "name": "provided",
          "type": "uint256"
        }
      ],
      "name": "WrongThreshold",
      "type": "error"
    },
    {
      "inputs": [],
      "name": "ZeroValue",
      "type": "error"
    },
    {
      "inputs": [],
      "name": "DEFAULT_DATA_LENGTH",
      "outputs": [
        {
          "internalType": "uint256",
          "name": "",
          "type": "uint256"
        }
      ],
      "stateMutability": "view",
      "type": "function"
    },
    {
      "inputs": [
        {
          "internalType": "address[]",
          "name": "owners",
          "type": "address[]"
        },
        {
          "internalType": "uint256",
          "name": "threshold",
          "type": "uint256"
        },
        {
          "internalType": "bytes",
          "name": "data",
          "type": "bytes"
        }
      ],
      "name": "create",
      "outputs": [
        {
          "internalType": "address",
          "name": "multisig",
          "type": "address"
        }
      ],
      "stateMutability": "nonpayable",
      "type": "function"
    },
    {
      "inputs": [],
      "name": "proxyHash",
      "outputs": [
        {
          "internalType": "bytes32",
          "name": "",
          "type": "bytes32"
        }
      ],
      "stateMutability": "view",
      "type": "function"
    }
  ],
  "bytecode": "0x60a0604052348015600e575f5ffd5b5060405161083d38038061083d833981016040819052602b91604f565b80604857604051637c946ed760e01b815260040160405180910390fd5b6080526065565b5f60208284031215605e575f5ffd5b5051919050565b6080516107ba6100835f395f81816048015261012101526107ba5ff3fe608060405234801561000f575f5ffd5b506004361061003f575f3560e01c8063809cee2f14610043578063f02fb7741461007d578063f398dba814610085575b5f5ffd5b61006a7f000000000000000000000000000000000000000000000000000000000000000081565b6040519081526020015b60405180910390f35b61006a601481565b610098610093366004610597565b6100b0565b6040516001600160a01b039091168152602001610074565b80515f9060148110156100e8578251604051631a64813d60e11b81526014600482015260248101919091526044015b60405180910390fd5b601483015191505f826001600160a01b0316803b806020016040519081016040528181525f908060200190933c805190602001209050807f0000000000000000000000000000000000000000000000000000000000000000146101685760405162a2307960e51b81526001600160a01b03841660048201526024016100df565b60148211156102c8575f61017d60148461067d565b90505f8167ffffffffffffffff811115610199576101996104ac565b6040519080825280601f01601f1916602001820160405280156101c3576020820181803683370190505b5090505f5b8281101561023f57866101dc601483610696565b815181106101ec576101ec6106a9565b602001015160f81c60f81b828281518110610209576102096106a9565b60200101907effffffffffffffffffffffffffffffffffffffffffffffffffffffffffffff191690815f1a9053506001016101c8565b505f856001600160a01b03168260405161025991906106bd565b5f604051808303815f865af19150503d805f8114610292576040519150601f19603f3d011682016040523d82523d5f602084013e610297565b606091505b50509050806102c457604051632aacb4bd60e21b81526001600160a01b03871660048201526024016100df565b5050505b5f836001600160a01b031663a0e67e2b6040518163ffffffff1660e01b81526004015f60405180830381865afa158015610304573d5f5f3e3d5ffd5b505050506040513d5f823e601f3d908101601f1916820160405261032b91908101906106d3565b90505f846001600160a01b031663e75235b86040518163ffffffff1660e01b8152600401602060405180830381865afa15801561036a573d5f5f3e3d5ffd5b505050506040513d601f19601f8201168201806040525081019061038e919061076d565b90508087146103ba57604051635372461560e01b815260048101829052602481018890526044016100df565b8751825181146103ea57825160405163f720290d60e01b81526004810191909152602481018290526044016100df565b5f5b8181101561049f57836001610401838561067d565b61040b919061067d565b8151811061041b5761041b6106a9565b60200260200101516001600160a01b03168a828151811061043e5761043e6106a9565b60200260200101516001600160a01b03161461049757898181518110610466576104666106a9565b60200260200101516040516374dba67360e01b81526004016100df91906001600160a01b0391909116815260200190565b6001016103ec565b5050505050509392505050565b634e487b7160e01b5f52604160045260245ffd5b604051601f8201601f1916810167ffffffffffffffff811182821017156104e9576104e96104ac565b604052919050565b5f67ffffffffffffffff82111561050a5761050a6104ac565b5060051b60200190565b6001600160a01b0381168114610528575f5ffd5b50565b5f82601f83011261053a575f5ffd5b813567ffffffffffffffff811115610554576105546104ac565b610567601f8201601f19166020016104c0565b81815284602083860101111561057b575f5ffd5b816020850160208301375f918101602001919091529392505050565b5f5f5f606084860312156105a9575f5ffd5b833567ffffffffffffffff8111156105bf575f5ffd5b8401601f810186136105cf575f5ffd5b80356105e26105dd826104f1565b6104c0565b8082825260208201915060208360051b850101925088831115610603575f5ffd5b6020840193505b8284101561062e57833561061d81610514565b82526020938401939091019061060a565b955050505060208401359150604084013567ffffffffffffffff811115610653575f5ffd5b61065f8682870161052b565b9150509250925092565b634e487b7160e01b5f52601160045260245ffd5b8181038181111561069057610690610669565b92915050565b8082018082111561069057610690610669565b634e487b7160e01b5f52603260045260245ffd5b5f82518060208501845e5f920191825250919050565b5f602082840312156106e3575f5ffd5b815167ffffffffffffffff8111156106f9575f5ffd5b8201601f81018413610709575f5ffd5b80516107176105dd826104f1565b8082825260208201915060208360051b850101925086831115610738575f5ffd5b6020840193505b8284101561076357835161075281610514565b82526020938401939091019061073f565b9695505050505050565b5f6020828403121561077d575f5ffd5b505191905056fea264697066735822122054940a26e43a356739380777f2892e973405513343a557f334fa52f250ce890d64736f6c634300081c0033",
  "linkReferences": {},
  "deployedLinkReferences": {}
}