{
  "_format": "hh-sol-artifact-1",
  "contractName": "OperatorWhitelist",
  "sourceName": "contracts/utils/OperatorWhitelist.sol",
  "abi": [
    {
      "inputs": [
        {
          "internalType": "address",
          "name": "_serviceRegistry",
          "type": "address"
        }
      ],
      "stateMutability": "nonpayable",
      "type": "constructor"
    },
    {
      "inputs": [
        {
          "internalType": "address",
          "name": "sender",
          "type": "address"
        },
        {
          "internalType": "address",
          "name": "owner",
          "type": "address"
        }
      ],
      "name": "OwnerOnly",
      "type": "error"
    },
    {
      "inputs": [
        {
          "internalType": "uint256",
          "name": "numValues1",
          "type": "uint256"
        },
        {
          "internalType": "uint256",
          "name": "numValues2",
          "type": "uint256"
        }
      ],
      "name": "WrongArrayLength",
      "type": "error"
    },
    {
      "inputs": [],
      "name": "ZeroAddress",
      "type": "error"
    },
    {
      "anonymous": false,
      "inputs": [
        {
          "indexed": true,
          "internalType": "address",
          "name": "serviceOwner",
          "type": "address"
        },
        {
          "indexed": true,
          "internalType": "uint256",
          "name": "serviceId",
          "type": "uint256"
        }
      ],
      "name": "OperatorsWhitelistCheckSet",
      "type": "event"
    },
    {
      "anonymous": false,
      "inputs": [
        {
          "indexed": true,
          "internalType": "address",
          "name": "serviceOwner",
          "type": "address"
        },
        {
          "indexed": true,
          "internalType": "uint256",
          "name": "serviceId",
          "type": "uint256"
        },
        {
          "indexed": false,
          "internalType": "address[]",
          "name": "operators",
          "type": "address[]"
        },
        {
          "indexed": false,
          "internalType": "bool[]",
          "name": "statuses",
          "type": "bool[]"
        },
        {
          "indexed": false,
          "internalType": "bool",
          "name": "setCheck",
          "type": "bool"
        }
      ],
      "name": "OperatorsWhitelistUpdated",
      "type": "event"
    },
    {
      "anonymous": false,
      "inputs": [
        {
          "indexed": true,
          "internalType": "address",
          "name": "serviceOwner",
          "type": "address"
        },
        {
          "indexed": true,
          "internalType": "uint256",
          "name": "serviceId",
          "type": "uint256"
        },
        {
          "indexed": false,
          "internalType": "bool",
          "name": "setCheck",
          "type": "bool"
        }
      ],
      "name": "SetOperatorsCheck",
      "type": "event"
    },
    {
      "inputs": [
        {
          "internalType": "uint256",
          "name": "serviceId",
          "type": "uint256"
        },
        {
          "internalType": "address",
          "name": "operator",
          "type": "address"
        }
      ],
      "name": "isOperatorWhitelisted",
      "outputs": [
        {
          "internalType": "bool",
          "name": "status",
          "type": "bool"
        }
      ],
      "stateMutability": "view",
      "type": "function"
    },
    {
      "inputs": [
        {
          "internalType": "uint256",
          "name": "",
          "type": "uint256"
        },
        {
          "internalType": "address",
          "name": "",
          "type": "address"
        }
      ],
      "name": "mapServiceIdOperators",
      "outputs": [
        {
          "internalType": "bool",
          "name": "",
          "type": "bool"
        }
      ],
      "stateMutability": "view",
      "type": "function"
    },
    {
      "inputs": [
        {
          "internalType": "uint256",
          "name": "",
          "type": "uint256"
        }
      ],
      "name": "mapServiceIdOperatorsCheck",
      "outputs": [
        {
          "internalType": "bool",
          "name": "",
          "type": "bool"
        }
      ],
      "stateMutability": "view",
      "type": "function"
    },
    {
      "inputs": [],
      "name": "serviceRegistry",
      "outputs": [
        {
          "internalType": "address",
          "name": "",
          "type": "address"
        }
      ],
      "stateMutability": "view",
      "type": "function"
    },
    {
      "inputs": [
        {
          "internalType": "uint256",
          "name": "serviceId",
          "type": "uint256"
        },
        {
          "internalType": "bool",
          "name": "setCheck",
          "type": "bool"
        }
      ],
      "name": "setOperatorsCheck",
      "outputs": [],
      "stateMutability": "nonpayable",
      "type": "function"
    },
    {
      "inputs": [
        {
          "internalType": "uint256",
          "name": "serviceId",
          "type": "uint256"
        },
        {
          "internalType": "address[]",
          "name": "operators",
          "type": "address[]"
        },
        {
          "internalType": "bool[]",
          "name": "statuses",
          "type": "bool[]"
        },
        {
          "internalType": "bool",
          "name": "setCheck",
          "type": "bool"
        }
      ],
      "name": "setOperatorsStatuses",
      "outputs": [],
      "stateMutability": "nonpayable",
      "type": "function"
    }
  ],
  "bytecode": "0x60a060405234801561000f575f5ffd5b506040516109a63803806109a683398101604081905261002e91610066565b6001600160a01b0381166100555760405163d92e233d60e01b815260040160405180910390fd5b6001600160a01b0316608052610093565b5f60208284031215610076575f5ffd5b81516001600160a01b038116811461008c575f5ffd5b9392505050565b6080516108e76100bf5f395f818160f5015281816101a9015281816103a4015261049201526108e75ff3fe608060405234801561000f575f5ffd5b506004361061006f575f3560e01c8063bb4f56f01161004d578063bb4f56f0146100dd578063cbcf252a146100f0578063ecc4060c1461012f575f5ffd5b806345131adb1461007357806356a7b607146100885780635c2f6ef4146100b0575b5f5ffd5b61008661008136600461069a565b610151565b005b61009b610096366004610778565b610389565b60405190151581526020015b60405180910390f35b61009b6100be366004610778565b600160209081525f928352604080842090915290825290205460ff1681565b6100866100eb3660046107a6565b61047a565b6101177f000000000000000000000000000000000000000000000000000000000000000081565b6040516001600160a01b0390911681526020016100a7565b61009b61013d3660046107d0565b5f6020819052908152604090205460ff1681565b8251158061016157508151835114155b1561019157825182516040516308151c1160e41b8152600481019290925260248201526044015b60405180910390fd5b6040516331a9108f60e11b8152600481018590525f907f00000000000000000000000000000000000000000000000000000000000000006001600160a01b031690636352211e90602401602060405180830381865afa1580156101f6573d5f5f3e3d5ffd5b505050506040513d601f19601f8201168201806040525081019061021a91906107e7565b90506001600160a01b03811633146102565760405163521eb56d60e11b81526001600160a01b0382166004820152336024820152604401610188565b5f858152602081905260408120805460ff19168415151790555b845181101561033b575f6001600160a01b031685828151811061029557610295610809565b60200260200101516001600160a01b0316036102c45760405163d92e233d60e01b815260040160405180910390fd5b8381815181106102d6576102d6610809565b602002602001015160015f8881526020019081526020015f205f87848151811061030257610302610809565b6020908102919091018101516001600160a01b031682528101919091526040015f20805460ff1916911515919091179055600101610270565b5084336001600160a01b03167f468d072a954ba60f48b97590cdedbb50ed040a6c0b7419e7e26e8c30f0d4698986868660405161037a9392919061081d565b60405180910390a35050505050565b6040516331a9108f60e11b8152600481018390526001905f907f00000000000000000000000000000000000000000000000000000000000000006001600160a01b031690636352211e90602401602060405180830381865afa1580156103f1573d5f5f3e3d5ffd5b505050506040513d601f19601f8201168201806040525081019061041591906107e7565b9050826001600160a01b0316816001600160a01b03161415801561044657505f8481526020819052604090205460ff165b15610473575f8481526001602090815260408083206001600160a01b038716845290915290205460ff1691505b5092915050565b6040516331a9108f60e11b8152600481018390525f907f00000000000000000000000000000000000000000000000000000000000000006001600160a01b031690636352211e90602401602060405180830381865afa1580156104df573d5f5f3e3d5ffd5b505050506040513d601f19601f8201168201806040525081019061050391906107e7565b90506001600160a01b038116331461053f5760405163521eb56d60e11b81526001600160a01b0382166004820152336024820152604401610188565b5f8381526020818152604091829020805460ff19168515159081179091559151918252849133917f23b65c8cb3df8015266b5a426d083d4b0c7ac26d5acba4be838cf8e01626742c910160405180910390a3505050565b634e487b7160e01b5f52604160045260245ffd5b604051601f8201601f1916810167ffffffffffffffff811182821017156105d3576105d3610596565b604052919050565b5f67ffffffffffffffff8211156105f4576105f4610596565b5060051b60200190565b6001600160a01b0381168114610612575f5ffd5b50565b80358015158114610624575f5ffd5b919050565b5f82601f830112610638575f5ffd5b813561064b610646826105db565b6105aa565b8082825260208201915060208360051b86010192508583111561066c575f5ffd5b602085015b838110156106905761068281610615565b835260209283019201610671565b5095945050505050565b5f5f5f5f608085870312156106ad575f5ffd5b84359350602085013567ffffffffffffffff8111156106ca575f5ffd5b8501601f810187136106da575f5ffd5b80356106e8610646826105db565b8082825260208201915060208360051b850101925089831115610709575f5ffd5b6020840193505b82841015610734578335610723816105fe565b825260209384019390910190610710565b9550505050604085013567ffffffffffffffff811115610752575f5ffd5b61075e87828801610629565b92505061076d60608601610615565b905092959194509250565b5f5f60408385031215610789575f5ffd5b82359150602083013561079b816105fe565b809150509250929050565b5f5f604083850312156107b7575f5ffd5b823591506107c760208401610615565b90509250929050565b5f602082840312156107e0575f5ffd5b5035919050565b5f602082840312156107f7575f5ffd5b8151610802816105fe565b9392505050565b634e487b7160e01b5f52603260045260245ffd5b606080825284519082018190525f9060208601906080840190835b8181101561085f5783516001600160a01b0316835260209384019390920191600101610838565b5050838103602080860191909152865180835291810192508601905f5b8181101561089c578251151584526020938401939092019160010161087c565b5050508315156040840152905094935050505056fea2646970667358221220911f058fb87de08f48ab786f930362c477461ff8c81c812d4b8c104eeefaad9664736f6c634300081c0033",
  "linkReferences": {},
  "deployedLinkReferences": {}
}