{
  "_format": "hh-sol-artifact-1",
  "contractName": "ServiceManagerToken",
  "sourceName": "contracts/ServiceManagerToken.sol",
  "abi": [
    {
      "inputs": [
        {
          "internalType": "address",
          "name": "_serviceRegistry",
          "type": "address"
        },
        {
          "internalType": "address",
          "name": "_serviceRegistryTokenUtility",
          "type": "address"
        },
        {
          "internalType": "address",
          "name": "_operatorWhitelist",
          "type": "address"
        }
      ],
      "stateMutability": "nonpayable",
      "type": "constructor"
    },
    {
      "inputs": [
        {
          "internalType": "address",
          "name": "operator",
          "type": "address"
        }
      ],
      "name": "AgentInstanceRegistered",
      "type": "error"
    },
    {
      "inputs": [
        {
          "internalType": "uint256",
          "name": "serviceId",
          "type": "uint256"
        }
      ],
      "name": "AgentInstancesSlotsFilled",
      "type": "error"
    },
    {
      "inputs": [
        {
          "internalType": "uint256",
          "name": "agentId",
          "type": "uint256"
        }
      ],
      "name": "AgentNotFound",
      "type": "error"
    },
    {
      "inputs": [
        {
          "internalType": "uint256",
          "name": "agentId",
          "type": "uint256"
        },
        {
          "internalType": "uint256",
          "name": "serviceId",
          "type": "uint256"
        }
      ],
      "name": "AgentNotInService",
      "type": "error"
    },
    {
      "inputs": [
        {
          "internalType": "uint256",
          "name": "componentId",
          "type": "uint256"
        }
      ],
      "name": "ComponentNotFound",
      "type": "error"
    },
    {
      "inputs": [],
      "name": "HashExists",
      "type": "error"
    },
    {
      "inputs": [
        {
          "internalType": "address",
          "name": "operator",
          "type": "address"
        },
        {
          "internalType": "bytes32",
          "name": "msgHash",
          "type": "bytes32"
        },
        {
          "internalType": "bytes",
          "name": "signature",
          "type": "bytes"
        }
      ],
      "name": "HashNotApproved",
      "type": "error"
    },
    {
      "inputs": [
        {
          "internalType": "address",
          "name": "operator",
          "type": "address"
        },
        {
          "internalType": "bytes32",
          "name": "msgHash",
          "type": "bytes32"
        },
        {
          "internalType": "bytes",
          "name": "signature",
          "type": "bytes"
        }
      ],
      "name": "HashNotValidated",
      "type": "error"
    },
    {
      "inputs": [
        {
          "internalType": "uint256",
          "name": "sent",
          "type": "uint256"
        },
        {
          "internalType": "uint256",
          "name": "expected",
          "type": "uint256"
        },
        {
          "internalType": "uint256",
          "name": "serviceId",
          "type": "uint256"
        }
      ],
      "name": "IncorrectAgentBondingValue",
      "type": "error"
    },
    {
      "inputs": [
        {
          "internalType": "uint256",
          "name": "sent",
          "type": "uint256"
        },
        {
          "internalType": "uint256",
          "name": "expected",
          "type": "uint256"
        },
        {
          "internalType": "uint256",
          "name": "serviceId",
          "type": "uint256"
        }
      ],
      "name": "IncorrectRegistrationDepositValue",
      "type": "error"
    },
    {
      "inputs": [
        {
          "internalType": "bytes",
          "name": "signature",
          "type": "bytes"
        },
        {
          "internalType": "uint256",
          "name": "provided",
          "type": "uint256"
        },
        {
          "internalType": "uint256",
          "name": "expected",
          "type": "uint256"
        }
      ],
      "name": "IncorrectSignatureLength",
      "type": "error"
    },
    {
      "inputs": [
        {
          "internalType": "address",
          "name": "sender",
          "type": "address"
        },
        {
          "internalType": "address",
          "name": "manager",
          "type": "address"
        }
      ],
      "name": "ManagerOnly",
      "type": "error"
    },
    {
      "inputs": [
        {
          "internalType": "address",
          "name": "provided",
          "type": "address"
        },
        {
          "internalType": "address",
          "name": "expected",
          "type": "address"
        },
        {
          "internalType": "uint256",
          "name": "serviceId",
          "type": "uint256"
        }
      ],
      "name": "OnlyOwnServiceMultisig",
      "type": "error"
    },
    {
      "inputs": [
        {
          "internalType": "address",
          "name": "operator",
          "type": "address"
        },
        {
          "internalType": "uint256",
          "name": "serviceId",
          "type": "uint256"
        }
      ],
      "name": "OperatorHasNoInstances",
      "type": "error"
    },
    {
      "inputs": [
        {
          "internalType": "uint256",
          "name": "provided",
          "type": "uint256"
        },
        {
          "internalType": "uint256",
          "name": "max",
          "type": "uint256"
        }
      ],
      "name": "Overflow",
      "type": "error"
    },
    {
      "inputs": [
        {
          "internalType": "address",
          "name": "sender",
          "type": "address"
        },
        {
          "internalType": "address",
          "name": "owner",
          "type": "address"
        }
      ],
      "name": "OwnerOnly",
      "type": "error"
    },
    {
      "inputs": [],
      "name": "Paused",
      "type": "error"
    },
    {
      "inputs": [],
      "name": "ReentrancyGuard",
      "type": "error"
    },
    {
      "inputs": [
        {
          "internalType": "uint256",
          "name": "serviceId",
          "type": "uint256"
        }
      ],
      "name": "ServiceMustBeInactive",
      "type": "error"
    },
    {
      "inputs": [
        {
          "internalType": "address",
          "name": "token",
          "type": "address"
        },
        {
          "internalType": "address",
          "name": "from",
          "type": "address"
        },
        {
          "internalType": "address",
          "name": "to",
          "type": "address"
        },
        {
          "internalType": "uint256",
          "name": "value",
          "type": "uint256"
        }
      ],
      "name": "TransferFailed",
      "type": "error"
    },
    {
      "inputs": [
        {
          "internalType": "address",
          "name": "multisig",
          "type": "address"
        }
      ],
      "name": "UnauthorizedMultisig",
      "type": "error"
    },
    {
      "inputs": [
        {
          "internalType": "uint256",
          "name": "agentId",
          "type": "uint256"
        }
      ],
      "name": "WrongAgentId",
      "type": "error"
    },
    {
      "inputs": [
        {
          "internalType": "uint256",
          "name": "numValues1",
          "type": "uint256"
        },
        {
          "internalType": "uint256",
          "name": "numValues2",
          "type": "uint256"
        }
      ],
      "name": "WrongArrayLength",
      "type": "error"
    },
    {
      "inputs": [
        {
          "internalType": "uint256",
          "name": "serviceId",
          "type": "uint256"
        }
      ],
      "name": "WrongOperator",
      "type": "error"
    },
    {
      "inputs": [
        {
          "internalType": "address",
          "name": "provided",
          "type": "address"
        },
        {
          "internalType": "address",
          "name": "expected",
          "type": "address"
        }
      ],
      "name": "WrongOperatorAddress",
      "type": "error"
    },
    {
      "inputs": [
        {
          "internalType": "uint256",
          "name": "state",
          "type": "uint256"
        },
        {
          "internalType": "uint256",
          "name": "serviceId",
          "type": "uint256"
        }
      ],
      "name": "WrongServiceState",
      "type": "error"
    },
    {
      "inputs": [
        {
          "internalType": "uint256",
          "name": "currentThreshold",
          "type": "uint256"
        },
        {
          "internalType": "uint256",
          "name": "minThreshold",
          "type": "uint256"
        },
        {
          "internalType": "uint256",
          "name": "maxThreshold",
          "type": "uint256"
        }
      ],
      "name": "WrongThreshold",
      "type": "error"
    },
    {
      "inputs": [],
      "name": "ZeroAddress",
      "type": "error"
    },
    {
      "inputs": [],
      "name": "ZeroOperatorAddress",
      "type": "error"
    },
    {
      "inputs": [],
      "name": "ZeroValue",
      "type": "error"
    },
    {
      "anonymous": false,
      "inputs": [
        {
          "indexed": true,
          "internalType": "address",
          "name": "multisig",
          "type": "address"
        }
      ],
      "name": "CreateMultisig",
      "type": "event"
    },
    {
      "anonymous": false,
      "inputs": [
        {
          "indexed": true,
          "internalType": "address",
          "name": "operator",
          "type": "address"
        },
        {
          "indexed": false,
          "internalType": "bytes32",
          "name": "hash",
          "type": "bytes32"
        }
      ],
      "name": "OperatorHashApproved",
      "type": "event"
    },
    {
      "anonymous": false,
      "inputs": [
        {
          "indexed": true,
          "internalType": "address",
          "name": "operatorWhitelist",
          "type": "address"
        }
      ],
      "name": "OperatorWhitelistUpdated",
      "type": "event"
    },
    {
      "anonymous": false,
      "inputs": [
        {
          "indexed": true,
          "internalType": "address",
          "name": "owner",
          "type": "address"
        }
      ],
      "name": "OwnerUpdated",
      "type": "event"
    },
    {
      "anonymous": false,
      "inputs": [
        {
          "indexed": true,
          "internalType": "address",
          "name": "owner",
          "type": "address"
        }
      ],
      "name": "Pause",
      "type": "event"
    },
    {
      "anonymous": false,
      "inputs": [
        {
          "indexed": true,
          "internalType": "address",
          "name": "owner",
          "type": "address"
        }
      ],
      "name": "Unpause",
      "type": "event"
    },
    {
      "inputs": [],
      "name": "BOND_WRAPPER",
      "outputs": [
        {
          "internalType": "uint96",
          "name": "",
          "type": "uint96"
        }
      ],
      "stateMutability": "view",
      "type": "function"
    },
    {
      "inputs": [],
      "name": "DOMAIN_SEPARATOR_TYPE_HASH",
      "outputs": [
        {
          "internalType": "bytes32",
          "name": "",
          "type": "bytes32"
        }
      ],
      "stateMutability": "view",
      "type": "function"
    },
    {
      "inputs": [],
      "name": "ETH_TOKEN_ADDRESS",
      "outputs": [
        {
          "internalType": "address",
          "name": "",
          "type": "address"
        }
      ],
      "stateMutability": "view",
      "type": "function"
    },
    {
      "inputs": [],
      "name": "REGISTER_AGENTS_TYPE_HASH",
      "outputs": [
        {
          "internalType": "bytes32",
          "name": "",
          "type": "bytes32"
        }
      ],
      "stateMutability": "view",
      "type": "function"
    },
    {
      "inputs": [],
      "name": "UNBOND_TYPE_HASH",
      "outputs": [
        {
          "internalType": "bytes32",
          "name": "",
          "type": "bytes32"
        }
      ],
      "stateMutability": "view",
      "type": "function"
    },
    {
      "inputs": [
        {
          "internalType": "uint256",
          "name": "serviceId",
          "type": "uint256"
        }
      ],
      "name": "activateRegistration",
      "outputs": [
        {
          "internalType": "bool",
          "name": "success",
          "type": "bool"
        }
      ],
      "stateMutability": "payable",
      "type": "function"
    },
    {
      "inputs": [],
      "name": "chainId",
      "outputs": [
        {
          "internalType": "uint256",
          "name": "",
          "type": "uint256"
        }
      ],
      "stateMutability": "view",
      "type": "function"
    },
    {
      "inputs": [
        {
          "internalType": "address",
          "name": "newOwner",
          "type": "address"
        }
      ],
      "name": "changeOwner",
      "outputs": [],
      "stateMutability": "nonpayable",
      "type": "function"
    },
    {
      "inputs": [
        {
          "internalType": "address",
          "name": "serviceOwner",
          "type": "address"
        },
        {
          "internalType": "address",
          "name": "token",
          "type": "address"
        },
        {
          "internalType": "bytes32",
          "name": "configHash",
          "type": "bytes32"
        },
        {
          "internalType": "uint32[]",
          "name": "agentIds",
          "type": "uint32[]"
        },
        {
          "components": [
            {
              "internalType": "uint32",
              "name": "slots",
              "type": "uint32"
            },
            {
              "internalType": "uint96",
              "name": "bond",
              "type": "uint96"
            }
          ],
          "internalType": "struct IService.AgentParams[]",
          "name": "agentParams",
          "type": "tuple[]"
        },
        {
          "internalType": "uint32",
          "name": "threshold",
          "type": "uint32"
        }
      ],
      "name": "create",
      "outputs": [
        {
          "internalType": "uint256",
          "name": "serviceId",
          "type": "uint256"
        }
      ],
      "stateMutability": "nonpayable",
      "type": "function"
    },
    {
      "inputs": [
        {
          "internalType": "uint256",
          "name": "serviceId",
          "type": "uint256"
        },
        {
          "internalType": "address",
          "name": "multisigImplementation",
          "type": "address"
        },
        {
          "internalType": "bytes",
          "name": "data",
          "type": "bytes"
        }
      ],
      "name": "deploy",
      "outputs": [
        {
          "internalType": "address",
          "name": "multisig",
          "type": "address"
        }
      ],
      "stateMutability": "nonpayable",
      "type": "function"
    },
    {
      "inputs": [],
      "name": "domainSeparator",
      "outputs": [
        {
          "internalType": "bytes32",
          "name": "",
          "type": "bytes32"
        }
      ],
      "stateMutability": "view",
      "type": "function"
    },
    {
      "inputs": [],
      "name": "getDomainSeparator",
      "outputs": [
        {
          "internalType": "bytes32",
          "name": "",
          "type": "bytes32"
        }
      ],
      "stateMutability": "view",
      "type": "function"
    },
    {
      "inputs": [
        {
          "internalType": "address",
          "name": "operator",
          "type": "address"
        },
        {
          "internalType": "uint256",
          "name": "serviceId",
          "type": "uint256"
        }
      ],
      "name": "getOperatorRegisterAgentsNonce",
      "outputs": [
        {
          "internalType": "uint256",
          "name": "nonce",
          "type": "uint256"
        }
      ],
      "stateMutability": "view",
      "type": "function"
    },
    {
      "inputs": [
        {
          "internalType": "address",
          "name": "operator",
          "type": "address"
        },
        {
          "internalType": "uint256",
          "name": "serviceId",
          "type": "uint256"
        }
      ],
      "name": "getOperatorUnbondNonce",
      "outputs": [
        {
          "internalType": "uint256",
          "name": "nonce",
          "type": "uint256"
        }
      ],
      "stateMutability": "view",
      "type": "function"
    },
    {
      "inputs": [
        {
          "internalType": "address",
          "name": "operator",
          "type": "address"
        },
        {
          "internalType": "address",
          "name": "serviceOwner",
          "type": "address"
        },
        {
          "internalType": "uint256",
          "name": "serviceId",
          "type": "uint256"
        },
        {
          "internalType": "address[]",
          "name": "agentInstances",
          "type": "address[]"
        },
        {
          "internalType": "uint32[]",
          "name": "agentIds",
          "type": "uint32[]"
        },
        {
          "internalType": "uint256",
          "name": "nonce",
          "type": "uint256"
        }
      ],
      "name": "getRegisterAgentsHash",
      "outputs": [
        {
          "internalType": "bytes32",
          "name": "",
          "type": "bytes32"
        }
      ],
      "stateMutability": "view",
      "type": "function"
    },
    {
      "inputs": [
        {
          "internalType": "address",
          "name": "operator",
          "type": "address"
        },
        {
          "internalType": "address",
          "name": "serviceOwner",
          "type": "address"
        },
        {
          "internalType": "uint256",
          "name": "serviceId",
          "type": "uint256"
        },
        {
          "internalType": "uint256",
          "name": "nonce",
          "type": "uint256"
        }
      ],
      "name": "getUnbondHash",
      "outputs": [
        {
          "internalType": "bytes32",
          "name": "",
          "type": "bytes32"
        }
      ],
      "stateMutability": "view",
      "type": "function"
    },
    {
      "inputs": [
        {
          "internalType": "address",
          "name": "operator",
          "type": "address"
        },
        {
          "internalType": "bytes32",
          "name": "hash",
          "type": "bytes32"
        }
      ],
      "name": "isOperatorHashApproved",
      "outputs": [
        {
          "internalType": "bool",
          "name": "",
          "type": "bool"
        }
      ],
      "stateMutability": "view",
      "type": "function"
    },
    {
      "inputs": [
        {
          "internalType": "address",
          "name": "",
          "type": "address"
        },
        {
          "internalType": "bytes32",
          "name": "",
          "type": "bytes32"
        }
      ],
      "name": "mapOperatorApprovedHashes",
      "outputs": [
        {
          "internalType": "bool",
          "name": "",
          "type": "bool"
        }
      ],
      "stateMutability": "view",
      "type": "function"
    },
    {
      "inputs": [
        {
          "internalType": "uint256",
          "name": "",
          "type": "uint256"
        }
      ],
      "name": "mapOperatorRegisterAgentsNonces",
      "outputs": [
        {
          "internalType": "uint256",
          "name": "",
          "type": "uint256"
        }
      ],
      "stateMutability": "view",
      "type": "function"
    },
    {
      "inputs": [
        {
          "internalType": "uint256",
          "name": "",
          "type": "uint256"
        }
      ],
      "name": "mapOperatorUnbondNonces",
      "outputs": [
        {
          "internalType": "uint256",
          "name": "",
          "type": "uint256"
        }
      ],
      "stateMutability": "view",
      "type": "function"
    },
    {
      "inputs": [],
      "name": "name",
      "outputs": [
        {
          "internalType": "string",
          "name": "",
          "type": "string"
        }
      ],
      "stateMutability": "view",
      "type": "function"
    },
    {
      "inputs": [],
      "name": "nameHash",
      "outputs": [
        {
          "internalType": "bytes32",
          "name": "",
          "type": "bytes32"
        }
      ],
      "stateMutability": "view",
      "type": "function"
    },
    {
      "inputs": [
        {
          "internalType": "bytes32",
          "name": "hash",
          "type": "bytes32"
        }
      ],
      "name": "operatorApproveHash",
      "outputs": [],
      "stateMutability": "nonpayable",
      "type": "function"
    },
    {
      "inputs": [],
      "name": "operatorWhitelist",
      "outputs": [
        {
          "internalType": "address",
          "name": "",
          "type": "address"
        }
      ],
      "stateMutability": "view",
      "type": "function"
    },
    {
      "inputs": [],
      "name": "owner",
      "outputs": [
        {
          "internalType": "address",
          "name": "",
          "type": "address"
        }
      ],
      "stateMutability": "view",
      "type": "function"
    },
    {
      "inputs": [],
      "name": "pause",
      "outputs": [],
      "stateMutability": "nonpayable",
      "type": "function"
    },
    {
      "inputs": [],
      "name": "paused",
      "outputs": [
        {
          "internalType": "bool",
          "name": "",
          "type": "bool"
        }
      ],
      "stateMutability": "view",
      "type": "function"
    },
    {
      "inputs": [
        {
          "internalType": "uint256",
          "name": "serviceId",
          "type": "uint256"
        },
        {
          "internalType": "address[]",
          "name": "agentInstances",
          "type": "address[]"
        },
        {
          "internalType": "uint32[]",
          "name": "agentIds",
          "type": "uint32[]"
        }
      ],
      "name": "registerAgents",
      "outputs": [
        {
          "internalType": "bool",
          "name": "success",
          "type": "bool"
        }
      ],
      "stateMutability": "payable",
      "type": "function"
    },
    {
      "inputs": [
        {
          "internalType": "address",
          "name": "operator",
          "type": "address"
        },
        {
          "internalType": "uint256",
          "name": "serviceId",
          "type": "uint256"
        },
        {
          "internalType": "address[]",
          "name": "agentInstances",
          "type": "address[]"
        },
        {
          "internalType": "uint32[]",
          "name": "agentIds",
          "type": "uint32[]"
        },
        {
          "internalType": "bytes",
          "name": "signature",
          "type": "bytes"
        }
      ],
      "name": "registerAgentsWithSignature",
      "outputs": [
        {
          "internalType": "bool",
          "name": "success",
          "type": "bool"
        }
      ],
      "stateMutability": "payable",
      "type": "function"
    },
    {
      "inputs": [],
      "name": "serviceRegistry",
      "outputs": [
        {
          "internalType": "address",
          "name": "",
          "type": "address"
        }
      ],
      "stateMutability": "view",
      "type": "function"
    },
    {
      "inputs": [],
      "name": "serviceRegistryTokenUtility",
      "outputs": [
        {
          "internalType": "address",
          "name": "",
          "type": "address"
        }
      ],
      "stateMutability": "view",
      "type": "function"
    },
    {
      "inputs": [
        {
          "internalType": "address",
          "name": "newOperatorWhitelist",
          "type": "address"
        }
      ],
      "name": "setOperatorWhitelist",
      "outputs": [],
      "stateMutability": "nonpayable",
      "type": "function"
    },
    {
      "inputs": [
        {
          "internalType": "uint256",
          "name": "serviceId",
          "type": "uint256"
        }
      ],
      "name": "terminate",
      "outputs": [
        {
          "internalType": "bool",
          "name": "success",
          "type": "bool"
        },
        {
          "internalType": "uint256",
          "name": "refund",
          "type": "uint256"
        }
      ],
      "stateMutability": "nonpayable",
      "type": "function"
    },
    {
      "inputs": [
        {
          "internalType": "uint256",
          "name": "serviceId",
          "type": "uint256"
        }
      ],
      "name": "unbond",
      "outputs": [
        {
          "internalType": "bool",
          "name": "success",
          "type": "bool"
        },
        {
          "internalType": "uint256",
          "name": "refund",
          "type": "uint256"
        }
      ],
      "stateMutability": "nonpayable",
      "type": "function"
    },
    {
      "inputs": [
        {
          "internalType": "address",
          "name": "operator",
          "type": "address"
        },
        {
          "internalType": "uint256",
          "name": "serviceId",
          "type": "uint256"
        },
        {
          "internalType": "bytes",
          "name": "signature",
          "type": "bytes"
        }
      ],
      "name": "unbondWithSignature",
      "outputs": [
        {
          "internalType": "bool",
          "name": "success",
          "type": "bool"
        },
        {
          "internalType": "uint256",
          "name": "refund",
          "type": "uint256"
        }
      ],
      "stateMutability": "nonpayable",
      "type": "function"
    },
    {
      "inputs": [],
      "name": "unpause",
      "outputs": [],
      "stateMutability": "nonpayable",
      "type": "function"
    },
    {
      "inputs": [
        {
          "internalType": "address",
          "name": "token",
          "type": "address"
        },
        {
          "internalType": "bytes32",
          "name": "configHash",
          "type": "bytes32"
        },
        {
          "internalType": "uint32[]",
          "name": "agentIds",
          "type": "uint32[]"
        },
        {
          "components": [
            {
              "internalType": "uint32",
              "name": "slots",
              "type": "uint32"
            },
            {
              "internalType": "uint96",
              "name": "bond",
              "type": "uint96"
            }
          ],
          "internalType": "struct IService.AgentParams[]",
          "name": "agentParams",
          "type": "tuple[]"
        },
        {
          "internalType": "uint32",
          "name": "threshold",
          "type": "uint32"
        },
        {
          "internalType": "uint256",
          "name": "serviceId",
          "type": "uint256"
        }
      ],
      "name": "update",
      "outputs": [
        {
          "internalType": "bool",
          "name": "success",
          "type": "bool"
        }
      ],
      "stateMutability": "nonpayable",
      "type": "function"
    },
    {
      "inputs": [],
      "name": "version",
      "outputs": [
        {
          "internalType": "string",
          "name": "",
          "type": "string"
        }
      ],
      "stateMutability": "view",
      "type": "function"
    },
    {
      "inputs": [],
      "name": "versionHash",
      "outputs": [
        {
          "internalType": "bytes32",
          "name": "",
          "type": "bytes32"
        }
      ],
      "stateMutability": "view",
      "type": "function"
    }
  ],
  "bytecode": "0x610140604052348015610010575f5ffd5b5060405161351338038061351383398101604081905261002f916101bd565b6040518060400160405280601581526020017f53657276696365204d616e6167657220546f6b656e000000000000000000000081525060405180604001604052806005815260200164312e312e3160d81b81525081600190816100929190610295565b50600261009f8282610295565b50815160208084019190912060c05281519082012060e0524660a05261012560c0805160e051604080517f8b73c3c69bb8fe3d512ecc4cf759cc79239f7b179b0ffacaa9a75d522b39400f60208201529081019290925260608201524660808201523060a08201525f910160405160208183030381529060405280519060200120905090565b60805250506001600160a01b038316158061014757506001600160a01b038216155b156101655760405163d92e233d60e01b815260040160405180910390fd5b6001600160a01b03928316610100529082166101205260068054919092166001600160a01b0319918216179091555f80549091163317905561034f565b80516001600160a01b03811681146101b8575f5ffd5b919050565b5f5f5f606084860312156101cf575f5ffd5b6101d8846101a2565b92506101e6602085016101a2565b91506101f4604085016101a2565b90509250925092565b634e487b7160e01b5f52604160045260245ffd5b600181811c9082168061022557607f821691505b60208210810361024357634e487b7160e01b5f52602260045260245ffd5b50919050565b601f82111561029057805f5260205f20601f840160051c8101602085101561026e5750805b601f840160051c820191505b8181101561028d575f815560010161027a565b50505b505050565b81516001600160401b038111156102ae576102ae6101fd565b6102c2816102bc8454610211565b84610249565b6020601f8211600181146102f4575f83156102dd5750848201515b5f19600385901b1c1916600184901b17845561028d565b5f84815260208120601f198516915b828110156103235787850151825560209485019460019092019101610303565b508482101561034057868401515f19600387901b60f8161c191681555b50505050600190811b01905550565b60805160a05160c05160e05161010051610120516130b26104615f395f818161040801528181610b7b01528181610d7b01528181610fd401528181611186015281816114bf0152818161191401528181611b6501528181611c97015261213d01525f81816107160152818161098501528181610a5f01528181610bfc01528181610cc201528181610e0401528181610e900152818161106901528181611214015281816112ad0152818161156a0152818161187c01528181611acc01528181611d1a01528181611de001528181611ef701526120a601525f8181610328015261222401525f818161080001526121fc01525f818161066b01526121a801525f8181610866015261227c01526130b25ff3fe608060405260043610610291575f3560e01c8063757b115611610165578063cbcf252a116100c6578063e5da07531161007c578063f172a4ce11610062578063f172a4ce146107ef578063f5dcb7bb14610822578063f698da2514610855575f5ffd5b8063e5da0753146107bc578063ed24911d146107db575f5ffd5b8063d03ca40a116100ac578063d03ca40a14610757578063dc1d95251461076a578063e42cdd7c1461079d575f5ffd5b8063cbcf252a14610705578063cbf994f814610738575f5ffd5b8063948879111161011b578063a2e2ad7e11610101578063a2e2ad7e1461068d578063a6a7187f146106c7578063a6f9dae1146106e6575f5ffd5b806394887911146106275780639a8a05921461065a575f5ffd5b80638456cb591161014b5780638456cb59146105ca5780638a39fa16146105de5780638da5cb5b14610609575f5ffd5b8063757b11561461058c5780637a828b28146105ab575f5ffd5b806328f223421161020f5780635405ecb9116101c557806356bda507116101ab57806356bda50714610522578063599be46f1461054e5780635c975abb1461056d575f5ffd5b80635405ecb9146104d457806354fd4d501461050e575f5ffd5b80633f4ba83a116101f55780633f4ba83a1461048257806341b60677146104965780634d5a5827146104c1575f5ffd5b806328f223421461042a5780633af5d04e14610449575f5ffd5b80631878d1f11161026457806321561bfc1161024a57806321561bfc146103a257806327de9e32146103c157806328714051146103f7575f5ffd5b80631878d1f1146103585780631ee81fb51461037f575f5ffd5b806306fdde031461029557806307a3e0a8146102bf5780630d0d57a8146102e0578063152b5c0f14610317575b5f5ffd5b3480156102a0575f5ffd5b506102a9610888565b6040516102b69190612539565b60405180910390f35b3480156102ca575f5ffd5b506102de6102d9366004612552565b610914565b005b3480156102eb575f5ffd5b506102ff6102fa36600461265a565b61096c565b6040516001600160a01b0390911681526020016102b6565b348015610322575f5ffd5b5061034a7f000000000000000000000000000000000000000000000000000000000000000081565b6040519081526020016102b6565b348015610363575f5ffd5b506102ff73eeeeeeeeeeeeeeeeeeeeeeeeeeeeeeeeeeeeeeee81565b61039261038d3660046127bf565b610a3d565b60405190151581526020016102b6565b3480156103ad575f5ffd5b506006546102ff906001600160a01b031681565b3480156103cc575f5ffd5b506103e06103db366004612552565b610d51565b6040805192151583526020830191909152016102b6565b348015610402575f5ffd5b506102ff7f000000000000000000000000000000000000000000000000000000000000000081565b348015610435575f5ffd5b506103e0610444366004612869565b610e8b565b348015610454575f5ffd5b506103926104633660046128a8565b600560209081525f928352604080842090915290825290205460ff1681565b34801561048d575f5ffd5b506102de6110f0565b3480156104a1575f5ffd5b5061034a6104b0366004612552565b60046020525f908152604090205481565b6103926104cf366004612552565b611164565b3480156104df575f5ffd5b5061034a6104ee3660046128a8565b60a01b6001600160a01b03909116175f9081526003602052604090205490565b348015610519575f5ffd5b506102a961132b565b34801561052d575f5ffd5b50610536600181565b6040516001600160601b0390911681526020016102b6565b348015610559575f5ffd5b506102de6105683660046128d2565b611338565b348015610578575f5ffd5b505f5461039290600160a01b900460ff1681565b348015610597575f5ffd5b5061034a6105a63660046128ed565b6113cc565b3480156105b6575f5ffd5b506103e06105c5366004612552565b6114ba565b3480156105d5575f5ffd5b506102de6115a1565b3480156105e9575f5ffd5b5061034a6105f8366004612552565b60036020525f908152604090205481565b348015610614575f5ffd5b505f546102ff906001600160a01b031681565b348015610632575f5ffd5b5061034a7f92b2008d2a99f26809ac9d1989fe92334aa84124767331997ba0eec16050ecf481565b348015610665575f5ffd5b5061034a7f000000000000000000000000000000000000000000000000000000000000000081565b348015610698575f5ffd5b5061034a6106a73660046128a8565b60a01b6001600160a01b03909116175f9081526004602052604090205490565b3480156106d2575f5ffd5b5061034a6106e1366004612989565b61161b565b3480156106f1575f5ffd5b506102de6107003660046128d2565b6116d6565b348015610710575f5ffd5b506102ff7f000000000000000000000000000000000000000000000000000000000000000081565b348015610743575f5ffd5b50610392610752366004612a6b565b61178f565b610392610765366004612b05565b611bda565b348015610775575f5ffd5b5061034a7fde64b4c9fac43e1615e938b03573b078604f57b4d2e78d3a27d7b20ba017e12681565b3480156107a8575f5ffd5b5061034a6107b7366004612b68565b611e69565b3480156107c7575f5ffd5b506103926107d63660046128a8565b612178565b3480156107e6575f5ffd5b5061034a6121a5565b3480156107fa575f5ffd5b5061034a7f000000000000000000000000000000000000000000000000000000000000000081565b34801561082d575f5ffd5b5061034a7f8b73c3c69bb8fe3d512ecc4cf759cc79239f7b179b0ffacaa9a75d522b39400f81565b348015610860575f5ffd5b5061034a7f000000000000000000000000000000000000000000000000000000000000000081565b6001805461089590612c09565b80601f01602080910402602001604051908101604052809291908181526020018280546108c190612c09565b801561090c5780601f106108e35761010080835404028352916020019161090c565b820191905f5260205f20905b8154815290600101906020018083116108ef57829003601f168201915b505050505081565b335f818152600560209081526040808320858452825291829020805460ff1916600117905590518381527f85eb1f050732417c0566422b6004a6c5cbded9ded1a406de04060719af52a13a910160405180910390a250565b60405163f908bc7760e01b81525f906001600160a01b037f0000000000000000000000000000000000000000000000000000000000000000169063f908bc77906109c0903390889088908890600401612c3b565b6020604051808303815f875af11580156109dc573d5f5f3e3d5ffd5b505050506040513d601f19601f82011682018060405250810190610a009190612c71565b6040519091506001600160a01b038216907fec97633905b1dbe9773a7536e9a986dcf89803e1193934b7b6d76587c68beb40905f90a29392505050565b6040516331a9108f60e11b8152600481018590525f9081906001600160a01b037f00000000000000000000000000000000000000000000000000000000000000001690636352211e90602401602060405180830381865afa158015610aa4573d5f5f3e3d5ffd5b505050506040513d601f19601f82011682018060405250810190610ac89190612c71565b9050336001600160a01b03821614610b095760405163521eb56d60e11b81523360048201526001600160a01b03821660248201526044015b60405180910390fd5b60a086901b6001600160a01b038816175f8181526004602052604081205490610b368a858b8b8b876113cc565b9050610b438a828861229e565b81610b4d81612ca0565b5f8581526004602081905260408083208490555163dc4f8bc560e01b81529295509092506001600160a01b037f0000000000000000000000000000000000000000000000000000000000000000169163dc4f8bc591610bb2918f918f918e9101612cf8565b6020604051808303815f875af1158015610bce573d5f5f3e3d5ffd5b505050506040513d601f19601f82011682018060405250810190610bf29190612d37565b90508015610cab577f00000000000000000000000000000000000000000000000000000000000000006001600160a01b031663dff7672460016001600160601b03168b51610c409190612d50565b8d8d8d8d6040518663ffffffff1660e01b8152600401610c639493929190612da0565b60206040518083038185885af1158015610c7f573d5f5f3e3d5ffd5b50505050506040513d601f19601f82011682018060405250810190610ca49190612d37565b9550610d43565b6040516337fdd9c960e21b81526001600160a01b037f0000000000000000000000000000000000000000000000000000000000000000169063dff76724903490610cff908f908f908f908f90600401612da0565b60206040518083038185885af1158015610d1b573d5f5f3e3d5ffd5b50505050506040513d601f19601f82011682018060405250810190610d409190612d37565b95505b505050505095945050505050565b60405163161e984960e31b8152336004820152602481018290525f90819081906001600160a01b037f0000000000000000000000000000000000000000000000000000000000000000169063b0f4c248906044016020604051808303815f875af1158015610dc1573d5f5f3e3d5ffd5b505050506040513d601f19601f82011682018060405250810190610de59190612de4565b6040516352e82ce560e11b8152336004820152602481018690529091507f00000000000000000000000000000000000000000000000000000000000000006001600160a01b03169063a5d059ca906044015b60408051808303815f875af1158015610e52573d5f5f3e3d5ffd5b505050506040513d601f19601f82011682018060405250810190610e769190612dfb565b90935091508015610e85578091505b50915091565b5f5f5f7f00000000000000000000000000000000000000000000000000000000000000006001600160a01b0316636352211e866040518263ffffffff1660e01b8152600401610edc91815260200190565b602060405180830381865afa158015610ef7573d5f5f3e3d5ffd5b505050506040513d601f19601f82011682018060405250810190610f1b9190612c71565b9050336001600160a01b03821614610f575760405163521eb56d60e11b81523360048201526001600160a01b0382166024820152604401610b00565b60a085901b6001600160a01b038716175f8181526003602052604081205490610f8289858a8561161b565b9050610f8f89828961229e565b81610f9981612ca0565b5f858152600360205260408082208390555163161e984960e31b81526001600160a01b038d81166004830152602482018d90529295509092507f00000000000000000000000000000000000000000000000000000000000000009091169063b0f4c248906044016020604051808303815f875af115801561101c573d5f5f3e3d5ffd5b505050506040513d601f19601f820116820180604052508101906110409190612de4565b6040516352e82ce560e11b81526001600160a01b038c81166004830152602482018c90529192507f00000000000000000000000000000000000000000000000000000000000000009091169063a5d059ca9060440160408051808303815f875af11580156110b0573d5f5f3e3d5ffd5b505050506040513d601f19601f820116820180604052508101906110d49190612dfb565b909750955080156110e3578095505b5050505050935093915050565b5f546001600160a01b0316331461112e575f5460405163521eb56d60e11b81523360048201526001600160a01b039091166024820152604401610b00565b5f805460ff60a01b1916815560405133917faeb196d352664784d1900b0e7414a8face7d29f4dae8c4b0cf68ed477423bbf491a2565b60405163542db44960e01b8152600481018290525f9081906001600160a01b037f0000000000000000000000000000000000000000000000000000000000000000169063542db449906024016020604051808303815f875af11580156111cc573d5f5f3e3d5ffd5b505050506040513d601f19601f820116820180604052508101906111f09190612d37565b905080156112915760405163388fdbed60e21b8152336004820152602481018490527f00000000000000000000000000000000000000000000000000000000000000006001600160a01b03169063e23f6fb49060019060440160206040518083038185885af1158015611265573d5f5f3e3d5ffd5b50505050506040513d601f19601f8201168201806040525081019061128a9190612d37565b9150611325565b60405163388fdbed60e21b8152336004820152602481018490527f00000000000000000000000000000000000000000000000000000000000000006001600160a01b03169063e23f6fb490349060440160206040518083038185885af11580156112fd573d5f5f3e3d5ffd5b50505050506040513d601f19601f820116820180604052508101906113229190612d37565b91505b50919050565b6002805461089590612c09565b5f546001600160a01b03163314611376575f5460405163521eb56d60e11b81523360048201526001600160a01b039091166024820152604401610b00565b6006805473ffffffffffffffffffffffffffffffffffffffff19166001600160a01b0383169081179091556040517ff8e76e8a7c35558598a944d509f1ed32b104e77b1098ef1dfa5b97b86b09df8f905f90a250565b5f6113d56121a5565b7fde64b4c9fac43e1615e938b03573b078604f57b4d2e78d3a27d7b20ba017e126888888888860405160200161140c929190612e25565b60408051601f198184030181528282528051602091820120908301969096526001600160a01b0394851690820152929091166060830152608082015260a081019190915260c0810184905260e0016040516020818303038152906040528051906020012060405160200161149792919061190160f01b81526002810192909252602282015260420190565b6040516020818303038152906040528051906020012090505b9695505050505050565b5f5f5f7f00000000000000000000000000000000000000000000000000000000000000006001600160a01b03166325e1afc3856040518263ffffffff1660e01b815260040161150b91815260200190565b6020604051808303815f875af1158015611527573d5f5f3e3d5ffd5b505050506040513d601f19601f8201168201806040525081019061154b9190612de4565b60405163ccc9305d60e01b8152336004820152602481018690529091507f00000000000000000000000000000000000000000000000000000000000000006001600160a01b03169063ccc9305d90604401610e37565b5f546001600160a01b031633146115df575f5460405163521eb56d60e11b81523360048201526001600160a01b039091166024820152604401610b00565b5f805460ff60a01b1916600160a01b17815560405133917f5ee71a369c8672edded508e624ffc9257fa1ae6886ef32905c18e60196bca39991a2565b5f6116246121a5565b604080517f92b2008d2a99f26809ac9d1989fe92334aa84124767331997ba0eec16050ecf460208201526001600160a01b038089169282019290925290861660608201526080810185905260a0810184905260c001604051602081830303815290604052805190602001206040516020016116b692919061190160f01b81526002810192909252602282015260420190565b604051602081830303815290604052805190602001209050949350505050565b5f546001600160a01b03163314611714575f5460405163521eb56d60e11b81523360048201526001600160a01b039091166024820152604401610b00565b6001600160a01b03811661173b5760405163d92e233d60e01b815260040160405180910390fd5b5f805473ffffffffffffffffffffffffffffffffffffffff19166001600160a01b038316908117825560405190917f4ffd725fc4a22075e9ec71c59edf9c38cdeb588a91b24fc5b61388c5be41282b91a250565b5f6001600160a01b0387166117b75760405163d92e233d60e01b815260040160405180910390fd5b835173eeeeeeeeeeeeeeeeeeeeeeeeeeeeeeeeeeeeeeed196001600160a01b03891601611978575f5b81811015611864575f8682815181106117fb576117fb612e49565b60200260200101515f015163ffffffff1611801561183e575085818151811061182657611826612e49565b6020026020010151602001516001600160601b03165f145b1561185c57604051637c946ed760e01b815260040160405180910390fd5b6001016117e0565b5060405163197f329f60e31b81526001600160a01b037f0000000000000000000000000000000000000000000000000000000000000000169063cbf994f8906118bb9033908b908b908b908b908b90600401612ea8565b6020604051808303815f875af11580156118d7573d5f5f3e3d5ffd5b505050506040513d601f19601f820116820180604052508101906118fb9190612d37565b604051630be6cc4b60e31b8152600481018590529092507f00000000000000000000000000000000000000000000000000000000000000006001600160a01b031690635f366258906024015f604051808303815f87803b15801561195d575f5ffd5b505af115801561196f573d5f5f3e3d5ffd5b50505050611bcf565b5f8167ffffffffffffffff81111561199257611992612580565b6040519080825280602002602001820160405280156119bb578160200160208202803683370190505b5090505f5b82811015611ab4575f8782815181106119db576119db612e49565b60200260200101515f015163ffffffff161115611aac57868181518110611a0457611a04612e49565b6020026020010151602001516001600160601b03165f03611a3857604051637c946ed760e01b815260040160405180910390fd5b868181518110611a4a57611a4a612e49565b6020026020010151602001516001600160601b0316828281518110611a7157611a71612e49565b6020026020010181815250506001878281518110611a9157611a91612e49565b6020908102919091018101516001600160601b039092169101525b6001016119c0565b5060405163197f329f60e31b81526001600160a01b037f0000000000000000000000000000000000000000000000000000000000000000169063cbf994f890611b0b9033908c908c908c908c908c90600401612ea8565b6020604051808303815f875af1158015611b27573d5f5f3e3d5ffd5b505050506040513d601f19601f82011682018060405250810190611b4b9190612d37565b6040516338f3a6a160e21b81529093506001600160a01b037f0000000000000000000000000000000000000000000000000000000000000000169063e3ce9a8490611ba09087908d908c908790600401612efd565b5f604051808303815f87803b158015611bb7575f5ffd5b505af1158015611bc9573d5f5f3e3d5ffd5b50505050505b509695505050505050565b6006545f906001600160a01b031615611c7e576006546040516356a7b60760e01b8152600481018690523360248201526001600160a01b03909116906356a7b60790604401602060405180830381865afa158015611c3a573d5f5f3e3d5ffd5b505050506040513d601f19601f82011682018060405250810190611c5e9190612d37565b611c7e576040516322ddebd960e21b815260048101859052602401610b00565b60405163dc4f8bc560e01b81525f906001600160a01b037f0000000000000000000000000000000000000000000000000000000000000000169063dc4f8bc590611cd090339089908890600401612cf8565b6020604051808303815f875af1158015611cec573d5f5f3e3d5ffd5b505050506040513d601f19601f82011682018060405250810190611d109190612d37565b90508015611dc9577f00000000000000000000000000000000000000000000000000000000000000006001600160a01b031663dff7672460016001600160601b03168651611d5e9190612d50565b338888886040518663ffffffff1660e01b8152600401611d819493929190612da0565b60206040518083038185885af1158015611d9d573d5f5f3e3d5ffd5b50505050506040513d601f19601f82011682018060405250810190611dc29190612d37565b9150611e61565b6040516337fdd9c960e21b81526001600160a01b037f0000000000000000000000000000000000000000000000000000000000000000169063dff76724903490611e1d9033908a908a908a90600401612da0565b60206040518083038185885af1158015611e39573d5f5f3e3d5ffd5b50505050506040513d601f19601f82011682018060405250810190611e5e9190612d37565b91505b509392505050565b5f8054600160a01b900460ff1615611e94576040516313d0ff5960e31b815260040160405180910390fd5b6001600160a01b038616611ebb5760405163d92e233d60e01b815260040160405180910390fd5b73eeeeeeeeeeeeeeeeeeeeeeeeeeeeeeeeeeeeeeed196001600160a01b03871601611f7b5760405163fbdeb3d760e01b81526001600160a01b037f0000000000000000000000000000000000000000000000000000000000000000169063fbdeb3d790611f34908a908990899089908990600401612f67565b6020604051808303815f875af1158015611f50573d5f5f3e3d5ffd5b505050506040513d601f19601f82011682018060405250810190611f749190612de4565b90506114b0565b82515f8167ffffffffffffffff811115611f9757611f97612580565b604051908082528060200260200182016040528015611fc0578160200160208202803683370190505b5090505f5b8281101561208e57858181518110611fdf57611fdf612e49565b6020026020010151602001516001600160601b03165f0361201357604051637c946ed760e01b815260040160405180910390fd5b85818151811061202557612025612e49565b6020026020010151602001516001600160601b031682828151811061204c5761204c612e49565b602002602001018181525050600186828151811061206c5761206c612e49565b6020908102919091018101516001600160601b03909216910152600101611fc5565b5060405163fbdeb3d760e01b81526001600160a01b037f0000000000000000000000000000000000000000000000000000000000000000169063fbdeb3d7906120e3908c908b908b908b908b90600401612f67565b6020604051808303815f875af11580156120ff573d5f5f3e3d5ffd5b505050506040513d601f19601f820116820180604052508101906121239190612de4565b6040516338f3a6a160e21b81529093506001600160a01b037f0000000000000000000000000000000000000000000000000000000000000000169063e3ce9a8490611ba09086908c908b908790600401612efd565b6001600160a01b0382165f90815260056020908152604080832084845290915290205460ff165b92915050565b5f7f0000000000000000000000000000000000000000000000000000000000000000461461227957612274604080517f8b73c3c69bb8fe3d512ecc4cf759cc79239f7b179b0ffacaa9a75d522b39400f60208201527f0000000000000000000000000000000000000000000000000000000000000000918101919091527f000000000000000000000000000000000000000000000000000000000000000060608201524660808201523060a08201525f9060c00160405160208183030381529060405280519060200120905090565b905090565b507f000000000000000000000000000000000000000000000000000000000000000090565b6001600160a01b0383166122c55760405163e63f571f60e01b815260040160405180910390fd5b80516041146122ee578051604051631d9f5a5f60e01b8152610b00918391604190600401612fb9565b5f8160408151811061230257612302612e49565b016020015160f81c905060048110801561232457506001600160a01b0384163b155b1561233757612334601b82612fdd565b90505b602082015160408301515f60ff84166004036124095750604051630b135d3f60e11b80825283916001600160a01b03831690631626ba7e9061237f908a908a90600401612ff6565b602060405180830381865afa15801561239a573d5f5f3e3d5ffd5b505050506040513d601f19601f820116820180604052508101906123be9190613016565b7fffffffff0000000000000000000000000000000000000000000000000000000016146124045780868660405163694d54dd60e01b8152600401610b0093929190613055565b6124bd565b8360ff1660050361246057506001600160a01b0382165f908152600560209081526040808320888452909152902054829060ff16612404578086866040516312cf832560e01b8152600401610b0093929190613055565b604080515f81526020810180835288905260ff861691810191909152606081018490526080810183905260019060a0016020604051602081039080840390855afa1580156124b0573d5f5f3e3d5ffd5b5050506020604051035190505b866001600160a01b0316816001600160a01b0316146125025760405163a806216d60e01b81526001600160a01b03808316600483015288166024820152604401610b00565b50505050505050565b5f81518084528060208401602086015e5f602082860101526020601f19601f83011685010191505092915050565b602081525f61254b602083018461250b565b9392505050565b5f60208284031215612562575f5ffd5b5035919050565b6001600160a01b038116811461257d575f5ffd5b50565b634e487b7160e01b5f52604160045260245ffd5b6040805190810167ffffffffffffffff811182821017156125b7576125b7612580565b60405290565b604051601f8201601f1916810167ffffffffffffffff811182821017156125e6576125e6612580565b604052919050565b5f82601f8301126125fd575f5ffd5b813567ffffffffffffffff81111561261757612617612580565b61262a601f8201601f19166020016125bd565b81815284602083860101111561263e575f5ffd5b816020850160208301375f918101602001919091529392505050565b5f5f5f6060848603121561266c575f5ffd5b83359250602084013561267e81612569565b9150604084013567ffffffffffffffff811115612699575f5ffd5b6126a5868287016125ee565b9150509250925092565b5f67ffffffffffffffff8211156126c8576126c8612580565b5060051b60200190565b5f82601f8301126126e1575f5ffd5b81356126f46126ef826126af565b6125bd565b8082825260208201915060208360051b860101925085831115612715575f5ffd5b602085015b8381101561273b57803561272d81612569565b83526020928301920161271a565b5095945050505050565b803563ffffffff81168114612758575f5ffd5b919050565b5f82601f83011261276c575f5ffd5b813561277a6126ef826126af565b8082825260208201915060208360051b86010192508583111561279b575f5ffd5b602085015b8381101561273b576127b181612745565b8352602092830192016127a0565b5f5f5f5f5f60a086880312156127d3575f5ffd5b85356127de81612569565b945060208601359350604086013567ffffffffffffffff811115612800575f5ffd5b61280c888289016126d2565b935050606086013567ffffffffffffffff811115612828575f5ffd5b6128348882890161275d565b925050608086013567ffffffffffffffff811115612850575f5ffd5b61285c888289016125ee565b9150509295509295909350565b5f5f5f6060848603121561287b575f5ffd5b833561288681612569565b925060208401359150604084013567ffffffffffffffff811115612699575f5ffd5b5f5f604083850312156128b9575f5ffd5b82356128c481612569565b946020939093013593505050565b5f602082840312156128e2575f5ffd5b813561254b81612569565b5f5f5f5f5f5f60c08789031215612902575f5ffd5b863561290d81612569565b9550602087013561291d81612569565b945060408701359350606087013567ffffffffffffffff81111561293f575f5ffd5b61294b89828a016126d2565b935050608087013567ffffffffffffffff811115612967575f5ffd5b61297389828a0161275d565b9699959850939692959460a09093013593505050565b5f5f5f5f6080858703121561299c575f5ffd5b84356129a781612569565b935060208501356129b781612569565b93969395505050506040820135916060013590565b5f82601f8301126129db575f5ffd5b81356129e96126ef826126af565b8082825260208201915060208360061b860101925085831115612a0a575f5ffd5b602085015b8381101561273b5760408188031215612a26575f5ffd5b612a2e612594565b612a3782612745565b815260208201356001600160601b0381168114612a52575f5ffd5b6020828101919091529084529290920191604001612a0f565b5f5f5f5f5f5f60c08789031215612a80575f5ffd5b8635612a8b81612569565b955060208701359450604087013567ffffffffffffffff811115612aad575f5ffd5b612ab989828a0161275d565b945050606087013567ffffffffffffffff811115612ad5575f5ffd5b612ae189828a016129cc565b935050612af060808801612745565b9598949750929591949360a090920135925050565b5f5f5f60608486031215612b17575f5ffd5b83359250602084013567ffffffffffffffff811115612b34575f5ffd5b612b40868287016126d2565b925050604084013567ffffffffffffffff811115612b5c575f5ffd5b6126a58682870161275d565b5f5f5f5f5f5f60c08789031215612b7d575f5ffd5b8635612b8881612569565b95506020870135612b9881612569565b945060408701359350606087013567ffffffffffffffff811115612bba575f5ffd5b612bc689828a0161275d565b935050608087013567ffffffffffffffff811115612be2575f5ffd5b612bee89828a016129cc565b925050612bfd60a08801612745565b90509295509295509295565b600181811c90821680612c1d57607f821691505b60208210810361132557634e487b7160e01b5f52602260045260245ffd5b6001600160a01b03851681528360208201526001600160a01b0383166040820152608060608201525f6114b0608083018461250b565b5f60208284031215612c81575f5ffd5b815161254b81612569565b634e487b7160e01b5f52601160045260245ffd5b5f60018201612cb157612cb1612c8c565b5060010190565b5f8151808452602084019350602083015f5b82811015612cee57815163ffffffff16865260209586019590910190600101612cca565b5093949350505050565b6001600160a01b0384168152826020820152606060408201525f612d1f6060830184612cb8565b95945050505050565b80518015158114612758575f5ffd5b5f60208284031215612d47575f5ffd5b61254b82612d28565b808202811582820484141761219f5761219f612c8c565b5f8151808452602084019350602083015f5b82811015612cee5781516001600160a01b0316865260209586019590910190600101612d79565b6001600160a01b0385168152836020820152608060408201525f612dc76080830185612d67565b8281036060840152612dd98185612cb8565b979650505050505050565b5f60208284031215612df4575f5ffd5b5051919050565b5f5f60408385031215612e0c575f5ffd5b612e1583612d28565b6020939093015192949293505050565b604081525f612e376040830185612d67565b8281036020840152611e5e8185612cb8565b634e487b7160e01b5f52603260045260245ffd5b5f8151808452602084019350602083015f5b82811015612cee578151805163ffffffff1687526020908101516001600160601b03168188015260409096019590910190600101612e6f565b6001600160a01b038716815285602082015260c060408201525f612ecf60c0830187612cb8565b8281036060840152612ee18187612e5d565b63ffffffff959095166080840152505060a00152949350505050565b8481526001600160a01b0384166020820152608060408201525f612f246080830185612cb8565b8281036060840152835180825260208086019201905f5b81811015612f59578351835260209384019390920191600101612f3b565b509098975050505050505050565b6001600160a01b038616815284602082015260a060408201525f612f8e60a0830186612cb8565b8281036060840152612fa08186612e5d565b91505063ffffffff831660808301529695505050505050565b606081525f612fcb606083018661250b565b60208301949094525060400152919050565b60ff818116838216019081111561219f5761219f612c8c565b828152604060208201525f61300e604083018461250b565b949350505050565b5f60208284031215613026575f5ffd5b81517fffffffff000000000000000000000000000000000000000000000000000000008116811461254b575f5ffd5b6001600160a01b0384168152826020820152606060408201525f612d1f606083018461250b56fea26469706673582212206c65a933c6d2ec39728095684a54cab5154d2039cac6bced964d6dc1be550cc064736f6c634300081c0033",
  "linkReferences": {},
  "deployedLinkReferences": {}
}