{
  "_format": "hh-sol-artifact-1",
  "contractName": "ServiceRegistryL2",
  "sourceName": "contracts/ServiceRegistryL2.sol",
  "abi": [
    {
      "inputs": [
        {
          "internalType": "string",
          "name": "_name",
          "type": "string"
        },
        {
          "internalType": "string",
          "name": "_symbol",
          "type": "string"
        },
        {
          "internalType": "string",
          "name": "_baseURI",
          "type": "string"
        }
      ],
      "stateMutability": "nonpayable",
      "type": "constructor"
    },
    {
      "inputs": [
        {
          "internalType": "address",
          "name": "operator",
          "type": "address"
        }
      ],
      "name": "AgentInstanceRegistered",
      "type": "error"
    },
    {
      "inputs": [
        {
          "internalType": "uint256",
          "name": "serviceId",
          "type": "uint256"
        }
      ],
      "name": "AgentInstancesSlotsFilled",
      "type": "error"
    },
    {
      "inputs": [
        {
          "internalType": "uint256",
          "name": "agentId",
          "type": "uint256"
        }
      ],
      "name": "AgentNotFound",
      "type": "error"
    },
    {
      "inputs": [
        {
          "internalType": "uint256",
          "name": "agentId",
          "type": "uint256"
        },
        {
          "internalType": "uint256",
          "name": "serviceId",
          "type": "uint256"
        }
      ],
      "name": "AgentNotInService",
      "type": "error"
    },
    {
      "inputs": [
        {
          "internalType": "uint256",
          "name": "componentId",
          "type": "uint256"
        }
      ],
      "name": "ComponentNotFound",
      "type": "error"
    },
    {
      "inputs": [],
      "name": "HashExists",
      "type": "error"
    },
    {
      "inputs": [
        {
          "internalType": "uint256",
          "name": "sent",
          "type": "uint256"
        },
        {
          "internalType": "uint256",
          "name": "expected",
          "type": "uint256"
        },
        {
          "internalType": "uint256",
          "name": "serviceId",
          "type": "uint256"
        }
      ],
      "name": "IncorrectAgentBondingValue",
      "type": "error"
    },
    {
      "inputs": [
        {
          "internalType": "uint256",
          "name": "sent",
          "type": "uint256"
        },
        {
          "internalType": "uint256",
          "name": "expected",
          "type": "uint256"
        },
        {
          "internalType": "uint256",
          "name": "serviceId",
          "type": "uint256"
        }
      ],
      "name": "IncorrectRegistrationDepositValue",
      "type": "error"
    },
    {
      "inputs": [
        {
          "internalType": "address",
          "name": "sender",
          "type": "address"
        },
        {
          "internalType": "address",
          "name": "manager",
          "type": "address"
        }
      ],
      "name": "ManagerOnly",
      "type": "error"
    },
    {
      "inputs": [
        {
          "internalType": "address",
          "name": "provided",
          "type": "address"
        },
        {
          "internalType": "address",
          "name": "expected",
          "type": "address"
        },
        {
          "internalType": "uint256",
          "name": "serviceId",
          "type": "uint256"
        }
      ],
      "name": "OnlyOwnServiceMultisig",
      "type": "error"
    },
    {
      "inputs": [
        {
          "internalType": "address",
          "name": "operator",
          "type": "address"
        },
        {
          "internalType": "uint256",
          "name": "serviceId",
          "type": "uint256"
        }
      ],
      "name": "OperatorHasNoInstances",
      "type": "error"
    },
    {
      "inputs": [
        {
          "internalType": "uint256",
          "name": "provided",
          "type": "uint256"
        },
        {
          "internalType": "uint256",
          "name": "max",
          "type": "uint256"
        }
      ],
      "name": "Overflow",
      "type": "error"
    },
    {
      "inputs": [
        {
          "internalType": "address",
          "name": "sender",
          "type": "address"
        },
        {
          "internalType": "address",
          "name": "owner",
          "type": "address"
        }
      ],
      "name": "OwnerOnly",
      "type": "error"
    },
    {
      "inputs": [],
      "name": "Paused",
      "type": "error"
    },
    {
      "inputs": [],
      "name": "ReentrancyGuard",
      "type": "error"
    },
    {
      "inputs": [
        {
          "internalType": "uint256",
          "name": "serviceId",
          "type": "uint256"
        }
      ],
      "name": "ServiceMustBeInactive",
      "type": "error"
    },
    {
      "inputs": [
        {
          "internalType": "address",
          "name": "token",
          "type": "address"
        },
        {
          "internalType": "address",
          "name": "from",
          "type": "address"
        },
        {
          "internalType": "address",
          "name": "to",
          "type": "address"
        },
        {
          "internalType": "uint256",
          "name": "value",
          "type": "uint256"
        }
      ],
      "name": "TransferFailed",
      "type": "error"
    },
    {
      "inputs": [
        {
          "internalType": "address",
          "name": "multisig",
          "type": "address"
        }
      ],
      "name": "UnauthorizedMultisig",
      "type": "error"
    },
    {
      "inputs": [
        {
          "internalType": "uint256",
          "name": "agentId",
          "type": "uint256"
        }
      ],
      "name": "WrongAgentId",
      "type": "error"
    },
    {
      "inputs": [
        {
          "internalType": "uint256",
          "name": "numValues1",
          "type": "uint256"
        },
        {
          "internalType": "uint256",
          "name": "numValues2",
          "type": "uint256"
        }
      ],
      "name": "WrongArrayLength",
      "type": "error"
    },
    {
      "inputs": [
        {
          "internalType": "uint256",
          "name": "serviceId",
          "type": "uint256"
        }
      ],
      "name": "WrongOperator",
      "type": "error"
    },
    {
      "inputs": [
        {
          "internalType": "uint256",
          "name": "state",
          "type": "uint256"
        },
        {
          "internalType": "uint256",
          "name": "serviceId",
          "type": "uint256"
        }
      ],
      "name": "WrongServiceState",
      "type": "error"
    },
    {
      "inputs": [
        {
          "internalType": "uint256",
          "name": "currentThreshold",
          "type": "uint256"
        },
        {
          "internalType": "uint256",
          "name": "minThreshold",
          "type": "uint256"
        },
        {
          "internalType": "uint256",
          "name": "maxThreshold",
          "type": "uint256"
        }
      ],
      "name": "WrongThreshold",
      "type": "error"
    },
    {
      "inputs": [],
      "name": "ZeroAddress",
      "type": "error"
    },
    {
      "inputs": [],
      "name": "ZeroValue",
      "type": "error"
    },
    {
      "anonymous": false,
      "inputs": [
        {
          "indexed": true,
          "internalType": "uint256",
          "name": "serviceId",
          "type": "uint256"
        }
      ],
      "name": "ActivateRegistration",
      "type": "event"
    },
    {
      "anonymous": false,
      "inputs": [
        {
          "indexed": true,
          "internalType": "address",
          "name": "owner",
          "type": "address"
        },
        {
          "indexed": true,
          "internalType": "address",
          "name": "spender",
          "type": "address"
        },
        {
          "indexed": true,
          "internalType": "uint256",
          "name": "id",
          "type": "uint256"
        }
      ],
      "name": "Approval",
      "type": "event"
    },
    {
      "anonymous": false,
      "inputs": [
        {
          "indexed": true,
          "internalType": "address",
          "name": "owner",
          "type": "address"
        },
        {
          "indexed": true,
          "internalType": "address",
          "name": "operator",
          "type": "address"
        },
        {
          "indexed": false,
          "internalType": "bool",
          "name": "approved",
          "type": "bool"
        }
      ],
      "name": "ApprovalForAll",
      "type": "event"
    },
    {
      "anonymous": false,
      "inputs": [
        {
          "indexed": false,
          "internalType": "string",
          "name": "baseURI",
          "type": "string"
        }
      ],
      "name": "BaseURIChanged",
      "type": "event"
    },
    {
      "anonymous": false,
      "inputs": [
        {
          "indexed": true,
          "internalType": "uint256",
          "name": "serviceId",
          "type": "uint256"
        },
        {
          "indexed": true,
          "internalType": "address",
          "name": "multisig",
          "type": "address"
        }
      ],
      "name": "CreateMultisigWithAgents",
      "type": "event"
    },
    {
      "anonymous": false,
      "inputs": [
        {
          "indexed": true,
          "internalType": "uint256",
          "name": "serviceId",
          "type": "uint256"
        },
        {
          "indexed": false,
          "internalType": "bytes32",
          "name": "configHash",
          "type": "bytes32"
        }
      ],
      "name": "CreateService",
      "type": "event"
    },
    {
      "anonymous": false,
      "inputs": [
        {
          "indexed": true,
          "internalType": "uint256",
          "name": "serviceId",
          "type": "uint256"
        }
      ],
      "name": "DeployService",
      "type": "event"
    },
    {
      "anonymous": false,
      "inputs": [
        {
          "indexed": true,
          "internalType": "address",
          "name": "sender",
          "type": "address"
        },
        {
          "indexed": false,
          "internalType": "uint256",
          "name": "amount",
          "type": "uint256"
        }
      ],
      "name": "Deposit",
      "type": "event"
    },
    {
      "anonymous": false,
      "inputs": [
        {
          "indexed": true,
          "internalType": "address",
          "name": "drainer",
          "type": "address"
        },
        {
          "indexed": false,
          "internalType": "uint256",
          "name": "amount",
          "type": "uint256"
        }
      ],
      "name": "Drain",
      "type": "event"
    },
    {
      "anonymous": false,
      "inputs": [
        {
          "indexed": true,
          "internalType": "address",
          "name": "drainer",
          "type": "address"
        }
      ],
      "name": "DrainerUpdated",
      "type": "event"
    },
    {
      "anonymous": false,
      "inputs": [
        {
          "indexed": true,
          "internalType": "address",
          "name": "manager",
          "type": "address"
        }
      ],
      "name": "ManagerUpdated",
      "type": "event"
    },
    {
      "anonymous": false,
      "inputs": [
        {
          "indexed": false,
          "internalType": "uint256",
          "name": "amount",
          "type": "uint256"
        },
        {
          "indexed": true,
          "internalType": "address",
          "name": "operator",
          "type": "address"
        },
        {
          "indexed": true,
          "internalType": "uint256",
          "name": "serviceId",
          "type": "uint256"
        }
      ],
      "name": "OperatorSlashed",
      "type": "event"
    },
    {
      "anonymous": false,
      "inputs": [
        {
          "indexed": true,
          "internalType": "address",
          "name": "operator",
          "type": "address"
        },
        {
          "indexed": true,
          "internalType": "uint256",
          "name": "serviceId",
          "type": "uint256"
        }
      ],
      "name": "OperatorUnbond",
      "type": "event"
    },
    {
      "anonymous": false,
      "inputs": [
        {
          "indexed": true,
          "internalType": "address",
          "name": "owner",
          "type": "address"
        }
      ],
      "name": "OwnerUpdated",
      "type": "event"
    },
    {
      "anonymous": false,
      "inputs": [
        {
          "indexed": true,
          "internalType": "address",
          "name": "receiver",
          "type": "address"
        },
        {
          "indexed": false,
          "internalType": "uint256",
          "name": "amount",
          "type": "uint256"
        }
      ],
      "name": "Refund",
      "type": "event"
    },
    {
      "anonymous": false,
      "inputs": [
        {
          "indexed": true,
          "internalType": "address",
          "name": "operator",
          "type": "address"
        },
        {
          "indexed": true,
          "internalType": "uint256",
          "name": "serviceId",
          "type": "uint256"
        },
        {
          "indexed": true,
          "internalType": "address",
          "name": "agentInstance",
          "type": "address"
        },
        {
          "indexed": false,
          "internalType": "uint256",
          "name": "agentId",
          "type": "uint256"
        }
      ],
      "name": "RegisterInstance",
      "type": "event"
    },
    {
      "anonymous": false,
      "inputs": [
        {
          "indexed": true,
          "internalType": "uint256",
          "name": "serviceId",
          "type": "uint256"
        }
      ],
      "name": "TerminateService",
      "type": "event"
    },
    {
      "anonymous": false,
      "inputs": [
        {
          "indexed": true,
          "internalType": "address",
          "name": "from",
          "type": "address"
        },
        {
          "indexed": true,
          "internalType": "address",
          "name": "to",
          "type": "address"
        },
        {
          "indexed": true,
          "internalType": "uint256",
          "name": "id",
          "type": "uint256"
        }
      ],
      "name": "Transfer",
      "type": "event"
    },
    {
      "anonymous": false,
      "inputs": [
        {
          "indexed": true,
          "internalType": "uint256",
          "name": "serviceId",
          "type": "uint256"
        },
        {
          "indexed": false,
          "internalType": "bytes32",
          "name": "configHash",
          "type": "bytes32"
        }
      ],
      "name": "UpdateService",
      "type": "event"
    },
    {
      "inputs": [],
      "name": "CID_PREFIX",
      "outputs": [
        {
          "internalType": "string",
          "name": "",
          "type": "string"
        }
      ],
      "stateMutability": "view",
      "type": "function"
    },
    {
      "inputs": [],
      "name": "VERSION",
      "outputs": [
        {
          "internalType": "string",
          "name": "",
          "type": "string"
        }
      ],
      "stateMutability": "view",
      "type": "function"
    },
    {
      "inputs": [
        {
          "internalType": "address",
          "name": "serviceOwner",
          "type": "address"
        },
        {
          "internalType": "uint256",
          "name": "serviceId",
          "type": "uint256"
        }
      ],
      "name": "activateRegistration",
      "outputs": [
        {
          "internalType": "bool",
          "name": "success",
          "type": "bool"
        }
      ],
      "stateMutability": "payable",
      "type": "function"
    },
    {
      "inputs": [
        {
          "internalType": "address",
          "name": "spender",
          "type": "address"
        },
        {
          "internalType": "uint256",
          "name": "id",
          "type": "uint256"
        }
      ],
      "name": "approve",
      "outputs": [],
      "stateMutability": "nonpayable",
      "type": "function"
    },
    {
      "inputs": [
        {
          "internalType": "address",
          "name": "owner",
          "type": "address"
        }
      ],
      "name": "balanceOf",
      "outputs": [
        {
          "internalType": "uint256",
          "name": "",
          "type": "uint256"
        }
      ],
      "stateMutability": "view",
      "type": "function"
    },
    {
      "inputs": [],
      "name": "baseURI",
      "outputs": [
        {
          "internalType": "string",
          "name": "",
          "type": "string"
        }
      ],
      "stateMutability": "view",
      "type": "function"
    },
    {
      "inputs": [
        {
          "internalType": "address",
          "name": "newDrainer",
          "type": "address"
        }
      ],
      "name": "changeDrainer",
      "outputs": [],
      "stateMutability": "nonpayable",
      "type": "function"
    },
    {
      "inputs": [
        {
          "internalType": "address",
          "name": "newManager",
          "type": "address"
        }
      ],
      "name": "changeManager",
      "outputs": [],
      "stateMutability": "nonpayable",
      "type": "function"
    },
    {
      "inputs": [
        {
          "internalType": "address",
          "name": "multisig",
          "type": "address"
        },
        {
          "internalType": "bool",
          "name": "permission",
          "type": "bool"
        }
      ],
      "name": "changeMultisigPermission",
      "outputs": [
        {
          "internalType": "bool",
          "name": "success",
          "type": "bool"
        }
      ],
      "stateMutability": "nonpayable",
      "type": "function"
    },
    {
      "inputs": [
        {
          "internalType": "address",
          "name": "newOwner",
          "type": "address"
        }
      ],
      "name": "changeOwner",
      "outputs": [],
      "stateMutability": "nonpayable",
      "type": "function"
    },
    {
      "inputs": [
        {
          "internalType": "address",
          "name": "serviceOwner",
          "type": "address"
        },
        {
          "internalType": "bytes32",
          "name": "configHash",
          "type": "bytes32"
        },
        {
          "internalType": "uint32[]",
          "name": "agentIds",
          "type": "uint32[]"
        },
        {
          "components": [
            {
              "internalType": "uint32",
              "name": "slots",
              "type": "uint32"
            },
            {
              "internalType": "uint96",
              "name": "bond",
              "type": "uint96"
            }
          ],
          "internalType": "struct AgentParams[]",
          "name": "agentParams",
          "type": "tuple[]"
        },
        {
          "internalType": "uint32",
          "name": "threshold",
          "type": "uint32"
        }
      ],
      "name": "create",
      "outputs": [
        {
          "internalType": "uint256",
          "name": "serviceId",
          "type": "uint256"
        }
      ],
      "stateMutability": "nonpayable",
      "type": "function"
    },
    {
      "inputs": [
        {
          "internalType": "address",
          "name": "serviceOwner",
          "type": "address"
        },
        {
          "internalType": "uint256",
          "name": "serviceId",
          "type": "uint256"
        },
        {
          "internalType": "address",
          "name": "multisigImplementation",
          "type": "address"
        },
        {
          "internalType": "bytes",
          "name": "data",
          "type": "bytes"
        }
      ],
      "name": "deploy",
      "outputs": [
        {
          "internalType": "address",
          "name": "multisig",
          "type": "address"
        }
      ],
      "stateMutability": "nonpayable",
      "type": "function"
    },
    {
      "inputs": [],
      "name": "drain",
      "outputs": [
        {
          "internalType": "uint256",
          "name": "amount",
          "type": "uint256"
        }
      ],
      "stateMutability": "nonpayable",
      "type": "function"
    },
    {
      "inputs": [],
      "name": "drainer",
      "outputs": [
        {
          "internalType": "address",
          "name": "",
          "type": "address"
        }
      ],
      "stateMutability": "view",
      "type": "function"
    },
    {
      "inputs": [
        {
          "internalType": "uint256",
          "name": "unitId",
          "type": "uint256"
        }
      ],
      "name": "exists",
      "outputs": [
        {
          "internalType": "bool",
          "name": "",
          "type": "bool"
        }
      ],
      "stateMutability": "view",
      "type": "function"
    },
    {
      "inputs": [
        {
          "internalType": "uint256",
          "name": "serviceId",
          "type": "uint256"
        }
      ],
      "name": "getAgentInstances",
      "outputs": [
        {
          "internalType": "uint256",
          "name": "numAgentInstances",
          "type": "uint256"
        },
        {
          "internalType": "address[]",
          "name": "agentInstances",
          "type": "address[]"
        }
      ],
      "stateMutability": "view",
      "type": "function"
    },
    {
      "inputs": [
        {
          "internalType": "uint256",
          "name": "serviceId",
          "type": "uint256"
        }
      ],
      "name": "getAgentParams",
      "outputs": [
        {
          "internalType": "uint256",
          "name": "numAgentIds",
          "type": "uint256"
        },
        {
          "components": [
            {
              "internalType": "uint32",
              "name": "slots",
              "type": "uint32"
            },
            {
              "internalType": "uint96",
              "name": "bond",
              "type": "uint96"
            }
          ],
          "internalType": "struct AgentParams[]",
          "name": "agentParams",
          "type": "tuple[]"
        }
      ],
      "stateMutability": "view",
      "type": "function"
    },
    {
      "inputs": [
        {
          "internalType": "uint256",
          "name": "",
          "type": "uint256"
        }
      ],
      "name": "getApproved",
      "outputs": [
        {
          "internalType": "address",
          "name": "",
          "type": "address"
        }
      ],
      "stateMutability": "view",
      "type": "function"
    },
    {
      "inputs": [
        {
          "internalType": "uint256",
          "name": "serviceId",
          "type": "uint256"
        },
        {
          "internalType": "uint256",
          "name": "agentId",
          "type": "uint256"
        }
      ],
      "name": "getInstancesForAgentId",
      "outputs": [
        {
          "internalType": "uint256",
          "name": "numAgentInstances",
          "type": "uint256"
        },
        {
          "internalType": "address[]",
          "name": "agentInstances",
          "type": "address[]"
        }
      ],
      "stateMutability": "view",
      "type": "function"
    },
    {
      "inputs": [
        {
          "internalType": "address",
          "name": "operator",
          "type": "address"
        },
        {
          "internalType": "uint256",
          "name": "serviceId",
          "type": "uint256"
        }
      ],
      "name": "getOperatorBalance",
      "outputs": [
        {
          "internalType": "uint256",
          "name": "balance",
          "type": "uint256"
        }
      ],
      "stateMutability": "view",
      "type": "function"
    },
    {
      "inputs": [
        {
          "internalType": "uint256",
          "name": "serviceId",
          "type": "uint256"
        }
      ],
      "name": "getPreviousHashes",
      "outputs": [
        {
          "internalType": "uint256",
          "name": "numHashes",
          "type": "uint256"
        },
        {
          "internalType": "bytes32[]",
          "name": "configHashes",
          "type": "bytes32[]"
        }
      ],
      "stateMutability": "view",
      "type": "function"
    },
    {
      "inputs": [
        {
          "internalType": "uint256",
          "name": "serviceId",
          "type": "uint256"
        }
      ],
      "name": "getService",
      "outputs": [
        {
          "components": [
            {
              "internalType": "uint96",
              "name": "securityDeposit",
              "type": "uint96"
            },
            {
              "internalType": "address",
              "name": "multisig",
              "type": "address"
            },
            {
              "internalType": "bytes32",
              "name": "configHash",
              "type": "bytes32"
            },
            {
              "internalType": "uint32",
              "name": "threshold",
              "type": "uint32"
            },
            {
              "internalType": "uint32",
              "name": "maxNumAgentInstances",
              "type": "uint32"
            },
            {
              "internalType": "uint32",
              "name": "numAgentInstances",
              "type": "uint32"
            },
            {
              "internalType": "enum ServiceRegistryL2.ServiceState",
              "name": "state",
              "type": "uint8"
            },
            {
              "internalType": "uint32[]",
              "name": "agentIds",
              "type": "uint32[]"
            }
          ],
          "internalType": "struct ServiceRegistryL2.Service",
          "name": "service",
          "type": "tuple"
        }
      ],
      "stateMutability": "view",
      "type": "function"
    },
    {
      "inputs": [
        {
          "internalType": "address",
          "name": "",
          "type": "address"
        },
        {
          "internalType": "address",
          "name": "",
          "type": "address"
        }
      ],
      "name": "isApprovedForAll",
      "outputs": [
        {
          "internalType": "bool",
          "name": "",
          "type": "bool"
        }
      ],
      "stateMutability": "view",
      "type": "function"
    },
    {
      "inputs": [],
      "name": "manager",
      "outputs": [
        {
          "internalType": "address",
          "name": "",
          "type": "address"
        }
      ],
      "stateMutability": "view",
      "type": "function"
    },
    {
      "inputs": [
        {
          "internalType": "address",
          "name": "",
          "type": "address"
        }
      ],
      "name": "mapAgentInstanceOperators",
      "outputs": [
        {
          "internalType": "address",
          "name": "",
          "type": "address"
        }
      ],
      "stateMutability": "view",
      "type": "function"
    },
    {
      "inputs": [
        {
          "internalType": "uint256",
          "name": "",
          "type": "uint256"
        },
        {
          "internalType": "uint256",
          "name": "",
          "type": "uint256"
        }
      ],
      "name": "mapConfigHashes",
      "outputs": [
        {
          "internalType": "bytes32",
          "name": "",
          "type": "bytes32"
        }
      ],
      "stateMutability": "view",
      "type": "function"
    },
    {
      "inputs": [
        {
          "internalType": "address",
          "name": "",
          "type": "address"
        }
      ],
      "name": "mapMultisigs",
      "outputs": [
        {
          "internalType": "bool",
          "name": "",
          "type": "bool"
        }
      ],
      "stateMutability": "view",
      "type": "function"
    },
    {
      "inputs": [
        {
          "internalType": "uint256",
          "name": "",
          "type": "uint256"
        },
        {
          "internalType": "uint256",
          "name": "",
          "type": "uint256"
        }
      ],
      "name": "mapOperatorAndServiceIdAgentInstances",
      "outputs": [
        {
          "internalType": "address",
          "name": "instance",
          "type": "address"
        },
        {
          "internalType": "uint32",
          "name": "agentId",
          "type": "uint32"
        }
      ],
      "stateMutability": "view",
      "type": "function"
    },
    {
      "inputs": [
        {
          "internalType": "uint256",
          "name": "",
          "type": "uint256"
        }
      ],
      "name": "mapOperatorAndServiceIdOperatorBalances",
      "outputs": [
        {
          "internalType": "uint96",
          "name": "",
          "type": "uint96"
        }
      ],
      "stateMutability": "view",
      "type": "function"
    },
    {
      "inputs": [
        {
          "internalType": "uint256",
          "name": "",
          "type": "uint256"
        },
        {
          "internalType": "uint256",
          "name": "",
          "type": "uint256"
        }
      ],
      "name": "mapServiceAndAgentIdAgentInstances",
      "outputs": [
        {
          "internalType": "address",
          "name": "",
          "type": "address"
        }
      ],
      "stateMutability": "view",
      "type": "function"
    },
    {
      "inputs": [
        {
          "internalType": "uint256",
          "name": "",
          "type": "uint256"
        }
      ],
      "name": "mapServiceAndAgentIdAgentParams",
      "outputs": [
        {
          "internalType": "uint32",
          "name": "slots",
          "type": "uint32"
        },
        {
          "internalType": "uint96",
          "name": "bond",
          "type": "uint96"
        }
      ],
      "stateMutability": "view",
      "type": "function"
    },
    {
      "inputs": [
        {
          "internalType": "uint256",
          "name": "",
          "type": "uint256"
        }
      ],
      "name": "mapServices",
      "outputs": [
        {
          "internalType": "uint96",
          "name": "securityDeposit",
          "type": "uint96"
        },
        {
          "internalType": "address",
          "name": "multisig",
          "type": "address"
        },
        {
          "internalType": "bytes32",
          "name": "configHash",
          "type": "bytes32"
        },
        {
          "internalType": "uint32",
          "name": "threshold",
          "type": "uint32"
        },
        {
          "internalType": "uint32",
          "name": "maxNumAgentInstances",
          "type": "uint32"
        },
        {
          "internalType": "uint32",
          "name": "numAgentInstances",
          "type": "uint32"
        },
        {
          "internalType": "enum ServiceRegistryL2.ServiceState",
          "name": "state",
          "type": "uint8"
        }
      ],
      "stateMutability": "view",
      "type": "function"
    },
    {
      "inputs": [],
      "name": "name",
      "outputs": [
        {
          "internalType": "string",
          "name": "",
          "type": "string"
        }
      ],
      "stateMutability": "view",
      "type": "function"
    },
    {
      "inputs": [],
      "name": "owner",
      "outputs": [
        {
          "internalType": "address",
          "name": "",
          "type": "address"
        }
      ],
      "stateMutability": "view",
      "type": "function"
    },
    {
      "inputs": [
        {
          "internalType": "uint256",
          "name": "id",
          "type": "uint256"
        }
      ],
      "name": "ownerOf",
      "outputs": [
        {
          "internalType": "address",
          "name": "owner",
          "type": "address"
        }
      ],
      "stateMutability": "view",
      "type": "function"
    },
    {
      "inputs": [
        {
          "internalType": "address",
          "name": "operator",
          "type": "address"
        },
        {
          "internalType": "uint256",
          "name": "serviceId",
          "type": "uint256"
        },
        {
          "internalType": "address[]",
          "name": "agentInstances",
          "type": "address[]"
        },
        {
          "internalType": "uint32[]",
          "name": "agentIds",
          "type": "uint32[]"
        }
      ],
      "name": "registerAgents",
      "outputs": [
        {
          "internalType": "bool",
          "name": "success",
          "type": "bool"
        }
      ],
      "stateMutability": "payable",
      "type": "function"
    },
    {
      "inputs": [
        {
          "internalType": "address",
          "name": "from",
          "type": "address"
        },
        {
          "internalType": "address",
          "name": "to",
          "type": "address"
        },
        {
          "internalType": "uint256",
          "name": "id",
          "type": "uint256"
        }
      ],
      "name": "safeTransferFrom",
      "outputs": [],
      "stateMutability": "nonpayable",
      "type": "function"
    },
    {
      "inputs": [
        {
          "internalType": "address",
          "name": "from",
          "type": "address"
        },
        {
          "internalType": "address",
          "name": "to",
          "type": "address"
        },
        {
          "internalType": "uint256",
          "name": "id",
          "type": "uint256"
        },
        {
          "internalType": "bytes",
          "name": "data",
          "type": "bytes"
        }
      ],
      "name": "safeTransferFrom",
      "outputs": [],
      "stateMutability": "nonpayable",
      "type": "function"
    },
    {
      "inputs": [
        {
          "internalType": "address",
          "name": "operator",
          "type": "address"
        },
        {
          "internalType": "bool",
          "name": "approved",
          "type": "bool"
        }
      ],
      "name": "setApprovalForAll",
      "outputs": [],
      "stateMutability": "nonpayable",
      "type": "function"
    },
    {
      "inputs": [
        {
          "internalType": "string",
          "name": "bURI",
          "type": "string"
        }
      ],
      "name": "setBaseURI",
      "outputs": [],
      "stateMutability": "nonpayable",
      "type": "function"
    },
    {
      "inputs": [
        {
          "internalType": "address[]",
          "name": "agentInstances",
          "type": "address[]"
        },
        {
          "internalType": "uint96[]",
          "name": "amounts",
          "type": "uint96[]"
        },
        {
          "internalType": "uint256",
          "name": "serviceId",
          "type": "uint256"
        }
      ],
      "name": "slash",
      "outputs": [
        {
          "internalType": "bool",
          "name": "success",
          "type": "bool"
        }
      ],
      "stateMutability": "nonpayable",
      "type": "function"
    },
    {
      "inputs": [],
      "name": "slashedFunds",
      "outputs": [
        {
          "internalType": "uint96",
          "name": "",
          "type": "uint96"
        }
      ],
      "stateMutability": "view",
      "type": "function"
    },
    {
      "inputs": [
        {
          "internalType": "bytes4",
          "name": "interfaceId",
          "type": "bytes4"
        }
      ],
      "name": "supportsInterface",
      "outputs": [
        {
          "internalType": "bool",
          "name": "",
          "type": "bool"
        }
      ],
      "stateMutability": "view",
      "type": "function"
    },
    {
      "inputs": [],
      "name": "symbol",
      "outputs": [
        {
          "internalType": "string",
          "name": "",
          "type": "string"
        }
      ],
      "stateMutability": "view",
      "type": "function"
    },
    {
      "inputs": [
        {
          "internalType": "address",
          "name": "serviceOwner",
          "type": "address"
        },
        {
          "internalType": "uint256",
          "name": "serviceId",
          "type": "uint256"
        }
      ],
      "name": "terminate",
      "outputs": [
        {
          "internalType": "bool",
          "name": "success",
          "type": "bool"
        },
        {
          "internalType": "uint256",
          "name": "refund",
          "type": "uint256"
        }
      ],
      "stateMutability": "nonpayable",
      "type": "function"
    },
    {
      "inputs": [
        {
          "internalType": "uint256",
          "name": "id",
          "type": "uint256"
        }
      ],
      "name": "tokenByIndex",
      "outputs": [
        {
          "internalType": "uint256",
          "name": "unitId",
          "type": "uint256"
        }
      ],
      "stateMutability": "view",
      "type": "function"
    },
    {
      "inputs": [
        {
          "internalType": "uint256",
          "name": "unitId",
          "type": "uint256"
        }
      ],
      "name": "tokenURI",
      "outputs": [
        {
          "internalType": "string",
          "name": "",
          "type": "string"
        }
      ],
      "stateMutability": "view",
      "type": "function"
    },
    {
      "inputs": [],
      "name": "totalSupply",
      "outputs": [
        {
          "internalType": "uint256",
          "name": "",
          "type": "uint256"
        }
      ],
      "stateMutability": "view",
      "type": "function"
    },
    {
      "inputs": [
        {
          "internalType": "address",
          "name": "from",
          "type": "address"
        },
        {
          "internalType": "address",
          "name": "to",
          "type": "address"
        },
        {
          "internalType": "uint256",
          "name": "id",
          "type": "uint256"
        }
      ],
      "name": "transferFrom",
      "outputs": [],
      "stateMutability": "nonpayable",
      "type": "function"
    },
    {
      "inputs": [
        {
          "internalType": "address",
          "name": "operator",
          "type": "address"
        },
        {
          "internalType": "uint256",
          "name": "serviceId",
          "type": "uint256"
        }
      ],
      "name": "unbond",
      "outputs": [
        {
          "internalType": "bool",
          "name": "success",
          "type": "bool"
        },
        {
          "internalType": "uint256",
          "name": "refund",
          "type": "uint256"
        }
      ],
      "stateMutability": "nonpayable",
      "type": "function"
    },
    {
      "inputs": [
        {
          "internalType": "address",
          "name": "serviceOwner",
          "type": "address"
        },
        {
          "internalType": "bytes32",
          "name": "configHash",
          "type": "bytes32"
        },
        {
          "internalType": "uint32[]",
          "name": "agentIds",
          "type": "uint32[]"
        },
        {
          "components": [
            {
              "internalType": "uint32",
              "name": "slots",
              "type": "uint32"
            },
            {
              "internalType": "uint96",
              "name": "bond",
              "type": "uint96"
            }
          ],
          "internalType": "struct AgentParams[]",
          "name": "agentParams",
          "type": "tuple[]"
        },
        {
          "internalType": "uint32",
          "name": "threshold",
          "type": "uint32"
        },
        {
          "internalType": "uint256",
          "name": "serviceId",
          "type": "uint256"
        }
      ],
      "name": "update",
      "outputs": [
        {
          "internalType": "bool",
          "name": "success",
          "type": "bool"
        }
      ],
      "stateMutability": "nonpayable",
      "type": "function"
    }
  ],
  "bytecode": "0x60806040526001600a55348015610014575f5ffd5b5060405161595e38038061595e83398101604081905261003391610117565b82825f610040838261022a565b50600161004d828261022a565b506008915061005e9050828261022a565b5050600680546001600160a01b03191633179055506102e49050565b634e487b7160e01b5f52604160045260245ffd5b5f82601f83011261009d575f5ffd5b81516001600160401b038111156100b6576100b661007a565b604051601f8201601f19908116603f011681016001600160401b03811182821017156100e4576100e461007a565b6040528181528382016020018510156100fb575f5ffd5b8160208501602083015e5f918101602001919091529392505050565b5f5f5f60608486031215610129575f5ffd5b83516001600160401b0381111561013e575f5ffd5b61014a8682870161008e565b602086015190945090506001600160401b03811115610167575f5ffd5b6101738682870161008e565b604086015190935090506001600160401b03811115610190575f5ffd5b61019c8682870161008e565b9150509250925092565b600181811c908216806101ba57607f821691505b6020821081036101d857634e487b7160e01b5f52602260045260245ffd5b50919050565b601f82111561022557805f5260205f20601f840160051c810160208510156102035750805b601f840160051c820191505b81811015610222575f815560010161020f565b50505b505050565b81516001600160401b038111156102435761024361007a565b6102578161025184546101a6565b846101de565b6020601f821160018114610289575f83156102725750848201515b5f19600385901b1c1916600184901b178455610222565b5f84815260208120601f198516915b828110156102b85787850151825560209485019460019092019101610298565b50848210156102d557868401515f19600387901b60f8161c191681555b50505050600190811b01905550565b61566d806102f15f395ff3fe608060405260043610610324575f3560e01c806370a08231116101a7578063a60e4c3c116100e7578063dff7672411610092578063ef0e239b1161006d578063ef0e239b14610ab1578063f908bc7714610add578063fbdeb3d714610afc578063ffa1ad7414610b1b575f5ffd5b8063dff7672414610a52578063e23f6fb414610a65578063e985e9c514610a78575f5ffd5b8063c87b56dd116100c2578063c87b56dd146109f5578063cbf994f814610a14578063ccc9305d14610a33575f5ffd5b8063a60e4c3c1461098a578063a6f9dae1146109b7578063b88d4fde146109d6575f5ffd5b80638a2bd86f116101525780639890220b1161012d5780639890220b14610902578063a22cb46514610916578063a3fbbaae14610935578063a5d059ca14610954575f5ffd5b80638a2bd86f1461088c5780638da5cb5b146108cf57806395d89b41146108ee575f5ffd5b80637c5e63e0116101825780637c5e63e01461081a57806382694b1d1461084e57806386a2bdd41461086d575f5ffd5b806370a0823114610799578063718934d8146107b857806373b8b6a2146107fb575f5ffd5b806342842e0e1161027257806355f804b31161021d5780636352211e116101f85780636352211e146106df57806363dd7615146106fe5780636c0360eb146107665780636f99f15c1461077a575f5ffd5b806355f804b31461067b57806357838e851461069a5780635e4507fa146106c0575f5ffd5b80634eb780da1161024d5780634eb780da146106095780634f558e791461063d5780634f6ccce71461065c575f5ffd5b806342842e0e146105ac578063481c6a75146105cb5780634d486f85146105ea575f5ffd5b806318160ddd116102d257806323b872dd116102ad57806323b872dd146104b457806342144854146104d35780634236aff81461051f575f5ffd5b806318160ddd146104375780631de286ba1461045a57806321e4f7bb14610487575f5ffd5b8063095ea7b311610302578063095ea7b3146103c957806310c6aa19146103ea57806317351f7e14610409575f5ffd5b806301ffc9a71461032857806306fdde031461035c578063081812fc1461037d575b5f5ffd5b348015610333575f5ffd5b50610347610342366004614810565b610b4b565b60405190151581526020015b60405180910390f35b348015610367575f5ffd5b50610370610b9c565b6040516103539190614860565b348015610388575f5ffd5b506103b1610397366004614872565b60046020525f90815260409020546001600160a01b031681565b6040516001600160a01b039091168152602001610353565b3480156103d4575f5ffd5b506103e86103e336600461489d565b610c27565b005b3480156103f5575f5ffd5b506103e86104043660046148c7565b610d0b565b348015610414575f5ffd5b506103476104233660046148c7565b60126020525f908152604090205460ff1681565b348015610442575f5ffd5b5061044c60095481565b604051908152602001610353565b348015610465575f5ffd5b50610479610474366004614872565b610dc3565b6040516103539291906148e2565b348015610492575f5ffd5b506104a66104a136600461494a565b611008565b6040516103539291906149ad565b3480156104bf575f5ffd5b506103e86104ce3660046149cd565b6110e6565b3480156104de575f5ffd5b506105076104ed366004614872565b60106020525f90815260409020546001600160601b031681565b6040516001600160601b039091168152602001610353565b34801561052a575f5ffd5b50610599610539366004614872565b60136020525f90815260409020805460018201546002909201546001600160601b03821692600160601b928390046001600160a01b031692909163ffffffff808216926401000000008304821692600160401b8104909216910460ff1687565b6040516103539796959493929190614a3f565b3480156105b7575f5ffd5b506103e86105c63660046149cd565b6112bb565b3480156105d6575f5ffd5b506007546103b1906001600160a01b031681565b3480156105f5575f5ffd5b506104a6610604366004614872565b6113ac565b348015610614575f5ffd5b506103b16106233660046148c7565b60116020525f90815260409020546001600160a01b031681565b348015610648575f5ffd5b50610347610657366004614872565b6114fa565b348015610667575f5ffd5b5061044c610676366004614872565b61151b565b348015610686575f5ffd5b506103e8610695366004614b61565b61155f565b3480156106a5575f5ffd5b50600b546103b190600160601b90046001600160a01b031681565b3480156106cb575f5ffd5b506103b16106da36600461494a565b611607565b3480156106ea575f5ffd5b506103b16106f9366004614872565b61163b565b348015610709575f5ffd5b50610742610718366004614872565b600e6020525f908152604090205463ffffffff81169064010000000090046001600160601b031682565b6040805163ffffffff90931683526001600160601b03909116602083015201610353565b348015610771575f5ffd5b5061037061169f565b348015610785575f5ffd5b50600b54610507906001600160601b031681565b3480156107a4575f5ffd5b5061044c6107b33660046148c7565b6116ac565b3480156107c3575f5ffd5b506107d76107d236600461494a565b61171e565b604080516001600160a01b03909316835263ffffffff909116602083015201610353565b348015610806575f5ffd5b50610347610815366004614c52565b611760565b348015610825575f5ffd5b506103706040518060400160405280600981526020016806630313730313232360bc1b81525081565b348015610859575f5ffd5b50610347610868366004614d1e565b611ba3565b348015610878575f5ffd5b5061044c61088736600461494a565b611c3a565b348015610897575f5ffd5b5061044c6108a636600461489d565b60a01b6001600160a01b03909116175f908152601060205260409020546001600160601b031690565b3480156108da575f5ffd5b506006546103b1906001600160a01b031681565b3480156108f9575f5ffd5b50610370611c65565b34801561090d575f5ffd5b5061044c611c72565b348015610921575f5ffd5b506103e8610930366004614d1e565b611dcb565b348015610940575f5ffd5b506103e861094f3660046148c7565b611e36565b34801561095f575f5ffd5b5061097361096e36600461489d565b611ee6565b604080519215158352602083019190915201610353565b348015610995575f5ffd5b506109a96109a4366004614872565b612366565b604051610353929190614d59565b3480156109c2575f5ffd5b506103e86109d13660046148c7565b6123c7565b3480156109e1575f5ffd5b506103e86109f0366004614d9a565b612477565b348015610a00575f5ffd5b50610370610a0f366004614872565b612559565b348015610a1f575f5ffd5b50610347610a2e366004614f3b565b6125d2565b348015610a3e575f5ffd5b50610973610a4d36600461489d565b612b46565b610347610a60366004614fd5565b612e91565b610347610a7336600461489d565b61346e565b348015610a83575f5ffd5b50610347610a92366004615055565b600560209081525f928352604080842090915290825290205460ff1681565b348015610abc575f5ffd5b50610ad0610acb366004614872565b6135e9565b60405161035391906150b7565b348015610ae8575f5ffd5b506103b1610af7366004615152565b613764565b348015610b07575f5ffd5b5061044c610b163660046151c1565b613b28565b348015610b26575f5ffd5b50610370604051806040016040528060058152602001640312e302e360dc1b81525081565b5f6301ffc9a760e01b6001600160e01b031983161480610b7b57506380ac58cd60e01b6001600160e01b03198316145b80610b965750635b5e139f60e01b6001600160e01b03198316145b92915050565b5f8054610ba890615251565b80601f0160208091040260200160405190810160405280929190818152602001828054610bd490615251565b8015610c1f5780601f10610bf657610100808354040283529160200191610c1f565b820191905f5260205f20905b815481529060010190602001808311610c0257829003601f168201915b505050505081565b5f818152600260205260409020546001600160a01b031633811480610c6e57506001600160a01b0381165f90815260056020908152604080832033845290915290205460ff165b610cb05760405162461bcd60e51b815260206004820152600e60248201526d1393d517d055551213d49256915160921b60448201526064015b60405180910390fd5b5f8281526004602052604080822080546001600160a01b0319166001600160a01b0387811691821790925591518593918516917f8c5be1e5ebec7d5bd14f71427d1e84f3dd0314c0f7b2291e5b200ac8c7c3b92591a4505050565b6006546001600160a01b03163314610d4b5760065460405163521eb56d60e11b81523360048201526001600160a01b039091166024820152604401610ca7565b6001600160a01b038116610d725760405163d92e233d60e01b815260040160405180910390fd5b600b80546001600160601b0316600160601b6001600160a01b038416908102919091179091556040517f8d1e8547016120917daad7f81c42b48f7fee379badc48f1889f0f43bb6194725905f90a250565b5f81815260136020908152604080832081516101008101835281546001600160601b03811682526001600160a01b03600160601b918290041694820194909452600182015492810192909252600281015463ffffffff808216606085810191909152640100000000830482166080860152600160401b830490911660a0850152938593929160c084019160ff9104166005811115610e6357610e63614a0b565b6005811115610e7457610e74614a0b565b815260200160038201805480602002602001604051908101604052809291908181526020018280548015610ef057602002820191905f5260205f20905f905b82829054906101000a900463ffffffff1663ffffffff1681526020019060040190602082600301049283019260010382029150808411610eb35790505b50505050508152505090508060e001515192508267ffffffffffffffff811115610f1c57610f1c614a9a565b604051908082528060200260200182016040528015610f6057816020015b604080518082019091525f8082526020820152815260200190600190039081610f3a5790505b5091505f5b83811015611001575f85905060208360e001518381518110610f8957610f89615289565b60209081029190910181015163ffffffff90811690921b929092175f818152600e845260409081902081518083019092525492831681526401000000009092046001600160601b0316928201929092528451859084908110610fed57610fed615289565b602090810291909101015250600101610f65565b5050915091565b602081811b83175f818152600f909252604090912054906060908267ffffffffffffffff81111561103b5761103b614a9a565b604051908082528060200260200182016040528015611064578160200160208202803683370190505b5091505f5b838110156110dd575f828152600f6020526040902080548290811061109057611090615289565b905f5260205f20015f9054906101000a90046001600160a01b03168382815181106110bd576110bd615289565b6001600160a01b0390921660209283029190910190910152600101611069565b50509250929050565b5f818152600260205260409020546001600160a01b0384811691161461114e5760405162461bcd60e51b815260206004820152600a60248201527f57524f4e475f46524f4d000000000000000000000000000000000000000000006044820152606401610ca7565b6001600160a01b0382166111985760405162461bcd60e51b81526020600482015260116024820152701253959053125117d49150d25412515395607a1b6044820152606401610ca7565b336001600160a01b03841614806111d157506001600160a01b0383165f90815260056020908152604080832033845290915290205460ff165b806111f157505f818152600460205260409020546001600160a01b031633145b61122e5760405162461bcd60e51b815260206004820152600e60248201526d1393d517d055551213d49256915160921b6044820152606401610ca7565b6001600160a01b038084165f81815260036020908152604080832080545f19019055938616808352848320805460010190558583526002825284832080546001600160a01b03199081168317909155600490925284832080549092169091559251849392917fddf252ad1be2c89b69c2b068fc378daa952ba7f163c4a11628f55a4df523b3ef91a4505050565b6112c68383836110e6565b6001600160a01b0382163b156113a757604051630a85bd0160e11b8082523360048301526001600160a01b03858116602484015260448301849052608060648401525f608484015290919084169063150b7a029060a4016020604051808303815f875af1158015611339573d5f5f3e3d5ffd5b505050506040513d601f19601f8201168201806040525081019061135d919061529d565b6001600160e01b031916146113a75760405162461bcd60e51b815260206004820152601060248201526f155394d0519157d49150d2541251539560821b6044820152606401610ca7565b505050565b5f81815260136020908152604080832081516101008101835281546001600160601b03811682526001600160a01b03600160601b918290041694820194909452600182015492810192909252600281015463ffffffff808216606085810191909152640100000000830482166080860152600160401b830490911660a0850152938593929160c084019160ff910416600581111561144c5761144c614a0b565b600581111561145d5761145d614a0b565b8152602001600382018054806020026020016040519081016040528092919081815260200182805480156114d957602002820191905f5260205f20905f905b82829054906101000a900463ffffffff1663ffffffff168152602001906004019060208260030104928301926001038202915080841161149c5790505b50505050508152505090506114ee8185613e1e565b91508151925050915091565b5f5f82118015610b9657506009546115139060016152cc565b821092915050565b5f6115278260016152cc565b905060095481111561155a57600954604051637ae5968560e01b8152610ca7918391600401918252602082015260400190565b919050565b6006546001600160a01b0316331461159f5760065460405163521eb56d60e11b81523360048201526001600160a01b039091166024820152604401610ca7565b80515f036115c057604051637c946ed760e01b815260040160405180910390fd5b60086115cc8282615323565b507f5411e8ebf1636d9e83d5fc4900bf80cbac82e8790da2a4c94db4895e889eedf6816040516115fc9190614860565b60405180910390a150565b600f602052815f5260405f208181548110611620575f80fd5b5f918252602090912001546001600160a01b03169150829050565b5f818152600260205260409020546001600160a01b03168061155a5760405162461bcd60e51b815260206004820152600a60248201527f4e4f545f4d494e544544000000000000000000000000000000000000000000006044820152606401610ca7565b60088054610ba890615251565b5f6001600160a01b0382166117035760405162461bcd60e51b815260206004820152600c60248201527f5a45524f5f4144445245535300000000000000000000000000000000000000006044820152606401610ca7565b506001600160a01b03165f9081526003602052604090205490565b600d602052815f5260405f208181548110611737575f80fd5b5f918252602090912001546001600160a01b0381169250600160a01b900463ffffffff16905082565b5f81815260136020908152604080832081516101008101835281546001600160601b0381168252600160601b908190046001600160a01b031694820194909452600182015492810192909252600281015463ffffffff8082166060850152640100000000820481166080850152600160401b82041660a0840152849360c08401910460ff1660058111156117f6576117f6614a0b565b600581111561180757611807614a0b565b81526020016003820180548060200260200160405190810160405280929190818152602001828054801561188357602002820191905f5260205f20905f905b82829054906101000a900463ffffffff1663ffffffff16815260200190600401906020826003010492830192600103820291508084116118465790505b5050505050815250509050600460058111156118a1576118a1614a0b565b8160c0015160058111156118b7576118b7614a0b565b146118f6578060c0015160058111156118d2576118d2614a0b565b604051633c053f9d60e21b8152600481019190915260248101849052604401610ca7565b835185511461192557845184516040516308151c1160e41b815260048101929092526024820152604401610ca7565b80602001516001600160a01b0316336001600160a01b0316146119795760208101516040516379f91cd360e01b81523360048201526001600160a01b03909116602482015260448101849052606401610ca7565b84515f5b81811015611b96575f60115f89848151811061199b5761199b615289565b6020908102919091018101516001600160a01b0390811683528282019390935260409182015f9081205490931660a08a901b81178085526010909252919092205489519193506001600160601b03169081908a90869081106119ff576119ff615289565b60200260200101516001611a1391906153de565b6001600160601b03161115611a6b57600b80548291905f90611a3f9084906001600160601b03166153de565b92506101000a8154816001600160601b0302191690836001600160601b031602179055505f9050611aee565b888481518110611a7d57611a7d615289565b6020908102919091010151600b80545f90611aa29084906001600160601b03166153de565b92506101000a8154816001600160601b0302191690836001600160601b03160217905550888481518110611ad857611ad8615289565b602002602001015181611aeb91906153fd565b90505b5f82815260106020526040902080546bffffffffffffffffffffffff19166001600160601b038316179055885188906001600160a01b038516907fa2e524bd0f71903485fbb3d6d50cb305f61005ceea2047c3ac92aa7e0d104306908c9088908110611b5c57611b5c615289565b6020026020010151604051611b8091906001600160601b0391909116815260200190565b60405180910390a350505080600101905061197d565b5060019695505050505050565b6006545f906001600160a01b03163314611be55760065460405163521eb56d60e11b81523360048201526001600160a01b039091166024820152604401610ca7565b6001600160a01b038316611c0c5760405163d92e233d60e01b815260040160405180910390fd5b506001600160a01b03919091165f908152601260205260409020805460ff1916911515919091179055600190565b600c602052815f5260405f208181548110611c53575f80fd5b905f5260205f20015f91509150505481565b60018054610ba890615251565b5f6001600a541115611c97576040516345f5ce8b60e11b815260040160405180910390fd5b6002600a55600b54600160601b90046001600160a01b03163314611ce957600b5460405163312d21ff60e11b8152336004820152600160601b9091046001600160a01b03166024820152604401610ca7565b50600b546001600160601b03168015611dc357600b80546bffffffffffffffffffffffff191690556040515f90339083908381818185875af1925050503d805f8114611d50576040519150601f19603f3d011682016040523d82523d5f602084013e611d55565b606091505b5050905080611d8c5760405163cd3f165960e01b81525f600482015230602482015233604482015260648101839052608401610ca7565b60405182815233907ff36f4d6622e16a536bbb049064af779cdd483a0b388d347d3752a65f1058bf5b9060200160405180910390a2505b6001600a5590565b335f8181526005602090815260408083206001600160a01b03871680855290835292819020805460ff191686151590811790915590519081529192917f17307eab39ab6107e8899845ad3d59bd9653f200f220920489ca2b5937696c31910160405180910390a35050565b6006546001600160a01b03163314611e765760065460405163521eb56d60e11b81523360048201526001600160a01b039091166024820152604401610ca7565b6001600160a01b038116611e9d5760405163d92e233d60e01b815260040160405180910390fd5b600780546001600160a01b0319166001600160a01b0383169081179091556040517f2c1c11af44aa5608f1dca38c00275c30ea091e02417d36e70e9a1538689c433d905f90a250565b5f5f6001600a541115611f0c576040516345f5ce8b60e11b815260040160405180910390fd5b6002600a556007546001600160a01b03163314611f515760075460405163312d21ff60e11b81523360048201526001600160a01b039091166024820152604401610ca7565b6001600160a01b038416611f785760405163d92e233d60e01b815260040160405180910390fd5b5f83815260136020526040902060056002820154600160601b900460ff166005811115611fa757611fa7614a0b565b14611ff0576002810154600160601b900460ff166005811115611fcc57611fcc614a0b565b604051633c053f9d60e21b8152600481019190915260248101859052604401610ca7565b60a084901b6001600160a01b038616175f818152600d6020908152604080832080548251818502810185019093528083529192909190849084015b82821015612076575f84815260209081902060408051808201909152908401546001600160a01b0381168252600160a01b900463ffffffff168183015282526001909201910161202b565b5050825192935050505f8190036120b25760405163df2ddd7360e01b81526001600160a01b038916600482015260248101889052604401610ca7565b808460020160088282829054906101000a900463ffffffff166120d5919061541c565b92506101000a81548163ffffffff021916908363ffffffff1602179055508360020160089054906101000a900463ffffffff1663ffffffff165f0361212a5760028401805460ff60601b1916600160601b1790555b5f5b818110156121e3575f889050602084838151811061214c5761214c615289565b60209081029190910181015181015163ffffffff1690911b919091175f818152600e9092526040909120546121929064010000000090046001600160601b0316886152cc565b965060115f8584815181106121a9576121a9615289565b602090810291909101810151516001600160a01b031682528101919091526040015f2080546001600160a01b03191690555060010161212c565b505f838152600d602052604081206121fa916146d2565b5f838152601060205260409020546001600160601b03168086111561222657806001600160601b031695505b851561231b575f8481526010602052604080822080546bffffffffffffffffffffffff19169055516001600160a01b038b169088908381818185875af1925050503d805f8114612291576040519150601f19603f3d011682016040523d82523d5f602084013e612296565b606091505b50509050806122d65760405163cd3f165960e01b81525f60048201523060248201526001600160a01b038b16604482015260648101889052608401610ca7565b896001600160a01b03167fbb28353e4598c3b9199101a66e0989549b659a59a54d2c27fbb183f1932c8e6d8860405161231191815260200190565b60405180910390a2505b60405188906001600160a01b038b16907f5ebf7fe30be09f0f03b9195632508d95c8b67bf010c93abda67f70d5d9599d1e905f90a350506001600a8190559793965092945050505050565b5f818152600c6020908152604080832080548251818502810185019093528083526060938301828280156123b757602002820191905f5260205f20905b8154815260200190600101908083116123a3575b5050505050905080519150915091565b6006546001600160a01b031633146124075760065460405163521eb56d60e11b81523360048201526001600160a01b039091166024820152604401610ca7565b6001600160a01b03811661242e5760405163d92e233d60e01b815260040160405180910390fd5b600680546001600160a01b0319166001600160a01b0383169081179091556040517f4ffd725fc4a22075e9ec71c59edf9c38cdeb588a91b24fc5b61388c5be41282b905f90a250565b6124828585856110e6565b6001600160a01b0384163b1561255257604051630a85bd0160e11b808252906001600160a01b0386169063150b7a02906124c89033908a90899089908990600401615438565b6020604051808303815f875af11580156124e4573d5f5f3e3d5ffd5b505050506040513d601f19601f82011682018060405250810190612508919061529d565b6001600160e01b031916146125525760405162461bcd60e51b815260206004820152601060248201526f155394d0519157d49150d2541251539560821b6044820152606401610ca7565b5050505050565b5f818152601360205260408120600101546060915060086040518060400160405280600981526020016806630313730313232360bc1b81525061259b83613f51565b6125a8608085901b613f51565b6040516020016125bb949392919061548d565b604051602081830303815290604052915050919050565b6007545f906001600160a01b031633146126145760075460405163312d21ff60e11b81523360048201526001600160a01b039091166024820152604401610ca7565b5f61261e8361163b565b9050876001600160a01b0316816001600160a01b0316146126655760405163521eb56d60e11b81526001600160a01b03808a16600483015282166024820152604401610ca7565b5f83815260136020908152604080832081516101008101835281546001600160601b03811682526001600160a01b03600160601b918290041694820194909452600182015492810192909252600281015463ffffffff8082166060850152640100000000820481166080850152600160401b82041660a08401529192909160c084019160ff91041660058111156126fe576126fe614a0b565b600581111561270f5761270f614a0b565b81526020016003820180548060200260200160405190810160405280929190818152602001828054801561278b57602002820191905f5260205f20905f905b82829054906101000a900463ffffffff1663ffffffff168152602001906004019060208260030104928301926001038202915080841161274e5790505b5050505050815250509050600160058111156127a9576127a9614a0b565b8160c0015160058111156127bf576127bf614a0b565b146127da578060c001516005811115611fcc57611fcc614a0b565b6127e5888888614121565b63ffffffff851660608201525f60808201819052875167ffffffffffffffff81111561281357612813614a9a565b60405190808252806020026020018201604052801561283c578160200160208202803683370190505b5090505f885167ffffffffffffffff81111561285a5761285a614a9a565b60405190808252806020026020018201604052801561289e57816020015b604080518082019091525f80825260208201528152602001906001900390816128785790505b5090505f805b8a518110156129c4578981815181106128bf576128bf615289565b60200260200101515f015163ffffffff165f03612930575f88905060208c83815181106128ee576128ee615289565b60209081029190910181015163ffffffff1690911b919091175f908152600e9091526040902080546fffffffffffffffffffffffffffffffff191690556129bc565b8a818151811061294257612942615289565b602002602001015184838151811061295c5761295c615289565b602002602001019063ffffffff16908163ffffffff168152505089818151811061298857612988615289565b60200260200101518383815181106129a2576129a2615289565b602002602001018190525081806129b890615513565b9250505b6001016128a4565b5060408401518b81146129fa575f888152600c602090815260408083208054600181018255908452919092200182905585018c90525b612a07858585858c614227565b5f888152601360209081526040918290208751918801516001600160a01b0316600160601b9081026001600160601b03909316929092178155918701516001830155606087015160028301805460808a015160a08b015163ffffffff908116600160401b026bffffffff0000000000000000199282166401000000000267ffffffffffffffff199094169190951617919091179081168317825560c08a01518a9594909360ff60601b19166cffffffffff0000000000000000199092169190911790836005811115612adb57612adb614a0b565b021790555060e08201518051612afb9160038401916020909101906146f0565b50506040518d81528991507fff312ce131c4d73ac90ece91266be7090486c5e15f78b7ea2b108c36dfd475299060200160405180910390a25060019c9b505050505050505050505050565b5f5f6001600a541115612b6c576040516345f5ce8b60e11b815260040160405180910390fd5b6002600a556007546001600160a01b03163314612bb15760075460405163312d21ff60e11b81523360048201526001600160a01b039091166024820152604401610ca7565b5f612bbb8461163b565b9050846001600160a01b0316816001600160a01b031614612c025760405163521eb56d60e11b81526001600160a01b03808716600483015282166024820152604401610ca7565b5f84815260136020526040902060016002820154600160601b900460ff166005811115612c3157612c31614a0b565b1480612c5c575060056002820154600160601b900460ff166005811115612c5a57612c5a614a0b565b145b15612ca5576002810154600160601b900460ff166005811115612c8157612c81614a0b565b604051633c053f9d60e21b8152600481019190915260248101869052604401610ca7565b6002810154600160401b900463ffffffff1615612cdf5760028101805460ff60601b19166c05000000000000000000000000179055612cf5565b60028101805460ff60601b1916600160601b1790555b5f5b6003820154811015612d73575f8690506020836003018381548110612d1e57612d1e615289565b905f5260205f2090600891828204019190066004029054906101000a900463ffffffff1663ffffffff16901b81179050600f5f8281526020019081526020015f205f612d6a919061479c565b50600101612cf7565b5080546040516001600160601b0390911693505f906001600160a01b0388169085908381818185875af1925050503d805f8114612dcb576040519150601f19603f3d011682016040523d82523d5f602084013e612dd0565b606091505b5050905080612e105760405163cd3f165960e01b81525f60048201523060248201526001600160a01b038816604482015260648101859052608401610ca7565b866001600160a01b03167fbb28353e4598c3b9199101a66e0989549b659a59a54d2c27fbb183f1932c8e6d85604051612e4b91815260200190565b60405180910390a260405186907fe45f5b9540df4f71b7e044809fa318806328c1ea2388a70c7373d97ccf8a0faa905f90a250506001600a819055959194509092505050565b6007545f906001600160a01b03163314612ed35760075460405163312d21ff60e11b81523360048201526001600160a01b039091166024820152604401610ca7565b8151835114612f0257825182516040516308151c1160e41b815260048101929092526024820152604401610ca7565b5f848152601360205260409020600280820154600160601b900460ff166005811115612f3057612f30614a0b565b14612f55576002810154600160601b900460ff166005811115612c8157612c81614a0b565b83515f805b82811015613041575f8890506020878381518110612f7a57612f7a615289565b60209081029190910181015163ffffffff90811690921b929092175f818152600e845260408082208151808301909252549384168082526401000000009094046001600160601b031694810194909452909291900361301a57878381518110612fe557612fe5615289565b60200260200101518a6040516332832be560e21b8152600401610ca792919063ffffffff929092168252602082015260400190565b6020810151613032906001600160601b0316856152cc565b93505050806001019050612f5a565b5080341461307257604051637ebbcab960e11b81523460048201526024810182905260448101889052606401610ca7565b6001600160a01b038881165f9081526011602052604090205416156130ad576040516322ddebd960e21b815260048101889052602401610ca7565b60a087901b6001600160a01b038916175f5b83811015613390575f8882815181106130da576130da615289565b602002602001015190505f8883815181106130f7576130f7615289565b60200260200101519050816001600160a01b03168c6001600160a01b031603613136576040516322ddebd960e21b8152600481018c9052602401610ca7565b6001600160a01b038281165f90815260116020526040902054161561318b576001600160a01b038281165f908152601160205260409081902054905163631695bd60e01b815291166004820152602401610ca7565b5f8b905060208a85815181106131a3576131a3615289565b60209081029190910181015163ffffffff90811690921b929092175f818152600e8452604080822054600f909552902054909290911690036131fb576040516304ad100760e21b8152600481018d9052602401610ca7565b5f818152600f602090815260408083208054600181810183559185528385200180546001600160a01b03808a166001600160a01b031990921682179092558a8652600d8552838620845180860190955290845263ffffffff8089168587019081528254948501835591875294909520925192909101805494518416600160a01b0277ffffffffffffffffffffffffffffffffffffffffffffffff19909516929091169190911792909217909155600289018054600160401b90049091169060086132c48361552b565b91906101000a81548163ffffffff021916908363ffffffff160217905550508c60115f856001600160a01b03166001600160a01b031681526020019081526020015f205f6101000a8154816001600160a01b0302191690836001600160a01b03160217905550826001600160a01b03168c8e6001600160a01b03167f6835389a6da5341647f18cbe0a89c56f473f4c17bfaee6e6d07d61f1928e0b7c8560405161337a919063ffffffff91909116815260200190565b60405180910390a45050508060010190506130bf565b50600284015463ffffffff64010000000082048116600160401b90920416036133d25760028401805460ff60601b19166c030000000000000000000000001790555b5f81815260106020526040812080543492906133f89084906001600160601b03166153de565b92506101000a8154816001600160601b0302191690836001600160601b03160217905550886001600160a01b03167fe1fffcc4923d04b559f4d29a8bfc6cda04eb5b0d3c460751c2402c5c5cc9109c3460405161345791815260200190565b60405180910390a250600198975050505050505050565b6007545f906001600160a01b031633146134b05760075460405163312d21ff60e11b81523360048201526001600160a01b039091166024820152604401610ca7565b5f6134ba8361163b565b9050836001600160a01b0316816001600160a01b0316146135015760405163521eb56d60e11b81526001600160a01b03808616600483015282166024820152604401610ca7565b5f83815260136020526040902060016002820154600160601b900460ff16600581111561353057613530614a0b565b1461355157604051635960d22f60e11b815260048101859052602401610ca7565b80546001600160601b03163414613596578054604051631c30abbb60e31b81523460048201526001600160601b03909116602482015260448101859052606401610ca7565b60028101805460ff60601b19166c0200000000000000000000000017905560405184907fa48b531f972c0e4aca57afcc5c099c52a7bd21bc5e2a1b733eec3be9e88da97a905f90a2506001949350505050565b61363060408051610100810182525f80825260208201819052918101829052606081018290526080810182905260a081018290529060c08201908152602001606081525090565b5f8281526013602090815260409182902082516101008101845281546001600160601b0381168252600160601b908190046001600160a01b031693820193909352600182015493810193909352600281015463ffffffff8082166060860152640100000000820481166080860152600160401b82041660a0850152909160c08401910460ff1660058111156136c7576136c7614a0b565b60058111156136d8576136d8614a0b565b81526020016003820180548060200260200160405190810160405280929190818152602001828054801561375457602002820191905f5260205f20905f905b82829054906101000a900463ffffffff1663ffffffff16815260200190600401906020826003010492830192600103820291508084116137175790505b5050505050815250509050919050565b5f6001600a541115613789576040516345f5ce8b60e11b815260040160405180910390fd5b6002600a556007546001600160a01b031633146137ce5760075460405163312d21ff60e11b81523360048201526001600160a01b039091166024820152604401610ca7565b5f6137d88561163b565b9050856001600160a01b0316816001600160a01b03161461381f5760405163521eb56d60e11b81526001600160a01b03808816600483015282166024820152604401610ca7565b6001600160a01b0384165f9081526012602052604090205460ff166138615760405162a2307960e51b81526001600160a01b0385166004820152602401610ca7565b5f85815260136020526040902060036002820154600160601b900460ff16600581111561389057613890614a0b565b146138d9576002810154600160601b900460ff1660058111156138b5576138b5614a0b565b604051633c053f9d60e21b8152600481019190915260248101879052604401610ca7565b604080516101008101825282546001600160601b0381168252600160601b908190046001600160a01b03166020830152600184015492820192909252600283015463ffffffff8082166060840152640100000000820481166080840152600160401b82041660a08301525f92613a029291859160c08401910460ff16600581111561396657613966614a0b565b600581111561397757613977614a0b565b8152602001600382018054806020026020016040519081016040528092919081815260200182805480156139f357602002820191905f5260205f20905f905b82829054906101000a900463ffffffff1663ffffffff16815260200190600401906020826003010492830192600103820291508084116139b65790505b50505050508152505088613e1e565b6002830154604051631e731b7560e31b81529192506001600160a01b0388169163f398dba891613a3f91859163ffffffff16908a9060040161554f565b6020604051808303815f875af1158015613a5b573d5f5f3e3d5ffd5b505050506040513d601f19601f82011682018060405250810190613a7f9190615589565b82546001600160601b0316600160601b6001600160a01b03831690810291909117845560028401805460ff60601b19166c040000000000000000000000001790556040519195509088907f2d53f895cd5faf3cddba94a25c2ced2105885b5b37450ff430ffa3cbdf332c74905f90a360405187907fa133ed72c03a7d008deaae618a61613c4fd41c67bba1cad1a6bc0a1c5a9c156e905f90a250506001600a5550949350505050565b5f6001600a541115613b4d576040516345f5ce8b60e11b815260040160405180910390fd5b6002600a556007546001600160a01b03163314613b925760075460405163312d21ff60e11b81523360048201526001600160a01b039091166024820152604401610ca7565b6001600160a01b038616613bb95760405163d92e233d60e01b815260040160405180910390fd5b613bc4858585614121565b5f5b8451811015613c4a57838181518110613be157613be1615289565b60200260200101515f015163ffffffff165f1480613c245750838181518110613c0c57613c0c615289565b6020026020010151602001516001600160601b03165f145b15613c4257604051637c946ed760e01b815260040160405180910390fd5b600101613bc6565b505060095480613c5981615513565b915050613ca360408051610100810182525f80825260208201819052918101829052606081018290526080810182905260a081018290529060c08201908152602001606081525090565b63ffffffff8316606082015260408101869052600160c082018181525050613ccf818686885186614227565b5f828152601360209081526040918290208351918401516001600160a01b0316600160601b9081026001600160601b039093169290921781559183015160018301556060830151600283018054608086015160a087015163ffffffff908116600160401b026bffffffff0000000000000000199282166401000000000267ffffffffffffffff199094169190951617919091179081168317825560c0860151869594909360ff60601b19166cffffffffff0000000000000000199092169190911790836005811115613da357613da3614a0b565b021790555060e08201518051613dc39160038401916020909101906146f0565b5050506009829055613dd587836144ce565b817fb34c1e02384201736eb4693b9b173306cb41bff12f15894dea5773088e9a3b1c87604051613e0791815260200190565b60405180910390a2506001600a5595945050505050565b60608260a0015163ffffffff1667ffffffffffffffff811115613e4357613e43614a9a565b604051908082528060200260200182016040528015613e6c578160200160208202803683370190505b5090505f805b8460e0015151811015613f49575f84905060208660e001518381518110613e9b57613e9b615289565b602090810291909101015163ffffffff16901b175f5b5f828152600f6020526040902054811015613f3f575f828152600f60205260409020805482908110613ee557613ee5615289565b905f5260205f20015f9054906101000a90046001600160a01b0316858581518110613f1257613f12615289565b6001600160a01b039092166020928302919091019091015283613f3481615513565b945050600101613eb1565b5050600101613e72565b505092915050565b7aff00000000000000ff00000000000000ff00000000000000ff00006bffffffff0000000000000000604083901c9081167bffffffff00000000000000000000000000000000000000000000000084161760201c6fffffffff000000000000000000000000919091166001600160e01b031984161717601081901c9182167eff00000000000000ff00000000000000ff00000000000000ff000000000000821617600890811c7bff00000000000000ff00000000000000ff00000000000000ff000000939093167fff00000000000000ff00000000000000ff00000000000000ff000000000000009290921691909117919091179081901c7e0f000f000f000f000f000f000f000f000f000f000f000f000f000f000f000f167f0f000f000f000f000f000f000f000f000f000f000f000f000f000f000f000f00600492831c1617906140bd827f06060606060606060606060606060606060606060606060606060606060606066152cc565b901c7f0f0f0f0f0f0f0f0f0f0f0f0f0f0f0f0f0f0f0f0f0f0f0f0f0f0f0f0f0f0f0f0f1660276140ed91906155a4565b614117827f30303030303030303030303030303030303030303030303030303030303030306152cc565b610b9691906152cc565b5f83900361414257604051637c946ed760e01b815260040160405180910390fd5b8151158061415257508051825114155b1561417d57815181516040516308151c1160e41b815260048101929092526024820152604401610ca7565b5f805b8351811015612552576141948260016152cc565b8482815181106141a6576141a6615289565b602002602001015163ffffffff1610156141fa578381815181106141cc576141cc615289565b6020026020010151604051632ab10b0b60e21b8152600401610ca7919063ffffffff91909116815260200190565b83818151811061420c5761420c615289565b602090810291909101015163ffffffff169150600101614180565b5f8267ffffffffffffffff81111561424157614241614a9a565b60405190808252806020026020018201604052801561426a578160200160208202803683370190505b5060e08701525f5b838110156143ed5785818151811061428c5761428c615289565b60200260200101518760e0015182815181106142aa576142aa615289565b63ffffffff90921660209283029190910182015286518491908890849081106142d5576142d5615289565b602002602001015163ffffffff16901b811790508582815181106142fb576142fb615289565b6020908102919091018101515f838152600e8352604090208151815492909301516001600160601b0316640100000000026fffffffffffffffffffffffffffffffff1990921663ffffffff90931692909217179055855186908390811061436457614364615289565b60200260200101515f01518860800181815161438091906155bb565b63ffffffff1690525085516001600160601b038416908790849081106143a8576143a8615289565b6020026020010151602001516001600160601b031611156143e4578582815181106143d5576143d5615289565b60200260200101516020015192505b50600101614272565b506001600160601b038116865260808601515f9061440c9060026155d7565b6144179060016155bb565b63ffffffff16905061442a600382615611565b5f036144425761443b600382615624565b905061445b565b61444d600382615624565b6144589060016152cc565b90505b80876060015163ffffffff1610806144865750866080015163ffffffff16876060015163ffffffff16115b156144c5576060870151608088015160405163eb3a8ba360e01b815263ffffffff92831660048201526024810184905291166044820152606401610ca7565b50505050505050565b6144d882826145ba565b6001600160a01b0382163b156145b657604051630a85bd0160e11b8082523360048301525f6024830181905260448301849052608060648401526084830152906001600160a01b0384169063150b7a029060a4016020604051808303815f875af1158015614548573d5f5f3e3d5ffd5b505050506040513d601f19601f8201168201806040525081019061456c919061529d565b6001600160e01b031916146145b65760405162461bcd60e51b815260206004820152601060248201526f155394d0519157d49150d2541251539560821b6044820152606401610ca7565b5050565b6001600160a01b0382166146045760405162461bcd60e51b81526020600482015260116024820152701253959053125117d49150d25412515395607a1b6044820152606401610ca7565b5f818152600260205260409020546001600160a01b0316156146685760405162461bcd60e51b815260206004820152600e60248201527f414c52454144595f4d494e5445440000000000000000000000000000000000006044820152606401610ca7565b6001600160a01b0382165f81815260036020908152604080832080546001019055848352600290915280822080546001600160a01b0319168417905551839291907fddf252ad1be2c89b69c2b068fc378daa952ba7f163c4a11628f55a4df523b3ef908290a45050565b5080545f8255905f5260205f20908101906146ed91906147b7565b50565b828054828255905f5260205f209060070160089004810192821561478c579160200282015f5b8382111561475a57835183826101000a81548163ffffffff021916908363ffffffff1602179055509260200192600401602081600301049283019260010302614716565b801561478a5782816101000a81549063ffffffff021916905560040160208160030104928301926001030261475a565b505b506147989291506147e7565b5090565b5080545f8255905f5260205f20908101906146ed91906147e7565b5b8082111561479857805477ffffffffffffffffffffffffffffffffffffffffffffffff191681556001016147b8565b5b80821115614798575f81556001016147e8565b6001600160e01b0319811681146146ed575f5ffd5b5f60208284031215614820575f5ffd5b813561482b816147fb565b9392505050565b5f81518084528060208401602086015e5f602082860101526020601f19601f83011685010191505092915050565b602081525f61482b6020830184614832565b5f60208284031215614882575f5ffd5b5035919050565b6001600160a01b03811681146146ed575f5ffd5b5f5f604083850312156148ae575f5ffd5b82356148b981614889565b946020939093013593505050565b5f602082840312156148d7575f5ffd5b813561482b81614889565b5f60408201848352604060208401528084518083526060850191506020860192505f5b8181101561493e578351805163ffffffff1684526020908101516001600160601b03168185015290930192604090920191600101614905565b50909695505050505050565b5f5f6040838503121561495b575f5ffd5b50508035926020909101359150565b5f8151808452602084019350602083015f5b828110156149a35781516001600160a01b031686526020958601959091019060010161497c565b5093949350505050565b828152604060208201525f6149c5604083018461496a565b949350505050565b5f5f5f606084860312156149df575f5ffd5b83356149ea81614889565b925060208401356149fa81614889565b929592945050506040919091013590565b634e487b7160e01b5f52602160045260245ffd5b60068110614a3b57634e487b7160e01b5f52602160045260245ffd5b9052565b6001600160601b03881681526001600160a01b03871660208201526040810186905263ffffffff85811660608301528481166080830152831660a082015260e08101614a8e60c0830184614a1f565b98975050505050505050565b634e487b7160e01b5f52604160045260245ffd5b6040805190810167ffffffffffffffff81118282101715614ad157614ad1614a9a565b60405290565b604051601f8201601f1916810167ffffffffffffffff81118282101715614b0057614b00614a9a565b604052919050565b5f5f67ffffffffffffffff841115614b2257614b22614a9a565b50601f8301601f1916602001614b3781614ad7565b915050828152838383011115614b4b575f5ffd5b828260208301375f602084830101529392505050565b5f60208284031215614b71575f5ffd5b813567ffffffffffffffff811115614b87575f5ffd5b8201601f81018413614b97575f5ffd5b6149c584823560208401614b08565b5f67ffffffffffffffff821115614bbf57614bbf614a9a565b5060051b60200190565b5f82601f830112614bd8575f5ffd5b8135614beb614be682614ba6565b614ad7565b8082825260208201915060208360051b860101925085831115614c0c575f5ffd5b602085015b83811015614c32578035614c2481614889565b835260209283019201614c11565b5095945050505050565b80356001600160601b038116811461155a575f5ffd5b5f5f5f60608486031215614c64575f5ffd5b833567ffffffffffffffff811115614c7a575f5ffd5b614c8686828701614bc9565b935050602084013567ffffffffffffffff811115614ca2575f5ffd5b8401601f81018613614cb2575f5ffd5b8035614cc0614be682614ba6565b8082825260208201915060208360051b850101925088831115614ce1575f5ffd5b6020840193505b82841015614d0a57614cf984614c3c565b825260209384019390910190614ce8565b959895975050505060409390930135925050565b5f5f60408385031215614d2f575f5ffd5b8235614d3a81614889565b915060208301358015158114614d4e575f5ffd5b809150509250929050565b5f60408201848352604060208401528084518083526060850191506020860192505f5b8181101561493e578351835260209384019390920191600101614d7c565b5f5f5f5f5f60808688031215614dae575f5ffd5b8535614db981614889565b94506020860135614dc981614889565b935060408601359250606086013567ffffffffffffffff811115614deb575f5ffd5b8601601f81018813614dfb575f5ffd5b803567ffffffffffffffff811115614e11575f5ffd5b886020828401011115614e22575f5ffd5b959894975092955050506020019190565b803563ffffffff8116811461155a575f5ffd5b5f82601f830112614e55575f5ffd5b8135614e63614be682614ba6565b8082825260208201915060208360051b860101925085831115614e84575f5ffd5b602085015b83811015614c3257614e9a81614e33565b835260209283019201614e89565b5f82601f830112614eb7575f5ffd5b8135614ec5614be682614ba6565b8082825260208201915060208360061b860101925085831115614ee6575f5ffd5b602085015b83811015614c325760408188031215614f02575f5ffd5b614f0a614aae565b614f1382614e33565b8152614f2160208301614c3c565b602082015280845250602083019250604081019050614eeb565b5f5f5f5f5f5f60c08789031215614f50575f5ffd5b8635614f5b81614889565b955060208701359450604087013567ffffffffffffffff811115614f7d575f5ffd5b614f8989828a01614e46565b945050606087013567ffffffffffffffff811115614fa5575f5ffd5b614fb189828a01614ea8565b935050614fc060808801614e33565b9598949750929591949360a090920135925050565b5f5f5f5f60808587031215614fe8575f5ffd5b8435614ff381614889565b935060208501359250604085013567ffffffffffffffff811115615015575f5ffd5b61502187828801614bc9565b925050606085013567ffffffffffffffff81111561503d575f5ffd5b61504987828801614e46565b91505092959194509250565b5f5f60408385031215615066575f5ffd5b823561507181614889565b91506020830135614d4e81614889565b5f8151808452602084019350602083015f5b828110156149a357815163ffffffff16865260209586019590910190600101615093565b602081526001600160601b0382511660208201526001600160a01b036020830151166040820152604082015160608201525f6060830151615100608084018263ffffffff169052565b50608083015163ffffffff811660a08401525060a083015163ffffffff811660c08401525060c083015161513760e0840182614a1f565b5060e0830151610100808401526149c5610120840182615081565b5f5f5f5f60808587031215615165575f5ffd5b843561517081614889565b935060208501359250604085013561518781614889565b9150606085013567ffffffffffffffff8111156151a2575f5ffd5b8501601f810187136151b2575f5ffd5b61504987823560208401614b08565b5f5f5f5f5f60a086880312156151d5575f5ffd5b85356151e081614889565b945060208601359350604086013567ffffffffffffffff811115615202575f5ffd5b61520e88828901614e46565b935050606086013567ffffffffffffffff81111561522a575f5ffd5b61523688828901614ea8565b92505061524560808701614e33565b90509295509295909350565b600181811c9082168061526557607f821691505b60208210810361528357634e487b7160e01b5f52602260045260245ffd5b50919050565b634e487b7160e01b5f52603260045260245ffd5b5f602082840312156152ad575f5ffd5b815161482b816147fb565b634e487b7160e01b5f52601160045260245ffd5b80820180821115610b9657610b966152b8565b601f8211156113a757805f5260205f20601f840160051c810160208510156153045750805b601f840160051c820191505b81811015612552575f8155600101615310565b815167ffffffffffffffff81111561533d5761533d614a9a565b6153518161534b8454615251565b846152df565b6020601f821160018114615383575f831561536c5750848201515b5f19600385901b1c1916600184901b178455612552565b5f84815260208120601f198516915b828110156153b25787850151825560209485019460019092019101615392565b50848210156153cf57868401515f19600387901b60f8161c191681555b50505050600190811b01905550565b6001600160601b038181168382160190811115610b9657610b966152b8565b6001600160601b038281168282160390811115610b9657610b966152b8565b63ffffffff8281168282160390811115610b9657610b966152b8565b6001600160a01b03861681526001600160a01b038516602082015283604082015260806060820152816080820152818360a08301375f81830160a090810191909152601f909201601f19160101949350505050565b5f5f865461549a81615251565b6001821680156154b157600181146154c6576154f3565b60ff19831686528115158202860193506154f3565b895f5260205f205f5b838110156154eb578154888201526001909101906020016154cf565b505081860193505b50505085518060208801835e019384525050602082015260400192915050565b5f60018201615524576155246152b8565b5060010190565b5f63ffffffff821663ffffffff8103615546576155466152b8565b60010192915050565b606081525f615561606083018661496a565b63ffffffff85166020840152828103604084015261557f8185614832565b9695505050505050565b5f60208284031215615599575f5ffd5b815161482b81614889565b8082028115828204841417610b9657610b966152b8565b63ffffffff8181168382160190811115610b9657610b966152b8565b63ffffffff81811683821602908116908181146155f6576155f66152b8565b5092915050565b634e487b7160e01b5f52601260045260245ffd5b5f8261561f5761561f6155fd565b500690565b5f82615632576156326155fd565b50049056fea26469706673582212208d37ec3bdfcbbd60b58ffad1c94bed6e9df47f30dc210ad84ab2b82fc84d2cb064736f6c634300081c0033",
  "linkReferences": {},
  "deployedLinkReferences": {}
}