{
  "_format": "hh-sol-artifact-1",
  "contractName": "ServiceRegistryTokenUtility",
  "sourceName": "contracts/ServiceRegistryTokenUtility.sol",
  "abi": [
    {
      "inputs": [
        {
          "internalType": "address",
          "name": "_serviceRegistry",
          "type": "address"
        }
      ],
      "stateMutability": "nonpayable",
      "type": "constructor"
    },
    {
      "inputs": [
        {
          "internalType": "address",
          "name": "operator",
          "type": "address"
        }
      ],
      "name": "AgentInstanceRegistered",
      "type": "error"
    },
    {
      "inputs": [
        {
          "internalType": "uint256",
          "name": "serviceId",
          "type": "uint256"
        }
      ],
      "name": "AgentInstancesSlotsFilled",
      "type": "error"
    },
    {
      "inputs": [
        {
          "internalType": "uint256",
          "name": "agentId",
          "type": "uint256"
        }
      ],
      "name": "AgentNotFound",
      "type": "error"
    },
    {
      "inputs": [
        {
          "internalType": "uint256",
          "name": "agentId",
          "type": "uint256"
        },
        {
          "internalType": "uint256",
          "name": "serviceId",
          "type": "uint256"
        }
      ],
      "name": "AgentNotInService",
      "type": "error"
    },
    {
      "inputs": [
        {
          "internalType": "uint256",
          "name": "componentId",
          "type": "uint256"
        }
      ],
      "name": "ComponentNotFound",
      "type": "error"
    },
    {
      "inputs": [],
      "name": "HashExists",
      "type": "error"
    },
    {
      "inputs": [
        {
          "internalType": "uint256",
          "name": "sent",
          "type": "uint256"
        },
        {
          "internalType": "uint256",
          "name": "expected",
          "type": "uint256"
        },
        {
          "internalType": "uint256",
          "name": "serviceId",
          "type": "uint256"
        }
      ],
      "name": "IncorrectAgentBondingValue",
      "type": "error"
    },
    {
      "inputs": [
        {
          "internalType": "uint256",
          "name": "sent",
          "type": "uint256"
        },
        {
          "internalType": "uint256",
          "name": "expected",
          "type": "uint256"
        },
        {
          "internalType": "uint256",
          "name": "serviceId",
          "type": "uint256"
        }
      ],
      "name": "IncorrectRegistrationDepositValue",
      "type": "error"
    },
    {
      "inputs": [
        {
          "internalType": "address",
          "name": "sender",
          "type": "address"
        },
        {
          "internalType": "address",
          "name": "manager",
          "type": "address"
        }
      ],
      "name": "ManagerOnly",
      "type": "error"
    },
    {
      "inputs": [
        {
          "internalType": "address",
          "name": "provided",
          "type": "address"
        },
        {
          "internalType": "address",
          "name": "expected",
          "type": "address"
        },
        {
          "internalType": "uint256",
          "name": "serviceId",
          "type": "uint256"
        }
      ],
      "name": "OnlyOwnServiceMultisig",
      "type": "error"
    },
    {
      "inputs": [
        {
          "internalType": "address",
          "name": "operator",
          "type": "address"
        },
        {
          "internalType": "uint256",
          "name": "serviceId",
          "type": "uint256"
        }
      ],
      "name": "OperatorHasNoInstances",
      "type": "error"
    },
    {
      "inputs": [
        {
          "internalType": "uint256",
          "name": "provided",
          "type": "uint256"
        },
        {
          "internalType": "uint256",
          "name": "max",
          "type": "uint256"
        }
      ],
      "name": "Overflow",
      "type": "error"
    },
    {
      "inputs": [
        {
          "internalType": "address",
          "name": "sender",
          "type": "address"
        },
        {
          "internalType": "address",
          "name": "owner",
          "type": "address"
        }
      ],
      "name": "OwnerOnly",
      "type": "error"
    },
    {
      "inputs": [],
      "name": "Paused",
      "type": "error"
    },
    {
      "inputs": [],
      "name": "ReentrancyGuard",
      "type": "error"
    },
    {
      "inputs": [
        {
          "internalType": "uint256",
          "name": "serviceId",
          "type": "uint256"
        }
      ],
      "name": "ServiceMustBeInactive",
      "type": "error"
    },
    {
      "inputs": [
        {
          "internalType": "address",
          "name": "token",
          "type": "address"
        }
      ],
      "name": "TokenRejected",
      "type": "error"
    },
    {
      "inputs": [
        {
          "internalType": "address",
          "name": "token",
          "type": "address"
        },
        {
          "internalType": "address",
          "name": "from",
          "type": "address"
        },
        {
          "internalType": "address",
          "name": "to",
          "type": "address"
        },
        {
          "internalType": "uint256",
          "name": "value",
          "type": "uint256"
        }
      ],
      "name": "TransferFailed",
      "type": "error"
    },
    {
      "inputs": [
        {
          "internalType": "address",
          "name": "multisig",
          "type": "address"
        }
      ],
      "name": "UnauthorizedMultisig",
      "type": "error"
    },
    {
      "inputs": [
        {
          "internalType": "uint256",
          "name": "agentId",
          "type": "uint256"
        }
      ],
      "name": "WrongAgentId",
      "type": "error"
    },
    {
      "inputs": [
        {
          "internalType": "uint256",
          "name": "numValues1",
          "type": "uint256"
        },
        {
          "internalType": "uint256",
          "name": "numValues2",
          "type": "uint256"
        }
      ],
      "name": "WrongArrayLength",
      "type": "error"
    },
    {
      "inputs": [
        {
          "internalType": "uint256",
          "name": "serviceId",
          "type": "uint256"
        }
      ],
      "name": "WrongOperator",
      "type": "error"
    },
    {
      "inputs": [
        {
          "internalType": "uint256",
          "name": "state",
          "type": "uint256"
        },
        {
          "internalType": "uint256",
          "name": "serviceId",
          "type": "uint256"
        }
      ],
      "name": "WrongServiceState",
      "type": "error"
    },
    {
      "inputs": [
        {
          "internalType": "uint256",
          "name": "currentThreshold",
          "type": "uint256"
        },
        {
          "internalType": "uint256",
          "name": "minThreshold",
          "type": "uint256"
        },
        {
          "internalType": "uint256",
          "name": "maxThreshold",
          "type": "uint256"
        }
      ],
      "name": "WrongThreshold",
      "type": "error"
    },
    {
      "inputs": [],
      "name": "ZeroAddress",
      "type": "error"
    },
    {
      "inputs": [],
      "name": "ZeroValue",
      "type": "error"
    },
    {
      "anonymous": false,
      "inputs": [
        {
          "indexed": true,
          "internalType": "address",
          "name": "drainer",
          "type": "address"
        }
      ],
      "name": "DrainerUpdated",
      "type": "event"
    },
    {
      "anonymous": false,
      "inputs": [
        {
          "indexed": true,
          "internalType": "address",
          "name": "manager",
          "type": "address"
        }
      ],
      "name": "ManagerUpdated",
      "type": "event"
    },
    {
      "anonymous": false,
      "inputs": [
        {
          "indexed": false,
          "internalType": "uint256",
          "name": "amount",
          "type": "uint256"
        },
        {
          "indexed": true,
          "internalType": "address",
          "name": "operator",
          "type": "address"
        },
        {
          "indexed": true,
          "internalType": "uint256",
          "name": "serviceId",
          "type": "uint256"
        }
      ],
      "name": "OperatorTokenSlashed",
      "type": "event"
    },
    {
      "anonymous": false,
      "inputs": [
        {
          "indexed": true,
          "internalType": "address",
          "name": "owner",
          "type": "address"
        }
      ],
      "name": "OwnerUpdated",
      "type": "event"
    },
    {
      "anonymous": false,
      "inputs": [
        {
          "indexed": true,
          "internalType": "address",
          "name": "account",
          "type": "address"
        },
        {
          "indexed": true,
          "internalType": "address",
          "name": "token",
          "type": "address"
        },
        {
          "indexed": false,
          "internalType": "uint256",
          "name": "amount",
          "type": "uint256"
        }
      ],
      "name": "TokenDeposit",
      "type": "event"
    },
    {
      "anonymous": false,
      "inputs": [
        {
          "indexed": true,
          "internalType": "address",
          "name": "drainer",
          "type": "address"
        },
        {
          "indexed": true,
          "internalType": "address",
          "name": "token",
          "type": "address"
        },
        {
          "indexed": false,
          "internalType": "uint256",
          "name": "amount",
          "type": "uint256"
        }
      ],
      "name": "TokenDrain",
      "type": "event"
    },
    {
      "anonymous": false,
      "inputs": [
        {
          "indexed": true,
          "internalType": "address",
          "name": "account",
          "type": "address"
        },
        {
          "indexed": true,
          "internalType": "address",
          "name": "token",
          "type": "address"
        },
        {
          "indexed": false,
          "internalType": "uint256",
          "name": "amount",
          "type": "uint256"
        }
      ],
      "name": "TokenRefund",
      "type": "event"
    },
    {
      "inputs": [
        {
          "internalType": "uint256",
          "name": "serviceId",
          "type": "uint256"
        }
      ],
      "name": "activateRegistrationTokenDeposit",
      "outputs": [
        {
          "internalType": "bool",
          "name": "isTokenSecured",
          "type": "bool"
        }
      ],
      "stateMutability": "nonpayable",
      "type": "function"
    },
    {
      "inputs": [
        {
          "internalType": "address",
          "name": "newDrainer",
          "type": "address"
        }
      ],
      "name": "changeDrainer",
      "outputs": [],
      "stateMutability": "nonpayable",
      "type": "function"
    },
    {
      "inputs": [
        {
          "internalType": "address",
          "name": "newManager",
          "type": "address"
        }
      ],
      "name": "changeManager",
      "outputs": [],
      "stateMutability": "nonpayable",
      "type": "function"
    },
    {
      "inputs": [
        {
          "internalType": "address",
          "name": "newOwner",
          "type": "address"
        }
      ],
      "name": "changeOwner",
      "outputs": [],
      "stateMutability": "nonpayable",
      "type": "function"
    },
    {
      "inputs": [
        {
          "internalType": "uint256",
          "name": "serviceId",
          "type": "uint256"
        },
        {
          "internalType": "address",
          "name": "token",
          "type": "address"
        },
        {
          "internalType": "uint32[]",
          "name": "agentIds",
          "type": "uint32[]"
        },
        {
          "internalType": "uint256[]",
          "name": "bonds",
          "type": "uint256[]"
        }
      ],
      "name": "createWithToken",
      "outputs": [],
      "stateMutability": "nonpayable",
      "type": "function"
    },
    {
      "inputs": [
        {
          "internalType": "address",
          "name": "token",
          "type": "address"
        }
      ],
      "name": "drain",
      "outputs": [
        {
          "internalType": "uint256",
          "name": "amount",
          "type": "uint256"
        }
      ],
      "stateMutability": "nonpayable",
      "type": "function"
    },
    {
      "inputs": [],
      "name": "drainer",
      "outputs": [
        {
          "internalType": "address",
          "name": "",
          "type": "address"
        }
      ],
      "stateMutability": "view",
      "type": "function"
    },
    {
      "inputs": [
        {
          "internalType": "uint256",
          "name": "serviceId",
          "type": "uint256"
        },
        {
          "internalType": "uint256",
          "name": "agentId",
          "type": "uint256"
        }
      ],
      "name": "getAgentBond",
      "outputs": [
        {
          "internalType": "uint256",
          "name": "bond",
          "type": "uint256"
        }
      ],
      "stateMutability": "view",
      "type": "function"
    },
    {
      "inputs": [
        {
          "internalType": "address",
          "name": "operator",
          "type": "address"
        },
        {
          "internalType": "uint256",
          "name": "serviceId",
          "type": "uint256"
        }
      ],
      "name": "getOperatorBalance",
      "outputs": [
        {
          "internalType": "uint256",
          "name": "balance",
          "type": "uint256"
        }
      ],
      "stateMutability": "view",
      "type": "function"
    },
    {
      "inputs": [
        {
          "internalType": "uint256",
          "name": "serviceId",
          "type": "uint256"
        }
      ],
      "name": "isTokenSecuredService",
      "outputs": [
        {
          "internalType": "bool",
          "name": "",
          "type": "bool"
        }
      ],
      "stateMutability": "view",
      "type": "function"
    },
    {
      "inputs": [],
      "name": "manager",
      "outputs": [
        {
          "internalType": "address",
          "name": "",
          "type": "address"
        }
      ],
      "stateMutability": "view",
      "type": "function"
    },
    {
      "inputs": [
        {
          "internalType": "uint256",
          "name": "",
          "type": "uint256"
        }
      ],
      "name": "mapOperatorAndServiceIdOperatorBalances",
      "outputs": [
        {
          "internalType": "uint256",
          "name": "",
          "type": "uint256"
        }
      ],
      "stateMutability": "view",
      "type": "function"
    },
    {
      "inputs": [
        {
          "internalType": "uint256",
          "name": "",
          "type": "uint256"
        }
      ],
      "name": "mapServiceAndAgentIdAgentBond",
      "outputs": [
        {
          "internalType": "uint256",
          "name": "",
          "type": "uint256"
        }
      ],
      "stateMutability": "view",
      "type": "function"
    },
    {
      "inputs": [
        {
          "internalType": "uint256",
          "name": "",
          "type": "uint256"
        }
      ],
      "name": "mapServiceIdTokenDeposit",
      "outputs": [
        {
          "internalType": "address",
          "name": "token",
          "type": "address"
        },
        {
          "internalType": "uint96",
          "name": "securityDeposit",
          "type": "uint96"
        }
      ],
      "stateMutability": "view",
      "type": "function"
    },
    {
      "inputs": [
        {
          "internalType": "address",
          "name": "",
          "type": "address"
        }
      ],
      "name": "mapSlashedFunds",
      "outputs": [
        {
          "internalType": "uint256",
          "name": "",
          "type": "uint256"
        }
      ],
      "stateMutability": "view",
      "type": "function"
    },
    {
      "inputs": [],
      "name": "owner",
      "outputs": [
        {
          "internalType": "address",
          "name": "",
          "type": "address"
        }
      ],
      "stateMutability": "view",
      "type": "function"
    },
    {
      "inputs": [
        {
          "internalType": "address",
          "name": "operator",
          "type": "address"
        },
        {
          "internalType": "uint256",
          "name": "serviceId",
          "type": "uint256"
        },
        {
          "internalType": "uint32[]",
          "name": "agentIds",
          "type": "uint32[]"
        }
      ],
      "name": "registerAgentsTokenDeposit",
      "outputs": [
        {
          "internalType": "bool",
          "name": "isTokenSecured",
          "type": "bool"
        }
      ],
      "stateMutability": "nonpayable",
      "type": "function"
    },
    {
      "inputs": [
        {
          "internalType": "uint256",
          "name": "serviceId",
          "type": "uint256"
        }
      ],
      "name": "resetServiceToken",
      "outputs": [],
      "stateMutability": "nonpayable",
      "type": "function"
    },
    {
      "inputs": [],
      "name": "serviceRegistry",
      "outputs": [
        {
          "internalType": "address",
          "name": "",
          "type": "address"
        }
      ],
      "stateMutability": "view",
      "type": "function"
    },
    {
      "inputs": [
        {
          "internalType": "address[]",
          "name": "agentInstances",
          "type": "address[]"
        },
        {
          "internalType": "uint256[]",
          "name": "amounts",
          "type": "uint256[]"
        },
        {
          "internalType": "uint256",
          "name": "serviceId",
          "type": "uint256"
        }
      ],
      "name": "slash",
      "outputs": [
        {
          "internalType": "bool",
          "name": "success",
          "type": "bool"
        }
      ],
      "stateMutability": "nonpayable",
      "type": "function"
    },
    {
      "inputs": [
        {
          "internalType": "uint256",
          "name": "serviceId",
          "type": "uint256"
        }
      ],
      "name": "terminateTokenRefund",
      "outputs": [
        {
          "internalType": "uint256",
          "name": "securityRefund",
          "type": "uint256"
        }
      ],
      "stateMutability": "nonpayable",
      "type": "function"
    },
    {
      "inputs": [
        {
          "internalType": "address",
          "name": "operator",
          "type": "address"
        },
        {
          "internalType": "uint256",
          "name": "serviceId",
          "type": "uint256"
        }
      ],
      "name": "unbondTokenRefund",
      "outputs": [
        {
          "internalType": "uint256",
          "name": "refund",
          "type": "uint256"
        }
      ],
      "stateMutability": "nonpayable",
      "type": "function"
    }
  ],
  "bytecode": "0x60a06040526001600355348015610014575f5ffd5b50604051611e77380380611e778339810160408190526100339161007c565b6001600160a01b03811661005a5760405163d92e233d60e01b815260040160405180910390fd5b6001600160a01b03166080525f80546001600160a01b031916331790556100a9565b5f6020828403121561008c575f5ffd5b81516001600160a01b03811681146100a2575f5ffd5b9392505050565b608051611d9a6100dd5f395f81816103ad015281816105a9015281816106a1015281816108260152610b300152611d9a5ff3fe608060405234801561000f575f5ffd5b5060043610610179575f3560e01c806375c1f934116100d2578063b0f4c24811610088578063dc4f8bc511610063578063dc4f8bc5146103ee578063e3ce9a8414610401578063ece5313214610414575f5ffd5b8063b0f4c24814610395578063cbcf252a146103a8578063cbd413a5146103cf575f5ffd5b80638da5cb5b116100b85780638da5cb5b1461035d578063a3fbbaae1461036f578063a6f9dae114610382575f5ffd5b806375c1f934146103085780638a2bd86f1461032f575f5ffd5b806346d7836d11610132578063542db4491161010d578063542db449146102cf57806357838e85146102e25780635f366258146102f5575f5ffd5b806346d7836d14610257578063481c6a75146102915780635419bb8c146102bc575f5ffd5b806325e1afc31161016257806325e1afc3146101c45780633cebfa4f146101d75780634214485414610238575f5ffd5b806310c6aa191461017d57806313f824d814610192575b5f5ffd5b61019061018b3660046118d4565b610427565b005b6101b16101a03660046118f6565b60056020525f908152604090205481565b6040519081526020015b60405180910390f35b6101b16101d23660046118f6565b6104e7565b6102116101e53660046118f6565b60046020525f90815260409020546001600160a01b03811690600160a01b90046001600160601b031682565b604080516001600160a01b0390931683526001600160601b039091166020830152016101bb565b6101b16102463660046118f6565b60066020525f908152604090205481565b6102816102653660046118f6565b5f908152600460205260409020546001600160a01b0316151590565b60405190151581526020016101bb565b6001546102a4906001600160a01b031681565b6040516001600160a01b0390911681526020016101bb565b6102816102ca3660046119df565b61069c565b6102816102dd3660046118f6565b610a58565b6002546102a4906001600160a01b031681565b6101906103033660046118f6565b610dcf565b6101b1610316366004611aad565b602090811b9091175f9081526005909152604090205490565b6101b161033d366004611acd565b60a01b6001600160a01b03909116175f9081526006602052604090205490565b5f546102a4906001600160a01b031681565b61019061037d3660046118d4565b610e1f565b6101906103903660046118d4565b610eda565b6101b16103a3366004611acd565b610f93565b6102a47f000000000000000000000000000000000000000000000000000000000000000081565b6101b16103dd3660046118d4565b60076020525f908152604090205481565b6102816103fc366004611b6c565b6110b5565b61019061040f366004611bc1565b611404565b6101b16104223660046118d4565b611698565b5f546001600160a01b0316331461046a575f5460405163521eb56d60e11b81523360048201526001600160a01b0390911660248201526044015b60405180910390fd5b6001600160a01b0381166104915760405163d92e233d60e01b815260040160405180910390fd5b6002805473ffffffffffffffffffffffffffffffffffffffff19166001600160a01b0383169081179091556040517f8d1e8547016120917daad7f81c42b48f7fee379badc48f1889f0f43bb6194725905f90a250565b5f6001600354111561050c576040516345f5ce8b60e11b815260040160405180910390fd5b60026003556001546001600160a01b031633146105515760015460405163312d21ff60e11b81523360048201526001600160a01b039091166024820152604401610461565b5f828152600460209081526040918290208251808401909352546001600160a01b038116808452600160a01b9091046001600160601b03169183019190915280156106905781602001516001600160601b031692505f7f00000000000000000000000000000000000000000000000000000000000000006001600160a01b0316636352211e866040518263ffffffff1660e01b81526004016105f591815260200190565b602060405180830381865afa158015610610573d5f5f3e3d5ffd5b505050506040513d601f19601f820116820180604052508101906106349190611c41565b90506106418282866117bc565b816001600160a01b0316816001600160a01b03167fb5ea3bd24bc48df54cdc99f11e448ab16503a3e16f46c363202f5fff4891acba8660405161068691815260200190565b60405180910390a3505b50506001600355919050565b5f5f5f7f00000000000000000000000000000000000000000000000000000000000000006001600160a01b0316634236aff8856040518263ffffffff1660e01b81526004016106ed91815260200190565b60e060405180830381865afa158015610708573d5f5f3e3d5ffd5b505050506040513d601f19601f8201168201806040525081019061072c9190611c5c565b9650505050509250508060ff1660041461076557604051633c053f9d60e21b815260ff8216600482015260248101859052604401610461565b8551158061077557508451865114155b156107a057855185516040516308151c1160e41b815260048101929092526024820152604401610461565b336001600160a01b038316146107e1576040516379f91cd360e01b81523360048201526001600160a01b038316602482015260448101859052606401610461565b5f848152600460205260409020546001600160a01b0316806108165760405163d92e233d60e01b815260040160405180910390fd5b86515f805b82811015610a0b575f7f00000000000000000000000000000000000000000000000000000000000000006001600160a01b0316634eb780da8c848151811061086557610865611cf9565b60200260200101516040518263ffffffff1660e01b815260040161089891906001600160a01b0391909116815260200190565b602060405180830381865afa1580156108b3573d5f5f3e3d5ffd5b505050506040513d601f19601f820116820180604052508101906108d79190611c41565b60a08a901b6001600160a01b038216175f8181526006602052604081205492935090919081900361090a57505050610a03565b808c858151811061091d5761091d611cf9565b60200260200101511061093e576109348186611d21565b94505f905061098d565b8b848151811061095057610950611cf9565b6020026020010151856109639190611d21565b94508b848151811061097757610977611cf9565b60200260200101518161098a9190611d3a565b90505b5f8281526006602052604090208190558b518b906001600160a01b038516907fd79658b314eb967321e5e6a82ab39f6f7ffc567d38c6feee527761aca406a597908f90889081106109e0576109e0611cf9565b60200260200101516040516109f791815260200190565b60405180910390a35050505b60010161081b565b506001600160a01b0383165f90815260076020526040902054610a2e9082611d21565b6001600160a01b039093165f90815260076020526040902092909255506001979650505050505050565b5f60016003541115610a7d576040516345f5ce8b60e11b815260040160405180910390fd5b60026003556001546001600160a01b03163314610ac25760015460405163312d21ff60e11b81523360048201526001600160a01b039091166024820152604401610461565b5f828152600460209081526040918290208251808401909352546001600160a01b038116808452600160a01b9091046001600160601b03169183019190915280156106905760208201516040516331a9108f60e11b8152600481018690526001600160601b03909116905f907f00000000000000000000000000000000000000000000000000000000000000006001600160a01b031690636352211e90602401602060405180830381865afa158015610b7d573d5f5f3e3d5ffd5b505050506040513d601f19601f82011682018060405250810190610ba19190611c41565b604051636eb1769f60e11b81526001600160a01b0380831660048301523060248301529192505f9185169063dd62ed3e90604401602060405180830381865afa158015610bf0573d5f5f3e3d5ffd5b505050506040513d601f19601f82011682018060405250810190610c149190611d4d565b905082811015610c4857604051631c30abbb60e31b8152600481018290526024810184905260448101889052606401610461565b6040516370a0823160e01b8152306004820152600196505f906001600160a01b038616906370a0823190602401602060405180830381865afa158015610c90573d5f5f3e3d5ffd5b505050506040513d601f19601f82011682018060405250810190610cb49190611d4d565b9050610cc285843087611839565b6040516370a0823160e01b81523060048201525f906001600160a01b038716906370a0823190602401602060405180830381865afa158015610d06573d5f5f3e3d5ffd5b505050506040513d601f19601f82011682018060405250810190610d2a9190611d4d565b905080821180610d43575084610d408383611d3a565b14155b15610d7157604051631c30abbb60e31b81525f600482015260248101869052604481018a9052606401610461565b856001600160a01b0316846001600160a01b03167f98c09d9949722bae4bd0d988d4050091c3ae7ec6d51d3c6bbfe4233593944e9e87604051610db691815260200190565b60405180910390a3505050505050506001600355919050565b6001546001600160a01b03163314610e0f5760015460405163312d21ff60e11b81523360048201526001600160a01b039091166024820152604401610461565b5f90815260046020526040812055565b5f546001600160a01b03163314610e5d575f5460405163521eb56d60e11b81523360048201526001600160a01b039091166024820152604401610461565b6001600160a01b038116610e845760405163d92e233d60e01b815260040160405180910390fd5b6001805473ffffffffffffffffffffffffffffffffffffffff19166001600160a01b0383169081179091556040517f2c1c11af44aa5608f1dca38c00275c30ea091e02417d36e70e9a1538689c433d905f90a250565b5f546001600160a01b03163314610f18575f5460405163521eb56d60e11b81523360048201526001600160a01b039091166024820152604401610461565b6001600160a01b038116610f3f5760405163d92e233d60e01b815260040160405180910390fd5b5f805473ffffffffffffffffffffffffffffffffffffffff19166001600160a01b038316908117825560405190917f4ffd725fc4a22075e9ec71c59edf9c38cdeb588a91b24fc5b61388c5be41282b91a250565b5f60016003541115610fb8576040516345f5ce8b60e11b815260040160405180910390fd5b60026003556001546001600160a01b03163314610ffd5760015460405163312d21ff60e11b81523360048201526001600160a01b039091166024820152604401610461565b5f828152600460205260409020546001600160a01b031680156110a95760a083901b6001600160a01b038516175f81815260066020526040902054925082156110a7575f818152600660205260408120556110598286856117bc565b816001600160a01b0316856001600160a01b03167fb5ea3bd24bc48df54cdc99f11e448ab16503a3e16f46c363202f5fff4891acba8560405161109e91815260200190565b60405180910390a35b505b50600160035592915050565b5f600160035411156110da576040516345f5ce8b60e11b815260040160405180910390fd5b60026003556001546001600160a01b0316331461111f5760015460405163312d21ff60e11b81523360048201526001600160a01b039091166024820152604401610461565b5f838152600460205260409020546001600160a01b031680156113f75782515f805b828110156111a2575f879050602087838151811061116157611161611cf9565b60209081029190910181015163ffffffff1690911b919091175f81815260059092526040909120546111938185611d21565b93505050806001019050611141565b50604051636eb1769f60e11b81526001600160a01b0388811660048301523060248301525f919085169063dd62ed3e90604401602060405180830381865afa1580156111f0573d5f5f3e3d5ffd5b505050506040513d601f19601f820116820180604052508101906112149190611d4d565b90508181101561124857604051637ebbcab960e11b8152600481018290526024810183905260448101889052606401610461565b60a087901b6001600160a01b038916175f8181526006602052604081208054859290611275908490611d21565b90915550506040516370a0823160e01b8152306004820152600196505f906001600160a01b038716906370a0823190602401602060405180830381865afa1580156112c2573d5f5f3e3d5ffd5b505050506040513d601f19601f820116820180604052508101906112e69190611d4d565b90506112f4868b3087611839565b6040516370a0823160e01b81523060048201525f906001600160a01b038816906370a0823190602401602060405180830381865afa158015611338573d5f5f3e3d5ffd5b505050506040513d601f19601f8201168201806040525081019061135c9190611d4d565b9050808211806113755750846113728383611d3a565b14155b156113a357604051637ebbcab960e11b81525f600482015260248101869052604481018b9052606401610461565b866001600160a01b03168b6001600160a01b03167f98c09d9949722bae4bd0d988d4050091c3ae7ec6d51d3c6bbfe4233593944e9e876040516113e891815260200190565b60405180910390a35050505050505b5060016003559392505050565b6001546001600160a01b031633146114445760015460405163312d21ff60e11b81523360048201526001600160a01b039091166024820152604401610461565b604080515f60248083018290528351808403909101815260449092019092526020810180517bffffffffffffffffffffffffffffffffffffffffffffffffffffffff166370a0823160e01b1790527f70a08231b98ef4ca268c9cc3f6b4590e4bfec28280db06bb5d45e689f2a360be91906001600160a01b0386163b156114d3575f5f825160208401895afa91505b816114fc5760405163e77376f360e01b81526001600160a01b0387166004820152602401610461565b5f805b86518110156116455785818151811061151a5761151a611cf9565b60200260200101515f031561163d576001600160601b03801686828151811061154557611545611cf9565b602002602001015111156115a25785818151811061156557611565611cf9565b60200260200101516001600160601b03604051637ae5968560e01b81526004016104619291909182526001600160601b0316602082015260400190565b5f89905060208883815181106115ba576115ba611cf9565b602002602001015163ffffffff16901b811790508682815181106115e0576115e0611cf9565b602002602001015160055f8381526020019081526020015f20819055508287838151811061161057611610611cf9565b6020026020010151111561163b5786828151811061163057611630611cf9565b602002602001015192505b505b6001016114ff565b506040805180820182526001600160a01b0398891681526001600160601b0392831660208083019182525f9b8c52600490529190992098519051909116600160a01b029616959095179095555050505050565b5f600160035411156116bd576040516345f5ce8b60e11b815260040160405180910390fd5b60026003555f546001600160a01b03163314611700575f5460405163521eb56d60e11b81523360048201526001600160a01b039091166024820152604401610461565b6002546001600160a01b03166117295760405163d92e233d60e01b815260040160405180910390fd5b506001600160a01b0381165f9081526007602052604090205480156117b2576001600160a01b038083165f9081526007602052604081205560025461177191849116836117bc565b6040518181526001600160a01b0383169033907feb64d3e0fe21df59e0edd78e9749e4bc9f3cf593a842d487fe40f29ef45fdad69060200160405180910390a35b6001600355919050565b5f60405163a9059cbb60e01b5f52836004528260245260205f60445f5f895af13d15601f3d1160015f511416171691505f6060528060405250806118335760405163cd3f165960e01b81526001600160a01b0380861660048301523060248301528416604482015260648101839052608401610461565b50505050565b5f6040516323b872dd60e01b5f5284600452836024528260445260205f60645f5f8a5af13d15601f3d1160015f511416171691505f6060528060405250806118b65760405163cd3f165960e01b81526001600160a01b03808716600483015280861660248301528416604482015260648101839052608401610461565b5050505050565b6001600160a01b03811681146118d1575f5ffd5b50565b5f602082840312156118e4575f5ffd5b81356118ef816118bd565b9392505050565b5f60208284031215611906575f5ffd5b5035919050565b634e487b7160e01b5f52604160045260245ffd5b604051601f8201601f1916810167ffffffffffffffff8111828210171561194a5761194a61190d565b604052919050565b5f67ffffffffffffffff82111561196b5761196b61190d565b5060051b60200190565b5f82601f830112611984575f5ffd5b813561199761199282611952565b611921565b8082825260208201915060208360051b8601019250858311156119b8575f5ffd5b602085015b838110156119d55780358352602092830192016119bd565b5095945050505050565b5f5f5f606084860312156119f1575f5ffd5b833567ffffffffffffffff811115611a07575f5ffd5b8401601f81018613611a17575f5ffd5b8035611a2561199282611952565b8082825260208201915060208360051b850101925088831115611a46575f5ffd5b6020840193505b82841015611a71578335611a60816118bd565b825260209384019390910190611a4d565b9550505050602084013567ffffffffffffffff811115611a8f575f5ffd5b611a9b86828701611975565b93969395505050506040919091013590565b5f5f60408385031215611abe575f5ffd5b50508035926020909101359150565b5f5f60408385031215611ade575f5ffd5b8235611ae9816118bd565b946020939093013593505050565b63ffffffff811681146118d1575f5ffd5b5f82601f830112611b17575f5ffd5b8135611b2561199282611952565b8082825260208201915060208360051b860101925085831115611b46575f5ffd5b602085015b838110156119d5578035611b5e81611af7565b835260209283019201611b4b565b5f5f5f60608486031215611b7e575f5ffd5b8335611b89816118bd565b925060208401359150604084013567ffffffffffffffff811115611bab575f5ffd5b611bb786828701611b08565b9150509250925092565b5f5f5f5f60808587031215611bd4575f5ffd5b843593506020850135611be6816118bd565b9250604085013567ffffffffffffffff811115611c01575f5ffd5b611c0d87828801611b08565b925050606085013567ffffffffffffffff811115611c29575f5ffd5b611c3587828801611975565b91505092959194509250565b5f60208284031215611c51575f5ffd5b81516118ef816118bd565b5f5f5f5f5f5f5f60e0888a031215611c72575f5ffd5b87516001600160601b0381168114611c88575f5ffd5b6020890151909750611c99816118bd565b604089015160608a01519197509550611cb181611af7565b6080890151909450611cc281611af7565b60a0890151909350611cd381611af7565b60c089015190925060ff81168114611ce9575f5ffd5b8091505092959891949750929550565b634e487b7160e01b5f52603260045260245ffd5b634e487b7160e01b5f52601160045260245ffd5b80820180821115611d3457611d34611d0d565b92915050565b81810381811115611d3457611d34611d0d565b5f60208284031215611d5d575f5ffd5b505191905056fea26469706673582212201cf065724aecdad4a24ff271e061ee3eb243de2d8e61ee3359e66c1e686e6d2464736f6c634300081c0033",
  "linkReferences": {},
  "deployedLinkReferences": {}
}