{
  "_format": "hh-sol-artifact-1",
  "contractName": "StakingVerifier",
  "sourceName": "contracts/staking/StakingVerifier.sol",
  "abi": [
    {
      "inputs": [
        {
          "internalType": "address",
          "name": "_olas",
          "type": "address"
        },
        {
          "internalType": "address",
          "name": "_serviceRegistry",
          "type": "address"
        },
        {
          "internalType": "address",
          "name": "_serviceRegistryTokenUtility",
          "type": "address"
        },
        {
          "internalType": "uint256",
          "name": "_minStakingDepositLimit",
          "type": "uint256"
        },
        {
          "internalType": "uint256",
          "name": "_timeForEmissionsLimit",
          "type": "uint256"
        },
        {
          "internalType": "uint256",
          "name": "_numServicesLimit",
          "type": "uint256"
        },
        {
          "internalType": "uint256",
          "name": "_apyLimit",
          "type": "uint256"
        }
      ],
      "stateMutability": "nonpayable",
      "type": "constructor"
    },
    {
      "inputs": [
        {
          "internalType": "address",
          "name": "sender",
          "type": "address"
        },
        {
          "internalType": "address",
          "name": "owner",
          "type": "address"
        }
      ],
      "name": "OwnerOnly",
      "type": "error"
    },
    {
      "inputs": [
        {
          "internalType": "uint256",
          "name": "numValues1",
          "type": "uint256"
        },
        {
          "internalType": "uint256",
          "name": "numValues2",
          "type": "uint256"
        }
      ],
      "name": "WrongArrayLength",
      "type": "error"
    },
    {
      "inputs": [],
      "name": "ZeroAddress",
      "type": "error"
    },
    {
      "inputs": [],
      "name": "ZeroValue",
      "type": "error"
    },
    {
      "anonymous": false,
      "inputs": [
        {
          "indexed": false,
          "internalType": "address[]",
          "name": "implementations",
          "type": "address[]"
        },
        {
          "indexed": false,
          "internalType": "bool[]",
          "name": "statuses",
          "type": "bool[]"
        },
        {
          "indexed": false,
          "internalType": "bool",
          "name": "setCheck",
          "type": "bool"
        }
      ],
      "name": "ImplementationsWhitelistUpdated",
      "type": "event"
    },
    {
      "anonymous": false,
      "inputs": [
        {
          "indexed": true,
          "internalType": "address",
          "name": "owner",
          "type": "address"
        }
      ],
      "name": "OwnerUpdated",
      "type": "event"
    },
    {
      "anonymous": false,
      "inputs": [
        {
          "indexed": false,
          "internalType": "bool",
          "name": "setCheck",
          "type": "bool"
        }
      ],
      "name": "SetImplementationsCheck",
      "type": "event"
    },
    {
      "anonymous": false,
      "inputs": [
        {
          "indexed": false,
          "internalType": "uint256",
          "name": "minStakingDepositLimit",
          "type": "uint256"
        },
        {
          "indexed": false,
          "internalType": "uint256",
          "name": "timeForEmissionsLimit",
          "type": "uint256"
        },
        {
          "indexed": false,
          "internalType": "uint256",
          "name": "numServicesLimit",
          "type": "uint256"
        },
        {
          "indexed": false,
          "internalType": "uint256",
          "name": "apyLimit",
          "type": "uint256"
        }
      ],
      "name": "StakingLimitsUpdated",
      "type": "event"
    },
    {
      "inputs": [],
      "name": "ONE_YEAR",
      "outputs": [
        {
          "internalType": "uint256",
          "name": "",
          "type": "uint256"
        }
      ],
      "stateMutability": "view",
      "type": "function"
    },
    {
      "inputs": [],
      "name": "apyLimit",
      "outputs": [
        {
          "internalType": "uint256",
          "name": "",
          "type": "uint256"
        }
      ],
      "stateMutability": "view",
      "type": "function"
    },
    {
      "inputs": [
        {
          "internalType": "address",
          "name": "newOwner",
          "type": "address"
        }
      ],
      "name": "changeOwner",
      "outputs": [],
      "stateMutability": "nonpayable",
      "type": "function"
    },
    {
      "inputs": [
        {
          "internalType": "uint256",
          "name": "_minStakingDepositLimit",
          "type": "uint256"
        },
        {
          "internalType": "uint256",
          "name": "_timeForEmissionsLimit",
          "type": "uint256"
        },
        {
          "internalType": "uint256",
          "name": "_numServicesLimit",
          "type": "uint256"
        },
        {
          "internalType": "uint256",
          "name": "_apyLimit",
          "type": "uint256"
        }
      ],
      "name": "changeStakingLimits",
      "outputs": [],
      "stateMutability": "nonpayable",
      "type": "function"
    },
    {
      "inputs": [
        {
          "internalType": "address",
          "name": "instance",
          "type": "address"
        }
      ],
      "name": "getEmissionsAmountLimit",
      "outputs": [
        {
          "internalType": "uint256",
          "name": "amount",
          "type": "uint256"
        }
      ],
      "stateMutability": "view",
      "type": "function"
    },
    {
      "inputs": [],
      "name": "implementationsCheck",
      "outputs": [
        {
          "internalType": "bool",
          "name": "",
          "type": "bool"
        }
      ],
      "stateMutability": "view",
      "type": "function"
    },
    {
      "inputs": [
        {
          "internalType": "address",
          "name": "",
          "type": "address"
        }
      ],
      "name": "mapImplementations",
      "outputs": [
        {
          "internalType": "bool",
          "name": "",
          "type": "bool"
        }
      ],
      "stateMutability": "view",
      "type": "function"
    },
    {
      "inputs": [],
      "name": "minStakingDepositLimit",
      "outputs": [
        {
          "internalType": "uint256",
          "name": "",
          "type": "uint256"
        }
      ],
      "stateMutability": "view",
      "type": "function"
    },
    {
      "inputs": [],
      "name": "numServicesLimit",
      "outputs": [
        {
          "internalType": "uint256",
          "name": "",
          "type": "uint256"
        }
      ],
      "stateMutability": "view",
      "type": "function"
    },
    {
      "inputs": [],
      "name": "olas",
      "outputs": [
        {
          "internalType": "address",
          "name": "",
          "type": "address"
        }
      ],
      "stateMutability": "view",
      "type": "function"
    },
    {
      "inputs": [],
      "name": "owner",
      "outputs": [
        {
          "internalType": "address",
          "name": "",
          "type": "address"
        }
      ],
      "stateMutability": "view",
      "type": "function"
    },
    {
      "inputs": [],
      "name": "serviceRegistry",
      "outputs": [
        {
          "internalType": "address",
          "name": "",
          "type": "address"
        }
      ],
      "stateMutability": "view",
      "type": "function"
    },
    {
      "inputs": [],
      "name": "serviceRegistryTokenUtility",
      "outputs": [
        {
          "internalType": "address",
          "name": "",
          "type": "address"
        }
      ],
      "stateMutability": "view",
      "type": "function"
    },
    {
      "inputs": [
        {
          "internalType": "bool",
          "name": "setCheck",
          "type": "bool"
        }
      ],
      "name": "setImplementationsCheck",
      "outputs": [],
      "stateMutability": "nonpayable",
      "type": "function"
    },
    {
      "inputs": [
        {
          "internalType": "address[]",
          "name": "implementations",
          "type": "address[]"
        },
        {
          "internalType": "bool[]",
          "name": "statuses",
          "type": "bool[]"
        },
        {
          "internalType": "bool",
          "name": "setCheck",
          "type": "bool"
        }
      ],
      "name": "setImplementationsStatuses",
      "outputs": [],
      "stateMutability": "nonpayable",
      "type": "function"
    },
    {
      "inputs": [],
      "name": "timeForEmissionsLimit",
      "outputs": [
        {
          "internalType": "uint256",
          "name": "",
          "type": "uint256"
        }
      ],
      "stateMutability": "view",
      "type": "function"
    },
    {
      "inputs": [
        {
          "internalType": "address",
          "name": "implementation",
          "type": "address"
        }
      ],
      "name": "verifyImplementation",
      "outputs": [
        {
          "internalType": "bool",
          "name": "",
          "type": "bool"
        }
      ],
      "stateMutability": "view",
      "type": "function"
    },
    {
      "inputs": [
        {
          "internalType": "address",
          "name": "instance",
          "type": "address"
        },
        {
          "internalType": "address",
          "name": "implementation",
          "type": "address"
        }
      ],
      "name": "verifyInstance",
      "outputs": [
        {
          "internalType": "bool",
          "name": "",
          "type": "bool"
        }
      ],
      "stateMutability": "view",
      "type": "function"
    }
  ],
  "bytecode": "0x60e060405234801561000f575f5ffd5b506040516112c83803806112c883398101604081905261002e91610102565b6001600160a01b038716158061004b57506001600160a01b038616155b156100695760405163d92e233d60e01b815260040160405180910390fd5b831580610074575082155b8061007d575081155b80610086575080155b156100a457604051637c946ed760e01b815260040160405180910390fd5b600480546001600160a01b031916331790556001600160a01b0396871660805294861660a0529290941660c0525f55600192909255600291909155600355610169565b80516001600160a01b03811681146100fd575f5ffd5b919050565b5f5f5f5f5f5f5f60e0888a031215610118575f5ffd5b610121886100e7565b965061012f602089016100e7565b955061013d604089016100e7565b606089015160808a015160a08b015160c0909b0151999c989b5091999098919790965090945092505050565b60805160a05160c0516111196101af5f395f81816101ee01528181610a590152610b3b01525f81816102aa01526106c801525f818161013701526109e401526111195ff3fe608060405234801561000f575f5ffd5b506004361061012e575f3560e01c806369be670b116100ad578063a3ba9aef1161007d578063c446841811610063578063c446841814610292578063cbcf252a146102a5578063fcf7684e146102cc575f5ffd5b8063a3ba9aef14610276578063a6f9dae11461027f575f5ffd5b806369be670b146102345780638da5cb5b1461024757806396324ed61461025a5780639ac28fa01461026d575f5ffd5b806316d3bfbb1161010257806330030a48116100e857806330030a48146102105780633878678414610218578063517c0a8f1461022b575f5ffd5b806316d3bfbb146101d057806328714051146101e9575f5ffd5b806231d1151461013257806305236024146101765780630bea55ed1461018b5780630d93650c1461019e575b5f5ffd5b6101597f000000000000000000000000000000000000000000000000000000000000000081565b6040516001600160a01b0390911681526020015b60405180910390f35b610189610184366004610d38565b6102e0565b005b610189610199366004610e6b565b6103c4565b6101c06101ac366004610f3f565b60056020525f908152604090205460ff1681565b604051901515815260200161016d565b6101db6301e1338081565b60405190815260200161016d565b6101597f000000000000000000000000000000000000000000000000000000000000000081565b6101db5f5481565b6101db610226366004610f3f565b610558565b6101db60025481565b6101c0610242366004610f61565b6105bf565b600454610159906001600160a01b031681565b6101c0610268366004610f3f565b610b9a565b6101db60015481565b6101db60035481565b61018961028d366004610f3f565b610bd4565b6101896102a0366004610f98565b610c9d565b6101597f000000000000000000000000000000000000000000000000000000000000000081565b6004546101c090600160a01b900460ff1681565b6004546001600160a01b03163314610328576004805460405163521eb56d60e11b81526001600160a01b03909116918101919091523360248201526044015b60405180910390fd5b831580610333575082155b8061033c575081155b80610345575080155b1561036357604051637c946ed760e01b815260040160405180910390fd5b5f8490556001839055600282905560038190556040805185815260208101859052908101839052606081018290527faf40dfd820e3c4d9869867d01bef72bc7355b89f888bde8f0e24025202b0d7459060800160405180910390a150505050565b6004546001600160a01b03163314610407576004805460405163521eb56d60e11b81526001600160a01b039091169181019190915233602482015260440161031f565b8251158061041757508151835114155b1561044257825182516040516308151c1160e41b81526004810192909252602482015260440161031f565b6004805460ff60a01b1916600160a01b831515021790555f5b8351811015610517575f6001600160a01b031684828151811061048057610480610fb1565b60200260200101516001600160a01b0316036104af5760405163d92e233d60e01b815260040160405180910390fd5b8281815181106104c1576104c1610fb1565b602002602001015160055f8684815181106104de576104de610fb1565b6020908102919091018101516001600160a01b031682528101919091526040015f20805460ff191691151591909117905560010161045b565b507fa75993bdbe9ad771324babfee934d208587d3321632d15aa92547ee71226354183838360405161054b93929190610fc5565b60405180910390a1505050565b5f816001600160a01b031663957323616040518163ffffffff1660e01b8152600401602060405180830381865afa158015610595573d5f5f3e3d5ffd5b505050506040513d601f19601f820116820180604052508101906105b99190611059565b92915050565b6004545f90600160a01b900460ff1680156105f257506001600160a01b0382165f9081526005602052604090205460ff16155b156105fe57505f6105b9565b826001600160a01b03163b5f0361061657505f6105b9565b60408051600481526024810182526020810180516001600160e01b03166365e7929560e11b17905290515f9081906001600160a01b0387169061065a908590611070565b5f60405180830381855afa9150503d805f8114610692576040519150601f19603f3d011682016040523d82523d5f602084013e610697565b606091505b50915091508180156106aa575080516020145b15610711575f818060200190518101906106c49190611086565b90507f00000000000000000000000000000000000000000000000000000000000000006001600160a01b0316816001600160a01b03161461070b575f9450505050506105b9565b5061071c565b5f93505050506105b9565b5f866001600160a01b031663e77cdcc96040518163ffffffff1660e01b8152600401602060405180830381865afa158015610759573d5f5f3e3d5ffd5b505050506040513d601f19601f8201168201806040525081019061077d9190611059565b90505f54811115610794575f9450505050506105b9565b5f6301e13380886001600160a01b031663eacdaabc6040518163ffffffff1660e01b8152600401602060405180830381865afa1580156107d6573d5f5f3e3d5ffd5b505050506040513d601f19601f820116820180604052508101906107fa9190611059565b61080491906110a1565b90505f8261081a83670de0b6b3a76400006110a1565b61082491906110c4565b905060035481111561083e575f96505050505050506105b9565b5f896001600160a01b0316631f7794086040518163ffffffff1660e01b8152600401602060405180830381865afa15801561087b573d5f5f3e3d5ffd5b505050506040513d601f19601f8201168201806040525081019061089f9190611059565b90506001548111156108ba575f9750505050505050506105b9565b5f8a6001600160a01b03166316a751726040518163ffffffff1660e01b8152600401602060405180830381865afa1580156108f7573d5f5f3e3d5ffd5b505050506040513d601f19601f8201168201806040525081019061091b9190611059565b9050600254811115610937575f985050505050505050506105b9565b60408051600481526024810182526020810180516001600160e01b03166372f702f360e01b17905290515f91906001600160a01b038e169061097a908390611070565b5f60405180830381855afa9150503d805f81146109b2576040519150601f19603f3d011682016040523d82523d5f602084013e6109b7565b606091505b5090995097508815610a44578751602003610a3257878060200190518101906109e09190611086565b91507f00000000000000000000000000000000000000000000000000000000000000006001600160a01b0316826001600160a01b031614610a2d575f9a50505050505050505050506105b9565b610a44565b5f9a50505050505050505050506105b9565b6001600160a01b03821615801590610a8457507f00000000000000000000000000000000000000000000000000000000000000006001600160a01b031615155b15610b875760408051600481526024810182526020810180516001600160e01b0316632871405160e01b1790529051909a506001600160a01b038e1690610acc908c90611070565b5f60405180830381855afa9150503d805f8114610b04576040519150601f19603f3d011682016040523d82523d5f602084013e610b09565b606091505b509099509750888015610b1d575087516020145b15610a32575f88806020019051810190610b379190611086565b90507f00000000000000000000000000000000000000000000000000000000000000006001600160a01b0316816001600160a01b031614610b85575f9b5050505050505050505050506105b9565b505b5060019c9b505050505050505050505050565b6004545f90600160a01b900460ff1615610bcc57506001600160a01b03165f9081526005602052604090205460ff1690565b506001919050565b6004546001600160a01b03163314610c15576004805460405163521eb56d60e11b815233928101929092526001600160a01b0316602482015260440161031f565b6001600160a01b038116610c3c5760405163d92e233d60e01b815260040160405180910390fd5b600480547fffffffffffffffffffffffff0000000000000000000000000000000000000000166001600160a01b0383169081179091556040517f4ffd725fc4a22075e9ec71c59edf9c38cdeb588a91b24fc5b61388c5be41282b905f90a250565b6004546001600160a01b03163314610ce0576004805460405163521eb56d60e11b81526001600160a01b039091169181019190915233602482015260440161031f565b60048054821515600160a01b0260ff60a01b199091161790556040517fdc17e046a4e55c5445deae0e2503d60b1ce5ecce83a0dc62c9066bbc7f39db5690610d2d90831515815260200190565b60405180910390a150565b5f5f5f5f60808587031215610d4b575f5ffd5b5050823594602084013594506040840135936060013592509050565b634e487b7160e01b5f52604160045260245ffd5b604051601f8201601f1916810167ffffffffffffffff81118282101715610da457610da4610d67565b604052919050565b5f67ffffffffffffffff821115610dc557610dc5610d67565b5060051b60200190565b6001600160a01b0381168114610de3575f5ffd5b50565b80358015158114610df5575f5ffd5b919050565b5f82601f830112610e09575f5ffd5b8135610e1c610e1782610dac565b610d7b565b8082825260208201915060208360051b860101925085831115610e3d575f5ffd5b602085015b83811015610e6157610e5381610de6565b835260209283019201610e42565b5095945050505050565b5f5f5f60608486031215610e7d575f5ffd5b833567ffffffffffffffff811115610e93575f5ffd5b8401601f81018613610ea3575f5ffd5b8035610eb1610e1782610dac565b8082825260208201915060208360051b850101925088831115610ed2575f5ffd5b6020840193505b82841015610efd578335610eec81610dcf565b825260209384019390910190610ed9565b9550505050602084013567ffffffffffffffff811115610f1b575f5ffd5b610f2786828701610dfa565b925050610f3660408501610de6565b90509250925092565b5f60208284031215610f4f575f5ffd5b8135610f5a81610dcf565b9392505050565b5f5f60408385031215610f72575f5ffd5b8235610f7d81610dcf565b91506020830135610f8d81610dcf565b809150509250929050565b5f60208284031215610fa8575f5ffd5b610f5a82610de6565b634e487b7160e01b5f52603260045260245ffd5b606080825284519082018190525f9060208601906080840190835b818110156110075783516001600160a01b0316835260209384019390920191600101610fe0565b5050838103602080860191909152865180835291810192508601905f5b818110156110445782511515845260209384019390920191600101611024565b50505083151560408401529050949350505050565b5f60208284031215611069575f5ffd5b5051919050565b5f82518060208501845e5f920191825250919050565b5f60208284031215611096575f5ffd5b8151610f5a81610dcf565b80820281158282048414176105b957634e487b7160e01b5f52601160045260245ffd5b5f826110de57634e487b7160e01b5f52601260045260245ffd5b50049056fea2646970667358221220649d5030035db94744f11ab0c6cacac89f3f877f85882ea8374786ea89b0d7ca64736f6c634300081c0033",
  "linkReferences": {},
  "deployedLinkReferences": {}
}