{
  "_format": "hh-sol-artifact-1",
  "contractName": "StakingNativeToken",
  "sourceName": "contracts/staking/StakingNativeToken.sol",
  "abi": [
    {
      "inputs": [],
      "name": "AlreadyInitialized",
      "type": "error"
    },
    {
      "inputs": [
        {
          "internalType": "address",
          "name": "activityChecker",
          "type": "address"
        }
      ],
      "name": "ContractOnly",
      "type": "error"
    },
    {
      "inputs": [
        {
          "internalType": "uint256",
          "name": "provided",
          "type": "uint256"
        },
        {
          "internalType": "uint256",
          "name": "expected",
          "type": "uint256"
        }
      ],
      "name": "LowerThan",
      "type": "error"
    },
    {
      "inputs": [
        {
          "internalType": "uint256",
          "name": "maxNumServices",
          "type": "uint256"
        }
      ],
      "name": "MaxNumServicesReached",
      "type": "error"
    },
    {
      "inputs": [],
      "name": "NoRewardsAvailable",
      "type": "error"
    },
    {
      "inputs": [
        {
          "internalType": "uint256",
          "name": "serviceId",
          "type": "uint256"
        },
        {
          "internalType": "uint256",
          "name": "tsProvided",
          "type": "uint256"
        },
        {
          "internalType": "uint256",
          "name": "tsExpected",
          "type": "uint256"
        }
      ],
      "name": "NotEnoughTimeStaked",
      "type": "error"
    },
    {
      "inputs": [
        {
          "internalType": "address",
          "name": "sender",
          "type": "address"
        },
        {
          "internalType": "address",
          "name": "owner",
          "type": "address"
        }
      ],
      "name": "OwnerOnly",
      "type": "error"
    },
    {
      "inputs": [
        {
          "internalType": "uint256",
          "name": "serviceId",
          "type": "uint256"
        }
      ],
      "name": "ServiceNotUnstaked",
      "type": "error"
    },
    {
      "inputs": [
        {
          "internalType": "address",
          "name": "token",
          "type": "address"
        },
        {
          "internalType": "address",
          "name": "from",
          "type": "address"
        },
        {
          "internalType": "address",
          "name": "to",
          "type": "address"
        },
        {
          "internalType": "uint256",
          "name": "value",
          "type": "uint256"
        }
      ],
      "name": "TransferFailed",
      "type": "error"
    },
    {
      "inputs": [
        {
          "internalType": "address",
          "name": "multisig",
          "type": "address"
        }
      ],
      "name": "UnauthorizedMultisig",
      "type": "error"
    },
    {
      "inputs": [
        {
          "internalType": "uint256",
          "name": "agentId",
          "type": "uint256"
        }
      ],
      "name": "WrongAgentId",
      "type": "error"
    },
    {
      "inputs": [
        {
          "internalType": "uint256",
          "name": "serviceId",
          "type": "uint256"
        }
      ],
      "name": "WrongServiceConfiguration",
      "type": "error"
    },
    {
      "inputs": [
        {
          "internalType": "uint256",
          "name": "state",
          "type": "uint256"
        },
        {
          "internalType": "uint256",
          "name": "serviceId",
          "type": "uint256"
        }
      ],
      "name": "WrongServiceState",
      "type": "error"
    },
    {
      "inputs": [],
      "name": "ZeroAddress",
      "type": "error"
    },
    {
      "inputs": [],
      "name": "ZeroValue",
      "type": "error"
    },
    {
      "anonymous": false,
      "inputs": [
        {
          "indexed": true,
          "internalType": "uint256",
          "name": "epoch",
          "type": "uint256"
        },
        {
          "indexed": false,
          "internalType": "uint256",
          "name": "availableRewards",
          "type": "uint256"
        },
        {
          "indexed": false,
          "internalType": "uint256[]",
          "name": "serviceIds",
          "type": "uint256[]"
        },
        {
          "indexed": false,
          "internalType": "uint256[]",
          "name": "rewards",
          "type": "uint256[]"
        },
        {
          "indexed": false,
          "internalType": "uint256",
          "name": "epochLength",
          "type": "uint256"
        }
      ],
      "name": "Checkpoint",
      "type": "event"
    },
    {
      "anonymous": false,
      "inputs": [
        {
          "indexed": true,
          "internalType": "address",
          "name": "sender",
          "type": "address"
        },
        {
          "indexed": false,
          "internalType": "uint256",
          "name": "amount",
          "type": "uint256"
        },
        {
          "indexed": false,
          "internalType": "uint256",
          "name": "balance",
          "type": "uint256"
        },
        {
          "indexed": false,
          "internalType": "uint256",
          "name": "availableRewards",
          "type": "uint256"
        }
      ],
      "name": "Deposit",
      "type": "event"
    },
    {
      "anonymous": false,
      "inputs": [
        {
          "indexed": false,
          "internalType": "uint256",
          "name": "epoch",
          "type": "uint256"
        },
        {
          "indexed": true,
          "internalType": "uint256",
          "name": "serviceId",
          "type": "uint256"
        },
        {
          "indexed": true,
          "internalType": "address",
          "name": "owner",
          "type": "address"
        },
        {
          "indexed": true,
          "internalType": "address",
          "name": "multisig",
          "type": "address"
        },
        {
          "indexed": false,
          "internalType": "uint256[]",
          "name": "nonces",
          "type": "uint256[]"
        },
        {
          "indexed": false,
          "internalType": "uint256",
          "name": "reward",
          "type": "uint256"
        }
      ],
      "name": "RewardClaimed",
      "type": "event"
    },
    {
      "anonymous": false,
      "inputs": [
        {
          "indexed": false,
          "internalType": "uint256",
          "name": "epoch",
          "type": "uint256"
        },
        {
          "indexed": true,
          "internalType": "uint256",
          "name": "serviceId",
          "type": "uint256"
        },
        {
          "indexed": true,
          "internalType": "address",
          "name": "owner",
          "type": "address"
        },
        {
          "indexed": true,
          "internalType": "address",
          "name": "multisig",
          "type": "address"
        },
        {
          "indexed": false,
          "internalType": "uint256[]",
          "name": "nonces",
          "type": "uint256[]"
        },
        {
          "indexed": false,
          "internalType": "uint256",
          "name": "reward",
          "type": "uint256"
        },
        {
          "indexed": false,
          "internalType": "uint256",
          "name": "availableRewards",
          "type": "uint256"
        }
      ],
      "name": "ServiceForceUnstaked",
      "type": "event"
    },
    {
      "anonymous": false,
      "inputs": [
        {
          "indexed": false,
          "internalType": "uint256",
          "name": "epoch",
          "type": "uint256"
        },
        {
          "indexed": true,
          "internalType": "uint256",
          "name": "serviceId",
          "type": "uint256"
        },
        {
          "indexed": false,
          "internalType": "uint256",
          "name": "serviceInactivity",
          "type": "uint256"
        }
      ],
      "name": "ServiceInactivityWarning",
      "type": "event"
    },
    {
      "anonymous": false,
      "inputs": [
        {
          "indexed": false,
          "internalType": "uint256",
          "name": "epoch",
          "type": "uint256"
        },
        {
          "indexed": true,
          "internalType": "uint256",
          "name": "serviceId",
          "type": "uint256"
        },
        {
          "indexed": true,
          "internalType": "address",
          "name": "owner",
          "type": "address"
        },
        {
          "indexed": true,
          "internalType": "address",
          "name": "multisig",
          "type": "address"
        },
        {
          "indexed": false,
          "internalType": "uint256[]",
          "name": "nonces",
          "type": "uint256[]"
        }
      ],
      "name": "ServiceStaked",
      "type": "event"
    },
    {
      "anonymous": false,
      "inputs": [
        {
          "indexed": false,
          "internalType": "uint256",
          "name": "epoch",
          "type": "uint256"
        },
        {
          "indexed": true,
          "internalType": "uint256",
          "name": "serviceId",
          "type": "uint256"
        },
        {
          "indexed": true,
          "internalType": "address",
          "name": "owner",
          "type": "address"
        },
        {
          "indexed": true,
          "internalType": "address",
          "name": "multisig",
          "type": "address"
        },
        {
          "indexed": false,
          "internalType": "uint256[]",
          "name": "nonces",
          "type": "uint256[]"
        },
        {
          "indexed": false,
          "internalType": "uint256",
          "name": "reward",
          "type": "uint256"
        },
        {
          "indexed": false,
          "internalType": "uint256",
          "name": "availableRewards",
          "type": "uint256"
        }
      ],
      "name": "ServiceUnstaked",
      "type": "event"
    },
    {
      "anonymous": false,
      "inputs": [
        {
          "indexed": true,
          "internalType": "uint256",
          "name": "epoch",
          "type": "uint256"
        },
        {
          "indexed": false,
          "internalType": "uint256[]",
          "name": "serviceIds",
          "type": "uint256[]"
        },
        {
          "indexed": false,
          "internalType": "address[]",
          "name": "owners",
          "type": "address[]"
        },
        {
          "indexed": false,
          "internalType": "address[]",
          "name": "multisigs",
          "type": "address[]"
        },
        {
          "indexed": false,
          "internalType": "uint256[]",
          "name": "serviceInactivity",
          "type": "uint256[]"
        }
      ],
      "name": "ServicesEvicted",
      "type": "event"
    },
    {
      "anonymous": false,
      "inputs": [
        {
          "indexed": true,
          "internalType": "address",
          "name": "to",
          "type": "address"
        },
        {
          "indexed": false,
          "internalType": "uint256",
          "name": "amount",
          "type": "uint256"
        }
      ],
      "name": "Withdraw",
      "type": "event"
    },
    {
      "inputs": [],
      "name": "VERSION",
      "outputs": [
        {
          "internalType": "string",
          "name": "",
          "type": "string"
        }
      ],
      "stateMutability": "view",
      "type": "function"
    },
    {
      "inputs": [],
      "name": "activityChecker",
      "outputs": [
        {
          "internalType": "address",
          "name": "",
          "type": "address"
        }
      ],
      "stateMutability": "view",
      "type": "function"
    },
    {
      "inputs": [
        {
          "internalType": "uint256",
          "name": "",
          "type": "uint256"
        }
      ],
      "name": "agentIds",
      "outputs": [
        {
          "internalType": "uint256",
          "name": "",
          "type": "uint256"
        }
      ],
      "stateMutability": "view",
      "type": "function"
    },
    {
      "inputs": [],
      "name": "availableRewards",
      "outputs": [
        {
          "internalType": "uint256",
          "name": "",
          "type": "uint256"
        }
      ],
      "stateMutability": "view",
      "type": "function"
    },
    {
      "inputs": [],
      "name": "balance",
      "outputs": [
        {
          "internalType": "uint256",
          "name": "",
          "type": "uint256"
        }
      ],
      "stateMutability": "view",
      "type": "function"
    },
    {
      "inputs": [
        {
          "internalType": "uint256",
          "name": "serviceId",
          "type": "uint256"
        }
      ],
      "name": "calculateStakingLastReward",
      "outputs": [
        {
          "internalType": "uint256",
          "name": "reward",
          "type": "uint256"
        }
      ],
      "stateMutability": "view",
      "type": "function"
    },
    {
      "inputs": [
        {
          "internalType": "uint256",
          "name": "serviceId",
          "type": "uint256"
        }
      ],
      "name": "calculateStakingReward",
      "outputs": [
        {
          "internalType": "uint256",
          "name": "reward",
          "type": "uint256"
        }
      ],
      "stateMutability": "view",
      "type": "function"
    },
    {
      "inputs": [],
      "name": "checkpoint",
      "outputs": [
        {
          "internalType": "uint256[]",
          "name": "",
          "type": "uint256[]"
        },
        {
          "internalType": "uint256[]",
          "name": "",
          "type": "uint256[]"
        },
        {
          "internalType": "uint256[]",
          "name": "",
          "type": "uint256[]"
        },
        {
          "internalType": "uint256[]",
          "name": "evictServiceIds",
          "type": "uint256[]"
        }
      ],
      "stateMutability": "nonpayable",
      "type": "function"
    },
    {
      "inputs": [
        {
          "internalType": "uint256",
          "name": "serviceId",
          "type": "uint256"
        }
      ],
      "name": "checkpointAndClaim",
      "outputs": [
        {
          "internalType": "uint256",
          "name": "",
          "type": "uint256"
        }
      ],
      "stateMutability": "nonpayable",
      "type": "function"
    },
    {
      "inputs": [
        {
          "internalType": "uint256",
          "name": "serviceId",
          "type": "uint256"
        }
      ],
      "name": "claim",
      "outputs": [
        {
          "internalType": "uint256",
          "name": "",
          "type": "uint256"
        }
      ],
      "stateMutability": "nonpayable",
      "type": "function"
    },
    {
      "inputs": [],
      "name": "configHash",
      "outputs": [
        {
          "internalType": "bytes32",
          "name": "",
          "type": "bytes32"
        }
      ],
      "stateMutability": "view",
      "type": "function"
    },
    {
      "inputs": [],
      "name": "emissionsAmount",
      "outputs": [
        {
          "internalType": "uint256",
          "name": "",
          "type": "uint256"
        }
      ],
      "stateMutability": "view",
      "type": "function"
    },
    {
      "inputs": [],
      "name": "epochCounter",
      "outputs": [
        {
          "internalType": "uint256",
          "name": "",
          "type": "uint256"
        }
      ],
      "stateMutability": "view",
      "type": "function"
    },
    {
      "inputs": [
        {
          "internalType": "uint256",
          "name": "serviceId",
          "type": "uint256"
        }
      ],
      "name": "forcedUnstake",
      "outputs": [],
      "stateMutability": "nonpayable",
      "type": "function"
    },
    {
      "inputs": [],
      "name": "getAgentIds",
      "outputs": [
        {
          "internalType": "uint256[]",
          "name": "",
          "type": "uint256[]"
        }
      ],
      "stateMutability": "view",
      "type": "function"
    },
    {
      "inputs": [],
      "name": "getNextRewardCheckpointTimestamp",
      "outputs": [
        {
          "internalType": "uint256",
          "name": "tsNext",
          "type": "uint256"
        }
      ],
      "stateMutability": "view",
      "type": "function"
    },
    {
      "inputs": [],
      "name": "getServiceIds",
      "outputs": [
        {
          "internalType": "uint256[]",
          "name": "",
          "type": "uint256[]"
        }
      ],
      "stateMutability": "view",
      "type": "function"
    },
    {
      "inputs": [
        {
          "internalType": "uint256",
          "name": "serviceId",
          "type": "uint256"
        }
      ],
      "name": "getServiceInfo",
      "outputs": [
        {
          "components": [
            {
              "internalType": "address",
              "name": "multisig",
              "type": "address"
            },
            {
              "internalType": "address",
              "name": "owner",
              "type": "address"
            },
            {
              "internalType": "uint256[]",
              "name": "nonces",
              "type": "uint256[]"
            },
            {
              "internalType": "uint256",
              "name": "tsStart",
              "type": "uint256"
            },
            {
              "internalType": "uint256",
              "name": "reward",
              "type": "uint256"
            },
            {
              "internalType": "uint256",
              "name": "inactivity",
              "type": "uint256"
            }
          ],
          "internalType": "struct ServiceInfo",
          "name": "sInfo",
          "type": "tuple"
        }
      ],
      "stateMutability": "view",
      "type": "function"
    },
    {
      "inputs": [
        {
          "internalType": "uint256",
          "name": "serviceId",
          "type": "uint256"
        }
      ],
      "name": "getStakingState",
      "outputs": [
        {
          "internalType": "enum StakingBase.StakingState",
          "name": "stakingState",
          "type": "uint8"
        }
      ],
      "stateMutability": "view",
      "type": "function"
    },
    {
      "inputs": [
        {
          "components": [
            {
              "internalType": "bytes32",
              "name": "metadataHash",
              "type": "bytes32"
            },
            {
              "internalType": "uint256",
              "name": "maxNumServices",
              "type": "uint256"
            },
            {
              "internalType": "uint256",
              "name": "rewardsPerSecond",
              "type": "uint256"
            },
            {
              "internalType": "uint256",
              "name": "minStakingDeposit",
              "type": "uint256"
            },
            {
              "internalType": "uint256",
              "name": "minNumStakingPeriods",
              "type": "uint256"
            },
            {
              "internalType": "uint256",
              "name": "maxNumInactivityPeriods",
              "type": "uint256"
            },
            {
              "internalType": "uint256",
              "name": "livenessPeriod",
              "type": "uint256"
            },
            {
              "internalType": "uint256",
              "name": "timeForEmissions",
              "type": "uint256"
            },
            {
              "internalType": "uint256",
              "name": "numAgentInstances",
              "type": "uint256"
            },
            {
              "internalType": "uint256[]",
              "name": "agentIds",
              "type": "uint256[]"
            },
            {
              "internalType": "uint256",
              "name": "threshold",
              "type": "uint256"
            },
            {
              "internalType": "bytes32",
              "name": "configHash",
              "type": "bytes32"
            },
            {
              "internalType": "bytes32",
              "name": "proxyHash",
              "type": "bytes32"
            },
            {
              "internalType": "address",
              "name": "serviceRegistry",
              "type": "address"
            },
            {
              "internalType": "address",
              "name": "activityChecker",
              "type": "address"
            }
          ],
          "internalType": "struct StakingBase.StakingParams",
          "name": "_stakingParams",
          "type": "tuple"
        }
      ],
      "name": "initialize",
      "outputs": [],
      "stateMutability": "nonpayable",
      "type": "function"
    },
    {
      "inputs": [],
      "name": "livenessPeriod",
      "outputs": [
        {
          "internalType": "uint256",
          "name": "",
          "type": "uint256"
        }
      ],
      "stateMutability": "view",
      "type": "function"
    },
    {
      "inputs": [
        {
          "internalType": "uint256",
          "name": "",
          "type": "uint256"
        }
      ],
      "name": "mapServiceInfo",
      "outputs": [
        {
          "internalType": "address",
          "name": "multisig",
          "type": "address"
        },
        {
          "internalType": "address",
          "name": "owner",
          "type": "address"
        },
        {
          "internalType": "uint256",
          "name": "tsStart",
          "type": "uint256"
        },
        {
          "internalType": "uint256",
          "name": "reward",
          "type": "uint256"
        },
        {
          "internalType": "uint256",
          "name": "inactivity",
          "type": "uint256"
        }
      ],
      "stateMutability": "view",
      "type": "function"
    },
    {
      "inputs": [],
      "name": "maxInactivityDuration",
      "outputs": [
        {
          "internalType": "uint256",
          "name": "",
          "type": "uint256"
        }
      ],
      "stateMutability": "view",
      "type": "function"
    },
    {
      "inputs": [],
      "name": "maxNumInactivityPeriods",
      "outputs": [
        {
          "internalType": "uint256",
          "name": "",
          "type": "uint256"
        }
      ],
      "stateMutability": "view",
      "type": "function"
    },
    {
      "inputs": [],
      "name": "maxNumServices",
      "outputs": [
        {
          "internalType": "uint256",
          "name": "",
          "type": "uint256"
        }
      ],
      "stateMutability": "view",
      "type": "function"
    },
    {
      "inputs": [],
      "name": "metadataHash",
      "outputs": [
        {
          "internalType": "bytes32",
          "name": "",
          "type": "bytes32"
        }
      ],
      "stateMutability": "view",
      "type": "function"
    },
    {
      "inputs": [],
      "name": "minStakingDeposit",
      "outputs": [
        {
          "internalType": "uint256",
          "name": "",
          "type": "uint256"
        }
      ],
      "stateMutability": "view",
      "type": "function"
    },
    {
      "inputs": [],
      "name": "minStakingDuration",
      "outputs": [
        {
          "internalType": "uint256",
          "name": "",
          "type": "uint256"
        }
      ],
      "stateMutability": "view",
      "type": "function"
    },
    {
      "inputs": [],
      "name": "numAgentInstances",
      "outputs": [
        {
          "internalType": "uint256",
          "name": "",
          "type": "uint256"
        }
      ],
      "stateMutability": "view",
      "type": "function"
    },
    {
      "inputs": [
        {
          "internalType": "address",
          "name": "",
          "type": "address"
        },
        {
          "internalType": "address",
          "name": "",
          "type": "address"
        },
        {
          "internalType": "uint256",
          "name": "",
          "type": "uint256"
        },
        {
          "internalType": "bytes",
          "name": "",
          "type": "bytes"
        }
      ],
      "name": "onERC721Received",
      "outputs": [
        {
          "internalType": "bytes4",
          "name": "",
          "type": "bytes4"
        }
      ],
      "stateMutability": "nonpayable",
      "type": "function"
    },
    {
      "inputs": [],
      "name": "proxyHash",
      "outputs": [
        {
          "internalType": "bytes32",
          "name": "",
          "type": "bytes32"
        }
      ],
      "stateMutability": "view",
      "type": "function"
    },
    {
      "inputs": [],
      "name": "rewardsPerSecond",
      "outputs": [
        {
          "internalType": "uint256",
          "name": "",
          "type": "uint256"
        }
      ],
      "stateMutability": "view",
      "type": "function"
    },
    {
      "inputs": [],
      "name": "serviceRegistry",
      "outputs": [
        {
          "internalType": "address",
          "name": "",
          "type": "address"
        }
      ],
      "stateMutability": "view",
      "type": "function"
    },
    {
      "inputs": [
        {
          "internalType": "uint256",
          "name": "",
          "type": "uint256"
        }
      ],
      "name": "setServiceIds",
      "outputs": [
        {
          "internalType": "uint256",
          "name": "",
          "type": "uint256"
        }
      ],
      "stateMutability": "view",
      "type": "function"
    },
    {
      "inputs": [
        {
          "internalType": "uint256",
          "name": "serviceId",
          "type": "uint256"
        }
      ],
      "name": "stake",
      "outputs": [],
      "stateMutability": "nonpayable",
      "type": "function"
    },
    {
      "inputs": [],
      "name": "threshold",
      "outputs": [
        {
          "internalType": "uint256",
          "name": "",
          "type": "uint256"
        }
      ],
      "stateMutability": "view",
      "type": "function"
    },
    {
      "inputs": [],
      "name": "timeForEmissions",
      "outputs": [
        {
          "internalType": "uint256",
          "name": "",
          "type": "uint256"
        }
      ],
      "stateMutability": "view",
      "type": "function"
    },
    {
      "inputs": [],
      "name": "tsCheckpoint",
      "outputs": [
        {
          "internalType": "uint256",
          "name": "",
          "type": "uint256"
        }
      ],
      "stateMutability": "view",
      "type": "function"
    },
    {
      "inputs": [
        {
          "internalType": "uint256",
          "name": "serviceId",
          "type": "uint256"
        }
      ],
      "name": "unstake",
      "outputs": [
        {
          "internalType": "uint256",
          "name": "",
          "type": "uint256"
        }
      ],
      "stateMutability": "nonpayable",
      "type": "function"
    },
    {
      "stateMutability": "payable",
      "type": "receive"
    }
  ],
  "bytecode": "0x6080604052348015600e575f5ffd5b506136a98061001c5f395ff3fe608060405260043610610294575f3560e01c80638f9e0a6211610165578063cbcf252a116100c6578063f189e85a1161007c578063f86ad2b611610062578063f86ad2b614610790578063fd0bba8c146107a5578063ffa1ad74146107d1575f5ffd5b8063f189e85a14610768578063f4dce7141461077c575f5ffd5b8063e77cdcc9116100ac578063e77cdcc91461071f578063eacdaabc14610734578063eb338c9614610749575f5ffd5b8063cbcf252a146106eb578063e1f1176d1461070a575f5ffd5b8063a74466ad1161011b578063b69ef8a811610101578063b69ef8a81461069e578063c2c4c5c1146106b3578063c5a1d7f0146106d7575f5ffd5b8063a74466ad146105f6578063b15087601461067d575f5ffd5b8063957323611161014b57806395732361146105ad578063a0ed60e0146105c2578063a694fc3a146105d7575f5ffd5b80638f9e0a621461055757806393ac752f1461058e575f5ffd5b806342cde4e81161020f5780637fbe2833116101c557806382a8ea58116101ab57806382a8ea58146104f757806383f9eb2214610523578063879d909014610542575f5ffd5b80637fbe2833146104c3578063809cee2f146104e2575f5ffd5b8063546af2e0116101f5578063546af2e01461047057806356e760581461048f5780635829c5ec146104ae575f5ffd5b806342cde4e81461044657806352c824f51461045b575f5ffd5b806316a75172116102645780632e17de781161024a5780632e17de78146103f3578063379607f5146104125780633e73299714610431575f5ffd5b806316a75172146103c95780631f779408146103de575f5ffd5b806308ae7e541461030f5780630a07dc301461033757806314b19c5a14610358578063150b7a021461036d575f5ffd5b3661030b575f346010546102a89190612c2c565b90505f346011546102b99190612c2c565b60108390556011819055604080513481526020810185905290810182905290915033907f36af321ec8d3c75236829c5317affd40ddb308863a1236d2d277a4025cccee1e9060600160405180910390a2005b5f5ffd5b34801561031a575f5ffd5b50610324600d5481565b6040519081526020015b60405180910390f35b348015610342575f5ffd5b50610356610351366004612da6565b61080e565b005b348015610363575f5ffd5b50610324600f5481565b348015610378575f5ffd5b50610398610387366004612eb7565b630a85bd0160e11b95945050505050565b6040517fffffffff00000000000000000000000000000000000000000000000000000000909116815260200161032e565b3480156103d4575f5ffd5b5061032460015481565b3480156103e9575f5ffd5b5061032460065481565b3480156103fe575f5ffd5b5061032461040d366004612f50565b61081a565b34801561041d575f5ffd5b5061032461042c366004612f50565b61082b565b34801561043c575f5ffd5b5061032460135481565b348015610451575f5ffd5b5061032460085481565b348015610466575f5ffd5b5061032460055481565b34801561047b575f5ffd5b5061032461048a366004612f50565b610836565b34801561049a575f5ffd5b506103246104a9366004612f50565b610842565b3480156104b9575f5ffd5b5061032460075481565b3480156104ce575f5ffd5b506103246104dd366004612f50565b610861565b3480156104ed575f5ffd5b50610324600a5481565b348015610502575f5ffd5b50610516610511366004612f50565b610928565b60405161032e9190612f67565b34801561052e575f5ffd5b5061032461053d366004612f50565b610a17565b34801561054d575f5ffd5b5061032460115481565b348015610562575f5ffd5b50600c54610576906001600160a01b031681565b6040516001600160a01b03909116815260200161032e565b348015610599575f5ffd5b506103566105a8366004612f50565b610ad2565b3480156105b8575f5ffd5b5061032460125481565b3480156105cd575f5ffd5b5061032460045481565b3480156105e2575f5ffd5b506103566105f1366004612f50565b610ae1565b348015610601575f5ffd5b5061064a610610366004612f50565b60156020525f9081526040902080546001820154600383015460048401546005909401546001600160a01b03938416949390921692909185565b604080516001600160a01b039687168152959094166020860152928401919091526060830152608082015260a00161032e565b348015610688575f5ffd5b50610691610fde565b60405161032e919061303e565b3480156106a9575f5ffd5b5061032460105481565b3480156106be575f5ffd5b506106c7611034565b60405161032e9493929190613050565b3480156106e2575f5ffd5b506103245f5481565b3480156106f6575f5ffd5b50600b54610576906001600160a01b031681565b348015610715575f5ffd5b5061032460095481565b34801561072a575f5ffd5b5061032460035481565b34801561073f575f5ffd5b5061032460025481565b348015610754575f5ffd5b50610324610763366004612f50565b6116c8565b348015610773575f5ffd5b506106916116d7565b348015610787575f5ffd5b5061032461172b565b34801561079b575f5ffd5b50610324600e5481565b3480156107b0575f5ffd5b506107c46107bf366004612f50565b611741565b60405161032e91906130bb565b3480156107dc575f5ffd5b50610801604051806040016040528060058152602001640302e322e360dc1b81525081565b60405161032e91906130e1565b61081781611813565b50565b5f610825825f611b9e565b92915050565b5f610825825f611f32565b5f610825826001611f32565b60148181548110610851575f80fd5b5f91825260209091200154905081565b5f818152601560209081526040808320815160c08101835281546001600160a01b03908116825260018301541681850152600282018054845181870281018701865281815287969395860193909291908301828280156108de57602002820191905f5260205f20905b8154815260200190600101908083116108ca575b50505050508152602001600382015481526020016004820154815260200160058201548152505090508060800151915061091783610a17565b6109219083612c2c565b9392505050565b61096e6040518060c001604052805f6001600160a01b031681526020015f6001600160a01b03168152602001606081526020015f81526020015f81526020015f81525090565b5f82815260156020908152604091829020825160c08101845281546001600160a01b03908116825260018301541681840152600282018054855181860281018601875281815292959394938601938301828280156109e957602002820191905f5260205f20905b8154815260200190600101908083116109d5575b5050505050815260200160038201548152602001600482015481526020016005820154815250509050919050565b5f5f5f5f5f5f610a25612035565b505050945094509450945094505f5f90505b84811015610ac75787838281518110610a5257610a52613116565b602002602001015103610abf5785841115610a9e578386838381518110610a7b57610a7b613116565b6020026020010151610a8d919061312a565b610a979190613155565b9650610ac7565b818181518110610ab057610ab0613116565b60200260200101519650610ac7565b600101610a37565b505050505050919050565b610add816001611b9e565b5050565b610ae9611034565b505050506011545f03610b0f5760405163afb0be3360e01b815260040160405180910390fd5b5f818152601560205260409020600381015415610b475760405163b4817ce760e01b8152600481018390526024015b60405180910390fd5b6016546001548103610b725760015460405163fd20861560e01b8152600401610b3e91815260200190565b600b5460405163ef0e239b60e01b8152600481018590525f916001600160a01b03169063ef0e239b906024015f60405180830381865afa158015610bb8573d5f5f3e3d5ffd5b505050506040513d5f823e601f3d908101601f19168201604052610bdf9190810190613211565b9050806080015163ffffffff1660075414610c1057604051637ad404bf60e11b815260048101859052602401610b3e565b60095415801590610c275750806040015160095414155b15610c4857604051637ad404bf60e11b815260048101859052602401610b3e565b5f600854118015610c655750806060015163ffffffff1660085414155b15610c8657604051637ad404bf60e11b815260048101859052602401610b3e565b60048160c001516005811115610c9e57610c9e6130a7565b14610cdd578060c001516005811115610cb957610cb96130a7565b604051633c053f9d60e21b8152600481019190915260248101859052604401610b3e565b5f81602001516001600160a01b0316803b806020016040519081016040528181525f908060200190933c80519060200120905080600a5414610d4257602082015160405162a2307960e51b81526001600160a01b039091166004820152602401610b3e565b6014548015610e065760e083015151818114610d7457604051637ad404bf60e11b815260048101889052602401610b3e565b5f5b81811015610e03578460e001518181518110610d9457610d94613116565b602002602001015163ffffffff1660148281548110610db557610db5613116565b905f5260205f20015414610dfb5760148181548110610dd657610dd6613116565b905f5260205f200154604051632ab10b0b60e21b8152600401610b3e91815260200190565b600101610d76565b50505b610e2686845f01516bffffffffffffffffffffffff168560e001516123d5565b602083015185546001600160a01b0391821673ffffffffffffffffffffffffffffffffffffffff19918216811788556001880180549092163317909155600c5460405163d564c4bf60e01b815260048101929092525f92169063d564c4bf906024015f60405180830381865afa158015610ea2573d5f5f3e3d5ffd5b505050506040513d5f823e601f3d908101601f19168201604052610ec991908101906132ee565b8051909150610ee19060028801906020840190612ba4565b50426003870155601680546001810182555f919091527fd833147d7dc355ba459fc788f669e58cfaf9dc25ddcd0702e87d69c7b512428901879055600b54604051632142170760e11b8152336004820152306024820152604481018990526001600160a01b03909116906342842e0e906064015f604051808303815f87803b158015610f6b575f5ffd5b505af1158015610f7d573d5f5f3e3d5ffd5b5050505083602001516001600160a01b0316336001600160a01b0316887faa6b005b4958114a0c90492461c24af6525ae0178db7fbf44125ae9217c69ccb600f5485604051610fcd92919061337f565b60405180910390a450505050505050565b6060601480548060200260200160405190810160405280929190818152602001828054801561102a57602002820191905f5260205f20905b815481526020019060010190808311611016575b5050505050905090565b6060806060805f5f5f5f5f5f5f5f61104a612035565b97509750975097509750975097509750606080845167ffffffffffffffff81111561107757611077612c3f565b6040519080825280602002602001820160405280156110a0578160200160208202803683370190505b509a505f8915611421578967ffffffffffffffff8111156110c3576110c3612c3f565b6040519080825280602002602001820160405280156110ec578160200160208202803683370190505b5092508967ffffffffffffffff81111561110857611108612c3f565b604051908082528060200260200182016040528015611131578160200160208202803683370190505b5091508a89111561132e575f8060015b8c81101561122a578b8e8b838151811061115d5761115d613116565b602002602001015161116f919061312a565b6111799190613155565b92506111858383612c2c565b91508a818151811061119957611199613116565b602002602001015193508a81815181106111b5576111b5613116565b60200260200101518682815181106111cf576111cf613116565b602002602001018181525050828582815181106111ee576111ee613116565b6020026020010181815250508260155f8681526020019081526020015f206004015f82825461121d9190612c2c565b9091555050600101611141565b508a8d8a5f8151811061123f5761123f613116565b6020026020010151611251919061312a565b61125b9190613155565b91506112678282612c2c565b9050895f8151811061127b5761127b613116565b60200260200101519250895f8151811061129757611297613116565b6020026020010151855f815181106112b1576112b1613116565b602002602001018181525050808d11156112dc576112cf818e61339f565b6112d99083612c2c565b91505b81845f815181106112ef576112ef613116565b6020026020010181815250508160155f8581526020019081526020015f206004015f82825461131e9190612c2c565b909155505f9d5061141b92505050565b5f5b8a81101561140d5788818151811061134a5761134a613116565b6020026020010151915088818151811061136657611366613116565b602002602001015184828151811061138057611380613116565b60200260200101818152505087818151811061139e5761139e613116565b60200260200101518382815181106113b8576113b8613116565b6020026020010181815250508781815181106113d6576113d6613116565b602002602001015160155f8481526020019081526020015f206004015f8282546114009190612c2c565b9091555050600101611330565b50611418898c61339f565b9a505b60118b90555b85511561169457600f545f9a508a5b875181101561160f5787818151811061144b5761144b613116565b6020026020010151925086818151811061146757611467613116565b602002602001015160155f8581526020019081526020015f206002019080519060200190611496929190612ba4565b505f8682815181106114aa576114aa613116565b602002602001015111156115f5578581815181106114ca576114ca613116565b602002602001015160155f8581526020019081526020015f20600501546114f19190612c2c565b86828151811061150357611503613116565b60200260200101818152505085818151811061152157611521613116565b602002602001015160155f8581526020019081526020015f2060050181905550600e5486828151811061155657611556613116565b6020026020010151111561159457828e828151811061157757611577613116565b60209081029190910101528b61158c816133b2565b9c5050611607565b827f33dc5cdf1e035de8a7fe16ad7a30a441d30ee51719d3f07703ee35d4348f0779838884815181106115c9576115c9613116565b60200260200101516040516115e8929190918252602082015260400190565b60405180910390a2611607565b5f838152601560205260408120600501555b600101611430565b508a15611628576116218d868d61251a565b9c5061162d565b60609c505b5f6013544261163c919061339f565b42601355905061164d826001612c2c565b600f81905550817f48b735a18ed32318d316214e41387be29c52e29df4598f2b8e40fa843be3f9408e87878560405161168994939291906133ca565b60405180910390a250505b855115806116a257505f8c51115b156116b2576116af6116d7565b95505b50939c509a509198505050505050505090919293565b60168181548110610851575f80fd5b6060601680548060200260200160405190810160405280929190818152602001828054801561102a57602002820191905f5260205f2090815481526020019060010190808311611016575050505050905090565b5f60055460135461173c9190612c2c565b905090565b5f818152601560209081526040808320815160c08101835281546001600160a01b03908116825260018301541681850152600282018054845181870281018701865281815287969395860193909291908301828280156117be57602002820191905f5260205f20905b8154815260200190600101908083116117aa575b5050505050815260200160038201548152602001600482015481526020016005820154815250509050600e548160a0015111156117fe576002915061180d565b60608101511561180d57600191505b50919050565b600b546001600160a01b03161561183c5760405162dc149f60e41b815260040160405180910390fd5b8051158061184c57506020810151155b8061185957506040810151155b80611866575060c0810151155b806118745750610100810151155b80611881575060e0810151155b8061188e57506080810151155b8061189b575060a0810151155b156118b957604051637c946ed760e01b815260040160405180910390fd5b8060a00151816080015110156118f557608081015160a082015160405163491a2bb160e01b815260048101929092526024820152604401610b3e565b60028160600151101561192b57606081015160405163491a2bb160e01b8152600481019190915260026024820152604401610b3e565b6101a08101516001600160a01b0316158061195257506101c08101516001600160a01b0316155b156119705760405163d92e233d60e01b815260040160405180910390fd5b806101c001516001600160a01b03163b5f036119b1576101c081015160405163601c0c2160e01b81526001600160a01b039091166004820152602401610b3e565b80515f90815560208201516001556040820151600255606082015160035560a082015160045560c082015160055560e08201516006556101008201516007556101a0820151600b80546001600160a01b0392831673ffffffffffffffffffffffffffffffffffffffff19918216179091556101c0840151600c8054919093169116179055610140820151600855610160820151600955805b82610120015151811015611b1757818361012001518281518110611a6f57611a6f613116565b602002602001015111611ab7578261012001518181518110611a9357611a93613116565b6020026020010151604051632ab10b0b60e21b8152600401610b3e91815260200190565b8261012001518181518110611ace57611ace613116565b602090810291909101015160148054600181810183555f929092527fce6d7b5282bd9a3661ae061feed1dbda4e52ab073b1f9285be6e155d9c38d4ec0182905590925001611a49565b506101808201515f03611b3d57604051637c946ed760e01b815260040160405180910390fd5b610180820151600a556005546080830151611b58919061312a565b600d5560055460a0830151611b6d919061312a565b600e5560e082015160208301516040840151611b89919061312a565b611b93919061312a565b601255505042601355565b5f82815260156020526040812060018101546001600160a01b03163314611bef57600181015460405163521eb56d60e11b81523360048201526001600160a01b039091166024820152604401610b3e565b5f611bf8611034565b505050600483015460115460038501549195509192505f90611c1a904261339f565b9050600d548111158015611c2d57505f82115b15611c6057600d5460405163ba2bbc6b60e01b815260048101899052602481018390526044810191909152606401610b3e565b5f5f5b8451821015611c9f5788858381518110611c7f57611c7f613116565b602002602001015103611c9457506001611c9f565b816001019150611c63565b5f86600201805480602002602001604051908101604052809291908181526020018280548015611cec57602002820191905f5260205f20905b815481526020019060010190808311611cd8575b50508a545f8f8152601560205260408120805473ffffffffffffffffffffffffffffffffffffffff19908116825560018201805490911690559596506001600160a01b039091169493509150611d4790506002830182612bed565b505f60038201819055600482018190556005909101558215611ddd576016545f90611d749060019061339f565b90508015611db75760168181548110611d8f57611d8f613116565b905f5260205f20015460168681548110611dab57611dab613116565b5f918252602090912001555b6016805480611dc857611dc8613406565b600190038181905f5260205f20015f90559055505b600b546040516323b872dd60e01b8152306004820152336024820152604481018d90526001600160a01b03909116906323b872dd906064015f604051808303815f87803b158015611e2c575f5ffd5b505af1158015611e3e573d5f5f3e3d5ffd5b505050505f891115611e70578915611e6657611e5a8987612c2c565b60118190559550611e70565b611e70818a6128d2565b8915611ecf57806001600160a01b0316336001600160a01b03168c7f91c9f7c7f307bcc0ae02ba613bd8d07c29e94952f0a28803ded176fcd7d96d64600f54868e8c604051611ec2949392919061341a565b60405180910390a4611f24565b806001600160a01b0316336001600160a01b03168c7f6d789d063e079a4c156e77a20008529fc448dca2cd7e5e7a20abf969fffb9226600f54868e8c604051611f1b949392919061341a565b60405180910390a45b505050505050505092915050565b5f82815260156020526040812060018101546001600160a01b03163314611f8357600181015460405163521eb56d60e11b81523360048201526001600160a01b039091166024820152604401610b3e565b8215611f9657611f91611034565b505050505b80600401549150815f03611fbd57604051637c946ed760e01b815260040160405180910390fd5b5f600482015580546001600160a01b0316611fd881846128d2565b806001600160a01b0316336001600160a01b0316867f31add0166dae59ea66bbc180e4fae85b72fc9b7b5fc7b0f7257e4721a840c96e600f54866002018860405161202593929190613445565b60405180910390a4505092915050565b60135460115460165490915f918291606091829182918291829180158015906120695750600554612066834261339f565b10155b801561207457505f8a115b156123c9578067ffffffffffffffff81111561209257612092612c3f565b6040519080825280602002602001820160405280156120bb578160200160208202803683370190505b5094508067ffffffffffffffff8111156120d7576120d7612c3f565b604051908082528060200260200182016040528015612100578160200160208202803683370190505b5096508067ffffffffffffffff81111561211c5761211c612c3f565b604051908082528060200260200182016040528015612145578160200160208202803683370190505b5095508067ffffffffffffffff81111561216157612161612c3f565b60405190808252806020026020018201604052801561219457816020015b606081526020019060019003908161217f5790505b5093508067ffffffffffffffff8111156121b0576121b0612c3f565b6040519080825280602002602001820160405280156121d9578160200160208202803683370190505b5092505f5b818110156123c757601681815481106121f9576121f9613116565b905f5260205f20015486828151811061221457612214613116565b6020026020010181815250505f60155f88848151811061223657612236613116565b602002602001015181526020019081526020015f2090505f8490505f8260030154905081811115612265578091505b61226f824261339f565b8354600285018054604080516020808402820181019092528281529495505f946122d9946001600160a01b031693909290918301828280156122ce57602002820191905f5260205f20905b8154815260200190600101908083116122ba575b5050505050846129bd565b8a87815181106122eb576122eb613116565b602090810291909101015290508015612398578160025461230c919061312a565b8b8f8151811061231e5761231e613116565b6020026020010181815250508a8e8151811061233c5761233c613116565b60200260200101518d61234f9190612c2c565b9c5089858151811061236357612363613116565b60200260200101518c8f8151811061237d5761237d613116565b60209081029190910101526123918e6133b2565b9d506123b8565b818886815181106123ab576123ab613116565b6020026020010181815250505b505050508060010190506121de565b505b50509091929394959697565b600354808310156124035760405163491a2bb160e01b81526004810184905260248101829052604401610b3e565b600b54604051630ef1435d60e11b8152600481018690525f9182916001600160a01b0390911690631de286ba906024015f60405180830381865afa15801561244d573d5f5f3e3d5ffd5b505050506040513d5f823e601f3d908101601f19168201604052612474919081019061349d565b90925090505f5b82811015612511578382828151811061249657612496613116565b6020026020010151602001516bffffffffffffffffffffffff161015612509578181815181106124c8576124c8613116565b6020026020010151602001518460405163491a2bb160e01b8152600401610b3e9291906bffffffffffffffffffffffff929092168252602082015260400190565b60010161247b565b50505050505050565b82516060908267ffffffffffffffff81111561253857612538612c3f565b604051908082528060200260200182016040528015612561578160200160208202803683370190505b5091505f8367ffffffffffffffff81111561257e5761257e612c3f565b6040519080825280602002602001820160405280156125a7578160200160208202803683370190505b5090505f8467ffffffffffffffff8111156125c4576125c4612c3f565b6040519080825280602002602001820160405280156125ed578160200160208202803683370190505b5090505f8567ffffffffffffffff81111561260a5761260a612c3f565b604051908082528060200260200182016040528015612633578160200160208202803683370190505b5090505f8667ffffffffffffffff81111561265057612650612c3f565b604051908082528060200260200182016040528015612679578160200160208202803683370190505b5090505f80805b878110156127d5575f8c828151811061269b5761269b613116565b602002602001015111156127cd578b81815181106126bb576126bb613116565b60200260200101519150818984815181106126d8576126d8613116565b6020908102919091018101919091525f838152601590915260409020600181015488516001600160a01b039091169089908690811061271957612719613116565b6001600160a01b0392831660209182029290920101528154885191169088908690811061274857612748613116565b60200260200101906001600160a01b031690816001600160a01b0316815250508b828151811061277a5761277a613116565b602002602001015186858151811061279457612794613116565b602002602001018181525050818585815181106127b3576127b3613116565b6020908102919091010152836127c8816133b2565b945050505b600101612680565b50885b801561288357876127e881613570565b98505f9050846127f960018461339f565b8151811061280957612809613116565b602002602001015190506016898154811061282657612826613116565b905f5260205f2001546016828154811061284257612842613116565b5f91825260209091200155601680548061285e5761285e613406565b600190038181905f5260205f20015f90559055508061287c90613570565b90506127d8565b50600f547fd19a3d42ed383465e4058c322d9411aeac76ddb8454d22e139fc99808bd56952898888886040516128bc94939291906135be565b60405180910390a2505050505050509392505050565b8060105f8282546128e3919061339f565b90915550506040515f906001600160a01b0384169083908381818185875af1925050503d805f8114612930576040519150601f19603f3d011682016040523d82523d5f602084013e612935565b606091505b50509050806129755760405163cd3f165960e01b81525f60048201523060248201526001600160a01b038416604482015260648101839052608401610b3e565b826001600160a01b03167f884edad9ce6fa2440d8a54cc123490eb96d2768479d49ff9c7366125a9424364836040516129b091815260200190565b60405180910390a2505050565b6040516001600160a01b03841660248201525f90606090829060440160408051601f198184030181529181526020820180517bffffffffffffffffffffffffffffffffffffffffffffffffffffffff1663d564c4bf60e01b179052600c5490519192505f9182916001600160a01b031690612a399085906135f6565b5f60405180830381855afa9150503d805f8114612a71576040519150601f19603f3d011682016040523d82523d5f602084013e612a76565b606091505b5091509150818015612a895750603f8151115b8015612aa0575060208151612a9e919061360c565b155b15612b995780806020019051810190612ab991906132ee565b9350838787604051602401612ad09392919061361f565b60408051601f198184030181529181526020820180517bffffffffffffffffffffffffffffffffffffffffffffffffffffffff1663184023a560e01b179052600c5490519194506001600160a01b031690612b2c9085906135f6565b5f60405180830381855afa9150503d805f8114612b64576040519150601f19603f3d011682016040523d82523d5f602084013e612b69565b606091505b509092509050818015612b7d575080516020145b15612b995780806020019051810190612b969190613654565b94505b505050935093915050565b828054828255905f5260205f20908101928215612bdd579160200282015b82811115612bdd578251825591602001919060010190612bc2565b50612be9929150612c04565b5090565b5080545f8255905f5260205f209081019061081791905b5b80821115612be9575f8155600101612c05565b634e487b7160e01b5f52601160045260245ffd5b8082018082111561082557610825612c18565b634e487b7160e01b5f52604160045260245ffd5b6040516101e0810167ffffffffffffffff81118282101715612c7757612c77612c3f565b60405290565b604051610100810167ffffffffffffffff81118282101715612c7757612c77612c3f565b6040805190810167ffffffffffffffff81118282101715612c7757612c77612c3f565b604051601f8201601f1916810167ffffffffffffffff81118282101715612ced57612ced612c3f565b604052919050565b5f67ffffffffffffffff821115612d0e57612d0e612c3f565b5060051b60200190565b5f82601f830112612d27575f5ffd5b8135612d3a612d3582612cf5565b612cc4565b8082825260208201915060208360051b860101925085831115612d5b575f5ffd5b602085015b83811015612d78578035835260209283019201612d60565b5095945050505050565b6001600160a01b0381168114610817575f5ffd5b8035612da181612d82565b919050565b5f60208284031215612db6575f5ffd5b813567ffffffffffffffff811115612dcc575f5ffd5b82016101e08185031215612dde575f5ffd5b612de6612c53565b813581526020808301359082015260408083013590820152606080830135908201526080808301359082015260a0808301359082015260c0808301359082015260e08083013590820152610100808301359082015261012082013567ffffffffffffffff811115612e55575f5ffd5b612e6186828501612d18565b61012083015250610140828101359082015261016080830135908201526101808083013590820152612e966101a08301612d96565b6101a0820152612ea96101c08301612d96565b6101c0820152949350505050565b5f5f5f5f5f60808688031215612ecb575f5ffd5b8535612ed681612d82565b94506020860135612ee681612d82565b935060408601359250606086013567ffffffffffffffff811115612f08575f5ffd5b8601601f81018813612f18575f5ffd5b803567ffffffffffffffff811115612f2e575f5ffd5b886020828401011115612f3f575f5ffd5b959894975092955050506020019190565b5f60208284031215612f60575f5ffd5b5035919050565b602081525f60e082016001600160a01b0384511660208401526001600160a01b036020850151166040840152604084015160c06060850152818151808452610100860191506020830193505f92505b80831015612fd95783518252602082019150602084019350600183019250612fb6565b5060608601516080860152608086015160a086015260a086015160c086015280935050505092915050565b5f8151808452602084019350602083015f5b82811015613034578151865260209586019590910190600101613016565b5093949350505050565b602081525f6109216020830184613004565b608081525f6130626080830187613004565b82810360208401526130748187613004565b905082810360408401526130888186613004565b9050828103606084015261309c8185613004565b979650505050505050565b634e487b7160e01b5f52602160045260245ffd5b60208101600383106130db57634e487b7160e01b5f52602160045260245ffd5b91905290565b602081525f82518060208401528060208501604085015e5f604082850101526040601f19601f83011684010191505092915050565b634e487b7160e01b5f52603260045260245ffd5b808202811582820484141761082557610825612c18565b634e487b7160e01b5f52601260045260245ffd5b5f8261316357613163613141565b500490565b80516bffffffffffffffffffffffff81168114612da1575f5ffd5b8051612da181612d82565b805163ffffffff81168114612da1575f5ffd5b805160068110612da1575f5ffd5b5f82601f8301126131be575f5ffd5b81516131cc612d3582612cf5565b8082825260208201915060208360051b8601019250858311156131ed575f5ffd5b602085015b83811015612d78576132038161318e565b8352602092830192016131f2565b5f60208284031215613221575f5ffd5b815167ffffffffffffffff811115613237575f5ffd5b82016101008185031215613249575f5ffd5b613251612c7d565b61325a82613168565b815261326860208301613183565b6020820152604082810151908201526132836060830161318e565b60608201526132946080830161318e565b60808201526132a560a0830161318e565b60a08201526132b660c083016131a1565b60c082015260e082015167ffffffffffffffff8111156132d4575f5ffd5b6132e0868285016131af565b60e083015250949350505050565b5f602082840312156132fe575f5ffd5b815167ffffffffffffffff811115613314575f5ffd5b8201601f81018413613324575f5ffd5b8051613332612d3582612cf5565b8082825260208201915060208360051b850101925086831115613353575f5ffd5b6020840193505b8284101561337557835182526020938401939091019061335a565b9695505050505050565b828152604060208201525f6133976040830184613004565b949350505050565b8181038181111561082557610825612c18565b5f600182016133c3576133c3612c18565b5060010190565b848152608060208201525f6133e26080830186613004565b82810360408401526133f48186613004565b91505082606083015295945050505050565b634e487b7160e01b5f52603160045260245ffd5b848152608060208201525f6134326080830186613004565b6040830194909452506060015292915050565b5f6060820185835260606020840152808554808352608085019150865f5260205f2092505f5b8181101561348957835483526001938401936020909301920161346b565b505060409390930193909352509392505050565b5f5f604083850312156134ae575f5ffd5b8251602084015190925067ffffffffffffffff8111156134cc575f5ffd5b8301601f810185136134dc575f5ffd5b80516134ea612d3582612cf5565b8082825260208201915060208360061b85010192508783111561350b575f5ffd5b6020840193505b828410156135625760408489031215613529575f5ffd5b613531612ca1565b61353a8561318e565b815261354860208601613168565b602082015280835250602082019150604084019350613512565b809450505050509250929050565b5f8161357e5761357e612c18565b505f190190565b5f8151808452602084019350602083015f5b828110156130345781516001600160a01b0316865260209586019590910190600101613597565b608081525f6135d06080830187613004565b82810360208401526135e28187613585565b905082810360408401526130888186613585565b5f82518060208501845e5f920191825250919050565b5f8261361a5761361a613141565b500690565b606081525f6136316060830186613004565b82810360208401526136438186613004565b915050826040830152949350505050565b5f60208284031215613664575f5ffd5b81518015158114610921575f5ffdfea26469706673582212205f6754346215747de8d09e7753fc09f0a0309144f47e8d3af42d512ea212f71e64736f6c634300081c0033",
  "linkReferences": {},
  "deployedLinkReferences": {}
}