{"abi":[{"type":"constructor","inputs":[{"name":"identityRegistryBridger","type":"address","internalType":"address"},{"name":"identityRegistryBridgerData","type":"bytes","internalType":"bytes"}],"stateMutability":"nonpayable"},{"type":"fallback","stateMutability":"payable"},{"type":"function","name":"PROXY_IDENTITY_REGISTRY_BRIDGER","inputs":[],"outputs":[{"name":"","type":"bytes32","internalType":"bytes32"}],"stateMutability":"view"},{"type":"function","name":"getImplementation","inputs":[],"outputs":[{"name":"implementation","type":"address","internalType":"address"}],"stateMutability":"view"},{"type":"error","name":"InitializationFailed","inputs":[]},{"type":"error","name":"ZeroAddress","inputs":[]},{"type":"error","name":"ZeroValue","inputs":[]}],"bytecode":{"object":"0x608060405234801561000f575f5ffd5b5060405161034f38038061034f83398101604081905261002e9161012d565b6001600160a01b0382166100555760405163d92e233d60e01b815260040160405180910390fd5b80515f0361007657604051637c946ed760e01b815260040160405180910390fd5b817f03684189c8fb7a536ac4dbd4b7ad063c37db21bcd0f9c51fe45a4eb16359c165555f826001600160a01b0316826040516100b291906101fc565b5f60405180830381855af49150503d805f81146100ea576040519150601f19603f3d011682016040523d82523d5f602084013e6100ef565b606091505b505090508061011157604051630337323560e31b815260040160405180910390fd5b505050610212565b634e487b7160e01b5f52604160045260245ffd5b5f5f6040838503121561013e575f5ffd5b82516001600160a01b0381168114610154575f5ffd5b60208401519092506001600160401b0381111561016f575f5ffd5b8301601f8101851361017f575f5ffd5b80516001600160401b0381111561019857610198610119565b604051601f8201601f19908116603f011681016001600160401b03811182821017156101c6576101c6610119565b6040528181528282016020018710156101dd575f5ffd5b8160208401602083015e5f602083830101528093505050509250929050565b5f82518060208501845e5f920191825250919050565b6101308061021f5f395ff3fe6080604052600436106025575f3560e01c8063aaf10f42146065578063d4de72601460bc575b7f03684189c8fb7a536ac4dbd4b7ad063c37db21bcd0f9c51fe45a4eb16359c16554365f5f375f5f365f845af490503d5f5f3e806060573d5ffd5b503d5ff35b348015606f575f5ffd5b507f03684189c8fb7a536ac4dbd4b7ad063c37db21bcd0f9c51fe45a4eb16359c1655460405173ffffffffffffffffffffffffffffffffffffffff90911681526020015b60405180910390f35b34801560c6575f5ffd5b5060ed7f03684189c8fb7a536ac4dbd4b7ad063c37db21bcd0f9c51fe45a4eb16359c16581565b60405190815260200160b356fea2646970667358221220193b9fe3cba60fbed3ec13882092d35fca22f0e3c5302e77434d33ee80949a6364736f6c634300081e0033","linkReferences":{}},"methodIdentifiers":{"PROXY_IDENTITY_REGISTRY_BRIDGER()":"d4de7260","getImplementation()":"aaf10f42"},"id":1}