{"abi":[{"type":"constructor","inputs":[{"name":"_identityRegistry","type":"address","internalType":"address"},{"name":"_serviceRegistry","type":"address","internalType":"address"}],"stateMutability":"nonpayable"},{"type":"function","name":"AGENT_WALLET_METADATA_KEY","inputs":[],"outputs":[{"name":"","type":"string","internalType":"string"}],"stateMutability":"view"},{"type":"function","name":"ECOSYSTEM_METADATA_KEY","inputs":[],"outputs":[{"name":"","type":"string","internalType":"string"}],"stateMutability":"view"},{"type":"function","name":"ECOSYSTEM_METADATA_VALUE","inputs":[],"outputs":[{"name":"","type":"bytes","internalType":"bytes"}],"stateMutability":"view"},{"type":"function","name":"PROXY_IDENTITY_REGISTRY_BRIDGER","inputs":[],"outputs":[{"name":"","type":"bytes32","internalType":"bytes32"}],"stateMutability":"view"},{"type":"function","name":"SERVICE_ID_METADATA_KEY","inputs":[],"outputs":[{"name":"","type":"string","internalType":"string"}],"stateMutability":"view"},{"type":"function","name":"SERVICE_REGISTRY_METADATA_KEY","inputs":[],"outputs":[{"name":"","type":"string","internalType":"string"}],"stateMutability":"view"},{"type":"function","name":"VERSION","inputs":[],"outputs":[{"name":"","type":"string","internalType":"string"}],"stateMutability":"view"},{"type":"function","name":"baseURI","inputs":[],"outputs":[{"name":"","type":"string","internalType":"string"}],"stateMutability":"view"},{"type":"function","name":"changeBaseURI","inputs":[{"name":"newBaseURI","type":"string","internalType":"string"}],"outputs":[],"stateMutability":"nonpayable"},{"type":"function","name":"changeImplementation","inputs":[{"name":"implementation","type":"address","internalType":"address"}],"outputs":[],"stateMutability":"nonpayable"},{"type":"function","name":"changeOwner","inputs":[{"name":"newOwner","type":"address","internalType":"address"}],"outputs":[],"stateMutability":"nonpayable"},{"type":"function","name":"getAgentURI","inputs":[{"name":"serviceId","type":"uint256","internalType":"uint256"}],"outputs":[{"name":"","type":"string","internalType":"string"}],"stateMutability":"view"},{"type":"function","name":"identityRegistry","inputs":[],"outputs":[{"name":"","type":"address","internalType":"address"}],"stateMutability":"view"},{"type":"function","name":"initialize","inputs":[{"name":"_baseURI","type":"string","internalType":"string"}],"outputs":[],"stateMutability":"nonpayable"},{"type":"function","name":"linkServiceIdAgentIds","inputs":[{"name":"numServices","type":"uint256","internalType":"uint256"}],"outputs":[{"name":"agentIds","type":"uint256[]","internalType":"uint256[]"}],"stateMutability":"nonpayable"},{"type":"function","name":"mapMultisigAgentIds","inputs":[{"name":"","type":"address","internalType":"address"}],"outputs":[{"name":"","type":"uint256","internalType":"uint256"}],"stateMutability":"view"},{"type":"function","name":"mapServiceIdAgentIds","inputs":[{"name":"","type":"uint256","internalType":"uint256"}],"outputs":[{"name":"","type":"uint256","internalType":"uint256"}],"stateMutability":"view"},{"type":"function","name":"onERC721Received","inputs":[{"name":"","type":"address","internalType":"address"},{"name":"","type":"address","internalType":"address"},{"name":"","type":"uint256","internalType":"uint256"},{"name":"","type":"bytes","internalType":"bytes"}],"outputs":[{"name":"","type":"bytes4","internalType":"bytes4"}],"stateMutability":"nonpayable"},{"type":"function","name":"owner","inputs":[],"outputs":[{"name":"","type":"address","internalType":"address"}],"stateMutability":"view"},{"type":"function","name":"register","inputs":[{"name":"serviceId","type":"uint256","internalType":"uint256"}],"outputs":[{"name":"agentId","type":"uint256","internalType":"uint256"}],"stateMutability":"nonpayable"},{"type":"function","name":"serviceManager","inputs":[],"outputs":[{"name":"","type":"address","internalType":"address"}],"stateMutability":"view"},{"type":"function","name":"serviceRegistry","inputs":[],"outputs":[{"name":"","type":"address","internalType":"address"}],"stateMutability":"view"},{"type":"function","name":"setAgentWallet","inputs":[{"name":"deadline","type":"uint256","internalType":"uint256"},{"name":"signature","type":"bytes","internalType":"bytes"}],"outputs":[],"stateMutability":"nonpayable"},{"type":"function","name":"setMetadata","inputs":[{"name":"metadataKey","type":"string","internalType":"string"},{"name":"metadataValue","type":"bytes","internalType":"bytes"}],"outputs":[],"stateMutability":"nonpayable"},{"type":"function","name":"startLinkServiceId","inputs":[],"outputs":[{"name":"","type":"uint256","internalType":"uint256"}],"stateMutability":"view"},{"type":"function","name":"updateAgentWallet","inputs":[{"name":"serviceId","type":"uint256","internalType":"uint256"},{"name":"oldMultisig","type":"address","internalType":"address"},{"name":"newMultisig","type":"address","internalType":"address"}],"outputs":[],"stateMutability":"nonpayable"},{"type":"event","name":"AgentMultisigUpdated","inputs":[{"name":"serviceId","type":"uint256","indexed":true,"internalType":"uint256"},{"name":"agentId","type":"uint256","indexed":true,"internalType":"uint256"},{"name":"oldMultisig","type":"address","indexed":false,"internalType":"address"},{"name":"newMultisig","type":"address","indexed":true,"internalType":"address"}],"anonymous":false},{"type":"event","name":"BaseURIUpdated","inputs":[{"name":"baseURI","type":"string","indexed":false,"internalType":"string"}],"anonymous":false},{"type":"event","name":"ImplementationUpdated","inputs":[{"name":"implementation","type":"address","indexed":true,"internalType":"address"}],"anonymous":false},{"type":"event","name":"MetadataSet","inputs":[{"name":"agentId","type":"uint256","indexed":true,"internalType":"uint256"},{"name":"metadataKey","type":"string","indexed":false,"internalType":"string"},{"name":"metadataValue","type":"bytes","indexed":false,"internalType":"bytes"}],"anonymous":false},{"type":"event","name":"OwnerUpdated","inputs":[{"name":"owner","type":"address","indexed":true,"internalType":"address"}],"anonymous":false},{"type":"event","name":"ServiceAgentLinked","inputs":[{"name":"serviceId","type":"uint256","indexed":true,"internalType":"uint256"},{"name":"agentId","type":"uint256","indexed":true,"internalType":"uint256"}],"anonymous":false},{"type":"event","name":"StartLinkServiceIdUpdated","inputs":[{"name":"serviceId","type":"uint256","indexed":true,"internalType":"uint256"},{"name":"linkedAll","type":"bool","indexed":false,"internalType":"bool"}],"anonymous":false},{"type":"event","name":"ValidationRequestSubmitted","inputs":[{"name":"sender","type":"address","indexed":true,"internalType":"address"},{"name":"agentId","type":"uint256","indexed":true,"internalType":"uint256"},{"name":"validatorAddress","type":"address","indexed":true,"internalType":"address"},{"name":"requestUri","type":"string","indexed":false,"internalType":"string"},{"name":"requestHash","type":"bytes32","indexed":false,"internalType":"bytes32"}],"anonymous":false},{"type":"error","name":"AlreadyInitialized","inputs":[]},{"type":"error","name":"ManagerOnly","inputs":[{"name":"sender","type":"address","internalType":"address"},{"name":"manager","type":"address","internalType":"address"}]},{"type":"error","name":"OwnerOnly","inputs":[{"name":"sender","type":"address","internalType":"address"},{"name":"owner","type":"address","internalType":"address"}]},{"type":"error","name":"ReentrancyGuard","inputs":[]},{"type":"error","name":"WrongMetadataKey","inputs":[{"name":"metadataKey","type":"string","internalType":"string"}]},{"type":"error","name":"ZeroAddress","inputs":[]},{"type":"error","name":"ZeroValue","inputs":[]}],"bytecode":{"object":"0x60e06040526001600355348015610014575f5ffd5b506040516121543803806121548339810160408190526100339161010f565b6001600160a01b038216158061005057506001600160a01b038116155b1561006e5760405163d92e233d60e01b815260040160405180910390fd5b6001600160a01b03808316608052811660c08190526040805163481c6a7560e01b8152905163481c6a75916004808201926020929091908290030181865afa1580156100bc573d5f5f3e3d5ffd5b505050506040513d601f19601f820116820180604052508101906100e09190610140565b6001600160a01b031660a052506101609050565b80516001600160a01b038116811461010a575f5ffd5b919050565b5f5f60408385031215610120575f5ffd5b610129836100f4565b9150610137602084016100f4565b90509250929050565b5f60208284031215610150575f5ffd5b610159826100f4565b9392505050565b60805160a05160c051611f686101ec5f395f81816103a5015281816105e6015281816107c5015261134f01525f818161032301528181611088015281816110ca01528181611157015261119901525f818161020501528181610a7701528181610d1d01528181610e0601528181610ed301528181611442015281816114d201526115b10152611f685ff3fe608060405234801561000f575f5ffd5b50600436106101a5575f3560e01c806378b88f57116100e8578063e0e3e12711610093578063ecb5c6691161006e578063ecb5c66914610461578063f207564e14610489578063f62d18881461049c578063ffa1ad74146104af575f5ffd5b8063e0e3e12714610401578063e636441c14610420578063e688e80814610433575f5ffd5b8063cbcf252a116100c3578063cbcf252a146103a0578063ce91aede146103c7578063d4de7260146103da575f5ffd5b806378b88f57146103685780638da5cb5b1461037b578063a6f9dae11461038d575f5ffd5b80631c5436c1116101535780633998fdd31161012e5780633998fdd31461031e57806339a0c6f914610345578063656762cd146103585780636c0360eb14610360575f5ffd5b80631c5436c1146102cc578063218fda54146102eb57806338e589991461030b575f5ffd5b8063150b7a0211610183578063150b7a021461023f57806317a68dd81461028f5780631a8d9066146102a4575f5ffd5b8063040d571d146101a957806309a76b52146101e9578063134e18f414610200575b5f5ffd5b6101d36040518060400160405280600b81526020016a1859d95b9d15d85b1b195d60aa1b81525081565b6040516101e0919061172f565b60405180910390f35b6101f260025481565b6040519081526020016101e0565b6102277f000000000000000000000000000000000000000000000000000000000000000081565b6040516001600160a01b0390911681526020016101e0565b61025e61024d36600461175f565b630a85bd0160e11b95945050505050565b6040517fffffffff0000000000000000000000000000000000000000000000000000000090911681526020016101e0565b6102a261029d3660046117f8565b6104d3565b005b6101d36040518060400160405280600981526020016865636f73797374656d60b81b81525081565b6101f26102da3660046117f8565b60056020525f908152604090205481565b6102fe6102f9366004611813565b610597565b6040516101e0919061182a565b6102a261031936600461192c565b6108f8565b6102277f000000000000000000000000000000000000000000000000000000000000000081565b6102a2610353366004611991565b610b21565b6101d3610bc7565b6101d3610c01565b6102a26103763660046119cb565b610c8d565b5f54610227906001600160a01b031681565b6102a261039b3660046117f8565b610f8a565b6102277f000000000000000000000000000000000000000000000000000000000000000081565b6101d36103d5366004611813565b611043565b6101f27f03684189c8fb7a536ac4dbd4b7ad063c37db21bcd0f9c51fe45a4eb16359c16581565b6101f261040f366004611813565b60046020525f908152604090205481565b6102a261042e3660046119f9565b611054565b6101d36040518060400160405280600f81526020016e73657276696365526567697374727960881b81525081565b6101d3604051806040016040528060098152602001681cd95c9d9a58d9525960ba1b81525081565b6101f2610497366004611813565b611122565b6102a26104aa366004611991565b6111f3565b6101d3604051806040016040528060058152602001640302e312e360dc1b81525081565b5f546001600160a01b03163314610516575f5460405163521eb56d60e11b81523360048201526001600160a01b0390911660248201526044015b60405180910390fd5b6001600160a01b03811661053d5760405163d92e233d60e01b815260040160405180910390fd5b7f03684189c8fb7a536ac4dbd4b7ad063c37db21bcd0f9c51fe45a4eb16359c1658190556040516001600160a01b038216907f310ba5f1d2ed074b51e2eccd052a47ae9ab7c6b800d1fca3db3999d6a592ca03905f90a250565b6060600160035411156105bd576040516345f5ce8b60e11b815260040160405180910390fd5b60026003555f8290036105e357604051637c946ed760e01b815260040160405180910390fd5b5f7f00000000000000000000000000000000000000000000000000000000000000006001600160a01b03166318160ddd6040518163ffffffff1660e01b8152600401602060405180830381865afa158015610640573d5f5f3e3d5ffd5b505050506040513d601f19601f820116820180604052508101906106649190611a38565b6002549091505f81900361068b57604051637c946ed760e01b815260040160405180910390fd5b5f6106968583611a63565b9050828111156106ba576106ab836001611a63565b90506106b78282611a76565b94505b845f036106da57604051637c946ed760e01b815260040160405180910390fd5b8467ffffffffffffffff8111156106f3576106f361186c565b60405190808252806020026020018201604052801561071c578160200160208202803683370190505b5093505f80805b87811015610896576107358186611a63565b925060045f8481526020019081526020015f205487828151811061075b5761075b611a89565b60200260200101818152505086818151811061077957610779611a89565b60200260200101515f03610882576107908361124e565b8782815181106107a2576107a2611a89565b6020908102919091010152604051630846d5ff60e31b8152600481018490525f907f00000000000000000000000000000000000000000000000000000000000000006001600160a01b031690634236aff89060240160e060405180830381865afa158015610812573d5f5f3e3d5ffd5b505050506040513d601f19601f820116820180604052508101906108369190611ab5565b50505050509150505f6001600160a01b0316816001600160a01b03161461087c5761087c8489848151811061086d5761086d611a89565b60200260200101515f84611571565b5061088e565b82935060019150610896565b600101610723565b5080156108a6575f6002556108ac565b60028390555b827fce05a7cf44fe9f781fa96adaba57b74bf4b82162efa121c08e77f051a23dae90826040516108e0911515815260200190565b60405180910390a25050600160035550919392505050565b6001600354111561091c576040516345f5ce8b60e11b815260040160405180910390fd5b6002600355335f908152600560205260408120549081900361095157604051637c946ed760e01b815260040160405180910390fd5b60408051808201909152600981526865636f73797374656d60b81b6020918201528351908401207f9c28c0e7f24473b02f05ded2aef7a9890c81a46c38fb26b940624dbb4dd591dd14806109f0575060408051808201909152600f81526e73657276696365526567697374727960881b6020918201528351908401207f8fa29d2b1417fad355e6cdf97780f39815321b25dc4658d5ffeb5cd8e8ece205145b80610a4057506040805180820190915260098152681cd95c9d9a58d9525960ba1b6020918201528351908401207f5d9528c6ab1a3e7aad38d879f4998d35944daa23aa8beb1e94dc69d556292f6a145b15610a6057826040516324972d8960e21b815260040161050d919061172f565b604051632333246d60e11b81526001600160a01b037f0000000000000000000000000000000000000000000000000000000000000000169063466648da90610ab090849087908790600401611b4e565b5f604051808303815f87803b158015610ac7575f5ffd5b505af1158015610ad9573d5f5f3e3d5ffd5b50505050807fbe801459d6f80018e95b17fe1dd4130fcde9f7f880559fcc798346f8eec9b9818484604051610b0f929190611b82565b60405180910390a25050600160035550565b5f546001600160a01b03163314610b5f575f5460405163521eb56d60e11b81523360048201526001600160a01b03909116602482015260440161050d565b80515f03610b8057604051637c946ed760e01b815260040160405180910390fd5b6001610b8c8282611c33565b507f6741b2fc379fad678116fe3d4d4b9a1a184ab53ba36b86ad0fa66340b1ab41ad81604051610bbc919061172f565b60405180910390a150565b604051602001610bef906020808252600490820152634f6c617360e01b604082015260600190565b60405160208183030381529060405281565b60018054610c0e90611baf565b80601f0160208091040260200160405190810160405280929190818152602001828054610c3a90611baf565b8015610c855780601f10610c5c57610100808354040283529160200191610c85565b820191905f5260205f20905b815481529060010190602001808311610c6857829003601f168201915b505050505081565b60016003541115610cb1576040516345f5ce8b60e11b815260040160405180910390fd5b6002600355335f9081526005602052604081205490819003610ce657604051637c946ed760e01b815260040160405180910390fd5b60408051808201825260098152681cd95c9d9a58d9525960ba1b602082015290516365a3ccf960e11b81525f916001600160a01b037f0000000000000000000000000000000000000000000000000000000000000000169163cb4799f291610d5391869190600401611cee565b5f60405180830381865afa158015610d6d573d5f5f3e3d5ffd5b505050506040513d5f823e601f3d908101601f19168201604052610d949190810190611d06565b905080515f03610db757604051637c946ed760e01b815260040160405180910390fd5b5f81806020019051810190610dcc9190611a38565b604080518082018252600b81526a1859d95b9d15d85b1b195d60aa1b602082015290516365a3ccf960e11b81529192506001600160a01b037f0000000000000000000000000000000000000000000000000000000000000000169163cb4799f291610e3c91879190600401611cee565b5f60405180830381865afa158015610e56573d5f5f3e3d5ffd5b505050506040513d5f823e601f3d908101601f19168201604052610e7d9190810190611d06565b91505f8251601403610e9c57610e9283611d7b565b60601c9050610ebc565b8251602003610ebc5782806020019051810190610eb99190611dce565b90505b60405163168f7ad760e11b81526001600160a01b037f00000000000000000000000000000000000000000000000000000000000000001690632d1ef5ae90610f0e90879033908b908b90600401611de9565b5f604051808303815f87803b158015610f25575f5ffd5b505af1158015610f37573d5f5f3e3d5ffd5b50506040516001600160a01b038416815233925086915084907f2c7dd77bcd60a4bc27c783b05de7bf78f9d8494bb5a0a028e75a8a02bf1f3f049060200160405180910390a45050600160035550505050565b5f546001600160a01b03163314610fc8575f5460405163521eb56d60e11b81523360048201526001600160a01b03909116602482015260440161050d565b6001600160a01b038116610fef5760405163d92e233d60e01b815260040160405180910390fd5b5f805473ffffffffffffffffffffffffffffffffffffffff19166001600160a01b038316908117825560405190917f4ffd725fc4a22075e9ec71c59edf9c38cdeb588a91b24fc5b61388c5be41282b91a250565b606061104e82611668565b92915050565b60016003541115611078576040516345f5ce8b60e11b815260040160405180910390fd5b6002600355336001600160a01b037f000000000000000000000000000000000000000000000000000000000000000016146110f75760405163312d21ff60e11b81523360048201526001600160a01b037f000000000000000000000000000000000000000000000000000000000000000016602482015260440161050d565b5f8381526004602052604090205480156111175761111784828585611571565b505060016003555050565b5f60016003541115611147576040516345f5ce8b60e11b815260040160405180910390fd5b6002600355336001600160a01b037f000000000000000000000000000000000000000000000000000000000000000016146111c65760405163312d21ff60e11b81523360048201526001600160a01b037f000000000000000000000000000000000000000000000000000000000000000016602482015260440161050d565b505f81815260046020526040812054908190036111e9576111e68261124e565b90505b6001600355919050565b5f546001600160a01b03161561121b5760405162dc149f60e41b815260040160405180910390fd5b6001600281905561122c8282611c33565b50505f805473ffffffffffffffffffffffffffffffffffffffff191633179055565b604080516003808252608082019092525f91829190816020015b6040805180820190915260608082526020820152815260200190600190039081611268579050506040805160808101825260098183019081526865636f73797374656d60b81b606083015281529051919250906020808301916112e491016020808252600490820152634f6c617360e01b604082015260600190565b604051602081830303815290604052815250815f8151811061130857611308611a89565b60209081029190910181019190915260408051608081018252600f8183019081526e73657276696365526567697374727960881b6060830152815281516001600160a01b037f000000000000000000000000000000000000000000000000000000000000000016818501529092830191016040516020818303038152906040528152508160018151811061139e5761139e611a89565b60200260200101819052506040518060400160405280604051806040016040528060098152602001681cd95c9d9a58d9525960ba1b8152508152602001846040516020016113ee91815260200190565b6040516020818303038152906040528152508160028151811061141357611413611a89565b60200260200101819052505f61142884611668565b604051634752114360e11b81529091506001600160a01b037f00000000000000000000000000000000000000000000000000000000000000001690638ea42286906114799084908690600401611e16565b6020604051808303815f875af1158015611495573d5f5f3e3d5ffd5b505050506040513d601f19601f820116820180604052508101906114b99190611a38565b604051633fddcf1960e01b8152600481018290529093507f00000000000000000000000000000000000000000000000000000000000000006001600160a01b031690633fddcf19906024015f604051808303815f87803b15801561151b575f5ffd5b505af115801561152d573d5f5f3e3d5ffd5b5050505f858152600460205260408082208690555185925086917fed3b0677b72f7c613d36efedb855a37500f282c148335826c86ee2525c15139191a35050919050565b6001600160a01b0382161561160b576001600160a01b038281165f908152600560205260408082209190915551633fddcf1960e01b8152600481018590527f000000000000000000000000000000000000000000000000000000000000000090911690633fddcf19906024015f604051808303815f87803b1580156115f4575f5ffd5b505af1158015611606573d5f5f3e3d5ffd5b505050505b6001600160a01b038181165f81815260056020908152604091829020879055905192851683529091859187917f2c7dd77bcd60a4bc27c783b05de7bf78f9d8494bb5a0a028e75a8a02bf1f3f04910160405180910390a450505050565b606060016116758361169c565b604051602001611686929190611eb2565b6040516020818303038152906040529050919050565b6060815f036116c25750506040805180820190915260018152600360fc1b602082015290565b604e6040519150808252608082016040525b82156116f257600a80840660300182840152909204915f19016116d4565b604e8190039101908152919050565b5f81518084528060208401602086015e5f602082860101526020601f19601f83011685010191505092915050565b602081525f6117416020830184611701565b9392505050565b6001600160a01b038116811461175c575f5ffd5b50565b5f5f5f5f5f60808688031215611773575f5ffd5b853561177e81611748565b9450602086013561178e81611748565b935060408601359250606086013567ffffffffffffffff8111156117b0575f5ffd5b8601601f810188136117c0575f5ffd5b803567ffffffffffffffff8111156117d6575f5ffd5b8860208284010111156117e7575f5ffd5b959894975092955050506020019190565b5f60208284031215611808575f5ffd5b813561174181611748565b5f60208284031215611823575f5ffd5b5035919050565b602080825282518282018190525f918401906040840190835b81811015611861578351835260209384019390920191600101611843565b509095945050505050565b634e487b7160e01b5f52604160045260245ffd5b604051601f8201601f1916810167ffffffffffffffff811182821017156118a9576118a961186c565b604052919050565b5f67ffffffffffffffff8211156118ca576118ca61186c565b50601f01601f191660200190565b5f82601f8301126118e7575f5ffd5b8135602083015f6118ff6118fa846118b1565b611880565b9050828152858383011115611912575f5ffd5b828260208301375f92810160200192909252509392505050565b5f5f6040838503121561193d575f5ffd5b823567ffffffffffffffff811115611953575f5ffd5b61195f858286016118d8565b925050602083013567ffffffffffffffff81111561197b575f5ffd5b611987858286016118d8565b9150509250929050565b5f602082840312156119a1575f5ffd5b813567ffffffffffffffff8111156119b7575f5ffd5b6119c3848285016118d8565b949350505050565b5f5f604083850312156119dc575f5ffd5b82359150602083013567ffffffffffffffff81111561197b575f5ffd5b5f5f5f60608486031215611a0b575f5ffd5b833592506020840135611a1d81611748565b91506040840135611a2d81611748565b809150509250925092565b5f60208284031215611a48575f5ffd5b5051919050565b634e487b7160e01b5f52601160045260245ffd5b8082018082111561104e5761104e611a4f565b8181038181111561104e5761104e611a4f565b634e487b7160e01b5f52603260045260245ffd5b805163ffffffff81168114611ab0575f5ffd5b919050565b5f5f5f5f5f5f5f60e0888a031215611acb575f5ffd5b87516bffffffffffffffffffffffff81168114611ae6575f5ffd5b6020890151909750611af781611748565b60408901519096509450611b0d60608901611a9d565b9350611b1b60808901611a9d565b9250611b2960a08901611a9d565b915060c088015160ff81168114611b3e575f5ffd5b8091505092959891949750929550565b838152606060208201525f611b666060830185611701565b8281036040840152611b788185611701565b9695505050505050565b604081525f611b946040830185611701565b8281036020840152611ba68185611701565b95945050505050565b600181811c90821680611bc357607f821691505b602082108103611be157634e487b7160e01b5f52602260045260245ffd5b50919050565b601f821115611c2e57805f5260205f20601f840160051c81016020851015611c0c5750805b601f840160051c820191505b81811015611c2b575f8155600101611c18565b50505b505050565b815167ffffffffffffffff811115611c4d57611c4d61186c565b611c6181611c5b8454611baf565b84611be7565b6020601f821160018114611c93575f8315611c7c5750848201515b5f19600385901b1c1916600184901b178455611c2b565b5f84815260208120601f198516915b82811015611cc25787850151825560209485019460019092019101611ca2565b5084821015611cdf57868401515f19600387901b60f8161c191681555b50505050600190811b01905550565b828152604060208201525f6119c36040830184611701565b5f60208284031215611d16575f5ffd5b815167ffffffffffffffff811115611d2c575f5ffd5b8201601f81018413611d3c575f5ffd5b8051611d4a6118fa826118b1565b818152856020838501011115611d5e575f5ffd5b8160208401602083015e5f91810160200191909152949350505050565b805160208201516bffffffffffffffffffffffff19811691906014821015611dc7576bffffffffffffffffffffffff196bffffffffffffffffffffffff198360140360031b1b82161692505b5050919050565b5f60208284031215611dde575f5ffd5b815161174181611748565b8481526001600160a01b0384166020820152826040820152608060608201525f611b786080830184611701565b604081525f611e286040830185611701565b828103602084015280845180835260208301915060208160051b840101602087015f5b83811015611ea457601f198684030185528151805160408552611e716040860182611701565b9050602082015191508481036020860152611e8c8183611701565b60209788019790955093909301925050600101611e4b565b509098975050505050505050565b5f5f8454611ebf81611baf565b600182168015611ed65760018114611eeb57611f18565b60ff1983168652811515820286019350611f18565b875f5260205f205f5b83811015611f1057815488820152600190910190602001611ef4565b505081860193505b50505083518060208601835e5f910190815294935050505056fea264697066735822122003b515d38d553bd2ad89a2c4107048587d90cf3b3b9640aecde338e2f08b1ab564736f6c634300081e0033","linkReferences":{}},"methodIdentifiers":{"AGENT_WALLET_METADATA_KEY()":"040d571d","ECOSYSTEM_METADATA_KEY()":"1a8d9066","ECOSYSTEM_METADATA_VALUE()":"656762cd","PROXY_IDENTITY_REGISTRY_BRIDGER()":"d4de7260","SERVICE_ID_METADATA_KEY()":"ecb5c669","SERVICE_REGISTRY_METADATA_KEY()":"e688e808","VERSION()":"ffa1ad74","baseURI()":"6c0360eb","changeBaseURI(string)":"39a0c6f9","changeImplementation(address)":"17a68dd8","changeOwner(address)":"a6f9dae1","getAgentURI(uint256)":"ce91aede","identityRegistry()":"134e18f4","initialize(string)":"f62d1888","linkServiceIdAgentIds(uint256)":"218fda54","mapMultisigAgentIds(address)":"1c5436c1","mapServiceIdAgentIds(uint256)":"e0e3e127","onERC721Received(address,address,uint256,bytes)":"150b7a02","owner()":"8da5cb5b","register(uint256)":"f207564e","serviceManager()":"3998fdd3","serviceRegistry()":"cbcf252a","setAgentWallet(uint256,bytes)":"78b88f57","setMetadata(string,bytes)":"38e58999","startLinkServiceId()":"09a76b52","updateAgentWallet(uint256,address,address)":"e636441c"},"id":0}