{
  "_format": "hh-sol-artifact-1",
  "contractName": "RecoveryModule",
  "sourceName": "contracts/multisigs/RecoveryModule.sol",
  "abi": [
    {
      "inputs": [
        {
          "internalType": "address",
          "name": "_multiSend",
          "type": "address"
        },
        {
          "internalType": "address",
          "name": "_serviceRegistry",
          "type": "address"
        }
      ],
      "stateMutability": "nonpayable",
      "type": "constructor"
    },
    {
      "inputs": [],
      "name": "DelegatecallOnly",
      "type": "error"
    },
    {
      "inputs": [],
      "name": "DuplicateModule",
      "type": "error"
    },
    {
      "inputs": [],
      "name": "EmptyModulesOnly",
      "type": "error"
    },
    {
      "inputs": [
        {
          "internalType": "uint256",
          "name": "expected",
          "type": "uint256"
        },
        {
          "internalType": "uint256",
          "name": "provided",
          "type": "uint256"
        }
      ],
      "name": "IncorrectDataLength",
      "type": "error"
    },
    {
      "inputs": [
        {
          "internalType": "address",
          "name": "sender",
          "type": "address"
        },
        {
          "internalType": "address",
          "name": "owner",
          "type": "address"
        }
      ],
      "name": "OwnerOnly",
      "type": "error"
    },
    {
      "inputs": [],
      "name": "ReentrancyGuard",
      "type": "error"
    },
    {
      "inputs": [
        {
          "internalType": "address",
          "name": "sender",
          "type": "address"
        },
        {
          "internalType": "address",
          "name": "registry",
          "type": "address"
        }
      ],
      "name": "RegistryOnly",
      "type": "error"
    },
    {
      "inputs": [
        {
          "internalType": "uint256",
          "name": "expected",
          "type": "uint256"
        },
        {
          "internalType": "uint256",
          "name": "provided",
          "type": "uint256"
        }
      ],
      "name": "WrongNumOwners",
      "type": "error"
    },
    {
      "inputs": [
        {
          "internalType": "address",
          "name": "provided",
          "type": "address"
        }
      ],
      "name": "WrongOwner",
      "type": "error"
    },
    {
      "inputs": [
        {
          "internalType": "uint8",
          "name": "state",
          "type": "uint8"
        },
        {
          "internalType": "uint256",
          "name": "serviceId",
          "type": "uint256"
        }
      ],
      "name": "WrongServiceState",
      "type": "error"
    },
    {
      "inputs": [
        {
          "internalType": "uint256",
          "name": "expected",
          "type": "uint256"
        },
        {
          "internalType": "uint256",
          "name": "provided",
          "type": "uint256"
        }
      ],
      "name": "WrongThreshold",
      "type": "error"
    },
    {
      "inputs": [],
      "name": "ZeroAddress",
      "type": "error"
    },
    {
      "inputs": [],
      "name": "ZeroNonceOnly",
      "type": "error"
    },
    {
      "anonymous": false,
      "inputs": [
        {
          "indexed": true,
          "internalType": "address",
          "name": "serviceOwner",
          "type": "address"
        },
        {
          "indexed": true,
          "internalType": "uint256",
          "name": "serviceId",
          "type": "uint256"
        }
      ],
      "name": "AccessRecovered",
      "type": "event"
    },
    {
      "anonymous": false,
      "inputs": [
        {
          "indexed": true,
          "internalType": "address",
          "name": "module",
          "type": "address"
        }
      ],
      "name": "EnabledModule",
      "type": "event"
    },
    {
      "anonymous": false,
      "inputs": [
        {
          "indexed": true,
          "internalType": "address",
          "name": "serviceOwner",
          "type": "address"
        },
        {
          "indexed": true,
          "internalType": "uint256",
          "name": "serviceId",
          "type": "uint256"
        },
        {
          "indexed": false,
          "internalType": "address[]",
          "name": "owners",
          "type": "address[]"
        },
        {
          "indexed": false,
          "internalType": "uint256",
          "name": "threshold",
          "type": "uint256"
        }
      ],
      "name": "ServiceRedeployed",
      "type": "event"
    },
    {
      "inputs": [],
      "name": "DEFAULT_DATA_LENGTH",
      "outputs": [
        {
          "internalType": "uint256",
          "name": "",
          "type": "uint256"
        }
      ],
      "stateMutability": "view",
      "type": "function"
    },
    {
      "inputs": [],
      "name": "RECOVER_THRESHOLD",
      "outputs": [
        {
          "internalType": "uint256",
          "name": "",
          "type": "uint256"
        }
      ],
      "stateMutability": "view",
      "type": "function"
    },
    {
      "inputs": [
        {
          "internalType": "address[]",
          "name": "multisigOwners",
          "type": "address[]"
        },
        {
          "internalType": "uint256",
          "name": "threshold",
          "type": "uint256"
        },
        {
          "internalType": "bytes",
          "name": "data",
          "type": "bytes"
        }
      ],
      "name": "create",
      "outputs": [
        {
          "internalType": "address",
          "name": "multisig",
          "type": "address"
        }
      ],
      "stateMutability": "nonpayable",
      "type": "function"
    },
    {
      "inputs": [],
      "name": "enableModule",
      "outputs": [],
      "stateMutability": "nonpayable",
      "type": "function"
    },
    {
      "inputs": [],
      "name": "multiSend",
      "outputs": [
        {
          "internalType": "address",
          "name": "",
          "type": "address"
        }
      ],
      "stateMutability": "view",
      "type": "function"
    },
    {
      "inputs": [
        {
          "internalType": "uint256",
          "name": "serviceId",
          "type": "uint256"
        }
      ],
      "name": "recoverAccess",
      "outputs": [],
      "stateMutability": "nonpayable",
      "type": "function"
    },
    {
      "inputs": [],
      "name": "serviceRegistry",
      "outputs": [
        {
          "internalType": "address",
          "name": "",
          "type": "address"
        }
      ],
      "stateMutability": "view",
      "type": "function"
    }
  ],
  "bytecode": "0x60e06040526001600955348015610014575f5ffd5b506040516117ef3803806117ef833981016040819052610033916100a4565b6001600160a01b038216158061005057506001600160a01b038116155b1561006e5760405163d92e233d60e01b815260040160405180910390fd5b306080526001600160a01b0391821660a0521660c0526100d5565b80516001600160a01b038116811461009f575f5ffd5b919050565b5f5f604083850312156100b5575f5ffd5b6100be83610089565b91506100cc60208401610089565b90509250929050565b60805160a05160c0516116a561014a5f395f818160bb0152818161034f0152818161042301528181610861015281816108a30152818161093d015281816109c90152610aad01525f818160fa015281816107810152610e7901525f8181610141015281816101ff015261028101526116a55ff3fe608060405234801561000f575f5ffd5b506004361061007a575f3560e01c8063cbcf252a11610058578063cbcf252a146100b6578063e49cda08146100f5578063f02fb7741461011c578063f398dba814610124575f5ffd5b8063242929621461007e57806363745087146100885780639d619683146100a3575b5f5ffd5b610086610137565b005b610090600181565b6040519081526020015b60405180910390f35b6100866100b13660046110e7565b61030e565b6100dd7f000000000000000000000000000000000000000000000000000000000000000081565b6040516001600160a01b03909116815260200161009a565b6100dd7f000000000000000000000000000000000000000000000000000000000000000081565b610090602081565b6100dd6101323660046111e9565b61082c565b6001600160a01b037f00000000000000000000000000000000000000000000000000000000000000001630036101805760405163f56b123b60e01b815260040160405180910390fd5b600554156101a157604051637ee422c560e01b815260040160405180910390fd5b60015f81905260208190527fcc69885fda6bcc1a4ace058b4a62bf5e179ea78fd58a1ccd71c22cc9b688792f546001600160a01b0316146101f557604051630187398b60e11b815260040160405180910390fd5b6001600160a01b037f000000000000000000000000000000000000000000000000000000000000000081165f90815260016020526040902054161561024d57604051633b3a461d60e21b815260040160405180910390fd5b600160208190527fcc69885fda6bcc1a4ace058b4a62bf5e179ea78fd58a1ccd71c22cc9b688792f80546001600160a01b037f000000000000000000000000000000000000000000000000000000000000000081165f81815260408082208054949095167fffffffffffffffffffffffff000000000000000000000000000000000000000094851617909455948552835490911681179092555190917fecdf3a3effea5783a3c4c2140e677577666428d44ed9d474a0b3a4c9943f844091a2565b60016009541115610332576040516345f5ce8b60e11b815260040160405180910390fd5b60026009556040516331a9108f60e11b8152600481018290525f907f00000000000000000000000000000000000000000000000000000000000000006001600160a01b031690636352211e90602401602060405180830381865afa15801561039c573d5f5f3e3d5ffd5b505050506040513d601f19601f820116820180604052508101906103c091906112bb565b9050336001600160a01b038216146104015760405163521eb56d60e11b81523360048201526001600160a01b03821660248201526044015b60405180910390fd5b604051630846d5ff60e31b8152600481018390525f9081906001600160a01b037f00000000000000000000000000000000000000000000000000000000000000001690634236aff89060240160e060405180830381865afa158015610468573d5f5f3e3d5ffd5b505050506040513d601f19601f8201168201806040525081019061048c91906112f5565b965050505050925050600160058111156104a8576104a861138c565b8160058111156104ba576104ba61138c565b146104f7578060058111156104d1576104d161138c565b60405163549292e760e01b815260ff9091166004820152602481018590526044016103f8565b6001600160a01b03821661051e5760405163d92e233d60e01b815260040160405180910390fd5b5f826001600160a01b031663a0e67e2b6040518163ffffffff1660e01b81526004015f60405180830381865afa15801561055a573d5f5f3e3d5ffd5b505050506040513d5f823e601f3d908101601f19168201604052610581919081019061140e565b80519091506060805f5b610596600185611448565b81101561065f5760018582815181106105b1576105b161146d565b60209081029190910101516040516001600160a01b039283166024820152911660448201526001606482015260840160408051601f19818403018152918152602080830180516001600160e01b031663f8dc5dd960e01b179052825191519295508492610627925f928c928492918a9101611498565b60408051601f198184030181529082905261064592916020016114f7565b60408051601f19818403018152919052915060010161058b565b5060018461066d8286611448565b8151811061067d5761067d61146d565b60209081029190910101516040516001600160a01b0392831660248201529116604482015233606482015260840160408051601f19818403018152918152602080830180516001600160e01b031663e318b52b60e01b1790528251915192945083926106f2925f928b92849291899101611498565b60408051601f198184030181529082905261071092916020016114f7565b6040516020818303038152906040529050806040516024016107329190611539565b60408051601f198184030181529181526020820180516001600160e01b03166346c07f8560e11b1790525163468721a760e01b81529092506001600160a01b0387169063468721a7906107b0907f0000000000000000000000000000000000000000000000000000000000000000905f90879060019060040161154b565b6020604051808303815f875af11580156107cc573d5f5f3e3d5ffd5b505050506040513d601f19601f820116820180604052508101906107f0919061159f565b50604051889033907fb5107ff9d13ac6cf43e8c27ad100b95516dc653454fe527b8a3dc5e202aa590d905f90a350506001600955505050505050565b5f60016009541115610851576040516345f5ce8b60e11b815260040160405180910390fd5b6002600955336001600160a01b037f000000000000000000000000000000000000000000000000000000000000000016146108d057604051631db36e8b60e31b81523360048201526001600160a01b037f00000000000000000000000000000000000000000000000000000000000000001660248201526044016103f8565b8151602081146108fd57604051631a64813d60e11b815260206004820152602481018290526044016103f8565b5f855190506060805f8680602001905181019061091a91906115be565b6040516331a9108f60e11b8152600481018290529091505f906001600160a01b037f00000000000000000000000000000000000000000000000000000000000000001690636352211e90602401602060405180830381865afa158015610982573d5f5f3e3d5ffd5b505050506040513d601f19601f820116820180604052508101906109a691906112bb565b604051630846d5ff60e31b8152600481018490529091505f906001600160a01b037f00000000000000000000000000000000000000000000000000000000000000001690634236aff89060240160e060405180830381865afa158015610a0e573d5f5f3e3d5ffd5b505050506040513d601f19601f82011682018060405250810190610a3291906112f5565b50939c505063ffffffff169350506001600160a01b038a169150610a6b90505760405163d92e233d60e01b815260040160405180910390fd5b898114610a9557604051635372461560e01b815260048101829052602481018b90526044016103f8565b604051634d486f8560e01b8152600481018490525f907f00000000000000000000000000000000000000000000000000000000000000006001600160a01b031690634d486f85906024015f60405180830381865afa158015610af9573d5f5f3e3d5ffd5b505050506040513d5f823e601f3d908101601f19168201604052610b2091908101906115d5565b91505080518714610b5157805160405163f720290d60e01b81526004810191909152602481018890526044016103f8565b5f5b87811015610bf157818181518110610b6d57610b6d61146d565b60200260200101516001600160a01b03168d8281518110610b9057610b9061146d565b60200260200101516001600160a01b031614610be9578c8181518110610bb857610bb861146d565b60200260200101516040516374dba67360e01b81526004016103f891906001600160a01b0391909116815260200190565b600101610b53565b505f896001600160a01b031663a0e67e2b6040518163ffffffff1660e01b81526004015f60405180830381865afa158015610c2e573d5f5f3e3d5ffd5b505050506040513d5f823e601f3d908101601f19168201604052610c55919081019061140e565b905080516001148015610c925750836001600160a01b0316815f81518110610c7f57610c7f61146d565b60200260200101516001600160a01b0316145b15610eea575f5b88811015610d60578d8181518110610cb357610cb361146d565b60209081029190910101516040516001600160a01b03909116602482015260016044820152606401604051602081830303815290604052630d582f1360e01b6020820180516001600160e01b0383818316178352505050509750865f8c5f8b518c604051602001610d28959493929190611498565b60408051601f1981840301815290829052610d4692916020016114f7565b60408051601f198184030181529190529650600101610c99565b508c5f81518110610d7357610d7361146d565b60209081029190910101516040516001600160a01b0391821660248201529085166044820152606481018d905260840160408051601f19818403018152918152602080830180516001600160e01b031663f8dc5dd960e01b179052825191519299508892610dea925f928f928492918e9101611498565b60408051601f1981840301815290829052610e0892916020016114f7565b604051602081830303815290604052955085604051602401610e2a9190611539565b60408051601f198184030181529181526020820180516001600160e01b03166346c07f8560e11b1790525163468721a760e01b81529097506001600160a01b038b169063468721a790610ea8907f0000000000000000000000000000000000000000000000000000000000000000905f908c9060019060040161154b565b6020604051808303815f875af1158015610ec4573d5f5f3e3d5ffd5b505050506040513d601f19601f82011682018060405250810190610ee8919061159f565b505b896001600160a01b031663a0e67e2b6040518163ffffffff1660e01b81526004015f60405180830381865afa158015610f25573d5f5f3e3d5ffd5b505050506040513d5f823e601f3d908101601f19168201604052610f4c919081019061140e565b9050896001600160a01b031663e75235b86040518163ffffffff1660e01b8152600401602060405180830381865afa158015610f8a573d5f5f3e3d5ffd5b505050506040513d601f19601f82011682018060405250810190610fae91906115be565b9250828c14610fda57604051635372461560e01b815260048101849052602481018d90526044016103f8565b8051881461100857805160405163f720290d60e01b81526004810191909152602481018990526044016103f8565b5f5b8881101561108c5781600161101f838c611448565b6110299190611448565b815181106110395761103961146d565b60200260200101516001600160a01b03168e828151811061105c5761105c61146d565b60200260200101516001600160a01b031614611084578d8181518110610bb857610bb861146d565b60010161100a565b5084846001600160a01b03167f5795fc55b414d902f8e0e955ef070f406b0d406db8ec24fe9bb833c7a478b64a8f8f6040516110c992919061161a565b60405180910390a35050600160095550959998505050505050505050565b5f602082840312156110f7575f5ffd5b5035919050565b634e487b7160e01b5f52604160045260245ffd5b604051601f8201601f1916810167ffffffffffffffff8111828210171561113b5761113b6110fe565b604052919050565b5f67ffffffffffffffff82111561115c5761115c6110fe565b5060051b60200190565b6001600160a01b038116811461117a575f5ffd5b50565b5f82601f83011261118c575f5ffd5b813567ffffffffffffffff8111156111a6576111a66110fe565b6111b9601f8201601f1916602001611112565b8181528460208386010111156111cd575f5ffd5b816020850160208301375f918101602001919091529392505050565b5f5f5f606084860312156111fb575f5ffd5b833567ffffffffffffffff811115611211575f5ffd5b8401601f81018613611221575f5ffd5b803561123461122f82611143565b611112565b8082825260208201915060208360051b850101925088831115611255575f5ffd5b6020840193505b8284101561128057833561126f81611166565b82526020938401939091019061125c565b955050505060208401359150604084013567ffffffffffffffff8111156112a5575f5ffd5b6112b18682870161117d565b9150509250925092565b5f602082840312156112cb575f5ffd5b81516112d681611166565b9392505050565b805163ffffffff811681146112f0575f5ffd5b919050565b5f5f5f5f5f5f5f60e0888a03121561130b575f5ffd5b87516bffffffffffffffffffffffff81168114611326575f5ffd5b602089015190975061133781611166565b6040890151909650945061134d606089016112dd565b935061135b608089016112dd565b925061136960a089016112dd565b915060c08801516006811061137c575f5ffd5b8091505092959891949750929550565b634e487b7160e01b5f52602160045260245ffd5b5f82601f8301126113af575f5ffd5b81516113bd61122f82611143565b8082825260208201915060208360051b8601019250858311156113de575f5ffd5b602085015b838110156114045780516113f681611166565b8352602092830192016113e3565b5095945050505050565b5f6020828403121561141e575f5ffd5b815167ffffffffffffffff811115611434575f5ffd5b611440848285016113a0565b949350505050565b8181038181111561146757634e487b7160e01b5f52601160045260245ffd5b92915050565b634e487b7160e01b5f52603260045260245ffd5b5f81518060208401855e5f93019283525090919050565b5f600287106114b557634e487b7160e01b5f52602160045260245ffd5b8660f81b82526bffffffffffffffffffffffff198660601b1660018301528460158301528360358301526114ec6055830184611481565b979650505050505050565b5f6114406115058386611481565b84611481565b5f81518084528060208401602086015e5f602082860101526020601f19601f83011685010191505092915050565b602081525f6112d6602083018461150b565b6001600160a01b0385168152836020820152608060408201525f611572608083018561150b565b90506002831061159057634e487b7160e01b5f52602160045260245ffd5b82606083015295945050505050565b5f602082840312156115af575f5ffd5b815180151581146112d6575f5ffd5b5f602082840312156115ce575f5ffd5b5051919050565b5f5f604083850312156115e6575f5ffd5b8251602084015190925067ffffffffffffffff811115611604575f5ffd5b611610858286016113a0565b9150509250929050565b604080825283519082018190525f9060208501906060840190835b8181101561165c5783516001600160a01b0316835260209384019390920191600101611635565b505060209390930193909352509291505056fea2646970667358221220737194dfa468a99af2e1827dbb04002908cb0e8eb1040ce066626b65cd2d252f64736f6c634300081e0033",
  "linkReferences": {},
  "deployedLinkReferences": {}
}