{"abi":[{"type":"constructor","inputs":[{"name":"_safe","type":"address","internalType":"address"},{"name":"_safeProxyFactory","type":"address","internalType":"address"},{"name":"_recoveryModule","type":"address","internalType":"address"}],"stateMutability":"nonpayable"},{"type":"function","name":"DEFAULT_DATA_LENGTH","inputs":[],"outputs":[{"name":"","type":"uint256","internalType":"uint256"}],"stateMutability":"view"},{"type":"function","name":"ENABLE_MODULE_SELECTOR","inputs":[],"outputs":[{"name":"","type":"bytes4","internalType":"bytes4"}],"stateMutability":"view"},{"type":"function","name":"SAFE_SETUP_SELECTOR","inputs":[],"outputs":[{"name":"","type":"bytes4","internalType":"bytes4"}],"stateMutability":"view"},{"type":"function","name":"create","inputs":[{"name":"owners","type":"address[]","internalType":"address[]"},{"name":"threshold","type":"uint256","internalType":"uint256"},{"name":"data","type":"bytes","internalType":"bytes"}],"outputs":[{"name":"multisig","type":"address","internalType":"address"}],"stateMutability":"nonpayable"},{"type":"function","name":"recoveryModule","inputs":[],"outputs":[{"name":"","type":"address","internalType":"address"}],"stateMutability":"view"},{"type":"function","name":"safe","inputs":[],"outputs":[{"name":"","type":"address","internalType":"address"}],"stateMutability":"view"},{"type":"function","name":"safeProxyFactory","inputs":[],"outputs":[{"name":"","type":"address","internalType":"address"}],"stateMutability":"view"},{"type":"error","name":"IncorrectDataLength","inputs":[{"name":"expected","type":"uint256","internalType":"uint256"},{"name":"provided","type":"uint256","internalType":"uint256"}]},{"type":"error","name":"ReentrancyGuard","inputs":[]},{"type":"error","name":"ZeroAddress","inputs":[]}],"bytecode":{"object":"0x60e060405260015f55348015610013575f5ffd5b50604051610816380380610816833981016040819052610032916100b7565b6001600160a01b038316158061004f57506001600160a01b038216155b8061006157506001600160a01b038116155b1561007f5760405163d92e233d60e01b815260040160405180910390fd5b6001600160a01b0392831660805290821660a0521660c0526100f7565b80516001600160a01b03811681146100b2575f5ffd5b919050565b5f5f5f606084860312156100c9575f5ffd5b6100d28461009c565b92506100e06020850161009c565b91506100ee6040850161009c565b90509250925092565b60805160a05160c0516106e36101335f395f81816083015261023d01525f818160ee01526102e701525f818160c7015261031401526106e35ff3fe608060405234801561000f575f5ffd5b506004361061007a575f3560e01c80633c39595b116100585780633c39595b14610110578063e31cdce31461014f578063f02fb7741461015d578063f398dba814610173575f5ffd5b80630ee9bf141461007e578063186f0354146100c257806319964501146100e9575b5f5ffd5b6100a57f000000000000000000000000000000000000000000000000000000000000000081565b6040516001600160a01b0390911681526020015b60405180910390f35b6100a57f000000000000000000000000000000000000000000000000000000000000000081565b6100a57f000000000000000000000000000000000000000000000000000000000000000081565b61011e63b63e800d60e01b81565b6040517fffffffff0000000000000000000000000000000000000000000000000000000090911681526020016100b9565b61011e63121494b160e11b81565b610165604081565b6040519081526020016100b9565b6100a5610181366004610459565b5f60015f5411156101a5576040516345f5ce8b60e11b815260040160405180910390fd5b60025f90815582518190801561020657604081146101ec57845160408051631a64813d60e11b81526101e39290600401918252602082015260400190565b60405180910390fd5b848060200190518101906102009190610540565b90935091505b6040805163121494b160e11b602082015281516004818303018152602482019092525f9063b63e800d60e01b9061026f908b908b907f00000000000000000000000000000000000000000000000000000000000000009087908b9088908190819060480161059a565b60408051601f198184030181529181526020820180517bffffffffffffffffffffffffffffffffffffffffffffffffffffffff167fffffffff00000000000000000000000000000000000000000000000000000000909416939093179092529051631688f0b960e01b81529091506001600160a01b037f00000000000000000000000000000000000000000000000000000000000000001690631688f0b990610340907f0000000000000000000000000000000000000000000000000000000000000000908590899060040161065a565b6020604051808303815f875af115801561035c573d5f5f3e3d5ffd5b505050506040513d601f19601f82011682018060405250810190610380919061068b565b60015f559998505050505050505050565b634e487b7160e01b5f52604160045260245ffd5b604051601f8201601f1916810167ffffffffffffffff811182821017156103ce576103ce610391565b604052919050565b6001600160a01b03811681146103ea575f5ffd5b50565b5f82601f8301126103fc575f5ffd5b813567ffffffffffffffff81111561041657610416610391565b610429601f8201601f19166020016103a5565b81815284602083860101111561043d575f5ffd5b816020850160208301375f918101602001919091529392505050565b5f5f5f6060848603121561046b575f5ffd5b833567ffffffffffffffff811115610481575f5ffd5b8401601f81018613610491575f5ffd5b803567ffffffffffffffff8111156104ab576104ab610391565b8060051b6104bb602082016103a5565b918252602081840181019290810190898411156104d6575f5ffd5b6020850194505b8385101561050457843592506104f2836103d6565b828252602094850194909101906104dd565b96505050506020850135925050604084013567ffffffffffffffff81111561052a575f5ffd5b610536868287016103ed565b9150509250925092565b5f5f60408385031215610551575f5ffd5b825161055c816103d6565b6020939093015192949293505050565b5f81518084528060208401602086015e5f602082860101526020601f19601f83011685010191505092915050565b61010080825289519082018190525f9060208b0190610120840190835b818110156105de5783516001600160a01b03168352602093840193909201916001016105b7565b50508a60208501526105fb604085018b6001600160a01b03169052565b838103606085015261060d818a61056c565b9250505061062660808301876001600160a01b03169052565b6001600160a01b03851660a083015260ff841660c08301526001600160a01b03831660e08301529998505050505050505050565b6001600160a01b0384168152606060208201525f61067b606083018561056c565b9050826040830152949350505050565b5f6020828403121561069b575f5ffd5b81516106a6816103d6565b939250505056fea264697066735822122094346256bc38b26e0e38e261c90285306a6527137d7e8a521ed422ee4786483e64736f6c634300081e0033","linkReferences":{}},"methodIdentifiers":{"DEFAULT_DATA_LENGTH()":"f02fb774","ENABLE_MODULE_SELECTOR()":"e31cdce3","SAFE_SETUP_SELECTOR()":"3c39595b","create(address[],uint256,bytes)":"f398dba8","recoveryModule()":"0ee9bf14","safe()":"186f0354","safeProxyFactory()":"19964501"},"id":21}