{"abi":[{"type":"constructor","inputs":[{"name":"serviceManager","type":"address","internalType":"address"},{"name":"serviceManagerData","type":"bytes","internalType":"bytes"}],"stateMutability":"nonpayable"},{"type":"fallback","stateMutability":"payable"},{"type":"function","name":"PROXY_SERVICE_MANAGER","inputs":[],"outputs":[{"name":"","type":"bytes32","internalType":"bytes32"}],"stateMutability":"view"},{"type":"function","name":"getImplementation","inputs":[],"outputs":[{"name":"implementation","type":"address","internalType":"address"}],"stateMutability":"view"},{"type":"error","name":"InitializationFailed","inputs":[]},{"type":"error","name":"ZeroAddress","inputs":[]},{"type":"error","name":"ZeroValue","inputs":[]}],"bytecode":{"object":"0x608060405234801561000f575f5ffd5b5060405161034f38038061034f83398101604081905261002e9161012d565b6001600160a01b0382166100555760405163d92e233d60e01b815260040160405180910390fd5b80515f0361007657604051637c946ed760e01b815260040160405180910390fd5b817fe39e69948a448ce9239ad71b908b6c5b46225f86ffa735b25a8cd64080315855555f826001600160a01b0316826040516100b291906101fc565b5f60405180830381855af49150503d805f81146100ea576040519150601f19603f3d011682016040523d82523d5f602084013e6100ef565b606091505b505090508061011157604051630337323560e31b815260040160405180910390fd5b505050610212565b634e487b7160e01b5f52604160045260245ffd5b5f5f6040838503121561013e575f5ffd5b82516001600160a01b0381168114610154575f5ffd5b60208401519092506001600160401b0381111561016f575f5ffd5b8301601f8101851361017f575f5ffd5b80516001600160401b0381111561019857610198610119565b604051601f8201601f19908116603f011681016001600160401b03811182821017156101c6576101c6610119565b6040528181528282016020018710156101dd575f5ffd5b8160208401602083015e5f602083830101528093505050509250929050565b5f82518060208501845e5f920191825250919050565b6101308061021f5f395ff3fe6080604052600436106025575f3560e01c806359a1d184146065578063aaf10f421460a9575b7fe39e69948a448ce9239ad71b908b6c5b46225f86ffa735b25a8cd6408031585554365f5f375f5f365f845af490503d5f5f3e806060573d5ffd5b503d5ff35b348015606f575f5ffd5b5060967fe39e69948a448ce9239ad71b908b6c5b46225f86ffa735b25a8cd6408031585581565b6040519081526020015b60405180910390f35b34801560b3575f5ffd5b507fe39e69948a448ce9239ad71b908b6c5b46225f86ffa735b25a8cd640803158555460405173ffffffffffffffffffffffffffffffffffffffff909116815260200160a056fea264697066735822122064fee25be8ef0ffc64dac514767306ad1f9c40ceef125fa5a1e659039d713dfa64736f6c634300081e0033","linkReferences":{}},"methodIdentifiers":{"PROXY_SERVICE_MANAGER()":"59a1d184","getImplementation()":"aaf10f42"},"id":8}