{"abi":[{"type":"constructor","inputs":[{"name":"_serviceRegistry","type":"address","internalType":"address"},{"name":"_serviceRegistryTokenUtility","type":"address","internalType":"address"}],"stateMutability":"nonpayable"},{"type":"function","name":"BOND_WRAPPER","inputs":[],"outputs":[{"name":"","type":"uint96","internalType":"uint96"}],"stateMutability":"view"},{"type":"function","name":"DOMAIN_SEPARATOR_TYPE_HASH","inputs":[],"outputs":[{"name":"","type":"bytes32","internalType":"bytes32"}],"stateMutability":"view"},{"type":"function","name":"ETH_TOKEN_ADDRESS","inputs":[],"outputs":[{"name":"","type":"address","internalType":"address"}],"stateMutability":"view"},{"type":"function","name":"NAME","inputs":[],"outputs":[{"name":"","type":"string","internalType":"string"}],"stateMutability":"view"},{"type":"function","name":"PROXY_SERVICE_MANAGER","inputs":[],"outputs":[{"name":"","type":"bytes32","internalType":"bytes32"}],"stateMutability":"view"},{"type":"function","name":"REGISTER_AGENTS_TYPE_HASH","inputs":[],"outputs":[{"name":"","type":"bytes32","internalType":"bytes32"}],"stateMutability":"view"},{"type":"function","name":"UNBOND_TYPE_HASH","inputs":[],"outputs":[{"name":"","type":"bytes32","internalType":"bytes32"}],"stateMutability":"view"},{"type":"function","name":"VERSION","inputs":[],"outputs":[{"name":"","type":"string","internalType":"string"}],"stateMutability":"view"},{"type":"function","name":"activateRegistration","inputs":[{"name":"serviceId","type":"uint256","internalType":"uint256"}],"outputs":[{"name":"success","type":"bool","internalType":"bool"}],"stateMutability":"payable"},{"type":"function","name":"changeImplementation","inputs":[{"name":"implementation","type":"address","internalType":"address"}],"outputs":[],"stateMutability":"nonpayable"},{"type":"function","name":"changeOwner","inputs":[{"name":"newOwner","type":"address","internalType":"address"}],"outputs":[],"stateMutability":"nonpayable"},{"type":"function","name":"create","inputs":[{"name":"serviceOwner","type":"address","internalType":"address"},{"name":"token","type":"address","internalType":"address"},{"name":"configHash","type":"bytes32","internalType":"bytes32"},{"name":"agentIds","type":"uint32[]","internalType":"uint32[]"},{"name":"agentParams","type":"tuple[]","internalType":"struct IService.AgentParams[]","components":[{"name":"slots","type":"uint32","internalType":"uint32"},{"name":"bond","type":"uint96","internalType":"uint96"}]},{"name":"threshold","type":"uint32","internalType":"uint32"}],"outputs":[{"name":"serviceId","type":"uint256","internalType":"uint256"}],"stateMutability":"nonpayable"},{"type":"function","name":"deploy","inputs":[{"name":"serviceId","type":"uint256","internalType":"uint256"},{"name":"multisigImplementation","type":"address","internalType":"address"},{"name":"data","type":"bytes","internalType":"bytes"}],"outputs":[{"name":"multisig","type":"address","internalType":"address"}],"stateMutability":"nonpayable"},{"type":"function","name":"getDomainSeparator","inputs":[],"outputs":[{"name":"","type":"bytes32","internalType":"bytes32"}],"stateMutability":"view"},{"type":"function","name":"getOperatorRegisterAgentsNonce","inputs":[{"name":"operator","type":"address","internalType":"address"},{"name":"serviceId","type":"uint256","internalType":"uint256"}],"outputs":[{"name":"nonce","type":"uint256","internalType":"uint256"}],"stateMutability":"view"},{"type":"function","name":"getOperatorUnbondNonce","inputs":[{"name":"operator","type":"address","internalType":"address"},{"name":"serviceId","type":"uint256","internalType":"uint256"}],"outputs":[{"name":"nonce","type":"uint256","internalType":"uint256"}],"stateMutability":"view"},{"type":"function","name":"getRegisterAgentsHash","inputs":[{"name":"operator","type":"address","internalType":"address"},{"name":"serviceOwner","type":"address","internalType":"address"},{"name":"serviceId","type":"uint256","internalType":"uint256"},{"name":"agentInstances","type":"address[]","internalType":"address[]"},{"name":"agentIds","type":"uint32[]","internalType":"uint32[]"},{"name":"nonce","type":"uint256","internalType":"uint256"}],"outputs":[{"name":"","type":"bytes32","internalType":"bytes32"}],"stateMutability":"view"},{"type":"function","name":"getUnbondHash","inputs":[{"name":"operator","type":"address","internalType":"address"},{"name":"serviceOwner","type":"address","internalType":"address"},{"name":"serviceId","type":"uint256","internalType":"uint256"},{"name":"nonce","type":"uint256","internalType":"uint256"}],"outputs":[{"name":"","type":"bytes32","internalType":"bytes32"}],"stateMutability":"view"},{"type":"function","name":"identityRegistryBridger","inputs":[],"outputs":[{"name":"","type":"address","internalType":"address"}],"stateMutability":"view"},{"type":"function","name":"initialize","inputs":[],"outputs":[],"stateMutability":"nonpayable"},{"type":"function","name":"isOperatorHashApproved","inputs":[{"name":"operator","type":"address","internalType":"address"},{"name":"hash","type":"bytes32","internalType":"bytes32"}],"outputs":[{"name":"","type":"bool","internalType":"bool"}],"stateMutability":"view"},{"type":"function","name":"mapOperatorApprovedHashes","inputs":[{"name":"","type":"address","internalType":"address"},{"name":"","type":"bytes32","internalType":"bytes32"}],"outputs":[{"name":"","type":"bool","internalType":"bool"}],"stateMutability":"view"},{"type":"function","name":"mapOperatorRegisterAgentsNonces","inputs":[{"name":"","type":"uint256","internalType":"uint256"}],"outputs":[{"name":"","type":"uint256","internalType":"uint256"}],"stateMutability":"view"},{"type":"function","name":"mapOperatorUnbondNonces","inputs":[{"name":"","type":"uint256","internalType":"uint256"}],"outputs":[{"name":"","type":"uint256","internalType":"uint256"}],"stateMutability":"view"},{"type":"function","name":"nameHash","inputs":[],"outputs":[{"name":"","type":"bytes32","internalType":"bytes32"}],"stateMutability":"view"},{"type":"function","name":"operatorApproveHash","inputs":[{"name":"hash","type":"bytes32","internalType":"bytes32"}],"outputs":[],"stateMutability":"nonpayable"},{"type":"function","name":"operatorWhitelist","inputs":[],"outputs":[{"name":"","type":"address","internalType":"address"}],"stateMutability":"view"},{"type":"function","name":"owner","inputs":[],"outputs":[{"name":"","type":"address","internalType":"address"}],"stateMutability":"view"},{"type":"function","name":"pause","inputs":[],"outputs":[],"stateMutability":"nonpayable"},{"type":"function","name":"paused","inputs":[],"outputs":[{"name":"","type":"bool","internalType":"bool"}],"stateMutability":"view"},{"type":"function","name":"registerAgents","inputs":[{"name":"serviceId","type":"uint256","internalType":"uint256"},{"name":"agentInstances","type":"address[]","internalType":"address[]"},{"name":"agentIds","type":"uint32[]","internalType":"uint32[]"}],"outputs":[{"name":"success","type":"bool","internalType":"bool"}],"stateMutability":"payable"},{"type":"function","name":"registerAgentsWithSignature","inputs":[{"name":"operator","type":"address","internalType":"address"},{"name":"serviceId","type":"uint256","internalType":"uint256"},{"name":"agentInstances","type":"address[]","internalType":"address[]"},{"name":"agentIds","type":"uint32[]","internalType":"uint32[]"},{"name":"signature","type":"bytes","internalType":"bytes"}],"outputs":[{"name":"success","type":"bool","internalType":"bool"}],"stateMutability":"payable"},{"type":"function","name":"serviceRegistry","inputs":[],"outputs":[{"name":"","type":"address","internalType":"address"}],"stateMutability":"view"},{"type":"function","name":"serviceRegistryTokenUtility","inputs":[],"outputs":[{"name":"","type":"address","internalType":"address"}],"stateMutability":"view"},{"type":"function","name":"setIdentityRegistryBridger","inputs":[{"name":"newIdentityRegistryBridger","type":"address","internalType":"address"}],"outputs":[],"stateMutability":"nonpayable"},{"type":"function","name":"setOperatorWhitelist","inputs":[{"name":"newOperatorWhitelist","type":"address","internalType":"address"}],"outputs":[],"stateMutability":"nonpayable"},{"type":"function","name":"terminate","inputs":[{"name":"serviceId","type":"uint256","internalType":"uint256"}],"outputs":[{"name":"success","type":"bool","internalType":"bool"},{"name":"refund","type":"uint256","internalType":"uint256"}],"stateMutability":"nonpayable"},{"type":"function","name":"unbond","inputs":[{"name":"serviceId","type":"uint256","internalType":"uint256"}],"outputs":[{"name":"success","type":"bool","internalType":"bool"},{"name":"refund","type":"uint256","internalType":"uint256"}],"stateMutability":"nonpayable"},{"type":"function","name":"unbondWithSignature","inputs":[{"name":"operator","type":"address","internalType":"address"},{"name":"serviceId","type":"uint256","internalType":"uint256"},{"name":"signature","type":"bytes","internalType":"bytes"}],"outputs":[{"name":"success","type":"bool","internalType":"bool"},{"name":"refund","type":"uint256","internalType":"uint256"}],"stateMutability":"nonpayable"},{"type":"function","name":"unpause","inputs":[],"outputs":[],"stateMutability":"nonpayable"},{"type":"function","name":"update","inputs":[{"name":"token","type":"address","internalType":"address"},{"name":"configHash","type":"bytes32","internalType":"bytes32"},{"name":"agentIds","type":"uint32[]","internalType":"uint32[]"},{"name":"agentParams","type":"tuple[]","internalType":"struct IService.AgentParams[]","components":[{"name":"slots","type":"uint32","internalType":"uint32"},{"name":"bond","type":"uint96","internalType":"uint96"}]},{"name":"threshold","type":"uint32","internalType":"uint32"},{"name":"serviceId","type":"uint256","internalType":"uint256"}],"outputs":[{"name":"success","type":"bool","internalType":"bool"}],"stateMutability":"nonpayable"},{"type":"function","name":"versionHash","inputs":[],"outputs":[{"name":"","type":"bytes32","internalType":"bytes32"}],"stateMutability":"view"},{"type":"event","name":"CreateMultisig","inputs":[{"name":"multisig","type":"address","indexed":true,"internalType":"address"}],"anonymous":false},{"type":"event","name":"IdentityRegistryBridgerUpdated","inputs":[{"name":"identityRegistryBridger","type":"address","indexed":true,"internalType":"address"}],"anonymous":false},{"type":"event","name":"ImplementationUpdated","inputs":[{"name":"implementation","type":"address","indexed":true,"internalType":"address"}],"anonymous":false},{"type":"event","name":"OperatorHashApproved","inputs":[{"name":"operator","type":"address","indexed":true,"internalType":"address"},{"name":"hash","type":"bytes32","indexed":false,"internalType":"bytes32"}],"anonymous":false},{"type":"event","name":"OperatorWhitelistUpdated","inputs":[{"name":"operatorWhitelist","type":"address","indexed":true,"internalType":"address"}],"anonymous":false},{"type":"event","name":"OwnerUpdated","inputs":[{"name":"owner","type":"address","indexed":true,"internalType":"address"}],"anonymous":false},{"type":"event","name":"Pause","inputs":[{"name":"owner","type":"address","indexed":true,"internalType":"address"}],"anonymous":false},{"type":"event","name":"RegisterAgentsWithSignatureExecuted","inputs":[{"name":"operator","type":"address","indexed":true,"internalType":"address"},{"name":"serviceId","type":"uint256","indexed":true,"internalType":"uint256"},{"name":"agentInstances","type":"address[]","indexed":false,"internalType":"address[]"},{"name":"agentIds","type":"uint32[]","indexed":false,"internalType":"uint32[]"}],"anonymous":false},{"type":"event","name":"UnbondWithSignatureExecuted","inputs":[{"name":"operator","type":"address","indexed":true,"internalType":"address"},{"name":"serviceId","type":"uint256","indexed":true,"internalType":"uint256"},{"name":"refund","type":"uint256","indexed":false,"internalType":"uint256"}],"anonymous":false},{"type":"event","name":"Unpause","inputs":[{"name":"owner","type":"address","indexed":true,"internalType":"address"}],"anonymous":false},{"type":"error","name":"AgentInstanceRegistered","inputs":[{"name":"operator","type":"address","internalType":"address"}]},{"type":"error","name":"AgentInstancesSlotsFilled","inputs":[{"name":"serviceId","type":"uint256","internalType":"uint256"}]},{"type":"error","name":"AgentNotFound","inputs":[{"name":"agentId","type":"uint256","internalType":"uint256"}]},{"type":"error","name":"AgentNotInService","inputs":[{"name":"agentId","type":"uint256","internalType":"uint256"},{"name":"serviceId","type":"uint256","internalType":"uint256"}]},{"type":"error","name":"AlreadyInitialized","inputs":[]},{"type":"error","name":"ComponentNotFound","inputs":[{"name":"componentId","type":"uint256","internalType":"uint256"}]},{"type":"error","name":"HashExists","inputs":[]},{"type":"error","name":"HashNotApproved","inputs":[{"name":"operator","type":"address","internalType":"address"},{"name":"msgHash","type":"bytes32","internalType":"bytes32"},{"name":"signature","type":"bytes","internalType":"bytes"}]},{"type":"error","name":"HashNotValidated","inputs":[{"name":"operator","type":"address","internalType":"address"},{"name":"msgHash","type":"bytes32","internalType":"bytes32"},{"name":"signature","type":"bytes","internalType":"bytes"}]},{"type":"error","name":"IncorrectAgentBondingValue","inputs":[{"name":"sent","type":"uint256","internalType":"uint256"},{"name":"expected","type":"uint256","internalType":"uint256"},{"name":"serviceId","type":"uint256","internalType":"uint256"}]},{"type":"error","name":"IncorrectRegistrationDepositValue","inputs":[{"name":"sent","type":"uint256","internalType":"uint256"},{"name":"expected","type":"uint256","internalType":"uint256"},{"name":"serviceId","type":"uint256","internalType":"uint256"}]},{"type":"error","name":"IncorrectSignatureLength","inputs":[{"name":"signature","type":"bytes","internalType":"bytes"},{"name":"provided","type":"uint256","internalType":"uint256"},{"name":"expected","type":"uint256","internalType":"uint256"}]},{"type":"error","name":"ManagerOnly","inputs":[{"name":"sender","type":"address","internalType":"address"},{"name":"manager","type":"address","internalType":"address"}]},{"type":"error","name":"OnlyOwnServiceMultisig","inputs":[{"name":"provided","type":"address","internalType":"address"},{"name":"expected","type":"address","internalType":"address"},{"name":"serviceId","type":"uint256","internalType":"uint256"}]},{"type":"error","name":"OperatorHasNoInstances","inputs":[{"name":"operator","type":"address","internalType":"address"},{"name":"serviceId","type":"uint256","internalType":"uint256"}]},{"type":"error","name":"Overflow","inputs":[{"name":"provided","type":"uint256","internalType":"uint256"},{"name":"max","type":"uint256","internalType":"uint256"}]},{"type":"error","name":"OwnerOnly","inputs":[{"name":"sender","type":"address","internalType":"address"},{"name":"owner","type":"address","internalType":"address"}]},{"type":"error","name":"Paused","inputs":[]},{"type":"error","name":"ReentrancyGuard","inputs":[]},{"type":"error","name":"ServiceMustBeInactive","inputs":[{"name":"serviceId","type":"uint256","internalType":"uint256"}]},{"type":"error","name":"TransferFailed","inputs":[{"name":"token","type":"address","internalType":"address"},{"name":"from","type":"address","internalType":"address"},{"name":"to","type":"address","internalType":"address"},{"name":"value","type":"uint256","internalType":"uint256"}]},{"type":"error","name":"UnauthorizedMultisig","inputs":[{"name":"multisig","type":"address","internalType":"address"}]},{"type":"error","name":"WrongAgentId","inputs":[{"name":"agentId","type":"uint256","internalType":"uint256"}]},{"type":"error","name":"WrongArrayLength","inputs":[{"name":"numValues1","type":"uint256","internalType":"uint256"},{"name":"numValues2","type":"uint256","internalType":"uint256"}]},{"type":"error","name":"WrongOperator","inputs":[{"name":"serviceId","type":"uint256","internalType":"uint256"}]},{"type":"error","name":"WrongOperatorAddress","inputs":[{"name":"provided","type":"address","internalType":"address"},{"name":"expected","type":"address","internalType":"address"}]},{"type":"error","name":"WrongServiceState","inputs":[{"name":"state","type":"uint256","internalType":"uint256"},{"name":"serviceId","type":"uint256","internalType":"uint256"}]},{"type":"error","name":"WrongThreshold","inputs":[{"name":"currentThreshold","type":"uint256","internalType":"uint256"},{"name":"minThreshold","type":"uint256","internalType":"uint256"},{"name":"maxThreshold","type":"uint256","internalType":"uint256"}]},{"type":"error","name":"ZeroAddress","inputs":[]},{"type":"error","name":"ZeroOperatorAddress","inputs":[]},{"type":"error","name":"ZeroValue","inputs":[]}],"bytecode":{"object":"0x610100604052348015610010575f5ffd5b5060405161374438038061374483398101604081905261002f916100fb565b604080518082018252601481527f4f4c41532053657276696365204d616e616765720000000000000000000000006020808301918252835180850190945260058452640312e322e360dc1b908401908152915190206080529051902060a0526001600160a01b03821615806100ab57506001600160a01b038116155b156100c95760405163d92e233d60e01b815260040160405180910390fd5b6001600160a01b0391821660c0521660e05261012c565b80516001600160a01b03811681146100f6575f5ffd5b919050565b5f5f6040838503121561010c575f5ffd5b610115836100e0565b9150610123602084016100e0565b90509250929050565b60805160a05160c05160e0516135216102235f395f818161045101528181610d9301528181611060015281816112b9015281816114af015281816117ff01528181611c8201528181611ed30152818161200301526124d701525f81816107d3015281816109bc01528181610a4201528181610c7f01528181610e1601528181610edc015281816110e9015281816111750152818161134e0152818161156e01528181611607015281816118aa01528181611bea01528181611e3a015281816120dd0152818161217a01528181612291015261244001525f818161033301526128bb01525f81816108bd015261289301526135215ff3fe6080604052600436106102c1575f3560e01c8063757b115611610170578063a6f9dae1116100d1578063e42cdd7c11610087578063f172a4ce11610062578063f172a4ce146108ac578063f5dcb7bb146108df578063ffa1ad7414610912575f5ffd5b8063e42cdd7c1461085a578063e5da075314610879578063ed24911d14610898575f5ffd5b8063cbf994f8116100b7578063cbf994f8146107f5578063d03ca40a14610814578063dc1d952514610827575f5ffd5b8063a6f9dae1146107a3578063cbcf252a146107c2575f5ffd5b80638da5cb5b11610126578063a2e2ad7e1161010c578063a2e2ad7e146106f5578063a3f4df7e1461072f578063a6a7187f14610784575f5ffd5b80638da5cb5b146106a457806394887911146106c2575f5ffd5b80638129fc1c116101565780638129fc1c146106515780638456cb59146106655780638a39fa1614610679575f5ffd5b8063757b1156146106135780637a828b2814610632575f5ffd5b806328f22342116102255780635405ecb9116101db57806359a1d184116101b657806359a1d184146105a25780635c975abb146105d557806364a98615146105f4575f5ffd5b80635405ecb91461051d57806356bda50714610557578063599be46f14610583575f5ffd5b80633f4ba83a1161020b5780633f4ba83a146104cb57806341b60677146104df5780634d5a58271461050a575f5ffd5b806328f22342146104735780633af5d04e14610492575f5ffd5b80631ee81fb51161027a57806324b963e71161026057806324b963e7146103eb57806327de9e321461040a5780632871405114610440575f5ffd5b80631ee81fb5146103a957806321561bfc146103cc575f5ffd5b8063152b5c0f116102aa578063152b5c0f1461032257806317a68dd8146103635780631878d1f114610382575f5ffd5b806307a3e0a8146102c55780630d0d57a8146102e6575b5f5ffd5b3480156102d0575f5ffd5b506102e46102df36600461290b565b610942565b005b3480156102f1575f5ffd5b50610305610300366004612a13565b61099a565b6040516001600160a01b0390911681526020015b60405180910390f35b34801561032d575f5ffd5b506103557f000000000000000000000000000000000000000000000000000000000000000081565b604051908152602001610319565b34801561036e575f5ffd5b506102e461037d366004612a68565b610b99565b34801561038d575f5ffd5b5061030573eeeeeeeeeeeeeeeeeeeeeeeeeeeeeeeeeeeeeeee81565b6103bc6103b7366004612b95565b610c5d565b6040519015158152602001610319565b3480156103d7575f5ffd5b50600454610305906001600160a01b031681565b3480156103f6575f5ffd5b506102e4610405366004612a68565b610faf565b348015610415575f5ffd5b5061042961042436600461290b565b611036565b604080519215158352602083019190915201610319565b34801561044b575f5ffd5b506103057f000000000000000000000000000000000000000000000000000000000000000081565b34801561047e575f5ffd5b5061042961048d366004612c3f565b611170565b34801561049d575f5ffd5b506103bc6104ac366004612c7e565b600360209081525f928352604080842090915290825290205460ff1681565b3480156104d6575f5ffd5b506102e4611419565b3480156104ea575f5ffd5b506103556104f936600461290b565b60026020525f908152604090205481565b6103bc61051836600461290b565b61148d565b348015610528575f5ffd5b50610355610537366004612c7e565b60a01b6001600160a01b03909116175f9081526001602052604090205490565b348015610562575f5ffd5b5061056b600181565b6040516001600160601b039091168152602001610319565b34801561058e575f5ffd5b506102e461059d366004612a68565b611685565b3480156105ad575f5ffd5b506103557fe39e69948a448ce9239ad71b908b6c5b46225f86ffa735b25a8cd6408031585581565b3480156105e0575f5ffd5b505f546103bc90600160a01b900460ff1681565b3480156105ff575f5ffd5b50600554610305906001600160a01b031681565b34801561061e575f5ffd5b5061035561062d366004612ca8565b61170c565b34801561063d575f5ffd5b5061042961064c36600461290b565b6117fa565b34801561065c575f5ffd5b506102e46118e1565b348015610670575f5ffd5b506102e461191c565b348015610684575f5ffd5b5061035561069336600461290b565b60016020525f908152604090205481565b3480156106af575f5ffd5b505f54610305906001600160a01b031681565b3480156106cd575f5ffd5b506103557f92b2008d2a99f26809ac9d1989fe92334aa84124767331997ba0eec16050ecf481565b348015610700575f5ffd5b5061035561070f366004612c7e565b60a01b6001600160a01b03909116175f9081526002602052604090205490565b34801561073a575f5ffd5b506107776040518060400160405280601481526020017f4f4c41532053657276696365204d616e6167657200000000000000000000000081525081565b6040516103199190612d72565b34801561078f575f5ffd5b5061035561079e366004612d84565b611996565b3480156107ae575f5ffd5b506102e46107bd366004612a68565b611a51565b3480156107cd575f5ffd5b506103057f000000000000000000000000000000000000000000000000000000000000000081565b348015610800575f5ffd5b506103bc61080f366004612e71565b611afd565b6103bc610822366004612f0d565b611f48565b348015610832575f5ffd5b506103557fde64b4c9fac43e1615e938b03573b078604f57b4d2e78d3a27d7b20ba017e12681565b348015610865575f5ffd5b50610355610874366004612f70565b612203565b348015610884575f5ffd5b506103bc610893366004612c7e565b6125bf565b3480156108a3575f5ffd5b506103556125ec565b3480156108b7575f5ffd5b506103557f000000000000000000000000000000000000000000000000000000000000000081565b3480156108ea575f5ffd5b506103557f8b73c3c69bb8fe3d512ecc4cf759cc79239f7b179b0ffacaa9a75d522b39400f81565b34801561091d575f5ffd5b50610777604051806040016040528060058152602001640312e322e360dc1b81525081565b335f818152600360209081526040808320858452825291829020805460ff1916600117905590518381527f85eb1f050732417c0566422b6004a6c5cbded9ded1a406de04060719af52a13a910160405180910390a250565b604051630846d5ff60e31b8152600481018490525f9081906001600160a01b037f00000000000000000000000000000000000000000000000000000000000000001690634236aff89060240160e060405180830381865afa158015610a01573d5f5f3e3d5ffd5b505050506040513d601f19601f82011682018060405250810190610a259190613015565b505060405163f908bc7760e01b8152939550506001600160a01b037f000000000000000000000000000000000000000000000000000000000000000016935063f908bc7792610a8092503391508990899089906004016130a5565b6020604051808303815f875af1158015610a9c573d5f5f3e3d5ffd5b505050506040513d601f19601f82011682018060405250810190610ac091906130db565b6005549092506001600160a01b031615801590610aef5750806001600160a01b0316826001600160a01b031614155b15610b5e5760055460405163398d910760e21b8152600481018790526001600160a01b03838116602483015284811660448301529091169063e636441c906064015f604051808303815f87803b158015610b47575f5ffd5b505af1158015610b59573d5f5f3e3d5ffd5b505050505b6040516001600160a01b038316907fec97633905b1dbe9773a7536e9a986dcf89803e1193934b7b6d76587c68beb40905f90a2509392505050565b5f546001600160a01b03163314610bdc575f5460405163521eb56d60e11b81523360048201526001600160a01b0390911660248201526044015b60405180910390fd5b6001600160a01b038116610c035760405163d92e233d60e01b815260040160405180910390fd5b7fe39e69948a448ce9239ad71b908b6c5b46225f86ffa735b25a8cd640803158558190556040516001600160a01b038216907f310ba5f1d2ed074b51e2eccd052a47ae9ab7c6b800d1fca3db3999d6a592ca03905f90a250565b6040516331a9108f60e11b8152600481018590525f9081906001600160a01b037f00000000000000000000000000000000000000000000000000000000000000001690636352211e90602401602060405180830381865afa158015610cc4573d5f5f3e3d5ffd5b505050506040513d601f19601f82011682018060405250810190610ce891906130db565b9050336001600160a01b03821614610d245760405163521eb56d60e11b81523360048201526001600160a01b0382166024820152604401610bd3565b60a086901b6001600160a01b038816175f8181526002602052604081205490610d518a858b8b8b8761170c565b9050610d5e8a82886125fa565b81610d688161310a565b5f858152600260205260408082208390555163dc4f8bc560e01b815291945091506001600160a01b037f0000000000000000000000000000000000000000000000000000000000000000169063dc4f8bc590610dcc908e908e908d90600401613162565b6020604051808303815f875af1158015610de8573d5f5f3e3d5ffd5b505050506040513d601f19601f82011682018060405250810190610e0c91906131a6565b90508015610ec5577f00000000000000000000000000000000000000000000000000000000000000006001600160a01b031663dff7672460016001600160601b03168b51610e5a91906131bf565b8d8d8d8d6040518663ffffffff1660e01b8152600401610e7d949392919061320f565b60206040518083038185885af1158015610e99573d5f5f3e3d5ffd5b50505050506040513d601f19601f82011682018060405250810190610ebe91906131a6565b9550610f5d565b6040516337fdd9c960e21b81526001600160a01b037f0000000000000000000000000000000000000000000000000000000000000000169063dff76724903490610f19908f908f908f908f9060040161320f565b60206040518083038185885af1158015610f35573d5f5f3e3d5ffd5b50505050506040513d601f19601f82011682018060405250810190610f5a91906131a6565b95505b898b6001600160a01b03167f47a2897a8312375227b416439e2cb5be833bfc439617a187a197ccda818c109f8b8b604051610f99929190613253565b60405180910390a3505050505095945050505050565b5f546001600160a01b03163314610fed575f5460405163521eb56d60e11b81523360048201526001600160a01b039091166024820152604401610bd3565b600580546001600160a01b0319166001600160a01b0383169081179091556040517fea74988d68ed8a3b5989f0b838ed41f768306e58bb135636727a93a4e664bc89905f90a250565b60405163161e984960e31b8152336004820152602481018290525f90819081906001600160a01b037f0000000000000000000000000000000000000000000000000000000000000000169063b0f4c248906044016020604051808303815f875af11580156110a6573d5f5f3e3d5ffd5b505050506040513d601f19601f820116820180604052508101906110ca9190613277565b6040516352e82ce560e11b8152336004820152602481018690529091507f00000000000000000000000000000000000000000000000000000000000000006001600160a01b03169063a5d059ca906044015b60408051808303815f875af1158015611137573d5f5f3e3d5ffd5b505050506040513d601f19601f8201168201806040525081019061115b919061328e565b9093509150801561116a578091505b50915091565b5f5f5f7f00000000000000000000000000000000000000000000000000000000000000006001600160a01b0316636352211e866040518263ffffffff1660e01b81526004016111c191815260200190565b602060405180830381865afa1580156111dc573d5f5f3e3d5ffd5b505050506040513d601f19601f8201168201806040525081019061120091906130db565b9050336001600160a01b0382161461123c5760405163521eb56d60e11b81523360048201526001600160a01b0382166024820152604401610bd3565b60a085901b6001600160a01b038716175f818152600160205260408120549061126789858a85611996565b90506112748982896125fa565b8161127e8161310a565b5f858152600160205260408082208390555163161e984960e31b81526001600160a01b038d81166004830152602482018d90529295509092507f00000000000000000000000000000000000000000000000000000000000000009091169063b0f4c248906044016020604051808303815f875af1158015611301573d5f5f3e3d5ffd5b505050506040513d601f19601f820116820180604052508101906113259190613277565b6040516352e82ce560e11b81526001600160a01b038c81166004830152602482018c90529192507f00000000000000000000000000000000000000000000000000000000000000009091169063a5d059ca9060440160408051808303815f875af1158015611395573d5f5f3e3d5ffd5b505050506040513d601f19601f820116820180604052508101906113b9919061328e565b909750955080156113c8578095505b888a6001600160a01b03167f72cb3ccaf579e41be2521a188121c7a406c7b33d36cf08b8529e0bddf4f3c9ee8860405161140491815260200190565b60405180910390a35050505050935093915050565b5f546001600160a01b03163314611457575f5460405163521eb56d60e11b81523360048201526001600160a01b039091166024820152604401610bd3565b5f805460ff60a01b1916815560405133917faeb196d352664784d1900b0e7414a8face7d29f4dae8c4b0cf68ed477423bbf491a2565b60405163542db44960e01b8152600481018290525f9081906001600160a01b037f0000000000000000000000000000000000000000000000000000000000000000169063542db449906024016020604051808303815f875af11580156114f5573d5f5f3e3d5ffd5b505050506040513d601f19601f8201168201806040525081019061151991906131a6565b905080156115eb573460011461155257604051631c30abbb60e31b81523460048201526001602482015260448101849052606401610bd3565b60405163388fdbed60e21b8152336004820152602481018490527f00000000000000000000000000000000000000000000000000000000000000006001600160a01b03169063e23f6fb49060019060440160206040518083038185885af11580156115bf573d5f5f3e3d5ffd5b50505050506040513d601f19601f820116820180604052508101906115e491906131a6565b915061167f565b60405163388fdbed60e21b8152336004820152602481018490527f00000000000000000000000000000000000000000000000000000000000000006001600160a01b03169063e23f6fb490349060440160206040518083038185885af1158015611657573d5f5f3e3d5ffd5b50505050506040513d601f19601f8201168201806040525081019061167c91906131a6565b91505b50919050565b5f546001600160a01b031633146116c3575f5460405163521eb56d60e11b81523360048201526001600160a01b039091166024820152604401610bd3565b600480546001600160a01b0319166001600160a01b0383169081179091556040517ff8e76e8a7c35558598a944d509f1ed32b104e77b1098ef1dfa5b97b86b09df8f905f90a250565b5f611715612867565b7fde64b4c9fac43e1615e938b03573b078604f57b4d2e78d3a27d7b20ba017e126888888888860405160200161174c929190613253565b60408051601f198184030181528282528051602091820120908301969096526001600160a01b0394851690820152929091166060830152608082015260a081019190915260c0810184905260e001604051602081830303815290604052805190602001206040516020016117d792919061190160f01b81526002810192909252602282015260420190565b6040516020818303038152906040528051906020012090505b9695505050505050565b5f5f5f7f00000000000000000000000000000000000000000000000000000000000000006001600160a01b03166325e1afc3856040518263ffffffff1660e01b815260040161184b91815260200190565b6020604051808303815f875af1158015611867573d5f5f3e3d5ffd5b505050506040513d601f19601f8201168201806040525081019061188b9190613277565b60405163ccc9305d60e01b8152336004820152602481018690529091507f00000000000000000000000000000000000000000000000000000000000000006001600160a01b03169063ccc9305d9060440161111c565b5f546001600160a01b0316156119095760405162dc149f60e41b815260040160405180910390fd5b5f80546001600160a01b03191633179055565b5f546001600160a01b0316331461195a575f5460405163521eb56d60e11b81523360048201526001600160a01b039091166024820152604401610bd3565b5f805460ff60a01b1916600160a01b17815560405133917f5ee71a369c8672edded508e624ffc9257fa1ae6886ef32905c18e60196bca39991a2565b5f61199f612867565b604080517f92b2008d2a99f26809ac9d1989fe92334aa84124767331997ba0eec16050ecf460208201526001600160a01b038089169282019290925290861660608201526080810185905260a0810184905260c00160405160208183030381529060405280519060200120604051602001611a3192919061190160f01b81526002810192909252602282015260420190565b604051602081830303815290604052805190602001209050949350505050565b5f546001600160a01b03163314611a8f575f5460405163521eb56d60e11b81523360048201526001600160a01b039091166024820152604401610bd3565b6001600160a01b038116611ab65760405163d92e233d60e01b815260040160405180910390fd5b5f80546001600160a01b0319166001600160a01b038316908117825560405190917f4ffd725fc4a22075e9ec71c59edf9c38cdeb588a91b24fc5b61388c5be41282b91a250565b5f6001600160a01b038716611b255760405163d92e233d60e01b815260040160405180910390fd5b835173eeeeeeeeeeeeeeeeeeeeeeeeeeeeeeeeeeeeeeed196001600160a01b03891601611ce6575f5b81811015611bd2575f868281518110611b6957611b696132b8565b60200260200101515f015163ffffffff16118015611bac5750858181518110611b9457611b946132b8565b6020026020010151602001516001600160601b03165f145b15611bca57604051637c946ed760e01b815260040160405180910390fd5b600101611b4e565b5060405163197f329f60e31b81526001600160a01b037f0000000000000000000000000000000000000000000000000000000000000000169063cbf994f890611c299033908b908b908b908b908b90600401613317565b6020604051808303815f875af1158015611c45573d5f5f3e3d5ffd5b505050506040513d601f19601f82011682018060405250810190611c6991906131a6565b604051630be6cc4b60e31b8152600481018590529092507f00000000000000000000000000000000000000000000000000000000000000006001600160a01b031690635f366258906024015f604051808303815f87803b158015611ccb575f5ffd5b505af1158015611cdd573d5f5f3e3d5ffd5b50505050611f3d565b5f8167ffffffffffffffff811115611d0057611d00612939565b604051908082528060200260200182016040528015611d29578160200160208202803683370190505b5090505f5b82811015611e22575f878281518110611d4957611d496132b8565b60200260200101515f015163ffffffff161115611e1a57868181518110611d7257611d726132b8565b6020026020010151602001516001600160601b03165f03611da657604051637c946ed760e01b815260040160405180910390fd5b868181518110611db857611db86132b8565b6020026020010151602001516001600160601b0316828281518110611ddf57611ddf6132b8565b6020026020010181815250506001878281518110611dff57611dff6132b8565b6020908102919091018101516001600160601b039092169101525b600101611d2e565b5060405163197f329f60e31b81526001600160a01b037f0000000000000000000000000000000000000000000000000000000000000000169063cbf994f890611e799033908c908c908c908c908c90600401613317565b6020604051808303815f875af1158015611e95573d5f5f3e3d5ffd5b505050506040513d601f19601f82011682018060405250810190611eb991906131a6565b6040516338f3a6a160e21b81529093506001600160a01b037f0000000000000000000000000000000000000000000000000000000000000000169063e3ce9a8490611f0e9087908d908c90879060040161336c565b5f604051808303815f87803b158015611f25575f5ffd5b505af1158015611f37573d5f5f3e3d5ffd5b50505050505b509695505050505050565b6004545f906001600160a01b031615611fea57600480546040516356a7b60760e01b81529182018690523360248301526001600160a01b0316906356a7b60790604401602060405180830381865afa158015611fa6573d5f5f3e3d5ffd5b505050506040513d601f19601f82011682018060405250810190611fca91906131a6565b611fea576040516322ddebd960e21b815260048101859052602401610bd3565b60405163dc4f8bc560e01b81525f906001600160a01b037f0000000000000000000000000000000000000000000000000000000000000000169063dc4f8bc59061203c90339089908890600401613162565b6020604051808303815f875af1158015612058573d5f5f3e3d5ffd5b505050506040513d601f19601f8201168201806040525081019061207c91906131a6565b905080156121635783515f90612094906001906131bf565b90508034146120c657604051637ebbcab960e11b81523460048201526024810182905260448101879052606401610bd3565b6040516337fdd9c960e21b81526001600160a01b037f0000000000000000000000000000000000000000000000000000000000000000169063dff7672490839061211a9033908b908b908b9060040161320f565b60206040518083038185885af1158015612136573d5f5f3e3d5ffd5b50505050506040513d601f19601f8201168201806040525081019061215b91906131a6565b9250506121fb565b6040516337fdd9c960e21b81526001600160a01b037f0000000000000000000000000000000000000000000000000000000000000000169063dff767249034906121b79033908a908a908a9060040161320f565b60206040518083038185885af11580156121d3573d5f5f3e3d5ffd5b50505050506040513d601f19601f820116820180604052508101906121f891906131a6565b91505b509392505050565b5f8054600160a01b900460ff161561222e576040516313d0ff5960e31b815260040160405180910390fd5b6001600160a01b0386166122555760405163d92e233d60e01b815260040160405180910390fd5b73eeeeeeeeeeeeeeeeeeeeeeeeeeeeeeeeeeeeeeed196001600160a01b038716016123155760405163fbdeb3d760e01b81526001600160a01b037f0000000000000000000000000000000000000000000000000000000000000000169063fbdeb3d7906122ce908a9089908990899089906004016133d6565b6020604051808303815f875af11580156122ea573d5f5f3e3d5ffd5b505050506040513d601f19601f8201168201806040525081019061230e9190613277565b9050612542565b82515f8167ffffffffffffffff81111561233157612331612939565b60405190808252806020026020018201604052801561235a578160200160208202803683370190505b5090505f5b8281101561242857858181518110612379576123796132b8565b6020026020010151602001516001600160601b03165f036123ad57604051637c946ed760e01b815260040160405180910390fd5b8581815181106123bf576123bf6132b8565b6020026020010151602001516001600160601b03168282815181106123e6576123e66132b8565b6020026020010181815250506001868281518110612406576124066132b8565b6020908102919091018101516001600160601b0390921691015260010161235f565b5060405163fbdeb3d760e01b81526001600160a01b037f0000000000000000000000000000000000000000000000000000000000000000169063fbdeb3d79061247d908c908b908b908b908b906004016133d6565b6020604051808303815f875af1158015612499573d5f5f3e3d5ffd5b505050506040513d601f19601f820116820180604052508101906124bd9190613277565b6040516338f3a6a160e21b81529093506001600160a01b037f0000000000000000000000000000000000000000000000000000000000000000169063e3ce9a84906125129086908c908b90879060040161336c565b5f604051808303815f87803b158015612529575f5ffd5b505af115801561253b573d5f5f3e3d5ffd5b5050505050505b6005546001600160a01b0316156117f057600554604051637903ab2760e11b8152600481018390526001600160a01b039091169063f207564e906024016020604051808303815f875af115801561259b573d5f5f3e3d5ffd5b505050506040513d601f19601f82011682018060405250810190611f3d9190613277565b6001600160a01b0382165f90815260036020908152604080832084845290915290205460ff165b92915050565b5f6125f5612867565b905090565b6001600160a01b0383166126215760405163e63f571f60e01b815260040160405180910390fd5b805160411461264a578051604051631d9f5a5f60e01b8152610bd3918391604190600401613428565b5f8160408151811061265e5761265e6132b8565b016020015160f81c905060048110801561268057506001600160a01b0384163b155b1561269357612690601b8261344c565b90505b602082015160408301515f60ff84166004036127655750604051630b135d3f60e11b80825283916001600160a01b03831690631626ba7e906126db908a908a90600401613465565b602060405180830381865afa1580156126f6573d5f5f3e3d5ffd5b505050506040513d601f19601f8201168201806040525081019061271a9190613485565b7fffffffff0000000000000000000000000000000000000000000000000000000016146127605780868660405163694d54dd60e01b8152600401610bd3939291906134c4565b612819565b8360ff166005036127bc57506001600160a01b0382165f908152600360209081526040808320888452909152902054829060ff16612760578086866040516312cf832560e01b8152600401610bd3939291906134c4565b604080515f81526020810180835288905260ff861691810191909152606081018490526080810183905260019060a0016020604051602081039080840390855afa15801561280c573d5f5f3e3d5ffd5b5050506020604051035190505b866001600160a01b0316816001600160a01b03161461285e5760405163a806216d60e01b81526001600160a01b03808316600483015288166024820152604401610bd3565b50505050505050565b604080517f8b73c3c69bb8fe3d512ecc4cf759cc79239f7b179b0ffacaa9a75d522b39400f60208201527f0000000000000000000000000000000000000000000000000000000000000000918101919091527f000000000000000000000000000000000000000000000000000000000000000060608201524660808201523060a08201525f9060c00160405160208183030381529060405280519060200120905090565b5f6020828403121561291b575f5ffd5b5035919050565b6001600160a01b0381168114612936575f5ffd5b50565b634e487b7160e01b5f52604160045260245ffd5b6040805190810167ffffffffffffffff8111828210171561297057612970612939565b60405290565b604051601f8201601f1916810167ffffffffffffffff8111828210171561299f5761299f612939565b604052919050565b5f82601f8301126129b6575f5ffd5b813567ffffffffffffffff8111156129d0576129d0612939565b6129e3601f8201601f1916602001612976565b8181528460208386010111156129f7575f5ffd5b816020850160208301375f918101602001919091529392505050565b5f5f5f60608486031215612a25575f5ffd5b833592506020840135612a3781612922565b9150604084013567ffffffffffffffff811115612a52575f5ffd5b612a5e868287016129a7565b9150509250925092565b5f60208284031215612a78575f5ffd5b8135612a8381612922565b9392505050565b5f67ffffffffffffffff821115612aa357612aa3612939565b5060051b60200190565b5f82601f830112612abc575f5ffd5b8135612acf612aca82612a8a565b612976565b8082825260208201915060208360051b860101925085831115612af0575f5ffd5b602085015b83811015612b16578035612b0881612922565b835260209283019201612af5565b5095945050505050565b63ffffffff81168114612936575f5ffd5b5f82601f830112612b40575f5ffd5b8135612b4e612aca82612a8a565b8082825260208201915060208360051b860101925085831115612b6f575f5ffd5b602085015b83811015612b16578035612b8781612b20565b835260209283019201612b74565b5f5f5f5f5f60a08688031215612ba9575f5ffd5b8535612bb481612922565b945060208601359350604086013567ffffffffffffffff811115612bd6575f5ffd5b612be288828901612aad565b935050606086013567ffffffffffffffff811115612bfe575f5ffd5b612c0a88828901612b31565b925050608086013567ffffffffffffffff811115612c26575f5ffd5b612c32888289016129a7565b9150509295509295909350565b5f5f5f60608486031215612c51575f5ffd5b8335612c5c81612922565b925060208401359150604084013567ffffffffffffffff811115612a52575f5ffd5b5f5f60408385031215612c8f575f5ffd5b8235612c9a81612922565b946020939093013593505050565b5f5f5f5f5f5f60c08789031215612cbd575f5ffd5b8635612cc881612922565b95506020870135612cd881612922565b945060408701359350606087013567ffffffffffffffff811115612cfa575f5ffd5b612d0689828a01612aad565b935050608087013567ffffffffffffffff811115612d22575f5ffd5b612d2e89828a01612b31565b9699959850939692959460a09093013593505050565b5f81518084528060208401602086015e5f602082860101526020601f19601f83011685010191505092915050565b602081525f612a836020830184612d44565b5f5f5f5f60808587031215612d97575f5ffd5b8435612da281612922565b93506020850135612db281612922565b93969395505050506040820135916060013590565b6001600160601b0381168114612936575f5ffd5b5f82601f830112612dea575f5ffd5b8135612df8612aca82612a8a565b8082825260208201915060208360061b860101925085831115612e19575f5ffd5b602085015b83811015612b165760408188031215612e35575f5ffd5b612e3d61294d565b8135612e4881612b20565b81526020820135612e5881612dc7565b6020828101919091529084529290920191604001612e1e565b5f5f5f5f5f5f60c08789031215612e86575f5ffd5b8635612e9181612922565b955060208701359450604087013567ffffffffffffffff811115612eb3575f5ffd5b612ebf89828a01612b31565b945050606087013567ffffffffffffffff811115612edb575f5ffd5b612ee789828a01612ddb565b9350506080870135612ef881612b20565b9598949750929591949360a090920135925050565b5f5f5f60608486031215612f1f575f5ffd5b83359250602084013567ffffffffffffffff811115612f3c575f5ffd5b612f4886828701612aad565b925050604084013567ffffffffffffffff811115612f64575f5ffd5b612a5e86828701612b31565b5f5f5f5f5f5f60c08789031215612f85575f5ffd5b8635612f9081612922565b95506020870135612fa081612922565b945060408701359350606087013567ffffffffffffffff811115612fc2575f5ffd5b612fce89828a01612b31565b935050608087013567ffffffffffffffff811115612fea575f5ffd5b612ff689828a01612ddb565b92505060a087013561300781612b20565b809150509295509295509295565b5f5f5f5f5f5f5f60e0888a03121561302b575f5ffd5b875161303681612dc7565b602089015190975061304781612922565b604089015160608a0151919750955061305f81612b20565b608089015190945061307081612b20565b60a089015190935061308181612b20565b60c089015190925060068110613095575f5ffd5b8091505092959891949750929550565b6001600160a01b03851681528360208201526001600160a01b0383166040820152608060608201525f6117f06080830184612d44565b5f602082840312156130eb575f5ffd5b8151612a8381612922565b634e487b7160e01b5f52601160045260245ffd5b5f6001820161311b5761311b6130f6565b5060010190565b5f8151808452602084019350602083015f5b8281101561315857815163ffffffff16865260209586019590910190600101613134565b5093949350505050565b6001600160a01b0384168152826020820152606060408201525f6131896060830184613122565b95945050505050565b805180151581146131a1575f5ffd5b919050565b5f602082840312156131b6575f5ffd5b612a8382613192565b80820281158282048414176125e6576125e66130f6565b5f8151808452602084019350602083015f5b828110156131585781516001600160a01b03168652602095860195909101906001016131e8565b6001600160a01b0385168152836020820152608060408201525f61323660808301856131d6565b82810360608401526132488185613122565b979650505050505050565b604081525f61326560408301856131d6565b82810360208401526121f88185613122565b5f60208284031215613287575f5ffd5b5051919050565b5f5f6040838503121561329f575f5ffd5b6132a883613192565b6020939093015192949293505050565b634e487b7160e01b5f52603260045260245ffd5b5f8151808452602084019350602083015f5b82811015613158578151805163ffffffff1687526020908101516001600160601b031681880152604090960195909101906001016132de565b6001600160a01b038716815285602082015260c060408201525f61333e60c0830187613122565b828103606084015261335081876132cc565b63ffffffff959095166080840152505060a00152949350505050565b8481526001600160a01b0384166020820152608060408201525f6133936080830185613122565b8281036060840152835180825260208086019201905f5b818110156133c85783518352602093840193909201916001016133aa565b509098975050505050505050565b6001600160a01b038616815284602082015260a060408201525f6133fd60a0830186613122565b828103606084015261340f81866132cc565b91505063ffffffff831660808301529695505050505050565b606081525f61343a6060830186612d44565b60208301949094525060400152919050565b60ff81811683821601908111156125e6576125e66130f6565b828152604060208201525f61347d6040830184612d44565b949350505050565b5f60208284031215613495575f5ffd5b81517fffffffff0000000000000000000000000000000000000000000000000000000081168114612a83575f5ffd5b6001600160a01b0384168152826020820152606060408201525f6131896060830184612d4456fea2646970667358221220823a10640dde07fe66ba62d379813e220d89d041d15f17e48ae09a954224f95a64736f6c634300081e0033","linkReferences":{}},"methodIdentifiers":{"BOND_WRAPPER()":"56bda507","DOMAIN_SEPARATOR_TYPE_HASH()":"f5dcb7bb","ETH_TOKEN_ADDRESS()":"1878d1f1","NAME()":"a3f4df7e","PROXY_SERVICE_MANAGER()":"59a1d184","REGISTER_AGENTS_TYPE_HASH()":"dc1d9525","UNBOND_TYPE_HASH()":"94887911","VERSION()":"ffa1ad74","activateRegistration(uint256)":"4d5a5827","changeImplementation(address)":"17a68dd8","changeOwner(address)":"a6f9dae1","create(address,address,bytes32,uint32[],(uint32,uint96)[],uint32)":"e42cdd7c","deploy(uint256,address,bytes)":"0d0d57a8","getDomainSeparator()":"ed24911d","getOperatorRegisterAgentsNonce(address,uint256)":"a2e2ad7e","getOperatorUnbondNonce(address,uint256)":"5405ecb9","getRegisterAgentsHash(address,address,uint256,address[],uint32[],uint256)":"757b1156","getUnbondHash(address,address,uint256,uint256)":"a6a7187f","identityRegistryBridger()":"64a98615","initialize()":"8129fc1c","isOperatorHashApproved(address,bytes32)":"e5da0753","mapOperatorApprovedHashes(address,bytes32)":"3af5d04e","mapOperatorRegisterAgentsNonces(uint256)":"41b60677","mapOperatorUnbondNonces(uint256)":"8a39fa16","nameHash()":"f172a4ce","operatorApproveHash(bytes32)":"07a3e0a8","operatorWhitelist()":"21561bfc","owner()":"8da5cb5b","pause()":"8456cb59","paused()":"5c975abb","registerAgents(uint256,address[],uint32[])":"d03ca40a","registerAgentsWithSignature(address,uint256,address[],uint32[],bytes)":"1ee81fb5","serviceRegistry()":"cbcf252a","serviceRegistryTokenUtility()":"28714051","setIdentityRegistryBridger(address)":"24b963e7","setOperatorWhitelist(address)":"599be46f","terminate(uint256)":"7a828b28","unbond(uint256)":"27de9e32","unbondWithSignature(address,uint256,bytes)":"28f22342","unpause()":"3f4ba83a","update(address,bytes32,uint32[],(uint32,uint96)[],uint32,uint256)":"cbf994f8","versionHash()":"152b5c0f"},"id":7}