{"abi":[{"type":"constructor","inputs":[{"name":"_serviceRegistry","type":"address","internalType":"address"},{"name":"_serviceRegistryTokenUtility","type":"address","internalType":"address"}],"stateMutability":"nonpayable"},{"type":"function","name":"BOND_WRAPPER","inputs":[],"outputs":[{"name":"","type":"uint96","internalType":"uint96"}],"stateMutability":"view"},{"type":"function","name":"DOMAIN_SEPARATOR_TYPE_HASH","inputs":[],"outputs":[{"name":"","type":"bytes32","internalType":"bytes32"}],"stateMutability":"view"},{"type":"function","name":"ETH_TOKEN_ADDRESS","inputs":[],"outputs":[{"name":"","type":"address","internalType":"address"}],"stateMutability":"view"},{"type":"function","name":"NAME","inputs":[],"outputs":[{"name":"","type":"string","internalType":"string"}],"stateMutability":"view"},{"type":"function","name":"PROXY_SERVICE_MANAGER","inputs":[],"outputs":[{"name":"","type":"bytes32","internalType":"bytes32"}],"stateMutability":"view"},{"type":"function","name":"REGISTER_AGENTS_TYPE_HASH","inputs":[],"outputs":[{"name":"","type":"bytes32","internalType":"bytes32"}],"stateMutability":"view"},{"type":"function","name":"UNBOND_TYPE_HASH","inputs":[],"outputs":[{"name":"","type":"bytes32","internalType":"bytes32"}],"stateMutability":"view"},{"type":"function","name":"VERSION","inputs":[],"outputs":[{"name":"","type":"string","internalType":"string"}],"stateMutability":"view"},{"type":"function","name":"activateRegistration","inputs":[{"name":"serviceId","type":"uint256","internalType":"uint256"}],"outputs":[{"name":"success","type":"bool","internalType":"bool"}],"stateMutability":"payable"},{"type":"function","name":"changeImplementation","inputs":[{"name":"implementation","type":"address","internalType":"address"}],"outputs":[],"stateMutability":"nonpayable"},{"type":"function","name":"changeOwner","inputs":[{"name":"newOwner","type":"address","internalType":"address"}],"outputs":[],"stateMutability":"nonpayable"},{"type":"function","name":"create","inputs":[{"name":"serviceOwner","type":"address","internalType":"address"},{"name":"token","type":"address","internalType":"address"},{"name":"configHash","type":"bytes32","internalType":"bytes32"},{"name":"agentIds","type":"uint32[]","internalType":"uint32[]"},{"name":"agentParams","type":"tuple[]","internalType":"struct IService.AgentParams[]","components":[{"name":"slots","type":"uint32","internalType":"uint32"},{"name":"bond","type":"uint96","internalType":"uint96"}]},{"name":"threshold","type":"uint32","internalType":"uint32"}],"outputs":[{"name":"serviceId","type":"uint256","internalType":"uint256"}],"stateMutability":"nonpayable"},{"type":"function","name":"deploy","inputs":[{"name":"serviceId","type":"uint256","internalType":"uint256"},{"name":"multisigImplementation","type":"address","internalType":"address"},{"name":"data","type":"bytes","internalType":"bytes"}],"outputs":[{"name":"multisig","type":"address","internalType":"address"}],"stateMutability":"nonpayable"},{"type":"function","name":"getDomainSeparator","inputs":[],"outputs":[{"name":"","type":"bytes32","internalType":"bytes32"}],"stateMutability":"view"},{"type":"function","name":"getOperatorRegisterAgentsNonce","inputs":[{"name":"operator","type":"address","internalType":"address"},{"name":"serviceId","type":"uint256","internalType":"uint256"}],"outputs":[{"name":"nonce","type":"uint256","internalType":"uint256"}],"stateMutability":"view"},{"type":"function","name":"getOperatorUnbondNonce","inputs":[{"name":"operator","type":"address","internalType":"address"},{"name":"serviceId","type":"uint256","internalType":"uint256"}],"outputs":[{"name":"nonce","type":"uint256","internalType":"uint256"}],"stateMutability":"view"},{"type":"function","name":"getRegisterAgentsHash","inputs":[{"name":"operator","type":"address","internalType":"address"},{"name":"serviceOwner","type":"address","internalType":"address"},{"name":"serviceId","type":"uint256","internalType":"uint256"},{"name":"agentInstances","type":"address[]","internalType":"address[]"},{"name":"agentIds","type":"uint32[]","internalType":"uint32[]"},{"name":"nonce","type":"uint256","internalType":"uint256"}],"outputs":[{"name":"","type":"bytes32","internalType":"bytes32"}],"stateMutability":"view"},{"type":"function","name":"getUnbondHash","inputs":[{"name":"operator","type":"address","internalType":"address"},{"name":"serviceOwner","type":"address","internalType":"address"},{"name":"serviceId","type":"uint256","internalType":"uint256"},{"name":"nonce","type":"uint256","internalType":"uint256"}],"outputs":[{"name":"","type":"bytes32","internalType":"bytes32"}],"stateMutability":"view"},{"type":"function","name":"identityRegistryBridger","inputs":[],"outputs":[{"name":"","type":"address","internalType":"address"}],"stateMutability":"view"},{"type":"function","name":"initialize","inputs":[],"outputs":[],"stateMutability":"nonpayable"},{"type":"function","name":"isOperatorHashApproved","inputs":[{"name":"operator","type":"address","internalType":"address"},{"name":"hash","type":"bytes32","internalType":"bytes32"}],"outputs":[{"name":"","type":"bool","internalType":"bool"}],"stateMutability":"view"},{"type":"function","name":"mapOperatorApprovedHashes","inputs":[{"name":"","type":"address","internalType":"address"},{"name":"","type":"bytes32","internalType":"bytes32"}],"outputs":[{"name":"","type":"bool","internalType":"bool"}],"stateMutability":"view"},{"type":"function","name":"mapOperatorRegisterAgentsNonces","inputs":[{"name":"","type":"uint256","internalType":"uint256"}],"outputs":[{"name":"","type":"uint256","internalType":"uint256"}],"stateMutability":"view"},{"type":"function","name":"mapOperatorUnbondNonces","inputs":[{"name":"","type":"uint256","internalType":"uint256"}],"outputs":[{"name":"","type":"uint256","internalType":"uint256"}],"stateMutability":"view"},{"type":"function","name":"nameHash","inputs":[],"outputs":[{"name":"","type":"bytes32","internalType":"bytes32"}],"stateMutability":"view"},{"type":"function","name":"operatorApproveHash","inputs":[{"name":"hash","type":"bytes32","internalType":"bytes32"}],"outputs":[],"stateMutability":"nonpayable"},{"type":"function","name":"operatorWhitelist","inputs":[],"outputs":[{"name":"","type":"address","internalType":"address"}],"stateMutability":"view"},{"type":"function","name":"owner","inputs":[],"outputs":[{"name":"","type":"address","internalType":"address"}],"stateMutability":"view"},{"type":"function","name":"pause","inputs":[],"outputs":[],"stateMutability":"nonpayable"},{"type":"function","name":"paused","inputs":[],"outputs":[{"name":"","type":"bool","internalType":"bool"}],"stateMutability":"view"},{"type":"function","name":"registerAgents","inputs":[{"name":"serviceId","type":"uint256","internalType":"uint256"},{"name":"agentInstances","type":"address[]","internalType":"address[]"},{"name":"agentIds","type":"uint32[]","internalType":"uint32[]"}],"outputs":[{"name":"success","type":"bool","internalType":"bool"}],"stateMutability":"payable"},{"type":"function","name":"registerAgentsWithSignature","inputs":[{"name":"operator","type":"address","internalType":"address"},{"name":"serviceId","type":"uint256","internalType":"uint256"},{"name":"agentInstances","type":"address[]","internalType":"address[]"},{"name":"agentIds","type":"uint32[]","internalType":"uint32[]"},{"name":"signature","type":"bytes","internalType":"bytes"}],"outputs":[{"name":"success","type":"bool","internalType":"bool"}],"stateMutability":"payable"},{"type":"function","name":"serviceRegistry","inputs":[],"outputs":[{"name":"","type":"address","internalType":"address"}],"stateMutability":"view"},{"type":"function","name":"serviceRegistryTokenUtility","inputs":[],"outputs":[{"name":"","type":"address","internalType":"address"}],"stateMutability":"view"},{"type":"function","name":"setIdentityRegistryBridger","inputs":[{"name":"newIdentityRegistryBridger","type":"address","internalType":"address"}],"outputs":[],"stateMutability":"nonpayable"},{"type":"function","name":"setOperatorWhitelist","inputs":[{"name":"newOperatorWhitelist","type":"address","internalType":"address"}],"outputs":[],"stateMutability":"nonpayable"},{"type":"function","name":"terminate","inputs":[{"name":"serviceId","type":"uint256","internalType":"uint256"}],"outputs":[{"name":"success","type":"bool","internalType":"bool"},{"name":"refund","type":"uint256","internalType":"uint256"}],"stateMutability":"nonpayable"},{"type":"function","name":"unbond","inputs":[{"name":"serviceId","type":"uint256","internalType":"uint256"}],"outputs":[{"name":"success","type":"bool","internalType":"bool"},{"name":"refund","type":"uint256","internalType":"uint256"}],"stateMutability":"nonpayable"},{"type":"function","name":"unbondWithSignature","inputs":[{"name":"operator","type":"address","internalType":"address"},{"name":"serviceId","type":"uint256","internalType":"uint256"},{"name":"signature","type":"bytes","internalType":"bytes"}],"outputs":[{"name":"success","type":"bool","internalType":"bool"},{"name":"refund","type":"uint256","internalType":"uint256"}],"stateMutability":"nonpayable"},{"type":"function","name":"unpause","inputs":[],"outputs":[],"stateMutability":"nonpayable"},{"type":"function","name":"update","inputs":[{"name":"token","type":"address","internalType":"address"},{"name":"configHash","type":"bytes32","internalType":"bytes32"},{"name":"agentIds","type":"uint32[]","internalType":"uint32[]"},{"name":"agentParams","type":"tuple[]","internalType":"struct IService.AgentParams[]","components":[{"name":"slots","type":"uint32","internalType":"uint32"},{"name":"bond","type":"uint96","internalType":"uint96"}]},{"name":"threshold","type":"uint32","internalType":"uint32"},{"name":"serviceId","type":"uint256","internalType":"uint256"}],"outputs":[{"name":"success","type":"bool","internalType":"bool"}],"stateMutability":"nonpayable"},{"type":"function","name":"versionHash","inputs":[],"outputs":[{"name":"","type":"bytes32","internalType":"bytes32"}],"stateMutability":"view"},{"type":"event","name":"CreateMultisig","inputs":[{"name":"multisig","type":"address","indexed":true,"internalType":"address"}],"anonymous":false},{"type":"event","name":"IdentityRegistryBridgerUpdated","inputs":[{"name":"identityRegistryBridger","type":"address","indexed":true,"internalType":"address"}],"anonymous":false},{"type":"event","name":"ImplementationUpdated","inputs":[{"name":"implementation","type":"address","indexed":true,"internalType":"address"}],"anonymous":false},{"type":"event","name":"OperatorHashApproved","inputs":[{"name":"operator","type":"address","indexed":true,"internalType":"address"},{"name":"hash","type":"bytes32","indexed":false,"internalType":"bytes32"}],"anonymous":false},{"type":"event","name":"OperatorWhitelistUpdated","inputs":[{"name":"operatorWhitelist","type":"address","indexed":true,"internalType":"address"}],"anonymous":false},{"type":"event","name":"OwnerUpdated","inputs":[{"name":"owner","type":"address","indexed":true,"internalType":"address"}],"anonymous":false},{"type":"event","name":"Pause","inputs":[{"name":"owner","type":"address","indexed":true,"internalType":"address"}],"anonymous":false},{"type":"event","name":"RegisterAgentsWithSignatureExecuted","inputs":[{"name":"operator","type":"address","indexed":true,"internalType":"address"},{"name":"serviceId","type":"uint256","indexed":true,"internalType":"uint256"},{"name":"agentInstances","type":"address[]","indexed":false,"internalType":"address[]"},{"name":"agentIds","type":"uint32[]","indexed":false,"internalType":"uint32[]"}],"anonymous":false},{"type":"event","name":"UnbondWithSignatureExecuted","inputs":[{"name":"operator","type":"address","indexed":true,"internalType":"address"},{"name":"serviceId","type":"uint256","indexed":true,"internalType":"uint256"},{"name":"refund","type":"uint256","indexed":false,"internalType":"uint256"}],"anonymous":false},{"type":"event","name":"Unpause","inputs":[{"name":"owner","type":"address","indexed":true,"internalType":"address"}],"anonymous":false},{"type":"error","name":"AgentInstanceRegistered","inputs":[{"name":"operator","type":"address","internalType":"address"}]},{"type":"error","name":"AgentInstancesSlotsFilled","inputs":[{"name":"serviceId","type":"uint256","internalType":"uint256"}]},{"type":"error","name":"AgentNotFound","inputs":[{"name":"agentId","type":"uint256","internalType":"uint256"}]},{"type":"error","name":"AgentNotInService","inputs":[{"name":"agentId","type":"uint256","internalType":"uint256"},{"name":"serviceId","type":"uint256","internalType":"uint256"}]},{"type":"error","name":"AlreadyInitialized","inputs":[]},{"type":"error","name":"ComponentNotFound","inputs":[{"name":"componentId","type":"uint256","internalType":"uint256"}]},{"type":"error","name":"HashExists","inputs":[]},{"type":"error","name":"HashNotApproved","inputs":[{"name":"operator","type":"address","internalType":"address"},{"name":"msgHash","type":"bytes32","internalType":"bytes32"},{"name":"signature","type":"bytes","internalType":"bytes"}]},{"type":"error","name":"HashNotValidated","inputs":[{"name":"operator","type":"address","internalType":"address"},{"name":"msgHash","type":"bytes32","internalType":"bytes32"},{"name":"signature","type":"bytes","internalType":"bytes"}]},{"type":"error","name":"IncorrectAgentBondingValue","inputs":[{"name":"sent","type":"uint256","internalType":"uint256"},{"name":"expected","type":"uint256","internalType":"uint256"},{"name":"serviceId","type":"uint256","internalType":"uint256"}]},{"type":"error","name":"IncorrectRegistrationDepositValue","inputs":[{"name":"sent","type":"uint256","internalType":"uint256"},{"name":"expected","type":"uint256","internalType":"uint256"},{"name":"serviceId","type":"uint256","internalType":"uint256"}]},{"type":"error","name":"IncorrectSignatureLength","inputs":[{"name":"signature","type":"bytes","internalType":"bytes"},{"name":"provided","type":"uint256","internalType":"uint256"},{"name":"expected","type":"uint256","internalType":"uint256"}]},{"type":"error","name":"ManagerOnly","inputs":[{"name":"sender","type":"address","internalType":"address"},{"name":"manager","type":"address","internalType":"address"}]},{"type":"error","name":"OnlyOwnServiceMultisig","inputs":[{"name":"provided","type":"address","internalType":"address"},{"name":"expected","type":"address","internalType":"address"},{"name":"serviceId","type":"uint256","internalType":"uint256"}]},{"type":"error","name":"OperatorHasNoInstances","inputs":[{"name":"operator","type":"address","internalType":"address"},{"name":"serviceId","type":"uint256","internalType":"uint256"}]},{"type":"error","name":"Overflow","inputs":[{"name":"provided","type":"uint256","internalType":"uint256"},{"name":"max","type":"uint256","internalType":"uint256"}]},{"type":"error","name":"OwnerOnly","inputs":[{"name":"sender","type":"address","internalType":"address"},{"name":"owner","type":"address","internalType":"address"}]},{"type":"error","name":"Paused","inputs":[]},{"type":"error","name":"ReentrancyGuard","inputs":[]},{"type":"error","name":"ServiceMustBeInactive","inputs":[{"name":"serviceId","type":"uint256","internalType":"uint256"}]},{"type":"error","name":"TransferFailed","inputs":[{"name":"token","type":"address","internalType":"address"},{"name":"from","type":"address","internalType":"address"},{"name":"to","type":"address","internalType":"address"},{"name":"value","type":"uint256","internalType":"uint256"}]},{"type":"error","name":"UnauthorizedMultisig","inputs":[{"name":"multisig","type":"address","internalType":"address"}]},{"type":"error","name":"WrongAgentId","inputs":[{"name":"agentId","type":"uint256","internalType":"uint256"}]},{"type":"error","name":"WrongArrayLength","inputs":[{"name":"numValues1","type":"uint256","internalType":"uint256"},{"name":"numValues2","type":"uint256","internalType":"uint256"}]},{"type":"error","name":"WrongOperator","inputs":[{"name":"serviceId","type":"uint256","internalType":"uint256"}]},{"type":"error","name":"WrongOperatorAddress","inputs":[{"name":"provided","type":"address","internalType":"address"},{"name":"expected","type":"address","internalType":"address"}]},{"type":"error","name":"WrongServiceState","inputs":[{"name":"state","type":"uint256","internalType":"uint256"},{"name":"serviceId","type":"uint256","internalType":"uint256"}]},{"type":"error","name":"WrongThreshold","inputs":[{"name":"currentThreshold","type":"uint256","internalType":"uint256"},{"name":"minThreshold","type":"uint256","internalType":"uint256"},{"name":"maxThreshold","type":"uint256","internalType":"uint256"}]},{"type":"error","name":"ZeroAddress","inputs":[]},{"type":"error","name":"ZeroOperatorAddress","inputs":[]},{"type":"error","name":"ZeroValue","inputs":[]}],"bytecode":{"object":"0x610100604052348015610010575f5ffd5b5060405161376a38038061376a83398101604081905261002f916100fb565b604080518082018252601481527f4f4c41532053657276696365204d616e616765720000000000000000000000006020808301918252835180850190945260058452640312e322e360dc1b908401908152915190206080529051902060a0526001600160a01b03821615806100ab57506001600160a01b038116155b156100c95760405163d92e233d60e01b815260040160405180910390fd5b6001600160a01b0391821660c0521660e05261012c565b80516001600160a01b03811681146100f6575f5ffd5b919050565b5f5f6040838503121561010c575f5ffd5b610115836100e0565b9150610123602084016100e0565b90509250929050565b60805160a05160c05160e0516135476102235f395f818161045101528181610db901528181611086015281816112df015281816114d50152818161182501528181611ca801528181611ef90152818161202901526124fd01525f81816107d3015281816109bc01528181610a4201528181610ca501528181610e3c01528181610f020152818161110f0152818161119b01528181611374015281816115940152818161162d015281816118d001528181611c1001528181611e6001528181612103015281816121a0015281816122b7015261246601525f818161033301526128e101525f81816108bd01526128b901526135475ff3fe6080604052600436106102c1575f3560e01c8063757b115611610170578063a6f9dae1116100d1578063e42cdd7c11610087578063f172a4ce11610062578063f172a4ce146108ac578063f5dcb7bb146108df578063ffa1ad7414610912575f5ffd5b8063e42cdd7c1461085a578063e5da075314610879578063ed24911d14610898575f5ffd5b8063cbf994f8116100b7578063cbf994f8146107f5578063d03ca40a14610814578063dc1d952514610827575f5ffd5b8063a6f9dae1146107a3578063cbcf252a146107c2575f5ffd5b80638da5cb5b11610126578063a2e2ad7e1161010c578063a2e2ad7e146106f5578063a3f4df7e1461072f578063a6a7187f14610784575f5ffd5b80638da5cb5b146106a457806394887911146106c2575f5ffd5b80638129fc1c116101565780638129fc1c146106515780638456cb59146106655780638a39fa1614610679575f5ffd5b8063757b1156146106135780637a828b2814610632575f5ffd5b806328f22342116102255780635405ecb9116101db57806359a1d184116101b657806359a1d184146105a25780635c975abb146105d557806364a98615146105f4575f5ffd5b80635405ecb91461051d57806356bda50714610557578063599be46f14610583575f5ffd5b80633f4ba83a1161020b5780633f4ba83a146104cb57806341b60677146104df5780634d5a58271461050a575f5ffd5b806328f22342146104735780633af5d04e14610492575f5ffd5b80631ee81fb51161027a57806324b963e71161026057806324b963e7146103eb57806327de9e321461040a5780632871405114610440575f5ffd5b80631ee81fb5146103a957806321561bfc146103cc575f5ffd5b8063152b5c0f116102aa578063152b5c0f1461032257806317a68dd8146103635780631878d1f114610382575f5ffd5b806307a3e0a8146102c55780630d0d57a8146102e6575b5f5ffd5b3480156102d0575f5ffd5b506102e46102df366004612931565b610942565b005b3480156102f1575f5ffd5b50610305610300366004612a39565b61099a565b6040516001600160a01b0390911681526020015b60405180910390f35b34801561032d575f5ffd5b506103557f000000000000000000000000000000000000000000000000000000000000000081565b604051908152602001610319565b34801561036e575f5ffd5b506102e461037d366004612a8e565b610bbf565b34801561038d575f5ffd5b5061030573eeeeeeeeeeeeeeeeeeeeeeeeeeeeeeeeeeeeeeee81565b6103bc6103b7366004612bbb565b610c83565b6040519015158152602001610319565b3480156103d7575f5ffd5b50600454610305906001600160a01b031681565b3480156103f6575f5ffd5b506102e4610405366004612a8e565b610fd5565b348015610415575f5ffd5b50610429610424366004612931565b61105c565b604080519215158352602083019190915201610319565b34801561044b575f5ffd5b506103057f000000000000000000000000000000000000000000000000000000000000000081565b34801561047e575f5ffd5b5061042961048d366004612c65565b611196565b34801561049d575f5ffd5b506103bc6104ac366004612ca4565b600360209081525f928352604080842090915290825290205460ff1681565b3480156104d6575f5ffd5b506102e461143f565b3480156104ea575f5ffd5b506103556104f9366004612931565b60026020525f908152604090205481565b6103bc610518366004612931565b6114b3565b348015610528575f5ffd5b50610355610537366004612ca4565b60a01b6001600160a01b03909116175f9081526001602052604090205490565b348015610562575f5ffd5b5061056b600181565b6040516001600160601b039091168152602001610319565b34801561058e575f5ffd5b506102e461059d366004612a8e565b6116ab565b3480156105ad575f5ffd5b506103557fe39e69948a448ce9239ad71b908b6c5b46225f86ffa735b25a8cd6408031585581565b3480156105e0575f5ffd5b505f546103bc90600160a01b900460ff1681565b3480156105ff575f5ffd5b50600554610305906001600160a01b031681565b34801561061e575f5ffd5b5061035561062d366004612cce565b611732565b34801561063d575f5ffd5b5061042961064c366004612931565b611820565b34801561065c575f5ffd5b506102e4611907565b348015610670575f5ffd5b506102e4611942565b348015610684575f5ffd5b50610355610693366004612931565b60016020525f908152604090205481565b3480156106af575f5ffd5b505f54610305906001600160a01b031681565b3480156106cd575f5ffd5b506103557f92b2008d2a99f26809ac9d1989fe92334aa84124767331997ba0eec16050ecf481565b348015610700575f5ffd5b5061035561070f366004612ca4565b60a01b6001600160a01b03909116175f9081526002602052604090205490565b34801561073a575f5ffd5b506107776040518060400160405280601481526020017f4f4c41532053657276696365204d616e6167657200000000000000000000000081525081565b6040516103199190612d98565b34801561078f575f5ffd5b5061035561079e366004612daa565b6119bc565b3480156107ae575f5ffd5b506102e46107bd366004612a8e565b611a77565b3480156107cd575f5ffd5b506103057f000000000000000000000000000000000000000000000000000000000000000081565b348015610800575f5ffd5b506103bc61080f366004612e97565b611b23565b6103bc610822366004612f33565b611f6e565b348015610832575f5ffd5b506103557fde64b4c9fac43e1615e938b03573b078604f57b4d2e78d3a27d7b20ba017e12681565b348015610865575f5ffd5b50610355610874366004612f96565b612229565b348015610884575f5ffd5b506103bc610893366004612ca4565b6125e5565b3480156108a3575f5ffd5b50610355612612565b3480156108b7575f5ffd5b506103557f000000000000000000000000000000000000000000000000000000000000000081565b3480156108ea575f5ffd5b506103557f8b73c3c69bb8fe3d512ecc4cf759cc79239f7b179b0ffacaa9a75d522b39400f81565b34801561091d575f5ffd5b50610777604051806040016040528060058152602001640312e322e360dc1b81525081565b335f818152600360209081526040808320858452825291829020805460ff1916600117905590518381527f85eb1f050732417c0566422b6004a6c5cbded9ded1a406de04060719af52a13a910160405180910390a250565b604051630846d5ff60e31b8152600481018490525f9081906001600160a01b037f00000000000000000000000000000000000000000000000000000000000000001690634236aff89060240160e060405180830381865afa158015610a01573d5f5f3e3d5ffd5b505050506040513d601f19601f82011682018060405250810190610a25919061303b565b505060405163f908bc7760e01b8152939550506001600160a01b037f000000000000000000000000000000000000000000000000000000000000000016935063f908bc7792610a8092503391508990899089906004016130cb565b6020604051808303815f875af1158015610a9c573d5f5f3e3d5ffd5b505050506040513d601f19601f82011682018060405250810190610ac09190613101565b91506001600160a01b038216610ae95760405163d92e233d60e01b815260040160405180910390fd5b6005546001600160a01b031615801590610b155750806001600160a01b0316826001600160a01b031614155b15610b845760055460405163398d910760e21b8152600481018790526001600160a01b03838116602483015284811660448301529091169063e636441c906064015f604051808303815f87803b158015610b6d575f5ffd5b505af1158015610b7f573d5f5f3e3d5ffd5b505050505b6040516001600160a01b038316907fec97633905b1dbe9773a7536e9a986dcf89803e1193934b7b6d76587c68beb40905f90a2509392505050565b5f546001600160a01b03163314610c02575f5460405163521eb56d60e11b81523360048201526001600160a01b0390911660248201526044015b60405180910390fd5b6001600160a01b038116610c295760405163d92e233d60e01b815260040160405180910390fd5b7fe39e69948a448ce9239ad71b908b6c5b46225f86ffa735b25a8cd640803158558190556040516001600160a01b038216907f310ba5f1d2ed074b51e2eccd052a47ae9ab7c6b800d1fca3db3999d6a592ca03905f90a250565b6040516331a9108f60e11b8152600481018590525f9081906001600160a01b037f00000000000000000000000000000000000000000000000000000000000000001690636352211e90602401602060405180830381865afa158015610cea573d5f5f3e3d5ffd5b505050506040513d601f19601f82011682018060405250810190610d0e9190613101565b9050336001600160a01b03821614610d4a5760405163521eb56d60e11b81523360048201526001600160a01b0382166024820152604401610bf9565b60a086901b6001600160a01b038816175f8181526002602052604081205490610d778a858b8b8b87611732565b9050610d848a8288612620565b81610d8e81613130565b5f858152600260205260408082208390555163dc4f8bc560e01b815291945091506001600160a01b037f0000000000000000000000000000000000000000000000000000000000000000169063dc4f8bc590610df2908e908e908d90600401613188565b6020604051808303815f875af1158015610e0e573d5f5f3e3d5ffd5b505050506040513d601f19601f82011682018060405250810190610e3291906131cc565b90508015610eeb577f00000000000000000000000000000000000000000000000000000000000000006001600160a01b031663dff7672460016001600160601b03168b51610e8091906131e5565b8d8d8d8d6040518663ffffffff1660e01b8152600401610ea39493929190613235565b60206040518083038185885af1158015610ebf573d5f5f3e3d5ffd5b50505050506040513d601f19601f82011682018060405250810190610ee491906131cc565b9550610f83565b6040516337fdd9c960e21b81526001600160a01b037f0000000000000000000000000000000000000000000000000000000000000000169063dff76724903490610f3f908f908f908f908f90600401613235565b60206040518083038185885af1158015610f5b573d5f5f3e3d5ffd5b50505050506040513d601f19601f82011682018060405250810190610f8091906131cc565b95505b898b6001600160a01b03167f47a2897a8312375227b416439e2cb5be833bfc439617a187a197ccda818c109f8b8b604051610fbf929190613279565b60405180910390a3505050505095945050505050565b5f546001600160a01b03163314611013575f5460405163521eb56d60e11b81523360048201526001600160a01b039091166024820152604401610bf9565b600580546001600160a01b0319166001600160a01b0383169081179091556040517fea74988d68ed8a3b5989f0b838ed41f768306e58bb135636727a93a4e664bc89905f90a250565b60405163161e984960e31b8152336004820152602481018290525f90819081906001600160a01b037f0000000000000000000000000000000000000000000000000000000000000000169063b0f4c248906044016020604051808303815f875af11580156110cc573d5f5f3e3d5ffd5b505050506040513d601f19601f820116820180604052508101906110f0919061329d565b6040516352e82ce560e11b8152336004820152602481018690529091507f00000000000000000000000000000000000000000000000000000000000000006001600160a01b03169063a5d059ca906044015b60408051808303815f875af115801561115d573d5f5f3e3d5ffd5b505050506040513d601f19601f8201168201806040525081019061118191906132b4565b90935091508015611190578091505b50915091565b5f5f5f7f00000000000000000000000000000000000000000000000000000000000000006001600160a01b0316636352211e866040518263ffffffff1660e01b81526004016111e791815260200190565b602060405180830381865afa158015611202573d5f5f3e3d5ffd5b505050506040513d601f19601f820116820180604052508101906112269190613101565b9050336001600160a01b038216146112625760405163521eb56d60e11b81523360048201526001600160a01b0382166024820152604401610bf9565b60a085901b6001600160a01b038716175f818152600160205260408120549061128d89858a856119bc565b905061129a898289612620565b816112a481613130565b5f858152600160205260408082208390555163161e984960e31b81526001600160a01b038d81166004830152602482018d90529295509092507f00000000000000000000000000000000000000000000000000000000000000009091169063b0f4c248906044016020604051808303815f875af1158015611327573d5f5f3e3d5ffd5b505050506040513d601f19601f8201168201806040525081019061134b919061329d565b6040516352e82ce560e11b81526001600160a01b038c81166004830152602482018c90529192507f00000000000000000000000000000000000000000000000000000000000000009091169063a5d059ca9060440160408051808303815f875af11580156113bb573d5f5f3e3d5ffd5b505050506040513d601f19601f820116820180604052508101906113df91906132b4565b909750955080156113ee578095505b888a6001600160a01b03167f72cb3ccaf579e41be2521a188121c7a406c7b33d36cf08b8529e0bddf4f3c9ee8860405161142a91815260200190565b60405180910390a35050505050935093915050565b5f546001600160a01b0316331461147d575f5460405163521eb56d60e11b81523360048201526001600160a01b039091166024820152604401610bf9565b5f805460ff60a01b1916815560405133917faeb196d352664784d1900b0e7414a8face7d29f4dae8c4b0cf68ed477423bbf491a2565b60405163542db44960e01b8152600481018290525f9081906001600160a01b037f0000000000000000000000000000000000000000000000000000000000000000169063542db449906024016020604051808303815f875af115801561151b573d5f5f3e3d5ffd5b505050506040513d601f19601f8201168201806040525081019061153f91906131cc565b90508015611611573460011461157857604051631c30abbb60e31b81523460048201526001602482015260448101849052606401610bf9565b60405163388fdbed60e21b8152336004820152602481018490527f00000000000000000000000000000000000000000000000000000000000000006001600160a01b03169063e23f6fb49060019060440160206040518083038185885af11580156115e5573d5f5f3e3d5ffd5b50505050506040513d601f19601f8201168201806040525081019061160a91906131cc565b91506116a5565b60405163388fdbed60e21b8152336004820152602481018490527f00000000000000000000000000000000000000000000000000000000000000006001600160a01b03169063e23f6fb490349060440160206040518083038185885af115801561167d573d5f5f3e3d5ffd5b50505050506040513d601f19601f820116820180604052508101906116a291906131cc565b91505b50919050565b5f546001600160a01b031633146116e9575f5460405163521eb56d60e11b81523360048201526001600160a01b039091166024820152604401610bf9565b600480546001600160a01b0319166001600160a01b0383169081179091556040517ff8e76e8a7c35558598a944d509f1ed32b104e77b1098ef1dfa5b97b86b09df8f905f90a250565b5f61173b61288d565b7fde64b4c9fac43e1615e938b03573b078604f57b4d2e78d3a27d7b20ba017e1268888888888604051602001611772929190613279565b60408051601f198184030181528282528051602091820120908301969096526001600160a01b0394851690820152929091166060830152608082015260a081019190915260c0810184905260e001604051602081830303815290604052805190602001206040516020016117fd92919061190160f01b81526002810192909252602282015260420190565b6040516020818303038152906040528051906020012090505b9695505050505050565b5f5f5f7f00000000000000000000000000000000000000000000000000000000000000006001600160a01b03166325e1afc3856040518263ffffffff1660e01b815260040161187191815260200190565b6020604051808303815f875af115801561188d573d5f5f3e3d5ffd5b505050506040513d601f19601f820116820180604052508101906118b1919061329d565b60405163ccc9305d60e01b8152336004820152602481018690529091507f00000000000000000000000000000000000000000000000000000000000000006001600160a01b03169063ccc9305d90604401611142565b5f546001600160a01b03161561192f5760405162dc149f60e41b815260040160405180910390fd5b5f80546001600160a01b03191633179055565b5f546001600160a01b03163314611980575f5460405163521eb56d60e11b81523360048201526001600160a01b039091166024820152604401610bf9565b5f805460ff60a01b1916600160a01b17815560405133917f5ee71a369c8672edded508e624ffc9257fa1ae6886ef32905c18e60196bca39991a2565b5f6119c561288d565b604080517f92b2008d2a99f26809ac9d1989fe92334aa84124767331997ba0eec16050ecf460208201526001600160a01b038089169282019290925290861660608201526080810185905260a0810184905260c00160405160208183030381529060405280519060200120604051602001611a5792919061190160f01b81526002810192909252602282015260420190565b604051602081830303815290604052805190602001209050949350505050565b5f546001600160a01b03163314611ab5575f5460405163521eb56d60e11b81523360048201526001600160a01b039091166024820152604401610bf9565b6001600160a01b038116611adc5760405163d92e233d60e01b815260040160405180910390fd5b5f80546001600160a01b0319166001600160a01b038316908117825560405190917f4ffd725fc4a22075e9ec71c59edf9c38cdeb588a91b24fc5b61388c5be41282b91a250565b5f6001600160a01b038716611b4b5760405163d92e233d60e01b815260040160405180910390fd5b835173eeeeeeeeeeeeeeeeeeeeeeeeeeeeeeeeeeeeeeed196001600160a01b03891601611d0c575f5b81811015611bf8575f868281518110611b8f57611b8f6132de565b60200260200101515f015163ffffffff16118015611bd25750858181518110611bba57611bba6132de565b6020026020010151602001516001600160601b03165f145b15611bf057604051637c946ed760e01b815260040160405180910390fd5b600101611b74565b5060405163197f329f60e31b81526001600160a01b037f0000000000000000000000000000000000000000000000000000000000000000169063cbf994f890611c4f9033908b908b908b908b908b9060040161333d565b6020604051808303815f875af1158015611c6b573d5f5f3e3d5ffd5b505050506040513d601f19601f82011682018060405250810190611c8f91906131cc565b604051630be6cc4b60e31b8152600481018590529092507f00000000000000000000000000000000000000000000000000000000000000006001600160a01b031690635f366258906024015f604051808303815f87803b158015611cf1575f5ffd5b505af1158015611d03573d5f5f3e3d5ffd5b50505050611f63565b5f8167ffffffffffffffff811115611d2657611d2661295f565b604051908082528060200260200182016040528015611d4f578160200160208202803683370190505b5090505f5b82811015611e48575f878281518110611d6f57611d6f6132de565b60200260200101515f015163ffffffff161115611e4057868181518110611d9857611d986132de565b6020026020010151602001516001600160601b03165f03611dcc57604051637c946ed760e01b815260040160405180910390fd5b868181518110611dde57611dde6132de565b6020026020010151602001516001600160601b0316828281518110611e0557611e056132de565b6020026020010181815250506001878281518110611e2557611e256132de565b6020908102919091018101516001600160601b039092169101525b600101611d54565b5060405163197f329f60e31b81526001600160a01b037f0000000000000000000000000000000000000000000000000000000000000000169063cbf994f890611e9f9033908c908c908c908c908c9060040161333d565b6020604051808303815f875af1158015611ebb573d5f5f3e3d5ffd5b505050506040513d601f19601f82011682018060405250810190611edf91906131cc565b6040516338f3a6a160e21b81529093506001600160a01b037f0000000000000000000000000000000000000000000000000000000000000000169063e3ce9a8490611f349087908d908c908790600401613392565b5f604051808303815f87803b158015611f4b575f5ffd5b505af1158015611f5d573d5f5f3e3d5ffd5b50505050505b509695505050505050565b6004545f906001600160a01b03161561201057600480546040516356a7b60760e01b81529182018690523360248301526001600160a01b0316906356a7b60790604401602060405180830381865afa158015611fcc573d5f5f3e3d5ffd5b505050506040513d601f19601f82011682018060405250810190611ff091906131cc565b612010576040516322ddebd960e21b815260048101859052602401610bf9565b60405163dc4f8bc560e01b81525f906001600160a01b037f0000000000000000000000000000000000000000000000000000000000000000169063dc4f8bc59061206290339089908890600401613188565b6020604051808303815f875af115801561207e573d5f5f3e3d5ffd5b505050506040513d601f19601f820116820180604052508101906120a291906131cc565b905080156121895783515f906120ba906001906131e5565b90508034146120ec57604051637ebbcab960e11b81523460048201526024810182905260448101879052606401610bf9565b6040516337fdd9c960e21b81526001600160a01b037f0000000000000000000000000000000000000000000000000000000000000000169063dff767249083906121409033908b908b908b90600401613235565b60206040518083038185885af115801561215c573d5f5f3e3d5ffd5b50505050506040513d601f19601f8201168201806040525081019061218191906131cc565b925050612221565b6040516337fdd9c960e21b81526001600160a01b037f0000000000000000000000000000000000000000000000000000000000000000169063dff767249034906121dd9033908a908a908a90600401613235565b60206040518083038185885af11580156121f9573d5f5f3e3d5ffd5b50505050506040513d601f19601f8201168201806040525081019061221e91906131cc565b91505b509392505050565b5f8054600160a01b900460ff1615612254576040516313d0ff5960e31b815260040160405180910390fd5b6001600160a01b03861661227b5760405163d92e233d60e01b815260040160405180910390fd5b73eeeeeeeeeeeeeeeeeeeeeeeeeeeeeeeeeeeeeeed196001600160a01b0387160161233b5760405163fbdeb3d760e01b81526001600160a01b037f0000000000000000000000000000000000000000000000000000000000000000169063fbdeb3d7906122f4908a9089908990899089906004016133fc565b6020604051808303815f875af1158015612310573d5f5f3e3d5ffd5b505050506040513d601f19601f82011682018060405250810190612334919061329d565b9050612568565b82515f8167ffffffffffffffff8111156123575761235761295f565b604051908082528060200260200182016040528015612380578160200160208202803683370190505b5090505f5b8281101561244e5785818151811061239f5761239f6132de565b6020026020010151602001516001600160601b03165f036123d357604051637c946ed760e01b815260040160405180910390fd5b8581815181106123e5576123e56132de565b6020026020010151602001516001600160601b031682828151811061240c5761240c6132de565b602002602001018181525050600186828151811061242c5761242c6132de565b6020908102919091018101516001600160601b03909216910152600101612385565b5060405163fbdeb3d760e01b81526001600160a01b037f0000000000000000000000000000000000000000000000000000000000000000169063fbdeb3d7906124a3908c908b908b908b908b906004016133fc565b6020604051808303815f875af11580156124bf573d5f5f3e3d5ffd5b505050506040513d601f19601f820116820180604052508101906124e3919061329d565b6040516338f3a6a160e21b81529093506001600160a01b037f0000000000000000000000000000000000000000000000000000000000000000169063e3ce9a84906125389086908c908b908790600401613392565b5f604051808303815f87803b15801561254f575f5ffd5b505af1158015612561573d5f5f3e3d5ffd5b5050505050505b6005546001600160a01b03161561181657600554604051637903ab2760e11b8152600481018390526001600160a01b039091169063f207564e906024016020604051808303815f875af11580156125c1573d5f5f3e3d5ffd5b505050506040513d601f19601f82011682018060405250810190611f63919061329d565b6001600160a01b0382165f90815260036020908152604080832084845290915290205460ff165b92915050565b5f61261b61288d565b905090565b6001600160a01b0383166126475760405163e63f571f60e01b815260040160405180910390fd5b8051604114612670578051604051631d9f5a5f60e01b8152610bf991839160419060040161344e565b5f81604081518110612684576126846132de565b016020015160f81c90506004811080156126a657506001600160a01b0384163b155b156126b9576126b6601b82613472565b90505b602082015160408301515f60ff841660040361278b5750604051630b135d3f60e11b80825283916001600160a01b03831690631626ba7e90612701908a908a9060040161348b565b602060405180830381865afa15801561271c573d5f5f3e3d5ffd5b505050506040513d601f19601f8201168201806040525081019061274091906134ab565b7fffffffff0000000000000000000000000000000000000000000000000000000016146127865780868660405163694d54dd60e01b8152600401610bf9939291906134ea565b61283f565b8360ff166005036127e257506001600160a01b0382165f908152600360209081526040808320888452909152902054829060ff16612786578086866040516312cf832560e01b8152600401610bf9939291906134ea565b604080515f81526020810180835288905260ff861691810191909152606081018490526080810183905260019060a0016020604051602081039080840390855afa158015612832573d5f5f3e3d5ffd5b5050506020604051035190505b866001600160a01b0316816001600160a01b0316146128845760405163a806216d60e01b81526001600160a01b03808316600483015288166024820152604401610bf9565b50505050505050565b604080517f8b73c3c69bb8fe3d512ecc4cf759cc79239f7b179b0ffacaa9a75d522b39400f60208201527f0000000000000000000000000000000000000000000000000000000000000000918101919091527f000000000000000000000000000000000000000000000000000000000000000060608201524660808201523060a08201525f9060c00160405160208183030381529060405280519060200120905090565b5f60208284031215612941575f5ffd5b5035919050565b6001600160a01b038116811461295c575f5ffd5b50565b634e487b7160e01b5f52604160045260245ffd5b6040805190810167ffffffffffffffff811182821017156129965761299661295f565b60405290565b604051601f8201601f1916810167ffffffffffffffff811182821017156129c5576129c561295f565b604052919050565b5f82601f8301126129dc575f5ffd5b813567ffffffffffffffff8111156129f6576129f661295f565b612a09601f8201601f191660200161299c565b818152846020838601011115612a1d575f5ffd5b816020850160208301375f918101602001919091529392505050565b5f5f5f60608486031215612a4b575f5ffd5b833592506020840135612a5d81612948565b9150604084013567ffffffffffffffff811115612a78575f5ffd5b612a84868287016129cd565b9150509250925092565b5f60208284031215612a9e575f5ffd5b8135612aa981612948565b9392505050565b5f67ffffffffffffffff821115612ac957612ac961295f565b5060051b60200190565b5f82601f830112612ae2575f5ffd5b8135612af5612af082612ab0565b61299c565b8082825260208201915060208360051b860101925085831115612b16575f5ffd5b602085015b83811015612b3c578035612b2e81612948565b835260209283019201612b1b565b5095945050505050565b63ffffffff8116811461295c575f5ffd5b5f82601f830112612b66575f5ffd5b8135612b74612af082612ab0565b8082825260208201915060208360051b860101925085831115612b95575f5ffd5b602085015b83811015612b3c578035612bad81612b46565b835260209283019201612b9a565b5f5f5f5f5f60a08688031215612bcf575f5ffd5b8535612bda81612948565b945060208601359350604086013567ffffffffffffffff811115612bfc575f5ffd5b612c0888828901612ad3565b935050606086013567ffffffffffffffff811115612c24575f5ffd5b612c3088828901612b57565b925050608086013567ffffffffffffffff811115612c4c575f5ffd5b612c58888289016129cd565b9150509295509295909350565b5f5f5f60608486031215612c77575f5ffd5b8335612c8281612948565b925060208401359150604084013567ffffffffffffffff811115612a78575f5ffd5b5f5f60408385031215612cb5575f5ffd5b8235612cc081612948565b946020939093013593505050565b5f5f5f5f5f5f60c08789031215612ce3575f5ffd5b8635612cee81612948565b95506020870135612cfe81612948565b945060408701359350606087013567ffffffffffffffff811115612d20575f5ffd5b612d2c89828a01612ad3565b935050608087013567ffffffffffffffff811115612d48575f5ffd5b612d5489828a01612b57565b9699959850939692959460a09093013593505050565b5f81518084528060208401602086015e5f602082860101526020601f19601f83011685010191505092915050565b602081525f612aa96020830184612d6a565b5f5f5f5f60808587031215612dbd575f5ffd5b8435612dc881612948565b93506020850135612dd881612948565b93969395505050506040820135916060013590565b6001600160601b038116811461295c575f5ffd5b5f82601f830112612e10575f5ffd5b8135612e1e612af082612ab0565b8082825260208201915060208360061b860101925085831115612e3f575f5ffd5b602085015b83811015612b3c5760408188031215612e5b575f5ffd5b612e63612973565b8135612e6e81612b46565b81526020820135612e7e81612ded565b6020828101919091529084529290920191604001612e44565b5f5f5f5f5f5f60c08789031215612eac575f5ffd5b8635612eb781612948565b955060208701359450604087013567ffffffffffffffff811115612ed9575f5ffd5b612ee589828a01612b57565b945050606087013567ffffffffffffffff811115612f01575f5ffd5b612f0d89828a01612e01565b9350506080870135612f1e81612b46565b9598949750929591949360a090920135925050565b5f5f5f60608486031215612f45575f5ffd5b83359250602084013567ffffffffffffffff811115612f62575f5ffd5b612f6e86828701612ad3565b925050604084013567ffffffffffffffff811115612f8a575f5ffd5b612a8486828701612b57565b5f5f5f5f5f5f60c08789031215612fab575f5ffd5b8635612fb681612948565b95506020870135612fc681612948565b945060408701359350606087013567ffffffffffffffff811115612fe8575f5ffd5b612ff489828a01612b57565b935050608087013567ffffffffffffffff811115613010575f5ffd5b61301c89828a01612e01565b92505060a087013561302d81612b46565b809150509295509295509295565b5f5f5f5f5f5f5f60e0888a031215613051575f5ffd5b875161305c81612ded565b602089015190975061306d81612948565b604089015160608a0151919750955061308581612b46565b608089015190945061309681612b46565b60a08901519093506130a781612b46565b60c0890151909250600681106130bb575f5ffd5b8091505092959891949750929550565b6001600160a01b03851681528360208201526001600160a01b0383166040820152608060608201525f6118166080830184612d6a565b5f60208284031215613111575f5ffd5b8151612aa981612948565b634e487b7160e01b5f52601160045260245ffd5b5f600182016131415761314161311c565b5060010190565b5f8151808452602084019350602083015f5b8281101561317e57815163ffffffff1686526020958601959091019060010161315a565b5093949350505050565b6001600160a01b0384168152826020820152606060408201525f6131af6060830184613148565b95945050505050565b805180151581146131c7575f5ffd5b919050565b5f602082840312156131dc575f5ffd5b612aa9826131b8565b808202811582820484141761260c5761260c61311c565b5f8151808452602084019350602083015f5b8281101561317e5781516001600160a01b031686526020958601959091019060010161320e565b6001600160a01b0385168152836020820152608060408201525f61325c60808301856131fc565b828103606084015261326e8185613148565b979650505050505050565b604081525f61328b60408301856131fc565b828103602084015261221e8185613148565b5f602082840312156132ad575f5ffd5b5051919050565b5f5f604083850312156132c5575f5ffd5b6132ce836131b8565b6020939093015192949293505050565b634e487b7160e01b5f52603260045260245ffd5b5f8151808452602084019350602083015f5b8281101561317e578151805163ffffffff1687526020908101516001600160601b03168188015260409096019590910190600101613304565b6001600160a01b038716815285602082015260c060408201525f61336460c0830187613148565b828103606084015261337681876132f2565b63ffffffff959095166080840152505060a00152949350505050565b8481526001600160a01b0384166020820152608060408201525f6133b96080830185613148565b8281036060840152835180825260208086019201905f5b818110156133ee5783518352602093840193909201916001016133d0565b509098975050505050505050565b6001600160a01b038616815284602082015260a060408201525f61342360a0830186613148565b828103606084015261343581866132f2565b91505063ffffffff831660808301529695505050505050565b606081525f6134606060830186612d6a565b60208301949094525060400152919050565b60ff818116838216019081111561260c5761260c61311c565b828152604060208201525f6134a36040830184612d6a565b949350505050565b5f602082840312156134bb575f5ffd5b81517fffffffff0000000000000000000000000000000000000000000000000000000081168114612aa9575f5ffd5b6001600160a01b0384168152826020820152606060408201525f6131af6060830184612d6a56fea26469706673582212206030b9c60528a8e8828f7b9352a309729bb22585cacf291124e3c19a66328f0a64736f6c634300081e0033","linkReferences":{}},"methodIdentifiers":{"BOND_WRAPPER()":"56bda507","DOMAIN_SEPARATOR_TYPE_HASH()":"f5dcb7bb","ETH_TOKEN_ADDRESS()":"1878d1f1","NAME()":"a3f4df7e","PROXY_SERVICE_MANAGER()":"59a1d184","REGISTER_AGENTS_TYPE_HASH()":"dc1d9525","UNBOND_TYPE_HASH()":"94887911","VERSION()":"ffa1ad74","activateRegistration(uint256)":"4d5a5827","changeImplementation(address)":"17a68dd8","changeOwner(address)":"a6f9dae1","create(address,address,bytes32,uint32[],(uint32,uint96)[],uint32)":"e42cdd7c","deploy(uint256,address,bytes)":"0d0d57a8","getDomainSeparator()":"ed24911d","getOperatorRegisterAgentsNonce(address,uint256)":"a2e2ad7e","getOperatorUnbondNonce(address,uint256)":"5405ecb9","getRegisterAgentsHash(address,address,uint256,address[],uint32[],uint256)":"757b1156","getUnbondHash(address,address,uint256,uint256)":"a6a7187f","identityRegistryBridger()":"64a98615","initialize()":"8129fc1c","isOperatorHashApproved(address,bytes32)":"e5da0753","mapOperatorApprovedHashes(address,bytes32)":"3af5d04e","mapOperatorRegisterAgentsNonces(uint256)":"41b60677","mapOperatorUnbondNonces(uint256)":"8a39fa16","nameHash()":"f172a4ce","operatorApproveHash(bytes32)":"07a3e0a8","operatorWhitelist()":"21561bfc","owner()":"8da5cb5b","pause()":"8456cb59","paused()":"5c975abb","registerAgents(uint256,address[],uint32[])":"d03ca40a","registerAgentsWithSignature(address,uint256,address[],uint32[],bytes)":"1ee81fb5","serviceRegistry()":"cbcf252a","serviceRegistryTokenUtility()":"28714051","setIdentityRegistryBridger(address)":"24b963e7","setOperatorWhitelist(address)":"599be46f","terminate(uint256)":"7a828b28","unbond(uint256)":"27de9e32","unbondWithSignature(address,uint256,bytes)":"28f22342","unpause()":"3f4ba83a","update(address,bytes32,uint32[],(uint32,uint96)[],uint32,uint256)":"cbf994f8","versionHash()":"152b5c0f"},"id":7}