{
  "_format": "hh-sol-artifact-1",
  "contractName": "ServiceStakingMechUsage",
  "sourceName": "contracts/staking/ServiceStakingMechUsage.sol",
  "abi": [
    {
      "inputs": [
        {
          "components": [
            {
              "internalType": "uint256",
              "name": "maxNumServices",
              "type": "uint256"
            },
            {
              "internalType": "uint256",
              "name": "rewardsPerSecond",
              "type": "uint256"
            },
            {
              "internalType": "uint256",
              "name": "minStakingDeposit",
              "type": "uint256"
            },
            {
              "internalType": "uint256",
              "name": "livenessPeriod",
              "type": "uint256"
            },
            {
              "internalType": "uint256",
              "name": "livenessRatio",
              "type": "uint256"
            },
            {
              "internalType": "uint256",
              "name": "numAgentInstances",
              "type": "uint256"
            },
            {
              "internalType": "uint256[]",
              "name": "agentIds",
              "type": "uint256[]"
            },
            {
              "internalType": "uint256",
              "name": "threshold",
              "type": "uint256"
            },
            {
              "internalType": "bytes32",
              "name": "configHash",
              "type": "bytes32"
            }
          ],
          "internalType": "struct ServiceStakingBase.StakingParams",
          "name": "_stakingParams",
          "type": "tuple"
        },
        {
          "internalType": "address",
          "name": "_serviceRegistry",
          "type": "address"
        },
        {
          "internalType": "bytes32",
          "name": "_proxyHash",
          "type": "bytes32"
        },
        {
          "internalType": "address",
          "name": "_agentMech",
          "type": "address"
        }
      ],
      "stateMutability": "nonpayable",
      "type": "constructor"
    },
    {
      "inputs": [
        {
          "internalType": "address",
          "name": "operator",
          "type": "address"
        }
      ],
      "name": "AgentInstanceRegistered",
      "type": "error"
    },
    {
      "inputs": [
        {
          "internalType": "uint256",
          "name": "serviceId",
          "type": "uint256"
        }
      ],
      "name": "AgentInstancesSlotsFilled",
      "type": "error"
    },
    {
      "inputs": [
        {
          "internalType": "uint256",
          "name": "agentId",
          "type": "uint256"
        }
      ],
      "name": "AgentNotFound",
      "type": "error"
    },
    {
      "inputs": [
        {
          "internalType": "uint256",
          "name": "agentId",
          "type": "uint256"
        },
        {
          "internalType": "uint256",
          "name": "serviceId",
          "type": "uint256"
        }
      ],
      "name": "AgentNotInService",
      "type": "error"
    },
    {
      "inputs": [
        {
          "internalType": "uint256",
          "name": "componentId",
          "type": "uint256"
        }
      ],
      "name": "ComponentNotFound",
      "type": "error"
    },
    {
      "inputs": [],
      "name": "HashExists",
      "type": "error"
    },
    {
      "inputs": [
        {
          "internalType": "uint256",
          "name": "sent",
          "type": "uint256"
        },
        {
          "internalType": "uint256",
          "name": "expected",
          "type": "uint256"
        },
        {
          "internalType": "uint256",
          "name": "serviceId",
          "type": "uint256"
        }
      ],
      "name": "IncorrectAgentBondingValue",
      "type": "error"
    },
    {
      "inputs": [
        {
          "internalType": "uint256",
          "name": "sent",
          "type": "uint256"
        },
        {
          "internalType": "uint256",
          "name": "expected",
          "type": "uint256"
        },
        {
          "internalType": "uint256",
          "name": "serviceId",
          "type": "uint256"
        }
      ],
      "name": "IncorrectRegistrationDepositValue",
      "type": "error"
    },
    {
      "inputs": [
        {
          "internalType": "uint256",
          "name": "provided",
          "type": "uint256"
        },
        {
          "internalType": "uint256",
          "name": "expected",
          "type": "uint256"
        }
      ],
      "name": "LowerThan",
      "type": "error"
    },
    {
      "inputs": [
        {
          "internalType": "address",
          "name": "sender",
          "type": "address"
        },
        {
          "internalType": "address",
          "name": "manager",
          "type": "address"
        }
      ],
      "name": "ManagerOnly",
      "type": "error"
    },
    {
      "inputs": [
        {
          "internalType": "uint256",
          "name": "maxNumServices",
          "type": "uint256"
        }
      ],
      "name": "MaxNumServicesReached",
      "type": "error"
    },
    {
      "inputs": [],
      "name": "NoRewardsAvailable",
      "type": "error"
    },
    {
      "inputs": [
        {
          "internalType": "address",
          "name": "provided",
          "type": "address"
        },
        {
          "internalType": "address",
          "name": "expected",
          "type": "address"
        },
        {
          "internalType": "uint256",
          "name": "serviceId",
          "type": "uint256"
        }
      ],
      "name": "OnlyOwnServiceMultisig",
      "type": "error"
    },
    {
      "inputs": [
        {
          "internalType": "address",
          "name": "operator",
          "type": "address"
        },
        {
          "internalType": "uint256",
          "name": "serviceId",
          "type": "uint256"
        }
      ],
      "name": "OperatorHasNoInstances",
      "type": "error"
    },
    {
      "inputs": [
        {
          "internalType": "uint256",
          "name": "provided",
          "type": "uint256"
        },
        {
          "internalType": "uint256",
          "name": "max",
          "type": "uint256"
        }
      ],
      "name": "Overflow",
      "type": "error"
    },
    {
      "inputs": [
        {
          "internalType": "address",
          "name": "sender",
          "type": "address"
        },
        {
          "internalType": "address",
          "name": "owner",
          "type": "address"
        }
      ],
      "name": "OwnerOnly",
      "type": "error"
    },
    {
      "inputs": [],
      "name": "Paused",
      "type": "error"
    },
    {
      "inputs": [],
      "name": "ReentrancyGuard",
      "type": "error"
    },
    {
      "inputs": [
        {
          "internalType": "uint256",
          "name": "serviceId",
          "type": "uint256"
        }
      ],
      "name": "ServiceMustBeInactive",
      "type": "error"
    },
    {
      "inputs": [
        {
          "internalType": "uint256",
          "name": "serviceId",
          "type": "uint256"
        }
      ],
      "name": "ServiceNotStaked",
      "type": "error"
    },
    {
      "inputs": [
        {
          "internalType": "address",
          "name": "token",
          "type": "address"
        },
        {
          "internalType": "address",
          "name": "from",
          "type": "address"
        },
        {
          "internalType": "address",
          "name": "to",
          "type": "address"
        },
        {
          "internalType": "uint256",
          "name": "value",
          "type": "uint256"
        }
      ],
      "name": "TransferFailed",
      "type": "error"
    },
    {
      "inputs": [
        {
          "internalType": "address",
          "name": "multisig",
          "type": "address"
        }
      ],
      "name": "UnauthorizedMultisig",
      "type": "error"
    },
    {
      "inputs": [
        {
          "internalType": "uint256",
          "name": "agentId",
          "type": "uint256"
        }
      ],
      "name": "WrongAgentId",
      "type": "error"
    },
    {
      "inputs": [
        {
          "internalType": "uint256",
          "name": "numValues1",
          "type": "uint256"
        },
        {
          "internalType": "uint256",
          "name": "numValues2",
          "type": "uint256"
        }
      ],
      "name": "WrongArrayLength",
      "type": "error"
    },
    {
      "inputs": [
        {
          "internalType": "uint256",
          "name": "serviceId",
          "type": "uint256"
        }
      ],
      "name": "WrongOperator",
      "type": "error"
    },
    {
      "inputs": [
        {
          "internalType": "uint256",
          "name": "serviceId",
          "type": "uint256"
        }
      ],
      "name": "WrongServiceConfiguration",
      "type": "error"
    },
    {
      "inputs": [
        {
          "internalType": "uint256",
          "name": "state",
          "type": "uint256"
        },
        {
          "internalType": "uint256",
          "name": "serviceId",
          "type": "uint256"
        }
      ],
      "name": "WrongServiceState",
      "type": "error"
    },
    {
      "inputs": [
        {
          "internalType": "uint256",
          "name": "currentThreshold",
          "type": "uint256"
        },
        {
          "internalType": "uint256",
          "name": "minThreshold",
          "type": "uint256"
        },
        {
          "internalType": "uint256",
          "name": "maxThreshold",
          "type": "uint256"
        }
      ],
      "name": "WrongThreshold",
      "type": "error"
    },
    {
      "inputs": [],
      "name": "ZeroAddress",
      "type": "error"
    },
    {
      "inputs": [],
      "name": "ZeroMechAgentAddress",
      "type": "error"
    },
    {
      "inputs": [],
      "name": "ZeroValue",
      "type": "error"
    },
    {
      "anonymous": false,
      "inputs": [
        {
          "indexed": false,
          "internalType": "uint256",
          "name": "availableRewards",
          "type": "uint256"
        },
        {
          "indexed": false,
          "internalType": "uint256",
          "name": "numServices",
          "type": "uint256"
        }
      ],
      "name": "Checkpoint",
      "type": "event"
    },
    {
      "anonymous": false,
      "inputs": [
        {
          "indexed": true,
          "internalType": "address",
          "name": "sender",
          "type": "address"
        },
        {
          "indexed": false,
          "internalType": "uint256",
          "name": "amount",
          "type": "uint256"
        },
        {
          "indexed": false,
          "internalType": "uint256",
          "name": "balance",
          "type": "uint256"
        },
        {
          "indexed": false,
          "internalType": "uint256",
          "name": "availableRewards",
          "type": "uint256"
        }
      ],
      "name": "Deposit",
      "type": "event"
    },
    {
      "anonymous": false,
      "inputs": [
        {
          "indexed": true,
          "internalType": "uint256",
          "name": "serviceId",
          "type": "uint256"
        },
        {
          "indexed": true,
          "internalType": "address",
          "name": "owner",
          "type": "address"
        },
        {
          "indexed": true,
          "internalType": "address",
          "name": "multisig",
          "type": "address"
        },
        {
          "indexed": false,
          "internalType": "uint256[]",
          "name": "nonces",
          "type": "uint256[]"
        }
      ],
      "name": "ServiceStaked",
      "type": "event"
    },
    {
      "anonymous": false,
      "inputs": [
        {
          "indexed": true,
          "internalType": "uint256",
          "name": "serviceId",
          "type": "uint256"
        },
        {
          "indexed": true,
          "internalType": "address",
          "name": "owner",
          "type": "address"
        },
        {
          "indexed": true,
          "internalType": "address",
          "name": "multisig",
          "type": "address"
        },
        {
          "indexed": false,
          "internalType": "uint256[]",
          "name": "nonces",
          "type": "uint256[]"
        },
        {
          "indexed": false,
          "internalType": "uint256",
          "name": "reward",
          "type": "uint256"
        },
        {
          "indexed": false,
          "internalType": "uint256",
          "name": "tsStart",
          "type": "uint256"
        }
      ],
      "name": "ServiceUnstaked",
      "type": "event"
    },
    {
      "anonymous": false,
      "inputs": [
        {
          "indexed": true,
          "internalType": "address",
          "name": "to",
          "type": "address"
        },
        {
          "indexed": false,
          "internalType": "uint256",
          "name": "amount",
          "type": "uint256"
        }
      ],
      "name": "Withdraw",
      "type": "event"
    },
    {
      "inputs": [],
      "name": "VERSION",
      "outputs": [
        {
          "internalType": "string",
          "name": "",
          "type": "string"
        }
      ],
      "stateMutability": "view",
      "type": "function"
    },
    {
      "inputs": [
        {
          "internalType": "uint256",
          "name": "",
          "type": "uint256"
        }
      ],
      "name": "agentIds",
      "outputs": [
        {
          "internalType": "uint256",
          "name": "",
          "type": "uint256"
        }
      ],
      "stateMutability": "view",
      "type": "function"
    },
    {
      "inputs": [],
      "name": "agentMech",
      "outputs": [
        {
          "internalType": "address",
          "name": "",
          "type": "address"
        }
      ],
      "stateMutability": "view",
      "type": "function"
    },
    {
      "inputs": [],
      "name": "availableRewards",
      "outputs": [
        {
          "internalType": "uint256",
          "name": "",
          "type": "uint256"
        }
      ],
      "stateMutability": "view",
      "type": "function"
    },
    {
      "inputs": [],
      "name": "balance",
      "outputs": [
        {
          "internalType": "uint256",
          "name": "",
          "type": "uint256"
        }
      ],
      "stateMutability": "view",
      "type": "function"
    },
    {
      "inputs": [
        {
          "internalType": "uint256",
          "name": "serviceId",
          "type": "uint256"
        }
      ],
      "name": "calculateServiceStakingReward",
      "outputs": [
        {
          "internalType": "uint256",
          "name": "reward",
          "type": "uint256"
        }
      ],
      "stateMutability": "view",
      "type": "function"
    },
    {
      "inputs": [],
      "name": "checkpoint",
      "outputs": [
        {
          "internalType": "uint256[]",
          "name": "",
          "type": "uint256[]"
        },
        {
          "internalType": "uint256[][]",
          "name": "",
          "type": "uint256[][]"
        },
        {
          "internalType": "uint256",
          "name": "",
          "type": "uint256"
        },
        {
          "internalType": "uint256[]",
          "name": "",
          "type": "uint256[]"
        },
        {
          "internalType": "uint256[]",
          "name": "",
          "type": "uint256[]"
        },
        {
          "internalType": "bool",
          "name": "success",
          "type": "bool"
        }
      ],
      "stateMutability": "nonpayable",
      "type": "function"
    },
    {
      "inputs": [],
      "name": "configHash",
      "outputs": [
        {
          "internalType": "bytes32",
          "name": "",
          "type": "bytes32"
        }
      ],
      "stateMutability": "view",
      "type": "function"
    },
    {
      "inputs": [
        {
          "internalType": "uint256",
          "name": "serviceId",
          "type": "uint256"
        }
      ],
      "name": "isServiceStaked",
      "outputs": [
        {
          "internalType": "bool",
          "name": "",
          "type": "bool"
        }
      ],
      "stateMutability": "view",
      "type": "function"
    },
    {
      "inputs": [],
      "name": "livenessPeriod",
      "outputs": [
        {
          "internalType": "uint256",
          "name": "",
          "type": "uint256"
        }
      ],
      "stateMutability": "view",
      "type": "function"
    },
    {
      "inputs": [],
      "name": "livenessRatio",
      "outputs": [
        {
          "internalType": "uint256",
          "name": "",
          "type": "uint256"
        }
      ],
      "stateMutability": "view",
      "type": "function"
    },
    {
      "inputs": [
        {
          "internalType": "uint256",
          "name": "",
          "type": "uint256"
        }
      ],
      "name": "mapServiceInfo",
      "outputs": [
        {
          "internalType": "address",
          "name": "multisig",
          "type": "address"
        },
        {
          "internalType": "address",
          "name": "owner",
          "type": "address"
        },
        {
          "internalType": "uint256",
          "name": "tsStart",
          "type": "uint256"
        },
        {
          "internalType": "uint256",
          "name": "reward",
          "type": "uint256"
        }
      ],
      "stateMutability": "view",
      "type": "function"
    },
    {
      "inputs": [],
      "name": "maxNumServices",
      "outputs": [
        {
          "internalType": "uint256",
          "name": "",
          "type": "uint256"
        }
      ],
      "stateMutability": "view",
      "type": "function"
    },
    {
      "inputs": [],
      "name": "minStakingDeposit",
      "outputs": [
        {
          "internalType": "uint256",
          "name": "",
          "type": "uint256"
        }
      ],
      "stateMutability": "view",
      "type": "function"
    },
    {
      "inputs": [],
      "name": "numAgentInstances",
      "outputs": [
        {
          "internalType": "uint256",
          "name": "",
          "type": "uint256"
        }
      ],
      "stateMutability": "view",
      "type": "function"
    },
    {
      "inputs": [
        {
          "internalType": "address",
          "name": "",
          "type": "address"
        },
        {
          "internalType": "address",
          "name": "",
          "type": "address"
        },
        {
          "internalType": "uint256",
          "name": "",
          "type": "uint256"
        },
        {
          "internalType": "bytes",
          "name": "",
          "type": "bytes"
        }
      ],
      "name": "onERC721Received",
      "outputs": [
        {
          "internalType": "bytes4",
          "name": "",
          "type": "bytes4"
        }
      ],
      "stateMutability": "nonpayable",
      "type": "function"
    },
    {
      "inputs": [],
      "name": "proxyHash",
      "outputs": [
        {
          "internalType": "bytes32",
          "name": "",
          "type": "bytes32"
        }
      ],
      "stateMutability": "view",
      "type": "function"
    },
    {
      "inputs": [],
      "name": "rewardsPerSecond",
      "outputs": [
        {
          "internalType": "uint256",
          "name": "",
          "type": "uint256"
        }
      ],
      "stateMutability": "view",
      "type": "function"
    },
    {
      "inputs": [],
      "name": "serviceRegistry",
      "outputs": [
        {
          "internalType": "address",
          "name": "",
          "type": "address"
        }
      ],
      "stateMutability": "view",
      "type": "function"
    },
    {
      "inputs": [
        {
          "internalType": "uint256",
          "name": "",
          "type": "uint256"
        }
      ],
      "name": "setServiceIds",
      "outputs": [
        {
          "internalType": "uint256",
          "name": "",
          "type": "uint256"
        }
      ],
      "stateMutability": "view",
      "type": "function"
    },
    {
      "inputs": [
        {
          "internalType": "uint256",
          "name": "serviceId",
          "type": "uint256"
        }
      ],
      "name": "stake",
      "outputs": [],
      "stateMutability": "nonpayable",
      "type": "function"
    },
    {
      "inputs": [],
      "name": "threshold",
      "outputs": [
        {
          "internalType": "uint256",
          "name": "",
          "type": "uint256"
        }
      ],
      "stateMutability": "view",
      "type": "function"
    },
    {
      "inputs": [],
      "name": "tsCheckpoint",
      "outputs": [
        {
          "internalType": "uint256",
          "name": "",
          "type": "uint256"
        }
      ],
      "stateMutability": "view",
      "type": "function"
    },
    {
      "inputs": [
        {
          "internalType": "uint256",
          "name": "serviceId",
          "type": "uint256"
        }
      ],
      "name": "unstake",
      "outputs": [],
      "stateMutability": "nonpayable",
      "type": "function"
    },
    {
      "stateMutability": "payable",
      "type": "receive"
    }
  ],
  "bytecode": "0x6101e060405234801562000011575f80fd5b50604051620026ab380380620026ab83398101604081905262000034916200039c565b80848484828282825f01515f14806200004f57506020830151155b806200005d57506060830151155b806200006b57506080830151155b8062000079575060a0830151155b156200009857604051637c946ed760e01b815260040160405180910390fd5b600283604001511015620000d457604080840151905163491a2bb160e01b81526004810191909152600260248201526044015b60405180910390fd5b6001600160a01b038216620000fc5760405163d92e233d60e01b815260040160405180910390fd5b82516080908152602084015160a0908152604085015160c052606085015160e09081529185015161010090815290850151610120526001600160a01b038416610180529084015161014052830151610160525f805b8460c00151518110156200023257818560c0015182815181106200017957620001796200048d565b602002602001015111620001c5578460c001518181518110620001a057620001a06200048d565b6020026020010151604051632ab10b0b60e21b8152600401620000cb91815260200190565b8460c001518181518110620001de57620001de6200048d565b6020908102919091010151600380546001810182555f919091527fc2575a0e9e593c00f959f8c92f12db2869c3395a3b0502d05e2516446f71f85b0181905591506200022a81620004a1565b905062000151565b50816200025257604051637c946ed760e01b815260040160405180910390fd5b506101a0525050426002555050506001600160a01b038116620002875760405162ca95f960e81b815260040160405180910390fd5b6001600160a01b03166101c05250620004c692505050565b634e487b7160e01b5f52604160045260245ffd5b60405161012081016001600160401b0381118282101715620002d957620002d96200029f565b60405290565b5f82601f830112620002ef575f80fd5b815160206001600160401b03808311156200030e576200030e6200029f565b8260051b604051601f19603f830116810181811084821117156200033657620003366200029f565b60405293845285810183019383810192508785111562000354575f80fd5b83870191505b8482101562000375578151835291830191908301906200035a565b979650505050505050565b80516001600160a01b038116811462000397575f80fd5b919050565b5f805f8060808587031215620003b0575f80fd5b84516001600160401b0380821115620003c7575f80fd5b908601906101208289031215620003dc575f80fd5b620003e6620002b3565b825181526020830151602082015260408301516040820152606083015160608201526080830151608082015260a083015160a082015260c0830151828111156200042e575f80fd5b6200043c8a828601620002df565b60c08301525060e0838101519082015261010092830151928101929092525093506200046b6020860162000380565b925060408501519150620004826060860162000380565b905092959194509250565b634e487b7160e01b5f52603260045260245ffd5b5f60018201620004bf57634e487b7160e01b5f52601160045260245ffd5b5060010190565b60805160a05160c05160e05161010051610120516101405161016051610180516101a0516101c0516120f4620005b75f395f81816103d3015261193301525f818161043d0152610e0801525f8181610558015281816108a901528181610bcb015261100501525f81816105cb01528181610c8f0152610cbe01525f81816102e801528181610d040152610d3801525f818161036d0152610c4d01525f81816103a00152611af001525f818161031b015261150b01525f81816105fe015281816117e6015261182201525f8181610631015261172d01525f818161027101528181610b530152610b8701526120f45ff3fe608060405260043610610186575f3560e01c8063879d9090116100d1578063cd25fe381161007c578063eacdaabc11610057578063eacdaabc14610620578063eb338c9614610653578063ffa1ad7414610672575f80fd5b8063cd25fe381461057a578063e1f1176d146105ba578063e77cdcc9146105ed575f80fd5b8063b69ef8a8116100ac578063b69ef8a81461050d578063c2c4c5c114610521578063cbcf252a14610547575f80fd5b8063879d90901461045f578063a694fc3a14610474578063a74466ad14610493575f80fd5b806356e760581161013157806375af4b6d1161010c57806375af4b6d146103c257806378e061361461040d578063809cee2f1461042c575f80fd5b806356e760581461033d5780635829c5ec1461035c578063592cf3fb1461038f575f80fd5b80633e732997116101615780633e732997146102c257806342cde4e8146102d757806352c824f51461030a575f80fd5b8063150b7a02146101ff57806316a75172146102605780632e17de78146102a1575f80fd5b366101fb575f345f546101999190611bae565b90505f346001546101aa9190611bae565b5f8390556001819055604080513481526020810185905290810182905290915033907f36af321ec8d3c75236829c5317affd40ddb308863a1236d2d277a4025cccee1e9060600160405180910390a2005b5f80fd5b34801561020a575f80fd5b5061022a610219366004611bd5565b630a85bd0160e11b95945050505050565b6040517fffffffff0000000000000000000000000000000000000000000000000000000090911681526020015b60405180910390f35b34801561026b575f80fd5b506102937f000000000000000000000000000000000000000000000000000000000000000081565b604051908152602001610257565b3480156102ac575f80fd5b506102c06102bb366004611c6c565b6106af565b005b3480156102cd575f80fd5b5061029360025481565b3480156102e2575f80fd5b506102937f000000000000000000000000000000000000000000000000000000000000000081565b348015610315575f80fd5b506102937f000000000000000000000000000000000000000000000000000000000000000081565b348015610348575f80fd5b50610293610357366004611c6c565b61096c565b348015610367575f80fd5b506102937f000000000000000000000000000000000000000000000000000000000000000081565b34801561039a575f80fd5b506102937f000000000000000000000000000000000000000000000000000000000000000081565b3480156103cd575f80fd5b506103f57f000000000000000000000000000000000000000000000000000000000000000081565b6040516001600160a01b039091168152602001610257565b348015610418575f80fd5b50610293610427366004611c6c565b61098b565b348015610437575f80fd5b506102937f000000000000000000000000000000000000000000000000000000000000000081565b34801561046a575f80fd5b5061029360015481565b34801561047f575f80fd5b506102c061048e366004611c6c565b610b2c565b34801561049e575f80fd5b506104e26104ad366004611c6c565b600460208190525f918252604090912080546001820154600383015492909301546001600160a01b0391821693909116919084565b604080516001600160a01b039586168152949093166020850152918301526060820152608001610257565b348015610518575f80fd5b506102935f5481565b34801561052c575f80fd5b506105356110bd565b60405161025796959493929190611cbc565b348015610552575f80fd5b506103f57f000000000000000000000000000000000000000000000000000000000000000081565b348015610585575f80fd5b506105aa610594366004611c6c565b5f90815260046020526040902060030154151590565b6040519015158152602001610257565b3480156105c5575f80fd5b506102937f000000000000000000000000000000000000000000000000000000000000000081565b3480156105f8575f80fd5b506102937f000000000000000000000000000000000000000000000000000000000000000081565b34801561062b575f80fd5b506102937f000000000000000000000000000000000000000000000000000000000000000081565b34801561065e575f80fd5b5061029361066d366004611c6c565b6113a5565b34801561067d575f80fd5b506106a2604051806040016040528060058152602001640302e312e360dc1b81525081565b6040516102579190611d92565b5f81815260046020526040902060018101546001600160a01b0316331461070557600181015460405163521eb56d60e11b81523360048201526001600160a01b0390911660248201526044015b60405180910390fd5b5f61070e6110bd565b505050505090505f5b8151811015610751578382828151811061073357610733611ddd565b602002602001015103156107515761074a81611df1565b9050610717565b6004830154600284018054604080516020808402820181019092528281525f93909290918301828280156107a257602002820191905f5260205f20905b81548152602001906001019080831161078e575b505050600388015488545f8b8152600460205260408120805473ffffffffffffffffffffffffffffffffffffffff199081168255600182018054909116905595965091946001600160a01b03909116935091506108026002830182611b1f565b505f600382018190556004909101556005805461082190600190611e09565b8154811061083157610831611ddd565b905f5260205f2001546005868154811061084d5761084d611ddd565b5f91825260209091200155600580548061086957610869611e1c565b5f8281526020812082015f1990810191909155019055604051632142170760e11b8152306004820152336024820152604481018990526001600160a01b037f000000000000000000000000000000000000000000000000000000000000000016906342842e0e906064015f604051808303815f87803b1580156108ea575f80fd5b505af11580156108fc573d5f803e3d5ffd5b505050505f8411156109125761091281856113b4565b806001600160a01b0316336001600160a01b0316897f246ee6115bfd84e00097b16569c2ff2f822026bb9595a82cd2c1e69d4b6ea50c86888760405161095a93929190611e30565b60405180910390a45050505050505050565b6003818154811061097b575f80fd5b5f91825260209091200154905081565b5f818152600460209081526040808320815160a08101835281546001600160a01b0390811682526001830154168185015260028201805484518187028101870186528181528796939586019390929190830182828015610a0857602002820191905f5260205f20905b8154815260200190600101908083116109f4575b505050505081526020016003820154815260200160048201548152505090508060800151915080606001515f03610a555760405163e0606b6360e01b8152600481018490526024016106fc565b5f805f805f610a6261145b565b5050945094509450945094505f841115610b21575f5b8251811015610b1f5788838281518110610a9457610a94611ddd565b602002602001015103610b0f5785841115610aea578386838381518110610abd57610abd611ddd565b6020026020010151610acf9190611e54565b610ad99190611e6b565b610ae39089611bae565b9750610b1f565b818181518110610afc57610afc611ddd565b602002602001015188610ae39190611bae565b610b1881611df1565b9050610a78565b505b505050505050919050565b6001545f03610b4e5760405163afb0be3360e01b815260040160405180910390fd5b6005547f00000000000000000000000000000000000000000000000000000000000000008103610bb35760405163fd20861560e01b81527f000000000000000000000000000000000000000000000000000000000000000060048201526024016106fc565b60405163ef0e239b60e01b8152600481018390525f907f00000000000000000000000000000000000000000000000000000000000000006001600160a01b03169063ef0e239b906024015f60405180830381865afa158015610c17573d5f803e3d5ffd5b505050506040513d5f823e601f3d908101601f19168201604052610c3e9190810190611fa8565b9050806080015163ffffffff167f000000000000000000000000000000000000000000000000000000000000000014610c8d57604051637ad404bf60e11b8152600481018490526024016106fc565b7f000000000000000000000000000000000000000000000000000000000000000015801590610ce0575080604001517f000000000000000000000000000000000000000000000000000000000000000014155b15610d0157604051637ad404bf60e11b8152600481018490526024016106fc565b5f7f0000000000000000000000000000000000000000000000000000000000000000118015610d5a5750806060015163ffffffff167f000000000000000000000000000000000000000000000000000000000000000014155b15610d7b57604051637ad404bf60e11b8152600481018490526024016106fc565b60048160c001516005811115610d9357610d93612081565b14610dd2578060c001516005811115610dae57610dae612081565b604051633c053f9d60e21b81526004810191909152602481018490526044016106fc565b5f81602001516001600160a01b0316803b806020016040519081016040528181525f908060200190933c805190602001209050807f000000000000000000000000000000000000000000000000000000000000000014610e5557602082015160405162a2307960e51b81526001600160a01b0390911660048201526024016106fc565b6003548015610f215760e083015151818114610e8757604051637ad404bf60e11b8152600481018790526024016106fc565b5f5b81811015610f1e578460e001518181518110610ea757610ea7611ddd565b602002602001015163ffffffff1660038281548110610ec857610ec8611ddd565b905f5260205f20015414610f0e5760038181548110610ee957610ee9611ddd565b905f5260205f200154604051632ab10b0b60e21b81526004016106fc91815260200190565b610f1781611df1565b9050610e89565b50505b610f3c85845f01516bffffffffffffffffffffffff166117e4565b5f85815260046020908152604082209085015181546001600160a01b03821673ffffffffffffffffffffffffffffffffffffffff1991821617835560018301805490911633179055909190610f9090611852565b8051909150610fa89060028401906020840190611b3d565b50426003830155600580546001810182555f919091527f036b6384b5eca791c62761152d0c79bb0604c104a5fb6f4eb0703f3154bb3db001879055604051632142170760e11b8152336004820152306024820152604481018890527f00000000000000000000000000000000000000000000000000000000000000006001600160a01b0316906342842e0e906064015f604051808303815f87803b15801561104e575f80fd5b505af1158015611060573d5f803e3d5ffd5b5050505084602001516001600160a01b0316336001600160a01b0316887f5d43ac9b1b213902df90d405b0006308578486b6c62182c5df202ed572c844e4846040516110ac9190612095565b60405180910390a450505050505050565b6060805f6060805f805f805f805f806110d461145b565b96509650965096509650965096505f8611156112ca575f8786111561123d575f8060015b8981101561119357888b88838151811061111457611114611ddd565b60200260200101516111269190611e54565b6111309190611e6b565b925061113c8383611bae565b915087818151811061115057611150611ddd565b602002602001015193508260045f8681526020019081526020015f206004015f82825461117d9190611bae565b9091555061118c905081611df1565b90506110f8565b50878a875f815181106111a8576111a8611ddd565b60200260200101516111ba9190611e54565b6111c49190611e6b565b91506111d08282611bae565b9050865f815181106111e4576111e4611ddd565b60200260200101519250808a111561120d57611200818b611e09565b61120a9083611bae565b91505b5f838152600460208190526040822001805484929061122d908490611bae565b909155505f9a506112c392505050565b5f5b878110156112b55785818151811061125957611259611ddd565b6020026020010151915084818151811061127557611275611ddd565b602002602001015160045f8481526020019081526020015f206004015f82825461129f9190611bae565b909155506112ae905081611df1565b905061123f565b506112c08689611e09565b97505b5060018790555b805115611390575f5b825181101561134d575f8382815181106112ef576112ef611ddd565b6020026020010151905082828151811061130b5761130b611ddd565b602002602001015160045f8381526020019081526020015f20600201908051906020019061133a929190611b3d565b50508061134690611df1565b90506112d3565b50426002556040805188815260208101889052600199507f21d81d5d656869e8ce3ba8d65526a2f0dbbcd3d36f5f9999eb7c84360e45eced910160405180910390a15b909c909b509399509097509550929350915050565b6005818154811061097b575f80fd5b805f808282546113c49190611e09565b90915550506040515f906001600160a01b0384169083908381818185875af1925050503d805f8114611411576040519150601f19603f3d011682016040523d82523d5f602084013e611416565b606091505b50509050806114565760405163cd3f165960e01b81525f60048201523060248201526001600160a01b0384166044820152606481018390526084016106fc565b505050565b5f805f6060806060805f60058054905090508067ffffffffffffffff81111561148657611486611e8a565b6040519080825280602002602001820160405280156114af578160200160208202803683370190505b5092505f5b8181101561150557600581815481106114cf576114cf611ddd565b905f5260205f2001548482815181106114ea576114ea611ddd565b60209081029190910101526114fe81611df1565b90506114b4565b506002547f00000000000000000000000000000000000000000000000000000000000000006115348242611e09565b106117d957600154985088156117d9578167ffffffffffffffff81111561155d5761155d611e8a565b604051908082528060200260200182016040528015611586578160200160208202803683370190505b5095508167ffffffffffffffff8111156115a2576115a2611e8a565b6040519080825280602002602001820160405280156115cb578160200160208202803683370190505b5094508167ffffffffffffffff8111156115e7576115e7611e8a565b60405190808252806020026020018201604052801561161a57816020015b60608152602001906001900390816116055790505b5092505f5b828110156117d7575f60045f87848151811061163d5761163d611ddd565b60209081029190910181015182528101919091526040015f20805490915061166d906001600160a01b0316611852565b85838151811061167f5761167f611ddd565b6020908102919091010152600381015483908181111561169d578091505b6116a78242611e09565b90505f61171e8886815181106116bf576116bf611ddd565b60200260200101518560020180548060200260200160405190810160405280929190818152602001828054801561171357602002820191905f5260205f20905b8154815260200190600101908083116116ff575b505050505084611863565b905080156117c2575f611751837f0000000000000000000000000000000000000000000000000000000000000000611e54565b905061175d818e611bae565b9c50808b8f8151811061177257611772611ddd565b60200260200101818152505089868151811061179057611790611ddd565b60200260200101518c8f815181106117aa576117aa611ddd565b60209081029190910101526117be8e611df1565b9d50505b50505050806117d090611df1565b905061161f565b505b505090919293949596565b7f000000000000000000000000000000000000000000000000000000000000000081101561184e5760405163491a2bb160e01b8152600481018290527f000000000000000000000000000000000000000000000000000000000000000060248201526044016106fc565b5050565b606061185d82611877565b92915050565b5f61186f8484846119c0565b949350505050565b6040805160028082526060808301845292602083019080368337019050509050816001600160a01b031663affed0e06040518163ffffffff1660e01b8152600401602060405180830381865afa1580156118d3573d5f803e3d5ffd5b505050506040513d601f19601f820116820180604052508101906118f791906120a7565b815f8151811061190957611909611ddd565b6020908102919091010152604051637af7347360e01b81526001600160a01b0383811660048301527f00000000000000000000000000000000000000000000000000000000000000001690637af7347390602401602060405180830381865afa158015611978573d5f803e3d5ffd5b505050506040513d601f19601f8201168201806040525081019061199c91906120a7565b816001815181106119af576119af611ddd565b602002602001018181525050919050565b5f8082118015611a015750825f815181106119dd576119dd611ddd565b6020026020010151845f815181106119f7576119f7611ddd565b6020026020010151115b8015611a40575082600181518110611a1b57611a1b611ddd565b602002602001015184600181518110611a3657611a36611ddd565b6020026020010151115b15611b18575f835f81518110611a5857611a58611ddd565b6020026020010151855f81518110611a7257611a72611ddd565b6020026020010151611a849190611e09565b90505f84600181518110611a9a57611a9a611ddd565b602002602001015186600181518110611ab557611ab5611ddd565b6020026020010151611ac79190611e09565b9050818111611b15575f84611ae483670de0b6b3a7640000611e54565b611aee9190611e6b565b7f000000000000000000000000000000000000000000000000000000000000000011159350505b50505b9392505050565b5080545f8255905f5260205f2090810190611b3a9190611b86565b50565b828054828255905f5260205f20908101928215611b76579160200282015b82811115611b76578251825591602001919060010190611b5b565b50611b82929150611b86565b5090565b5b80821115611b82575f8155600101611b87565b634e487b7160e01b5f52601160045260245ffd5b8082018082111561185d5761185d611b9a565b6001600160a01b0381168114611b3a575f80fd5b5f805f805f60808688031215611be9575f80fd5b8535611bf481611bc1565b94506020860135611c0481611bc1565b935060408601359250606086013567ffffffffffffffff80821115611c27575f80fd5b818801915088601f830112611c3a575f80fd5b813581811115611c48575f80fd5b896020828501011115611c59575f80fd5b9699959850939650602001949392505050565b5f60208284031215611c7c575f80fd5b5035919050565b5f8151808452602080850194508084015f5b83811015611cb157815187529582019590820190600101611c95565b509495945050505050565b60c081525f611cce60c0830189611c83565b6020838203818501528189518084528284019150828160051b850101838c015f805b84811015611d4357878403601f19018652825180518086529088019088860190845b81811015611d2e5783518352928a0192918a0191600101611d12565b50509688019694505091860191600101611cf0565b5050508a60408801528681036060880152611d5e818b611c83565b9450505050508281036080840152611d768186611c83565b915050611d8760a083018415159052565b979650505050505050565b5f6020808352835180828501525f5b81811015611dbd57858101830151858201604001528201611da1565b505f604082860101526040601f19601f8301168501019250505092915050565b634e487b7160e01b5f52603260045260245ffd5b5f60018201611e0257611e02611b9a565b5060010190565b8181038181111561185d5761185d611b9a565b634e487b7160e01b5f52603160045260245ffd5b606081525f611e426060830186611c83565b60208301949094525060400152919050565b808202811582820484141761185d5761185d611b9a565b5f82611e8557634e487b7160e01b5f52601260045260245ffd5b500490565b634e487b7160e01b5f52604160045260245ffd5b604051610100810167ffffffffffffffff81118282101715611ec257611ec2611e8a565b60405290565b80516bffffffffffffffffffffffff81168114611ee3575f80fd5b919050565b8051611ee381611bc1565b805163ffffffff81168114611ee3575f80fd5b805160068110611ee3575f80fd5b5f82601f830112611f23575f80fd5b8151602067ffffffffffffffff80831115611f4057611f40611e8a565b8260051b604051601f19603f83011681018181108482111715611f6557611f65611e8a565b604052938452858101830193838101925087851115611f82575f80fd5b83870191505b84821015611d8757611f9982611ef3565b83529183019190830190611f88565b5f60208284031215611fb8575f80fd5b815167ffffffffffffffff80821115611fcf575f80fd5b908301906101008286031215611fe3575f80fd5b611feb611e9e565b611ff483611ec8565b815261200260208401611ee8565b60208201526040830151604082015261201d60608401611ef3565b606082015261202e60808401611ef3565b608082015261203f60a08401611ef3565b60a082015261205060c08401611f06565b60c082015260e083015182811115612066575f80fd5b61207287828601611f14565b60e08301525095945050505050565b634e487b7160e01b5f52602160045260245ffd5b602081525f611b186020830184611c83565b5f602082840312156120b7575f80fd5b505191905056fea26469706673582212209fa34cdd93a4f652771ea27455eff3fbba2015d4998ab933fee9b65e99c3959f64736f6c63430008150033",
  "linkReferences": {},
  "deployedLinkReferences": {}
}