{
  "_format": "hh-sol-artifact-1",
  "contractName": "ServiceStakingToken",
  "sourceName": "contracts/staking/ServiceStakingToken.sol",
  "abi": [
    {
      "inputs": [
        {
          "components": [
            {
              "internalType": "uint256",
              "name": "maxNumServices",
              "type": "uint256"
            },
            {
              "internalType": "uint256",
              "name": "rewardsPerSecond",
              "type": "uint256"
            },
            {
              "internalType": "uint256",
              "name": "minStakingDeposit",
              "type": "uint256"
            },
            {
              "internalType": "uint256",
              "name": "livenessPeriod",
              "type": "uint256"
            },
            {
              "internalType": "uint256",
              "name": "livenessRatio",
              "type": "uint256"
            },
            {
              "internalType": "uint256",
              "name": "numAgentInstances",
              "type": "uint256"
            },
            {
              "internalType": "uint256[]",
              "name": "agentIds",
              "type": "uint256[]"
            },
            {
              "internalType": "uint256",
              "name": "threshold",
              "type": "uint256"
            },
            {
              "internalType": "bytes32",
              "name": "configHash",
              "type": "bytes32"
            }
          ],
          "internalType": "struct ServiceStakingBase.StakingParams",
          "name": "_stakingParams",
          "type": "tuple"
        },
        {
          "internalType": "address",
          "name": "_serviceRegistry",
          "type": "address"
        },
        {
          "internalType": "address",
          "name": "_serviceRegistryTokenUtility",
          "type": "address"
        },
        {
          "internalType": "address",
          "name": "_stakingToken",
          "type": "address"
        },
        {
          "internalType": "bytes32",
          "name": "_proxyHash",
          "type": "bytes32"
        }
      ],
      "stateMutability": "nonpayable",
      "type": "constructor"
    },
    {
      "inputs": [
        {
          "internalType": "address",
          "name": "operator",
          "type": "address"
        }
      ],
      "name": "AgentInstanceRegistered",
      "type": "error"
    },
    {
      "inputs": [
        {
          "internalType": "uint256",
          "name": "serviceId",
          "type": "uint256"
        }
      ],
      "name": "AgentInstancesSlotsFilled",
      "type": "error"
    },
    {
      "inputs": [
        {
          "internalType": "uint256",
          "name": "agentId",
          "type": "uint256"
        }
      ],
      "name": "AgentNotFound",
      "type": "error"
    },
    {
      "inputs": [
        {
          "internalType": "uint256",
          "name": "agentId",
          "type": "uint256"
        },
        {
          "internalType": "uint256",
          "name": "serviceId",
          "type": "uint256"
        }
      ],
      "name": "AgentNotInService",
      "type": "error"
    },
    {
      "inputs": [
        {
          "internalType": "uint256",
          "name": "componentId",
          "type": "uint256"
        }
      ],
      "name": "ComponentNotFound",
      "type": "error"
    },
    {
      "inputs": [],
      "name": "HashExists",
      "type": "error"
    },
    {
      "inputs": [
        {
          "internalType": "uint256",
          "name": "sent",
          "type": "uint256"
        },
        {
          "internalType": "uint256",
          "name": "expected",
          "type": "uint256"
        },
        {
          "internalType": "uint256",
          "name": "serviceId",
          "type": "uint256"
        }
      ],
      "name": "IncorrectAgentBondingValue",
      "type": "error"
    },
    {
      "inputs": [
        {
          "internalType": "uint256",
          "name": "sent",
          "type": "uint256"
        },
        {
          "internalType": "uint256",
          "name": "expected",
          "type": "uint256"
        },
        {
          "internalType": "uint256",
          "name": "serviceId",
          "type": "uint256"
        }
      ],
      "name": "IncorrectRegistrationDepositValue",
      "type": "error"
    },
    {
      "inputs": [
        {
          "internalType": "uint256",
          "name": "provided",
          "type": "uint256"
        },
        {
          "internalType": "uint256",
          "name": "expected",
          "type": "uint256"
        }
      ],
      "name": "LowerThan",
      "type": "error"
    },
    {
      "inputs": [
        {
          "internalType": "address",
          "name": "sender",
          "type": "address"
        },
        {
          "internalType": "address",
          "name": "manager",
          "type": "address"
        }
      ],
      "name": "ManagerOnly",
      "type": "error"
    },
    {
      "inputs": [
        {
          "internalType": "uint256",
          "name": "maxNumServices",
          "type": "uint256"
        }
      ],
      "name": "MaxNumServicesReached",
      "type": "error"
    },
    {
      "inputs": [],
      "name": "NoRewardsAvailable",
      "type": "error"
    },
    {
      "inputs": [
        {
          "internalType": "address",
          "name": "provided",
          "type": "address"
        },
        {
          "internalType": "address",
          "name": "expected",
          "type": "address"
        },
        {
          "internalType": "uint256",
          "name": "serviceId",
          "type": "uint256"
        }
      ],
      "name": "OnlyOwnServiceMultisig",
      "type": "error"
    },
    {
      "inputs": [
        {
          "internalType": "address",
          "name": "operator",
          "type": "address"
        },
        {
          "internalType": "uint256",
          "name": "serviceId",
          "type": "uint256"
        }
      ],
      "name": "OperatorHasNoInstances",
      "type": "error"
    },
    {
      "inputs": [
        {
          "internalType": "uint256",
          "name": "provided",
          "type": "uint256"
        },
        {
          "internalType": "uint256",
          "name": "max",
          "type": "uint256"
        }
      ],
      "name": "Overflow",
      "type": "error"
    },
    {
      "inputs": [
        {
          "internalType": "address",
          "name": "sender",
          "type": "address"
        },
        {
          "internalType": "address",
          "name": "owner",
          "type": "address"
        }
      ],
      "name": "OwnerOnly",
      "type": "error"
    },
    {
      "inputs": [],
      "name": "Paused",
      "type": "error"
    },
    {
      "inputs": [],
      "name": "ReentrancyGuard",
      "type": "error"
    },
    {
      "inputs": [
        {
          "internalType": "uint256",
          "name": "serviceId",
          "type": "uint256"
        }
      ],
      "name": "ServiceMustBeInactive",
      "type": "error"
    },
    {
      "inputs": [
        {
          "internalType": "uint256",
          "name": "serviceId",
          "type": "uint256"
        }
      ],
      "name": "ServiceNotStaked",
      "type": "error"
    },
    {
      "inputs": [
        {
          "internalType": "address",
          "name": "token",
          "type": "address"
        },
        {
          "internalType": "address",
          "name": "from",
          "type": "address"
        },
        {
          "internalType": "address",
          "name": "to",
          "type": "address"
        },
        {
          "internalType": "uint256",
          "name": "value",
          "type": "uint256"
        }
      ],
      "name": "TokenTransferFailed",
      "type": "error"
    },
    {
      "inputs": [
        {
          "internalType": "address",
          "name": "token",
          "type": "address"
        },
        {
          "internalType": "address",
          "name": "from",
          "type": "address"
        },
        {
          "internalType": "address",
          "name": "to",
          "type": "address"
        },
        {
          "internalType": "uint256",
          "name": "value",
          "type": "uint256"
        }
      ],
      "name": "TransferFailed",
      "type": "error"
    },
    {
      "inputs": [
        {
          "internalType": "address",
          "name": "multisig",
          "type": "address"
        }
      ],
      "name": "UnauthorizedMultisig",
      "type": "error"
    },
    {
      "inputs": [
        {
          "internalType": "uint256",
          "name": "provided",
          "type": "uint256"
        },
        {
          "internalType": "uint256",
          "name": "expected",
          "type": "uint256"
        }
      ],
      "name": "ValueLowerThan",
      "type": "error"
    },
    {
      "inputs": [
        {
          "internalType": "uint256",
          "name": "agentId",
          "type": "uint256"
        }
      ],
      "name": "WrongAgentId",
      "type": "error"
    },
    {
      "inputs": [
        {
          "internalType": "uint256",
          "name": "numValues1",
          "type": "uint256"
        },
        {
          "internalType": "uint256",
          "name": "numValues2",
          "type": "uint256"
        }
      ],
      "name": "WrongArrayLength",
      "type": "error"
    },
    {
      "inputs": [
        {
          "internalType": "uint256",
          "name": "serviceId",
          "type": "uint256"
        }
      ],
      "name": "WrongOperator",
      "type": "error"
    },
    {
      "inputs": [
        {
          "internalType": "uint256",
          "name": "serviceId",
          "type": "uint256"
        }
      ],
      "name": "WrongServiceConfiguration",
      "type": "error"
    },
    {
      "inputs": [
        {
          "internalType": "uint256",
          "name": "state",
          "type": "uint256"
        },
        {
          "internalType": "uint256",
          "name": "serviceId",
          "type": "uint256"
        }
      ],
      "name": "WrongServiceState",
      "type": "error"
    },
    {
      "inputs": [
        {
          "internalType": "address",
          "name": "expected",
          "type": "address"
        },
        {
          "internalType": "address",
          "name": "provided",
          "type": "address"
        }
      ],
      "name": "WrongStakingToken",
      "type": "error"
    },
    {
      "inputs": [
        {
          "internalType": "uint256",
          "name": "currentThreshold",
          "type": "uint256"
        },
        {
          "internalType": "uint256",
          "name": "minThreshold",
          "type": "uint256"
        },
        {
          "internalType": "uint256",
          "name": "maxThreshold",
          "type": "uint256"
        }
      ],
      "name": "WrongThreshold",
      "type": "error"
    },
    {
      "inputs": [],
      "name": "ZeroAddress",
      "type": "error"
    },
    {
      "inputs": [],
      "name": "ZeroValue",
      "type": "error"
    },
    {
      "anonymous": false,
      "inputs": [
        {
          "indexed": false,
          "internalType": "uint256",
          "name": "availableRewards",
          "type": "uint256"
        },
        {
          "indexed": false,
          "internalType": "uint256",
          "name": "numServices",
          "type": "uint256"
        }
      ],
      "name": "Checkpoint",
      "type": "event"
    },
    {
      "anonymous": false,
      "inputs": [
        {
          "indexed": true,
          "internalType": "address",
          "name": "sender",
          "type": "address"
        },
        {
          "indexed": false,
          "internalType": "uint256",
          "name": "amount",
          "type": "uint256"
        },
        {
          "indexed": false,
          "internalType": "uint256",
          "name": "balance",
          "type": "uint256"
        },
        {
          "indexed": false,
          "internalType": "uint256",
          "name": "availableRewards",
          "type": "uint256"
        }
      ],
      "name": "Deposit",
      "type": "event"
    },
    {
      "anonymous": false,
      "inputs": [
        {
          "indexed": true,
          "internalType": "uint256",
          "name": "serviceId",
          "type": "uint256"
        },
        {
          "indexed": true,
          "internalType": "address",
          "name": "owner",
          "type": "address"
        },
        {
          "indexed": true,
          "internalType": "address",
          "name": "multisig",
          "type": "address"
        },
        {
          "indexed": false,
          "internalType": "uint256[]",
          "name": "nonces",
          "type": "uint256[]"
        }
      ],
      "name": "ServiceStaked",
      "type": "event"
    },
    {
      "anonymous": false,
      "inputs": [
        {
          "indexed": true,
          "internalType": "uint256",
          "name": "serviceId",
          "type": "uint256"
        },
        {
          "indexed": true,
          "internalType": "address",
          "name": "owner",
          "type": "address"
        },
        {
          "indexed": true,
          "internalType": "address",
          "name": "multisig",
          "type": "address"
        },
        {
          "indexed": false,
          "internalType": "uint256[]",
          "name": "nonces",
          "type": "uint256[]"
        },
        {
          "indexed": false,
          "internalType": "uint256",
          "name": "reward",
          "type": "uint256"
        },
        {
          "indexed": false,
          "internalType": "uint256",
          "name": "tsStart",
          "type": "uint256"
        }
      ],
      "name": "ServiceUnstaked",
      "type": "event"
    },
    {
      "anonymous": false,
      "inputs": [
        {
          "indexed": true,
          "internalType": "address",
          "name": "to",
          "type": "address"
        },
        {
          "indexed": false,
          "internalType": "uint256",
          "name": "amount",
          "type": "uint256"
        }
      ],
      "name": "Withdraw",
      "type": "event"
    },
    {
      "inputs": [],
      "name": "VERSION",
      "outputs": [
        {
          "internalType": "string",
          "name": "",
          "type": "string"
        }
      ],
      "stateMutability": "view",
      "type": "function"
    },
    {
      "inputs": [
        {
          "internalType": "uint256",
          "name": "",
          "type": "uint256"
        }
      ],
      "name": "agentIds",
      "outputs": [
        {
          "internalType": "uint256",
          "name": "",
          "type": "uint256"
        }
      ],
      "stateMutability": "view",
      "type": "function"
    },
    {
      "inputs": [],
      "name": "availableRewards",
      "outputs": [
        {
          "internalType": "uint256",
          "name": "",
          "type": "uint256"
        }
      ],
      "stateMutability": "view",
      "type": "function"
    },
    {
      "inputs": [],
      "name": "balance",
      "outputs": [
        {
          "internalType": "uint256",
          "name": "",
          "type": "uint256"
        }
      ],
      "stateMutability": "view",
      "type": "function"
    },
    {
      "inputs": [
        {
          "internalType": "uint256",
          "name": "serviceId",
          "type": "uint256"
        }
      ],
      "name": "calculateServiceStakingReward",
      "outputs": [
        {
          "internalType": "uint256",
          "name": "reward",
          "type": "uint256"
        }
      ],
      "stateMutability": "view",
      "type": "function"
    },
    {
      "inputs": [],
      "name": "checkpoint",
      "outputs": [
        {
          "internalType": "uint256[]",
          "name": "",
          "type": "uint256[]"
        },
        {
          "internalType": "uint256[][]",
          "name": "",
          "type": "uint256[][]"
        },
        {
          "internalType": "uint256",
          "name": "",
          "type": "uint256"
        },
        {
          "internalType": "uint256[]",
          "name": "",
          "type": "uint256[]"
        },
        {
          "internalType": "uint256[]",
          "name": "",
          "type": "uint256[]"
        },
        {
          "internalType": "bool",
          "name": "success",
          "type": "bool"
        }
      ],
      "stateMutability": "nonpayable",
      "type": "function"
    },
    {
      "inputs": [],
      "name": "configHash",
      "outputs": [
        {
          "internalType": "bytes32",
          "name": "",
          "type": "bytes32"
        }
      ],
      "stateMutability": "view",
      "type": "function"
    },
    {
      "inputs": [
        {
          "internalType": "uint256",
          "name": "amount",
          "type": "uint256"
        }
      ],
      "name": "deposit",
      "outputs": [],
      "stateMutability": "nonpayable",
      "type": "function"
    },
    {
      "inputs": [],
      "name": "getNextRewardCheckpointTimestamp",
      "outputs": [
        {
          "internalType": "uint256",
          "name": "tsNext",
          "type": "uint256"
        }
      ],
      "stateMutability": "view",
      "type": "function"
    },
    {
      "inputs": [],
      "name": "getServiceIds",
      "outputs": [
        {
          "internalType": "uint256[]",
          "name": "serviceIds",
          "type": "uint256[]"
        }
      ],
      "stateMutability": "view",
      "type": "function"
    },
    {
      "inputs": [
        {
          "internalType": "uint256",
          "name": "serviceId",
          "type": "uint256"
        }
      ],
      "name": "isServiceStaked",
      "outputs": [
        {
          "internalType": "bool",
          "name": "isStaked",
          "type": "bool"
        }
      ],
      "stateMutability": "view",
      "type": "function"
    },
    {
      "inputs": [],
      "name": "livenessPeriod",
      "outputs": [
        {
          "internalType": "uint256",
          "name": "",
          "type": "uint256"
        }
      ],
      "stateMutability": "view",
      "type": "function"
    },
    {
      "inputs": [],
      "name": "livenessRatio",
      "outputs": [
        {
          "internalType": "uint256",
          "name": "",
          "type": "uint256"
        }
      ],
      "stateMutability": "view",
      "type": "function"
    },
    {
      "inputs": [
        {
          "internalType": "uint256",
          "name": "",
          "type": "uint256"
        }
      ],
      "name": "mapServiceInfo",
      "outputs": [
        {
          "internalType": "address",
          "name": "multisig",
          "type": "address"
        },
        {
          "internalType": "address",
          "name": "owner",
          "type": "address"
        },
        {
          "internalType": "uint256",
          "name": "tsStart",
          "type": "uint256"
        },
        {
          "internalType": "uint256",
          "name": "reward",
          "type": "uint256"
        }
      ],
      "stateMutability": "view",
      "type": "function"
    },
    {
      "inputs": [],
      "name": "maxNumServices",
      "outputs": [
        {
          "internalType": "uint256",
          "name": "",
          "type": "uint256"
        }
      ],
      "stateMutability": "view",
      "type": "function"
    },
    {
      "inputs": [],
      "name": "minStakingDeposit",
      "outputs": [
        {
          "internalType": "uint256",
          "name": "",
          "type": "uint256"
        }
      ],
      "stateMutability": "view",
      "type": "function"
    },
    {
      "inputs": [],
      "name": "numAgentInstances",
      "outputs": [
        {
          "internalType": "uint256",
          "name": "",
          "type": "uint256"
        }
      ],
      "stateMutability": "view",
      "type": "function"
    },
    {
      "inputs": [
        {
          "internalType": "address",
          "name": "",
          "type": "address"
        },
        {
          "internalType": "address",
          "name": "",
          "type": "address"
        },
        {
          "internalType": "uint256",
          "name": "",
          "type": "uint256"
        },
        {
          "internalType": "bytes",
          "name": "",
          "type": "bytes"
        }
      ],
      "name": "onERC721Received",
      "outputs": [
        {
          "internalType": "bytes4",
          "name": "",
          "type": "bytes4"
        }
      ],
      "stateMutability": "nonpayable",
      "type": "function"
    },
    {
      "inputs": [],
      "name": "proxyHash",
      "outputs": [
        {
          "internalType": "bytes32",
          "name": "",
          "type": "bytes32"
        }
      ],
      "stateMutability": "view",
      "type": "function"
    },
    {
      "inputs": [],
      "name": "rewardsPerSecond",
      "outputs": [
        {
          "internalType": "uint256",
          "name": "",
          "type": "uint256"
        }
      ],
      "stateMutability": "view",
      "type": "function"
    },
    {
      "inputs": [],
      "name": "serviceRegistry",
      "outputs": [
        {
          "internalType": "address",
          "name": "",
          "type": "address"
        }
      ],
      "stateMutability": "view",
      "type": "function"
    },
    {
      "inputs": [],
      "name": "serviceRegistryTokenUtility",
      "outputs": [
        {
          "internalType": "address",
          "name": "",
          "type": "address"
        }
      ],
      "stateMutability": "view",
      "type": "function"
    },
    {
      "inputs": [
        {
          "internalType": "uint256",
          "name": "",
          "type": "uint256"
        }
      ],
      "name": "setServiceIds",
      "outputs": [
        {
          "internalType": "uint256",
          "name": "",
          "type": "uint256"
        }
      ],
      "stateMutability": "view",
      "type": "function"
    },
    {
      "inputs": [
        {
          "internalType": "uint256",
          "name": "serviceId",
          "type": "uint256"
        }
      ],
      "name": "stake",
      "outputs": [],
      "stateMutability": "nonpayable",
      "type": "function"
    },
    {
      "inputs": [],
      "name": "stakingToken",
      "outputs": [
        {
          "internalType": "address",
          "name": "",
          "type": "address"
        }
      ],
      "stateMutability": "view",
      "type": "function"
    },
    {
      "inputs": [],
      "name": "threshold",
      "outputs": [
        {
          "internalType": "uint256",
          "name": "",
          "type": "uint256"
        }
      ],
      "stateMutability": "view",
      "type": "function"
    },
    {
      "inputs": [],
      "name": "tsCheckpoint",
      "outputs": [
        {
          "internalType": "uint256",
          "name": "",
          "type": "uint256"
        }
      ],
      "stateMutability": "view",
      "type": "function"
    },
    {
      "inputs": [
        {
          "internalType": "uint256",
          "name": "serviceId",
          "type": "uint256"
        }
      ],
      "name": "unstake",
      "outputs": [],
      "stateMutability": "nonpayable",
      "type": "function"
    }
  ],
  "bytecode": "0x61020060405234801562000011575f80fd5b506040516200286a3803806200286a8339810160408190526200003491620003b1565b848482825f01515f14806200004b57506020830151155b806200005957506060830151155b806200006757506080830151155b8062000075575060a0830151155b156200009457604051637c946ed760e01b815260040160405180910390fd5b600283604001511015620000d057604080840151905163491a2bb160e01b81526004810191909152600260248201526044015b60405180910390fd5b6001600160a01b038216620000f85760405163d92e233d60e01b815260040160405180910390fd5b82516080908152602084015160a0908152604085015160c052606085015160e09081529185015161010090815290850151610120526001600160a01b038416610180529084015161014052830151610160525f805b8460c00151518110156200022e57818560c001518281518110620001755762000175620004b4565b602002602001015111620001c1578460c0015181815181106200019c576200019c620004b4565b6020026020010151604051632ab10b0b60e21b8152600401620000c791815260200190565b8460c001518181518110620001da57620001da620004b4565b6020908102919091010151600380546001810182555f919091527fc2575a0e9e593c00f959f8c92f12db2869c3395a3b0502d05e2516446f71f85b0181905591506200022681620004c8565b90506200014d565b50816200024e57604051637c946ed760e01b815260040160405180910390fd5b506101a0525050426002556001600160a01b03821615806200027757506001600160a01b038316155b15620002965760405163d92e233d60e01b815260040160405180910390fd5b506001600160a01b039081166101e052166101c05250620004ed9050565b634e487b7160e01b5f52604160045260245ffd5b60405161012081016001600160401b0381118282101715620002ee57620002ee620002b4565b60405290565b5f82601f83011262000304575f80fd5b815160206001600160401b0380831115620003235762000323620002b4565b8260051b604051601f19603f830116810181811084821117156200034b576200034b620002b4565b60405293845285810183019383810192508785111562000369575f80fd5b83870191505b848210156200038a578151835291830191908301906200036f565b979650505050505050565b80516001600160a01b0381168114620003ac575f80fd5b919050565b5f805f805f60a08688031215620003c6575f80fd5b85516001600160401b0380821115620003dd575f80fd5b90870190610120828a031215620003f2575f80fd5b620003fc620002c8565b825181526020830151602082015260408301516040820152606083015160608201526080830151608082015260a083015160a082015260c08301518281111562000444575f80fd5b620004528b828601620002f4565b60c08301525060e083810151908201526101009283015192810192909252509450620004816020870162000395565b9350620004916040870162000395565b9250620004a16060870162000395565b9150608086015190509295509295909350565b634e487b7160e01b5f52603260045260245ffd5b5f60018201620004e657634e487b7160e01b5f52601160045260245ffd5b5060010190565b60805160a05160c05160e05161010051610120516101405161016051610180516101a0516101c0516101e05161225f6200060b5f395f818161035a01528181610fec01528181611444015281816118be015261190201525f818161024e015261184601525f81816103940152610d0801525f818161047a015281816107b201528181610acb0152610f0501525f81816104d501528181610b8f0152610bbe01525f81816102ab01528181610c040152610c3801525f818161030c0152610b4d01525f81816103330152611c2b01525f81816102d2015281816113f801526114c701525f81816104fc01528181611939015261199001525f8181610523015261176d01525f818161021901528181610a530152610a87015261225f5ff3fe608060405234801561000f575f80fd5b50600436106101bb575f3560e01c8063a694fc3a116100f3578063e1f1176d11610093578063eb338c961161006e578063eb338c9614610545578063f189e85a14610558578063f4dce7141461056d578063ffa1ad7414610575575f80fd5b8063e1f1176d146104d0578063e77cdcc9146104f7578063eacdaabc1461051e575f80fd5b8063b6b55f25116100ce578063b6b55f2514610448578063c2c4c5c11461045b578063cbcf252a14610475578063cd25fe381461049c575f80fd5b8063a694fc3a146103bf578063a74466ad146103d2578063b69ef8a814610440575f80fd5b806356e760581161015e57806372f702f31161013957806372f702f31461035557806378e061361461037c578063809cee2f1461038f578063879d9090146103b6575f80fd5b806356e76058146102f45780635829c5ec14610307578063592cf3fb1461032e575f80fd5b80632e17de78116101995780632e17de78146102885780633e7329971461029d57806342cde4e8146102a657806352c824f5146102cd575f80fd5b8063150b7a02146101bf57806316a75172146102145780632871405114610249575b5f80fd5b6101de6101cd366004611ce6565b630a85bd0160e11b95945050505050565b6040517fffffffff0000000000000000000000000000000000000000000000000000000090911681526020015b60405180910390f35b61023b7f000000000000000000000000000000000000000000000000000000000000000081565b60405190815260200161020b565b6102707f000000000000000000000000000000000000000000000000000000000000000081565b6040516001600160a01b03909116815260200161020b565b61029b610296366004611d7d565b6105a6565b005b61023b60025481565b61023b7f000000000000000000000000000000000000000000000000000000000000000081565b61023b7f000000000000000000000000000000000000000000000000000000000000000081565b61023b610302366004611d7d565b610876565b61023b7f000000000000000000000000000000000000000000000000000000000000000081565b61023b7f000000000000000000000000000000000000000000000000000000000000000081565b6102707f000000000000000000000000000000000000000000000000000000000000000081565b61023b61038a366004611d7d565b610895565b61023b7f000000000000000000000000000000000000000000000000000000000000000081565b61023b60015481565b61029b6103cd366004611d7d565b610a2c565b6104156103e0366004611d7d565b600460208190525f918252604090912080546001820154600383015492909301546001600160a01b0391821693909116919084565b604080516001600160a01b03958616815294909316602085015291830152606082015260800161020b565b61023b5f5481565b61029b610456366004611d7d565b610fbd565b61046361105b565b60405161020b96959493929190611dcd565b6102707f000000000000000000000000000000000000000000000000000000000000000081565b6104c06104aa366004611d7d565b5f90815260046020526040902060030154151590565b604051901515815260200161020b565b61023b7f000000000000000000000000000000000000000000000000000000000000000081565b61023b7f000000000000000000000000000000000000000000000000000000000000000081565b61023b7f000000000000000000000000000000000000000000000000000000000000000081565b61023b610553366004611d7d565b611343565b610560611352565b60405161020b9190611ea3565b61023b6113f5565b610599604051806040016040528060058152602001640302e312e360dc1b81525081565b60405161020b9190611eb5565b5f81815260046020526040902060018101546001600160a01b031633146105fc57600181015460405163521eb56d60e11b81523360048201526001600160a01b0390911660248201526044015b60405180910390fd5b5f8061060661105b565b95505050505091508061061e5761061b611352565b91505b5f5b825181101561065a578483828151811061063c5761063c611f00565b6020026020010151031561065a5761065381611f28565b9050610620565b6004840154600285018054604080516020808402820181019092528281525f93909290918301828280156106ab57602002820191905f5260205f20905b815481526020019060010190808311610697575b505050600389015489545f8c8152600460205260408120805473ffffffffffffffffffffffffffffffffffffffff199081168255600182018054909116905595965091946001600160a01b039091169350915061070b6002830182611c57565b505f600382018190556004909101556005805461072a90600190611f40565b8154811061073a5761073a611f00565b905f5260205f2001546005868154811061075657610756611f00565b5f91825260209091200155600580548061077257610772611f53565b5f8281526020812082015f1990810191909155019055604051632142170760e11b8152306004820152336024820152604481018a90526001600160a01b037f000000000000000000000000000000000000000000000000000000000000000016906342842e0e906064015f604051808303815f87803b1580156107f3575f80fd5b505af1158015610805573d5f803e3d5ffd5b505050505f84111561081b5761081b8185611429565b806001600160a01b0316336001600160a01b03168a7f246ee6115bfd84e00097b16569c2ff2f822026bb9595a82cd2c1e69d4b6ea50c86888760405161086393929190611f67565b60405180910390a4505050505050505050565b60038181548110610885575f80fd5b5f91825260209091200154905081565b5f818152600460209081526040808320815160a08101835281546001600160a01b039081168252600183015416818501526002820180548451818702810187018652818152879693958601939092919083018282801561091257602002820191905f5260205f20905b8154815260200190600101908083116108fe575b505050505081526020016003820154815260200160048201548152505090508060800151915080606001515f0361095f5760405163e0606b6360e01b8152600481018490526024016105f3565b5f805f805f61096c6114b1565b5050945094509450945094505f5b84811015610a20578883828151811061099557610995611f00565b602002602001015103610a1057858411156109eb5783868383815181106109be576109be611f00565b60200260200101516109d09190611f8b565b6109da9190611fa2565b6109e49089611fc1565b9750610a20565b8181815181106109fd576109fd611f00565b6020026020010151886109e49190611fc1565b610a1981611f28565b905061097a565b50505050505050919050565b6001545f03610a4e5760405163afb0be3360e01b815260040160405180910390fd5b6005547f00000000000000000000000000000000000000000000000000000000000000008103610ab35760405163fd20861560e01b81527f000000000000000000000000000000000000000000000000000000000000000060048201526024016105f3565b60405163ef0e239b60e01b8152600481018390525f907f00000000000000000000000000000000000000000000000000000000000000006001600160a01b03169063ef0e239b906024015f60405180830381865afa158015610b17573d5f803e3d5ffd5b505050506040513d5f823e601f3d908101601f19168201604052610b3e91908101906120f2565b9050806080015163ffffffff167f000000000000000000000000000000000000000000000000000000000000000014610b8d57604051637ad404bf60e11b8152600481018490526024016105f3565b7f000000000000000000000000000000000000000000000000000000000000000015801590610be0575080604001517f000000000000000000000000000000000000000000000000000000000000000014155b15610c0157604051637ad404bf60e11b8152600481018490526024016105f3565b5f7f0000000000000000000000000000000000000000000000000000000000000000118015610c5a5750806060015163ffffffff167f000000000000000000000000000000000000000000000000000000000000000014155b15610c7b57604051637ad404bf60e11b8152600481018490526024016105f3565b60048160c001516005811115610c9357610c936121cb565b14610cd2578060c001516005811115610cae57610cae6121cb565b604051633c053f9d60e21b81526004810191909152602481018490526044016105f3565b5f81602001516001600160a01b0316803b806020016040519081016040528181525f908060200190933c805190602001209050807f000000000000000000000000000000000000000000000000000000000000000014610d5557602082015160405162a2307960e51b81526001600160a01b0390911660048201526024016105f3565b6003548015610e215760e083015151818114610d8757604051637ad404bf60e11b8152600481018790526024016105f3565b5f5b81811015610e1e578460e001518181518110610da757610da7611f00565b602002602001015163ffffffff1660038281548110610dc857610dc8611f00565b905f5260205f20015414610e0e5760038181548110610de957610de9611f00565b905f5260205f200154604051632ab10b0b60e21b81526004016105f391815260200190565b610e1781611f28565b9050610d89565b50505b610e3c85845f01516bffffffffffffffffffffffff16611824565b5f85815260046020908152604082209085015181546001600160a01b03821673ffffffffffffffffffffffffffffffffffffffff1991821617835560018301805490911633179055909190610e90906119c2565b8051909150610ea89060028401906020840190611c75565b50426003830155600580546001810182555f919091527f036b6384b5eca791c62761152d0c79bb0604c104a5fb6f4eb0703f3154bb3db001879055604051632142170760e11b8152336004820152306024820152604481018890527f00000000000000000000000000000000000000000000000000000000000000006001600160a01b0316906342842e0e906064015f604051808303815f87803b158015610f4e575f80fd5b505af1158015610f60573d5f803e3d5ffd5b5050505084602001516001600160a01b0316336001600160a01b0316887f5d43ac9b1b213902df90d405b0006308578486b6c62182c5df202ed572c844e484604051610fac9190611ea3565b60405180910390a450505050505050565b5f815f54610fcb9190611fc1565b90505f82600154610fdc9190611fc1565b5f839055600181905590506110137f00000000000000000000000000000000000000000000000000000000000000003330866119d3565b604080518481526020810184905290810182905233907f36af321ec8d3c75236829c5317affd40ddb308863a1236d2d277a4025cccee1e9060600160405180910390a2505050565b6060805f6060805f805f805f805f806110726114b1565b96509650965096509650965096505f861115611268575f878611156111db575f8060015b8981101561113157888b8883815181106110b2576110b2611f00565b60200260200101516110c49190611f8b565b6110ce9190611fa2565b92506110da8383611fc1565b91508781815181106110ee576110ee611f00565b602002602001015193508260045f8681526020019081526020015f206004015f82825461111b9190611fc1565b9091555061112a905081611f28565b9050611096565b50878a875f8151811061114657611146611f00565b60200260200101516111589190611f8b565b6111629190611fa2565b915061116e8282611fc1565b9050865f8151811061118257611182611f00565b60200260200101519250808a11156111ab5761119e818b611f40565b6111a89083611fc1565b91505b5f83815260046020819052604082200180548492906111cb908490611fc1565b909155505f9a5061126192505050565b5f5b87811015611253578581815181106111f7576111f7611f00565b6020026020010151915084818151811061121357611213611f00565b602002602001015160045f8481526020019081526020015f206004015f82825461123d9190611fc1565b9091555061124c905081611f28565b90506111dd565b5061125e8689611f40565b97505b5060018790555b80511561132e575f5b82518110156112eb575f83828151811061128d5761128d611f00565b602002602001015190508282815181106112a9576112a9611f00565b602002602001015160045f8381526020019081526020015f2060020190805190602001906112d8929190611c75565b5050806112e490611f28565b9050611271565b50426002556040805188815260208101889052600199507f21d81d5d656869e8ce3ba8d65526a2f0dbbcd3d36f5f9999eb7c84360e45eced910160405180910390a15b909c909b509399509097509550929350915050565b60058181548110610885575f80fd5b6005546060908067ffffffffffffffff81111561137157611371611fd4565b60405190808252806020026020018201604052801561139a578160200160208202803683370190505b5091505f5b818110156113f057600581815481106113ba576113ba611f00565b905f5260205f2001548382815181106113d5576113d5611f00565b60209081029190910101526113e981611f28565b905061139f565b505090565b5f7f00000000000000000000000000000000000000000000000000000000000000006002546114249190611fc1565b905090565b805f808282546114399190611f40565b9091555061146a90507f00000000000000000000000000000000000000000000000000000000000000008383611a57565b816001600160a01b03167f884edad9ce6fa2440d8a54cc123490eb96d2768479d49ff9c7366125a9424364826040516114a591815260200190565b60405180910390a25050565b600254600154905f9081906060908190819081907f00000000000000000000000000000000000000000000000000000000000000006114f08242611f40565b101580156114fd57505f88115b1561181a576005548067ffffffffffffffff81111561151e5761151e611fd4565b604051908082528060200260200182016040528015611547578160200160208202803683370190505b5093508067ffffffffffffffff81111561156357611563611fd4565b60405190808252806020026020018201604052801561158c578160200160208202803683370190505b5095508067ffffffffffffffff8111156115a8576115a8611fd4565b6040519080825280602002602001820160405280156115d1578160200160208202803683370190505b5094508067ffffffffffffffff8111156115ed576115ed611fd4565b60405190808252806020026020018201604052801561162057816020015b606081526020019060019003908161160b5790505b5092505f5b81811015611817576005818154811061164057611640611f00565b905f5260205f20015485828151811061165b5761165b611f00565b6020026020010181815250505f60045f87848151811061167d5761167d611f00565b60209081029190910181015182528101919091526040015f2080549091506116ad906001600160a01b03166119c2565b8583815181106116bf576116bf611f00565b602090810291909101015260038101548490818111156116dd578091505b6116e78242611f40565b90505f61175e8886815181106116ff576116ff611f00565b60200260200101518560020180548060200260200160405190810160405280929190818152602001828054801561175357602002820191905f5260205f20905b81548152602001906001019080831161173f575b505050505084611ace565b90508015611802575f611791837f0000000000000000000000000000000000000000000000000000000000000000611f8b565b905061179d818e611fc1565b9c50808b8f815181106117b2576117b2611f00565b6020026020010181815250508986815181106117d0576117d0611f00565b60200260200101518c8f815181106117ea576117ea611f00565b60209081029190910101526117fe8e611f28565b9d50505b505050508061181090611f28565b9050611625565b50505b5090919293949596565b604051633cebfa4f60e01b8152600481018390525f9081906001600160a01b037f00000000000000000000000000000000000000000000000000000000000000001690633cebfa4f906024016040805180830381865afa15801561188a573d5f803e3d5ffd5b505050506040513d601f19601f820116820180604052508101906118ae91906121df565b91509150816001600160a01b03167f00000000000000000000000000000000000000000000000000000000000000006001600160a01b03161461193757604051630b80380d60e31b81526001600160a01b037f000000000000000000000000000000000000000000000000000000000000000081166004830152831660248201526044016105f3565b7f0000000000000000000000000000000000000000000000000000000000000000816bffffffffffffffffffffffff1610156119bc57604051632b30b24760e21b81526bffffffffffffffffffffffff821660048201527f000000000000000000000000000000000000000000000000000000000000000060248201526044016105f3565b50505050565b60606119cd82611ae2565b92915050565b5f6040516323b872dd60e01b5f5284600452836024528260445260205f60645f808a5af13d15601f3d1160015f511416171691505f606052806040525080611a505760405163abae3d6d60e01b81526001600160a01b038087166004830152808616602483015284166044820152606481018390526084016105f3565b5050505050565b5f60405163a9059cbb60e01b5f52836004528260245260205f60445f80895af13d15601f3d1160015f511416171691505f6060528060405250806119bc5760405163abae3d6d60e01b81526001600160a01b03808616600483015230602483015284166044820152606481018390526084016105f3565b5f611ada848484611b87565b949350505050565b60408051600180825281830190925260609160208083019080368337019050509050816001600160a01b031663affed0e06040518163ffffffff1660e01b8152600401602060405180830381865afa158015611b40573d5f803e3d5ffd5b505050506040513d601f19601f82011682018060405250810190611b649190612212565b815f81518110611b7657611b76611f00565b602002602001018181525050919050565b5f8082118015611bc85750825f81518110611ba457611ba4611f00565b6020026020010151845f81518110611bbe57611bbe611f00565b6020026020010151115b15611c50575f82845f81518110611be157611be1611f00565b6020026020010151865f81518110611bfb57611bfb611f00565b6020026020010151611c0d9190611f40565b611c1f90670de0b6b3a7640000611f8b565b611c299190611fa2565b7f000000000000000000000000000000000000000000000000000000000000000011159150505b9392505050565b5080545f8255905f5260205f2090810190611c729190611cbe565b50565b828054828255905f5260205f20908101928215611cae579160200282015b82811115611cae578251825591602001919060010190611c93565b50611cba929150611cbe565b5090565b5b80821115611cba575f8155600101611cbf565b6001600160a01b0381168114611c72575f80fd5b5f805f805f60808688031215611cfa575f80fd5b8535611d0581611cd2565b94506020860135611d1581611cd2565b935060408601359250606086013567ffffffffffffffff80821115611d38575f80fd5b818801915088601f830112611d4b575f80fd5b813581811115611d59575f80fd5b896020828501011115611d6a575f80fd5b9699959850939650602001949392505050565b5f60208284031215611d8d575f80fd5b5035919050565b5f8151808452602080850194508084015f5b83811015611dc257815187529582019590820190600101611da6565b509495945050505050565b60c081525f611ddf60c0830189611d94565b6020838203818501528189518084528284019150828160051b850101838c015f805b84811015611e5457878403601f19018652825180518086529088019088860190845b81811015611e3f5783518352928a0192918a0191600101611e23565b50509688019694505091860191600101611e01565b5050508a60408801528681036060880152611e6f818b611d94565b9450505050508281036080840152611e878186611d94565b915050611e9860a083018415159052565b979650505050505050565b602081525f611c506020830184611d94565b5f6020808352835180828501525f5b81811015611ee057858101830151858201604001528201611ec4565b505f604082860101526040601f19601f8301168501019250505092915050565b634e487b7160e01b5f52603260045260245ffd5b634e487b7160e01b5f52601160045260245ffd5b5f60018201611f3957611f39611f14565b5060010190565b818103818111156119cd576119cd611f14565b634e487b7160e01b5f52603160045260245ffd5b606081525f611f796060830186611d94565b60208301949094525060400152919050565b80820281158282048414176119cd576119cd611f14565b5f82611fbc57634e487b7160e01b5f52601260045260245ffd5b500490565b808201808211156119cd576119cd611f14565b634e487b7160e01b5f52604160045260245ffd5b604051610100810167ffffffffffffffff8111828210171561200c5761200c611fd4565b60405290565b80516bffffffffffffffffffffffff8116811461202d575f80fd5b919050565b805161202d81611cd2565b805163ffffffff8116811461202d575f80fd5b80516006811061202d575f80fd5b5f82601f83011261206d575f80fd5b8151602067ffffffffffffffff8083111561208a5761208a611fd4565b8260051b604051601f19603f830116810181811084821117156120af576120af611fd4565b6040529384528581018301938381019250878511156120cc575f80fd5b83870191505b84821015611e98576120e38261203d565b835291830191908301906120d2565b5f60208284031215612102575f80fd5b815167ffffffffffffffff80821115612119575f80fd5b90830190610100828603121561212d575f80fd5b612135611fe8565b61213e83612012565b815261214c60208401612032565b6020820152604083015160408201526121676060840161203d565b60608201526121786080840161203d565b608082015261218960a0840161203d565b60a082015261219a60c08401612050565b60c082015260e0830151828111156121b0575f80fd5b6121bc8782860161205e565b60e08301525095945050505050565b634e487b7160e01b5f52602160045260245ffd5b5f80604083850312156121f0575f80fd5b82516121fb81611cd2565b915061220960208401612012565b90509250929050565b5f60208284031215612222575f80fd5b505191905056fea264697066735822122043c4706472a127ff5d3b2ef526f3b42aa32803e250ca3218ed6fb887f998489a64736f6c63430008150033",
  "linkReferences": {},
  "deployedLinkReferences": {}
}