{
  "_format": "hh-sol-artifact-1",
  "contractName": "ServiceStakingTokenMechUsage",
  "sourceName": "contracts/staking/ServiceStakingTokenMechUsage.sol",
  "abi": [
    {
      "inputs": [
        {
          "components": [
            {
              "internalType": "uint256",
              "name": "maxNumServices",
              "type": "uint256"
            },
            {
              "internalType": "uint256",
              "name": "rewardsPerSecond",
              "type": "uint256"
            },
            {
              "internalType": "uint256",
              "name": "minStakingDeposit",
              "type": "uint256"
            },
            {
              "internalType": "uint256",
              "name": "livenessPeriod",
              "type": "uint256"
            },
            {
              "internalType": "uint256",
              "name": "livenessRatio",
              "type": "uint256"
            },
            {
              "internalType": "uint256",
              "name": "numAgentInstances",
              "type": "uint256"
            },
            {
              "internalType": "uint256[]",
              "name": "agentIds",
              "type": "uint256[]"
            },
            {
              "internalType": "uint256",
              "name": "threshold",
              "type": "uint256"
            },
            {
              "internalType": "bytes32",
              "name": "configHash",
              "type": "bytes32"
            }
          ],
          "internalType": "struct ServiceStakingBase.StakingParams",
          "name": "_stakingParams",
          "type": "tuple"
        },
        {
          "internalType": "address",
          "name": "_serviceRegistry",
          "type": "address"
        },
        {
          "internalType": "address",
          "name": "_serviceRegistryTokenUtility",
          "type": "address"
        },
        {
          "internalType": "address",
          "name": "_stakingToken",
          "type": "address"
        },
        {
          "internalType": "bytes32",
          "name": "_proxyHash",
          "type": "bytes32"
        },
        {
          "internalType": "address",
          "name": "_agentMech",
          "type": "address"
        }
      ],
      "stateMutability": "nonpayable",
      "type": "constructor"
    },
    {
      "inputs": [
        {
          "internalType": "address",
          "name": "operator",
          "type": "address"
        }
      ],
      "name": "AgentInstanceRegistered",
      "type": "error"
    },
    {
      "inputs": [
        {
          "internalType": "uint256",
          "name": "serviceId",
          "type": "uint256"
        }
      ],
      "name": "AgentInstancesSlotsFilled",
      "type": "error"
    },
    {
      "inputs": [
        {
          "internalType": "uint256",
          "name": "agentId",
          "type": "uint256"
        }
      ],
      "name": "AgentNotFound",
      "type": "error"
    },
    {
      "inputs": [
        {
          "internalType": "uint256",
          "name": "agentId",
          "type": "uint256"
        },
        {
          "internalType": "uint256",
          "name": "serviceId",
          "type": "uint256"
        }
      ],
      "name": "AgentNotInService",
      "type": "error"
    },
    {
      "inputs": [
        {
          "internalType": "uint256",
          "name": "componentId",
          "type": "uint256"
        }
      ],
      "name": "ComponentNotFound",
      "type": "error"
    },
    {
      "inputs": [],
      "name": "HashExists",
      "type": "error"
    },
    {
      "inputs": [
        {
          "internalType": "uint256",
          "name": "sent",
          "type": "uint256"
        },
        {
          "internalType": "uint256",
          "name": "expected",
          "type": "uint256"
        },
        {
          "internalType": "uint256",
          "name": "serviceId",
          "type": "uint256"
        }
      ],
      "name": "IncorrectAgentBondingValue",
      "type": "error"
    },
    {
      "inputs": [
        {
          "internalType": "uint256",
          "name": "sent",
          "type": "uint256"
        },
        {
          "internalType": "uint256",
          "name": "expected",
          "type": "uint256"
        },
        {
          "internalType": "uint256",
          "name": "serviceId",
          "type": "uint256"
        }
      ],
      "name": "IncorrectRegistrationDepositValue",
      "type": "error"
    },
    {
      "inputs": [
        {
          "internalType": "uint256",
          "name": "provided",
          "type": "uint256"
        },
        {
          "internalType": "uint256",
          "name": "expected",
          "type": "uint256"
        }
      ],
      "name": "LowerThan",
      "type": "error"
    },
    {
      "inputs": [
        {
          "internalType": "address",
          "name": "sender",
          "type": "address"
        },
        {
          "internalType": "address",
          "name": "manager",
          "type": "address"
        }
      ],
      "name": "ManagerOnly",
      "type": "error"
    },
    {
      "inputs": [
        {
          "internalType": "uint256",
          "name": "maxNumServices",
          "type": "uint256"
        }
      ],
      "name": "MaxNumServicesReached",
      "type": "error"
    },
    {
      "inputs": [],
      "name": "NoRewardsAvailable",
      "type": "error"
    },
    {
      "inputs": [
        {
          "internalType": "address",
          "name": "provided",
          "type": "address"
        },
        {
          "internalType": "address",
          "name": "expected",
          "type": "address"
        },
        {
          "internalType": "uint256",
          "name": "serviceId",
          "type": "uint256"
        }
      ],
      "name": "OnlyOwnServiceMultisig",
      "type": "error"
    },
    {
      "inputs": [
        {
          "internalType": "address",
          "name": "operator",
          "type": "address"
        },
        {
          "internalType": "uint256",
          "name": "serviceId",
          "type": "uint256"
        }
      ],
      "name": "OperatorHasNoInstances",
      "type": "error"
    },
    {
      "inputs": [
        {
          "internalType": "uint256",
          "name": "provided",
          "type": "uint256"
        },
        {
          "internalType": "uint256",
          "name": "max",
          "type": "uint256"
        }
      ],
      "name": "Overflow",
      "type": "error"
    },
    {
      "inputs": [
        {
          "internalType": "address",
          "name": "sender",
          "type": "address"
        },
        {
          "internalType": "address",
          "name": "owner",
          "type": "address"
        }
      ],
      "name": "OwnerOnly",
      "type": "error"
    },
    {
      "inputs": [],
      "name": "Paused",
      "type": "error"
    },
    {
      "inputs": [],
      "name": "ReentrancyGuard",
      "type": "error"
    },
    {
      "inputs": [
        {
          "internalType": "uint256",
          "name": "serviceId",
          "type": "uint256"
        }
      ],
      "name": "ServiceMustBeInactive",
      "type": "error"
    },
    {
      "inputs": [
        {
          "internalType": "uint256",
          "name": "serviceId",
          "type": "uint256"
        }
      ],
      "name": "ServiceNotStaked",
      "type": "error"
    },
    {
      "inputs": [
        {
          "internalType": "address",
          "name": "token",
          "type": "address"
        },
        {
          "internalType": "address",
          "name": "from",
          "type": "address"
        },
        {
          "internalType": "address",
          "name": "to",
          "type": "address"
        },
        {
          "internalType": "uint256",
          "name": "value",
          "type": "uint256"
        }
      ],
      "name": "TokenTransferFailed",
      "type": "error"
    },
    {
      "inputs": [
        {
          "internalType": "address",
          "name": "token",
          "type": "address"
        },
        {
          "internalType": "address",
          "name": "from",
          "type": "address"
        },
        {
          "internalType": "address",
          "name": "to",
          "type": "address"
        },
        {
          "internalType": "uint256",
          "name": "value",
          "type": "uint256"
        }
      ],
      "name": "TransferFailed",
      "type": "error"
    },
    {
      "inputs": [
        {
          "internalType": "address",
          "name": "multisig",
          "type": "address"
        }
      ],
      "name": "UnauthorizedMultisig",
      "type": "error"
    },
    {
      "inputs": [
        {
          "internalType": "uint256",
          "name": "provided",
          "type": "uint256"
        },
        {
          "internalType": "uint256",
          "name": "expected",
          "type": "uint256"
        }
      ],
      "name": "ValueLowerThan",
      "type": "error"
    },
    {
      "inputs": [
        {
          "internalType": "uint256",
          "name": "agentId",
          "type": "uint256"
        }
      ],
      "name": "WrongAgentId",
      "type": "error"
    },
    {
      "inputs": [
        {
          "internalType": "uint256",
          "name": "numValues1",
          "type": "uint256"
        },
        {
          "internalType": "uint256",
          "name": "numValues2",
          "type": "uint256"
        }
      ],
      "name": "WrongArrayLength",
      "type": "error"
    },
    {
      "inputs": [
        {
          "internalType": "uint256",
          "name": "serviceId",
          "type": "uint256"
        }
      ],
      "name": "WrongOperator",
      "type": "error"
    },
    {
      "inputs": [
        {
          "internalType": "uint256",
          "name": "serviceId",
          "type": "uint256"
        }
      ],
      "name": "WrongServiceConfiguration",
      "type": "error"
    },
    {
      "inputs": [
        {
          "internalType": "uint256",
          "name": "state",
          "type": "uint256"
        },
        {
          "internalType": "uint256",
          "name": "serviceId",
          "type": "uint256"
        }
      ],
      "name": "WrongServiceState",
      "type": "error"
    },
    {
      "inputs": [
        {
          "internalType": "address",
          "name": "expected",
          "type": "address"
        },
        {
          "internalType": "address",
          "name": "provided",
          "type": "address"
        }
      ],
      "name": "WrongStakingToken",
      "type": "error"
    },
    {
      "inputs": [
        {
          "internalType": "uint256",
          "name": "currentThreshold",
          "type": "uint256"
        },
        {
          "internalType": "uint256",
          "name": "minThreshold",
          "type": "uint256"
        },
        {
          "internalType": "uint256",
          "name": "maxThreshold",
          "type": "uint256"
        }
      ],
      "name": "WrongThreshold",
      "type": "error"
    },
    {
      "inputs": [],
      "name": "ZeroAddress",
      "type": "error"
    },
    {
      "inputs": [],
      "name": "ZeroMechAgentAddress",
      "type": "error"
    },
    {
      "inputs": [],
      "name": "ZeroValue",
      "type": "error"
    },
    {
      "anonymous": false,
      "inputs": [
        {
          "indexed": false,
          "internalType": "uint256",
          "name": "availableRewards",
          "type": "uint256"
        },
        {
          "indexed": false,
          "internalType": "uint256",
          "name": "numServices",
          "type": "uint256"
        }
      ],
      "name": "Checkpoint",
      "type": "event"
    },
    {
      "anonymous": false,
      "inputs": [
        {
          "indexed": true,
          "internalType": "address",
          "name": "sender",
          "type": "address"
        },
        {
          "indexed": false,
          "internalType": "uint256",
          "name": "amount",
          "type": "uint256"
        },
        {
          "indexed": false,
          "internalType": "uint256",
          "name": "balance",
          "type": "uint256"
        },
        {
          "indexed": false,
          "internalType": "uint256",
          "name": "availableRewards",
          "type": "uint256"
        }
      ],
      "name": "Deposit",
      "type": "event"
    },
    {
      "anonymous": false,
      "inputs": [
        {
          "indexed": true,
          "internalType": "uint256",
          "name": "serviceId",
          "type": "uint256"
        },
        {
          "indexed": true,
          "internalType": "address",
          "name": "owner",
          "type": "address"
        },
        {
          "indexed": true,
          "internalType": "address",
          "name": "multisig",
          "type": "address"
        },
        {
          "indexed": false,
          "internalType": "uint256[]",
          "name": "nonces",
          "type": "uint256[]"
        }
      ],
      "name": "ServiceStaked",
      "type": "event"
    },
    {
      "anonymous": false,
      "inputs": [
        {
          "indexed": true,
          "internalType": "uint256",
          "name": "serviceId",
          "type": "uint256"
        },
        {
          "indexed": true,
          "internalType": "address",
          "name": "owner",
          "type": "address"
        },
        {
          "indexed": true,
          "internalType": "address",
          "name": "multisig",
          "type": "address"
        },
        {
          "indexed": false,
          "internalType": "uint256[]",
          "name": "nonces",
          "type": "uint256[]"
        },
        {
          "indexed": false,
          "internalType": "uint256",
          "name": "reward",
          "type": "uint256"
        },
        {
          "indexed": false,
          "internalType": "uint256",
          "name": "tsStart",
          "type": "uint256"
        }
      ],
      "name": "ServiceUnstaked",
      "type": "event"
    },
    {
      "anonymous": false,
      "inputs": [
        {
          "indexed": true,
          "internalType": "address",
          "name": "to",
          "type": "address"
        },
        {
          "indexed": false,
          "internalType": "uint256",
          "name": "amount",
          "type": "uint256"
        }
      ],
      "name": "Withdraw",
      "type": "event"
    },
    {
      "inputs": [],
      "name": "VERSION",
      "outputs": [
        {
          "internalType": "string",
          "name": "",
          "type": "string"
        }
      ],
      "stateMutability": "view",
      "type": "function"
    },
    {
      "inputs": [
        {
          "internalType": "uint256",
          "name": "",
          "type": "uint256"
        }
      ],
      "name": "agentIds",
      "outputs": [
        {
          "internalType": "uint256",
          "name": "",
          "type": "uint256"
        }
      ],
      "stateMutability": "view",
      "type": "function"
    },
    {
      "inputs": [],
      "name": "agentMech",
      "outputs": [
        {
          "internalType": "address",
          "name": "",
          "type": "address"
        }
      ],
      "stateMutability": "view",
      "type": "function"
    },
    {
      "inputs": [],
      "name": "availableRewards",
      "outputs": [
        {
          "internalType": "uint256",
          "name": "",
          "type": "uint256"
        }
      ],
      "stateMutability": "view",
      "type": "function"
    },
    {
      "inputs": [],
      "name": "balance",
      "outputs": [
        {
          "internalType": "uint256",
          "name": "",
          "type": "uint256"
        }
      ],
      "stateMutability": "view",
      "type": "function"
    },
    {
      "inputs": [
        {
          "internalType": "uint256",
          "name": "serviceId",
          "type": "uint256"
        }
      ],
      "name": "calculateServiceStakingReward",
      "outputs": [
        {
          "internalType": "uint256",
          "name": "reward",
          "type": "uint256"
        }
      ],
      "stateMutability": "view",
      "type": "function"
    },
    {
      "inputs": [],
      "name": "checkpoint",
      "outputs": [
        {
          "internalType": "uint256[]",
          "name": "",
          "type": "uint256[]"
        },
        {
          "internalType": "uint256[][]",
          "name": "",
          "type": "uint256[][]"
        },
        {
          "internalType": "uint256",
          "name": "",
          "type": "uint256"
        },
        {
          "internalType": "uint256[]",
          "name": "",
          "type": "uint256[]"
        },
        {
          "internalType": "uint256[]",
          "name": "",
          "type": "uint256[]"
        },
        {
          "internalType": "bool",
          "name": "success",
          "type": "bool"
        }
      ],
      "stateMutability": "nonpayable",
      "type": "function"
    },
    {
      "inputs": [],
      "name": "configHash",
      "outputs": [
        {
          "internalType": "bytes32",
          "name": "",
          "type": "bytes32"
        }
      ],
      "stateMutability": "view",
      "type": "function"
    },
    {
      "inputs": [
        {
          "internalType": "uint256",
          "name": "amount",
          "type": "uint256"
        }
      ],
      "name": "deposit",
      "outputs": [],
      "stateMutability": "nonpayable",
      "type": "function"
    },
    {
      "inputs": [
        {
          "internalType": "uint256",
          "name": "serviceId",
          "type": "uint256"
        }
      ],
      "name": "isServiceStaked",
      "outputs": [
        {
          "internalType": "bool",
          "name": "",
          "type": "bool"
        }
      ],
      "stateMutability": "view",
      "type": "function"
    },
    {
      "inputs": [],
      "name": "livenessPeriod",
      "outputs": [
        {
          "internalType": "uint256",
          "name": "",
          "type": "uint256"
        }
      ],
      "stateMutability": "view",
      "type": "function"
    },
    {
      "inputs": [],
      "name": "livenessRatio",
      "outputs": [
        {
          "internalType": "uint256",
          "name": "",
          "type": "uint256"
        }
      ],
      "stateMutability": "view",
      "type": "function"
    },
    {
      "inputs": [
        {
          "internalType": "uint256",
          "name": "",
          "type": "uint256"
        }
      ],
      "name": "mapServiceInfo",
      "outputs": [
        {
          "internalType": "address",
          "name": "multisig",
          "type": "address"
        },
        {
          "internalType": "address",
          "name": "owner",
          "type": "address"
        },
        {
          "internalType": "uint256",
          "name": "tsStart",
          "type": "uint256"
        },
        {
          "internalType": "uint256",
          "name": "reward",
          "type": "uint256"
        }
      ],
      "stateMutability": "view",
      "type": "function"
    },
    {
      "inputs": [],
      "name": "maxNumServices",
      "outputs": [
        {
          "internalType": "uint256",
          "name": "",
          "type": "uint256"
        }
      ],
      "stateMutability": "view",
      "type": "function"
    },
    {
      "inputs": [],
      "name": "minStakingDeposit",
      "outputs": [
        {
          "internalType": "uint256",
          "name": "",
          "type": "uint256"
        }
      ],
      "stateMutability": "view",
      "type": "function"
    },
    {
      "inputs": [],
      "name": "numAgentInstances",
      "outputs": [
        {
          "internalType": "uint256",
          "name": "",
          "type": "uint256"
        }
      ],
      "stateMutability": "view",
      "type": "function"
    },
    {
      "inputs": [
        {
          "internalType": "address",
          "name": "",
          "type": "address"
        },
        {
          "internalType": "address",
          "name": "",
          "type": "address"
        },
        {
          "internalType": "uint256",
          "name": "",
          "type": "uint256"
        },
        {
          "internalType": "bytes",
          "name": "",
          "type": "bytes"
        }
      ],
      "name": "onERC721Received",
      "outputs": [
        {
          "internalType": "bytes4",
          "name": "",
          "type": "bytes4"
        }
      ],
      "stateMutability": "nonpayable",
      "type": "function"
    },
    {
      "inputs": [],
      "name": "proxyHash",
      "outputs": [
        {
          "internalType": "bytes32",
          "name": "",
          "type": "bytes32"
        }
      ],
      "stateMutability": "view",
      "type": "function"
    },
    {
      "inputs": [],
      "name": "rewardsPerSecond",
      "outputs": [
        {
          "internalType": "uint256",
          "name": "",
          "type": "uint256"
        }
      ],
      "stateMutability": "view",
      "type": "function"
    },
    {
      "inputs": [],
      "name": "serviceRegistry",
      "outputs": [
        {
          "internalType": "address",
          "name": "",
          "type": "address"
        }
      ],
      "stateMutability": "view",
      "type": "function"
    },
    {
      "inputs": [],
      "name": "serviceRegistryTokenUtility",
      "outputs": [
        {
          "internalType": "address",
          "name": "",
          "type": "address"
        }
      ],
      "stateMutability": "view",
      "type": "function"
    },
    {
      "inputs": [
        {
          "internalType": "uint256",
          "name": "",
          "type": "uint256"
        }
      ],
      "name": "setServiceIds",
      "outputs": [
        {
          "internalType": "uint256",
          "name": "",
          "type": "uint256"
        }
      ],
      "stateMutability": "view",
      "type": "function"
    },
    {
      "inputs": [
        {
          "internalType": "uint256",
          "name": "serviceId",
          "type": "uint256"
        }
      ],
      "name": "stake",
      "outputs": [],
      "stateMutability": "nonpayable",
      "type": "function"
    },
    {
      "inputs": [],
      "name": "stakingToken",
      "outputs": [
        {
          "internalType": "address",
          "name": "",
          "type": "address"
        }
      ],
      "stateMutability": "view",
      "type": "function"
    },
    {
      "inputs": [],
      "name": "threshold",
      "outputs": [
        {
          "internalType": "uint256",
          "name": "",
          "type": "uint256"
        }
      ],
      "stateMutability": "view",
      "type": "function"
    },
    {
      "inputs": [],
      "name": "tsCheckpoint",
      "outputs": [
        {
          "internalType": "uint256",
          "name": "",
          "type": "uint256"
        }
      ],
      "stateMutability": "view",
      "type": "function"
    },
    {
      "inputs": [
        {
          "internalType": "uint256",
          "name": "serviceId",
          "type": "uint256"
        }
      ],
      "name": "unstake",
      "outputs": [],
      "stateMutability": "nonpayable",
      "type": "function"
    }
  ],
  "bytecode": "0x61022060405234801562000011575f80fd5b5060405162002929380380620029298339810160408190526200003491620003ed565b808686868686848482825f01515f14806200005157506020830151155b806200005f57506060830151155b806200006d57506080830151155b806200007b575060a0830151155b156200009a57604051637c946ed760e01b815260040160405180910390fd5b600283604001511015620000d657604080840151905163491a2bb160e01b81526004810191909152600260248201526044015b60405180910390fd5b6001600160a01b038216620000fe5760405163d92e233d60e01b815260040160405180910390fd5b82516080908152602084015160a0908152604085015160c052606085015160e09081529185015161010090815290850151610120526001600160a01b038416610180529084015161014052830151610160525f805b8460c00151518110156200023457818560c0015182815181106200017b576200017b62000501565b602002602001015111620001c7578460c001518181518110620001a257620001a262000501565b6020026020010151604051632ab10b0b60e21b8152600401620000cd91815260200190565b8460c001518181518110620001e057620001e062000501565b6020908102919091010151600380546001810182555f919091527fc2575a0e9e593c00f959f8c92f12db2869c3395a3b0502d05e2516446f71f85b0181905591506200022c8162000515565b905062000153565b50816200025457604051637c946ed760e01b815260040160405180910390fd5b506101a0525050426002556001600160a01b03821615806200027d57506001600160a01b038316155b156200029c5760405163d92e233d60e01b815260040160405180910390fd5b506001600160a01b039081166101e0529081166101c05283169150620002d690505760405162ca95f960e81b815260040160405180910390fd5b6001600160a01b031661020052506200053a945050505050565b634e487b7160e01b5f52604160045260245ffd5b60405161012081016001600160401b03811182821017156200032a576200032a620002f0565b60405290565b5f82601f83011262000340575f80fd5b815160206001600160401b03808311156200035f576200035f620002f0565b8260051b604051601f19603f83011681018181108482111715620003875762000387620002f0565b604052938452858101830193838101925087851115620003a5575f80fd5b83870191505b84821015620003c657815183529183019190830190620003ab565b979650505050505050565b80516001600160a01b0381168114620003e8575f80fd5b919050565b5f805f805f8060c0878903121562000403575f80fd5b86516001600160401b03808211156200041a575f80fd5b90880190610120828b0312156200042f575f80fd5b6200043962000304565b825181526020830151602082015260408301516040820152606083015160608201526080830151608082015260a083015160a082015260c08301518281111562000481575f80fd5b6200048f8c82860162000330565b60c08301525060e083810151908201526101009283015192810192909252509550620004be60208801620003d1565b9450620004ce60408801620003d1565b9350620004de60608801620003d1565b925060808701519150620004f560a08801620003d1565b90509295509295509295565b634e487b7160e01b5f52603260045260245ffd5b5f600182016200053357634e487b7160e01b5f52601160045260245ffd5b5060010190565b60805160a05160c05160e05161010051610120516101405161016051610180516101a0516101c0516101e051610200516122c7620006625f395f81816103760152611ad301525f818161034f01528181610fe201528181611363015281816117f3015261183701525f8181610243015261177b01525f81816103b00152610cfe01525f81816104960152818161079f01528181610ac10152610efb01525f81816104f101528181610b850152610bb401525f81816102a001528181610bfa0152610c2e01525f81816103010152610b4301525f81816103280152611c9001525f81816102c7015261148001525f81816105180152818161186e01526118c501525f818161053f01526116a201525f818161020e01528181610a490152610a7d01526122c75ff3fe608060405234801561000f575f80fd5b50600436106101b0575f3560e01c8063809cee2f116100f3578063cbcf252a11610093578063e77cdcc91161006e578063e77cdcc914610513578063eacdaabc1461053a578063eb338c9614610561578063ffa1ad7414610574575f80fd5b8063cbcf252a14610491578063cd25fe38146104b8578063e1f1176d146104ec575f80fd5b8063a74466ad116100ce578063a74466ad146103ee578063b69ef8a81461045c578063b6b55f2514610464578063c2c4c5c114610477575f80fd5b8063809cee2f146103ab578063879d9090146103d2578063a694fc3a146103db575f80fd5b806352c824f51161015e578063592cf3fb11610139578063592cf3fb1461032357806372f702f31461034a57806375af4b6d1461037157806378e0613614610398575f80fd5b806352c824f5146102c257806356e76058146102e95780635829c5ec146102fc575f80fd5b80632e17de781161018e5780632e17de781461027d5780633e7329971461029257806342cde4e81461029b575f80fd5b8063150b7a02146101b457806316a7517214610209578063287140511461023e575b5f80fd5b6101d36101c2366004611d4e565b630a85bd0160e11b95945050505050565b6040517fffffffff0000000000000000000000000000000000000000000000000000000090911681526020015b60405180910390f35b6102307f000000000000000000000000000000000000000000000000000000000000000081565b604051908152602001610200565b6102657f000000000000000000000000000000000000000000000000000000000000000081565b6040516001600160a01b039091168152602001610200565b61029061028b366004611de5565b6105a5565b005b61023060025481565b6102307f000000000000000000000000000000000000000000000000000000000000000081565b6102307f000000000000000000000000000000000000000000000000000000000000000081565b6102306102f7366004611de5565b610862565b6102307f000000000000000000000000000000000000000000000000000000000000000081565b6102307f000000000000000000000000000000000000000000000000000000000000000081565b6102657f000000000000000000000000000000000000000000000000000000000000000081565b6102657f000000000000000000000000000000000000000000000000000000000000000081565b6102306103a6366004611de5565b610881565b6102307f000000000000000000000000000000000000000000000000000000000000000081565b61023060015481565b6102906103e9366004611de5565b610a22565b6104316103fc366004611de5565b600460208190525f918252604090912080546001820154600383015492909301546001600160a01b0391821693909116919084565b604080516001600160a01b039586168152949093166020850152918301526060820152608001610200565b6102305f5481565b610290610472366004611de5565b610fb3565b61047f611051565b60405161020096959493929190611e35565b6102657f000000000000000000000000000000000000000000000000000000000000000081565b6104dc6104c6366004611de5565b5f90815260046020526040902060030154151590565b6040519015158152602001610200565b6102307f000000000000000000000000000000000000000000000000000000000000000081565b6102307f000000000000000000000000000000000000000000000000000000000000000081565b6102307f000000000000000000000000000000000000000000000000000000000000000081565b61023061056f366004611de5565b611339565b610598604051806040016040528060058152602001640302e312e360dc1b81525081565b6040516102009190611f0b565b5f81815260046020526040902060018101546001600160a01b031633146105fb57600181015460405163521eb56d60e11b81523360048201526001600160a01b0390911660248201526044015b60405180910390fd5b5f610604611051565b505050505090505f5b8151811015610647578382828151811061062957610629611f56565b602002602001015103156106475761064081611f7e565b905061060d565b6004830154600284018054604080516020808402820181019092528281525f939092909183018282801561069857602002820191905f5260205f20905b815481526020019060010190808311610684575b505050600388015488545f8b8152600460205260408120805473ffffffffffffffffffffffffffffffffffffffff199081168255600182018054909116905595965091946001600160a01b03909116935091506106f86002830182611cbf565b505f600382018190556004909101556005805461071790600190611f96565b8154811061072757610727611f56565b905f5260205f2001546005868154811061074357610743611f56565b5f91825260209091200155600580548061075f5761075f611fa9565b5f8281526020812082015f1990810191909155019055604051632142170760e11b8152306004820152336024820152604481018990526001600160a01b037f000000000000000000000000000000000000000000000000000000000000000016906342842e0e906064015f604051808303815f87803b1580156107e0575f80fd5b505af11580156107f2573d5f803e3d5ffd5b505050505f841115610808576108088185611348565b806001600160a01b0316336001600160a01b0316897f246ee6115bfd84e00097b16569c2ff2f822026bb9595a82cd2c1e69d4b6ea50c86888760405161085093929190611fbd565b60405180910390a45050505050505050565b60038181548110610871575f80fd5b5f91825260209091200154905081565b5f818152600460209081526040808320815160a08101835281546001600160a01b03908116825260018301541681850152600282018054845181870281018701865281815287969395860193909291908301828280156108fe57602002820191905f5260205f20905b8154815260200190600101908083116108ea575b505050505081526020016003820154815260200160048201548152505090508060800151915080606001515f0361094b5760405163e0606b6360e01b8152600481018490526024016105f2565b5f805f805f6109586113d0565b5050945094509450945094505f841115610a17575f5b8251811015610a15578883828151811061098a5761098a611f56565b602002602001015103610a0557858411156109e05783868383815181106109b3576109b3611f56565b60200260200101516109c59190611fe1565b6109cf9190611ff8565b6109d99089612017565b9750610a15565b8181815181106109f2576109f2611f56565b6020026020010151886109d99190612017565b610a0e81611f7e565b905061096e565b505b505050505050919050565b6001545f03610a445760405163afb0be3360e01b815260040160405180910390fd5b6005547f00000000000000000000000000000000000000000000000000000000000000008103610aa95760405163fd20861560e01b81527f000000000000000000000000000000000000000000000000000000000000000060048201526024016105f2565b60405163ef0e239b60e01b8152600481018390525f907f00000000000000000000000000000000000000000000000000000000000000006001600160a01b03169063ef0e239b906024015f60405180830381865afa158015610b0d573d5f803e3d5ffd5b505050506040513d5f823e601f3d908101601f19168201604052610b349190810190612148565b9050806080015163ffffffff167f000000000000000000000000000000000000000000000000000000000000000014610b8357604051637ad404bf60e11b8152600481018490526024016105f2565b7f000000000000000000000000000000000000000000000000000000000000000015801590610bd6575080604001517f000000000000000000000000000000000000000000000000000000000000000014155b15610bf757604051637ad404bf60e11b8152600481018490526024016105f2565b5f7f0000000000000000000000000000000000000000000000000000000000000000118015610c505750806060015163ffffffff167f000000000000000000000000000000000000000000000000000000000000000014155b15610c7157604051637ad404bf60e11b8152600481018490526024016105f2565b60048160c001516005811115610c8957610c89612221565b14610cc8578060c001516005811115610ca457610ca4612221565b604051633c053f9d60e21b81526004810191909152602481018490526044016105f2565b5f81602001516001600160a01b0316803b806020016040519081016040528181525f908060200190933c805190602001209050807f000000000000000000000000000000000000000000000000000000000000000014610d4b57602082015160405162a2307960e51b81526001600160a01b0390911660048201526024016105f2565b6003548015610e175760e083015151818114610d7d57604051637ad404bf60e11b8152600481018790526024016105f2565b5f5b81811015610e14578460e001518181518110610d9d57610d9d611f56565b602002602001015163ffffffff1660038281548110610dbe57610dbe611f56565b905f5260205f20015414610e045760038181548110610ddf57610ddf611f56565b905f5260205f200154604051632ab10b0b60e21b81526004016105f291815260200190565b610e0d81611f7e565b9050610d7f565b50505b610e3285845f01516bffffffffffffffffffffffff16611759565b5f85815260046020908152604082209085015181546001600160a01b03821673ffffffffffffffffffffffffffffffffffffffff1991821617835560018301805490911633179055909190610e86906118f7565b8051909150610e9e9060028401906020840190611cdd565b50426003830155600580546001810182555f919091527f036b6384b5eca791c62761152d0c79bb0604c104a5fb6f4eb0703f3154bb3db001879055604051632142170760e11b8152336004820152306024820152604481018890527f00000000000000000000000000000000000000000000000000000000000000006001600160a01b0316906342842e0e906064015f604051808303815f87803b158015610f44575f80fd5b505af1158015610f56573d5f803e3d5ffd5b5050505084602001516001600160a01b0316336001600160a01b0316887f5d43ac9b1b213902df90d405b0006308578486b6c62182c5df202ed572c844e484604051610fa29190612235565b60405180910390a450505050505050565b5f815f54610fc19190612017565b90505f82600154610fd29190612017565b5f839055600181905590506110097f0000000000000000000000000000000000000000000000000000000000000000333086611908565b604080518481526020810184905290810182905233907f36af321ec8d3c75236829c5317affd40ddb308863a1236d2d277a4025cccee1e9060600160405180910390a2505050565b6060805f6060805f805f805f805f806110686113d0565b96509650965096509650965096505f86111561125e575f878611156111d1575f8060015b8981101561112757888b8883815181106110a8576110a8611f56565b60200260200101516110ba9190611fe1565b6110c49190611ff8565b92506110d08383612017565b91508781815181106110e4576110e4611f56565b602002602001015193508260045f8681526020019081526020015f206004015f8282546111119190612017565b90915550611120905081611f7e565b905061108c565b50878a875f8151811061113c5761113c611f56565b602002602001015161114e9190611fe1565b6111589190611ff8565b91506111648282612017565b9050865f8151811061117857611178611f56565b60200260200101519250808a11156111a157611194818b611f96565b61119e9083612017565b91505b5f83815260046020819052604082200180548492906111c1908490612017565b909155505f9a5061125792505050565b5f5b87811015611249578581815181106111ed576111ed611f56565b6020026020010151915084818151811061120957611209611f56565b602002602001015160045f8481526020019081526020015f206004015f8282546112339190612017565b90915550611242905081611f7e565b90506111d3565b506112548689611f96565b97505b5060018790555b805115611324575f5b82518110156112e1575f83828151811061128357611283611f56565b6020026020010151905082828151811061129f5761129f611f56565b602002602001015160045f8381526020019081526020015f2060020190805190602001906112ce929190611cdd565b5050806112da90611f7e565b9050611267565b50426002556040805188815260208101889052600199507f21d81d5d656869e8ce3ba8d65526a2f0dbbcd3d36f5f9999eb7c84360e45eced910160405180910390a15b909c909b509399509097509550929350915050565b60058181548110610871575f80fd5b805f808282546113589190611f96565b9091555061138990507f0000000000000000000000000000000000000000000000000000000000000000838361198c565b816001600160a01b03167f884edad9ce6fa2440d8a54cc123490eb96d2768479d49ff9c7366125a9424364826040516113c491815260200190565b60405180910390a25050565b5f805f6060806060805f60058054905090508067ffffffffffffffff8111156113fb576113fb61202a565b604051908082528060200260200182016040528015611424578160200160208202803683370190505b5092505f5b8181101561147a576005818154811061144457611444611f56565b905f5260205f20015484828151811061145f5761145f611f56565b602090810291909101015261147381611f7e565b9050611429565b506002547f00000000000000000000000000000000000000000000000000000000000000006114a98242611f96565b1061174e576001549850881561174e578167ffffffffffffffff8111156114d2576114d261202a565b6040519080825280602002602001820160405280156114fb578160200160208202803683370190505b5095508167ffffffffffffffff8111156115175761151761202a565b604051908082528060200260200182016040528015611540578160200160208202803683370190505b5094508167ffffffffffffffff81111561155c5761155c61202a565b60405190808252806020026020018201604052801561158f57816020015b606081526020019060019003908161157a5790505b5092505f5b8281101561174c575f60045f8784815181106115b2576115b2611f56565b60209081029190910181015182528101919091526040015f2080549091506115e2906001600160a01b03166118f7565b8583815181106115f4576115f4611f56565b60209081029190910101526003810154839081811115611612578091505b61161c8242611f96565b90505f61169388868151811061163457611634611f56565b60200260200101518560020180548060200260200160405190810160405280929190818152602001828054801561168857602002820191905f5260205f20905b815481526020019060010190808311611674575b505050505084611a03565b90508015611737575f6116c6837f0000000000000000000000000000000000000000000000000000000000000000611fe1565b90506116d2818e612017565b9c50808b8f815181106116e7576116e7611f56565b60200260200101818152505089868151811061170557611705611f56565b60200260200101518c8f8151811061171f5761171f611f56565b60209081029190910101526117338e611f7e565b9d50505b505050508061174590611f7e565b9050611594565b505b505090919293949596565b604051633cebfa4f60e01b8152600481018390525f9081906001600160a01b037f00000000000000000000000000000000000000000000000000000000000000001690633cebfa4f906024016040805180830381865afa1580156117bf573d5f803e3d5ffd5b505050506040513d601f19601f820116820180604052508101906117e39190612247565b91509150816001600160a01b03167f00000000000000000000000000000000000000000000000000000000000000006001600160a01b03161461186c57604051630b80380d60e31b81526001600160a01b037f000000000000000000000000000000000000000000000000000000000000000081166004830152831660248201526044016105f2565b7f0000000000000000000000000000000000000000000000000000000000000000816bffffffffffffffffffffffff1610156118f157604051632b30b24760e21b81526bffffffffffffffffffffffff821660048201527f000000000000000000000000000000000000000000000000000000000000000060248201526044016105f2565b50505050565b606061190282611a17565b92915050565b5f6040516323b872dd60e01b5f5284600452836024528260445260205f60645f808a5af13d15601f3d1160015f511416171691505f6060528060405250806119855760405163abae3d6d60e01b81526001600160a01b038087166004830152808616602483015284166044820152606481018390526084016105f2565b5050505050565b5f60405163a9059cbb60e01b5f52836004528260245260205f60445f80895af13d15601f3d1160015f511416171691505f6060528060405250806118f15760405163abae3d6d60e01b81526001600160a01b03808616600483015230602483015284166044820152606481018390526084016105f2565b5f611a0f848484611b60565b949350505050565b6040805160028082526060808301845292602083019080368337019050509050816001600160a01b031663affed0e06040518163ffffffff1660e01b8152600401602060405180830381865afa158015611a73573d5f803e3d5ffd5b505050506040513d601f19601f82011682018060405250810190611a97919061227a565b815f81518110611aa957611aa9611f56565b6020908102919091010152604051637af7347360e01b81526001600160a01b0383811660048301527f00000000000000000000000000000000000000000000000000000000000000001690637af7347390602401602060405180830381865afa158015611b18573d5f803e3d5ffd5b505050506040513d601f19601f82011682018060405250810190611b3c919061227a565b81600181518110611b4f57611b4f611f56565b602002602001018181525050919050565b5f8082118015611ba15750825f81518110611b7d57611b7d611f56565b6020026020010151845f81518110611b9757611b97611f56565b6020026020010151115b8015611be0575082600181518110611bbb57611bbb611f56565b602002602001015184600181518110611bd657611bd6611f56565b6020026020010151115b15611cb8575f835f81518110611bf857611bf8611f56565b6020026020010151855f81518110611c1257611c12611f56565b6020026020010151611c249190611f96565b90505f84600181518110611c3a57611c3a611f56565b602002602001015186600181518110611c5557611c55611f56565b6020026020010151611c679190611f96565b9050818111611cb5575f84611c8483670de0b6b3a7640000611fe1565b611c8e9190611ff8565b7f000000000000000000000000000000000000000000000000000000000000000011159350505b50505b9392505050565b5080545f8255905f5260205f2090810190611cda9190611d26565b50565b828054828255905f5260205f20908101928215611d16579160200282015b82811115611d16578251825591602001919060010190611cfb565b50611d22929150611d26565b5090565b5b80821115611d22575f8155600101611d27565b6001600160a01b0381168114611cda575f80fd5b5f805f805f60808688031215611d62575f80fd5b8535611d6d81611d3a565b94506020860135611d7d81611d3a565b935060408601359250606086013567ffffffffffffffff80821115611da0575f80fd5b818801915088601f830112611db3575f80fd5b813581811115611dc1575f80fd5b896020828501011115611dd2575f80fd5b9699959850939650602001949392505050565b5f60208284031215611df5575f80fd5b5035919050565b5f8151808452602080850194508084015f5b83811015611e2a57815187529582019590820190600101611e0e565b509495945050505050565b60c081525f611e4760c0830189611dfc565b6020838203818501528189518084528284019150828160051b850101838c015f805b84811015611ebc57878403601f19018652825180518086529088019088860190845b81811015611ea75783518352928a0192918a0191600101611e8b565b50509688019694505091860191600101611e69565b5050508a60408801528681036060880152611ed7818b611dfc565b9450505050508281036080840152611eef8186611dfc565b915050611f0060a083018415159052565b979650505050505050565b5f6020808352835180828501525f5b81811015611f3657858101830151858201604001528201611f1a565b505f604082860101526040601f19601f8301168501019250505092915050565b634e487b7160e01b5f52603260045260245ffd5b634e487b7160e01b5f52601160045260245ffd5b5f60018201611f8f57611f8f611f6a565b5060010190565b8181038181111561190257611902611f6a565b634e487b7160e01b5f52603160045260245ffd5b606081525f611fcf6060830186611dfc565b60208301949094525060400152919050565b808202811582820484141761190257611902611f6a565b5f8261201257634e487b7160e01b5f52601260045260245ffd5b500490565b8082018082111561190257611902611f6a565b634e487b7160e01b5f52604160045260245ffd5b604051610100810167ffffffffffffffff811182821017156120625761206261202a565b60405290565b80516bffffffffffffffffffffffff81168114612083575f80fd5b919050565b805161208381611d3a565b805163ffffffff81168114612083575f80fd5b805160068110612083575f80fd5b5f82601f8301126120c3575f80fd5b8151602067ffffffffffffffff808311156120e0576120e061202a565b8260051b604051601f19603f830116810181811084821117156121055761210561202a565b604052938452858101830193838101925087851115612122575f80fd5b83870191505b84821015611f005761213982612093565b83529183019190830190612128565b5f60208284031215612158575f80fd5b815167ffffffffffffffff8082111561216f575f80fd5b908301906101008286031215612183575f80fd5b61218b61203e565b61219483612068565b81526121a260208401612088565b6020820152604083015160408201526121bd60608401612093565b60608201526121ce60808401612093565b60808201526121df60a08401612093565b60a08201526121f060c084016120a6565b60c082015260e083015182811115612206575f80fd5b612212878286016120b4565b60e08301525095945050505050565b634e487b7160e01b5f52602160045260245ffd5b602081525f611cb86020830184611dfc565b5f8060408385031215612258575f80fd5b825161226381611d3a565b915061227160208401612068565b90509250929050565b5f6020828403121561228a575f80fd5b505191905056fea2646970667358221220f70b859332fad87ee5856300e4104d6b01c2b28a1bc92142a2f75217203bc6b764736f6c63430008150033",
  "linkReferences": {},
  "deployedLinkReferences": {}
}