{
  "_format": "hh-sol-artifact-1",
  "contractName": "ServiceStakingNativeToken",
  "sourceName": "contracts/staking/ServiceStakingNativeToken.sol",
  "abi": [
    {
      "inputs": [
        {
          "components": [
            {
              "internalType": "uint256",
              "name": "maxNumServices",
              "type": "uint256"
            },
            {
              "internalType": "uint256",
              "name": "rewardsPerSecond",
              "type": "uint256"
            },
            {
              "internalType": "uint256",
              "name": "minStakingDeposit",
              "type": "uint256"
            },
            {
              "internalType": "uint256",
              "name": "livenessPeriod",
              "type": "uint256"
            },
            {
              "internalType": "uint256",
              "name": "livenessRatio",
              "type": "uint256"
            },
            {
              "internalType": "uint256",
              "name": "numAgentInstances",
              "type": "uint256"
            },
            {
              "internalType": "uint256[]",
              "name": "agentIds",
              "type": "uint256[]"
            },
            {
              "internalType": "uint256",
              "name": "threshold",
              "type": "uint256"
            },
            {
              "internalType": "bytes32",
              "name": "configHash",
              "type": "bytes32"
            }
          ],
          "internalType": "struct ServiceStakingBase.StakingParams",
          "name": "_stakingParams",
          "type": "tuple"
        },
        {
          "internalType": "address",
          "name": "_serviceRegistry",
          "type": "address"
        },
        {
          "internalType": "bytes32",
          "name": "_proxyHash",
          "type": "bytes32"
        }
      ],
      "stateMutability": "nonpayable",
      "type": "constructor"
    },
    {
      "inputs": [
        {
          "internalType": "address",
          "name": "operator",
          "type": "address"
        }
      ],
      "name": "AgentInstanceRegistered",
      "type": "error"
    },
    {
      "inputs": [
        {
          "internalType": "uint256",
          "name": "serviceId",
          "type": "uint256"
        }
      ],
      "name": "AgentInstancesSlotsFilled",
      "type": "error"
    },
    {
      "inputs": [
        {
          "internalType": "uint256",
          "name": "agentId",
          "type": "uint256"
        }
      ],
      "name": "AgentNotFound",
      "type": "error"
    },
    {
      "inputs": [
        {
          "internalType": "uint256",
          "name": "agentId",
          "type": "uint256"
        },
        {
          "internalType": "uint256",
          "name": "serviceId",
          "type": "uint256"
        }
      ],
      "name": "AgentNotInService",
      "type": "error"
    },
    {
      "inputs": [
        {
          "internalType": "uint256",
          "name": "componentId",
          "type": "uint256"
        }
      ],
      "name": "ComponentNotFound",
      "type": "error"
    },
    {
      "inputs": [],
      "name": "HashExists",
      "type": "error"
    },
    {
      "inputs": [
        {
          "internalType": "uint256",
          "name": "sent",
          "type": "uint256"
        },
        {
          "internalType": "uint256",
          "name": "expected",
          "type": "uint256"
        },
        {
          "internalType": "uint256",
          "name": "serviceId",
          "type": "uint256"
        }
      ],
      "name": "IncorrectAgentBondingValue",
      "type": "error"
    },
    {
      "inputs": [
        {
          "internalType": "uint256",
          "name": "sent",
          "type": "uint256"
        },
        {
          "internalType": "uint256",
          "name": "expected",
          "type": "uint256"
        },
        {
          "internalType": "uint256",
          "name": "serviceId",
          "type": "uint256"
        }
      ],
      "name": "IncorrectRegistrationDepositValue",
      "type": "error"
    },
    {
      "inputs": [
        {
          "internalType": "uint256",
          "name": "provided",
          "type": "uint256"
        },
        {
          "internalType": "uint256",
          "name": "expected",
          "type": "uint256"
        }
      ],
      "name": "LowerThan",
      "type": "error"
    },
    {
      "inputs": [
        {
          "internalType": "address",
          "name": "sender",
          "type": "address"
        },
        {
          "internalType": "address",
          "name": "manager",
          "type": "address"
        }
      ],
      "name": "ManagerOnly",
      "type": "error"
    },
    {
      "inputs": [
        {
          "internalType": "uint256",
          "name": "maxNumServices",
          "type": "uint256"
        }
      ],
      "name": "MaxNumServicesReached",
      "type": "error"
    },
    {
      "inputs": [],
      "name": "NoRewardsAvailable",
      "type": "error"
    },
    {
      "inputs": [
        {
          "internalType": "address",
          "name": "provided",
          "type": "address"
        },
        {
          "internalType": "address",
          "name": "expected",
          "type": "address"
        },
        {
          "internalType": "uint256",
          "name": "serviceId",
          "type": "uint256"
        }
      ],
      "name": "OnlyOwnServiceMultisig",
      "type": "error"
    },
    {
      "inputs": [
        {
          "internalType": "address",
          "name": "operator",
          "type": "address"
        },
        {
          "internalType": "uint256",
          "name": "serviceId",
          "type": "uint256"
        }
      ],
      "name": "OperatorHasNoInstances",
      "type": "error"
    },
    {
      "inputs": [
        {
          "internalType": "uint256",
          "name": "provided",
          "type": "uint256"
        },
        {
          "internalType": "uint256",
          "name": "max",
          "type": "uint256"
        }
      ],
      "name": "Overflow",
      "type": "error"
    },
    {
      "inputs": [
        {
          "internalType": "address",
          "name": "sender",
          "type": "address"
        },
        {
          "internalType": "address",
          "name": "owner",
          "type": "address"
        }
      ],
      "name": "OwnerOnly",
      "type": "error"
    },
    {
      "inputs": [],
      "name": "Paused",
      "type": "error"
    },
    {
      "inputs": [],
      "name": "ReentrancyGuard",
      "type": "error"
    },
    {
      "inputs": [
        {
          "internalType": "uint256",
          "name": "serviceId",
          "type": "uint256"
        }
      ],
      "name": "ServiceMustBeInactive",
      "type": "error"
    },
    {
      "inputs": [
        {
          "internalType": "uint256",
          "name": "serviceId",
          "type": "uint256"
        }
      ],
      "name": "ServiceNotStaked",
      "type": "error"
    },
    {
      "inputs": [
        {
          "internalType": "address",
          "name": "token",
          "type": "address"
        },
        {
          "internalType": "address",
          "name": "from",
          "type": "address"
        },
        {
          "internalType": "address",
          "name": "to",
          "type": "address"
        },
        {
          "internalType": "uint256",
          "name": "value",
          "type": "uint256"
        }
      ],
      "name": "TransferFailed",
      "type": "error"
    },
    {
      "inputs": [
        {
          "internalType": "address",
          "name": "multisig",
          "type": "address"
        }
      ],
      "name": "UnauthorizedMultisig",
      "type": "error"
    },
    {
      "inputs": [
        {
          "internalType": "uint256",
          "name": "agentId",
          "type": "uint256"
        }
      ],
      "name": "WrongAgentId",
      "type": "error"
    },
    {
      "inputs": [
        {
          "internalType": "uint256",
          "name": "numValues1",
          "type": "uint256"
        },
        {
          "internalType": "uint256",
          "name": "numValues2",
          "type": "uint256"
        }
      ],
      "name": "WrongArrayLength",
      "type": "error"
    },
    {
      "inputs": [
        {
          "internalType": "uint256",
          "name": "serviceId",
          "type": "uint256"
        }
      ],
      "name": "WrongOperator",
      "type": "error"
    },
    {
      "inputs": [
        {
          "internalType": "uint256",
          "name": "serviceId",
          "type": "uint256"
        }
      ],
      "name": "WrongServiceConfiguration",
      "type": "error"
    },
    {
      "inputs": [
        {
          "internalType": "uint256",
          "name": "state",
          "type": "uint256"
        },
        {
          "internalType": "uint256",
          "name": "serviceId",
          "type": "uint256"
        }
      ],
      "name": "WrongServiceState",
      "type": "error"
    },
    {
      "inputs": [
        {
          "internalType": "uint256",
          "name": "currentThreshold",
          "type": "uint256"
        },
        {
          "internalType": "uint256",
          "name": "minThreshold",
          "type": "uint256"
        },
        {
          "internalType": "uint256",
          "name": "maxThreshold",
          "type": "uint256"
        }
      ],
      "name": "WrongThreshold",
      "type": "error"
    },
    {
      "inputs": [],
      "name": "ZeroAddress",
      "type": "error"
    },
    {
      "inputs": [],
      "name": "ZeroValue",
      "type": "error"
    },
    {
      "anonymous": false,
      "inputs": [
        {
          "indexed": false,
          "internalType": "uint256",
          "name": "availableRewards",
          "type": "uint256"
        },
        {
          "indexed": false,
          "internalType": "uint256",
          "name": "numServices",
          "type": "uint256"
        }
      ],
      "name": "Checkpoint",
      "type": "event"
    },
    {
      "anonymous": false,
      "inputs": [
        {
          "indexed": true,
          "internalType": "address",
          "name": "sender",
          "type": "address"
        },
        {
          "indexed": false,
          "internalType": "uint256",
          "name": "amount",
          "type": "uint256"
        },
        {
          "indexed": false,
          "internalType": "uint256",
          "name": "balance",
          "type": "uint256"
        },
        {
          "indexed": false,
          "internalType": "uint256",
          "name": "availableRewards",
          "type": "uint256"
        }
      ],
      "name": "Deposit",
      "type": "event"
    },
    {
      "anonymous": false,
      "inputs": [
        {
          "indexed": true,
          "internalType": "uint256",
          "name": "serviceId",
          "type": "uint256"
        },
        {
          "indexed": true,
          "internalType": "address",
          "name": "owner",
          "type": "address"
        },
        {
          "indexed": true,
          "internalType": "address",
          "name": "multisig",
          "type": "address"
        },
        {
          "indexed": false,
          "internalType": "uint256[]",
          "name": "nonces",
          "type": "uint256[]"
        }
      ],
      "name": "ServiceStaked",
      "type": "event"
    },
    {
      "anonymous": false,
      "inputs": [
        {
          "indexed": true,
          "internalType": "uint256",
          "name": "serviceId",
          "type": "uint256"
        },
        {
          "indexed": true,
          "internalType": "address",
          "name": "owner",
          "type": "address"
        },
        {
          "indexed": true,
          "internalType": "address",
          "name": "multisig",
          "type": "address"
        },
        {
          "indexed": false,
          "internalType": "uint256[]",
          "name": "nonces",
          "type": "uint256[]"
        },
        {
          "indexed": false,
          "internalType": "uint256",
          "name": "reward",
          "type": "uint256"
        },
        {
          "indexed": false,
          "internalType": "uint256",
          "name": "tsStart",
          "type": "uint256"
        }
      ],
      "name": "ServiceUnstaked",
      "type": "event"
    },
    {
      "anonymous": false,
      "inputs": [
        {
          "indexed": true,
          "internalType": "address",
          "name": "to",
          "type": "address"
        },
        {
          "indexed": false,
          "internalType": "uint256",
          "name": "amount",
          "type": "uint256"
        }
      ],
      "name": "Withdraw",
      "type": "event"
    },
    {
      "inputs": [],
      "name": "VERSION",
      "outputs": [
        {
          "internalType": "string",
          "name": "",
          "type": "string"
        }
      ],
      "stateMutability": "view",
      "type": "function"
    },
    {
      "inputs": [
        {
          "internalType": "uint256",
          "name": "",
          "type": "uint256"
        }
      ],
      "name": "agentIds",
      "outputs": [
        {
          "internalType": "uint256",
          "name": "",
          "type": "uint256"
        }
      ],
      "stateMutability": "view",
      "type": "function"
    },
    {
      "inputs": [],
      "name": "availableRewards",
      "outputs": [
        {
          "internalType": "uint256",
          "name": "",
          "type": "uint256"
        }
      ],
      "stateMutability": "view",
      "type": "function"
    },
    {
      "inputs": [],
      "name": "balance",
      "outputs": [
        {
          "internalType": "uint256",
          "name": "",
          "type": "uint256"
        }
      ],
      "stateMutability": "view",
      "type": "function"
    },
    {
      "inputs": [
        {
          "internalType": "uint256",
          "name": "serviceId",
          "type": "uint256"
        }
      ],
      "name": "calculateServiceStakingReward",
      "outputs": [
        {
          "internalType": "uint256",
          "name": "reward",
          "type": "uint256"
        }
      ],
      "stateMutability": "view",
      "type": "function"
    },
    {
      "inputs": [],
      "name": "checkpoint",
      "outputs": [
        {
          "internalType": "uint256[]",
          "name": "",
          "type": "uint256[]"
        },
        {
          "internalType": "uint256[][]",
          "name": "",
          "type": "uint256[][]"
        },
        {
          "internalType": "uint256",
          "name": "",
          "type": "uint256"
        },
        {
          "internalType": "uint256[]",
          "name": "",
          "type": "uint256[]"
        },
        {
          "internalType": "uint256[]",
          "name": "",
          "type": "uint256[]"
        },
        {
          "internalType": "bool",
          "name": "success",
          "type": "bool"
        }
      ],
      "stateMutability": "nonpayable",
      "type": "function"
    },
    {
      "inputs": [],
      "name": "configHash",
      "outputs": [
        {
          "internalType": "bytes32",
          "name": "",
          "type": "bytes32"
        }
      ],
      "stateMutability": "view",
      "type": "function"
    },
    {
      "inputs": [],
      "name": "getNextRewardCheckpointTimestamp",
      "outputs": [
        {
          "internalType": "uint256",
          "name": "tsNext",
          "type": "uint256"
        }
      ],
      "stateMutability": "view",
      "type": "function"
    },
    {
      "inputs": [],
      "name": "getServiceIds",
      "outputs": [
        {
          "internalType": "uint256[]",
          "name": "serviceIds",
          "type": "uint256[]"
        }
      ],
      "stateMutability": "view",
      "type": "function"
    },
    {
      "inputs": [
        {
          "internalType": "uint256",
          "name": "serviceId",
          "type": "uint256"
        }
      ],
      "name": "isServiceStaked",
      "outputs": [
        {
          "internalType": "bool",
          "name": "isStaked",
          "type": "bool"
        }
      ],
      "stateMutability": "view",
      "type": "function"
    },
    {
      "inputs": [],
      "name": "livenessPeriod",
      "outputs": [
        {
          "internalType": "uint256",
          "name": "",
          "type": "uint256"
        }
      ],
      "stateMutability": "view",
      "type": "function"
    },
    {
      "inputs": [],
      "name": "livenessRatio",
      "outputs": [
        {
          "internalType": "uint256",
          "name": "",
          "type": "uint256"
        }
      ],
      "stateMutability": "view",
      "type": "function"
    },
    {
      "inputs": [
        {
          "internalType": "uint256",
          "name": "",
          "type": "uint256"
        }
      ],
      "name": "mapServiceInfo",
      "outputs": [
        {
          "internalType": "address",
          "name": "multisig",
          "type": "address"
        },
        {
          "internalType": "address",
          "name": "owner",
          "type": "address"
        },
        {
          "internalType": "uint256",
          "name": "tsStart",
          "type": "uint256"
        },
        {
          "internalType": "uint256",
          "name": "reward",
          "type": "uint256"
        }
      ],
      "stateMutability": "view",
      "type": "function"
    },
    {
      "inputs": [],
      "name": "maxNumServices",
      "outputs": [
        {
          "internalType": "uint256",
          "name": "",
          "type": "uint256"
        }
      ],
      "stateMutability": "view",
      "type": "function"
    },
    {
      "inputs": [],
      "name": "minStakingDeposit",
      "outputs": [
        {
          "internalType": "uint256",
          "name": "",
          "type": "uint256"
        }
      ],
      "stateMutability": "view",
      "type": "function"
    },
    {
      "inputs": [],
      "name": "numAgentInstances",
      "outputs": [
        {
          "internalType": "uint256",
          "name": "",
          "type": "uint256"
        }
      ],
      "stateMutability": "view",
      "type": "function"
    },
    {
      "inputs": [
        {
          "internalType": "address",
          "name": "",
          "type": "address"
        },
        {
          "internalType": "address",
          "name": "",
          "type": "address"
        },
        {
          "internalType": "uint256",
          "name": "",
          "type": "uint256"
        },
        {
          "internalType": "bytes",
          "name": "",
          "type": "bytes"
        }
      ],
      "name": "onERC721Received",
      "outputs": [
        {
          "internalType": "bytes4",
          "name": "",
          "type": "bytes4"
        }
      ],
      "stateMutability": "nonpayable",
      "type": "function"
    },
    {
      "inputs": [],
      "name": "proxyHash",
      "outputs": [
        {
          "internalType": "bytes32",
          "name": "",
          "type": "bytes32"
        }
      ],
      "stateMutability": "view",
      "type": "function"
    },
    {
      "inputs": [],
      "name": "rewardsPerSecond",
      "outputs": [
        {
          "internalType": "uint256",
          "name": "",
          "type": "uint256"
        }
      ],
      "stateMutability": "view",
      "type": "function"
    },
    {
      "inputs": [],
      "name": "serviceRegistry",
      "outputs": [
        {
          "internalType": "address",
          "name": "",
          "type": "address"
        }
      ],
      "stateMutability": "view",
      "type": "function"
    },
    {
      "inputs": [
        {
          "internalType": "uint256",
          "name": "",
          "type": "uint256"
        }
      ],
      "name": "setServiceIds",
      "outputs": [
        {
          "internalType": "uint256",
          "name": "",
          "type": "uint256"
        }
      ],
      "stateMutability": "view",
      "type": "function"
    },
    {
      "inputs": [
        {
          "internalType": "uint256",
          "name": "serviceId",
          "type": "uint256"
        }
      ],
      "name": "stake",
      "outputs": [],
      "stateMutability": "nonpayable",
      "type": "function"
    },
    {
      "inputs": [],
      "name": "threshold",
      "outputs": [
        {
          "internalType": "uint256",
          "name": "",
          "type": "uint256"
        }
      ],
      "stateMutability": "view",
      "type": "function"
    },
    {
      "inputs": [],
      "name": "tsCheckpoint",
      "outputs": [
        {
          "internalType": "uint256",
          "name": "",
          "type": "uint256"
        }
      ],
      "stateMutability": "view",
      "type": "function"
    },
    {
      "inputs": [
        {
          "internalType": "uint256",
          "name": "serviceId",
          "type": "uint256"
        }
      ],
      "name": "unstake",
      "outputs": [],
      "stateMutability": "nonpayable",
      "type": "function"
    },
    {
      "stateMutability": "payable",
      "type": "receive"
    }
  ],
  "bytecode": "0x6101c060405234801562000011575f80fd5b50604051620025f6380380620025f6833981016040819052620000349162000360565b828282825f01515f14806200004b57506020830151155b806200005957506060830151155b806200006757506080830151155b8062000075575060a0830151155b156200009457604051637c946ed760e01b815260040160405180910390fd5b600283604001511015620000d057604080840151905163491a2bb160e01b81526004810191909152600260248201526044015b60405180910390fd5b6001600160a01b038216620000f85760405163d92e233d60e01b815260040160405180910390fd5b82516080908152602084015160a0908152604085015160c052606085015160e09081529185015161010090815290850151610120526001600160a01b038416610180529084015161014052830151610160525f805b8460c00151518110156200022e57818560c0015182815181106200017557620001756200043e565b602002602001015111620001c1578460c0015181815181106200019c576200019c6200043e565b6020026020010151604051632ab10b0b60e21b8152600401620000c791815260200190565b8460c001518181518110620001da57620001da6200043e565b6020908102919091010151600380546001810182555f919091527fc2575a0e9e593c00f959f8c92f12db2869c3395a3b0502d05e2516446f71f85b018190559150620002268162000452565b90506200014d565b50816200024e57604051637c946ed760e01b815260040160405180910390fd5b506101a0525050426002555062000477915050565b634e487b7160e01b5f52604160045260245ffd5b60405161012081016001600160401b03811182821017156200029d576200029d62000263565b60405290565b5f82601f830112620002b3575f80fd5b815160206001600160401b0380831115620002d257620002d262000263565b8260051b604051601f19603f83011681018181108482111715620002fa57620002fa62000263565b60405293845285810183019383810192508785111562000318575f80fd5b83870191505b8482101562000339578151835291830191908301906200031e565b979650505050505050565b80516001600160a01b03811681146200035b575f80fd5b919050565b5f805f6060848603121562000373575f80fd5b83516001600160401b03808211156200038a575f80fd5b9085019061012082880312156200039f575f80fd5b620003a962000277565b825181526020830151602082015260408301516040820152606083015160608201526080830151608082015260a083015160a082015260c083015182811115620003f1575f80fd5b620003ff89828601620002a3565b60c08301525060e0838101519082015261010092830151928101929092525092506200042e6020850162000344565b9150604084015190509250925092565b634e487b7160e01b5f52603260045260245ffd5b5f600182016200047057634e487b7160e01b5f52601160045260245ffd5b5060010190565b60805160a05160c05160e05161010051610120516101405161016051610180516101a0516120986200055e5f395f81816103fd0152610e1e01525f8181610518015281816108c801528181610be1015261101b01525f81816105a301528181610ca50152610cd401525f81816102f301528181610d1a0152610d4e01525f81816103780152610c6301525f81816103ab0152611a9701525f818161032601528181611470015261155e01525f81816105d6015281816118bd01526118f901525f8181610609015261180401525f818161027c01528181610b690152610b9d01526120985ff3fe608060405260043610610191575f3560e01c8063a694fc3a116100dc578063e1f1176d11610087578063eb338c9611610062578063eb338c961461062b578063f189e85a1461064a578063f4dce7141461066b578063ffa1ad741461067f575f80fd5b8063e1f1176d14610592578063e77cdcc9146105c5578063eacdaabc146105f8575f80fd5b8063c2c4c5c1116100b7578063c2c4c5c1146104e1578063cbcf252a14610507578063cd25fe3814610552575f80fd5b8063a694fc3a14610434578063a74466ad14610453578063b69ef8a8146104cd575f80fd5b806356e760581161013c57806378e061361161011757806378e06136146103cd578063809cee2f146103ec578063879d90901461041f575f80fd5b806356e76058146103485780635829c5ec14610367578063592cf3fb1461039a575f80fd5b80633e7329971161016c5780633e732997146102cd57806342cde4e8146102e257806352c824f514610315575f80fd5b8063150b7a021461020a57806316a751721461026b5780632e17de78146102ac575f80fd5b36610206575f345f546101a49190611b52565b90505f346001546101b59190611b52565b5f8390556001819055604080513481526020810185905290810182905290915033907f36af321ec8d3c75236829c5317affd40ddb308863a1236d2d277a4025cccee1e9060600160405180910390a2005b5f80fd5b348015610215575f80fd5b50610235610224366004611b79565b630a85bd0160e11b95945050505050565b6040517fffffffff0000000000000000000000000000000000000000000000000000000090911681526020015b60405180910390f35b348015610276575f80fd5b5061029e7f000000000000000000000000000000000000000000000000000000000000000081565b604051908152602001610262565b3480156102b7575f80fd5b506102cb6102c6366004611c10565b6106bc565b005b3480156102d8575f80fd5b5061029e60025481565b3480156102ed575f80fd5b5061029e7f000000000000000000000000000000000000000000000000000000000000000081565b348015610320575f80fd5b5061029e7f000000000000000000000000000000000000000000000000000000000000000081565b348015610353575f80fd5b5061029e610362366004611c10565b61098c565b348015610372575f80fd5b5061029e7f000000000000000000000000000000000000000000000000000000000000000081565b3480156103a5575f80fd5b5061029e7f000000000000000000000000000000000000000000000000000000000000000081565b3480156103d8575f80fd5b5061029e6103e7366004611c10565b6109ab565b3480156103f7575f80fd5b5061029e7f000000000000000000000000000000000000000000000000000000000000000081565b34801561042a575f80fd5b5061029e60015481565b34801561043f575f80fd5b506102cb61044e366004611c10565b610b42565b34801561045e575f80fd5b506104a261046d366004611c10565b600460208190525f918252604090912080546001820154600383015492909301546001600160a01b0391821693909116919084565b604080516001600160a01b039586168152949093166020850152918301526060820152608001610262565b3480156104d8575f80fd5b5061029e5f5481565b3480156104ec575f80fd5b506104f56110d3565b60405161026296959493929190611c60565b348015610512575f80fd5b5061053a7f000000000000000000000000000000000000000000000000000000000000000081565b6040516001600160a01b039091168152602001610262565b34801561055d575f80fd5b5061058261056c366004611c10565b5f90815260046020526040902060030154151590565b6040519015158152602001610262565b34801561059d575f80fd5b5061029e7f000000000000000000000000000000000000000000000000000000000000000081565b3480156105d0575f80fd5b5061029e7f000000000000000000000000000000000000000000000000000000000000000081565b348015610603575f80fd5b5061029e7f000000000000000000000000000000000000000000000000000000000000000081565b348015610636575f80fd5b5061029e610645366004611c10565b6113bb565b348015610655575f80fd5b5061065e6113ca565b6040516102629190611d36565b348015610676575f80fd5b5061029e61146d565b34801561068a575f80fd5b506106af604051806040016040528060058152602001640302e312e360dc1b81525081565b6040516102629190611d48565b5f81815260046020526040902060018101546001600160a01b0316331461071257600181015460405163521eb56d60e11b81523360048201526001600160a01b0390911660248201526044015b60405180910390fd5b5f8061071c6110d3565b955050505050915080610734576107316113ca565b91505b5f5b8251811015610770578483828151811061075257610752611d93565b602002602001015103156107705761076981611da7565b9050610736565b6004840154600285018054604080516020808402820181019092528281525f93909290918301828280156107c157602002820191905f5260205f20905b8154815260200190600101908083116107ad575b505050600389015489545f8c8152600460205260408120805473ffffffffffffffffffffffffffffffffffffffff199081168255600182018054909116905595965091946001600160a01b03909116935091506108216002830182611ac3565b505f600382018190556004909101556005805461084090600190611dbf565b8154811061085057610850611d93565b905f5260205f2001546005868154811061086c5761086c611d93565b5f91825260209091200155600580548061088857610888611dd2565b5f8281526020812082015f1990810191909155019055604051632142170760e11b8152306004820152336024820152604481018a90526001600160a01b037f000000000000000000000000000000000000000000000000000000000000000016906342842e0e906064015f604051808303815f87803b158015610909575f80fd5b505af115801561091b573d5f803e3d5ffd5b505050505f8411156109315761093181856114a1565b806001600160a01b0316336001600160a01b03168a7f246ee6115bfd84e00097b16569c2ff2f822026bb9595a82cd2c1e69d4b6ea50c86888760405161097993929190611de6565b60405180910390a4505050505050505050565b6003818154811061099b575f80fd5b5f91825260209091200154905081565b5f818152600460209081526040808320815160a08101835281546001600160a01b0390811682526001830154168185015260028201805484518187028101870186528181528796939586019390929190830182828015610a2857602002820191905f5260205f20905b815481526020019060010190808311610a14575b505050505081526020016003820154815260200160048201548152505090508060800151915080606001515f03610a755760405163e0606b6360e01b815260048101849052602401610709565b5f805f805f610a82611548565b5050945094509450945094505f5b84811015610b365788838281518110610aab57610aab611d93565b602002602001015103610b265785841115610b01578386838381518110610ad457610ad4611d93565b6020026020010151610ae69190611e0a565b610af09190611e21565b610afa9089611b52565b9750610b36565b818181518110610b1357610b13611d93565b602002602001015188610afa9190611b52565b610b2f81611da7565b9050610a90565b50505050505050919050565b6001545f03610b645760405163afb0be3360e01b815260040160405180910390fd5b6005547f00000000000000000000000000000000000000000000000000000000000000008103610bc95760405163fd20861560e01b81527f00000000000000000000000000000000000000000000000000000000000000006004820152602401610709565b60405163ef0e239b60e01b8152600481018390525f907f00000000000000000000000000000000000000000000000000000000000000006001600160a01b03169063ef0e239b906024015f60405180830381865afa158015610c2d573d5f803e3d5ffd5b505050506040513d5f823e601f3d908101601f19168201604052610c549190810190611f5e565b9050806080015163ffffffff167f000000000000000000000000000000000000000000000000000000000000000014610ca357604051637ad404bf60e11b815260048101849052602401610709565b7f000000000000000000000000000000000000000000000000000000000000000015801590610cf6575080604001517f000000000000000000000000000000000000000000000000000000000000000014155b15610d1757604051637ad404bf60e11b815260048101849052602401610709565b5f7f0000000000000000000000000000000000000000000000000000000000000000118015610d705750806060015163ffffffff167f000000000000000000000000000000000000000000000000000000000000000014155b15610d9157604051637ad404bf60e11b815260048101849052602401610709565b60048160c001516005811115610da957610da9612037565b14610de8578060c001516005811115610dc457610dc4612037565b604051633c053f9d60e21b8152600481019190915260248101849052604401610709565b5f81602001516001600160a01b0316803b806020016040519081016040528181525f908060200190933c805190602001209050807f000000000000000000000000000000000000000000000000000000000000000014610e6b57602082015160405162a2307960e51b81526001600160a01b039091166004820152602401610709565b6003548015610f375760e083015151818114610e9d57604051637ad404bf60e11b815260048101879052602401610709565b5f5b81811015610f34578460e001518181518110610ebd57610ebd611d93565b602002602001015163ffffffff1660038281548110610ede57610ede611d93565b905f5260205f20015414610f245760038181548110610eff57610eff611d93565b905f5260205f200154604051632ab10b0b60e21b815260040161070991815260200190565b610f2d81611da7565b9050610e9f565b50505b610f5285845f01516bffffffffffffffffffffffff166118bb565b5f85815260046020908152604082209085015181546001600160a01b03821673ffffffffffffffffffffffffffffffffffffffff1991821617835560018301805490911633179055909190610fa690611929565b8051909150610fbe9060028401906020840190611ae1565b50426003830155600580546001810182555f919091527f036b6384b5eca791c62761152d0c79bb0604c104a5fb6f4eb0703f3154bb3db001879055604051632142170760e11b8152336004820152306024820152604481018890527f00000000000000000000000000000000000000000000000000000000000000006001600160a01b0316906342842e0e906064015f604051808303815f87803b158015611064575f80fd5b505af1158015611076573d5f803e3d5ffd5b5050505084602001516001600160a01b0316336001600160a01b0316887f5d43ac9b1b213902df90d405b0006308578486b6c62182c5df202ed572c844e4846040516110c29190611d36565b60405180910390a450505050505050565b6060805f6060805f805f805f805f806110ea611548565b96509650965096509650965096505f8611156112e0575f87861115611253575f8060015b898110156111a957888b88838151811061112a5761112a611d93565b602002602001015161113c9190611e0a565b6111469190611e21565b92506111528383611b52565b915087818151811061116657611166611d93565b602002602001015193508260045f8681526020019081526020015f206004015f8282546111939190611b52565b909155506111a2905081611da7565b905061110e565b50878a875f815181106111be576111be611d93565b60200260200101516111d09190611e0a565b6111da9190611e21565b91506111e68282611b52565b9050865f815181106111fa576111fa611d93565b60200260200101519250808a111561122357611216818b611dbf565b6112209083611b52565b91505b5f8381526004602081905260408220018054849290611243908490611b52565b909155505f9a506112d992505050565b5f5b878110156112cb5785818151811061126f5761126f611d93565b6020026020010151915084818151811061128b5761128b611d93565b602002602001015160045f8481526020019081526020015f206004015f8282546112b59190611b52565b909155506112c4905081611da7565b9050611255565b506112d68689611dbf565b97505b5060018790555b8051156113a6575f5b8251811015611363575f83828151811061130557611305611d93565b6020026020010151905082828151811061132157611321611d93565b602002602001015160045f8381526020019081526020015f206002019080519060200190611350929190611ae1565b50508061135c90611da7565b90506112e9565b50426002556040805188815260208101889052600199507f21d81d5d656869e8ce3ba8d65526a2f0dbbcd3d36f5f9999eb7c84360e45eced910160405180910390a15b909c909b509399509097509550929350915050565b6005818154811061099b575f80fd5b6005546060908067ffffffffffffffff8111156113e9576113e9611e40565b604051908082528060200260200182016040528015611412578160200160208202803683370190505b5091505f5b81811015611468576005818154811061143257611432611d93565b905f5260205f20015483828151811061144d5761144d611d93565b602090810291909101015261146181611da7565b9050611417565b505090565b5f7f000000000000000000000000000000000000000000000000000000000000000060025461149c9190611b52565b905090565b805f808282546114b19190611dbf565b90915550506040515f906001600160a01b0384169083908381818185875af1925050503d805f81146114fe576040519150601f19603f3d011682016040523d82523d5f602084013e611503565b606091505b50509050806115435760405163cd3f165960e01b81525f60048201523060248201526001600160a01b038416604482015260648101839052608401610709565b505050565b600254600154905f9081906060908190819081907f00000000000000000000000000000000000000000000000000000000000000006115878242611dbf565b1015801561159457505f88115b156118b1576005548067ffffffffffffffff8111156115b5576115b5611e40565b6040519080825280602002602001820160405280156115de578160200160208202803683370190505b5093508067ffffffffffffffff8111156115fa576115fa611e40565b604051908082528060200260200182016040528015611623578160200160208202803683370190505b5095508067ffffffffffffffff81111561163f5761163f611e40565b604051908082528060200260200182016040528015611668578160200160208202803683370190505b5094508067ffffffffffffffff81111561168457611684611e40565b6040519080825280602002602001820160405280156116b757816020015b60608152602001906001900390816116a25790505b5092505f5b818110156118ae57600581815481106116d7576116d7611d93565b905f5260205f2001548582815181106116f2576116f2611d93565b6020026020010181815250505f60045f87848151811061171457611714611d93565b60209081029190910181015182528101919091526040015f208054909150611744906001600160a01b0316611929565b85838151811061175657611756611d93565b60209081029190910101526003810154849081811115611774578091505b61177e8242611dbf565b90505f6117f588868151811061179657611796611d93565b6020026020010151856002018054806020026020016040519081016040528092919081815260200182805480156117ea57602002820191905f5260205f20905b8154815260200190600101908083116117d6575b50505050508461193a565b90508015611899575f611828837f0000000000000000000000000000000000000000000000000000000000000000611e0a565b9050611834818e611b52565b9c50808b8f8151811061184957611849611d93565b60200260200101818152505089868151811061186757611867611d93565b60200260200101518c8f8151811061188157611881611d93565b60209081029190910101526118958e611da7565b9d50505b50505050806118a790611da7565b90506116bc565b50505b5090919293949596565b7f00000000000000000000000000000000000000000000000000000000000000008110156119255760405163491a2bb160e01b8152600481018290527f00000000000000000000000000000000000000000000000000000000000000006024820152604401610709565b5050565b60606119348261194e565b92915050565b5f6119468484846119f3565b949350505050565b60408051600180825281830190925260609160208083019080368337019050509050816001600160a01b031663affed0e06040518163ffffffff1660e01b8152600401602060405180830381865afa1580156119ac573d5f803e3d5ffd5b505050506040513d601f19601f820116820180604052508101906119d0919061204b565b815f815181106119e2576119e2611d93565b602002602001018181525050919050565b5f8082118015611a345750825f81518110611a1057611a10611d93565b6020026020010151845f81518110611a2a57611a2a611d93565b6020026020010151115b15611abc575f82845f81518110611a4d57611a4d611d93565b6020026020010151865f81518110611a6757611a67611d93565b6020026020010151611a799190611dbf565b611a8b90670de0b6b3a7640000611e0a565b611a959190611e21565b7f000000000000000000000000000000000000000000000000000000000000000011159150505b9392505050565b5080545f8255905f5260205f2090810190611ade9190611b2a565b50565b828054828255905f5260205f20908101928215611b1a579160200282015b82811115611b1a578251825591602001919060010190611aff565b50611b26929150611b2a565b5090565b5b80821115611b26575f8155600101611b2b565b634e487b7160e01b5f52601160045260245ffd5b8082018082111561193457611934611b3e565b6001600160a01b0381168114611ade575f80fd5b5f805f805f60808688031215611b8d575f80fd5b8535611b9881611b65565b94506020860135611ba881611b65565b935060408601359250606086013567ffffffffffffffff80821115611bcb575f80fd5b818801915088601f830112611bde575f80fd5b813581811115611bec575f80fd5b896020828501011115611bfd575f80fd5b9699959850939650602001949392505050565b5f60208284031215611c20575f80fd5b5035919050565b5f8151808452602080850194508084015f5b83811015611c5557815187529582019590820190600101611c39565b509495945050505050565b60c081525f611c7260c0830189611c27565b6020838203818501528189518084528284019150828160051b850101838c015f805b84811015611ce757878403601f19018652825180518086529088019088860190845b81811015611cd25783518352928a0192918a0191600101611cb6565b50509688019694505091860191600101611c94565b5050508a60408801528681036060880152611d02818b611c27565b9450505050508281036080840152611d1a8186611c27565b915050611d2b60a083018415159052565b979650505050505050565b602081525f611abc6020830184611c27565b5f6020808352835180828501525f5b81811015611d7357858101830151858201604001528201611d57565b505f604082860101526040601f19601f8301168501019250505092915050565b634e487b7160e01b5f52603260045260245ffd5b5f60018201611db857611db8611b3e565b5060010190565b8181038181111561193457611934611b3e565b634e487b7160e01b5f52603160045260245ffd5b606081525f611df86060830186611c27565b60208301949094525060400152919050565b808202811582820484141761193457611934611b3e565b5f82611e3b57634e487b7160e01b5f52601260045260245ffd5b500490565b634e487b7160e01b5f52604160045260245ffd5b604051610100810167ffffffffffffffff81118282101715611e7857611e78611e40565b60405290565b80516bffffffffffffffffffffffff81168114611e99575f80fd5b919050565b8051611e9981611b65565b805163ffffffff81168114611e99575f80fd5b805160068110611e99575f80fd5b5f82601f830112611ed9575f80fd5b8151602067ffffffffffffffff80831115611ef657611ef6611e40565b8260051b604051601f19603f83011681018181108482111715611f1b57611f1b611e40565b604052938452858101830193838101925087851115611f38575f80fd5b83870191505b84821015611d2b57611f4f82611ea9565b83529183019190830190611f3e565b5f60208284031215611f6e575f80fd5b815167ffffffffffffffff80821115611f85575f80fd5b908301906101008286031215611f99575f80fd5b611fa1611e54565b611faa83611e7e565b8152611fb860208401611e9e565b602082015260408301516040820152611fd360608401611ea9565b6060820152611fe460808401611ea9565b6080820152611ff560a08401611ea9565b60a082015261200660c08401611ebc565b60c082015260e08301518281111561201c575f80fd5b61202887828601611eca565b60e08301525095945050505050565b634e487b7160e01b5f52602160045260245ffd5b5f6020828403121561205b575f80fd5b505191905056fea2646970667358221220369db9315caf7f21ab4dbc689015c5ce7e2b9bf805806c46a8ad7c6b40304d6a64736f6c63430008150033",
  "linkReferences": {},
  "deployedLinkReferences": {}
}