{
  "_format": "hh-sol-artifact-1",
  "contractName": "ServiceStakingNativeToken",
  "sourceName": "contracts/staking/ServiceStakingNativeToken.sol",
  "abi": [
    {
      "inputs": [
        {
          "components": [
            {
              "internalType": "uint256",
              "name": "maxNumServices",
              "type": "uint256"
            },
            {
              "internalType": "uint256",
              "name": "rewardsPerSecond",
              "type": "uint256"
            },
            {
              "internalType": "uint256",
              "name": "minStakingDeposit",
              "type": "uint256"
            },
            {
              "internalType": "uint256",
              "name": "livenessPeriod",
              "type": "uint256"
            },
            {
              "internalType": "uint256",
              "name": "livenessRatio",
              "type": "uint256"
            },
            {
              "internalType": "uint256",
              "name": "numAgentInstances",
              "type": "uint256"
            },
            {
              "internalType": "uint256[]",
              "name": "agentIds",
              "type": "uint256[]"
            },
            {
              "internalType": "uint256",
              "name": "threshold",
              "type": "uint256"
            },
            {
              "internalType": "bytes32",
              "name": "configHash",
              "type": "bytes32"
            }
          ],
          "internalType": "struct ServiceStakingBase.StakingParams",
          "name": "_stakingParams",
          "type": "tuple"
        },
        {
          "internalType": "address",
          "name": "_serviceRegistry",
          "type": "address"
        },
        {
          "internalType": "bytes32",
          "name": "_proxyHash",
          "type": "bytes32"
        }
      ],
      "stateMutability": "nonpayable",
      "type": "constructor"
    },
    {
      "inputs": [
        {
          "internalType": "address",
          "name": "operator",
          "type": "address"
        }
      ],
      "name": "AgentInstanceRegistered",
      "type": "error"
    },
    {
      "inputs": [
        {
          "internalType": "uint256",
          "name": "serviceId",
          "type": "uint256"
        }
      ],
      "name": "AgentInstancesSlotsFilled",
      "type": "error"
    },
    {
      "inputs": [
        {
          "internalType": "uint256",
          "name": "agentId",
          "type": "uint256"
        }
      ],
      "name": "AgentNotFound",
      "type": "error"
    },
    {
      "inputs": [
        {
          "internalType": "uint256",
          "name": "agentId",
          "type": "uint256"
        },
        {
          "internalType": "uint256",
          "name": "serviceId",
          "type": "uint256"
        }
      ],
      "name": "AgentNotInService",
      "type": "error"
    },
    {
      "inputs": [
        {
          "internalType": "uint256",
          "name": "componentId",
          "type": "uint256"
        }
      ],
      "name": "ComponentNotFound",
      "type": "error"
    },
    {
      "inputs": [],
      "name": "HashExists",
      "type": "error"
    },
    {
      "inputs": [
        {
          "internalType": "uint256",
          "name": "sent",
          "type": "uint256"
        },
        {
          "internalType": "uint256",
          "name": "expected",
          "type": "uint256"
        },
        {
          "internalType": "uint256",
          "name": "serviceId",
          "type": "uint256"
        }
      ],
      "name": "IncorrectAgentBondingValue",
      "type": "error"
    },
    {
      "inputs": [
        {
          "internalType": "uint256",
          "name": "sent",
          "type": "uint256"
        },
        {
          "internalType": "uint256",
          "name": "expected",
          "type": "uint256"
        },
        {
          "internalType": "uint256",
          "name": "serviceId",
          "type": "uint256"
        }
      ],
      "name": "IncorrectRegistrationDepositValue",
      "type": "error"
    },
    {
      "inputs": [
        {
          "internalType": "uint256",
          "name": "provided",
          "type": "uint256"
        },
        {
          "internalType": "uint256",
          "name": "expected",
          "type": "uint256"
        }
      ],
      "name": "LowerThan",
      "type": "error"
    },
    {
      "inputs": [
        {
          "internalType": "address",
          "name": "sender",
          "type": "address"
        },
        {
          "internalType": "address",
          "name": "manager",
          "type": "address"
        }
      ],
      "name": "ManagerOnly",
      "type": "error"
    },
    {
      "inputs": [
        {
          "internalType": "uint256",
          "name": "maxNumServices",
          "type": "uint256"
        }
      ],
      "name": "MaxNumServicesReached",
      "type": "error"
    },
    {
      "inputs": [],
      "name": "NoRewardsAvailable",
      "type": "error"
    },
    {
      "inputs": [
        {
          "internalType": "address",
          "name": "provided",
          "type": "address"
        },
        {
          "internalType": "address",
          "name": "expected",
          "type": "address"
        },
        {
          "internalType": "uint256",
          "name": "serviceId",
          "type": "uint256"
        }
      ],
      "name": "OnlyOwnServiceMultisig",
      "type": "error"
    },
    {
      "inputs": [
        {
          "internalType": "address",
          "name": "operator",
          "type": "address"
        },
        {
          "internalType": "uint256",
          "name": "serviceId",
          "type": "uint256"
        }
      ],
      "name": "OperatorHasNoInstances",
      "type": "error"
    },
    {
      "inputs": [
        {
          "internalType": "uint256",
          "name": "provided",
          "type": "uint256"
        },
        {
          "internalType": "uint256",
          "name": "max",
          "type": "uint256"
        }
      ],
      "name": "Overflow",
      "type": "error"
    },
    {
      "inputs": [
        {
          "internalType": "address",
          "name": "sender",
          "type": "address"
        },
        {
          "internalType": "address",
          "name": "owner",
          "type": "address"
        }
      ],
      "name": "OwnerOnly",
      "type": "error"
    },
    {
      "inputs": [],
      "name": "Paused",
      "type": "error"
    },
    {
      "inputs": [],
      "name": "ReentrancyGuard",
      "type": "error"
    },
    {
      "inputs": [
        {
          "internalType": "uint256",
          "name": "serviceId",
          "type": "uint256"
        }
      ],
      "name": "ServiceMustBeInactive",
      "type": "error"
    },
    {
      "inputs": [
        {
          "internalType": "uint256",
          "name": "serviceId",
          "type": "uint256"
        }
      ],
      "name": "ServiceNotStaked",
      "type": "error"
    },
    {
      "inputs": [
        {
          "internalType": "address",
          "name": "token",
          "type": "address"
        },
        {
          "internalType": "address",
          "name": "from",
          "type": "address"
        },
        {
          "internalType": "address",
          "name": "to",
          "type": "address"
        },
        {
          "internalType": "uint256",
          "name": "value",
          "type": "uint256"
        }
      ],
      "name": "TransferFailed",
      "type": "error"
    },
    {
      "inputs": [
        {
          "internalType": "address",
          "name": "multisig",
          "type": "address"
        }
      ],
      "name": "UnauthorizedMultisig",
      "type": "error"
    },
    {
      "inputs": [
        {
          "internalType": "uint256",
          "name": "agentId",
          "type": "uint256"
        }
      ],
      "name": "WrongAgentId",
      "type": "error"
    },
    {
      "inputs": [
        {
          "internalType": "uint256",
          "name": "numValues1",
          "type": "uint256"
        },
        {
          "internalType": "uint256",
          "name": "numValues2",
          "type": "uint256"
        }
      ],
      "name": "WrongArrayLength",
      "type": "error"
    },
    {
      "inputs": [
        {
          "internalType": "uint256",
          "name": "serviceId",
          "type": "uint256"
        }
      ],
      "name": "WrongOperator",
      "type": "error"
    },
    {
      "inputs": [
        {
          "internalType": "uint256",
          "name": "serviceId",
          "type": "uint256"
        }
      ],
      "name": "WrongServiceConfiguration",
      "type": "error"
    },
    {
      "inputs": [
        {
          "internalType": "uint256",
          "name": "state",
          "type": "uint256"
        },
        {
          "internalType": "uint256",
          "name": "serviceId",
          "type": "uint256"
        }
      ],
      "name": "WrongServiceState",
      "type": "error"
    },
    {
      "inputs": [
        {
          "internalType": "uint256",
          "name": "currentThreshold",
          "type": "uint256"
        },
        {
          "internalType": "uint256",
          "name": "minThreshold",
          "type": "uint256"
        },
        {
          "internalType": "uint256",
          "name": "maxThreshold",
          "type": "uint256"
        }
      ],
      "name": "WrongThreshold",
      "type": "error"
    },
    {
      "inputs": [],
      "name": "ZeroAddress",
      "type": "error"
    },
    {
      "inputs": [],
      "name": "ZeroValue",
      "type": "error"
    },
    {
      "anonymous": false,
      "inputs": [
        {
          "indexed": false,
          "internalType": "uint256",
          "name": "availableRewards",
          "type": "uint256"
        },
        {
          "indexed": false,
          "internalType": "uint256",
          "name": "numServices",
          "type": "uint256"
        }
      ],
      "name": "Checkpoint",
      "type": "event"
    },
    {
      "anonymous": false,
      "inputs": [
        {
          "indexed": true,
          "internalType": "address",
          "name": "sender",
          "type": "address"
        },
        {
          "indexed": false,
          "internalType": "uint256",
          "name": "amount",
          "type": "uint256"
        },
        {
          "indexed": false,
          "internalType": "uint256",
          "name": "balance",
          "type": "uint256"
        },
        {
          "indexed": false,
          "internalType": "uint256",
          "name": "availableRewards",
          "type": "uint256"
        }
      ],
      "name": "Deposit",
      "type": "event"
    },
    {
      "anonymous": false,
      "inputs": [
        {
          "indexed": true,
          "internalType": "uint256",
          "name": "serviceId",
          "type": "uint256"
        },
        {
          "indexed": true,
          "internalType": "address",
          "name": "owner",
          "type": "address"
        },
        {
          "indexed": true,
          "internalType": "address",
          "name": "multisig",
          "type": "address"
        },
        {
          "indexed": false,
          "internalType": "uint256[]",
          "name": "nonces",
          "type": "uint256[]"
        }
      ],
      "name": "ServiceStaked",
      "type": "event"
    },
    {
      "anonymous": false,
      "inputs": [
        {
          "indexed": true,
          "internalType": "uint256",
          "name": "serviceId",
          "type": "uint256"
        },
        {
          "indexed": true,
          "internalType": "address",
          "name": "owner",
          "type": "address"
        },
        {
          "indexed": true,
          "internalType": "address",
          "name": "multisig",
          "type": "address"
        },
        {
          "indexed": false,
          "internalType": "uint256[]",
          "name": "nonces",
          "type": "uint256[]"
        },
        {
          "indexed": false,
          "internalType": "uint256",
          "name": "reward",
          "type": "uint256"
        },
        {
          "indexed": false,
          "internalType": "uint256",
          "name": "tsStart",
          "type": "uint256"
        }
      ],
      "name": "ServiceUnstaked",
      "type": "event"
    },
    {
      "anonymous": false,
      "inputs": [
        {
          "indexed": true,
          "internalType": "address",
          "name": "to",
          "type": "address"
        },
        {
          "indexed": false,
          "internalType": "uint256",
          "name": "amount",
          "type": "uint256"
        }
      ],
      "name": "Withdraw",
      "type": "event"
    },
    {
      "inputs": [],
      "name": "VERSION",
      "outputs": [
        {
          "internalType": "string",
          "name": "",
          "type": "string"
        }
      ],
      "stateMutability": "view",
      "type": "function"
    },
    {
      "inputs": [
        {
          "internalType": "uint256",
          "name": "",
          "type": "uint256"
        }
      ],
      "name": "agentIds",
      "outputs": [
        {
          "internalType": "uint256",
          "name": "",
          "type": "uint256"
        }
      ],
      "stateMutability": "view",
      "type": "function"
    },
    {
      "inputs": [],
      "name": "availableRewards",
      "outputs": [
        {
          "internalType": "uint256",
          "name": "",
          "type": "uint256"
        }
      ],
      "stateMutability": "view",
      "type": "function"
    },
    {
      "inputs": [],
      "name": "balance",
      "outputs": [
        {
          "internalType": "uint256",
          "name": "",
          "type": "uint256"
        }
      ],
      "stateMutability": "view",
      "type": "function"
    },
    {
      "inputs": [
        {
          "internalType": "uint256",
          "name": "serviceId",
          "type": "uint256"
        }
      ],
      "name": "calculateServiceStakingReward",
      "outputs": [
        {
          "internalType": "uint256",
          "name": "reward",
          "type": "uint256"
        }
      ],
      "stateMutability": "view",
      "type": "function"
    },
    {
      "inputs": [],
      "name": "checkpoint",
      "outputs": [
        {
          "internalType": "uint256[]",
          "name": "",
          "type": "uint256[]"
        },
        {
          "internalType": "uint256[][]",
          "name": "",
          "type": "uint256[][]"
        },
        {
          "internalType": "uint256",
          "name": "",
          "type": "uint256"
        },
        {
          "internalType": "uint256[]",
          "name": "",
          "type": "uint256[]"
        },
        {
          "internalType": "uint256[]",
          "name": "",
          "type": "uint256[]"
        },
        {
          "internalType": "bool",
          "name": "success",
          "type": "bool"
        }
      ],
      "stateMutability": "nonpayable",
      "type": "function"
    },
    {
      "inputs": [],
      "name": "configHash",
      "outputs": [
        {
          "internalType": "bytes32",
          "name": "",
          "type": "bytes32"
        }
      ],
      "stateMutability": "view",
      "type": "function"
    },
    {
      "inputs": [
        {
          "internalType": "uint256",
          "name": "serviceId",
          "type": "uint256"
        }
      ],
      "name": "isServiceStaked",
      "outputs": [
        {
          "internalType": "bool",
          "name": "",
          "type": "bool"
        }
      ],
      "stateMutability": "view",
      "type": "function"
    },
    {
      "inputs": [],
      "name": "livenessPeriod",
      "outputs": [
        {
          "internalType": "uint256",
          "name": "",
          "type": "uint256"
        }
      ],
      "stateMutability": "view",
      "type": "function"
    },
    {
      "inputs": [],
      "name": "livenessRatio",
      "outputs": [
        {
          "internalType": "uint256",
          "name": "",
          "type": "uint256"
        }
      ],
      "stateMutability": "view",
      "type": "function"
    },
    {
      "inputs": [
        {
          "internalType": "uint256",
          "name": "",
          "type": "uint256"
        }
      ],
      "name": "mapServiceInfo",
      "outputs": [
        {
          "internalType": "address",
          "name": "multisig",
          "type": "address"
        },
        {
          "internalType": "address",
          "name": "owner",
          "type": "address"
        },
        {
          "internalType": "uint256",
          "name": "tsStart",
          "type": "uint256"
        },
        {
          "internalType": "uint256",
          "name": "reward",
          "type": "uint256"
        }
      ],
      "stateMutability": "view",
      "type": "function"
    },
    {
      "inputs": [],
      "name": "maxNumServices",
      "outputs": [
        {
          "internalType": "uint256",
          "name": "",
          "type": "uint256"
        }
      ],
      "stateMutability": "view",
      "type": "function"
    },
    {
      "inputs": [],
      "name": "minStakingDeposit",
      "outputs": [
        {
          "internalType": "uint256",
          "name": "",
          "type": "uint256"
        }
      ],
      "stateMutability": "view",
      "type": "function"
    },
    {
      "inputs": [],
      "name": "numAgentInstances",
      "outputs": [
        {
          "internalType": "uint256",
          "name": "",
          "type": "uint256"
        }
      ],
      "stateMutability": "view",
      "type": "function"
    },
    {
      "inputs": [
        {
          "internalType": "address",
          "name": "",
          "type": "address"
        },
        {
          "internalType": "address",
          "name": "",
          "type": "address"
        },
        {
          "internalType": "uint256",
          "name": "",
          "type": "uint256"
        },
        {
          "internalType": "bytes",
          "name": "",
          "type": "bytes"
        }
      ],
      "name": "onERC721Received",
      "outputs": [
        {
          "internalType": "bytes4",
          "name": "",
          "type": "bytes4"
        }
      ],
      "stateMutability": "nonpayable",
      "type": "function"
    },
    {
      "inputs": [],
      "name": "proxyHash",
      "outputs": [
        {
          "internalType": "bytes32",
          "name": "",
          "type": "bytes32"
        }
      ],
      "stateMutability": "view",
      "type": "function"
    },
    {
      "inputs": [],
      "name": "rewardsPerSecond",
      "outputs": [
        {
          "internalType": "uint256",
          "name": "",
          "type": "uint256"
        }
      ],
      "stateMutability": "view",
      "type": "function"
    },
    {
      "inputs": [],
      "name": "serviceRegistry",
      "outputs": [
        {
          "internalType": "address",
          "name": "",
          "type": "address"
        }
      ],
      "stateMutability": "view",
      "type": "function"
    },
    {
      "inputs": [
        {
          "internalType": "uint256",
          "name": "",
          "type": "uint256"
        }
      ],
      "name": "setServiceIds",
      "outputs": [
        {
          "internalType": "uint256",
          "name": "",
          "type": "uint256"
        }
      ],
      "stateMutability": "view",
      "type": "function"
    },
    {
      "inputs": [
        {
          "internalType": "uint256",
          "name": "serviceId",
          "type": "uint256"
        }
      ],
      "name": "stake",
      "outputs": [],
      "stateMutability": "nonpayable",
      "type": "function"
    },
    {
      "inputs": [],
      "name": "threshold",
      "outputs": [
        {
          "internalType": "uint256",
          "name": "",
          "type": "uint256"
        }
      ],
      "stateMutability": "view",
      "type": "function"
    },
    {
      "inputs": [],
      "name": "tsCheckpoint",
      "outputs": [
        {
          "internalType": "uint256",
          "name": "",
          "type": "uint256"
        }
      ],
      "stateMutability": "view",
      "type": "function"
    },
    {
      "inputs": [
        {
          "internalType": "uint256",
          "name": "serviceId",
          "type": "uint256"
        }
      ],
      "name": "unstake",
      "outputs": [],
      "stateMutability": "nonpayable",
      "type": "function"
    },
    {
      "stateMutability": "payable",
      "type": "receive"
    }
  ],
  "bytecode": "0x6101c060405234801562000011575f80fd5b50604051620024da380380620024da833981016040819052620000349162000360565b828282825f01515f14806200004b57506020830151155b806200005957506060830151155b806200006757506080830151155b8062000075575060a0830151155b156200009457604051637c946ed760e01b815260040160405180910390fd5b600283604001511015620000d057604080840151905163491a2bb160e01b81526004810191909152600260248201526044015b60405180910390fd5b6001600160a01b038216620000f85760405163d92e233d60e01b815260040160405180910390fd5b82516080908152602084015160a0908152604085015160c052606085015160e09081529185015161010090815290850151610120526001600160a01b038416610180529084015161014052830151610160525f805b8460c00151518110156200022e57818560c0015182815181106200017557620001756200043e565b602002602001015111620001c1578460c0015181815181106200019c576200019c6200043e565b6020026020010151604051632ab10b0b60e21b8152600401620000c791815260200190565b8460c001518181518110620001da57620001da6200043e565b6020908102919091010151600380546001810182555f919091527fc2575a0e9e593c00f959f8c92f12db2869c3395a3b0502d05e2516446f71f85b018190559150620002268162000452565b90506200014d565b50816200024e57604051637c946ed760e01b815260040160405180910390fd5b506101a0525050426002555062000477915050565b634e487b7160e01b5f52604160045260245ffd5b60405161012081016001600160401b03811182821017156200029d576200029d62000263565b60405290565b5f82601f830112620002b3575f80fd5b815160206001600160401b0380831115620002d257620002d262000263565b8260051b604051601f19603f83011681018181108482111715620002fa57620002fa62000263565b60405293845285810183019383810192508785111562000318575f80fd5b83870191505b8482101562000339578151835291830191908301906200031e565b979650505050505050565b80516001600160a01b03811681146200035b575f80fd5b919050565b5f805f6060848603121562000373575f80fd5b83516001600160401b03808211156200038a575f80fd5b9085019061012082880312156200039f575f80fd5b620003a962000277565b825181526020830151602082015260408301516040820152606083015160608201526080830151608082015260a083015160a082015260c083015182811115620003f1575f80fd5b620003ff89828601620002a3565b60c08301525060e0838101519082015261010092830151928101929092525092506200042e6020850162000344565b9150604084015190509250925092565b634e487b7160e01b5f52603260045260245ffd5b5f600182016200047057634e487b7160e01b5f52601160045260245ffd5b5060010190565b60805160a05160c05160e05161010051610120516101405161016051610180516101a051611f83620005575f395f81816103e70152610dca01525f81816105020152818161086b01528181610b8d0152610fc701525f818161058d01528181610c510152610c8001525f81816102dd01528181610cc60152610cfa01525f81816103620152610c0f01525f8181610395015261198201525f818161031001526114cd01525f81816105c0015281816117a801526117e401525f81816105f301526116ef01525f818161026601528181610b150152610b490152611f835ff3fe60806040526004361061017b575f3560e01c8063879d9090116100d1578063cd25fe381161007c578063eacdaabc11610057578063eacdaabc146105e2578063eb338c9614610615578063ffa1ad7414610634575f80fd5b8063cd25fe381461053c578063e1f1176d1461057c578063e77cdcc9146105af575f80fd5b8063b69ef8a8116100ac578063b69ef8a8146104b7578063c2c4c5c1146104cb578063cbcf252a146104f1575f80fd5b8063879d909014610409578063a694fc3a1461041e578063a74466ad1461043d575f80fd5b806352c824f511610131578063592cf3fb1161010c578063592cf3fb1461038457806378e06136146103b7578063809cee2f146103d6575f80fd5b806352c824f5146102ff57806356e76058146103325780635829c5ec14610351575f80fd5b80632e17de78116101615780632e17de78146102965780633e732997146102b757806342cde4e8146102cc575f80fd5b8063150b7a02146101f457806316a7517214610255575f80fd5b366101f0575f345f5461018e9190611a3d565b90505f3460015461019f9190611a3d565b5f8390556001819055604080513481526020810185905290810182905290915033907f36af321ec8d3c75236829c5317affd40ddb308863a1236d2d277a4025cccee1e9060600160405180910390a2005b5f80fd5b3480156101ff575f80fd5b5061021f61020e366004611a64565b630a85bd0160e11b95945050505050565b6040517fffffffff0000000000000000000000000000000000000000000000000000000090911681526020015b60405180910390f35b348015610260575f80fd5b506102887f000000000000000000000000000000000000000000000000000000000000000081565b60405190815260200161024c565b3480156102a1575f80fd5b506102b56102b0366004611afb565b610671565b005b3480156102c2575f80fd5b5061028860025481565b3480156102d7575f80fd5b506102887f000000000000000000000000000000000000000000000000000000000000000081565b34801561030a575f80fd5b506102887f000000000000000000000000000000000000000000000000000000000000000081565b34801561033d575f80fd5b5061028861034c366004611afb565b61092e565b34801561035c575f80fd5b506102887f000000000000000000000000000000000000000000000000000000000000000081565b34801561038f575f80fd5b506102887f000000000000000000000000000000000000000000000000000000000000000081565b3480156103c2575f80fd5b506102886103d1366004611afb565b61094d565b3480156103e1575f80fd5b506102887f000000000000000000000000000000000000000000000000000000000000000081565b348015610414575f80fd5b5061028860015481565b348015610429575f80fd5b506102b5610438366004611afb565b610aee565b348015610448575f80fd5b5061048c610457366004611afb565b600460208190525f918252604090912080546001820154600383015492909301546001600160a01b0391821693909116919084565b604080516001600160a01b03958616815294909316602085015291830152606082015260800161024c565b3480156104c2575f80fd5b506102885f5481565b3480156104d6575f80fd5b506104df61107f565b60405161024c96959493929190611b4b565b3480156104fc575f80fd5b506105247f000000000000000000000000000000000000000000000000000000000000000081565b6040516001600160a01b03909116815260200161024c565b348015610547575f80fd5b5061056c610556366004611afb565b5f90815260046020526040902060030154151590565b604051901515815260200161024c565b348015610587575f80fd5b506102887f000000000000000000000000000000000000000000000000000000000000000081565b3480156105ba575f80fd5b506102887f000000000000000000000000000000000000000000000000000000000000000081565b3480156105ed575f80fd5b506102887f000000000000000000000000000000000000000000000000000000000000000081565b348015610620575f80fd5b5061028861062f366004611afb565b611367565b34801561063f575f80fd5b50610664604051806040016040528060058152602001640302e312e360dc1b81525081565b60405161024c9190611c21565b5f81815260046020526040902060018101546001600160a01b031633146106c757600181015460405163521eb56d60e11b81523360048201526001600160a01b0390911660248201526044015b60405180910390fd5b5f6106d061107f565b505050505090505f5b815181101561071357838282815181106106f5576106f5611c6c565b602002602001015103156107135761070c81611c80565b90506106d9565b6004830154600284018054604080516020808402820181019092528281525f939092909183018282801561076457602002820191905f5260205f20905b815481526020019060010190808311610750575b505050600388015488545f8b8152600460205260408120805473ffffffffffffffffffffffffffffffffffffffff199081168255600182018054909116905595965091946001600160a01b03909116935091506107c460028301826119ae565b505f60038201819055600490910155600580546107e390600190611c98565b815481106107f3576107f3611c6c565b905f5260205f2001546005868154811061080f5761080f611c6c565b5f91825260209091200155600580548061082b5761082b611cab565b5f8281526020812082015f1990810191909155019055604051632142170760e11b8152306004820152336024820152604481018990526001600160a01b037f000000000000000000000000000000000000000000000000000000000000000016906342842e0e906064015f604051808303815f87803b1580156108ac575f80fd5b505af11580156108be573d5f803e3d5ffd5b505050505f8411156108d4576108d48185611376565b806001600160a01b0316336001600160a01b0316897f246ee6115bfd84e00097b16569c2ff2f822026bb9595a82cd2c1e69d4b6ea50c86888760405161091c93929190611cbf565b60405180910390a45050505050505050565b6003818154811061093d575f80fd5b5f91825260209091200154905081565b5f818152600460209081526040808320815160a08101835281546001600160a01b03908116825260018301541681850152600282018054845181870281018701865281815287969395860193909291908301828280156109ca57602002820191905f5260205f20905b8154815260200190600101908083116109b6575b505050505081526020016003820154815260200160048201548152505090508060800151915080606001515f03610a175760405163e0606b6360e01b8152600481018490526024016106be565b5f805f805f610a2461141d565b5050945094509450945094505f841115610ae3575f5b8251811015610ae15788838281518110610a5657610a56611c6c565b602002602001015103610ad15785841115610aac578386838381518110610a7f57610a7f611c6c565b6020026020010151610a919190611ce3565b610a9b9190611cfa565b610aa59089611a3d565b9750610ae1565b818181518110610abe57610abe611c6c565b602002602001015188610aa59190611a3d565b610ada81611c80565b9050610a3a565b505b505050505050919050565b6001545f03610b105760405163afb0be3360e01b815260040160405180910390fd5b6005547f00000000000000000000000000000000000000000000000000000000000000008103610b755760405163fd20861560e01b81527f000000000000000000000000000000000000000000000000000000000000000060048201526024016106be565b60405163ef0e239b60e01b8152600481018390525f907f00000000000000000000000000000000000000000000000000000000000000006001600160a01b03169063ef0e239b906024015f60405180830381865afa158015610bd9573d5f803e3d5ffd5b505050506040513d5f823e601f3d908101601f19168201604052610c009190810190611e37565b9050806080015163ffffffff167f000000000000000000000000000000000000000000000000000000000000000014610c4f57604051637ad404bf60e11b8152600481018490526024016106be565b7f000000000000000000000000000000000000000000000000000000000000000015801590610ca2575080604001517f000000000000000000000000000000000000000000000000000000000000000014155b15610cc357604051637ad404bf60e11b8152600481018490526024016106be565b5f7f0000000000000000000000000000000000000000000000000000000000000000118015610d1c5750806060015163ffffffff167f000000000000000000000000000000000000000000000000000000000000000014155b15610d3d57604051637ad404bf60e11b8152600481018490526024016106be565b60048160c001516005811115610d5557610d55611f10565b14610d94578060c001516005811115610d7057610d70611f10565b604051633c053f9d60e21b81526004810191909152602481018490526044016106be565b5f81602001516001600160a01b0316803b806020016040519081016040528181525f908060200190933c805190602001209050807f000000000000000000000000000000000000000000000000000000000000000014610e1757602082015160405162a2307960e51b81526001600160a01b0390911660048201526024016106be565b6003548015610ee35760e083015151818114610e4957604051637ad404bf60e11b8152600481018790526024016106be565b5f5b81811015610ee0578460e001518181518110610e6957610e69611c6c565b602002602001015163ffffffff1660038281548110610e8a57610e8a611c6c565b905f5260205f20015414610ed05760038181548110610eab57610eab611c6c565b905f5260205f200154604051632ab10b0b60e21b81526004016106be91815260200190565b610ed981611c80565b9050610e4b565b50505b610efe85845f01516bffffffffffffffffffffffff166117a6565b5f85815260046020908152604082209085015181546001600160a01b03821673ffffffffffffffffffffffffffffffffffffffff1991821617835560018301805490911633179055909190610f5290611814565b8051909150610f6a90600284019060208401906119cc565b50426003830155600580546001810182555f919091527f036b6384b5eca791c62761152d0c79bb0604c104a5fb6f4eb0703f3154bb3db001879055604051632142170760e11b8152336004820152306024820152604481018890527f00000000000000000000000000000000000000000000000000000000000000006001600160a01b0316906342842e0e906064015f604051808303815f87803b158015611010575f80fd5b505af1158015611022573d5f803e3d5ffd5b5050505084602001516001600160a01b0316336001600160a01b0316887f5d43ac9b1b213902df90d405b0006308578486b6c62182c5df202ed572c844e48460405161106e9190611f24565b60405180910390a450505050505050565b6060805f6060805f805f805f805f8061109661141d565b96509650965096509650965096505f86111561128c575f878611156111ff575f8060015b8981101561115557888b8883815181106110d6576110d6611c6c565b60200260200101516110e89190611ce3565b6110f29190611cfa565b92506110fe8383611a3d565b915087818151811061111257611112611c6c565b602002602001015193508260045f8681526020019081526020015f206004015f82825461113f9190611a3d565b9091555061114e905081611c80565b90506110ba565b50878a875f8151811061116a5761116a611c6c565b602002602001015161117c9190611ce3565b6111869190611cfa565b91506111928282611a3d565b9050865f815181106111a6576111a6611c6c565b60200260200101519250808a11156111cf576111c2818b611c98565b6111cc9083611a3d565b91505b5f83815260046020819052604082200180548492906111ef908490611a3d565b909155505f9a5061128592505050565b5f5b878110156112775785818151811061121b5761121b611c6c565b6020026020010151915084818151811061123757611237611c6c565b602002602001015160045f8481526020019081526020015f206004015f8282546112619190611a3d565b90915550611270905081611c80565b9050611201565b506112828689611c98565b97505b5060018790555b805115611352575f5b825181101561130f575f8382815181106112b1576112b1611c6c565b602002602001015190508282815181106112cd576112cd611c6c565b602002602001015160045f8381526020019081526020015f2060020190805190602001906112fc9291906119cc565b50508061130890611c80565b9050611295565b50426002556040805188815260208101889052600199507f21d81d5d656869e8ce3ba8d65526a2f0dbbcd3d36f5f9999eb7c84360e45eced910160405180910390a15b909c909b509399509097509550929350915050565b6005818154811061093d575f80fd5b805f808282546113869190611c98565b90915550506040515f906001600160a01b0384169083908381818185875af1925050503d805f81146113d3576040519150601f19603f3d011682016040523d82523d5f602084013e6113d8565b606091505b50509050806114185760405163cd3f165960e01b81525f60048201523060248201526001600160a01b0384166044820152606481018390526084016106be565b505050565b5f805f6060806060805f60058054905090508067ffffffffffffffff81111561144857611448611d19565b604051908082528060200260200182016040528015611471578160200160208202803683370190505b5092505f5b818110156114c7576005818154811061149157611491611c6c565b905f5260205f2001548482815181106114ac576114ac611c6c565b60209081029190910101526114c081611c80565b9050611476565b506002547f00000000000000000000000000000000000000000000000000000000000000006114f68242611c98565b1061179b576001549850881561179b578167ffffffffffffffff81111561151f5761151f611d19565b604051908082528060200260200182016040528015611548578160200160208202803683370190505b5095508167ffffffffffffffff81111561156457611564611d19565b60405190808252806020026020018201604052801561158d578160200160208202803683370190505b5094508167ffffffffffffffff8111156115a9576115a9611d19565b6040519080825280602002602001820160405280156115dc57816020015b60608152602001906001900390816115c75790505b5092505f5b82811015611799575f60045f8784815181106115ff576115ff611c6c565b60209081029190910181015182528101919091526040015f20805490915061162f906001600160a01b0316611814565b85838151811061164157611641611c6c565b6020908102919091010152600381015483908181111561165f578091505b6116698242611c98565b90505f6116e088868151811061168157611681611c6c565b6020026020010151856002018054806020026020016040519081016040528092919081815260200182805480156116d557602002820191905f5260205f20905b8154815260200190600101908083116116c1575b505050505084611825565b90508015611784575f611713837f0000000000000000000000000000000000000000000000000000000000000000611ce3565b905061171f818e611a3d565b9c50808b8f8151811061173457611734611c6c565b60200260200101818152505089868151811061175257611752611c6c565b60200260200101518c8f8151811061176c5761176c611c6c565b60209081029190910101526117808e611c80565b9d50505b505050508061179290611c80565b90506115e1565b505b505090919293949596565b7f00000000000000000000000000000000000000000000000000000000000000008110156118105760405163491a2bb160e01b8152600481018290527f000000000000000000000000000000000000000000000000000000000000000060248201526044016106be565b5050565b606061181f82611839565b92915050565b5f6118318484846118de565b949350505050565b60408051600180825281830190925260609160208083019080368337019050509050816001600160a01b031663affed0e06040518163ffffffff1660e01b8152600401602060405180830381865afa158015611897573d5f803e3d5ffd5b505050506040513d601f19601f820116820180604052508101906118bb9190611f36565b815f815181106118cd576118cd611c6c565b602002602001018181525050919050565b5f808211801561191f5750825f815181106118fb576118fb611c6c565b6020026020010151845f8151811061191557611915611c6c565b6020026020010151115b156119a7575f82845f8151811061193857611938611c6c565b6020026020010151865f8151811061195257611952611c6c565b60200260200101516119649190611c98565b61197690670de0b6b3a7640000611ce3565b6119809190611cfa565b7f000000000000000000000000000000000000000000000000000000000000000011159150505b9392505050565b5080545f8255905f5260205f20908101906119c99190611a15565b50565b828054828255905f5260205f20908101928215611a05579160200282015b82811115611a055782518255916020019190600101906119ea565b50611a11929150611a15565b5090565b5b80821115611a11575f8155600101611a16565b634e487b7160e01b5f52601160045260245ffd5b8082018082111561181f5761181f611a29565b6001600160a01b03811681146119c9575f80fd5b5f805f805f60808688031215611a78575f80fd5b8535611a8381611a50565b94506020860135611a9381611a50565b935060408601359250606086013567ffffffffffffffff80821115611ab6575f80fd5b818801915088601f830112611ac9575f80fd5b813581811115611ad7575f80fd5b896020828501011115611ae8575f80fd5b9699959850939650602001949392505050565b5f60208284031215611b0b575f80fd5b5035919050565b5f8151808452602080850194508084015f5b83811015611b4057815187529582019590820190600101611b24565b509495945050505050565b60c081525f611b5d60c0830189611b12565b6020838203818501528189518084528284019150828160051b850101838c015f805b84811015611bd257878403601f19018652825180518086529088019088860190845b81811015611bbd5783518352928a0192918a0191600101611ba1565b50509688019694505091860191600101611b7f565b5050508a60408801528681036060880152611bed818b611b12565b9450505050508281036080840152611c058186611b12565b915050611c1660a083018415159052565b979650505050505050565b5f6020808352835180828501525f5b81811015611c4c57858101830151858201604001528201611c30565b505f604082860101526040601f19601f8301168501019250505092915050565b634e487b7160e01b5f52603260045260245ffd5b5f60018201611c9157611c91611a29565b5060010190565b8181038181111561181f5761181f611a29565b634e487b7160e01b5f52603160045260245ffd5b606081525f611cd16060830186611b12565b60208301949094525060400152919050565b808202811582820484141761181f5761181f611a29565b5f82611d1457634e487b7160e01b5f52601260045260245ffd5b500490565b634e487b7160e01b5f52604160045260245ffd5b604051610100810167ffffffffffffffff81118282101715611d5157611d51611d19565b60405290565b80516bffffffffffffffffffffffff81168114611d72575f80fd5b919050565b8051611d7281611a50565b805163ffffffff81168114611d72575f80fd5b805160068110611d72575f80fd5b5f82601f830112611db2575f80fd5b8151602067ffffffffffffffff80831115611dcf57611dcf611d19565b8260051b604051601f19603f83011681018181108482111715611df457611df4611d19565b604052938452858101830193838101925087851115611e11575f80fd5b83870191505b84821015611c1657611e2882611d82565b83529183019190830190611e17565b5f60208284031215611e47575f80fd5b815167ffffffffffffffff80821115611e5e575f80fd5b908301906101008286031215611e72575f80fd5b611e7a611d2d565b611e8383611d57565b8152611e9160208401611d77565b602082015260408301516040820152611eac60608401611d82565b6060820152611ebd60808401611d82565b6080820152611ece60a08401611d82565b60a0820152611edf60c08401611d95565b60c082015260e083015182811115611ef5575f80fd5b611f0187828601611da3565b60e08301525095945050505050565b634e487b7160e01b5f52602160045260245ffd5b602081525f6119a76020830184611b12565b5f60208284031215611f46575f80fd5b505191905056fea2646970667358221220fce902e52cfe37cc6f4eb03125b4f2a3a0e3897a370dbfb7587fecc7067a04a064736f6c63430008150033",
  "linkReferences": {},
  "deployedLinkReferences": {}
}