{
  "_format": "hh-sol-artifact-1",
  "contractName": "AgentRegistry",
  "sourceName": "contracts/AgentRegistry.sol",
  "abi": [
    {
      "inputs": [
        {
          "internalType": "string",
          "name": "_name",
          "type": "string"
        },
        {
          "internalType": "string",
          "name": "_symbol",
          "type": "string"
        },
        {
          "internalType": "string",
          "name": "_baseURI",
          "type": "string"
        },
        {
          "internalType": "address",
          "name": "_componentRegistry",
          "type": "address"
        }
      ],
      "stateMutability": "nonpayable",
      "type": "constructor"
    },
    {
      "inputs": [
        {
          "internalType": "address",
          "name": "operator",
          "type": "address"
        }
      ],
      "name": "AgentInstanceRegistered",
      "type": "error"
    },
    {
      "inputs": [
        {
          "internalType": "uint256",
          "name": "serviceId",
          "type": "uint256"
        }
      ],
      "name": "AgentInstancesSlotsFilled",
      "type": "error"
    },
    {
      "inputs": [
        {
          "internalType": "uint256",
          "name": "agentId",
          "type": "uint256"
        }
      ],
      "name": "AgentNotFound",
      "type": "error"
    },
    {
      "inputs": [
        {
          "internalType": "uint256",
          "name": "agentId",
          "type": "uint256"
        },
        {
          "internalType": "uint256",
          "name": "serviceId",
          "type": "uint256"
        }
      ],
      "name": "AgentNotInService",
      "type": "error"
    },
    {
      "inputs": [
        {
          "internalType": "uint256",
          "name": "componentId",
          "type": "uint256"
        }
      ],
      "name": "ComponentNotFound",
      "type": "error"
    },
    {
      "inputs": [],
      "name": "HashExists",
      "type": "error"
    },
    {
      "inputs": [
        {
          "internalType": "uint256",
          "name": "sent",
          "type": "uint256"
        },
        {
          "internalType": "uint256",
          "name": "expected",
          "type": "uint256"
        },
        {
          "internalType": "uint256",
          "name": "serviceId",
          "type": "uint256"
        }
      ],
      "name": "IncorrectAgentBondingValue",
      "type": "error"
    },
    {
      "inputs": [
        {
          "internalType": "uint256",
          "name": "sent",
          "type": "uint256"
        },
        {
          "internalType": "uint256",
          "name": "expected",
          "type": "uint256"
        },
        {
          "internalType": "uint256",
          "name": "serviceId",
          "type": "uint256"
        }
      ],
      "name": "IncorrectRegistrationDepositValue",
      "type": "error"
    },
    {
      "inputs": [
        {
          "internalType": "address",
          "name": "sender",
          "type": "address"
        },
        {
          "internalType": "address",
          "name": "manager",
          "type": "address"
        }
      ],
      "name": "ManagerOnly",
      "type": "error"
    },
    {
      "inputs": [
        {
          "internalType": "address",
          "name": "provided",
          "type": "address"
        },
        {
          "internalType": "address",
          "name": "expected",
          "type": "address"
        },
        {
          "internalType": "uint256",
          "name": "serviceId",
          "type": "uint256"
        }
      ],
      "name": "OnlyOwnServiceMultisig",
      "type": "error"
    },
    {
      "inputs": [
        {
          "internalType": "address",
          "name": "operator",
          "type": "address"
        },
        {
          "internalType": "uint256",
          "name": "serviceId",
          "type": "uint256"
        }
      ],
      "name": "OperatorHasNoInstances",
      "type": "error"
    },
    {
      "inputs": [
        {
          "internalType": "uint256",
          "name": "provided",
          "type": "uint256"
        },
        {
          "internalType": "uint256",
          "name": "max",
          "type": "uint256"
        }
      ],
      "name": "Overflow",
      "type": "error"
    },
    {
      "inputs": [
        {
          "internalType": "address",
          "name": "sender",
          "type": "address"
        },
        {
          "internalType": "address",
          "name": "owner",
          "type": "address"
        }
      ],
      "name": "OwnerOnly",
      "type": "error"
    },
    {
      "inputs": [],
      "name": "Paused",
      "type": "error"
    },
    {
      "inputs": [],
      "name": "ReentrancyGuard",
      "type": "error"
    },
    {
      "inputs": [
        {
          "internalType": "uint256",
          "name": "serviceId",
          "type": "uint256"
        }
      ],
      "name": "ServiceMustBeInactive",
      "type": "error"
    },
    {
      "inputs": [
        {
          "internalType": "address",
          "name": "token",
          "type": "address"
        },
        {
          "internalType": "address",
          "name": "from",
          "type": "address"
        },
        {
          "internalType": "address",
          "name": "to",
          "type": "address"
        },
        {
          "internalType": "uint256",
          "name": "value",
          "type": "uint256"
        }
      ],
      "name": "TransferFailed",
      "type": "error"
    },
    {
      "inputs": [
        {
          "internalType": "address",
          "name": "multisig",
          "type": "address"
        }
      ],
      "name": "UnauthorizedMultisig",
      "type": "error"
    },
    {
      "inputs": [
        {
          "internalType": "uint256",
          "name": "agentId",
          "type": "uint256"
        }
      ],
      "name": "WrongAgentId",
      "type": "error"
    },
    {
      "inputs": [
        {
          "internalType": "uint256",
          "name": "numValues1",
          "type": "uint256"
        },
        {
          "internalType": "uint256",
          "name": "numValues2",
          "type": "uint256"
        }
      ],
      "name": "WrongArrayLength",
      "type": "error"
    },
    {
      "inputs": [
        {
          "internalType": "uint256",
          "name": "serviceId",
          "type": "uint256"
        }
      ],
      "name": "WrongOperator",
      "type": "error"
    },
    {
      "inputs": [
        {
          "internalType": "uint256",
          "name": "state",
          "type": "uint256"
        },
        {
          "internalType": "uint256",
          "name": "serviceId",
          "type": "uint256"
        }
      ],
      "name": "WrongServiceState",
      "type": "error"
    },
    {
      "inputs": [
        {
          "internalType": "uint256",
          "name": "currentThreshold",
          "type": "uint256"
        },
        {
          "internalType": "uint256",
          "name": "minThreshold",
          "type": "uint256"
        },
        {
          "internalType": "uint256",
          "name": "maxThreshold",
          "type": "uint256"
        }
      ],
      "name": "WrongThreshold",
      "type": "error"
    },
    {
      "inputs": [],
      "name": "ZeroAddress",
      "type": "error"
    },
    {
      "inputs": [],
      "name": "ZeroValue",
      "type": "error"
    },
    {
      "anonymous": false,
      "inputs": [
        {
          "indexed": true,
          "internalType": "address",
          "name": "owner",
          "type": "address"
        },
        {
          "indexed": true,
          "internalType": "address",
          "name": "spender",
          "type": "address"
        },
        {
          "indexed": true,
          "internalType": "uint256",
          "name": "id",
          "type": "uint256"
        }
      ],
      "name": "Approval",
      "type": "event"
    },
    {
      "anonymous": false,
      "inputs": [
        {
          "indexed": true,
          "internalType": "address",
          "name": "owner",
          "type": "address"
        },
        {
          "indexed": true,
          "internalType": "address",
          "name": "operator",
          "type": "address"
        },
        {
          "indexed": false,
          "internalType": "bool",
          "name": "approved",
          "type": "bool"
        }
      ],
      "name": "ApprovalForAll",
      "type": "event"
    },
    {
      "anonymous": false,
      "inputs": [
        {
          "indexed": false,
          "internalType": "string",
          "name": "baseURI",
          "type": "string"
        }
      ],
      "name": "BaseURIChanged",
      "type": "event"
    },
    {
      "anonymous": false,
      "inputs": [
        {
          "indexed": false,
          "internalType": "uint256",
          "name": "unitId",
          "type": "uint256"
        },
        {
          "indexed": false,
          "internalType": "enum UnitRegistry.UnitType",
          "name": "uType",
          "type": "uint8"
        },
        {
          "indexed": false,
          "internalType": "bytes32",
          "name": "unitHash",
          "type": "bytes32"
        }
      ],
      "name": "CreateUnit",
      "type": "event"
    },
    {
      "anonymous": false,
      "inputs": [
        {
          "indexed": true,
          "internalType": "address",
          "name": "manager",
          "type": "address"
        }
      ],
      "name": "ManagerUpdated",
      "type": "event"
    },
    {
      "anonymous": false,
      "inputs": [
        {
          "indexed": true,
          "internalType": "address",
          "name": "owner",
          "type": "address"
        }
      ],
      "name": "OwnerUpdated",
      "type": "event"
    },
    {
      "anonymous": false,
      "inputs": [
        {
          "indexed": true,
          "internalType": "address",
          "name": "from",
          "type": "address"
        },
        {
          "indexed": true,
          "internalType": "address",
          "name": "to",
          "type": "address"
        },
        {
          "indexed": true,
          "internalType": "uint256",
          "name": "id",
          "type": "uint256"
        }
      ],
      "name": "Transfer",
      "type": "event"
    },
    {
      "anonymous": false,
      "inputs": [
        {
          "indexed": false,
          "internalType": "uint256",
          "name": "unitId",
          "type": "uint256"
        },
        {
          "indexed": false,
          "internalType": "enum UnitRegistry.UnitType",
          "name": "uType",
          "type": "uint8"
        },
        {
          "indexed": false,
          "internalType": "bytes32",
          "name": "unitHash",
          "type": "bytes32"
        }
      ],
      "name": "UpdateUnitHash",
      "type": "event"
    },
    {
      "inputs": [
        {
          "internalType": "address",
          "name": "spender",
          "type": "address"
        },
        {
          "internalType": "uint256",
          "name": "id",
          "type": "uint256"
        }
      ],
      "name": "approve",
      "outputs": [],
      "stateMutability": "nonpayable",
      "type": "function"
    },
    {
      "inputs": [
        {
          "internalType": "address",
          "name": "owner",
          "type": "address"
        }
      ],
      "name": "balanceOf",
      "outputs": [
        {
          "internalType": "uint256",
          "name": "",
          "type": "uint256"
        }
      ],
      "stateMutability": "view",
      "type": "function"
    },
    {
      "inputs": [],
      "name": "baseURI",
      "outputs": [
        {
          "internalType": "string",
          "name": "",
          "type": "string"
        }
      ],
      "stateMutability": "view",
      "type": "function"
    },
    {
      "inputs": [
        {
          "internalType": "uint32[]",
          "name": "unitIds",
          "type": "uint32[]"
        }
      ],
      "name": "calculateSubComponents",
      "outputs": [
        {
          "internalType": "uint32[]",
          "name": "subComponentIds",
          "type": "uint32[]"
        }
      ],
      "stateMutability": "view",
      "type": "function"
    },
    {
      "inputs": [
        {
          "internalType": "address",
          "name": "newManager",
          "type": "address"
        }
      ],
      "name": "changeManager",
      "outputs": [],
      "stateMutability": "nonpayable",
      "type": "function"
    },
    {
      "inputs": [
        {
          "internalType": "address",
          "name": "newOwner",
          "type": "address"
        }
      ],
      "name": "changeOwner",
      "outputs": [],
      "stateMutability": "nonpayable",
      "type": "function"
    },
    {
      "inputs": [],
      "name": "componentRegistry",
      "outputs": [
        {
          "internalType": "address",
          "name": "",
          "type": "address"
        }
      ],
      "stateMutability": "view",
      "type": "function"
    },
    {
      "inputs": [
        {
          "internalType": "address",
          "name": "unitOwner",
          "type": "address"
        },
        {
          "internalType": "bytes32",
          "name": "unitHash",
          "type": "bytes32"
        },
        {
          "internalType": "uint32[]",
          "name": "dependencies",
          "type": "uint32[]"
        }
      ],
      "name": "create",
      "outputs": [
        {
          "internalType": "uint256",
          "name": "unitId",
          "type": "uint256"
        }
      ],
      "stateMutability": "nonpayable",
      "type": "function"
    },
    {
      "inputs": [
        {
          "internalType": "uint256",
          "name": "unitId",
          "type": "uint256"
        }
      ],
      "name": "exists",
      "outputs": [
        {
          "internalType": "bool",
          "name": "",
          "type": "bool"
        }
      ],
      "stateMutability": "view",
      "type": "function"
    },
    {
      "inputs": [
        {
          "internalType": "uint256",
          "name": "",
          "type": "uint256"
        }
      ],
      "name": "getApproved",
      "outputs": [
        {
          "internalType": "address",
          "name": "",
          "type": "address"
        }
      ],
      "stateMutability": "view",
      "type": "function"
    },
    {
      "inputs": [
        {
          "internalType": "uint256",
          "name": "unitId",
          "type": "uint256"
        }
      ],
      "name": "getDependencies",
      "outputs": [
        {
          "internalType": "uint256",
          "name": "numDependencies",
          "type": "uint256"
        },
        {
          "internalType": "uint32[]",
          "name": "dependencies",
          "type": "uint32[]"
        }
      ],
      "stateMutability": "view",
      "type": "function"
    },
    {
      "inputs": [
        {
          "internalType": "uint256",
          "name": "unitId",
          "type": "uint256"
        }
      ],
      "name": "getLocalSubComponents",
      "outputs": [
        {
          "internalType": "uint32[]",
          "name": "subComponentIds",
          "type": "uint32[]"
        },
        {
          "internalType": "uint256",
          "name": "numSubComponents",
          "type": "uint256"
        }
      ],
      "stateMutability": "view",
      "type": "function"
    },
    {
      "inputs": [
        {
          "internalType": "uint256",
          "name": "unitId",
          "type": "uint256"
        }
      ],
      "name": "getUnit",
      "outputs": [
        {
          "components": [
            {
              "internalType": "bytes32",
              "name": "unitHash",
              "type": "bytes32"
            },
            {
              "internalType": "uint32[]",
              "name": "dependencies",
              "type": "uint32[]"
            }
          ],
          "internalType": "struct UnitRegistry.Unit",
          "name": "unit",
          "type": "tuple"
        }
      ],
      "stateMutability": "view",
      "type": "function"
    },
    {
      "inputs": [
        {
          "internalType": "uint256",
          "name": "unitId",
          "type": "uint256"
        }
      ],
      "name": "getUpdatedHashes",
      "outputs": [
        {
          "internalType": "uint256",
          "name": "numHashes",
          "type": "uint256"
        },
        {
          "internalType": "bytes32[]",
          "name": "unitHashes",
          "type": "bytes32[]"
        }
      ],
      "stateMutability": "view",
      "type": "function"
    },
    {
      "inputs": [
        {
          "internalType": "address",
          "name": "",
          "type": "address"
        },
        {
          "internalType": "address",
          "name": "",
          "type": "address"
        }
      ],
      "name": "isApprovedForAll",
      "outputs": [
        {
          "internalType": "bool",
          "name": "",
          "type": "bool"
        }
      ],
      "stateMutability": "view",
      "type": "function"
    },
    {
      "inputs": [],
      "name": "manager",
      "outputs": [
        {
          "internalType": "address",
          "name": "",
          "type": "address"
        }
      ],
      "stateMutability": "view",
      "type": "function"
    },
    {
      "inputs": [
        {
          "internalType": "uint256",
          "name": "",
          "type": "uint256"
        },
        {
          "internalType": "uint256",
          "name": "",
          "type": "uint256"
        }
      ],
      "name": "mapSubComponents",
      "outputs": [
        {
          "internalType": "uint32",
          "name": "",
          "type": "uint32"
        }
      ],
      "stateMutability": "view",
      "type": "function"
    },
    {
      "inputs": [
        {
          "internalType": "uint256",
          "name": "",
          "type": "uint256"
        },
        {
          "internalType": "uint256",
          "name": "",
          "type": "uint256"
        }
      ],
      "name": "mapUnitIdHashes",
      "outputs": [
        {
          "internalType": "bytes32",
          "name": "",
          "type": "bytes32"
        }
      ],
      "stateMutability": "view",
      "type": "function"
    },
    {
      "inputs": [
        {
          "internalType": "uint256",
          "name": "",
          "type": "uint256"
        }
      ],
      "name": "mapUnits",
      "outputs": [
        {
          "internalType": "bytes32",
          "name": "unitHash",
          "type": "bytes32"
        }
      ],
      "stateMutability": "view",
      "type": "function"
    },
    {
      "inputs": [],
      "name": "name",
      "outputs": [
        {
          "internalType": "string",
          "name": "",
          "type": "string"
        }
      ],
      "stateMutability": "view",
      "type": "function"
    },
    {
      "inputs": [],
      "name": "owner",
      "outputs": [
        {
          "internalType": "address",
          "name": "",
          "type": "address"
        }
      ],
      "stateMutability": "view",
      "type": "function"
    },
    {
      "inputs": [
        {
          "internalType": "uint256",
          "name": "id",
          "type": "uint256"
        }
      ],
      "name": "ownerOf",
      "outputs": [
        {
          "internalType": "address",
          "name": "owner",
          "type": "address"
        }
      ],
      "stateMutability": "view",
      "type": "function"
    },
    {
      "inputs": [
        {
          "internalType": "address",
          "name": "from",
          "type": "address"
        },
        {
          "internalType": "address",
          "name": "to",
          "type": "address"
        },
        {
          "internalType": "uint256",
          "name": "id",
          "type": "uint256"
        }
      ],
      "name": "safeTransferFrom",
      "outputs": [],
      "stateMutability": "nonpayable",
      "type": "function"
    },
    {
      "inputs": [
        {
          "internalType": "address",
          "name": "from",
          "type": "address"
        },
        {
          "internalType": "address",
          "name": "to",
          "type": "address"
        },
        {
          "internalType": "uint256",
          "name": "id",
          "type": "uint256"
        },
        {
          "internalType": "bytes",
          "name": "data",
          "type": "bytes"
        }
      ],
      "name": "safeTransferFrom",
      "outputs": [],
      "stateMutability": "nonpayable",
      "type": "function"
    },
    {
      "inputs": [
        {
          "internalType": "address",
          "name": "operator",
          "type": "address"
        },
        {
          "internalType": "bool",
          "name": "approved",
          "type": "bool"
        }
      ],
      "name": "setApprovalForAll",
      "outputs": [],
      "stateMutability": "nonpayable",
      "type": "function"
    },
    {
      "inputs": [
        {
          "internalType": "string",
          "name": "bURI",
          "type": "string"
        }
      ],
      "name": "setBaseURI",
      "outputs": [],
      "stateMutability": "nonpayable",
      "type": "function"
    },
    {
      "inputs": [
        {
          "internalType": "bytes4",
          "name": "interfaceId",
          "type": "bytes4"
        }
      ],
      "name": "supportsInterface",
      "outputs": [
        {
          "internalType": "bool",
          "name": "",
          "type": "bool"
        }
      ],
      "stateMutability": "view",
      "type": "function"
    },
    {
      "inputs": [],
      "name": "symbol",
      "outputs": [
        {
          "internalType": "string",
          "name": "",
          "type": "string"
        }
      ],
      "stateMutability": "view",
      "type": "function"
    },
    {
      "inputs": [
        {
          "internalType": "uint256",
          "name": "id",
          "type": "uint256"
        }
      ],
      "name": "tokenByIndex",
      "outputs": [
        {
          "internalType": "uint256",
          "name": "unitId",
          "type": "uint256"
        }
      ],
      "stateMutability": "view",
      "type": "function"
    },
    {
      "inputs": [
        {
          "internalType": "uint256",
          "name": "unitId",
          "type": "uint256"
        }
      ],
      "name": "tokenURI",
      "outputs": [
        {
          "internalType": "string",
          "name": "",
          "type": "string"
        }
      ],
      "stateMutability": "view",
      "type": "function"
    },
    {
      "inputs": [],
      "name": "totalSupply",
      "outputs": [
        {
          "internalType": "uint256",
          "name": "",
          "type": "uint256"
        }
      ],
      "stateMutability": "view",
      "type": "function"
    },
    {
      "inputs": [
        {
          "internalType": "address",
          "name": "from",
          "type": "address"
        },
        {
          "internalType": "address",
          "name": "to",
          "type": "address"
        },
        {
          "internalType": "uint256",
          "name": "id",
          "type": "uint256"
        }
      ],
      "name": "transferFrom",
      "outputs": [],
      "stateMutability": "nonpayable",
      "type": "function"
    },
    {
      "inputs": [],
      "name": "unitType",
      "outputs": [
        {
          "internalType": "enum UnitRegistry.UnitType",
          "name": "",
          "type": "uint8"
        }
      ],
      "stateMutability": "view",
      "type": "function"
    },
    {
      "inputs": [
        {
          "internalType": "address",
          "name": "unitOwner",
          "type": "address"
        },
        {
          "internalType": "uint256",
          "name": "unitId",
          "type": "uint256"
        },
        {
          "internalType": "bytes32",
          "name": "unitHash",
          "type": "bytes32"
        }
      ],
      "name": "updateHash",
      "outputs": [
        {
          "internalType": "bool",
          "name": "success",
          "type": "bool"
        }
      ],
      "stateMutability": "nonpayable",
      "type": "function"
    }
  ],
  "bytecode": "0x60c06040526001600a553480156200001657600080fd5b50604051620031a6380380620031a6833981016040819052620000399162000191565b6001848460006200004b8382620002d3565b5060016200005a8282620002d3565b5050508060018111156200007257620000726200039f565b60808160018111156200008957620000896200039f565b905250600890506200009c8382620002d3565b506001600160a01b031660a0525050600680546001600160a01b0319163317905550620003b5565b634e487b7160e01b600052604160045260246000fd5b600082601f830112620000ec57600080fd5b81516001600160401b0380821115620001095762000109620000c4565b604051601f8301601f19908116603f01168101908282118183101715620001345762000134620000c4565b816040528381526020925086838588010111156200015157600080fd5b600091505b8382101562000175578582018301518183018401529082019062000156565b83821115620001875760008385830101525b9695505050505050565b60008060008060808587031215620001a857600080fd5b84516001600160401b0380821115620001c057600080fd5b620001ce88838901620000da565b95506020870151915080821115620001e557600080fd5b620001f388838901620000da565b945060408701519150808211156200020a57600080fd5b506200021987828801620000da565b606087015190935090506001600160a01b03811681146200023957600080fd5b939692955090935050565b600181811c908216806200025957607f821691505b6020821081036200027a57634e487b7160e01b600052602260045260246000fd5b50919050565b601f821115620002ce57600081815260208120601f850160051c81016020861015620002a95750805b601f850160051c820191505b81811015620002ca57828155600101620002b5565b5050505b505050565b81516001600160401b03811115620002ef57620002ef620000c4565b620003078162000300845462000244565b8462000280565b602080601f8311600181146200033f5760008415620003265750858301515b600019600386901b1c1916600185901b178555620002ca565b600085815260208120601f198616915b8281101562000370578886015182559484019460019091019084016200034f565b50858210156200038f5787850151600019600388901b60f8161c191681555b5050505050600190811b01905550565b634e487b7160e01b600052602160045260246000fd5b60805160a051612da1620004056000396000818161057a01528181611db7015261206501526000818161043601528181610bff01528181610cfa015281816115b101526117150152612da16000f3fe608060405234801561001057600080fd5b50600436106102265760003560e01c80636c0360eb1161012a578063a3fbbaae116100bd578063c152bdfe1161008c578063e985e9c511610071578063e985e9c514610534578063fbfd24bf14610562578063ff0039cb1461057557600080fd5b8063c152bdfe1461050e578063c87b56dd1461052157600080fd5b8063a3fbbaae146104b4578063a6f9dae1146104c7578063b88d4fde146104da578063bf733f6b146104ed57600080fd5b80638da5cb5b116100f95780638da5cb5b1461046557806395d89b4114610478578063a22cb46514610480578063a25e29d31461049357600080fd5b80636c0360eb146103ee57806370a08231146103f6578063716be0e01461040957806385ad4f901461043157600080fd5b806342842e0e116101bd5780634f6ccce71161018c57806355f804b31161017157806355f804b3146103a75780636352211e146103ba578063661a0d0b146103cd57600080fd5b80634f6ccce7146103745780634fa706d71461038757600080fd5b806342842e0e14610328578063481c6a751461033b578063482c5c3c1461034e5780634f558e791461036157600080fd5b806309b3b87e116101f957806309b3b87e146102be5780631655bfbe146102de57806318160ddd146102fe57806323b872dd1461031557600080fd5b806301ffc9a71461022b57806306fdde0314610253578063081812fc14610268578063095ea7b3146102a9575b600080fd5b61023e610239366004612388565b61059c565b60405190151581526020015b60405180910390f35b61025b610639565b60405161024a91906123dc565b61029161027636600461240f565b6004602052600090815260409020546001600160a01b031681565b6040516001600160a01b03909116815260200161024a565b6102bc6102b736600461243f565b6106c7565b005b6102d16102cc36600461255a565b6107ca565b60405161024a91906125d8565b6102f16102ec36600461240f565b6107d7565b60405161024a91906125eb565b61030760095481565b60405190815260200161024a565b6102bc61032336600461263e565b610893565b6102bc61033636600461263e565b610a95565b600754610291906001600160a01b031681565b61023e61035c36600461267a565b610b97565b61023e61036f36600461240f565b610d30565b61030761038236600461240f565b610d52565b61030761039536600461240f565b600d6020526000908152604090205481565b6102bc6103b53660046126ad565b610db0565b6102916103c836600461240f565b610e59565b6103e06103db36600461240f565b610ebe565b60405161024a929190612742565b61025b610f81565b61030761040436600461275b565b610f8e565b61041c610417366004612776565b611002565b60405163ffffffff909116815260200161024a565b6104587f000000000000000000000000000000000000000000000000000000000000000081565b60405161024a91906127d0565b600654610291906001600160a01b031681565b61025b61104b565b6102bc61048e3660046127de565b611058565b6104a66104a136600461240f565b6110c4565b60405161024a92919061281a565b6102bc6104c236600461275b565b611155565b6102bc6104d536600461275b565b611213565b6102bc6104e836600461283c565b6112d1565b6105006104fb36600461240f565b6113c3565b60405161024a9291906128d7565b61030761051c366004612776565b611427565b61025b61052f36600461240f565b611458565b61023e610542366004612925565b600560209081526000928352604080842090915290825290205460ff1681565b610307610570366004612958565b61148c565b6102917f000000000000000000000000000000000000000000000000000000000000000081565b60007f01ffc9a7000000000000000000000000000000000000000000000000000000006001600160e01b0319831614806105ff57507f80ac58cd000000000000000000000000000000000000000000000000000000006001600160e01b03198316145b8061063357507f5b5e139f000000000000000000000000000000000000000000000000000000006001600160e01b03198316145b92915050565b60008054610646906129af565b80601f0160208091040260200160405190810160405280929190818152602001828054610672906129af565b80156106bf5780601f10610694576101008083540402835291602001916106bf565b820191906000526020600020905b8154815290600101906020018083116106a257829003601f168201915b505050505081565b6000818152600260205260409020546001600160a01b03163381148061071057506001600160a01b038116600090815260056020908152604080832033845290915290205460ff165b6107615760405162461bcd60e51b815260206004820152600e60248201527f4e4f545f415554484f52495a454400000000000000000000000000000000000060448201526064015b60405180910390fd5b600082815260046020526040808220805473ffffffffffffffffffffffffffffffffffffffff19166001600160a01b0387811691821790925591518593918516917f8c5be1e5ebec7d5bd14f71427d1e84f3dd0314c0f7b2291e5b200ac8c7c3b92591a4505050565b606061063360018361175a565b6040805180820190915260008152606060208201526000828152600d602090815260409182902082518084018452815481526001820180548551818602810186019096528086529194929385810193929083018282801561088357602002820191906000526020600020906000905b82829054906101000a900463ffffffff1663ffffffff16815260200190600401906020826003010492830192600103820291508084116108465790505b5050505050815250509050919050565b6000818152600260205260409020546001600160a01b038481169116146108fc5760405162461bcd60e51b815260206004820152600a60248201527f57524f4e475f46524f4d000000000000000000000000000000000000000000006044820152606401610758565b6001600160a01b0382166109525760405162461bcd60e51b815260206004820152601160248201527f494e56414c49445f524543495049454e540000000000000000000000000000006044820152606401610758565b336001600160a01b038416148061098c57506001600160a01b038316600090815260056020908152604080832033845290915290205460ff165b806109ad57506000818152600460205260409020546001600160a01b031633145b6109f95760405162461bcd60e51b815260206004820152600e60248201527f4e4f545f415554484f52495a45440000000000000000000000000000000000006044820152606401610758565b6001600160a01b03808416600081815260036020908152604080832080546000190190559386168083528483208054600101905585835260028252848320805473ffffffffffffffffffffffffffffffffffffffff199081168317909155600490925284832080549092169091559251849392917fddf252ad1be2c89b69c2b068fc378daa952ba7f163c4a11628f55a4df523b3ef91a4505050565b610aa0838383610893565b6001600160a01b0382163b15610b9257604051630a85bd0160e11b8082523360048301526001600160a01b03858116602484015260448301849052608060648401526000608484015290919084169063150b7a029060a4016020604051808303816000875af1158015610b17573d6000803e3d6000fd5b505050506040513d601f19601f82011682018060405250810190610b3b91906129e9565b6001600160e01b03191614610b925760405162461bcd60e51b815260206004820152601060248201527f554e534146455f524543495049454e54000000000000000000000000000000006044820152606401610758565b505050565b6007546000906001600160a01b03163314610bda5760075460405163312d21ff60e11b81523360048201526001600160a01b039091166024820152604401610758565b836001600160a01b0316610bed84610e59565b6001600160a01b031614610c855760007f00000000000000000000000000000000000000000000000000000000000000006001811115610c2f57610c2f612798565b03610c5057604051634915061960e11b815260048101849052602401610758565b6040517f0ede975900000000000000000000000000000000000000000000000000000000815260048101849052602401610758565b6000829003610ca757604051637c946ed760e01b815260040160405180910390fd5b506000828152600b6020908152604080832080546001818101835591855292909320909101839055517fdef878acc6b6cc4320a973cf2022bf4ccad90375867c044d23b4e22e9c3b1bda90610d219085907f0000000000000000000000000000000000000000000000000000000000000000908690612a06565b60405180910390a19392505050565b600080821180156106335750600954610d4a906001612a3e565b821092915050565b6000610d5f826001612a3e565b9050600954811115610dab576009546040517f7ae59685000000000000000000000000000000000000000000000000000000008152610758918391600401918252602082015260400190565b919050565b6006546001600160a01b03163314610df05760065460405163521eb56d60e11b81523360048201526001600160a01b039091166024820152604401610758565b8051600003610e1257604051637c946ed760e01b815260040160405180910390fd5b6008610e1e8282612aa4565b507f5411e8ebf1636d9e83d5fc4900bf80cbac82e8790da2a4c94db4895e889eedf681604051610e4e91906123dc565b60405180910390a150565b6000818152600260205260409020546001600160a01b031680610dab5760405162461bcd60e51b815260206004820152600a60248201527f4e4f545f4d494e544544000000000000000000000000000000000000000000006044820152606401610758565b600060606000600d60008581526020019081526020016000206040518060400160405290816000820154815260200160018201805480602002602001604051908101604052809291908181526020018280548015610f6757602002820191906000526020600020906000905b82829054906101000a900463ffffffff1663ffffffff1681526020019060040190602082600301049283019260010382029150808411610f2a5790505b505050919092525050506020015180519590945092505050565b60088054610646906129af565b60006001600160a01b038216610fe65760405162461bcd60e51b815260206004820152600c60248201527f5a45524f5f4144445245535300000000000000000000000000000000000000006044820152606401610758565b506001600160a01b031660009081526003602052604090205490565b600c602052816000526040600020818154811061101e57600080fd5b9060005260206000209060089182820401919006600402915091509054906101000a900463ffffffff1681565b60018054610646906129af565b3360008181526005602090815260408083206001600160a01b03871680855290835292819020805460ff191686151590811790915590519081529192917f17307eab39ab6107e8899845ad3d59bd9653f200f220920489ca2b5937696c31910160405180910390a35050565b6000818152600c6020908152604080832080548251818502810185019093528083526060949383018282801561114557602002820191906000526020600020906000905b82829054906101000a900463ffffffff1663ffffffff16815260200190600401906020826003010492830192600103820291508084116111085790505b5050505050915081519050915091565b6006546001600160a01b031633146111955760065460405163521eb56d60e11b81523360048201526001600160a01b039091166024820152604401610758565b6001600160a01b0381166111bc5760405163d92e233d60e01b815260040160405180910390fd5b6007805473ffffffffffffffffffffffffffffffffffffffff19166001600160a01b0383169081179091556040517f2c1c11af44aa5608f1dca38c00275c30ea091e02417d36e70e9a1538689c433d90600090a250565b6006546001600160a01b031633146112535760065460405163521eb56d60e11b81523360048201526001600160a01b039091166024820152604401610758565b6001600160a01b03811661127a5760405163d92e233d60e01b815260040160405180910390fd5b6006805473ffffffffffffffffffffffffffffffffffffffff19166001600160a01b0383169081179091556040517f4ffd725fc4a22075e9ec71c59edf9c38cdeb588a91b24fc5b61388c5be41282b90600090a250565b6112dc858585610893565b6001600160a01b0384163b156113bc57604051630a85bd0160e11b808252906001600160a01b0386169063150b7a02906113229033908a90899089908990600401612b64565b6020604051808303816000875af1158015611341573d6000803e3d6000fd5b505050506040513d601f19601f8201168201806040525081019061136591906129e9565b6001600160e01b031916146113bc5760405162461bcd60e51b815260206004820152601060248201527f554e534146455f524543495049454e54000000000000000000000000000000006044820152606401610758565b5050505050565b6000818152600b60209081526040808320805482518185028101850190935280835260609383018282801561141757602002820191906000526020600020905b815481526020019060010190808311611403575b5050505050905080519150915091565b600b602052816000526040600020818154811061144357600080fd5b90600052602060002001600091509150505481565b6060600861146583611d0e565b604051602001611476929190612bb8565b6040516020818303038152906040529050919050565b60006001600a5411156114cb576040517f8beb9d1600000000000000000000000000000000000000000000000000000000815260040160405180910390fd5b6002600a556007546001600160a01b031633146115105760075460405163312d21ff60e11b81523360048201526001600160a01b039091166024820152604401610758565b6001600160a01b0384166115375760405163d92e233d60e01b815260040160405180910390fd5b600083900361155957604051637c946ed760e01b815260040160405180910390fd5b506009546115678282611d91565b8061157181612c3f565b6000818152600d602090815260409091208681558551929450925061159d9160018401918601906122ab565b5060006115ab60008561175a565b905060007f000000000000000000000000000000000000000000000000000000000000000060018111156115e1576115e1612798565b036116c257805160006115f5826001612a3e565b67ffffffffffffffff81111561160d5761160d612469565b604051908082528060200260200182016040528015611636578160200160208202803683370190505b50905060005b828110156116955783818151811061165657611656612c58565b602002602001015182828151811061167057611670612c58565b63ffffffff9092166020928302919091019091015261168e81612c3f565b905061163c565b50848183815181106116a9576116a9612c58565b63ffffffff909216602092830291909101909101529150505b6000838152600c6020908152604090912082516116e1928401906122ab565b5060098390556116f18684611f19565b7f97587a61bb0b1b9b24e5325039519ae27f44ca15ef278df10f4ab0195205c29c837f00000000000000000000000000000000000000000000000000000000000000008760405161174493929190612a06565b60405180910390a150506001600a559392505050565b8051606090600063ffffffff821667ffffffffffffffff81111561178057611780612469565b6040519080825280602002602001820160405280156117a9578160200160208202803683370190505b50905060008263ffffffff1667ffffffffffffffff8111156117cd576117cd612469565b60405190808252806020026020018201604052801561180057816020015b60608152602001906001900390816117eb5790505b5090506000805b8463ffffffff168163ffffffff1610156118ed5761184488888363ffffffff168151811061183757611837612c58565b6020026020010151612016565b838263ffffffff168151811061185c5761185c612c58565b6020026020010181905250828163ffffffff168151811061187f5761187f612c58565b602002602001015151848263ffffffff16815181106118a0576118a0612c58565b63ffffffff92831660209182029290920101528451859183169081106118c8576118c8612c58565b6020026020010151826118db9190612c6e565b91506118e681612c8d565b9050611807565b5060008163ffffffff1667ffffffffffffffff81111561190f5761190f612469565b604051908082528060200260200182016040528015611938578160200160208202803683370190505b50905060008563ffffffff1667ffffffffffffffff81111561195c5761195c612469565b604051908082528060200260200182016040528015611985578160200160208202803683370190505b5090506000805b8463ffffffff168163ffffffff161015611c405760008063ffffffff815b8b63ffffffff168163ffffffff161015611bb0575b8a8163ffffffff16815181106119d7576119d7612c58565b602002602001015163ffffffff16878263ffffffff16815181106119fd576119fd612c58565b602002602001015163ffffffff161015611ba057898163ffffffff1681518110611a2957611a29612c58565b6020026020010151878263ffffffff1681518110611a4957611a49612c58565b602002602001015163ffffffff1681518110611a6757611a67612c58565b602002602001015163ffffffff168663ffffffff161015611b69578163ffffffff168a8263ffffffff1681518110611aa157611aa1612c58565b6020026020010151888363ffffffff1681518110611ac157611ac1612c58565b602002602001015163ffffffff1681518110611adf57611adf612c58565b602002602001015163ffffffff161015611b5757898163ffffffff1681518110611b0b57611b0b612c58565b6020026020010151878263ffffffff1681518110611b2b57611b2b612c58565b602002602001015163ffffffff1681518110611b4957611b49612c58565b602002602001015191508093505b82611b6181612c8d565b935050611ba0565b868163ffffffff1681518110611b8157611b81612c58565b602002602001018051611b9390612c8d565b63ffffffff1690526119bf565b611ba981612c8d565b90506119aa565b5093508363ffffffff821615611c245784878563ffffffff1681518110611bd957611bd9612c58565b63ffffffff9283166020918202929092010152865187918516908110611c0157611c01612c58565b602002602001018051809190611c1690612c8d565b63ffffffff16905250611c2c565b505050611c40565b50505080611c3990612c8d565b905061198c565b8063ffffffff1667ffffffffffffffff811115611c5f57611c5f612469565b604051908082528060200260200182016040528015611c88578160200160208202803683370190505b50985060005b8163ffffffff168163ffffffff161015611cff57848163ffffffff1681518110611cba57611cba612c58565b60200260200101518a8263ffffffff1681518110611cda57611cda612c58565b63ffffffff90921660209283029190910190910152611cf881612c8d565b9050611c8e565b50505050505050505092915050565b606081600003611d5157505060408051808201909152600181527f3000000000000000000000000000000000000000000000000000000000000000602082015290565b604e6040519150808252608082016040525b8215611d8257600a808406603001828401529092049160001901611d63565b604e8190039101908152919050565b8151600003611db357604051637c946ed760e01b815260040160405180910390fd5b60007f00000000000000000000000000000000000000000000000000000000000000006001600160a01b03166318160ddd6040518163ffffffff1660e01b8152600401602060405180830381865afa158015611e13573d6000803e3d6000fd5b505050506040513d601f19601f82011682018060405250810190611e379190612cb0565b90506000805b84518110156113bc57611e51826001612c6e565b63ffffffff16858281518110611e6957611e69612c58565b602002602001015163ffffffff161080611ea757508263ffffffff16858281518110611e9757611e97612c58565b602002602001015163ffffffff16115b15611eec57848181518110611ebe57611ebe612c58565b6020026020010151604051634915061960e11b8152600401610758919063ffffffff91909116815260200190565b848181518110611efe57611efe612c58565b6020026020010151915080611f1290612c3f565b9050611e3d565b611f238282612178565b6001600160a01b0382163b1561201257604051630a85bd0160e11b80825233600483015260006024830181905260448301849052608060648401526084830152906001600160a01b0384169063150b7a029060a4016020604051808303816000875af1158015611f97573d6000803e3d6000fd5b505050506040513d601f19601f82011682018060405250810190611fbb91906129e9565b6001600160e01b031916146120125760405162461bcd60e51b815260206004820152601060248201527f554e534146455f524543495049454e54000000000000000000000000000000006044820152606401610758565b5050565b6060600083600181111561202c5761202c612798565b036120e4576040517fa25e29d300000000000000000000000000000000000000000000000000000000815263ffffffff831660048201527f00000000000000000000000000000000000000000000000000000000000000006001600160a01b03169063a25e29d390602401600060405180830381865afa1580156120b4573d6000803e3d6000fd5b505050506040513d6000823e601f3d908101601f191682016040526120dc9190810190612cc9565b509050610633565b63ffffffff82166000908152600c60209081526040918290208054835181840281018401909452808452909183018282801561216b57602002820191906000526020600020906000905b82829054906101000a900463ffffffff1663ffffffff168152602001906004019060208260030104928301926001038202915080841161212e5790505b5050505050905092915050565b6001600160a01b0382166121ce5760405162461bcd60e51b815260206004820152601160248201527f494e56414c49445f524543495049454e540000000000000000000000000000006044820152606401610758565b6000818152600260205260409020546001600160a01b0316156122335760405162461bcd60e51b815260206004820152600e60248201527f414c52454144595f4d494e5445440000000000000000000000000000000000006044820152606401610758565b6001600160a01b0382166000818152600360209081526040808320805460010190558483526002909152808220805473ffffffffffffffffffffffffffffffffffffffff19168417905551839291907fddf252ad1be2c89b69c2b068fc378daa952ba7f163c4a11628f55a4df523b3ef908290a45050565b8280548282559060005260206000209060070160089004810192821561234a5791602002820160005b8382111561231857835183826101000a81548163ffffffff021916908363ffffffff16021790555092602001926004016020816003010492830192600103026122d4565b80156123485782816101000a81549063ffffffff0219169055600401602081600301049283019260010302612318565b505b5061235692915061235a565b5090565b5b80821115612356576000815560010161235b565b6001600160e01b03198116811461238557600080fd5b50565b60006020828403121561239a57600080fd5b81356123a58161236f565b9392505050565b60005b838110156123c75781810151838201526020016123af565b838111156123d6576000848401525b50505050565b60208152600082518060208401526123fb8160408501602087016123ac565b601f01601f19169190910160400192915050565b60006020828403121561242157600080fd5b5035919050565b80356001600160a01b0381168114610dab57600080fd5b6000806040838503121561245257600080fd5b61245b83612428565b946020939093013593505050565b634e487b7160e01b600052604160045260246000fd5b604051601f8201601f1916810167ffffffffffffffff811182821017156124a8576124a8612469565b604052919050565b600067ffffffffffffffff8211156124ca576124ca612469565b5060051b60200190565b63ffffffff8116811461238557600080fd5b600082601f8301126124f757600080fd5b8135602061250c612507836124b0565b61247f565b82815260059290921b8401810191818101908684111561252b57600080fd5b8286015b8481101561254f578035612542816124d4565b835291830191830161252f565b509695505050505050565b60006020828403121561256c57600080fd5b813567ffffffffffffffff81111561258357600080fd5b61258f848285016124e6565b949350505050565b600081518084526020808501945080840160005b838110156125cd57815163ffffffff16875295820195908201906001016125ab565b509495945050505050565b6020815260006123a56020830184612597565b60208082528251828201528281015160408084015280516060840181905260009291820190839060808601905b8083101561254f57835163ffffffff168252928401926001929092019190840190612618565b60008060006060848603121561265357600080fd5b61265c84612428565b925061266a60208501612428565b9150604084013590509250925092565b60008060006060848603121561268f57600080fd5b61269884612428565b95602085013595506040909401359392505050565b600060208083850312156126c057600080fd5b823567ffffffffffffffff808211156126d857600080fd5b818501915085601f8301126126ec57600080fd5b8135818111156126fe576126fe612469565b612710601f8201601f1916850161247f565b9150808252868482850101111561272657600080fd5b8084840185840137600090820190930192909252509392505050565b82815260406020820152600061258f6040830184612597565b60006020828403121561276d57600080fd5b6123a582612428565b6000806040838503121561278957600080fd5b50508035926020909101359150565b634e487b7160e01b600052602160045260246000fd5b600281106127cc57634e487b7160e01b600052602160045260246000fd5b9052565b6020810161063382846127ae565b600080604083850312156127f157600080fd5b6127fa83612428565b91506020830135801515811461280f57600080fd5b809150509250929050565b60408152600061282d6040830185612597565b90508260208301529392505050565b60008060008060006080868803121561285457600080fd5b61285d86612428565b945061286b60208701612428565b935060408601359250606086013567ffffffffffffffff8082111561288f57600080fd5b818801915088601f8301126128a357600080fd5b8135818111156128b257600080fd5b8960208285010111156128c457600080fd5b9699959850939650602001949392505050565b6000604082018483526020604081850152818551808452606086019150828701935060005b81811015612918578451835293830193918301916001016128fc565b5090979650505050505050565b6000806040838503121561293857600080fd5b61294183612428565b915061294f60208401612428565b90509250929050565b60008060006060848603121561296d57600080fd5b61297684612428565b925060208401359150604084013567ffffffffffffffff81111561299957600080fd5b6129a5868287016124e6565b9150509250925092565b600181811c908216806129c357607f821691505b6020821081036129e357634e487b7160e01b600052602260045260246000fd5b50919050565b6000602082840312156129fb57600080fd5b81516123a58161236f565b83815260608101612a1a60208301856127ae565b826040830152949350505050565b634e487b7160e01b600052601160045260246000fd5b60008219821115612a5157612a51612a28565b500190565b601f821115610b9257600081815260208120601f850160051c81016020861015612a7d5750805b601f850160051c820191505b81811015612a9c57828155600101612a89565b505050505050565b815167ffffffffffffffff811115612abe57612abe612469565b612ad281612acc84546129af565b84612a56565b602080601f831160018114612b075760008415612aef5750858301515b600019600386901b1c1916600185901b178555612a9c565b600085815260208120601f198616915b82811015612b3657888601518255948401946001909101908401612b17565b5085821015612b545787850151600019600388901b60f8161c191681555b5050505050600190811b01905550565b60006001600160a01b03808816835280871660208401525084604083015260806060830152826080830152828460a0840137600060a0848401015260a0601f19601f85011683010190509695505050505050565b6000808454612bc6816129af565b60018281168015612bde5760018114612bf357612c22565b60ff1984168752821515830287019450612c22565b8860005260208060002060005b85811015612c195781548a820152908401908201612c00565b50505082870194505b505050508351612c368183602088016123ac565b01949350505050565b600060018201612c5157612c51612a28565b5060010190565b634e487b7160e01b600052603260045260246000fd5b600063ffffffff808316818516808303821115612c3657612c36612a28565b600063ffffffff808316818103612ca657612ca6612a28565b6001019392505050565b600060208284031215612cc257600080fd5b5051919050565b60008060408385031215612cdc57600080fd5b825167ffffffffffffffff811115612cf357600080fd5b8301601f81018513612d0457600080fd5b80516020612d14612507836124b0565b82815260059290921b83018101918181019088841115612d3357600080fd5b938201935b83851015612d5a578451612d4b816124d4565b82529382019390820190612d38565b96909101519597959650505050505056fea2646970667358221220273e28c069753fbf875de4b1cb92a4991c4d7cd6411ca4620a36cdaa246a4e8a64736f6c634300080f0033",
  "linkReferences": {},
  "deployedLinkReferences": {}
}