{
  "_format": "hh-sol-artifact-1",
  "contractName": "ComponentRegistry",
  "sourceName": "contracts/ComponentRegistry.sol",
  "abi": [
    {
      "inputs": [
        {
          "internalType": "string",
          "name": "_name",
          "type": "string"
        },
        {
          "internalType": "string",
          "name": "_symbol",
          "type": "string"
        },
        {
          "internalType": "string",
          "name": "_baseURI",
          "type": "string"
        }
      ],
      "stateMutability": "nonpayable",
      "type": "constructor"
    },
    {
      "inputs": [
        {
          "internalType": "address",
          "name": "operator",
          "type": "address"
        }
      ],
      "name": "AgentInstanceRegistered",
      "type": "error"
    },
    {
      "inputs": [
        {
          "internalType": "uint256",
          "name": "serviceId",
          "type": "uint256"
        }
      ],
      "name": "AgentInstancesSlotsFilled",
      "type": "error"
    },
    {
      "inputs": [
        {
          "internalType": "uint256",
          "name": "agentId",
          "type": "uint256"
        }
      ],
      "name": "AgentNotFound",
      "type": "error"
    },
    {
      "inputs": [
        {
          "internalType": "uint256",
          "name": "agentId",
          "type": "uint256"
        },
        {
          "internalType": "uint256",
          "name": "serviceId",
          "type": "uint256"
        }
      ],
      "name": "AgentNotInService",
      "type": "error"
    },
    {
      "inputs": [
        {
          "internalType": "uint256",
          "name": "componentId",
          "type": "uint256"
        }
      ],
      "name": "ComponentNotFound",
      "type": "error"
    },
    {
      "inputs": [],
      "name": "HashExists",
      "type": "error"
    },
    {
      "inputs": [
        {
          "internalType": "uint256",
          "name": "sent",
          "type": "uint256"
        },
        {
          "internalType": "uint256",
          "name": "expected",
          "type": "uint256"
        },
        {
          "internalType": "uint256",
          "name": "serviceId",
          "type": "uint256"
        }
      ],
      "name": "IncorrectAgentBondingValue",
      "type": "error"
    },
    {
      "inputs": [
        {
          "internalType": "uint256",
          "name": "sent",
          "type": "uint256"
        },
        {
          "internalType": "uint256",
          "name": "expected",
          "type": "uint256"
        },
        {
          "internalType": "uint256",
          "name": "serviceId",
          "type": "uint256"
        }
      ],
      "name": "IncorrectRegistrationDepositValue",
      "type": "error"
    },
    {
      "inputs": [
        {
          "internalType": "address",
          "name": "sender",
          "type": "address"
        },
        {
          "internalType": "address",
          "name": "manager",
          "type": "address"
        }
      ],
      "name": "ManagerOnly",
      "type": "error"
    },
    {
      "inputs": [
        {
          "internalType": "address",
          "name": "provided",
          "type": "address"
        },
        {
          "internalType": "address",
          "name": "expected",
          "type": "address"
        },
        {
          "internalType": "uint256",
          "name": "serviceId",
          "type": "uint256"
        }
      ],
      "name": "OnlyOwnServiceMultisig",
      "type": "error"
    },
    {
      "inputs": [
        {
          "internalType": "address",
          "name": "operator",
          "type": "address"
        },
        {
          "internalType": "uint256",
          "name": "serviceId",
          "type": "uint256"
        }
      ],
      "name": "OperatorHasNoInstances",
      "type": "error"
    },
    {
      "inputs": [
        {
          "internalType": "uint256",
          "name": "provided",
          "type": "uint256"
        },
        {
          "internalType": "uint256",
          "name": "max",
          "type": "uint256"
        }
      ],
      "name": "Overflow",
      "type": "error"
    },
    {
      "inputs": [
        {
          "internalType": "address",
          "name": "sender",
          "type": "address"
        },
        {
          "internalType": "address",
          "name": "owner",
          "type": "address"
        }
      ],
      "name": "OwnerOnly",
      "type": "error"
    },
    {
      "inputs": [],
      "name": "Paused",
      "type": "error"
    },
    {
      "inputs": [],
      "name": "ReentrancyGuard",
      "type": "error"
    },
    {
      "inputs": [
        {
          "internalType": "uint256",
          "name": "serviceId",
          "type": "uint256"
        }
      ],
      "name": "ServiceMustBeInactive",
      "type": "error"
    },
    {
      "inputs": [
        {
          "internalType": "address",
          "name": "token",
          "type": "address"
        },
        {
          "internalType": "address",
          "name": "from",
          "type": "address"
        },
        {
          "internalType": "address",
          "name": "to",
          "type": "address"
        },
        {
          "internalType": "uint256",
          "name": "value",
          "type": "uint256"
        }
      ],
      "name": "TransferFailed",
      "type": "error"
    },
    {
      "inputs": [
        {
          "internalType": "address",
          "name": "multisig",
          "type": "address"
        }
      ],
      "name": "UnauthorizedMultisig",
      "type": "error"
    },
    {
      "inputs": [
        {
          "internalType": "uint256",
          "name": "agentId",
          "type": "uint256"
        }
      ],
      "name": "WrongAgentId",
      "type": "error"
    },
    {
      "inputs": [
        {
          "internalType": "uint256",
          "name": "numValues1",
          "type": "uint256"
        },
        {
          "internalType": "uint256",
          "name": "numValues2",
          "type": "uint256"
        }
      ],
      "name": "WrongArrayLength",
      "type": "error"
    },
    {
      "inputs": [
        {
          "internalType": "uint256",
          "name": "serviceId",
          "type": "uint256"
        }
      ],
      "name": "WrongOperator",
      "type": "error"
    },
    {
      "inputs": [
        {
          "internalType": "uint256",
          "name": "state",
          "type": "uint256"
        },
        {
          "internalType": "uint256",
          "name": "serviceId",
          "type": "uint256"
        }
      ],
      "name": "WrongServiceState",
      "type": "error"
    },
    {
      "inputs": [
        {
          "internalType": "uint256",
          "name": "currentThreshold",
          "type": "uint256"
        },
        {
          "internalType": "uint256",
          "name": "minThreshold",
          "type": "uint256"
        },
        {
          "internalType": "uint256",
          "name": "maxThreshold",
          "type": "uint256"
        }
      ],
      "name": "WrongThreshold",
      "type": "error"
    },
    {
      "inputs": [],
      "name": "ZeroAddress",
      "type": "error"
    },
    {
      "inputs": [],
      "name": "ZeroValue",
      "type": "error"
    },
    {
      "anonymous": false,
      "inputs": [
        {
          "indexed": true,
          "internalType": "address",
          "name": "owner",
          "type": "address"
        },
        {
          "indexed": true,
          "internalType": "address",
          "name": "spender",
          "type": "address"
        },
        {
          "indexed": true,
          "internalType": "uint256",
          "name": "id",
          "type": "uint256"
        }
      ],
      "name": "Approval",
      "type": "event"
    },
    {
      "anonymous": false,
      "inputs": [
        {
          "indexed": true,
          "internalType": "address",
          "name": "owner",
          "type": "address"
        },
        {
          "indexed": true,
          "internalType": "address",
          "name": "operator",
          "type": "address"
        },
        {
          "indexed": false,
          "internalType": "bool",
          "name": "approved",
          "type": "bool"
        }
      ],
      "name": "ApprovalForAll",
      "type": "event"
    },
    {
      "anonymous": false,
      "inputs": [
        {
          "indexed": false,
          "internalType": "string",
          "name": "baseURI",
          "type": "string"
        }
      ],
      "name": "BaseURIChanged",
      "type": "event"
    },
    {
      "anonymous": false,
      "inputs": [
        {
          "indexed": false,
          "internalType": "uint256",
          "name": "unitId",
          "type": "uint256"
        },
        {
          "indexed": false,
          "internalType": "enum UnitRegistry.UnitType",
          "name": "uType",
          "type": "uint8"
        },
        {
          "indexed": false,
          "internalType": "bytes32",
          "name": "unitHash",
          "type": "bytes32"
        }
      ],
      "name": "CreateUnit",
      "type": "event"
    },
    {
      "anonymous": false,
      "inputs": [
        {
          "indexed": true,
          "internalType": "address",
          "name": "manager",
          "type": "address"
        }
      ],
      "name": "ManagerUpdated",
      "type": "event"
    },
    {
      "anonymous": false,
      "inputs": [
        {
          "indexed": true,
          "internalType": "address",
          "name": "owner",
          "type": "address"
        }
      ],
      "name": "OwnerUpdated",
      "type": "event"
    },
    {
      "anonymous": false,
      "inputs": [
        {
          "indexed": true,
          "internalType": "address",
          "name": "from",
          "type": "address"
        },
        {
          "indexed": true,
          "internalType": "address",
          "name": "to",
          "type": "address"
        },
        {
          "indexed": true,
          "internalType": "uint256",
          "name": "id",
          "type": "uint256"
        }
      ],
      "name": "Transfer",
      "type": "event"
    },
    {
      "anonymous": false,
      "inputs": [
        {
          "indexed": false,
          "internalType": "uint256",
          "name": "unitId",
          "type": "uint256"
        },
        {
          "indexed": false,
          "internalType": "enum UnitRegistry.UnitType",
          "name": "uType",
          "type": "uint8"
        },
        {
          "indexed": false,
          "internalType": "bytes32",
          "name": "unitHash",
          "type": "bytes32"
        }
      ],
      "name": "UpdateUnitHash",
      "type": "event"
    },
    {
      "inputs": [],
      "name": "CID_PREFIX",
      "outputs": [
        {
          "internalType": "string",
          "name": "",
          "type": "string"
        }
      ],
      "stateMutability": "view",
      "type": "function"
    },
    {
      "inputs": [],
      "name": "VERSION",
      "outputs": [
        {
          "internalType": "string",
          "name": "",
          "type": "string"
        }
      ],
      "stateMutability": "view",
      "type": "function"
    },
    {
      "inputs": [
        {
          "internalType": "address",
          "name": "spender",
          "type": "address"
        },
        {
          "internalType": "uint256",
          "name": "id",
          "type": "uint256"
        }
      ],
      "name": "approve",
      "outputs": [],
      "stateMutability": "nonpayable",
      "type": "function"
    },
    {
      "inputs": [
        {
          "internalType": "address",
          "name": "owner",
          "type": "address"
        }
      ],
      "name": "balanceOf",
      "outputs": [
        {
          "internalType": "uint256",
          "name": "",
          "type": "uint256"
        }
      ],
      "stateMutability": "view",
      "type": "function"
    },
    {
      "inputs": [],
      "name": "baseURI",
      "outputs": [
        {
          "internalType": "string",
          "name": "",
          "type": "string"
        }
      ],
      "stateMutability": "view",
      "type": "function"
    },
    {
      "inputs": [
        {
          "internalType": "address",
          "name": "newManager",
          "type": "address"
        }
      ],
      "name": "changeManager",
      "outputs": [],
      "stateMutability": "nonpayable",
      "type": "function"
    },
    {
      "inputs": [
        {
          "internalType": "address",
          "name": "newOwner",
          "type": "address"
        }
      ],
      "name": "changeOwner",
      "outputs": [],
      "stateMutability": "nonpayable",
      "type": "function"
    },
    {
      "inputs": [
        {
          "internalType": "address",
          "name": "unitOwner",
          "type": "address"
        },
        {
          "internalType": "bytes32",
          "name": "unitHash",
          "type": "bytes32"
        },
        {
          "internalType": "uint32[]",
          "name": "dependencies",
          "type": "uint32[]"
        }
      ],
      "name": "create",
      "outputs": [
        {
          "internalType": "uint256",
          "name": "unitId",
          "type": "uint256"
        }
      ],
      "stateMutability": "nonpayable",
      "type": "function"
    },
    {
      "inputs": [
        {
          "internalType": "uint256",
          "name": "unitId",
          "type": "uint256"
        }
      ],
      "name": "exists",
      "outputs": [
        {
          "internalType": "bool",
          "name": "",
          "type": "bool"
        }
      ],
      "stateMutability": "view",
      "type": "function"
    },
    {
      "inputs": [
        {
          "internalType": "uint256",
          "name": "",
          "type": "uint256"
        }
      ],
      "name": "getApproved",
      "outputs": [
        {
          "internalType": "address",
          "name": "",
          "type": "address"
        }
      ],
      "stateMutability": "view",
      "type": "function"
    },
    {
      "inputs": [
        {
          "internalType": "uint256",
          "name": "unitId",
          "type": "uint256"
        }
      ],
      "name": "getDependencies",
      "outputs": [
        {
          "internalType": "uint256",
          "name": "numDependencies",
          "type": "uint256"
        },
        {
          "internalType": "uint32[]",
          "name": "dependencies",
          "type": "uint32[]"
        }
      ],
      "stateMutability": "view",
      "type": "function"
    },
    {
      "inputs": [
        {
          "internalType": "uint256",
          "name": "unitId",
          "type": "uint256"
        }
      ],
      "name": "getLocalSubComponents",
      "outputs": [
        {
          "internalType": "uint32[]",
          "name": "subComponentIds",
          "type": "uint32[]"
        },
        {
          "internalType": "uint256",
          "name": "numSubComponents",
          "type": "uint256"
        }
      ],
      "stateMutability": "view",
      "type": "function"
    },
    {
      "inputs": [
        {
          "internalType": "uint256",
          "name": "unitId",
          "type": "uint256"
        }
      ],
      "name": "getUnit",
      "outputs": [
        {
          "components": [
            {
              "internalType": "bytes32",
              "name": "unitHash",
              "type": "bytes32"
            },
            {
              "internalType": "uint32[]",
              "name": "dependencies",
              "type": "uint32[]"
            }
          ],
          "internalType": "struct UnitRegistry.Unit",
          "name": "unit",
          "type": "tuple"
        }
      ],
      "stateMutability": "view",
      "type": "function"
    },
    {
      "inputs": [
        {
          "internalType": "uint256",
          "name": "unitId",
          "type": "uint256"
        }
      ],
      "name": "getUpdatedHashes",
      "outputs": [
        {
          "internalType": "uint256",
          "name": "numHashes",
          "type": "uint256"
        },
        {
          "internalType": "bytes32[]",
          "name": "unitHashes",
          "type": "bytes32[]"
        }
      ],
      "stateMutability": "view",
      "type": "function"
    },
    {
      "inputs": [
        {
          "internalType": "address",
          "name": "",
          "type": "address"
        },
        {
          "internalType": "address",
          "name": "",
          "type": "address"
        }
      ],
      "name": "isApprovedForAll",
      "outputs": [
        {
          "internalType": "bool",
          "name": "",
          "type": "bool"
        }
      ],
      "stateMutability": "view",
      "type": "function"
    },
    {
      "inputs": [],
      "name": "manager",
      "outputs": [
        {
          "internalType": "address",
          "name": "",
          "type": "address"
        }
      ],
      "stateMutability": "view",
      "type": "function"
    },
    {
      "inputs": [
        {
          "internalType": "uint256",
          "name": "",
          "type": "uint256"
        },
        {
          "internalType": "uint256",
          "name": "",
          "type": "uint256"
        }
      ],
      "name": "mapSubComponents",
      "outputs": [
        {
          "internalType": "uint32",
          "name": "",
          "type": "uint32"
        }
      ],
      "stateMutability": "view",
      "type": "function"
    },
    {
      "inputs": [
        {
          "internalType": "uint256",
          "name": "",
          "type": "uint256"
        },
        {
          "internalType": "uint256",
          "name": "",
          "type": "uint256"
        }
      ],
      "name": "mapUnitIdHashes",
      "outputs": [
        {
          "internalType": "bytes32",
          "name": "",
          "type": "bytes32"
        }
      ],
      "stateMutability": "view",
      "type": "function"
    },
    {
      "inputs": [
        {
          "internalType": "uint256",
          "name": "",
          "type": "uint256"
        }
      ],
      "name": "mapUnits",
      "outputs": [
        {
          "internalType": "bytes32",
          "name": "unitHash",
          "type": "bytes32"
        }
      ],
      "stateMutability": "view",
      "type": "function"
    },
    {
      "inputs": [],
      "name": "name",
      "outputs": [
        {
          "internalType": "string",
          "name": "",
          "type": "string"
        }
      ],
      "stateMutability": "view",
      "type": "function"
    },
    {
      "inputs": [],
      "name": "owner",
      "outputs": [
        {
          "internalType": "address",
          "name": "",
          "type": "address"
        }
      ],
      "stateMutability": "view",
      "type": "function"
    },
    {
      "inputs": [
        {
          "internalType": "uint256",
          "name": "id",
          "type": "uint256"
        }
      ],
      "name": "ownerOf",
      "outputs": [
        {
          "internalType": "address",
          "name": "owner",
          "type": "address"
        }
      ],
      "stateMutability": "view",
      "type": "function"
    },
    {
      "inputs": [
        {
          "internalType": "address",
          "name": "from",
          "type": "address"
        },
        {
          "internalType": "address",
          "name": "to",
          "type": "address"
        },
        {
          "internalType": "uint256",
          "name": "id",
          "type": "uint256"
        }
      ],
      "name": "safeTransferFrom",
      "outputs": [],
      "stateMutability": "nonpayable",
      "type": "function"
    },
    {
      "inputs": [
        {
          "internalType": "address",
          "name": "from",
          "type": "address"
        },
        {
          "internalType": "address",
          "name": "to",
          "type": "address"
        },
        {
          "internalType": "uint256",
          "name": "id",
          "type": "uint256"
        },
        {
          "internalType": "bytes",
          "name": "data",
          "type": "bytes"
        }
      ],
      "name": "safeTransferFrom",
      "outputs": [],
      "stateMutability": "nonpayable",
      "type": "function"
    },
    {
      "inputs": [
        {
          "internalType": "address",
          "name": "operator",
          "type": "address"
        },
        {
          "internalType": "bool",
          "name": "approved",
          "type": "bool"
        }
      ],
      "name": "setApprovalForAll",
      "outputs": [],
      "stateMutability": "nonpayable",
      "type": "function"
    },
    {
      "inputs": [
        {
          "internalType": "string",
          "name": "bURI",
          "type": "string"
        }
      ],
      "name": "setBaseURI",
      "outputs": [],
      "stateMutability": "nonpayable",
      "type": "function"
    },
    {
      "inputs": [
        {
          "internalType": "bytes4",
          "name": "interfaceId",
          "type": "bytes4"
        }
      ],
      "name": "supportsInterface",
      "outputs": [
        {
          "internalType": "bool",
          "name": "",
          "type": "bool"
        }
      ],
      "stateMutability": "view",
      "type": "function"
    },
    {
      "inputs": [],
      "name": "symbol",
      "outputs": [
        {
          "internalType": "string",
          "name": "",
          "type": "string"
        }
      ],
      "stateMutability": "view",
      "type": "function"
    },
    {
      "inputs": [
        {
          "internalType": "uint256",
          "name": "id",
          "type": "uint256"
        }
      ],
      "name": "tokenByIndex",
      "outputs": [
        {
          "internalType": "uint256",
          "name": "unitId",
          "type": "uint256"
        }
      ],
      "stateMutability": "view",
      "type": "function"
    },
    {
      "inputs": [
        {
          "internalType": "uint256",
          "name": "unitId",
          "type": "uint256"
        }
      ],
      "name": "tokenURI",
      "outputs": [
        {
          "internalType": "string",
          "name": "",
          "type": "string"
        }
      ],
      "stateMutability": "view",
      "type": "function"
    },
    {
      "inputs": [],
      "name": "totalSupply",
      "outputs": [
        {
          "internalType": "uint256",
          "name": "",
          "type": "uint256"
        }
      ],
      "stateMutability": "view",
      "type": "function"
    },
    {
      "inputs": [
        {
          "internalType": "address",
          "name": "from",
          "type": "address"
        },
        {
          "internalType": "address",
          "name": "to",
          "type": "address"
        },
        {
          "internalType": "uint256",
          "name": "id",
          "type": "uint256"
        }
      ],
      "name": "transferFrom",
      "outputs": [],
      "stateMutability": "nonpayable",
      "type": "function"
    },
    {
      "inputs": [],
      "name": "unitType",
      "outputs": [
        {
          "internalType": "enum UnitRegistry.UnitType",
          "name": "",
          "type": "uint8"
        }
      ],
      "stateMutability": "view",
      "type": "function"
    },
    {
      "inputs": [
        {
          "internalType": "address",
          "name": "unitOwner",
          "type": "address"
        },
        {
          "internalType": "uint256",
          "name": "unitId",
          "type": "uint256"
        },
        {
          "internalType": "bytes32",
          "name": "unitHash",
          "type": "bytes32"
        }
      ],
      "name": "updateHash",
      "outputs": [
        {
          "internalType": "bool",
          "name": "success",
          "type": "bool"
        }
      ],
      "stateMutability": "nonpayable",
      "type": "function"
    }
  ],
  "bytecode": "0x60a06040526001600a553480156200001657600080fd5b5060405162002f8338038062002f83833981016040819052620000399162000185565b60008383826200004a8382620002a5565b506001620000598282620002a5565b50505080600181111562000071576200007162000371565b608081600181111562000088576200008862000371565b905250600890506200009b8282620002a5565b5050600680546001600160a01b0319163317905550620003879050565b634e487b7160e01b600052604160045260246000fd5b600082601f830112620000e057600080fd5b81516001600160401b0380821115620000fd57620000fd620000b8565b604051601f8301601f19908116603f01168101908282118183101715620001285762000128620000b8565b816040528381526020925086838588010111156200014557600080fd5b600091505b838210156200016957858201830151818301840152908201906200014a565b838211156200017b5760008385830101525b9695505050505050565b6000806000606084860312156200019b57600080fd5b83516001600160401b0380821115620001b357600080fd5b620001c187838801620000ce565b94506020860151915080821115620001d857600080fd5b620001e687838801620000ce565b93506040860151915080821115620001fd57600080fd5b506200020c86828701620000ce565b9150509250925092565b600181811c908216806200022b57607f821691505b6020821081036200024c57634e487b7160e01b600052602260045260246000fd5b50919050565b601f821115620002a057600081815260208120601f850160051c810160208610156200027b5750805b601f850160051c820191505b818110156200029c5782815560010162000287565b5050505b505050565b81516001600160401b03811115620002c157620002c1620000b8565b620002d981620002d2845462000216565b8462000252565b602080601f831160018114620003115760008415620002f85750858301515b600019600386901b1c1916600185901b1785556200029c565b600085815260208120601f198616915b82811015620003425788860151825594840194600190910190840162000321565b5085821015620003615787850151600019600388901b60f8161c191681555b5050505050600190811b01905550565b634e487b7160e01b600052602160045260246000fd5b608051612bc4620003bf6000396000818161043e01528181610b5b01528181610c3d015281816114fa015261165e0152612bc46000f3fe608060405234801561001057600080fd5b50600436106102265760003560e01c806370a082311161012a578063a3fbbaae116100bd578063c152bdfe1161008c578063e985e9c511610071578063e985e9c51461053c578063fbfd24bf1461056a578063ffa1ad741461057d57600080fd5b8063c152bdfe14610516578063c87b56dd1461052957600080fd5b8063a3fbbaae146104bc578063a6f9dae1146104cf578063b88d4fde146104e2578063bf733f6b146104f557600080fd5b80638da5cb5b116100f95780638da5cb5b1461046d57806395d89b4114610480578063a22cb46514610488578063a25e29d31461049b57600080fd5b806370a08231146103d6578063716be0e0146103e95780637c5e63e01461041157806385ad4f901461043957600080fd5b8063481c6a75116101bd5780634fa706d71161018c5780636352211e116101715780636352211e1461039a578063661a0d0b146103ad5780636c0360eb146103ce57600080fd5b80634fa706d71461036757806355f804b31461038757600080fd5b8063481c6a751461031b578063482c5c3c1461032e5780634f558e79146103415780634f6ccce71461035457600080fd5b80631655bfbe116101f95780631655bfbe146102be57806318160ddd146102de57806323b872dd146102f557806342842e0e1461030857600080fd5b806301ffc9a71461022b57806306fdde0314610253578063081812fc14610268578063095ea7b3146102a9575b600080fd5b61023e61023936600461228a565b6105a1565b60405190151581526020015b60405180910390f35b61025b6105f3565b60405161024a91906122da565b61029161027636600461230d565b6004602052600090815260409020546001600160a01b031681565b6040516001600160a01b03909116815260200161024a565b6102bc6102b736600461233d565b610681565b005b6102d16102cc36600461230d565b610768565b60405161024a9190612367565b6102e760095481565b60405190815260200161024a565b6102bc6103033660046123c5565b610824565b6102bc6103163660046123c5565b6109fe565b600754610291906001600160a01b031681565b61023e61033c366004612401565b610af3565b61023e61034f36600461230d565b610c73565b6102e761036236600461230d565b610c95565b6102e761037536600461230d565b600d6020526000908152604090205481565b6102bc61039536600461247b565b610cda565b6102916103a836600461230d565b610d83565b6103c06103bb36600461230d565b610de8565b60405161024a929190612551565b61025b610eab565b6102e76103e4366004612572565b610eb8565b6103fc6103f736600461258d565b610f2c565b60405163ffffffff909116815260200161024a565b61025b6040518060400160405280600981526020016806630313730313232360bc1b81525081565b6104607f000000000000000000000000000000000000000000000000000000000000000081565b60405161024a91906125e7565b600654610291906001600160a01b031681565b61025b610f75565b6102bc6104963660046125f5565b610f82565b6104ae6104a936600461230d565b610fee565b60405161024a929190612631565b6102bc6104ca366004612572565b61107f565b6102bc6104dd366004612572565b611130565b6102bc6104f0366004612653565b6111e1565b61050861050336600461230d565b6112c6565b60405161024a9291906126ee565b6102e761052436600461258d565b61132a565b61025b61053736600461230d565b61135b565b61023e61054a36600461273c565b600560209081526000928352604080842090915290825290205460ff1681565b6102e761057836600461276f565b6113ee565b61025b604051806040016040528060058152602001640312e302e360dc1b81525081565b60006301ffc9a760e01b6001600160e01b0319831614806105d257506380ac58cd60e01b6001600160e01b03198316145b806105ed5750635b5e139f60e01b6001600160e01b03198316145b92915050565b6000805461060090612847565b80601f016020809104026020016040519081016040528092919081815260200182805461062c90612847565b80156106795780601f1061064e57610100808354040283529160200191610679565b820191906000526020600020905b81548152906001019060200180831161065c57829003601f168201915b505050505081565b6000818152600260205260409020546001600160a01b0316338114806106ca57506001600160a01b038116600090815260056020908152604080832033845290915290205460ff165b61070c5760405162461bcd60e51b815260206004820152600e60248201526d1393d517d055551213d49256915160921b60448201526064015b60405180910390fd5b60008281526004602052604080822080546001600160a01b0319166001600160a01b0387811691821790925591518593918516917f8c5be1e5ebec7d5bd14f71427d1e84f3dd0314c0f7b2291e5b200ac8c7c3b92591a4505050565b6040805180820190915260008152606060208201526000828152600d602090815260409182902082518084018452815481526001820180548551818602810186019096528086529194929385810193929083018282801561081457602002820191906000526020600020906000905b82829054906101000a900463ffffffff1663ffffffff16815260200190600401906020826003010492830192600103820291508084116107d75790505b5050505050815250509050919050565b6000818152600260205260409020546001600160a01b0384811691161461088d5760405162461bcd60e51b815260206004820152600a60248201527f57524f4e475f46524f4d000000000000000000000000000000000000000000006044820152606401610703565b6001600160a01b0382166108d75760405162461bcd60e51b81526020600482015260116024820152701253959053125117d49150d25412515395607a1b6044820152606401610703565b336001600160a01b038416148061091157506001600160a01b038316600090815260056020908152604080832033845290915290205460ff165b8061093257506000818152600460205260409020546001600160a01b031633145b61096f5760405162461bcd60e51b815260206004820152600e60248201526d1393d517d055551213d49256915160921b6044820152606401610703565b6001600160a01b0380841660008181526003602090815260408083208054600019019055938616808352848320805460010190558583526002825284832080546001600160a01b03199081168317909155600490925284832080549092169091559251849392917fddf252ad1be2c89b69c2b068fc378daa952ba7f163c4a11628f55a4df523b3ef91a4505050565b610a09838383610824565b6001600160a01b0382163b15610aee57604051630a85bd0160e11b8082523360048301526001600160a01b03858116602484015260448301849052608060648401526000608484015290919084169063150b7a029060a4016020604051808303816000875af1158015610a80573d6000803e3d6000fd5b505050506040513d601f19601f82011682018060405250810190610aa49190612881565b6001600160e01b03191614610aee5760405162461bcd60e51b815260206004820152601060248201526f155394d0519157d49150d2541251539560821b6044820152606401610703565b505050565b6007546000906001600160a01b03163314610b365760075460405163312d21ff60e11b81523360048201526001600160a01b039091166024820152604401610703565b836001600160a01b0316610b4984610d83565b6001600160a01b031614610bc85760007f00000000000000000000000000000000000000000000000000000000000000006001811115610b8b57610b8b6125af565b03610bac57604051634915061960e11b815260048101849052602401610703565b604051630ede975960e01b815260048101849052602401610703565b6000829003610bea57604051637c946ed760e01b815260040160405180910390fd5b506000828152600b6020908152604080832080546001818101835591855292909320909101839055517fdef878acc6b6cc4320a973cf2022bf4ccad90375867c044d23b4e22e9c3b1bda90610c649085907f000000000000000000000000000000000000000000000000000000000000000090869061289e565b60405180910390a19392505050565b600080821180156105ed5750600954610c8d9060016128d6565b821092915050565b6000610ca28260016128d6565b9050600954811115610cd557600954604051637ae5968560e01b8152610703918391600401918252602082015260400190565b919050565b6006546001600160a01b03163314610d1a5760065460405163521eb56d60e11b81523360048201526001600160a01b039091166024820152604401610703565b8051600003610d3c57604051637c946ed760e01b815260040160405180910390fd5b6008610d48828261293c565b507f5411e8ebf1636d9e83d5fc4900bf80cbac82e8790da2a4c94db4895e889eedf681604051610d7891906122da565b60405180910390a150565b6000818152600260205260409020546001600160a01b031680610cd55760405162461bcd60e51b815260206004820152600a60248201527f4e4f545f4d494e544544000000000000000000000000000000000000000000006044820152606401610703565b600060606000600d60008581526020019081526020016000206040518060400160405290816000820154815260200160018201805480602002602001604051908101604052809291908181526020018280548015610e9157602002820191906000526020600020906000905b82829054906101000a900463ffffffff1663ffffffff1681526020019060040190602082600301049283019260010382029150808411610e545790505b505050919092525050506020015180519590945092505050565b6008805461060090612847565b60006001600160a01b038216610f105760405162461bcd60e51b815260206004820152600c60248201527f5a45524f5f4144445245535300000000000000000000000000000000000000006044820152606401610703565b506001600160a01b031660009081526003602052604090205490565b600c6020528160005260406000208181548110610f4857600080fd5b9060005260206000209060089182820401919006600402915091509054906101000a900463ffffffff1681565b6001805461060090612847565b3360008181526005602090815260408083206001600160a01b03871680855290835292819020805460ff191686151590811790915590519081529192917f17307eab39ab6107e8899845ad3d59bd9653f200f220920489ca2b5937696c31910160405180910390a35050565b6000818152600c6020908152604080832080548251818502810185019093528083526060949383018282801561106f57602002820191906000526020600020906000905b82829054906101000a900463ffffffff1663ffffffff16815260200190600401906020826003010492830192600103820291508084116110325790505b5050505050915081519050915091565b6006546001600160a01b031633146110bf5760065460405163521eb56d60e11b81523360048201526001600160a01b039091166024820152604401610703565b6001600160a01b0381166110e65760405163d92e233d60e01b815260040160405180910390fd5b600780546001600160a01b0319166001600160a01b0383169081179091556040517f2c1c11af44aa5608f1dca38c00275c30ea091e02417d36e70e9a1538689c433d90600090a250565b6006546001600160a01b031633146111705760065460405163521eb56d60e11b81523360048201526001600160a01b039091166024820152604401610703565b6001600160a01b0381166111975760405163d92e233d60e01b815260040160405180910390fd5b600680546001600160a01b0319166001600160a01b0383169081179091556040517f4ffd725fc4a22075e9ec71c59edf9c38cdeb588a91b24fc5b61388c5be41282b90600090a250565b6111ec858585610824565b6001600160a01b0384163b156112bf57604051630a85bd0160e11b808252906001600160a01b0386169063150b7a02906112329033908a908990899089906004016129fc565b6020604051808303816000875af1158015611251573d6000803e3d6000fd5b505050506040513d601f19601f820116820180604052508101906112759190612881565b6001600160e01b031916146112bf5760405162461bcd60e51b815260206004820152601060248201526f155394d0519157d49150d2541251539560821b6044820152606401610703565b5050505050565b6000818152600b60209081526040808320805482518185028101850190935280835260609383018282801561131a57602002820191906000526020600020905b815481526020019060010190808311611306575b5050505050905080519150915091565b600b602052816000526040600020818154811061134657600080fd5b90600052602060002001600091509150505481565b6000818152600d60209081526040918290205482518084018452600981526806630313730313232360bc1b81840152925160609391926113a092600892909101612a50565b6040516020818303038152906040526113b8826116a3565b6113c5608084901b6116a3565b6040516020016113d793929190612ad7565b604051602081830303815290604052915050919050565b60006001600a541115611414576040516345f5ce8b60e11b815260040160405180910390fd5b6002600a556007546001600160a01b031633146114595760075460405163312d21ff60e11b81523360048201526001600160a01b039091166024820152604401610703565b6001600160a01b0384166114805760405163d92e233d60e01b815260040160405180910390fd5b60008390036114a257604051637c946ed760e01b815260040160405180910390fd5b506009546114b08282611873565b806114ba81612afe565b6000818152600d60209081526040909120868155855192945092506114e69160018401918601906121ad565b5060006114f4600085611959565b905060007f0000000000000000000000000000000000000000000000000000000000000000600181111561152a5761152a6125af565b0361160b578051600061153e8260016128d6565b67ffffffffffffffff81111561155657611556612434565b60405190808252806020026020018201604052801561157f578160200160208202803683370190505b50905060005b828110156115de5783818151811061159f5761159f612b17565b60200260200101518282815181106115b9576115b9612b17565b63ffffffff909216602092830291909101909101526115d781612afe565b9050611585565b50848183815181106115f2576115f2612b17565b63ffffffff909216602092830291909101909101529150505b6000838152600c60209081526040909120825161162a928401906121ad565b50600983905561163a8684611f0d565b7f97587a61bb0b1b9b24e5325039519ae27f44ca15ef278df10f4ab0195205c29c837f00000000000000000000000000000000000000000000000000000000000000008760405161168d9392919061289e565b60405180910390a150506001600a559392505050565b7aff00000000000000ff00000000000000ff00000000000000ff00006bffffffff0000000000000000604083901c9081167bffffffff00000000000000000000000000000000000000000000000084161760201c6fffffffff000000000000000000000000919091166001600160e01b031984161717601081901c9182167eff00000000000000ff00000000000000ff00000000000000ff000000000000821617600890811c7bff00000000000000ff00000000000000ff00000000000000ff000000939093167fff00000000000000ff00000000000000ff00000000000000ff000000000000009290921691909117919091179081901c7e0f000f000f000f000f000f000f000f000f000f000f000f000f000f000f000f167f0f000f000f000f000f000f000f000f000f000f000f000f000f000f000f000f00600492831c16179061180f827f06060606060606060606060606060606060606060606060606060606060606066128d6565b901c7f0f0f0f0f0f0f0f0f0f0f0f0f0f0f0f0f0f0f0f0f0f0f0f0f0f0f0f0f0f0f0f0f16602761183f9190612b2d565b611869827f30303030303030303030303030303030303030303030303030303030303030306128d6565b6105ed91906128d6565b6000805b83518110156119535761188b826001612b4c565b63ffffffff168482815181106118a3576118a3612b17565b602002602001015163ffffffff1610806118e157508263ffffffff168482815181106118d1576118d1612b17565b602002602001015163ffffffff16115b15611926578381815181106118f8576118f8612b17565b6020026020010151604051634915061960e11b8152600401610703919063ffffffff91909116815260200190565b83818151811061193857611938612b17565b602002602001015191508061194c90612afe565b9050611877565b50505050565b8051606090600063ffffffff821667ffffffffffffffff81111561197f5761197f612434565b6040519080825280602002602001820160405280156119a8578160200160208202803683370190505b50905060008263ffffffff1667ffffffffffffffff8111156119cc576119cc612434565b6040519080825280602002602001820160405280156119ff57816020015b60608152602001906001900390816119ea5790505b5090506000805b8463ffffffff168163ffffffff161015611aec57611a4388888363ffffffff1681518110611a3657611a36612b17565b6020026020010151611ffd565b838263ffffffff1681518110611a5b57611a5b612b17565b6020026020010181905250828163ffffffff1681518110611a7e57611a7e612b17565b602002602001015151848263ffffffff1681518110611a9f57611a9f612b17565b63ffffffff9283166020918202929092010152845185918316908110611ac757611ac7612b17565b602002602001015182611ada9190612b4c565b9150611ae581612b6b565b9050611a06565b5060008163ffffffff1667ffffffffffffffff811115611b0e57611b0e612434565b604051908082528060200260200182016040528015611b37578160200160208202803683370190505b50905060008563ffffffff1667ffffffffffffffff811115611b5b57611b5b612434565b604051908082528060200260200182016040528015611b84578160200160208202803683370190505b5090506000805b8463ffffffff168163ffffffff161015611e3f5760008063ffffffff815b8b63ffffffff168163ffffffff161015611daf575b8a8163ffffffff1681518110611bd657611bd6612b17565b602002602001015163ffffffff16878263ffffffff1681518110611bfc57611bfc612b17565b602002602001015163ffffffff161015611d9f57898163ffffffff1681518110611c2857611c28612b17565b6020026020010151878263ffffffff1681518110611c4857611c48612b17565b602002602001015163ffffffff1681518110611c6657611c66612b17565b602002602001015163ffffffff168663ffffffff161015611d68578163ffffffff168a8263ffffffff1681518110611ca057611ca0612b17565b6020026020010151888363ffffffff1681518110611cc057611cc0612b17565b602002602001015163ffffffff1681518110611cde57611cde612b17565b602002602001015163ffffffff161015611d5657898163ffffffff1681518110611d0a57611d0a612b17565b6020026020010151878263ffffffff1681518110611d2a57611d2a612b17565b602002602001015163ffffffff1681518110611d4857611d48612b17565b602002602001015191508093505b82611d6081612b6b565b935050611d9f565b868163ffffffff1681518110611d8057611d80612b17565b602002602001018051611d9290612b6b565b63ffffffff169052611bbe565b611da881612b6b565b9050611ba9565b5093508363ffffffff821615611e235784878563ffffffff1681518110611dd857611dd8612b17565b63ffffffff9283166020918202929092010152865187918516908110611e0057611e00612b17565b602002602001018051809190611e1590612b6b565b63ffffffff16905250611e2b565b505050611e3f565b50505080611e3890612b6b565b9050611b8b565b8063ffffffff1667ffffffffffffffff811115611e5e57611e5e612434565b604051908082528060200260200182016040528015611e87578160200160208202803683370190505b50985060005b8163ffffffff168163ffffffff161015611efe57848163ffffffff1681518110611eb957611eb9612b17565b60200260200101518a8263ffffffff1681518110611ed957611ed9612b17565b63ffffffff90921660209283029190910190910152611ef781612b6b565b9050611e8d565b50505050505050505092915050565b611f178282612093565b6001600160a01b0382163b15611ff957604051630a85bd0160e11b80825233600483015260006024830181905260448301849052608060648401526084830152906001600160a01b0384169063150b7a029060a4016020604051808303816000875af1158015611f8b573d6000803e3d6000fd5b505050506040513d601f19601f82011682018060405250810190611faf9190612881565b6001600160e01b03191614611ff95760405162461bcd60e51b815260206004820152601060248201526f155394d0519157d49150d2541251539560821b6044820152606401610703565b5050565b63ffffffff81166000908152600c602090815260409182902080548351818402810184019094528084526060939283018282801561208657602002820191906000526020600020906000905b82829054906101000a900463ffffffff1663ffffffff16815260200190600401906020826003010492830192600103820291508084116120495790505b5050505050905092915050565b6001600160a01b0382166120dd5760405162461bcd60e51b81526020600482015260116024820152701253959053125117d49150d25412515395607a1b6044820152606401610703565b6000818152600260205260409020546001600160a01b0316156121425760405162461bcd60e51b815260206004820152600e60248201527f414c52454144595f4d494e5445440000000000000000000000000000000000006044820152606401610703565b6001600160a01b038216600081815260036020908152604080832080546001019055848352600290915280822080546001600160a01b0319168417905551839291907fddf252ad1be2c89b69c2b068fc378daa952ba7f163c4a11628f55a4df523b3ef908290a45050565b8280548282559060005260206000209060070160089004810192821561224c5791602002820160005b8382111561221a57835183826101000a81548163ffffffff021916908363ffffffff16021790555092602001926004016020816003010492830192600103026121d6565b801561224a5782816101000a81549063ffffffff021916905560040160208160030104928301926001030261221a565b505b5061225892915061225c565b5090565b5b80821115612258576000815560010161225d565b6001600160e01b03198116811461228757600080fd5b50565b60006020828403121561229c57600080fd5b81356122a781612271565b9392505050565b60005b838110156122c95781810151838201526020016122b1565b838111156119535750506000910152565b60208152600082518060208401526122f98160408501602087016122ae565b601f01601f19169190910160400192915050565b60006020828403121561231f57600080fd5b5035919050565b80356001600160a01b0381168114610cd557600080fd5b6000806040838503121561235057600080fd5b61235983612326565b946020939093013593505050565b60208082528251828201528281015160408084015280516060840181905260009291820190839060808601905b808310156123ba57835163ffffffff168252928401926001929092019190840190612394565b509695505050505050565b6000806000606084860312156123da57600080fd5b6123e384612326565b92506123f160208501612326565b9150604084013590509250925092565b60008060006060848603121561241657600080fd5b61241f84612326565b95602085013595506040909401359392505050565b634e487b7160e01b600052604160045260246000fd5b604051601f8201601f1916810167ffffffffffffffff8111828210171561247357612473612434565b604052919050565b6000602080838503121561248e57600080fd5b823567ffffffffffffffff808211156124a657600080fd5b818501915085601f8301126124ba57600080fd5b8135818111156124cc576124cc612434565b6124de601f8201601f1916850161244a565b915080825286848285010111156124f457600080fd5b8084840185840137600090820190930192909252509392505050565b600081518084526020808501945080840160005b8381101561254657815163ffffffff1687529582019590820190600101612524565b509495945050505050565b82815260406020820152600061256a6040830184612510565b949350505050565b60006020828403121561258457600080fd5b6122a782612326565b600080604083850312156125a057600080fd5b50508035926020909101359150565b634e487b7160e01b600052602160045260246000fd5b600281106125e357634e487b7160e01b600052602160045260246000fd5b9052565b602081016105ed82846125c5565b6000806040838503121561260857600080fd5b61261183612326565b91506020830135801515811461262657600080fd5b809150509250929050565b6040815260006126446040830185612510565b90508260208301529392505050565b60008060008060006080868803121561266b57600080fd5b61267486612326565b945061268260208701612326565b935060408601359250606086013567ffffffffffffffff808211156126a657600080fd5b818801915088601f8301126126ba57600080fd5b8135818111156126c957600080fd5b8960208285010111156126db57600080fd5b9699959850939650602001949392505050565b6000604082018483526020604081850152818551808452606086019150828701935060005b8181101561272f57845183529383019391830191600101612713565b5090979650505050505050565b6000806040838503121561274f57600080fd5b61275883612326565b915061276660208401612326565b90509250929050565b60008060006060848603121561278457600080fd5b61278d84612326565b92506020808501359250604085013567ffffffffffffffff808211156127b257600080fd5b818701915087601f8301126127c657600080fd5b8135818111156127d8576127d8612434565b8060051b91506127e984830161244a565b818152918301840191848101908a84111561280357600080fd5b938501935b83851015612837578435925063ffffffff831683146128275760008081fd5b8282529385019390850190612808565b8096505050505050509250925092565b600181811c9082168061285b57607f821691505b60208210810361287b57634e487b7160e01b600052602260045260246000fd5b50919050565b60006020828403121561289357600080fd5b81516122a781612271565b838152606081016128b260208301856125c5565b826040830152949350505050565b634e487b7160e01b600052601160045260246000fd5b600082198211156128e9576128e96128c0565b500190565b601f821115610aee57600081815260208120601f850160051c810160208610156129155750805b601f850160051c820191505b8181101561293457828155600101612921565b505050505050565b815167ffffffffffffffff81111561295657612956612434565b61296a816129648454612847565b846128ee565b602080601f83116001811461299f57600084156129875750858301515b600019600386901b1c1916600185901b178555612934565b600085815260208120601f198616915b828110156129ce578886015182559484019460019091019084016129af565b50858210156129ec5787850151600019600388901b60f8161c191681555b5050505050600190811b01905550565b60006001600160a01b03808816835280871660208401525084604083015260806060830152826080830152828460a0840137600060a0848401015260a0601f19601f85011683010190509695505050505050565b6000808454612a5e81612847565b60018281168015612a765760018114612a8b57612aba565b60ff1984168752821515830287019450612aba565b8860005260208060002060005b85811015612ab15781548a820152908401908201612a98565b50505082870194505b505050508351612ace8183602088016122ae565b01949350505050565b60008451612ae98184602089016122ae565b91909101928352506020820152604001919050565b600060018201612b1057612b106128c0565b5060010190565b634e487b7160e01b600052603260045260246000fd5b6000816000190483118215151615612b4757612b476128c0565b500290565b600063ffffffff808316818516808303821115612ace57612ace6128c0565b600063ffffffff808316818103612b8457612b846128c0565b600101939250505056fea2646970667358221220dafeafbcb427f4457ab61b36d64eeb2a3b60a070d18a841d5f73997e775003f564736f6c634300080f0033",
  "linkReferences": {},
  "deployedLinkReferences": {}
}