{
  "_format": "hh-sol-artifact-1",
  "contractName": "ComponentRegistry",
  "sourceName": "contracts/ComponentRegistry.sol",
  "abi": [
    {
      "inputs": [
        {
          "internalType": "string",
          "name": "_name",
          "type": "string"
        },
        {
          "internalType": "string",
          "name": "_symbol",
          "type": "string"
        },
        {
          "internalType": "string",
          "name": "_baseURI",
          "type": "string"
        }
      ],
      "stateMutability": "nonpayable",
      "type": "constructor"
    },
    {
      "inputs": [
        {
          "internalType": "address",
          "name": "operator",
          "type": "address"
        }
      ],
      "name": "AgentInstanceRegistered",
      "type": "error"
    },
    {
      "inputs": [
        {
          "internalType": "uint256",
          "name": "serviceId",
          "type": "uint256"
        }
      ],
      "name": "AgentInstancesSlotsFilled",
      "type": "error"
    },
    {
      "inputs": [
        {
          "internalType": "uint256",
          "name": "agentId",
          "type": "uint256"
        }
      ],
      "name": "AgentNotFound",
      "type": "error"
    },
    {
      "inputs": [
        {
          "internalType": "uint256",
          "name": "agentId",
          "type": "uint256"
        },
        {
          "internalType": "uint256",
          "name": "serviceId",
          "type": "uint256"
        }
      ],
      "name": "AgentNotInService",
      "type": "error"
    },
    {
      "inputs": [
        {
          "internalType": "uint256",
          "name": "componentId",
          "type": "uint256"
        }
      ],
      "name": "ComponentNotFound",
      "type": "error"
    },
    {
      "inputs": [],
      "name": "HashExists",
      "type": "error"
    },
    {
      "inputs": [
        {
          "internalType": "uint256",
          "name": "sent",
          "type": "uint256"
        },
        {
          "internalType": "uint256",
          "name": "expected",
          "type": "uint256"
        },
        {
          "internalType": "uint256",
          "name": "serviceId",
          "type": "uint256"
        }
      ],
      "name": "IncorrectAgentBondingValue",
      "type": "error"
    },
    {
      "inputs": [
        {
          "internalType": "uint256",
          "name": "sent",
          "type": "uint256"
        },
        {
          "internalType": "uint256",
          "name": "expected",
          "type": "uint256"
        },
        {
          "internalType": "uint256",
          "name": "serviceId",
          "type": "uint256"
        }
      ],
      "name": "IncorrectRegistrationDepositValue",
      "type": "error"
    },
    {
      "inputs": [
        {
          "internalType": "address",
          "name": "sender",
          "type": "address"
        },
        {
          "internalType": "address",
          "name": "manager",
          "type": "address"
        }
      ],
      "name": "ManagerOnly",
      "type": "error"
    },
    {
      "inputs": [
        {
          "internalType": "address",
          "name": "provided",
          "type": "address"
        },
        {
          "internalType": "address",
          "name": "expected",
          "type": "address"
        },
        {
          "internalType": "uint256",
          "name": "serviceId",
          "type": "uint256"
        }
      ],
      "name": "OnlyOwnServiceMultisig",
      "type": "error"
    },
    {
      "inputs": [
        {
          "internalType": "address",
          "name": "operator",
          "type": "address"
        },
        {
          "internalType": "uint256",
          "name": "serviceId",
          "type": "uint256"
        }
      ],
      "name": "OperatorHasNoInstances",
      "type": "error"
    },
    {
      "inputs": [
        {
          "internalType": "uint256",
          "name": "provided",
          "type": "uint256"
        },
        {
          "internalType": "uint256",
          "name": "max",
          "type": "uint256"
        }
      ],
      "name": "Overflow",
      "type": "error"
    },
    {
      "inputs": [
        {
          "internalType": "address",
          "name": "sender",
          "type": "address"
        },
        {
          "internalType": "address",
          "name": "owner",
          "type": "address"
        }
      ],
      "name": "OwnerOnly",
      "type": "error"
    },
    {
      "inputs": [],
      "name": "Paused",
      "type": "error"
    },
    {
      "inputs": [],
      "name": "ReentrancyGuard",
      "type": "error"
    },
    {
      "inputs": [
        {
          "internalType": "uint256",
          "name": "serviceId",
          "type": "uint256"
        }
      ],
      "name": "ServiceMustBeInactive",
      "type": "error"
    },
    {
      "inputs": [
        {
          "internalType": "address",
          "name": "token",
          "type": "address"
        },
        {
          "internalType": "address",
          "name": "from",
          "type": "address"
        },
        {
          "internalType": "address",
          "name": "to",
          "type": "address"
        },
        {
          "internalType": "uint256",
          "name": "value",
          "type": "uint256"
        }
      ],
      "name": "TransferFailed",
      "type": "error"
    },
    {
      "inputs": [
        {
          "internalType": "address",
          "name": "multisig",
          "type": "address"
        }
      ],
      "name": "UnauthorizedMultisig",
      "type": "error"
    },
    {
      "inputs": [
        {
          "internalType": "uint256",
          "name": "agentId",
          "type": "uint256"
        }
      ],
      "name": "WrongAgentId",
      "type": "error"
    },
    {
      "inputs": [
        {
          "internalType": "uint256",
          "name": "numValues1",
          "type": "uint256"
        },
        {
          "internalType": "uint256",
          "name": "numValues2",
          "type": "uint256"
        }
      ],
      "name": "WrongArrayLength",
      "type": "error"
    },
    {
      "inputs": [
        {
          "internalType": "uint256",
          "name": "serviceId",
          "type": "uint256"
        }
      ],
      "name": "WrongOperator",
      "type": "error"
    },
    {
      "inputs": [
        {
          "internalType": "uint256",
          "name": "state",
          "type": "uint256"
        },
        {
          "internalType": "uint256",
          "name": "serviceId",
          "type": "uint256"
        }
      ],
      "name": "WrongServiceState",
      "type": "error"
    },
    {
      "inputs": [
        {
          "internalType": "uint256",
          "name": "currentThreshold",
          "type": "uint256"
        },
        {
          "internalType": "uint256",
          "name": "minThreshold",
          "type": "uint256"
        },
        {
          "internalType": "uint256",
          "name": "maxThreshold",
          "type": "uint256"
        }
      ],
      "name": "WrongThreshold",
      "type": "error"
    },
    {
      "inputs": [],
      "name": "ZeroAddress",
      "type": "error"
    },
    {
      "inputs": [],
      "name": "ZeroValue",
      "type": "error"
    },
    {
      "anonymous": false,
      "inputs": [
        {
          "indexed": true,
          "internalType": "address",
          "name": "owner",
          "type": "address"
        },
        {
          "indexed": true,
          "internalType": "address",
          "name": "spender",
          "type": "address"
        },
        {
          "indexed": true,
          "internalType": "uint256",
          "name": "id",
          "type": "uint256"
        }
      ],
      "name": "Approval",
      "type": "event"
    },
    {
      "anonymous": false,
      "inputs": [
        {
          "indexed": true,
          "internalType": "address",
          "name": "owner",
          "type": "address"
        },
        {
          "indexed": true,
          "internalType": "address",
          "name": "operator",
          "type": "address"
        },
        {
          "indexed": false,
          "internalType": "bool",
          "name": "approved",
          "type": "bool"
        }
      ],
      "name": "ApprovalForAll",
      "type": "event"
    },
    {
      "anonymous": false,
      "inputs": [
        {
          "indexed": false,
          "internalType": "string",
          "name": "baseURI",
          "type": "string"
        }
      ],
      "name": "BaseURIChanged",
      "type": "event"
    },
    {
      "anonymous": false,
      "inputs": [
        {
          "indexed": false,
          "internalType": "uint256",
          "name": "unitId",
          "type": "uint256"
        },
        {
          "indexed": false,
          "internalType": "enum UnitRegistry.UnitType",
          "name": "uType",
          "type": "uint8"
        },
        {
          "indexed": false,
          "internalType": "bytes32",
          "name": "unitHash",
          "type": "bytes32"
        }
      ],
      "name": "CreateUnit",
      "type": "event"
    },
    {
      "anonymous": false,
      "inputs": [
        {
          "indexed": true,
          "internalType": "address",
          "name": "manager",
          "type": "address"
        }
      ],
      "name": "ManagerUpdated",
      "type": "event"
    },
    {
      "anonymous": false,
      "inputs": [
        {
          "indexed": true,
          "internalType": "address",
          "name": "owner",
          "type": "address"
        }
      ],
      "name": "OwnerUpdated",
      "type": "event"
    },
    {
      "anonymous": false,
      "inputs": [
        {
          "indexed": true,
          "internalType": "address",
          "name": "from",
          "type": "address"
        },
        {
          "indexed": true,
          "internalType": "address",
          "name": "to",
          "type": "address"
        },
        {
          "indexed": true,
          "internalType": "uint256",
          "name": "id",
          "type": "uint256"
        }
      ],
      "name": "Transfer",
      "type": "event"
    },
    {
      "anonymous": false,
      "inputs": [
        {
          "indexed": false,
          "internalType": "uint256",
          "name": "unitId",
          "type": "uint256"
        },
        {
          "indexed": false,
          "internalType": "enum UnitRegistry.UnitType",
          "name": "uType",
          "type": "uint8"
        },
        {
          "indexed": false,
          "internalType": "bytes32",
          "name": "unitHash",
          "type": "bytes32"
        }
      ],
      "name": "UpdateUnitHash",
      "type": "event"
    },
    {
      "inputs": [
        {
          "internalType": "address",
          "name": "spender",
          "type": "address"
        },
        {
          "internalType": "uint256",
          "name": "id",
          "type": "uint256"
        }
      ],
      "name": "approve",
      "outputs": [],
      "stateMutability": "nonpayable",
      "type": "function"
    },
    {
      "inputs": [
        {
          "internalType": "address",
          "name": "owner",
          "type": "address"
        }
      ],
      "name": "balanceOf",
      "outputs": [
        {
          "internalType": "uint256",
          "name": "",
          "type": "uint256"
        }
      ],
      "stateMutability": "view",
      "type": "function"
    },
    {
      "inputs": [],
      "name": "baseURI",
      "outputs": [
        {
          "internalType": "string",
          "name": "",
          "type": "string"
        }
      ],
      "stateMutability": "view",
      "type": "function"
    },
    {
      "inputs": [
        {
          "internalType": "address",
          "name": "newManager",
          "type": "address"
        }
      ],
      "name": "changeManager",
      "outputs": [],
      "stateMutability": "nonpayable",
      "type": "function"
    },
    {
      "inputs": [
        {
          "internalType": "address",
          "name": "newOwner",
          "type": "address"
        }
      ],
      "name": "changeOwner",
      "outputs": [],
      "stateMutability": "nonpayable",
      "type": "function"
    },
    {
      "inputs": [
        {
          "internalType": "address",
          "name": "unitOwner",
          "type": "address"
        },
        {
          "internalType": "bytes32",
          "name": "unitHash",
          "type": "bytes32"
        },
        {
          "internalType": "uint32[]",
          "name": "dependencies",
          "type": "uint32[]"
        }
      ],
      "name": "create",
      "outputs": [
        {
          "internalType": "uint256",
          "name": "unitId",
          "type": "uint256"
        }
      ],
      "stateMutability": "nonpayable",
      "type": "function"
    },
    {
      "inputs": [
        {
          "internalType": "uint256",
          "name": "unitId",
          "type": "uint256"
        }
      ],
      "name": "exists",
      "outputs": [
        {
          "internalType": "bool",
          "name": "",
          "type": "bool"
        }
      ],
      "stateMutability": "view",
      "type": "function"
    },
    {
      "inputs": [
        {
          "internalType": "uint256",
          "name": "",
          "type": "uint256"
        }
      ],
      "name": "getApproved",
      "outputs": [
        {
          "internalType": "address",
          "name": "",
          "type": "address"
        }
      ],
      "stateMutability": "view",
      "type": "function"
    },
    {
      "inputs": [
        {
          "internalType": "uint256",
          "name": "unitId",
          "type": "uint256"
        }
      ],
      "name": "getDependencies",
      "outputs": [
        {
          "internalType": "uint256",
          "name": "numDependencies",
          "type": "uint256"
        },
        {
          "internalType": "uint32[]",
          "name": "dependencies",
          "type": "uint32[]"
        }
      ],
      "stateMutability": "view",
      "type": "function"
    },
    {
      "inputs": [
        {
          "internalType": "uint256",
          "name": "unitId",
          "type": "uint256"
        }
      ],
      "name": "getLocalSubComponents",
      "outputs": [
        {
          "internalType": "uint32[]",
          "name": "subComponentIds",
          "type": "uint32[]"
        },
        {
          "internalType": "uint256",
          "name": "numSubComponents",
          "type": "uint256"
        }
      ],
      "stateMutability": "view",
      "type": "function"
    },
    {
      "inputs": [
        {
          "internalType": "uint256",
          "name": "unitId",
          "type": "uint256"
        }
      ],
      "name": "getUnit",
      "outputs": [
        {
          "components": [
            {
              "internalType": "bytes32",
              "name": "unitHash",
              "type": "bytes32"
            },
            {
              "internalType": "uint32[]",
              "name": "dependencies",
              "type": "uint32[]"
            }
          ],
          "internalType": "struct UnitRegistry.Unit",
          "name": "unit",
          "type": "tuple"
        }
      ],
      "stateMutability": "view",
      "type": "function"
    },
    {
      "inputs": [
        {
          "internalType": "uint256",
          "name": "unitId",
          "type": "uint256"
        }
      ],
      "name": "getUpdatedHashes",
      "outputs": [
        {
          "internalType": "uint256",
          "name": "numHashes",
          "type": "uint256"
        },
        {
          "internalType": "bytes32[]",
          "name": "unitHashes",
          "type": "bytes32[]"
        }
      ],
      "stateMutability": "view",
      "type": "function"
    },
    {
      "inputs": [
        {
          "internalType": "address",
          "name": "",
          "type": "address"
        },
        {
          "internalType": "address",
          "name": "",
          "type": "address"
        }
      ],
      "name": "isApprovedForAll",
      "outputs": [
        {
          "internalType": "bool",
          "name": "",
          "type": "bool"
        }
      ],
      "stateMutability": "view",
      "type": "function"
    },
    {
      "inputs": [],
      "name": "manager",
      "outputs": [
        {
          "internalType": "address",
          "name": "",
          "type": "address"
        }
      ],
      "stateMutability": "view",
      "type": "function"
    },
    {
      "inputs": [
        {
          "internalType": "uint256",
          "name": "",
          "type": "uint256"
        },
        {
          "internalType": "uint256",
          "name": "",
          "type": "uint256"
        }
      ],
      "name": "mapSubComponents",
      "outputs": [
        {
          "internalType": "uint32",
          "name": "",
          "type": "uint32"
        }
      ],
      "stateMutability": "view",
      "type": "function"
    },
    {
      "inputs": [
        {
          "internalType": "uint256",
          "name": "",
          "type": "uint256"
        },
        {
          "internalType": "uint256",
          "name": "",
          "type": "uint256"
        }
      ],
      "name": "mapUnitIdHashes",
      "outputs": [
        {
          "internalType": "bytes32",
          "name": "",
          "type": "bytes32"
        }
      ],
      "stateMutability": "view",
      "type": "function"
    },
    {
      "inputs": [
        {
          "internalType": "uint256",
          "name": "",
          "type": "uint256"
        }
      ],
      "name": "mapUnits",
      "outputs": [
        {
          "internalType": "bytes32",
          "name": "unitHash",
          "type": "bytes32"
        }
      ],
      "stateMutability": "view",
      "type": "function"
    },
    {
      "inputs": [],
      "name": "name",
      "outputs": [
        {
          "internalType": "string",
          "name": "",
          "type": "string"
        }
      ],
      "stateMutability": "view",
      "type": "function"
    },
    {
      "inputs": [],
      "name": "owner",
      "outputs": [
        {
          "internalType": "address",
          "name": "",
          "type": "address"
        }
      ],
      "stateMutability": "view",
      "type": "function"
    },
    {
      "inputs": [
        {
          "internalType": "uint256",
          "name": "id",
          "type": "uint256"
        }
      ],
      "name": "ownerOf",
      "outputs": [
        {
          "internalType": "address",
          "name": "owner",
          "type": "address"
        }
      ],
      "stateMutability": "view",
      "type": "function"
    },
    {
      "inputs": [
        {
          "internalType": "address",
          "name": "from",
          "type": "address"
        },
        {
          "internalType": "address",
          "name": "to",
          "type": "address"
        },
        {
          "internalType": "uint256",
          "name": "id",
          "type": "uint256"
        }
      ],
      "name": "safeTransferFrom",
      "outputs": [],
      "stateMutability": "nonpayable",
      "type": "function"
    },
    {
      "inputs": [
        {
          "internalType": "address",
          "name": "from",
          "type": "address"
        },
        {
          "internalType": "address",
          "name": "to",
          "type": "address"
        },
        {
          "internalType": "uint256",
          "name": "id",
          "type": "uint256"
        },
        {
          "internalType": "bytes",
          "name": "data",
          "type": "bytes"
        }
      ],
      "name": "safeTransferFrom",
      "outputs": [],
      "stateMutability": "nonpayable",
      "type": "function"
    },
    {
      "inputs": [
        {
          "internalType": "address",
          "name": "operator",
          "type": "address"
        },
        {
          "internalType": "bool",
          "name": "approved",
          "type": "bool"
        }
      ],
      "name": "setApprovalForAll",
      "outputs": [],
      "stateMutability": "nonpayable",
      "type": "function"
    },
    {
      "inputs": [
        {
          "internalType": "string",
          "name": "bURI",
          "type": "string"
        }
      ],
      "name": "setBaseURI",
      "outputs": [],
      "stateMutability": "nonpayable",
      "type": "function"
    },
    {
      "inputs": [
        {
          "internalType": "bytes4",
          "name": "interfaceId",
          "type": "bytes4"
        }
      ],
      "name": "supportsInterface",
      "outputs": [
        {
          "internalType": "bool",
          "name": "",
          "type": "bool"
        }
      ],
      "stateMutability": "view",
      "type": "function"
    },
    {
      "inputs": [],
      "name": "symbol",
      "outputs": [
        {
          "internalType": "string",
          "name": "",
          "type": "string"
        }
      ],
      "stateMutability": "view",
      "type": "function"
    },
    {
      "inputs": [
        {
          "internalType": "uint256",
          "name": "id",
          "type": "uint256"
        }
      ],
      "name": "tokenByIndex",
      "outputs": [
        {
          "internalType": "uint256",
          "name": "unitId",
          "type": "uint256"
        }
      ],
      "stateMutability": "view",
      "type": "function"
    },
    {
      "inputs": [
        {
          "internalType": "uint256",
          "name": "unitId",
          "type": "uint256"
        }
      ],
      "name": "tokenURI",
      "outputs": [
        {
          "internalType": "string",
          "name": "",
          "type": "string"
        }
      ],
      "stateMutability": "view",
      "type": "function"
    },
    {
      "inputs": [],
      "name": "totalSupply",
      "outputs": [
        {
          "internalType": "uint256",
          "name": "",
          "type": "uint256"
        }
      ],
      "stateMutability": "view",
      "type": "function"
    },
    {
      "inputs": [
        {
          "internalType": "address",
          "name": "from",
          "type": "address"
        },
        {
          "internalType": "address",
          "name": "to",
          "type": "address"
        },
        {
          "internalType": "uint256",
          "name": "id",
          "type": "uint256"
        }
      ],
      "name": "transferFrom",
      "outputs": [],
      "stateMutability": "nonpayable",
      "type": "function"
    },
    {
      "inputs": [],
      "name": "unitType",
      "outputs": [
        {
          "internalType": "enum UnitRegistry.UnitType",
          "name": "",
          "type": "uint8"
        }
      ],
      "stateMutability": "view",
      "type": "function"
    },
    {
      "inputs": [
        {
          "internalType": "address",
          "name": "unitOwner",
          "type": "address"
        },
        {
          "internalType": "uint256",
          "name": "unitId",
          "type": "uint256"
        },
        {
          "internalType": "bytes32",
          "name": "unitHash",
          "type": "bytes32"
        }
      ],
      "name": "updateHash",
      "outputs": [
        {
          "internalType": "bool",
          "name": "success",
          "type": "bool"
        }
      ],
      "stateMutability": "nonpayable",
      "type": "function"
    }
  ],
  "bytecode": "0x60a06040526001600a553480156200001657600080fd5b5060405162002e4338038062002e43833981016040819052620000399162000185565b60008383826200004a8382620002a5565b506001620000598282620002a5565b50505080600181111562000071576200007162000371565b608081600181111562000088576200008862000371565b905250600890506200009b8282620002a5565b5050600680546001600160a01b0319163317905550620003879050565b634e487b7160e01b600052604160045260246000fd5b600082601f830112620000e057600080fd5b81516001600160401b0380821115620000fd57620000fd620000b8565b604051601f8301601f19908116603f01168101908282118183101715620001285762000128620000b8565b816040528381526020925086838588010111156200014557600080fd5b600091505b838210156200016957858201830151818301840152908201906200014a565b838211156200017b5760008385830101525b9695505050505050565b6000806000606084860312156200019b57600080fd5b83516001600160401b0380821115620001b357600080fd5b620001c187838801620000ce565b94506020860151915080821115620001d857600080fd5b620001e687838801620000ce565b93506040860151915080821115620001fd57600080fd5b506200020c86828701620000ce565b9150509250925092565b600181811c908216806200022b57607f821691505b6020821081036200024c57634e487b7160e01b600052602260045260246000fd5b50919050565b601f821115620002a057600081815260208120601f850160051c810160208610156200027b5750805b601f850160051c820191505b818110156200029c5782815560010162000287565b5050505b505050565b81516001600160401b03811115620002c157620002c1620000b8565b620002d981620002d2845462000216565b8462000252565b602080601f831160018114620003115760008415620002f85750858301515b600019600386901b1c1916600185901b1785556200029c565b600085815260208120601f198616915b82811015620003425788860151825594840194600190910190840162000321565b5085821015620003615787850151600019600388901b60f8161c191681555b5050505050600190811b01905550565b634e487b7160e01b600052602160045260246000fd5b608051612a84620003bf600039600081816103e001528181610b7501528181610c7001528181611527015261168b0152612a846000f3fe608060405234801561001057600080fd5b50600436106101f05760003560e01c80636c0360eb1161010f578063a3fbbaae116100a2578063c152bdfe11610071578063c152bdfe146104b8578063c87b56dd146104cb578063e985e9c5146104de578063fbfd24bf1461050c57600080fd5b8063a3fbbaae1461045e578063a6f9dae114610471578063b88d4fde14610484578063bf733f6b1461049757600080fd5b80638da5cb5b116100de5780638da5cb5b1461040f57806395d89b4114610422578063a22cb4651461042a578063a25e29d31461043d57600080fd5b80636c0360eb1461039857806370a08231146103a0578063716be0e0146103b357806385ad4f90146103db57600080fd5b8063481c6a75116101875780634fa706d7116101565780634fa706d71461033157806355f804b3146103515780636352211e14610364578063661a0d0b1461037757600080fd5b8063481c6a75146102e5578063482c5c3c146102f85780634f558e791461030b5780634f6ccce71461031e57600080fd5b80631655bfbe116101c35780631655bfbe1461028857806318160ddd146102a857806323b872dd146102bf57806342842e0e146102d257600080fd5b806301ffc9a7146101f557806306fdde031461021d578063081812fc14610232578063095ea7b314610273575b600080fd5b610208610203366004612190565b61051f565b60405190151581526020015b60405180910390f35b6102256105bc565b60405161021491906121e0565b61025b610240366004612213565b6004602052600090815260409020546001600160a01b031681565b6040516001600160a01b039091168152602001610214565b610286610281366004612243565b61064a565b005b61029b610296366004612213565b61074d565b604051610214919061226d565b6102b160095481565b604051908152602001610214565b6102866102cd3660046122cb565b610809565b6102866102e03660046122cb565b610a0b565b60075461025b906001600160a01b031681565b610208610306366004612307565b610b0d565b610208610319366004612213565b610ca6565b6102b161032c366004612213565b610cc8565b6102b161033f366004612213565b600d6020526000908152604090205481565b61028661035f366004612381565b610d26565b61025b610372366004612213565b610dcf565b61038a610385366004612213565b610e34565b604051610214929190612457565b610225610ef7565b6102b16103ae366004612478565b610f04565b6103c66103c1366004612493565b610f78565b60405163ffffffff9091168152602001610214565b6104027f000000000000000000000000000000000000000000000000000000000000000081565b60405161021491906124ed565b60065461025b906001600160a01b031681565b610225610fc1565b6102866104383660046124fb565b610fce565b61045061044b366004612213565b61103a565b604051610214929190612537565b61028661046c366004612478565b6110cb565b61028661047f366004612478565b611189565b610286610492366004612559565b611247565b6104aa6104a5366004612213565b611339565b6040516102149291906125f4565b6102b16104c6366004612493565b61139d565b6102256104d9366004612213565b6113ce565b6102086104ec366004612642565b600560209081526000928352604080842090915290825290205460ff1681565b6102b161051a366004612675565b611402565b60007f01ffc9a7000000000000000000000000000000000000000000000000000000006001600160e01b03198316148061058257507f80ac58cd000000000000000000000000000000000000000000000000000000006001600160e01b03198316145b806105b657507f5b5e139f000000000000000000000000000000000000000000000000000000006001600160e01b03198316145b92915050565b600080546105c99061274d565b80601f01602080910402602001604051908101604052809291908181526020018280546105f59061274d565b80156106425780601f1061061757610100808354040283529160200191610642565b820191906000526020600020905b81548152906001019060200180831161062557829003601f168201915b505050505081565b6000818152600260205260409020546001600160a01b03163381148061069357506001600160a01b038116600090815260056020908152604080832033845290915290205460ff165b6106e45760405162461bcd60e51b815260206004820152600e60248201527f4e4f545f415554484f52495a454400000000000000000000000000000000000060448201526064015b60405180910390fd5b600082815260046020526040808220805473ffffffffffffffffffffffffffffffffffffffff19166001600160a01b0387811691821790925591518593918516917f8c5be1e5ebec7d5bd14f71427d1e84f3dd0314c0f7b2291e5b200ac8c7c3b92591a4505050565b6040805180820190915260008152606060208201526000828152600d60209081526040918290208251808401845281548152600182018054855181860281018601909652808652919492938581019392908301828280156107f957602002820191906000526020600020906000905b82829054906101000a900463ffffffff1663ffffffff16815260200190600401906020826003010492830192600103820291508084116107bc5790505b5050505050815250509050919050565b6000818152600260205260409020546001600160a01b038481169116146108725760405162461bcd60e51b815260206004820152600a60248201527f57524f4e475f46524f4d0000000000000000000000000000000000000000000060448201526064016106db565b6001600160a01b0382166108c85760405162461bcd60e51b815260206004820152601160248201527f494e56414c49445f524543495049454e5400000000000000000000000000000060448201526064016106db565b336001600160a01b038416148061090257506001600160a01b038316600090815260056020908152604080832033845290915290205460ff165b8061092357506000818152600460205260409020546001600160a01b031633145b61096f5760405162461bcd60e51b815260206004820152600e60248201527f4e4f545f415554484f52495a454400000000000000000000000000000000000060448201526064016106db565b6001600160a01b03808416600081815260036020908152604080832080546000190190559386168083528483208054600101905585835260028252848320805473ffffffffffffffffffffffffffffffffffffffff199081168317909155600490925284832080549092169091559251849392917fddf252ad1be2c89b69c2b068fc378daa952ba7f163c4a11628f55a4df523b3ef91a4505050565b610a16838383610809565b6001600160a01b0382163b15610b0857604051630a85bd0160e11b8082523360048301526001600160a01b03858116602484015260448301849052608060648401526000608484015290919084169063150b7a029060a4016020604051808303816000875af1158015610a8d573d6000803e3d6000fd5b505050506040513d601f19601f82011682018060405250810190610ab19190612787565b6001600160e01b03191614610b085760405162461bcd60e51b815260206004820152601060248201527f554e534146455f524543495049454e540000000000000000000000000000000060448201526064016106db565b505050565b6007546000906001600160a01b03163314610b505760075460405163312d21ff60e11b81523360048201526001600160a01b0390911660248201526044016106db565b836001600160a01b0316610b6384610dcf565b6001600160a01b031614610bfb5760007f00000000000000000000000000000000000000000000000000000000000000006001811115610ba557610ba56124b5565b03610bc657604051634915061960e11b8152600481018490526024016106db565b6040517f0ede9759000000000000000000000000000000000000000000000000000000008152600481018490526024016106db565b6000829003610c1d57604051637c946ed760e01b815260040160405180910390fd5b506000828152600b6020908152604080832080546001818101835591855292909320909101839055517fdef878acc6b6cc4320a973cf2022bf4ccad90375867c044d23b4e22e9c3b1bda90610c979085907f00000000000000000000000000000000000000000000000000000000000000009086906127a4565b60405180910390a19392505050565b600080821180156105b65750600954610cc09060016127dc565b821092915050565b6000610cd58260016127dc565b9050600954811115610d21576009546040517f7ae596850000000000000000000000000000000000000000000000000000000081526106db918391600401918252602082015260400190565b919050565b6006546001600160a01b03163314610d665760065460405163521eb56d60e11b81523360048201526001600160a01b0390911660248201526044016106db565b8051600003610d8857604051637c946ed760e01b815260040160405180910390fd5b6008610d948282612842565b507f5411e8ebf1636d9e83d5fc4900bf80cbac82e8790da2a4c94db4895e889eedf681604051610dc491906121e0565b60405180910390a150565b6000818152600260205260409020546001600160a01b031680610d215760405162461bcd60e51b815260206004820152600a60248201527f4e4f545f4d494e5445440000000000000000000000000000000000000000000060448201526064016106db565b600060606000600d60008581526020019081526020016000206040518060400160405290816000820154815260200160018201805480602002602001604051908101604052809291908181526020018280548015610edd57602002820191906000526020600020906000905b82829054906101000a900463ffffffff1663ffffffff1681526020019060040190602082600301049283019260010382029150808411610ea05790505b505050919092525050506020015180519590945092505050565b600880546105c99061274d565b60006001600160a01b038216610f5c5760405162461bcd60e51b815260206004820152600c60248201527f5a45524f5f41444452455353000000000000000000000000000000000000000060448201526064016106db565b506001600160a01b031660009081526003602052604090205490565b600c6020528160005260406000208181548110610f9457600080fd5b9060005260206000209060089182820401919006600402915091509054906101000a900463ffffffff1681565b600180546105c99061274d565b3360008181526005602090815260408083206001600160a01b03871680855290835292819020805460ff191686151590811790915590519081529192917f17307eab39ab6107e8899845ad3d59bd9653f200f220920489ca2b5937696c31910160405180910390a35050565b6000818152600c602090815260408083208054825181850281018501909352808352606094938301828280156110bb57602002820191906000526020600020906000905b82829054906101000a900463ffffffff1663ffffffff168152602001906004019060208260030104928301926001038202915080841161107e5790505b5050505050915081519050915091565b6006546001600160a01b0316331461110b5760065460405163521eb56d60e11b81523360048201526001600160a01b0390911660248201526044016106db565b6001600160a01b0381166111325760405163d92e233d60e01b815260040160405180910390fd5b6007805473ffffffffffffffffffffffffffffffffffffffff19166001600160a01b0383169081179091556040517f2c1c11af44aa5608f1dca38c00275c30ea091e02417d36e70e9a1538689c433d90600090a250565b6006546001600160a01b031633146111c95760065460405163521eb56d60e11b81523360048201526001600160a01b0390911660248201526044016106db565b6001600160a01b0381166111f05760405163d92e233d60e01b815260040160405180910390fd5b6006805473ffffffffffffffffffffffffffffffffffffffff19166001600160a01b0383169081179091556040517f4ffd725fc4a22075e9ec71c59edf9c38cdeb588a91b24fc5b61388c5be41282b90600090a250565b611252858585610809565b6001600160a01b0384163b1561133257604051630a85bd0160e11b808252906001600160a01b0386169063150b7a02906112989033908a90899089908990600401612902565b6020604051808303816000875af11580156112b7573d6000803e3d6000fd5b505050506040513d601f19601f820116820180604052508101906112db9190612787565b6001600160e01b031916146113325760405162461bcd60e51b815260206004820152601060248201527f554e534146455f524543495049454e540000000000000000000000000000000060448201526064016106db565b5050505050565b6000818152600b60209081526040808320805482518185028101850190935280835260609383018282801561138d57602002820191906000526020600020905b815481526020019060010190808311611379575b5050505050905080519150915091565b600b60205281600052604060002081815481106113b957600080fd5b90600052602060002001600091509150505481565b606060086113db836116d0565b6040516020016113ec929190612956565b6040516020818303038152906040529050919050565b60006001600a541115611441576040517f8beb9d1600000000000000000000000000000000000000000000000000000000815260040160405180910390fd5b6002600a556007546001600160a01b031633146114865760075460405163312d21ff60e11b81523360048201526001600160a01b0390911660248201526044016106db565b6001600160a01b0384166114ad5760405163d92e233d60e01b815260040160405180910390fd5b60008390036114cf57604051637c946ed760e01b815260040160405180910390fd5b506009546114dd8282611753565b806114e7816129dd565b6000818152600d60209081526040909120868155855192945092506115139160018401918601906120b3565b506000611521600085611839565b905060007f00000000000000000000000000000000000000000000000000000000000000006001811115611557576115576124b5565b03611638578051600061156b8260016127dc565b67ffffffffffffffff8111156115835761158361233a565b6040519080825280602002602001820160405280156115ac578160200160208202803683370190505b50905060005b8281101561160b578381815181106115cc576115cc6129f6565b60200260200101518282815181106115e6576115e66129f6565b63ffffffff90921660209283029190910190910152611604816129dd565b90506115b2565b508481838151811061161f5761161f6129f6565b63ffffffff909216602092830291909101909101529150505b6000838152600c602090815260409091208251611657928401906120b3565b5060098390556116678684611ded565b7f97587a61bb0b1b9b24e5325039519ae27f44ca15ef278df10f4ab0195205c29c837f0000000000000000000000000000000000000000000000000000000000000000876040516116ba939291906127a4565b60405180910390a150506001600a559392505050565b60608160000361171357505060408051808201909152600181527f3000000000000000000000000000000000000000000000000000000000000000602082015290565b604e6040519150808252608082016040525b821561174457600a808406603001828401529092049160001901611725565b604e8190039101908152919050565b6000805b83518110156118335761176b826001612a0c565b63ffffffff16848281518110611783576117836129f6565b602002602001015163ffffffff1610806117c157508263ffffffff168482815181106117b1576117b16129f6565b602002602001015163ffffffff16115b15611806578381815181106117d8576117d86129f6565b6020026020010151604051634915061960e11b81526004016106db919063ffffffff91909116815260200190565b838181518110611818576118186129f6565b602002602001015191508061182c906129dd565b9050611757565b50505050565b8051606090600063ffffffff821667ffffffffffffffff81111561185f5761185f61233a565b604051908082528060200260200182016040528015611888578160200160208202803683370190505b50905060008263ffffffff1667ffffffffffffffff8111156118ac576118ac61233a565b6040519080825280602002602001820160405280156118df57816020015b60608152602001906001900390816118ca5790505b5090506000805b8463ffffffff168163ffffffff1610156119cc5761192388888363ffffffff1681518110611916576119166129f6565b6020026020010151611eea565b838263ffffffff168151811061193b5761193b6129f6565b6020026020010181905250828163ffffffff168151811061195e5761195e6129f6565b602002602001015151848263ffffffff168151811061197f5761197f6129f6565b63ffffffff92831660209182029290920101528451859183169081106119a7576119a76129f6565b6020026020010151826119ba9190612a0c565b91506119c581612a2b565b90506118e6565b5060008163ffffffff1667ffffffffffffffff8111156119ee576119ee61233a565b604051908082528060200260200182016040528015611a17578160200160208202803683370190505b50905060008563ffffffff1667ffffffffffffffff811115611a3b57611a3b61233a565b604051908082528060200260200182016040528015611a64578160200160208202803683370190505b5090506000805b8463ffffffff168163ffffffff161015611d1f5760008063ffffffff815b8b63ffffffff168163ffffffff161015611c8f575b8a8163ffffffff1681518110611ab657611ab66129f6565b602002602001015163ffffffff16878263ffffffff1681518110611adc57611adc6129f6565b602002602001015163ffffffff161015611c7f57898163ffffffff1681518110611b0857611b086129f6565b6020026020010151878263ffffffff1681518110611b2857611b286129f6565b602002602001015163ffffffff1681518110611b4657611b466129f6565b602002602001015163ffffffff168663ffffffff161015611c48578163ffffffff168a8263ffffffff1681518110611b8057611b806129f6565b6020026020010151888363ffffffff1681518110611ba057611ba06129f6565b602002602001015163ffffffff1681518110611bbe57611bbe6129f6565b602002602001015163ffffffff161015611c3657898163ffffffff1681518110611bea57611bea6129f6565b6020026020010151878263ffffffff1681518110611c0a57611c0a6129f6565b602002602001015163ffffffff1681518110611c2857611c286129f6565b602002602001015191508093505b82611c4081612a2b565b935050611c7f565b868163ffffffff1681518110611c6057611c606129f6565b602002602001018051611c7290612a2b565b63ffffffff169052611a9e565b611c8881612a2b565b9050611a89565b5093508363ffffffff821615611d035784878563ffffffff1681518110611cb857611cb86129f6565b63ffffffff9283166020918202929092010152865187918516908110611ce057611ce06129f6565b602002602001018051809190611cf590612a2b565b63ffffffff16905250611d0b565b505050611d1f565b50505080611d1890612a2b565b9050611a6b565b8063ffffffff1667ffffffffffffffff811115611d3e57611d3e61233a565b604051908082528060200260200182016040528015611d67578160200160208202803683370190505b50985060005b8163ffffffff168163ffffffff161015611dde57848163ffffffff1681518110611d9957611d996129f6565b60200260200101518a8263ffffffff1681518110611db957611db96129f6565b63ffffffff90921660209283029190910190910152611dd781612a2b565b9050611d6d565b50505050505050505092915050565b611df78282611f80565b6001600160a01b0382163b15611ee657604051630a85bd0160e11b80825233600483015260006024830181905260448301849052608060648401526084830152906001600160a01b0384169063150b7a029060a4016020604051808303816000875af1158015611e6b573d6000803e3d6000fd5b505050506040513d601f19601f82011682018060405250810190611e8f9190612787565b6001600160e01b03191614611ee65760405162461bcd60e51b815260206004820152601060248201527f554e534146455f524543495049454e540000000000000000000000000000000060448201526064016106db565b5050565b63ffffffff81166000908152600c6020908152604091829020805483518184028101840190945280845260609392830182828015611f7357602002820191906000526020600020906000905b82829054906101000a900463ffffffff1663ffffffff1681526020019060040190602082600301049283019260010382029150808411611f365790505b5050505050905092915050565b6001600160a01b038216611fd65760405162461bcd60e51b815260206004820152601160248201527f494e56414c49445f524543495049454e5400000000000000000000000000000060448201526064016106db565b6000818152600260205260409020546001600160a01b03161561203b5760405162461bcd60e51b815260206004820152600e60248201527f414c52454144595f4d494e54454400000000000000000000000000000000000060448201526064016106db565b6001600160a01b0382166000818152600360209081526040808320805460010190558483526002909152808220805473ffffffffffffffffffffffffffffffffffffffff19168417905551839291907fddf252ad1be2c89b69c2b068fc378daa952ba7f163c4a11628f55a4df523b3ef908290a45050565b828054828255906000526020600020906007016008900481019282156121525791602002820160005b8382111561212057835183826101000a81548163ffffffff021916908363ffffffff16021790555092602001926004016020816003010492830192600103026120dc565b80156121505782816101000a81549063ffffffff0219169055600401602081600301049283019260010302612120565b505b5061215e929150612162565b5090565b5b8082111561215e5760008155600101612163565b6001600160e01b03198116811461218d57600080fd5b50565b6000602082840312156121a257600080fd5b81356121ad81612177565b9392505050565b60005b838110156121cf5781810151838201526020016121b7565b838111156118335750506000910152565b60208152600082518060208401526121ff8160408501602087016121b4565b601f01601f19169190910160400192915050565b60006020828403121561222557600080fd5b5035919050565b80356001600160a01b0381168114610d2157600080fd5b6000806040838503121561225657600080fd5b61225f8361222c565b946020939093013593505050565b60208082528251828201528281015160408084015280516060840181905260009291820190839060808601905b808310156122c057835163ffffffff16825292840192600192909201919084019061229a565b509695505050505050565b6000806000606084860312156122e057600080fd5b6122e98461222c565b92506122f76020850161222c565b9150604084013590509250925092565b60008060006060848603121561231c57600080fd5b6123258461222c565b95602085013595506040909401359392505050565b634e487b7160e01b600052604160045260246000fd5b604051601f8201601f1916810167ffffffffffffffff811182821017156123795761237961233a565b604052919050565b6000602080838503121561239457600080fd5b823567ffffffffffffffff808211156123ac57600080fd5b818501915085601f8301126123c057600080fd5b8135818111156123d2576123d261233a565b6123e4601f8201601f19168501612350565b915080825286848285010111156123fa57600080fd5b8084840185840137600090820190930192909252509392505050565b600081518084526020808501945080840160005b8381101561244c57815163ffffffff168752958201959082019060010161242a565b509495945050505050565b8281526040602082015260006124706040830184612416565b949350505050565b60006020828403121561248a57600080fd5b6121ad8261222c565b600080604083850312156124a657600080fd5b50508035926020909101359150565b634e487b7160e01b600052602160045260246000fd5b600281106124e957634e487b7160e01b600052602160045260246000fd5b9052565b602081016105b682846124cb565b6000806040838503121561250e57600080fd5b6125178361222c565b91506020830135801515811461252c57600080fd5b809150509250929050565b60408152600061254a6040830185612416565b90508260208301529392505050565b60008060008060006080868803121561257157600080fd5b61257a8661222c565b94506125886020870161222c565b935060408601359250606086013567ffffffffffffffff808211156125ac57600080fd5b818801915088601f8301126125c057600080fd5b8135818111156125cf57600080fd5b8960208285010111156125e157600080fd5b9699959850939650602001949392505050565b6000604082018483526020604081850152818551808452606086019150828701935060005b8181101561263557845183529383019391830191600101612619565b5090979650505050505050565b6000806040838503121561265557600080fd5b61265e8361222c565b915061266c6020840161222c565b90509250929050565b60008060006060848603121561268a57600080fd5b6126938461222c565b92506020808501359250604085013567ffffffffffffffff808211156126b857600080fd5b818701915087601f8301126126cc57600080fd5b8135818111156126de576126de61233a565b8060051b91506126ef848301612350565b818152918301840191848101908a84111561270957600080fd5b938501935b8385101561273d578435925063ffffffff8316831461272d5760008081fd5b828252938501939085019061270e565b8096505050505050509250925092565b600181811c9082168061276157607f821691505b60208210810361278157634e487b7160e01b600052602260045260246000fd5b50919050565b60006020828403121561279957600080fd5b81516121ad81612177565b838152606081016127b860208301856124cb565b826040830152949350505050565b634e487b7160e01b600052601160045260246000fd5b600082198211156127ef576127ef6127c6565b500190565b601f821115610b0857600081815260208120601f850160051c8101602086101561281b5750805b601f850160051c820191505b8181101561283a57828155600101612827565b505050505050565b815167ffffffffffffffff81111561285c5761285c61233a565b6128708161286a845461274d565b846127f4565b602080601f8311600181146128a5576000841561288d5750858301515b600019600386901b1c1916600185901b17855561283a565b600085815260208120601f198616915b828110156128d4578886015182559484019460019091019084016128b5565b50858210156128f25787850151600019600388901b60f8161c191681555b5050505050600190811b01905550565b60006001600160a01b03808816835280871660208401525084604083015260806060830152826080830152828460a0840137600060a0848401015260a0601f19601f85011683010190509695505050505050565b60008084546129648161274d565b6001828116801561297c5760018114612991576129c0565b60ff19841687528215158302870194506129c0565b8860005260208060002060005b858110156129b75781548a82015290840190820161299e565b50505082870194505b5050505083516129d48183602088016121b4565b01949350505050565b6000600182016129ef576129ef6127c6565b5060010190565b634e487b7160e01b600052603260045260246000fd5b600063ffffffff8083168185168083038211156129d4576129d46127c6565b600063ffffffff808316818103612a4457612a446127c6565b600101939250505056fea264697066735822122082c55b226022f22a0de3554a243ab284c7c64d202936052754da10294b1fdebc64736f6c634300080f0033",
  "linkReferences": {},
  "deployedLinkReferences": {}
}