{
  "_format": "hh-sol-artifact-1",
  "contractName": "GnosisSafeMultisig",
  "sourceName": "contracts/multisigs/GnosisSafeMultisig.sol",
  "abi": [
    {
      "inputs": [
        {
          "internalType": "address payable",
          "name": "_gnosisSafe",
          "type": "address"
        },
        {
          "internalType": "address",
          "name": "_gnosisSafeProxyFactory",
          "type": "address"
        }
      ],
      "stateMutability": "nonpayable",
      "type": "constructor"
    },
    {
      "inputs": [
        {
          "internalType": "address[]",
          "name": "owners",
          "type": "address[]"
        },
        {
          "internalType": "uint256",
          "name": "threshold",
          "type": "uint256"
        },
        {
          "internalType": "bytes",
          "name": "data",
          "type": "bytes"
        }
      ],
      "name": "create",
      "outputs": [
        {
          "internalType": "address",
          "name": "multisig",
          "type": "address"
        }
      ],
      "stateMutability": "nonpayable",
      "type": "function"
    },
    {
      "inputs": [],
      "name": "gnosisSafe",
      "outputs": [
        {
          "internalType": "address payable",
          "name": "",
          "type": "address"
        }
      ],
      "stateMutability": "view",
      "type": "function"
    },
    {
      "inputs": [],
      "name": "gnosisSafeProxyFactory",
      "outputs": [
        {
          "internalType": "address",
          "name": "",
          "type": "address"
        }
      ],
      "stateMutability": "view",
      "type": "function"
    }
  ],
  "bytecode": "0x60c060405234801561001057600080fd5b5060405161069338038061069383398101604081905261002f9161005e565b6001600160a01b039182166080521660a052610098565b6001600160a01b038116811461005b57600080fd5b50565b6000806040838503121561007157600080fd5b825161007c81610046565b602084015190925061008d81610046565b809150509250929050565b60805160a0516105ca6100c960003960008181604b015261017a015260008181608e01526101b401526105ca6000f3fe608060405234801561001057600080fd5b50600436106100415760003560e01c8063490b7a7914610046578063a84173ae14610089578063f398dba8146100b0575b600080fd5b61006d7f000000000000000000000000000000000000000000000000000000000000000081565b6040516001600160a01b03909116815260200160405180910390f35b61006d7f000000000000000000000000000000000000000000000000000000000000000081565b61006d6100be366004610358565b6000806000806000806000806100d389610235565b9650965096509650965096509650600063b63e800d60e01b8c8c8a858b8b8a8c60405160240161010a989796959493929190610482565b60408051601f198184030181529181526020820180517bffffffffffffffffffffffffffffffffffffffffffffffffffffffff167fffffffff00000000000000000000000000000000000000000000000000000000909416939093179092529051631688f0b960e01b81529091507f0000000000000000000000000000000000000000000000000000000000000000906000906001600160a01b03831690631688f0b9906101e0907f00000000000000000000000000000000000000000000000000000000000000009087908a9060040161053e565b6020604051808303816000875af11580156101ff573d6000803e3d6000fd5b505050506040513d601f19601f820116820180604052508101906102239190610570565b9e9d5050505050505050505050505050565b600080600080600080606060008851111561027e575050855160148701516028880151603c89015160508a015160708b015160908c0151958c0151949a50929850909650945092505b919395979092949650565b634e487b7160e01b600052604160045260246000fd5b604051601f8201601f1916810167ffffffffffffffff811182821017156102c8576102c8610289565b604052919050565b6001600160a01b03811681146102e557600080fd5b50565b600082601f8301126102f957600080fd5b813567ffffffffffffffff81111561031357610313610289565b610326601f8201601f191660200161029f565b81815284602083860101111561033b57600080fd5b816020850160208301376000918101602001919091529392505050565b60008060006060848603121561036d57600080fd5b833567ffffffffffffffff8082111561038557600080fd5b818601915086601f83011261039957600080fd5b81356020828211156103ad576103ad610289565b8160051b6103bc82820161029f565b928352848101820192828101908b8511156103d657600080fd5b958301955b8487101561040057863592506103f0836102d0565b82825295830195908301906103db565b98505050870135945050604086013591508082111561041e57600080fd5b5061042b868287016102e8565b9150509250925092565b6000815180845260005b8181101561045b5760208185018101518683018201520161043f565b8181111561046d576000602083870101525b50601f01601f19169290920160200192915050565b6101008082528951908201819052600090610120830190602090818d01845b828110156104c65781516001600160a01b0316855293830193908301906001016104a1565b50505083018a90526001600160a01b038916604084015282810360608401526104ef8189610435565b91505061050760808301876001600160a01b03169052565b6001600160a01b03851660a08301528360c083015261053160e08301846001600160a01b03169052565b9998505050505050505050565b6001600160a01b03841681526060602082015260006105606060830185610435565b9050826040830152949350505050565b60006020828403121561058257600080fd5b815161058d816102d0565b939250505056fea264697066735822122022059b2591146993047005748f4bad80893c97969be217614c9b234b98d462cf64736f6c634300080f0033",
  "linkReferences": {},
  "deployedLinkReferences": {}
}