{
  "_format": "hh-sol-artifact-1",
  "contractName": "GnosisSafeSameAddressMultisig",
  "sourceName": "contracts/multisigs/GnosisSafeSameAddressMultisig.sol",
  "abi": [
    {
      "inputs": [
        {
          "internalType": "uint256",
          "name": "expected",
          "type": "uint256"
        },
        {
          "internalType": "uint256",
          "name": "provided",
          "type": "uint256"
        }
      ],
      "name": "IncorrectDataLength",
      "type": "error"
    },
    {
      "inputs": [
        {
          "internalType": "uint256",
          "name": "expected",
          "type": "uint256"
        },
        {
          "internalType": "uint256",
          "name": "provided",
          "type": "uint256"
        }
      ],
      "name": "WrongNumOwners",
      "type": "error"
    },
    {
      "inputs": [
        {
          "internalType": "address",
          "name": "provided",
          "type": "address"
        }
      ],
      "name": "WrongOwner",
      "type": "error"
    },
    {
      "inputs": [
        {
          "internalType": "uint256",
          "name": "expected",
          "type": "uint256"
        },
        {
          "internalType": "uint256",
          "name": "provided",
          "type": "uint256"
        }
      ],
      "name": "WrongThreshold",
      "type": "error"
    },
    {
      "inputs": [],
      "name": "DEFAULT_DATA_LENGTH",
      "outputs": [
        {
          "internalType": "uint256",
          "name": "",
          "type": "uint256"
        }
      ],
      "stateMutability": "view",
      "type": "function"
    },
    {
      "inputs": [
        {
          "internalType": "address[]",
          "name": "owners",
          "type": "address[]"
        },
        {
          "internalType": "uint256",
          "name": "threshold",
          "type": "uint256"
        },
        {
          "internalType": "bytes",
          "name": "data",
          "type": "bytes"
        }
      ],
      "name": "create",
      "outputs": [
        {
          "internalType": "address",
          "name": "multisig",
          "type": "address"
        }
      ],
      "stateMutability": "view",
      "type": "function"
    }
  ],
  "bytecode": "0x608060405234801561001057600080fd5b506105b9806100206000396000f3fe608060405234801561001057600080fd5b50600436106100365760003560e01c8063f02fb7741461003b578063f398dba814610056575b600080fd5b610043601481565b6040519081526020015b60405180910390f35b6100696100643660046103a4565b610081565b6040516001600160a01b03909116815260200161004d565b600060148251146100b7578151604051631a64813d60e11b81526014600482015260248101919091526044015b60405180910390fd5b601482015190506000816001600160a01b031663a0e67e2b6040518163ffffffff1660e01b8152600401600060405180830381865afa1580156100fe573d6000803e3d6000fd5b505050506040513d6000823e601f3d908101601f191682016040526101269190810190610474565b90506000826001600160a01b031663e75235b86040518163ffffffff1660e01b8152600401602060405180830381865afa158015610168573d6000803e3d6000fd5b505050506040513d601f19601f8201168201806040525081019061018c919061050e565b90508085146101b857604051635372461560e01b815260048101829052602481018690526044016100ae565b8551825181146101e857825160405163f720290d60e01b81526004810191909152602481018290526044016100ae565b60005b818110156102a657836001610200838561053d565b61020a919061053d565b8151811061021a5761021a610554565b60200260200101516001600160a01b031688828151811061023d5761023d610554565b60200260200101516001600160a01b0316146102965787818151811061026557610265610554565b60200260200101516040516374dba67360e01b81526004016100ae91906001600160a01b0391909116815260200190565b61029f8161056a565b90506101eb565b505050509392505050565b634e487b7160e01b600052604160045260246000fd5b604051601f8201601f1916810167ffffffffffffffff811182821017156102f0576102f06102b1565b604052919050565b600067ffffffffffffffff821115610312576103126102b1565b5060051b60200190565b6001600160a01b038116811461033157600080fd5b50565b600082601f83011261034557600080fd5b813567ffffffffffffffff81111561035f5761035f6102b1565b610372601f8201601f19166020016102c7565b81815284602083860101111561038757600080fd5b816020850160208301376000918101602001919091529392505050565b6000806000606084860312156103b957600080fd5b833567ffffffffffffffff808211156103d157600080fd5b818601915086601f8301126103e557600080fd5b813560206103fa6103f5836102f8565b6102c7565b82815260059290921b8401810191818101908a84111561041957600080fd5b948201945b838610156104405785356104318161031c565b8252948201949082019061041e565b975050870135945050604086013591508082111561045d57600080fd5b5061046a86828701610334565b9150509250925092565b6000602080838503121561048757600080fd5b825167ffffffffffffffff81111561049e57600080fd5b8301601f810185136104af57600080fd5b80516104bd6103f5826102f8565b81815260059190911b820183019083810190878311156104dc57600080fd5b928401925b828410156105035783516104f48161031c565b825292840192908401906104e1565b979650505050505050565b60006020828403121561052057600080fd5b5051919050565b634e487b7160e01b600052601160045260246000fd5b60008282101561054f5761054f610527565b500390565b634e487b7160e01b600052603260045260246000fd5b60006001820161057c5761057c610527565b506001019056fea2646970667358221220fbe96f5b21e3ff0c9c917f790becaf3f2af074073aba277b59f73d35f666d2d764736f6c634300080f0033",
  "linkReferences": {},
  "deployedLinkReferences": {}
}