{
  "_format": "hh-sol-artifact-1",
  "contractName": "GnosisSafeMultisig",
  "sourceName": "contracts/multisigs/GnosisSafeMultisig.sol",
  "abi": [
    {
      "inputs": [
        {
          "internalType": "address payable",
          "name": "_gnosisSafe",
          "type": "address"
        },
        {
          "internalType": "address",
          "name": "_gnosisSafeProxyFactory",
          "type": "address"
        }
      ],
      "stateMutability": "nonpayable",
      "type": "constructor"
    },
    {
      "inputs": [
        {
          "internalType": "address[]",
          "name": "owners",
          "type": "address[]"
        },
        {
          "internalType": "uint256",
          "name": "threshold",
          "type": "uint256"
        },
        {
          "internalType": "bytes",
          "name": "data",
          "type": "bytes"
        }
      ],
      "name": "create",
      "outputs": [
        {
          "internalType": "address",
          "name": "multisig",
          "type": "address"
        }
      ],
      "stateMutability": "nonpayable",
      "type": "function"
    },
    {
      "inputs": [],
      "name": "gnosisSafe",
      "outputs": [
        {
          "internalType": "address payable",
          "name": "",
          "type": "address"
        }
      ],
      "stateMutability": "view",
      "type": "function"
    },
    {
      "inputs": [],
      "name": "gnosisSafeProxyFactory",
      "outputs": [
        {
          "internalType": "address",
          "name": "",
          "type": "address"
        }
      ],
      "stateMutability": "view",
      "type": "function"
    }
  ],
  "bytecode": "0x60c060405234801561001057600080fd5b506040516106c53803806106c583398101604081905261002f9161005e565b6001600160a01b039182166080521660a052610098565b6001600160a01b038116811461005b57600080fd5b50565b6000806040838503121561007157600080fd5b825161007c81610046565b602084015190925061008d81610046565b809150509250929050565b60805160a0516105fc6100c960003960008181604b0152610193015260008181608e01526101cd01526105fc6000f3fe608060405234801561001057600080fd5b50600436106100415760003560e01c8063490b7a7914610046578063a84173ae14610089578063f398dba8146100b0575b600080fd5b61006d7f000000000000000000000000000000000000000000000000000000000000000081565b6040516001600160a01b03909116815260200160405180910390f35b61006d7f000000000000000000000000000000000000000000000000000000000000000081565b61006d6100be36600461038a565b6000806000806000806000806100d38961024e565b9650965096509650965096509650600063b63e800d60e01b8c8c8a858b8b8a8c60405160240161010a9897969594939291906104b4565b60408051601f198184030181529181526020820180517bffffffffffffffffffffffffffffffffffffffffffffffffffffffff167fffffffff000000000000000000000000000000000000000000000000000000009094169390931790925290517f1688f0b90000000000000000000000000000000000000000000000000000000081529091507f0000000000000000000000000000000000000000000000000000000000000000906000906001600160a01b03831690631688f0b9906101f9907f00000000000000000000000000000000000000000000000000000000000000009087908a90600401610570565b6020604051808303816000875af1158015610218573d6000803e3d6000fd5b505050506040513d601f19601f8201168201806040525081019061023c91906105a2565b9e9d5050505050505050505050505050565b6000806000806000806060600088511115610297575050855160148701516028880151603c89015160508a015160708b015160908c0151958c0151949a50929850909650945092505b919395979092949650565b7f4e487b7100000000000000000000000000000000000000000000000000000000600052604160045260246000fd5b604051601f8201601f1916810167ffffffffffffffff811182821017156102fa576102fa6102a2565b604052919050565b6001600160a01b038116811461031757600080fd5b50565b600082601f83011261032b57600080fd5b813567ffffffffffffffff811115610345576103456102a2565b610358601f8201601f19166020016102d1565b81815284602083860101111561036d57600080fd5b816020850160208301376000918101602001919091529392505050565b60008060006060848603121561039f57600080fd5b833567ffffffffffffffff808211156103b757600080fd5b818601915086601f8301126103cb57600080fd5b81356020828211156103df576103df6102a2565b8160051b6103ee8282016102d1565b928352848101820192828101908b85111561040857600080fd5b958301955b84871015610432578635925061042283610302565b828252958301959083019061040d565b98505050870135945050604086013591508082111561045057600080fd5b5061045d8682870161031a565b9150509250925092565b6000815180845260005b8181101561048d57602081850181015186830182015201610471565b8181111561049f576000602083870101525b50601f01601f19169290920160200192915050565b6101008082528951908201819052600090610120830190602090818d01845b828110156104f85781516001600160a01b0316855293830193908301906001016104d3565b50505083018a90526001600160a01b038916604084015282810360608401526105218189610467565b91505061053960808301876001600160a01b03169052565b6001600160a01b03851660a08301528360c083015261056360e08301846001600160a01b03169052565b9998505050505050505050565b6001600160a01b03841681526060602082015260006105926060830185610467565b9050826040830152949350505050565b6000602082840312156105b457600080fd5b81516105bf81610302565b939250505056fea264697066735822122065300873f4b67d75c90016029c67cf71ac3b245fb9c894d763186023dfa6953e64736f6c634300080f0033",
  "linkReferences": {},
  "deployedLinkReferences": {}
}