{
  "_format": "hh-sol-artifact-1",
  "contractName": "ServiceManager",
  "sourceName": "contracts/ServiceManager.sol",
  "abi": [
    {
      "inputs": [
        {
          "internalType": "address",
          "name": "_serviceRegistry",
          "type": "address"
        }
      ],
      "stateMutability": "nonpayable",
      "type": "constructor"
    },
    {
      "inputs": [
        {
          "internalType": "address",
          "name": "operator",
          "type": "address"
        }
      ],
      "name": "AgentInstanceRegistered",
      "type": "error"
    },
    {
      "inputs": [
        {
          "internalType": "uint256",
          "name": "serviceId",
          "type": "uint256"
        }
      ],
      "name": "AgentInstancesSlotsFilled",
      "type": "error"
    },
    {
      "inputs": [
        {
          "internalType": "uint256",
          "name": "agentId",
          "type": "uint256"
        }
      ],
      "name": "AgentNotFound",
      "type": "error"
    },
    {
      "inputs": [
        {
          "internalType": "uint256",
          "name": "agentId",
          "type": "uint256"
        },
        {
          "internalType": "uint256",
          "name": "serviceId",
          "type": "uint256"
        }
      ],
      "name": "AgentNotInService",
      "type": "error"
    },
    {
      "inputs": [
        {
          "internalType": "uint256",
          "name": "componentId",
          "type": "uint256"
        }
      ],
      "name": "ComponentNotFound",
      "type": "error"
    },
    {
      "inputs": [],
      "name": "HashExists",
      "type": "error"
    },
    {
      "inputs": [
        {
          "internalType": "uint256",
          "name": "sent",
          "type": "uint256"
        },
        {
          "internalType": "uint256",
          "name": "expected",
          "type": "uint256"
        },
        {
          "internalType": "uint256",
          "name": "serviceId",
          "type": "uint256"
        }
      ],
      "name": "IncorrectAgentBondingValue",
      "type": "error"
    },
    {
      "inputs": [
        {
          "internalType": "uint256",
          "name": "sent",
          "type": "uint256"
        },
        {
          "internalType": "uint256",
          "name": "expected",
          "type": "uint256"
        },
        {
          "internalType": "uint256",
          "name": "serviceId",
          "type": "uint256"
        }
      ],
      "name": "IncorrectRegistrationDepositValue",
      "type": "error"
    },
    {
      "inputs": [
        {
          "internalType": "address",
          "name": "sender",
          "type": "address"
        },
        {
          "internalType": "address",
          "name": "manager",
          "type": "address"
        }
      ],
      "name": "ManagerOnly",
      "type": "error"
    },
    {
      "inputs": [
        {
          "internalType": "address",
          "name": "provided",
          "type": "address"
        },
        {
          "internalType": "address",
          "name": "expected",
          "type": "address"
        },
        {
          "internalType": "uint256",
          "name": "serviceId",
          "type": "uint256"
        }
      ],
      "name": "OnlyOwnServiceMultisig",
      "type": "error"
    },
    {
      "inputs": [
        {
          "internalType": "address",
          "name": "operator",
          "type": "address"
        },
        {
          "internalType": "uint256",
          "name": "serviceId",
          "type": "uint256"
        }
      ],
      "name": "OperatorHasNoInstances",
      "type": "error"
    },
    {
      "inputs": [
        {
          "internalType": "uint256",
          "name": "provided",
          "type": "uint256"
        },
        {
          "internalType": "uint256",
          "name": "max",
          "type": "uint256"
        }
      ],
      "name": "Overflow",
      "type": "error"
    },
    {
      "inputs": [
        {
          "internalType": "address",
          "name": "sender",
          "type": "address"
        },
        {
          "internalType": "address",
          "name": "owner",
          "type": "address"
        }
      ],
      "name": "OwnerOnly",
      "type": "error"
    },
    {
      "inputs": [],
      "name": "Paused",
      "type": "error"
    },
    {
      "inputs": [],
      "name": "ReentrancyGuard",
      "type": "error"
    },
    {
      "inputs": [
        {
          "internalType": "uint256",
          "name": "serviceId",
          "type": "uint256"
        }
      ],
      "name": "ServiceMustBeInactive",
      "type": "error"
    },
    {
      "inputs": [
        {
          "internalType": "address",
          "name": "token",
          "type": "address"
        },
        {
          "internalType": "address",
          "name": "from",
          "type": "address"
        },
        {
          "internalType": "address",
          "name": "to",
          "type": "address"
        },
        {
          "internalType": "uint256",
          "name": "value",
          "type": "uint256"
        }
      ],
      "name": "TransferFailed",
      "type": "error"
    },
    {
      "inputs": [
        {
          "internalType": "address",
          "name": "multisig",
          "type": "address"
        }
      ],
      "name": "UnauthorizedMultisig",
      "type": "error"
    },
    {
      "inputs": [
        {
          "internalType": "uint256",
          "name": "agentId",
          "type": "uint256"
        }
      ],
      "name": "WrongAgentId",
      "type": "error"
    },
    {
      "inputs": [
        {
          "internalType": "uint256",
          "name": "numValues1",
          "type": "uint256"
        },
        {
          "internalType": "uint256",
          "name": "numValues2",
          "type": "uint256"
        }
      ],
      "name": "WrongArrayLength",
      "type": "error"
    },
    {
      "inputs": [
        {
          "internalType": "uint256",
          "name": "serviceId",
          "type": "uint256"
        }
      ],
      "name": "WrongOperator",
      "type": "error"
    },
    {
      "inputs": [
        {
          "internalType": "uint256",
          "name": "state",
          "type": "uint256"
        },
        {
          "internalType": "uint256",
          "name": "serviceId",
          "type": "uint256"
        }
      ],
      "name": "WrongServiceState",
      "type": "error"
    },
    {
      "inputs": [
        {
          "internalType": "uint256",
          "name": "currentThreshold",
          "type": "uint256"
        },
        {
          "internalType": "uint256",
          "name": "minThreshold",
          "type": "uint256"
        },
        {
          "internalType": "uint256",
          "name": "maxThreshold",
          "type": "uint256"
        }
      ],
      "name": "WrongThreshold",
      "type": "error"
    },
    {
      "inputs": [],
      "name": "ZeroAddress",
      "type": "error"
    },
    {
      "inputs": [],
      "name": "ZeroValue",
      "type": "error"
    },
    {
      "anonymous": false,
      "inputs": [
        {
          "indexed": true,
          "internalType": "address",
          "name": "multisig",
          "type": "address"
        }
      ],
      "name": "CreateMultisig",
      "type": "event"
    },
    {
      "anonymous": false,
      "inputs": [
        {
          "indexed": true,
          "internalType": "address",
          "name": "owner",
          "type": "address"
        }
      ],
      "name": "OwnerUpdated",
      "type": "event"
    },
    {
      "anonymous": false,
      "inputs": [
        {
          "indexed": true,
          "internalType": "address",
          "name": "owner",
          "type": "address"
        }
      ],
      "name": "Pause",
      "type": "event"
    },
    {
      "anonymous": false,
      "inputs": [
        {
          "indexed": true,
          "internalType": "address",
          "name": "owner",
          "type": "address"
        }
      ],
      "name": "Unpause",
      "type": "event"
    },
    {
      "inputs": [
        {
          "internalType": "uint256",
          "name": "serviceId",
          "type": "uint256"
        }
      ],
      "name": "activateRegistration",
      "outputs": [
        {
          "internalType": "bool",
          "name": "success",
          "type": "bool"
        }
      ],
      "stateMutability": "payable",
      "type": "function"
    },
    {
      "inputs": [
        {
          "internalType": "address",
          "name": "newOwner",
          "type": "address"
        }
      ],
      "name": "changeOwner",
      "outputs": [],
      "stateMutability": "nonpayable",
      "type": "function"
    },
    {
      "inputs": [
        {
          "internalType": "address",
          "name": "serviceOwner",
          "type": "address"
        },
        {
          "internalType": "bytes32",
          "name": "configHash",
          "type": "bytes32"
        },
        {
          "internalType": "uint32[]",
          "name": "agentIds",
          "type": "uint32[]"
        },
        {
          "components": [
            {
              "internalType": "uint32",
              "name": "slots",
              "type": "uint32"
            },
            {
              "internalType": "uint96",
              "name": "bond",
              "type": "uint96"
            }
          ],
          "internalType": "struct IService.AgentParams[]",
          "name": "agentParams",
          "type": "tuple[]"
        },
        {
          "internalType": "uint32",
          "name": "threshold",
          "type": "uint32"
        }
      ],
      "name": "create",
      "outputs": [
        {
          "internalType": "uint256",
          "name": "",
          "type": "uint256"
        }
      ],
      "stateMutability": "nonpayable",
      "type": "function"
    },
    {
      "inputs": [
        {
          "internalType": "uint256",
          "name": "serviceId",
          "type": "uint256"
        },
        {
          "internalType": "address",
          "name": "multisigImplementation",
          "type": "address"
        },
        {
          "internalType": "bytes",
          "name": "data",
          "type": "bytes"
        }
      ],
      "name": "deploy",
      "outputs": [
        {
          "internalType": "address",
          "name": "multisig",
          "type": "address"
        }
      ],
      "stateMutability": "nonpayable",
      "type": "function"
    },
    {
      "inputs": [],
      "name": "owner",
      "outputs": [
        {
          "internalType": "address",
          "name": "",
          "type": "address"
        }
      ],
      "stateMutability": "view",
      "type": "function"
    },
    {
      "inputs": [],
      "name": "pause",
      "outputs": [],
      "stateMutability": "nonpayable",
      "type": "function"
    },
    {
      "inputs": [],
      "name": "paused",
      "outputs": [
        {
          "internalType": "bool",
          "name": "",
          "type": "bool"
        }
      ],
      "stateMutability": "view",
      "type": "function"
    },
    {
      "inputs": [
        {
          "internalType": "uint256",
          "name": "serviceId",
          "type": "uint256"
        },
        {
          "internalType": "address[]",
          "name": "agentInstances",
          "type": "address[]"
        },
        {
          "internalType": "uint32[]",
          "name": "agentIds",
          "type": "uint32[]"
        }
      ],
      "name": "registerAgents",
      "outputs": [
        {
          "internalType": "bool",
          "name": "success",
          "type": "bool"
        }
      ],
      "stateMutability": "payable",
      "type": "function"
    },
    {
      "inputs": [],
      "name": "serviceRegistry",
      "outputs": [
        {
          "internalType": "address",
          "name": "",
          "type": "address"
        }
      ],
      "stateMutability": "view",
      "type": "function"
    },
    {
      "inputs": [
        {
          "internalType": "uint256",
          "name": "serviceId",
          "type": "uint256"
        }
      ],
      "name": "terminate",
      "outputs": [
        {
          "internalType": "bool",
          "name": "success",
          "type": "bool"
        },
        {
          "internalType": "uint256",
          "name": "refund",
          "type": "uint256"
        }
      ],
      "stateMutability": "nonpayable",
      "type": "function"
    },
    {
      "inputs": [
        {
          "internalType": "uint256",
          "name": "serviceId",
          "type": "uint256"
        }
      ],
      "name": "unbond",
      "outputs": [
        {
          "internalType": "bool",
          "name": "success",
          "type": "bool"
        },
        {
          "internalType": "uint256",
          "name": "refund",
          "type": "uint256"
        }
      ],
      "stateMutability": "nonpayable",
      "type": "function"
    },
    {
      "inputs": [],
      "name": "unpause",
      "outputs": [],
      "stateMutability": "nonpayable",
      "type": "function"
    },
    {
      "inputs": [
        {
          "internalType": "bytes32",
          "name": "configHash",
          "type": "bytes32"
        },
        {
          "internalType": "uint32[]",
          "name": "agentIds",
          "type": "uint32[]"
        },
        {
          "components": [
            {
              "internalType": "uint32",
              "name": "slots",
              "type": "uint32"
            },
            {
              "internalType": "uint96",
              "name": "bond",
              "type": "uint96"
            }
          ],
          "internalType": "struct IService.AgentParams[]",
          "name": "agentParams",
          "type": "tuple[]"
        },
        {
          "internalType": "uint32",
          "name": "threshold",
          "type": "uint32"
        },
        {
          "internalType": "uint256",
          "name": "serviceId",
          "type": "uint256"
        }
      ],
      "name": "update",
      "outputs": [
        {
          "internalType": "bool",
          "name": "",
          "type": "bool"
        }
      ],
      "stateMutability": "nonpayable",
      "type": "function"
    }
  ],
  "bytecode": "0x60a060405234801561001057600080fd5b5060405161125c38038061125c83398101604081905261002f91610052565b6001600160a01b0316608052600080546001600160a01b03191633179055610082565b60006020828403121561006457600080fd5b81516001600160a01b038116811461007b57600080fd5b9392505050565b60805161118e6100ce6000396000818161024d015281816102e3015281816103e10152818161052f015281816105d7015281816106a5015281816108500152610961015261118e6000f3fe6080604052600436106100d25760003560e01c80637a828b281161007f578063a6f9dae111610059578063a6f9dae11461021b578063cbcf252a1461023b578063d03ca40a1461026f578063fbdeb3d71461028257600080fd5b80637a828b28146101c65780638456cb59146101e65780638da5cb5b146101fb57600080fd5b80634d5a5827116100b05780634d5a5827146101625780635c975abb146101855780636503f7e1146101a657600080fd5b80630d0d57a8146100d757806327de9e32146101145780633f4ba83a1461014b575b600080fd5b3480156100e357600080fd5b506100f76100f2366004610a82565b6102b0565b6040516001600160a01b0390911681526020015b60405180910390f35b34801561012057600080fd5b5061013461012f366004610b33565b61039f565b60408051921515835260208301919091520161010b565b34801561015757600080fd5b50610160610458565b005b610175610170366004610b33565b6104ef565b604051901515815260200161010b565b34801561019157600080fd5b5060005461017590600160a01b900460ff1681565b3480156101b257600080fd5b506101756101c1366004610c9c565b6105a4565b3480156101d257600080fd5b506101346101e1366004610b33565b610663565b3480156101f257600080fd5b506101606106d4565b34801561020757600080fd5b506000546100f7906001600160a01b031681565b34801561022757600080fd5b50610160610236366004610d22565b61076c565b34801561024757600080fd5b506100f77f000000000000000000000000000000000000000000000000000000000000000081565b61017561027d366004610d46565b61084c565b34801561028e57600080fd5b506102a261029d366004610e13565b6108ec565b60405190815260200161010b565b6040517ff908bc770000000000000000000000000000000000000000000000000000000081526000906001600160a01b037f0000000000000000000000000000000000000000000000000000000000000000169063f908bc779061031e903390889088908890600401610ea4565b6020604051808303816000875af115801561033d573d6000803e3d6000fd5b505050506040513d601f19601f820116820180604052508101906103619190610f1d565b6040519091506001600160a01b038216907fec97633905b1dbe9773a7536e9a986dcf89803e1193934b7b6d76587c68beb4090600090a29392505050565b6040517fa5d059ca0000000000000000000000000000000000000000000000000000000081523360048201526024810182905260009081906001600160a01b037f0000000000000000000000000000000000000000000000000000000000000000169063a5d059ca906044015b60408051808303816000875af115801561042a573d6000803e3d6000fd5b505050506040513d601f19601f8201168201806040525081019061044e9190610f4a565b9094909350915050565b6000546001600160a01b0316331461049d5760005460405163521eb56d60e11b81523360048201526001600160a01b0390911660248201526044015b60405180910390fd5b600080547fffffffffffffffffffffff00ffffffffffffffffffffffffffffffffffffffff16815560405133917faeb196d352664784d1900b0e7414a8face7d29f4dae8c4b0cf68ed477423bbf491a2565b6040517fe23f6fb4000000000000000000000000000000000000000000000000000000008152336004820152602481018290526000906001600160a01b037f0000000000000000000000000000000000000000000000000000000000000000169063e23f6fb490349060440160206040518083038185885af1158015610579573d6000803e3d6000fd5b50505050506040513d601f19601f8201168201806040525081019061059e9190610f76565b92915050565b6040517fcbf994f80000000000000000000000000000000000000000000000000000000081526000906001600160a01b037f0000000000000000000000000000000000000000000000000000000000000000169063cbf994f8906106169033908a908a908a908a908a90600401611021565b6020604051808303816000875af1158015610635573d6000803e3d6000fd5b505050506040513d601f19601f820116820180604052508101906106599190610f76565b9695505050505050565b6040517fccc9305d0000000000000000000000000000000000000000000000000000000081523360048201526024810182905260009081906001600160a01b037f0000000000000000000000000000000000000000000000000000000000000000169063ccc9305d9060440161040c565b6000546001600160a01b031633146107145760005460405163521eb56d60e11b81523360048201526001600160a01b039091166024820152604401610494565b600080547fffffffffffffffffffffff00ffffffffffffffffffffffffffffffffffffffff16600160a01b17815560405133917f5ee71a369c8672edded508e624ffc9257fa1ae6886ef32905c18e60196bca39991a2565b6000546001600160a01b031633146107ac5760005460405163521eb56d60e11b81523360048201526001600160a01b039091166024820152604401610494565b6001600160a01b0381166107ec576040517fd92e233d00000000000000000000000000000000000000000000000000000000815260040160405180910390fd5b600080547fffffffffffffffffffffffff0000000000000000000000000000000000000000166001600160a01b038316908117825560405190917f4ffd725fc4a22075e9ec71c59edf9c38cdeb588a91b24fc5b61388c5be41282b91a250565b60007f00000000000000000000000000000000000000000000000000000000000000006001600160a01b031663dff7672434338787876040518663ffffffff1660e01b81526004016108a19493929190611077565b60206040518083038185885af11580156108bf573d6000803e3d6000fd5b50505050506040513d601f19601f820116820180604052508101906108e49190610f76565b949350505050565b60008054600160a01b900460ff1615610931576040517f9e87fac800000000000000000000000000000000000000000000000000000000815260040160405180910390fd5b6040517ffbdeb3d70000000000000000000000000000000000000000000000000000000081526001600160a01b037f0000000000000000000000000000000000000000000000000000000000000000169063fbdeb3d79061099e90899089908990899089906004016110ec565b6020604051808303816000875af11580156109bd573d6000803e3d6000fd5b505050506040513d601f19601f82011682018060405250810190610659919061113f565b6001600160a01b03811681146109f657600080fd5b50565b7f4e487b7100000000000000000000000000000000000000000000000000000000600052604160045260246000fd5b6040805190810167ffffffffffffffff81118282101715610a4b57610a4b6109f9565b60405290565b604051601f8201601f1916810167ffffffffffffffff81118282101715610a7a57610a7a6109f9565b604052919050565b600080600060608486031215610a9757600080fd5b83359250602080850135610aaa816109e1565b9250604085013567ffffffffffffffff80821115610ac757600080fd5b818701915087601f830112610adb57600080fd5b813581811115610aed57610aed6109f9565b610aff601f8201601f19168501610a51565b91508082528884828501011115610b1557600080fd5b80848401858401376000848284010152508093505050509250925092565b600060208284031215610b4557600080fd5b5035919050565b600067ffffffffffffffff821115610b6657610b666109f9565b5060051b60200190565b803563ffffffff81168114610b8457600080fd5b919050565b600082601f830112610b9a57600080fd5b81356020610baf610baa83610b4c565b610a51565b82815260059290921b84018101918181019086841115610bce57600080fd5b8286015b84811015610bf057610be381610b70565b8352918301918301610bd2565b509695505050505050565b600082601f830112610c0c57600080fd5b81356020610c1c610baa83610b4c565b82815260069290921b84018101918181019086841115610c3b57600080fd5b8286015b84811015610bf05760408189031215610c585760008081fd5b610c60610a28565b610c6982610b70565b8152848201356bffffffffffffffffffffffff81168114610c8a5760008081fd5b81860152835291830191604001610c3f565b600080600080600060a08688031215610cb457600080fd5b85359450602086013567ffffffffffffffff80821115610cd357600080fd5b610cdf89838a01610b89565b95506040880135915080821115610cf557600080fd5b50610d0288828901610bfb565b935050610d1160608701610b70565b949793965091946080013592915050565b600060208284031215610d3457600080fd5b8135610d3f816109e1565b9392505050565b600080600060608486031215610d5b57600080fd5b8335925060208085013567ffffffffffffffff80821115610d7b57600080fd5b818701915087601f830112610d8f57600080fd5b8135610d9d610baa82610b4c565b81815260059190911b8301840190848101908a831115610dbc57600080fd5b938501935b82851015610de3578435610dd4816109e1565b82529385019390850190610dc1565b965050506040870135925080831115610dfb57600080fd5b5050610e0986828701610b89565b9150509250925092565b600080600080600060a08688031215610e2b57600080fd5b8535610e36816109e1565b945060208601359350604086013567ffffffffffffffff80821115610e5a57600080fd5b610e6689838a01610b89565b94506060880135915080821115610e7c57600080fd5b50610e8988828901610bfb565b925050610e9860808701610b70565b90509295509295909350565b60006001600160a01b038087168352602086818501528186166040850152608060608501528451915081608085015260005b82811015610ef25785810182015185820160a001528101610ed6565b82811115610f0457600060a084870101525b5050601f01601f19169190910160a00195945050505050565b600060208284031215610f2f57600080fd5b8151610d3f816109e1565b80518015158114610b8457600080fd5b60008060408385031215610f5d57600080fd5b610f6683610f3a565b9150602083015190509250929050565b600060208284031215610f8857600080fd5b610d3f82610f3a565b600081518084526020808501945080840160005b83811015610fc757815163ffffffff1687529582019590820190600101610fa5565b509495945050505050565b600081518084526020808501945080840160005b83811015610fc7578151805163ffffffff1688528301516bffffffffffffffffffffffff168388015260409096019590820190600101610fe6565b6001600160a01b038716815285602082015260c06040820152600061104960c0830187610f91565b828103606084015261105b8187610fd2565b63ffffffff959095166080840152505060a00152949350505050565b6000608082016001600160a01b038088168452602087818601526080604086015282875180855260a087019150828901945060005b818110156110ca5785518516835294830194918301916001016110ac565b505085810360608701526110de8188610f91565b9a9950505050505050505050565b6001600160a01b038616815284602082015260a06040820152600061111460a0830186610f91565b82810360608401526111268186610fd2565b91505063ffffffff831660808301529695505050505050565b60006020828403121561115157600080fd5b505191905056fea2646970667358221220159669e6bc74bdf5b1975ef532224d29c5269d9f03bdbcf7591898e5c5acccf264736f6c634300080f0033",
  "linkReferences": {},
  "deployedLinkReferences": {}
}