{
  "_format": "hh-sol-artifact-1",
  "contractName": "ServiceRegistry",
  "sourceName": "contracts/ServiceRegistry.sol",
  "abi": [
    {
      "inputs": [
        {
          "internalType": "string",
          "name": "_name",
          "type": "string"
        },
        {
          "internalType": "string",
          "name": "_symbol",
          "type": "string"
        },
        {
          "internalType": "string",
          "name": "_baseURI",
          "type": "string"
        },
        {
          "internalType": "address",
          "name": "_agentRegistry",
          "type": "address"
        }
      ],
      "stateMutability": "nonpayable",
      "type": "constructor"
    },
    {
      "inputs": [
        {
          "internalType": "address",
          "name": "operator",
          "type": "address"
        }
      ],
      "name": "AgentInstanceRegistered",
      "type": "error"
    },
    {
      "inputs": [
        {
          "internalType": "uint256",
          "name": "serviceId",
          "type": "uint256"
        }
      ],
      "name": "AgentInstancesSlotsFilled",
      "type": "error"
    },
    {
      "inputs": [
        {
          "internalType": "uint256",
          "name": "agentId",
          "type": "uint256"
        }
      ],
      "name": "AgentNotFound",
      "type": "error"
    },
    {
      "inputs": [
        {
          "internalType": "uint256",
          "name": "agentId",
          "type": "uint256"
        },
        {
          "internalType": "uint256",
          "name": "serviceId",
          "type": "uint256"
        }
      ],
      "name": "AgentNotInService",
      "type": "error"
    },
    {
      "inputs": [
        {
          "internalType": "uint256",
          "name": "componentId",
          "type": "uint256"
        }
      ],
      "name": "ComponentNotFound",
      "type": "error"
    },
    {
      "inputs": [],
      "name": "HashExists",
      "type": "error"
    },
    {
      "inputs": [
        {
          "internalType": "uint256",
          "name": "sent",
          "type": "uint256"
        },
        {
          "internalType": "uint256",
          "name": "expected",
          "type": "uint256"
        },
        {
          "internalType": "uint256",
          "name": "serviceId",
          "type": "uint256"
        }
      ],
      "name": "IncorrectAgentBondingValue",
      "type": "error"
    },
    {
      "inputs": [
        {
          "internalType": "uint256",
          "name": "sent",
          "type": "uint256"
        },
        {
          "internalType": "uint256",
          "name": "expected",
          "type": "uint256"
        },
        {
          "internalType": "uint256",
          "name": "serviceId",
          "type": "uint256"
        }
      ],
      "name": "IncorrectRegistrationDepositValue",
      "type": "error"
    },
    {
      "inputs": [
        {
          "internalType": "address",
          "name": "sender",
          "type": "address"
        },
        {
          "internalType": "address",
          "name": "manager",
          "type": "address"
        }
      ],
      "name": "ManagerOnly",
      "type": "error"
    },
    {
      "inputs": [
        {
          "internalType": "address",
          "name": "provided",
          "type": "address"
        },
        {
          "internalType": "address",
          "name": "expected",
          "type": "address"
        },
        {
          "internalType": "uint256",
          "name": "serviceId",
          "type": "uint256"
        }
      ],
      "name": "OnlyOwnServiceMultisig",
      "type": "error"
    },
    {
      "inputs": [
        {
          "internalType": "address",
          "name": "operator",
          "type": "address"
        },
        {
          "internalType": "uint256",
          "name": "serviceId",
          "type": "uint256"
        }
      ],
      "name": "OperatorHasNoInstances",
      "type": "error"
    },
    {
      "inputs": [
        {
          "internalType": "uint256",
          "name": "provided",
          "type": "uint256"
        },
        {
          "internalType": "uint256",
          "name": "max",
          "type": "uint256"
        }
      ],
      "name": "Overflow",
      "type": "error"
    },
    {
      "inputs": [
        {
          "internalType": "address",
          "name": "sender",
          "type": "address"
        },
        {
          "internalType": "address",
          "name": "owner",
          "type": "address"
        }
      ],
      "name": "OwnerOnly",
      "type": "error"
    },
    {
      "inputs": [],
      "name": "Paused",
      "type": "error"
    },
    {
      "inputs": [],
      "name": "ReentrancyGuard",
      "type": "error"
    },
    {
      "inputs": [
        {
          "internalType": "uint256",
          "name": "serviceId",
          "type": "uint256"
        }
      ],
      "name": "ServiceMustBeInactive",
      "type": "error"
    },
    {
      "inputs": [
        {
          "internalType": "address",
          "name": "token",
          "type": "address"
        },
        {
          "internalType": "address",
          "name": "from",
          "type": "address"
        },
        {
          "internalType": "address",
          "name": "to",
          "type": "address"
        },
        {
          "internalType": "uint256",
          "name": "value",
          "type": "uint256"
        }
      ],
      "name": "TransferFailed",
      "type": "error"
    },
    {
      "inputs": [
        {
          "internalType": "address",
          "name": "multisig",
          "type": "address"
        }
      ],
      "name": "UnauthorizedMultisig",
      "type": "error"
    },
    {
      "inputs": [
        {
          "internalType": "uint256",
          "name": "agentId",
          "type": "uint256"
        }
      ],
      "name": "WrongAgentId",
      "type": "error"
    },
    {
      "inputs": [
        {
          "internalType": "uint256",
          "name": "numValues1",
          "type": "uint256"
        },
        {
          "internalType": "uint256",
          "name": "numValues2",
          "type": "uint256"
        }
      ],
      "name": "WrongArrayLength",
      "type": "error"
    },
    {
      "inputs": [
        {
          "internalType": "uint256",
          "name": "serviceId",
          "type": "uint256"
        }
      ],
      "name": "WrongOperator",
      "type": "error"
    },
    {
      "inputs": [
        {
          "internalType": "uint256",
          "name": "state",
          "type": "uint256"
        },
        {
          "internalType": "uint256",
          "name": "serviceId",
          "type": "uint256"
        }
      ],
      "name": "WrongServiceState",
      "type": "error"
    },
    {
      "inputs": [
        {
          "internalType": "uint256",
          "name": "currentThreshold",
          "type": "uint256"
        },
        {
          "internalType": "uint256",
          "name": "minThreshold",
          "type": "uint256"
        },
        {
          "internalType": "uint256",
          "name": "maxThreshold",
          "type": "uint256"
        }
      ],
      "name": "WrongThreshold",
      "type": "error"
    },
    {
      "inputs": [],
      "name": "ZeroAddress",
      "type": "error"
    },
    {
      "inputs": [],
      "name": "ZeroValue",
      "type": "error"
    },
    {
      "anonymous": false,
      "inputs": [
        {
          "indexed": true,
          "internalType": "uint256",
          "name": "serviceId",
          "type": "uint256"
        }
      ],
      "name": "ActivateRegistration",
      "type": "event"
    },
    {
      "anonymous": false,
      "inputs": [
        {
          "indexed": true,
          "internalType": "address",
          "name": "owner",
          "type": "address"
        },
        {
          "indexed": true,
          "internalType": "address",
          "name": "spender",
          "type": "address"
        },
        {
          "indexed": true,
          "internalType": "uint256",
          "name": "id",
          "type": "uint256"
        }
      ],
      "name": "Approval",
      "type": "event"
    },
    {
      "anonymous": false,
      "inputs": [
        {
          "indexed": true,
          "internalType": "address",
          "name": "owner",
          "type": "address"
        },
        {
          "indexed": true,
          "internalType": "address",
          "name": "operator",
          "type": "address"
        },
        {
          "indexed": false,
          "internalType": "bool",
          "name": "approved",
          "type": "bool"
        }
      ],
      "name": "ApprovalForAll",
      "type": "event"
    },
    {
      "anonymous": false,
      "inputs": [
        {
          "indexed": false,
          "internalType": "string",
          "name": "baseURI",
          "type": "string"
        }
      ],
      "name": "BaseURIChanged",
      "type": "event"
    },
    {
      "anonymous": false,
      "inputs": [
        {
          "indexed": true,
          "internalType": "uint256",
          "name": "serviceId",
          "type": "uint256"
        },
        {
          "indexed": true,
          "internalType": "address",
          "name": "multisig",
          "type": "address"
        }
      ],
      "name": "CreateMultisigWithAgents",
      "type": "event"
    },
    {
      "anonymous": false,
      "inputs": [
        {
          "indexed": true,
          "internalType": "uint256",
          "name": "serviceId",
          "type": "uint256"
        }
      ],
      "name": "CreateService",
      "type": "event"
    },
    {
      "anonymous": false,
      "inputs": [
        {
          "indexed": true,
          "internalType": "uint256",
          "name": "serviceId",
          "type": "uint256"
        }
      ],
      "name": "DeployService",
      "type": "event"
    },
    {
      "anonymous": false,
      "inputs": [
        {
          "indexed": true,
          "internalType": "address",
          "name": "sender",
          "type": "address"
        },
        {
          "indexed": false,
          "internalType": "uint256",
          "name": "amount",
          "type": "uint256"
        }
      ],
      "name": "Deposit",
      "type": "event"
    },
    {
      "anonymous": false,
      "inputs": [
        {
          "indexed": true,
          "internalType": "address",
          "name": "drainer",
          "type": "address"
        },
        {
          "indexed": false,
          "internalType": "uint256",
          "name": "amount",
          "type": "uint256"
        }
      ],
      "name": "Drain",
      "type": "event"
    },
    {
      "anonymous": false,
      "inputs": [
        {
          "indexed": true,
          "internalType": "address",
          "name": "drainer",
          "type": "address"
        }
      ],
      "name": "DrainererUpdated",
      "type": "event"
    },
    {
      "anonymous": false,
      "inputs": [
        {
          "indexed": true,
          "internalType": "address",
          "name": "manager",
          "type": "address"
        }
      ],
      "name": "ManagerUpdated",
      "type": "event"
    },
    {
      "anonymous": false,
      "inputs": [
        {
          "indexed": false,
          "internalType": "uint256",
          "name": "amount",
          "type": "uint256"
        },
        {
          "indexed": true,
          "internalType": "address",
          "name": "operator",
          "type": "address"
        },
        {
          "indexed": true,
          "internalType": "uint256",
          "name": "serviceId",
          "type": "uint256"
        }
      ],
      "name": "OperatorSlashed",
      "type": "event"
    },
    {
      "anonymous": false,
      "inputs": [
        {
          "indexed": true,
          "internalType": "address",
          "name": "operator",
          "type": "address"
        },
        {
          "indexed": true,
          "internalType": "uint256",
          "name": "serviceId",
          "type": "uint256"
        }
      ],
      "name": "OperatorUnbond",
      "type": "event"
    },
    {
      "anonymous": false,
      "inputs": [
        {
          "indexed": true,
          "internalType": "address",
          "name": "owner",
          "type": "address"
        }
      ],
      "name": "OwnerUpdated",
      "type": "event"
    },
    {
      "anonymous": false,
      "inputs": [
        {
          "indexed": true,
          "internalType": "address",
          "name": "receiver",
          "type": "address"
        },
        {
          "indexed": false,
          "internalType": "uint256",
          "name": "amount",
          "type": "uint256"
        }
      ],
      "name": "Refund",
      "type": "event"
    },
    {
      "anonymous": false,
      "inputs": [
        {
          "indexed": true,
          "internalType": "address",
          "name": "operator",
          "type": "address"
        },
        {
          "indexed": true,
          "internalType": "uint256",
          "name": "serviceId",
          "type": "uint256"
        },
        {
          "indexed": true,
          "internalType": "address",
          "name": "agentInstance",
          "type": "address"
        },
        {
          "indexed": false,
          "internalType": "uint256",
          "name": "agentId",
          "type": "uint256"
        }
      ],
      "name": "RegisterInstance",
      "type": "event"
    },
    {
      "anonymous": false,
      "inputs": [
        {
          "indexed": true,
          "internalType": "uint256",
          "name": "serviceId",
          "type": "uint256"
        }
      ],
      "name": "TerminateService",
      "type": "event"
    },
    {
      "anonymous": false,
      "inputs": [
        {
          "indexed": true,
          "internalType": "address",
          "name": "from",
          "type": "address"
        },
        {
          "indexed": true,
          "internalType": "address",
          "name": "to",
          "type": "address"
        },
        {
          "indexed": true,
          "internalType": "uint256",
          "name": "id",
          "type": "uint256"
        }
      ],
      "name": "Transfer",
      "type": "event"
    },
    {
      "anonymous": false,
      "inputs": [
        {
          "indexed": true,
          "internalType": "uint256",
          "name": "serviceId",
          "type": "uint256"
        },
        {
          "indexed": false,
          "internalType": "bytes32",
          "name": "configHash",
          "type": "bytes32"
        }
      ],
      "name": "UpdateService",
      "type": "event"
    },
    {
      "inputs": [],
      "name": "VERSION",
      "outputs": [
        {
          "internalType": "string",
          "name": "",
          "type": "string"
        }
      ],
      "stateMutability": "view",
      "type": "function"
    },
    {
      "inputs": [
        {
          "internalType": "address",
          "name": "serviceOwner",
          "type": "address"
        },
        {
          "internalType": "uint256",
          "name": "serviceId",
          "type": "uint256"
        }
      ],
      "name": "activateRegistration",
      "outputs": [
        {
          "internalType": "bool",
          "name": "success",
          "type": "bool"
        }
      ],
      "stateMutability": "payable",
      "type": "function"
    },
    {
      "inputs": [],
      "name": "agentRegistry",
      "outputs": [
        {
          "internalType": "address",
          "name": "",
          "type": "address"
        }
      ],
      "stateMutability": "view",
      "type": "function"
    },
    {
      "inputs": [
        {
          "internalType": "address",
          "name": "spender",
          "type": "address"
        },
        {
          "internalType": "uint256",
          "name": "id",
          "type": "uint256"
        }
      ],
      "name": "approve",
      "outputs": [],
      "stateMutability": "nonpayable",
      "type": "function"
    },
    {
      "inputs": [
        {
          "internalType": "address",
          "name": "owner",
          "type": "address"
        }
      ],
      "name": "balanceOf",
      "outputs": [
        {
          "internalType": "uint256",
          "name": "",
          "type": "uint256"
        }
      ],
      "stateMutability": "view",
      "type": "function"
    },
    {
      "inputs": [],
      "name": "baseURI",
      "outputs": [
        {
          "internalType": "string",
          "name": "",
          "type": "string"
        }
      ],
      "stateMutability": "view",
      "type": "function"
    },
    {
      "inputs": [
        {
          "internalType": "address",
          "name": "newDrainer",
          "type": "address"
        }
      ],
      "name": "changeDrainer",
      "outputs": [],
      "stateMutability": "nonpayable",
      "type": "function"
    },
    {
      "inputs": [
        {
          "internalType": "address",
          "name": "newManager",
          "type": "address"
        }
      ],
      "name": "changeManager",
      "outputs": [],
      "stateMutability": "nonpayable",
      "type": "function"
    },
    {
      "inputs": [
        {
          "internalType": "address",
          "name": "multisig",
          "type": "address"
        },
        {
          "internalType": "bool",
          "name": "permission",
          "type": "bool"
        }
      ],
      "name": "changeMultisigPermission",
      "outputs": [
        {
          "internalType": "bool",
          "name": "success",
          "type": "bool"
        }
      ],
      "stateMutability": "nonpayable",
      "type": "function"
    },
    {
      "inputs": [
        {
          "internalType": "address",
          "name": "newOwner",
          "type": "address"
        }
      ],
      "name": "changeOwner",
      "outputs": [],
      "stateMutability": "nonpayable",
      "type": "function"
    },
    {
      "inputs": [
        {
          "internalType": "address",
          "name": "serviceOwner",
          "type": "address"
        },
        {
          "internalType": "bytes32",
          "name": "configHash",
          "type": "bytes32"
        },
        {
          "internalType": "uint32[]",
          "name": "agentIds",
          "type": "uint32[]"
        },
        {
          "components": [
            {
              "internalType": "uint32",
              "name": "slots",
              "type": "uint32"
            },
            {
              "internalType": "uint96",
              "name": "bond",
              "type": "uint96"
            }
          ],
          "internalType": "struct AgentParams[]",
          "name": "agentParams",
          "type": "tuple[]"
        },
        {
          "internalType": "uint32",
          "name": "threshold",
          "type": "uint32"
        }
      ],
      "name": "create",
      "outputs": [
        {
          "internalType": "uint256",
          "name": "serviceId",
          "type": "uint256"
        }
      ],
      "stateMutability": "nonpayable",
      "type": "function"
    },
    {
      "inputs": [
        {
          "internalType": "address",
          "name": "serviceOwner",
          "type": "address"
        },
        {
          "internalType": "uint256",
          "name": "serviceId",
          "type": "uint256"
        },
        {
          "internalType": "address",
          "name": "multisigImplementation",
          "type": "address"
        },
        {
          "internalType": "bytes",
          "name": "data",
          "type": "bytes"
        }
      ],
      "name": "deploy",
      "outputs": [
        {
          "internalType": "address",
          "name": "multisig",
          "type": "address"
        }
      ],
      "stateMutability": "nonpayable",
      "type": "function"
    },
    {
      "inputs": [],
      "name": "drain",
      "outputs": [
        {
          "internalType": "uint256",
          "name": "amount",
          "type": "uint256"
        }
      ],
      "stateMutability": "nonpayable",
      "type": "function"
    },
    {
      "inputs": [],
      "name": "drainer",
      "outputs": [
        {
          "internalType": "address",
          "name": "",
          "type": "address"
        }
      ],
      "stateMutability": "view",
      "type": "function"
    },
    {
      "inputs": [
        {
          "internalType": "uint256",
          "name": "unitId",
          "type": "uint256"
        }
      ],
      "name": "exists",
      "outputs": [
        {
          "internalType": "bool",
          "name": "",
          "type": "bool"
        }
      ],
      "stateMutability": "view",
      "type": "function"
    },
    {
      "inputs": [
        {
          "internalType": "uint256",
          "name": "serviceId",
          "type": "uint256"
        }
      ],
      "name": "getAgentInstances",
      "outputs": [
        {
          "internalType": "uint256",
          "name": "numAgentInstances",
          "type": "uint256"
        },
        {
          "internalType": "address[]",
          "name": "agentInstances",
          "type": "address[]"
        }
      ],
      "stateMutability": "view",
      "type": "function"
    },
    {
      "inputs": [
        {
          "internalType": "uint256",
          "name": "serviceId",
          "type": "uint256"
        }
      ],
      "name": "getAgentParams",
      "outputs": [
        {
          "internalType": "uint256",
          "name": "numAgentIds",
          "type": "uint256"
        },
        {
          "components": [
            {
              "internalType": "uint32",
              "name": "slots",
              "type": "uint32"
            },
            {
              "internalType": "uint96",
              "name": "bond",
              "type": "uint96"
            }
          ],
          "internalType": "struct AgentParams[]",
          "name": "agentParams",
          "type": "tuple[]"
        }
      ],
      "stateMutability": "view",
      "type": "function"
    },
    {
      "inputs": [
        {
          "internalType": "uint256",
          "name": "",
          "type": "uint256"
        }
      ],
      "name": "getApproved",
      "outputs": [
        {
          "internalType": "address",
          "name": "",
          "type": "address"
        }
      ],
      "stateMutability": "view",
      "type": "function"
    },
    {
      "inputs": [
        {
          "internalType": "uint256",
          "name": "serviceId",
          "type": "uint256"
        },
        {
          "internalType": "uint256",
          "name": "agentId",
          "type": "uint256"
        }
      ],
      "name": "getInstancesForAgentId",
      "outputs": [
        {
          "internalType": "uint256",
          "name": "numAgentInstances",
          "type": "uint256"
        },
        {
          "internalType": "address[]",
          "name": "agentInstances",
          "type": "address[]"
        }
      ],
      "stateMutability": "view",
      "type": "function"
    },
    {
      "inputs": [
        {
          "internalType": "address",
          "name": "operator",
          "type": "address"
        },
        {
          "internalType": "uint256",
          "name": "serviceId",
          "type": "uint256"
        }
      ],
      "name": "getOperatorBalance",
      "outputs": [
        {
          "internalType": "uint256",
          "name": "balance",
          "type": "uint256"
        }
      ],
      "stateMutability": "view",
      "type": "function"
    },
    {
      "inputs": [
        {
          "internalType": "uint256",
          "name": "serviceId",
          "type": "uint256"
        }
      ],
      "name": "getPreviousHashes",
      "outputs": [
        {
          "internalType": "uint256",
          "name": "numHashes",
          "type": "uint256"
        },
        {
          "internalType": "bytes32[]",
          "name": "configHashes",
          "type": "bytes32[]"
        }
      ],
      "stateMutability": "view",
      "type": "function"
    },
    {
      "inputs": [
        {
          "internalType": "uint256",
          "name": "serviceId",
          "type": "uint256"
        }
      ],
      "name": "getService",
      "outputs": [
        {
          "components": [
            {
              "internalType": "uint96",
              "name": "securityDeposit",
              "type": "uint96"
            },
            {
              "internalType": "address",
              "name": "multisig",
              "type": "address"
            },
            {
              "internalType": "bytes32",
              "name": "configHash",
              "type": "bytes32"
            },
            {
              "internalType": "uint32",
              "name": "threshold",
              "type": "uint32"
            },
            {
              "internalType": "uint32",
              "name": "maxNumAgentInstances",
              "type": "uint32"
            },
            {
              "internalType": "uint32",
              "name": "numAgentInstances",
              "type": "uint32"
            },
            {
              "internalType": "enum ServiceRegistry.ServiceState",
              "name": "state",
              "type": "uint8"
            },
            {
              "internalType": "uint32[]",
              "name": "agentIds",
              "type": "uint32[]"
            }
          ],
          "internalType": "struct ServiceRegistry.Service",
          "name": "service",
          "type": "tuple"
        }
      ],
      "stateMutability": "view",
      "type": "function"
    },
    {
      "inputs": [
        {
          "internalType": "enum IRegistry.UnitType",
          "name": "unitType",
          "type": "uint8"
        },
        {
          "internalType": "uint256",
          "name": "serviceId",
          "type": "uint256"
        }
      ],
      "name": "getUnitIdsOfService",
      "outputs": [
        {
          "internalType": "uint256",
          "name": "numUnitIds",
          "type": "uint256"
        },
        {
          "internalType": "uint32[]",
          "name": "unitIds",
          "type": "uint32[]"
        }
      ],
      "stateMutability": "view",
      "type": "function"
    },
    {
      "inputs": [
        {
          "internalType": "address",
          "name": "",
          "type": "address"
        },
        {
          "internalType": "address",
          "name": "",
          "type": "address"
        }
      ],
      "name": "isApprovedForAll",
      "outputs": [
        {
          "internalType": "bool",
          "name": "",
          "type": "bool"
        }
      ],
      "stateMutability": "view",
      "type": "function"
    },
    {
      "inputs": [],
      "name": "manager",
      "outputs": [
        {
          "internalType": "address",
          "name": "",
          "type": "address"
        }
      ],
      "stateMutability": "view",
      "type": "function"
    },
    {
      "inputs": [
        {
          "internalType": "address",
          "name": "",
          "type": "address"
        }
      ],
      "name": "mapAgentInstanceOperators",
      "outputs": [
        {
          "internalType": "address",
          "name": "",
          "type": "address"
        }
      ],
      "stateMutability": "view",
      "type": "function"
    },
    {
      "inputs": [
        {
          "internalType": "uint256",
          "name": "",
          "type": "uint256"
        },
        {
          "internalType": "uint256",
          "name": "",
          "type": "uint256"
        }
      ],
      "name": "mapConfigHashes",
      "outputs": [
        {
          "internalType": "bytes32",
          "name": "",
          "type": "bytes32"
        }
      ],
      "stateMutability": "view",
      "type": "function"
    },
    {
      "inputs": [
        {
          "internalType": "address",
          "name": "",
          "type": "address"
        }
      ],
      "name": "mapMultisigs",
      "outputs": [
        {
          "internalType": "bool",
          "name": "",
          "type": "bool"
        }
      ],
      "stateMutability": "view",
      "type": "function"
    },
    {
      "inputs": [
        {
          "internalType": "uint256",
          "name": "",
          "type": "uint256"
        },
        {
          "internalType": "uint256",
          "name": "",
          "type": "uint256"
        }
      ],
      "name": "mapOperatorAndServiceIdAgentInstances",
      "outputs": [
        {
          "internalType": "address",
          "name": "instance",
          "type": "address"
        },
        {
          "internalType": "uint32",
          "name": "agentId",
          "type": "uint32"
        }
      ],
      "stateMutability": "view",
      "type": "function"
    },
    {
      "inputs": [
        {
          "internalType": "uint256",
          "name": "",
          "type": "uint256"
        }
      ],
      "name": "mapOperatorAndServiceIdOperatorBalances",
      "outputs": [
        {
          "internalType": "uint96",
          "name": "",
          "type": "uint96"
        }
      ],
      "stateMutability": "view",
      "type": "function"
    },
    {
      "inputs": [
        {
          "internalType": "uint256",
          "name": "",
          "type": "uint256"
        },
        {
          "internalType": "uint256",
          "name": "",
          "type": "uint256"
        }
      ],
      "name": "mapServiceAndAgentIdAgentInstances",
      "outputs": [
        {
          "internalType": "address",
          "name": "",
          "type": "address"
        }
      ],
      "stateMutability": "view",
      "type": "function"
    },
    {
      "inputs": [
        {
          "internalType": "uint256",
          "name": "",
          "type": "uint256"
        }
      ],
      "name": "mapServiceAndAgentIdAgentParams",
      "outputs": [
        {
          "internalType": "uint32",
          "name": "slots",
          "type": "uint32"
        },
        {
          "internalType": "uint96",
          "name": "bond",
          "type": "uint96"
        }
      ],
      "stateMutability": "view",
      "type": "function"
    },
    {
      "inputs": [
        {
          "internalType": "uint256",
          "name": "",
          "type": "uint256"
        },
        {
          "internalType": "uint256",
          "name": "",
          "type": "uint256"
        }
      ],
      "name": "mapServiceIdSetAgentIds",
      "outputs": [
        {
          "internalType": "uint32",
          "name": "",
          "type": "uint32"
        }
      ],
      "stateMutability": "view",
      "type": "function"
    },
    {
      "inputs": [
        {
          "internalType": "uint256",
          "name": "",
          "type": "uint256"
        },
        {
          "internalType": "uint256",
          "name": "",
          "type": "uint256"
        }
      ],
      "name": "mapServiceIdSetComponentIds",
      "outputs": [
        {
          "internalType": "uint32",
          "name": "",
          "type": "uint32"
        }
      ],
      "stateMutability": "view",
      "type": "function"
    },
    {
      "inputs": [
        {
          "internalType": "uint256",
          "name": "",
          "type": "uint256"
        }
      ],
      "name": "mapServices",
      "outputs": [
        {
          "internalType": "uint96",
          "name": "securityDeposit",
          "type": "uint96"
        },
        {
          "internalType": "address",
          "name": "multisig",
          "type": "address"
        },
        {
          "internalType": "bytes32",
          "name": "configHash",
          "type": "bytes32"
        },
        {
          "internalType": "uint32",
          "name": "threshold",
          "type": "uint32"
        },
        {
          "internalType": "uint32",
          "name": "maxNumAgentInstances",
          "type": "uint32"
        },
        {
          "internalType": "uint32",
          "name": "numAgentInstances",
          "type": "uint32"
        },
        {
          "internalType": "enum ServiceRegistry.ServiceState",
          "name": "state",
          "type": "uint8"
        }
      ],
      "stateMutability": "view",
      "type": "function"
    },
    {
      "inputs": [],
      "name": "name",
      "outputs": [
        {
          "internalType": "string",
          "name": "",
          "type": "string"
        }
      ],
      "stateMutability": "view",
      "type": "function"
    },
    {
      "inputs": [],
      "name": "owner",
      "outputs": [
        {
          "internalType": "address",
          "name": "",
          "type": "address"
        }
      ],
      "stateMutability": "view",
      "type": "function"
    },
    {
      "inputs": [
        {
          "internalType": "uint256",
          "name": "id",
          "type": "uint256"
        }
      ],
      "name": "ownerOf",
      "outputs": [
        {
          "internalType": "address",
          "name": "owner",
          "type": "address"
        }
      ],
      "stateMutability": "view",
      "type": "function"
    },
    {
      "inputs": [
        {
          "internalType": "address",
          "name": "operator",
          "type": "address"
        },
        {
          "internalType": "uint256",
          "name": "serviceId",
          "type": "uint256"
        },
        {
          "internalType": "address[]",
          "name": "agentInstances",
          "type": "address[]"
        },
        {
          "internalType": "uint32[]",
          "name": "agentIds",
          "type": "uint32[]"
        }
      ],
      "name": "registerAgents",
      "outputs": [
        {
          "internalType": "bool",
          "name": "success",
          "type": "bool"
        }
      ],
      "stateMutability": "payable",
      "type": "function"
    },
    {
      "inputs": [
        {
          "internalType": "address",
          "name": "from",
          "type": "address"
        },
        {
          "internalType": "address",
          "name": "to",
          "type": "address"
        },
        {
          "internalType": "uint256",
          "name": "id",
          "type": "uint256"
        }
      ],
      "name": "safeTransferFrom",
      "outputs": [],
      "stateMutability": "nonpayable",
      "type": "function"
    },
    {
      "inputs": [
        {
          "internalType": "address",
          "name": "from",
          "type": "address"
        },
        {
          "internalType": "address",
          "name": "to",
          "type": "address"
        },
        {
          "internalType": "uint256",
          "name": "id",
          "type": "uint256"
        },
        {
          "internalType": "bytes",
          "name": "data",
          "type": "bytes"
        }
      ],
      "name": "safeTransferFrom",
      "outputs": [],
      "stateMutability": "nonpayable",
      "type": "function"
    },
    {
      "inputs": [
        {
          "internalType": "address",
          "name": "operator",
          "type": "address"
        },
        {
          "internalType": "bool",
          "name": "approved",
          "type": "bool"
        }
      ],
      "name": "setApprovalForAll",
      "outputs": [],
      "stateMutability": "nonpayable",
      "type": "function"
    },
    {
      "inputs": [
        {
          "internalType": "string",
          "name": "bURI",
          "type": "string"
        }
      ],
      "name": "setBaseURI",
      "outputs": [],
      "stateMutability": "nonpayable",
      "type": "function"
    },
    {
      "inputs": [
        {
          "internalType": "address[]",
          "name": "agentInstances",
          "type": "address[]"
        },
        {
          "internalType": "uint96[]",
          "name": "amounts",
          "type": "uint96[]"
        },
        {
          "internalType": "uint256",
          "name": "serviceId",
          "type": "uint256"
        }
      ],
      "name": "slash",
      "outputs": [
        {
          "internalType": "bool",
          "name": "success",
          "type": "bool"
        }
      ],
      "stateMutability": "nonpayable",
      "type": "function"
    },
    {
      "inputs": [],
      "name": "slashedFunds",
      "outputs": [
        {
          "internalType": "uint96",
          "name": "",
          "type": "uint96"
        }
      ],
      "stateMutability": "view",
      "type": "function"
    },
    {
      "inputs": [
        {
          "internalType": "bytes4",
          "name": "interfaceId",
          "type": "bytes4"
        }
      ],
      "name": "supportsInterface",
      "outputs": [
        {
          "internalType": "bool",
          "name": "",
          "type": "bool"
        }
      ],
      "stateMutability": "view",
      "type": "function"
    },
    {
      "inputs": [],
      "name": "symbol",
      "outputs": [
        {
          "internalType": "string",
          "name": "",
          "type": "string"
        }
      ],
      "stateMutability": "view",
      "type": "function"
    },
    {
      "inputs": [
        {
          "internalType": "address",
          "name": "serviceOwner",
          "type": "address"
        },
        {
          "internalType": "uint256",
          "name": "serviceId",
          "type": "uint256"
        }
      ],
      "name": "terminate",
      "outputs": [
        {
          "internalType": "bool",
          "name": "success",
          "type": "bool"
        },
        {
          "internalType": "uint256",
          "name": "refund",
          "type": "uint256"
        }
      ],
      "stateMutability": "nonpayable",
      "type": "function"
    },
    {
      "inputs": [
        {
          "internalType": "uint256",
          "name": "id",
          "type": "uint256"
        }
      ],
      "name": "tokenByIndex",
      "outputs": [
        {
          "internalType": "uint256",
          "name": "unitId",
          "type": "uint256"
        }
      ],
      "stateMutability": "view",
      "type": "function"
    },
    {
      "inputs": [
        {
          "internalType": "uint256",
          "name": "unitId",
          "type": "uint256"
        }
      ],
      "name": "tokenURI",
      "outputs": [
        {
          "internalType": "string",
          "name": "",
          "type": "string"
        }
      ],
      "stateMutability": "view",
      "type": "function"
    },
    {
      "inputs": [],
      "name": "totalSupply",
      "outputs": [
        {
          "internalType": "uint256",
          "name": "",
          "type": "uint256"
        }
      ],
      "stateMutability": "view",
      "type": "function"
    },
    {
      "inputs": [
        {
          "internalType": "address",
          "name": "from",
          "type": "address"
        },
        {
          "internalType": "address",
          "name": "to",
          "type": "address"
        },
        {
          "internalType": "uint256",
          "name": "id",
          "type": "uint256"
        }
      ],
      "name": "transferFrom",
      "outputs": [],
      "stateMutability": "nonpayable",
      "type": "function"
    },
    {
      "inputs": [
        {
          "internalType": "address",
          "name": "operator",
          "type": "address"
        },
        {
          "internalType": "uint256",
          "name": "serviceId",
          "type": "uint256"
        }
      ],
      "name": "unbond",
      "outputs": [
        {
          "internalType": "bool",
          "name": "success",
          "type": "bool"
        },
        {
          "internalType": "uint256",
          "name": "refund",
          "type": "uint256"
        }
      ],
      "stateMutability": "nonpayable",
      "type": "function"
    },
    {
      "inputs": [
        {
          "internalType": "address",
          "name": "serviceOwner",
          "type": "address"
        },
        {
          "internalType": "bytes32",
          "name": "configHash",
          "type": "bytes32"
        },
        {
          "internalType": "uint32[]",
          "name": "agentIds",
          "type": "uint32[]"
        },
        {
          "components": [
            {
              "internalType": "uint32",
              "name": "slots",
              "type": "uint32"
            },
            {
              "internalType": "uint96",
              "name": "bond",
              "type": "uint96"
            }
          ],
          "internalType": "struct AgentParams[]",
          "name": "agentParams",
          "type": "tuple[]"
        },
        {
          "internalType": "uint32",
          "name": "threshold",
          "type": "uint32"
        },
        {
          "internalType": "uint256",
          "name": "serviceId",
          "type": "uint256"
        }
      ],
      "name": "update",
      "outputs": [
        {
          "internalType": "bool",
          "name": "success",
          "type": "bool"
        }
      ],
      "stateMutability": "nonpayable",
      "type": "function"
    }
  ],
  "bytecode": "0x60a06040526001600a553480156200001657600080fd5b506040516200638d3803806200638d833981016040819052620000399162000160565b83836000620000498382620002a2565b506001620000588282620002a2565b50600891506200006b90508382620002a2565b506001600160a01b03166080525050600680546001600160a01b03191633179055506200036e565b634e487b7160e01b600052604160045260246000fd5b600082601f830112620000bb57600080fd5b81516001600160401b0380821115620000d857620000d862000093565b604051601f8301601f19908116603f0116810190828211818310171562000103576200010362000093565b816040528381526020925086838588010111156200012057600080fd5b600091505b8382101562000144578582018301518183018401529082019062000125565b83821115620001565760008385830101525b9695505050505050565b600080600080608085870312156200017757600080fd5b84516001600160401b03808211156200018f57600080fd5b6200019d88838901620000a9565b95506020870151915080821115620001b457600080fd5b620001c288838901620000a9565b94506040870151915080821115620001d957600080fd5b50620001e887828801620000a9565b606087015190935090506001600160a01b03811681146200020857600080fd5b939692955090935050565b600181811c908216806200022857607f821691505b6020821081036200024957634e487b7160e01b600052602260045260246000fd5b50919050565b601f8211156200029d57600081815260208120601f850160051c81016020861015620002785750805b601f850160051c820191505b81811015620002995782815560010162000284565b5050505b505050565b81516001600160401b03811115620002be57620002be62000093565b620002d681620002cf845462000213565b846200024f565b602080601f8311600181146200030e5760008415620002f55750858301515b600019600386901b1c1916600185901b17855562000299565b600085815260208120601f198616915b828110156200033f578886015182559484019460019091019084016200031e565b50858210156200035e5787850151600019600388901b60f8161c191681555b5050505050600190811b01905550565b608051615ff5620003986000396000818161043301528181613ff301526146680152615ff56000f3fe6080604052600436106103555760003560e01c80636f99f15c116101bb578063a5d059ca116100f7578063dff7672411610095578063ef0e239b1161006f578063ef0e239b14610b9a578063f908bc7714610bc7578063fbdeb3d714610be7578063ffa1ad7414610c0757600080fd5b8063dff7672414610b39578063e23f6fb414610b4c578063e985e9c514610b5f57600080fd5b8063b88d4fde116100d1578063b88d4fde14610ab9578063c87b56dd14610ad9578063cbf994f814610af9578063ccc9305d14610b1957600080fd5b8063a5d059ca14610a34578063a60e4c3c14610a6b578063a6f9dae114610a9957600080fd5b80638a2bd86f1161016457806395d89b411161013e57806395d89b41146109ca5780639890220b146109df578063a22cb465146109f4578063a3fbbaae14610a1457600080fd5b80638a2bd86f146109375780638da5cb5b1461097c57806392080b231461099c57600080fd5b806373b8b6a21161019557806373b8b6a2146108d757806382694b1d146108f757806386a2bdd41461091757600080fd5b80636f99f15c1461085357806370a0823114610873578063718934d81461089357600080fd5b806342144854116102955780634f6ccce7116102335780635e4507fa1161020d5780635e4507fa146107945780636352211e146107b457806363dd7615146107d45780636c0360eb1461083e57600080fd5b80634f6ccce71461072d57806355f804b31461074d57806357838e851461076d57600080fd5b8063481c6a751161026f578063481c6a75146106975780634d486f85146106b75780634eb780da146106d75780634f558e791461070d57600080fd5b8063421448541461059a5780634236aff8146105e857806342842e0e1461067757600080fd5b806317351f7e1161030257806321e4f7bb116102dc57806321e4f7bb146104f757806323b872dd14610525578063323e010714610545578063406f14ad1461057a57600080fd5b806317351f7e1461047557806318160ddd146104a55780631de286ba146104c957600080fd5b8063095ea7b311610333578063095ea7b3146103ff5780630d1cfcae1461042157806310c6aa191461045557600080fd5b806301ffc9a71461035a57806306fdde031461038f578063081812fc146103b1575b600080fd5b34801561036657600080fd5b5061037a610375366004614e9d565b610c50565b60405190151581526020015b60405180910390f35b34801561039b57600080fd5b506103a4610ced565b6040516103869190614f1d565b3480156103bd57600080fd5b506103e76103cc366004614f30565b6004602052600090815260409020546001600160a01b031681565b6040516001600160a01b039091168152602001610386565b34801561040b57600080fd5b5061041f61041a366004614f5e565b610d7b565b005b34801561042d57600080fd5b506103e77f000000000000000000000000000000000000000000000000000000000000000081565b34801561046157600080fd5b5061041f610470366004614f8a565b610e71565b34801561048157600080fd5b5061037a610490366004614f8a565b60146020526000908152604090205460ff1681565b3480156104b157600080fd5b506104bb60095481565b604051908152602001610386565b3480156104d557600080fd5b506104e96104e4366004614f30565b610f2a565b604051610386929190614fa7565b34801561050357600080fd5b5061051761051236600461500e565b611180565b604051610386929190615074565b34801561053157600080fd5b5061041f610540366004615095565b61126e565b34801561055157600080fd5b5061056561056036600461500e565b611463565b60405163ffffffff9091168152602001610386565b34801561058657600080fd5b5061056561059536600461500e565b6114ac565b3480156105a657600080fd5b506105d06105b5366004614f30565b6010602052600090815260409020546001600160601b031681565b6040516001600160601b039091168152602001610386565b3480156105f457600080fd5b50610664610603366004614f30565b6015602052600090815260409020805460018201546002909201546001600160601b03821692600160601b928390046001600160a01b031692909163ffffffff808216926401000000008304821692600160401b8104909216910460ff1687565b604051610386979695949392919061510e565b34801561068357600080fd5b5061041f610692366004615095565b6114c8565b3480156106a357600080fd5b506007546103e7906001600160a01b031681565b3480156106c357600080fd5b506105176106d2366004614f30565b6115ca565b3480156106e357600080fd5b506103e76106f2366004614f8a565b6011602052600090815260409020546001600160a01b031681565b34801561071957600080fd5b5061037a610728366004614f30565b61171c565b34801561073957600080fd5b506104bb610748366004614f30565b61173e565b34801561075957600080fd5b5061041f610768366004615231565b61179c565b34801561077957600080fd5b50600b546103e790600160601b90046001600160a01b031681565b3480156107a057600080fd5b506103e76107af36600461500e565b611845565b3480156107c057600080fd5b506103e76107cf366004614f30565b61187d565b3480156107e057600080fd5b5061081a6107ef366004614f30565b600e6020526000908152604090205463ffffffff81169064010000000090046001600160601b031682565b6040805163ffffffff90931683526001600160601b03909116602083015201610386565b34801561084a57600080fd5b506103a46118e2565b34801561085f57600080fd5b50600b546105d0906001600160601b031681565b34801561087f57600080fd5b506104bb61088e366004614f8a565b6118ef565b34801561089f57600080fd5b506108b36108ae36600461500e565b611963565b604080516001600160a01b03909316835263ffffffff909116602083015201610386565b3480156108e357600080fd5b5061037a6108f2366004615329565b6119a9565b34801561090357600080fd5b5061037a6109123660046153f3565b611e17565b34801561092357600080fd5b506104bb61093236600461500e565b611eb0565b34801561094357600080fd5b506104bb610952366004614f5e565b60a01b6001600160a01b03909116176000908152601060205260409020546001600160601b031690565b34801561098857600080fd5b506006546103e7906001600160a01b031681565b3480156109a857600080fd5b506109bc6109b7366004615431565b611ee1565b604051610386929190615489565b3480156109d657600080fd5b506103a461201c565b3480156109eb57600080fd5b506104bb612029565b348015610a0057600080fd5b5061041f610a0f3660046153f3565b612187565b348015610a2057600080fd5b5061041f610a2f366004614f8a565b6121f3565b348015610a4057600080fd5b50610a54610a4f366004614f5e565b6122a4565b604080519215158352602083019190915201610386565b348015610a7757600080fd5b50610a8b610a86366004614f30565b612759565b6040516103869291906154a2565b348015610aa557600080fd5b5061041f610ab4366004614f8a565b6127bd565b348015610ac557600080fd5b5061041f610ad43660046154f0565b61286e565b348015610ae557600080fd5b506103a4610af4366004614f30565b612960565b348015610b0557600080fd5b5061037a610b14366004615694565b612994565b348015610b2557600080fd5b50610a54610b34366004614f5e565b612f22565b61037a610b47366004615731565b6132b2565b61037a610b5a366004614f5e565b613918565b348015610b6b57600080fd5b5061037a610b7a3660046157b1565b600560209081526000928352604080842090915290825290205460ff1681565b348015610ba657600080fd5b50610bba610bb5366004614f30565b613ac9565b60405161038691906157df565b348015610bd357600080fd5b506103e7610be236600461587b565b613c49565b348015610bf357600080fd5b506104bb610c023660046158ef565b61413b565b348015610c1357600080fd5b506103a46040518060400160405280600581526020017f312e302e3000000000000000000000000000000000000000000000000000000081525081565b60007f01ffc9a7000000000000000000000000000000000000000000000000000000006001600160e01b031983161480610cb357507f80ac58cd000000000000000000000000000000000000000000000000000000006001600160e01b03198316145b80610ce757507f5b5e139f000000000000000000000000000000000000000000000000000000006001600160e01b03198316145b92915050565b60008054610cfa90615984565b80601f0160208091040260200160405190810160405280929190818152602001828054610d2690615984565b8015610d735780601f10610d4857610100808354040283529160200191610d73565b820191906000526020600020905b815481529060010190602001808311610d5657829003601f168201915b505050505081565b6000818152600260205260409020546001600160a01b031633811480610dc457506001600160a01b038116600090815260056020908152604080832033845290915290205460ff165b610e155760405162461bcd60e51b815260206004820152600e60248201527f4e4f545f415554484f52495a454400000000000000000000000000000000000060448201526064015b60405180910390fd5b60008281526004602052604080822080546001600160a01b0319166001600160a01b0387811691821790925591518593918516917f8c5be1e5ebec7d5bd14f71427d1e84f3dd0314c0f7b2291e5b200ac8c7c3b92591a4505050565b6006546001600160a01b03163314610eb15760065460405163521eb56d60e11b81523360048201526001600160a01b039091166024820152604401610e0c565b6001600160a01b038116610ed85760405163d92e233d60e01b815260040160405180910390fd5b600b80546001600160601b0316600160601b6001600160a01b038416908102919091179091556040517f059672006b254a7f3f2465fe5ec46521ca1418925631ae5a0d48a296c6d0971b90600090a250565b600081815260156020908152604080832081516101008101835281546001600160601b03811682526001600160a01b03600160601b918290041694820194909452600182015492810192909252600281015463ffffffff808216606085810191909152640100000000830482166080860152600160401b830490911660a0850152938593929160c084019160ff9104166005811115610fcb57610fcb6150d6565b6005811115610fdc57610fdc6150d6565b81526020016003820180548060200260200160405190810160405280929190818152602001828054801561105b57602002820191906000526020600020906000905b82829054906101000a900463ffffffff1663ffffffff168152602001906004019060208260030104928301926001038202915080841161101e5790505b50505050508152505090508060e001515192508267ffffffffffffffff81111561108757611087615169565b6040519080825280602002602001820160405280156110cc57816020015b60408051808201909152600080825260208201528152602001906001900390816110a55790505b50915060005b8381101561117957600085905060208360e0015183815181106110f7576110f76159be565b60209081029190910181015163ffffffff90811690921b929092176000818152600e845260409081902081518083019092525492831681526401000000009092046001600160601b031692820192909252845185908490811061115c5761115c6159be565b60200260200101819052505080611172906159ea565b90506110d2565b5050915091565b602081811b83176000818152600f909252604090912054906060908267ffffffffffffffff8111156111b4576111b4615169565b6040519080825280602002602001820160405280156111dd578160200160208202803683370190505b50915060005b83811015611265576000828152600f6020526040902080548290811061120b5761120b6159be565b9060005260206000200160009054906101000a90046001600160a01b031683828151811061123b5761123b6159be565b6001600160a01b03909216602092830291909101909101528061125d816159ea565b9150506111e3565b50509250929050565b6000818152600260205260409020546001600160a01b038481169116146112d75760405162461bcd60e51b815260206004820152600a60248201527f57524f4e475f46524f4d000000000000000000000000000000000000000000006044820152606401610e0c565b6001600160a01b03821661132d5760405162461bcd60e51b815260206004820152601160248201527f494e56414c49445f524543495049454e540000000000000000000000000000006044820152606401610e0c565b336001600160a01b038416148061136757506001600160a01b038316600090815260056020908152604080832033845290915290205460ff165b8061138857506000818152600460205260409020546001600160a01b031633145b6113d45760405162461bcd60e51b815260206004820152600e60248201527f4e4f545f415554484f52495a45440000000000000000000000000000000000006044820152606401610e0c565b6001600160a01b0380841660008181526003602090815260408083208054600019019055938616808352848320805460010190558583526002825284832080546001600160a01b03199081168317909155600490925284832080549092169091559251849392917fddf252ad1be2c89b69c2b068fc378daa952ba7f163c4a11628f55a4df523b3ef91a4505050565b6012602052816000526040600020818154811061147f57600080fd5b9060005260206000209060089182820401919006600402915091509054906101000a900463ffffffff1681565b6013602052816000526040600020818154811061147f57600080fd5b6114d383838361126e565b6001600160a01b0382163b156115c557604051630a85bd0160e11b8082523360048301526001600160a01b03858116602484015260448301849052608060648401526000608484015290919084169063150b7a029060a4016020604051808303816000875af115801561154a573d6000803e3d6000fd5b505050506040513d601f19601f8201168201806040525081019061156e9190615a03565b6001600160e01b031916146115c55760405162461bcd60e51b815260206004820152601060248201527f554e534146455f524543495049454e54000000000000000000000000000000006044820152606401610e0c565b505050565b600081815260156020908152604080832081516101008101835281546001600160601b03811682526001600160a01b03600160601b918290041694820194909452600182015492810192909252600281015463ffffffff808216606085810191909152640100000000830482166080860152600160401b830490911660a0850152938593929160c084019160ff910416600581111561166b5761166b6150d6565b600581111561167c5761167c6150d6565b8152602001600382018054806020026020016040519081016040528092919081815260200182805480156116fb57602002820191906000526020600020906000905b82829054906101000a900463ffffffff1663ffffffff16815260200190600401906020826003010492830192600103820291508084116116be5790505b50505050508152505090506117108185614433565b91508151925050915091565b60008082118015610ce75750600954611736906001615a20565b821092915050565b600061174b826001615a20565b9050600954811115611797576009546040517f7ae59685000000000000000000000000000000000000000000000000000000008152610e0c918391600401918252602082015260400190565b919050565b6006546001600160a01b031633146117dc5760065460405163521eb56d60e11b81523360048201526001600160a01b039091166024820152604401610e0c565b80516000036117fe57604051637c946ed760e01b815260040160405180910390fd5b600861180a8282615a7e565b507f5411e8ebf1636d9e83d5fc4900bf80cbac82e8790da2a4c94db4895e889eedf68160405161183a9190614f1d565b60405180910390a150565b600f602052816000526040600020818154811061186157600080fd5b6000918252602090912001546001600160a01b03169150829050565b6000818152600260205260409020546001600160a01b0316806117975760405162461bcd60e51b815260206004820152600a60248201527f4e4f545f4d494e544544000000000000000000000000000000000000000000006044820152606401610e0c565b60088054610cfa90615984565b60006001600160a01b0382166119475760405162461bcd60e51b815260206004820152600c60248201527f5a45524f5f4144445245535300000000000000000000000000000000000000006044820152606401610e0c565b506001600160a01b031660009081526003602052604090205490565b600d602052816000526040600020818154811061197f57600080fd5b6000918252602090912001546001600160a01b0381169250600160a01b900463ffffffff16905082565b600081815260156020908152604080832081516101008101835281546001600160601b0381168252600160601b908190046001600160a01b031694820194909452600182015492810192909252600281015463ffffffff8082166060850152640100000000820481166080850152600160401b82041660a0840152849360c08401910460ff166005811115611a4057611a406150d6565b6005811115611a5157611a516150d6565b815260200160038201805480602002602001604051908101604052809291908181526020018280548015611ad057602002820191906000526020600020906000905b82829054906101000a900463ffffffff1663ffffffff1681526020019060040190602082600301049283019260010382029150808411611a935790505b505050505081525050905060046005811115611aee57611aee6150d6565b8160c001516005811115611b0457611b046150d6565b14611b43578060c001516005811115611b1f57611b1f6150d6565b604051633c053f9d60e21b8152600481019190915260248101849052604401610e0c565b8351855114611b7257845184516040516308151c1160e41b815260048101929092526024820152604401610e0c565b80602001516001600160a01b0316336001600160a01b031614611bdf5760208101516040517f79f91cd30000000000000000000000000000000000000000000000000000000081523360048201526001600160a01b03909116602482015260448101849052606401610e0c565b845160005b81811015611e0a57600060116000898481518110611c0457611c046159be565b6020908102919091018101516001600160a01b03908116835282820193909352604091820160009081205490931660a08a901b81178085526010909252919092205489519193506001600160601b03169081908a9086908110611c6957611c696159be565b60200260200101516001611c7d9190615b3e565b6001600160601b03161115611cd757600b8054829190600090611caa9084906001600160601b0316615b3e565b92506101000a8154816001600160601b0302191690836001600160601b0316021790555060009050611d5b565b888481518110611ce957611ce96159be565b6020908102919091010151600b8054600090611d0f9084906001600160601b0316615b3e565b92506101000a8154816001600160601b0302191690836001600160601b03160217905550888481518110611d4557611d456159be565b602002602001015181611d589190615b69565b90505b600082815260106020526040902080546bffffffffffffffffffffffff19166001600160601b038316179055885188906001600160a01b038516907fa2e524bd0f71903485fbb3d6d50cb305f61005ceea2047c3ac92aa7e0d104306908c9088908110611dca57611dca6159be565b6020026020010151604051611dee91906001600160601b0391909116815260200190565b60405180910390a350505080611e03906159ea565b9050611be4565b5060019695505050505050565b6006546000906001600160a01b03163314611e5a5760065460405163521eb56d60e11b81523360048201526001600160a01b039091166024820152604401610e0c565b6001600160a01b038316611e815760405163d92e233d60e01b815260040160405180910390fd5b506001600160a01b03919091166000908152601460205260409020805460ff1916911515919091179055600190565b600c6020528160005260406000208181548110611ecc57600080fd5b90600052602060002001600091509150505481565b6000606081846001811115611ef857611ef86150d6565b03611f895760008381526012602090815260409182902080548351818402810184019094528084529091830182828015611f7d57602002820191906000526020600020906000905b82829054906101000a900463ffffffff1663ffffffff1681526020019060040190602082600301049283019260010382029150808411611f405790505b50505050509050612011565b6000838152601360209081526040918290208054835181840281018401909452808452909183018282801561200957602002820191906000526020600020906000905b82829054906101000a900463ffffffff1663ffffffff1681526020019060040190602082600301049283019260010382029150808411611fcc5790505b505050505090505b805191509250929050565b60018054610cfa90615984565b60006001600a54111561204f576040516345f5ce8b60e11b815260040160405180910390fd5b6002600a55600b54600160601b90046001600160a01b031633146120a157600b5460405163312d21ff60e11b8152336004820152600160601b9091046001600160a01b03166024820152604401610e0c565b50600b546001600160601b0316801561217f57600b80546bffffffffffffffffffffffff19169055604051600090339083908381818185875af1925050503d806000811461210b576040519150601f19603f3d011682016040523d82523d6000602084013e612110565b606091505b50509050806121485760405163cd3f165960e01b81526000600482015230602482015233604482015260648101839052608401610e0c565b60405182815233907ff36f4d6622e16a536bbb049064af779cdd483a0b388d347d3752a65f1058bf5b9060200160405180910390a2505b6001600a5590565b3360008181526005602090815260408083206001600160a01b03871680855290835292819020805460ff191686151590811790915590519081529192917f17307eab39ab6107e8899845ad3d59bd9653f200f220920489ca2b5937696c31910160405180910390a35050565b6006546001600160a01b031633146122335760065460405163521eb56d60e11b81523360048201526001600160a01b039091166024820152604401610e0c565b6001600160a01b03811661225a5760405163d92e233d60e01b815260040160405180910390fd5b600780546001600160a01b0319166001600160a01b0383169081179091556040517f2c1c11af44aa5608f1dca38c00275c30ea091e02417d36e70e9a1538689c433d90600090a250565b6000806001600a5411156122cb576040516345f5ce8b60e11b815260040160405180910390fd5b6002600a556007546001600160a01b031633146123105760075460405163312d21ff60e11b81523360048201526001600160a01b039091166024820152604401610e0c565b6001600160a01b0384166123375760405163d92e233d60e01b815260040160405180910390fd5b600083815260156020526040902060056002820154600160601b900460ff166005811115612367576123676150d6565b146123b0576002810154600160601b900460ff16600581111561238c5761238c6150d6565b604051633c053f9d60e21b8152600481019190915260248101859052604401610e0c565b60a084901b6001600160a01b038616176000818152600d6020908152604080832080548251818502810185019093528083529192909190849084015b8282101561243857600084815260209081902060408051808201909152908401546001600160a01b0381168252600160a01b900463ffffffff16818301528252600190920191016123ec565b505082519293505050600081900361248e576040517fdf2ddd730000000000000000000000000000000000000000000000000000000081526001600160a01b038916600482015260248101889052604401610e0c565b808460020160088282829054906101000a900463ffffffff166124b19190615b91565b92506101000a81548163ffffffff021916908363ffffffff1602179055508360020160089054906101000a900463ffffffff1663ffffffff166000036125075760028401805460ff60601b1916600160601b1790555b60005b818110156125cf576000889050602084838151811061252b5761252b6159be565b60209081029190910181015181015163ffffffff1690911b919091176000818152600e9092526040909120546125729064010000000090046001600160601b031688615a20565b96506011600085848151811061258a5761258a6159be565b602090810291909101810151516001600160a01b0316825281019190915260400160002080546001600160a01b031916905550806125c7816159ea565b91505061250a565b506000838152600d602052604081206125e791614cda565b6000838152601060205260409020546001600160601b03168086111561261457806001600160601b031695505b851561270d5760008481526010602052604080822080546bffffffffffffffffffffffff19169055516001600160a01b038b169088908381818185875af1925050503d8060008114612682576040519150601f19603f3d011682016040523d82523d6000602084013e612687565b606091505b50509050806126c85760405163cd3f165960e01b8152600060048201523060248201526001600160a01b038b16604482015260648101889052608401610e0c565b896001600160a01b03167fbb28353e4598c3b9199101a66e0989549b659a59a54d2c27fbb183f1932c8e6d8860405161270391815260200190565b60405180910390a2505b60405188906001600160a01b038b16907f5ebf7fe30be09f0f03b9195632508d95c8b67bf010c93abda67f70d5d9599d1e90600090a350506001600a8190559793965092945050505050565b6000818152600c6020908152604080832080548251818502810185019093528083526060938301828280156127ad57602002820191906000526020600020905b815481526020019060010190808311612799575b5050505050905080519150915091565b6006546001600160a01b031633146127fd5760065460405163521eb56d60e11b81523360048201526001600160a01b039091166024820152604401610e0c565b6001600160a01b0381166128245760405163d92e233d60e01b815260040160405180910390fd5b600680546001600160a01b0319166001600160a01b0383169081179091556040517f4ffd725fc4a22075e9ec71c59edf9c38cdeb588a91b24fc5b61388c5be41282b90600090a250565b61287985858561126e565b6001600160a01b0384163b1561295957604051630a85bd0160e11b808252906001600160a01b0386169063150b7a02906128bf9033908a90899089908990600401615bae565b6020604051808303816000875af11580156128de573d6000803e3d6000fd5b505050506040513d601f19601f820116820180604052508101906129029190615a03565b6001600160e01b031916146129595760405162461bcd60e51b815260206004820152601060248201527f554e534146455f524543495049454e54000000000000000000000000000000006044820152606401610e0c565b5050505050565b6060600861296d83614584565b60405160200161297e929190615c02565b6040516020818303038152906040529050919050565b6007546000906001600160a01b031633146129d75760075460405163312d21ff60e11b81523360048201526001600160a01b039091166024820152604401610e0c565b60006129e28361187d565b9050876001600160a01b0316816001600160a01b031614612a295760405163521eb56d60e11b81526001600160a01b03808a16600483015282166024820152604401610e0c565b600083815260156020908152604080832081516101008101835281546001600160601b03811682526001600160a01b03600160601b918290041694820194909452600182015492810192909252600281015463ffffffff8082166060850152640100000000820481166080850152600160401b82041660a08401529192909160c084019160ff9104166005811115612ac357612ac36150d6565b6005811115612ad457612ad46150d6565b815260200160038201805480602002602001604051908101604052809291908181526020018280548015612b5357602002820191906000526020600020906000905b82829054906101000a900463ffffffff1663ffffffff1681526020019060040190602082600301049283019260010382029150808411612b165790505b505050505081525050905060016005811115612b7157612b716150d6565b8160c001516005811115612b8757612b876150d6565b14612ba2578060c00151600581111561238c5761238c6150d6565b612bad888888614607565b63ffffffff85166060820152600060808201819052875167ffffffffffffffff811115612bdc57612bdc615169565b604051908082528060200260200182016040528015612c05578160200160208202803683370190505b5090506000885167ffffffffffffffff811115612c2457612c24615169565b604051908082528060200260200182016040528015612c6957816020015b6040805180820190915260008082526020820152815260200190600190039081612c425790505b5090506000805b8a51811015612d9e57898181518110612c8b57612c8b6159be565b60200260200101516000015163ffffffff16600003612d0057600088905060208c8381518110612cbd57612cbd6159be565b60209081029190910181015163ffffffff1690911b919091176000908152600e9091526040902080546fffffffffffffffffffffffffffffffff19169055612d8c565b8a8181518110612d1257612d126159be565b6020026020010151848381518110612d2c57612d2c6159be565b602002602001019063ffffffff16908163ffffffff1681525050898181518110612d5857612d586159be565b6020026020010151838381518110612d7257612d726159be565b60200260200101819052508180612d88906159ea565b9250505b80612d96816159ea565b915050612c70565b5060408401518b8114612dd5576000888152600c602090815260408083208054600181018255908452919092200182905585018c90525b612de2858585858c6147e7565b6000888152601560209081526040918290208751918801516001600160a01b0316600160601b9081026001600160601b03909316929092178155918701516001830155606087015160028301805460808a015160a08b015163ffffffff908116600160401b026bffffffff0000000000000000199282166401000000000267ffffffffffffffff199094169190951617919091179081168317825560c08a01518a9594909360ff60601b19166cffffffffff0000000000000000199092169190911790836005811115612eb757612eb76150d6565b021790555060e08201518051612ed7916003840191602090910190614cfb565b50506040518d81528991507fff312ce131c4d73ac90ece91266be7090486c5e15f78b7ea2b108c36dfd475299060200160405180910390a25060019c9b505050505050505050505050565b6000806001600a541115612f49576040516345f5ce8b60e11b815260040160405180910390fd5b6002600a556007546001600160a01b03163314612f8e5760075460405163312d21ff60e11b81523360048201526001600160a01b039091166024820152604401610e0c565b6000612f998461187d565b9050846001600160a01b0316816001600160a01b031614612fe05760405163521eb56d60e11b81526001600160a01b03808716600483015282166024820152604401610e0c565b600084815260156020526040902060016002820154600160601b900460ff166005811115613010576130106150d6565b148061303b575060056002820154600160601b900460ff166005811115613039576130396150d6565b145b15613084576002810154600160601b900460ff166005811115613060576130606150d6565b604051633c053f9d60e21b8152600481019190915260248101869052604401610e0c565b6002810154600160401b900463ffffffff16156130be5760028101805460ff60601b19166c050000000000000000000000001790556130d4565b60028101805460ff60601b1916600160601b1790555b60008581526012602052604081206130eb91614daa565b600085815260136020526040812061310291614daa565b60005b600382015481101561318f576000869050602083600301838154811061312d5761312d6159be565b90600052602060002090600891828204019190066004029054906101000a900463ffffffff1663ffffffff16901b81179050600f6000828152602001908152602001600020600061317e9190614dcf565b50613188816159ea565b9050613105565b5080546040516001600160601b0390911693506000906001600160a01b0388169085908381818185875af1925050503d80600081146131ea576040519150601f19603f3d011682016040523d82523d6000602084013e6131ef565b606091505b50509050806132305760405163cd3f165960e01b8152600060048201523060248201526001600160a01b038816604482015260648101859052608401610e0c565b866001600160a01b03167fbb28353e4598c3b9199101a66e0989549b659a59a54d2c27fbb183f1932c8e6d8560405161326b91815260200190565b60405180910390a260405186907fe45f5b9540df4f71b7e044809fa318806328c1ea2388a70c7373d97ccf8a0faa90600090a250506001600a819055959194509092505050565b6007546000906001600160a01b031633146132f55760075460405163312d21ff60e11b81523360048201526001600160a01b039091166024820152604401610e0c565b815183511461332457825182516040516308151c1160e41b815260048101929092526024820152604401610e0c565b6000848152601560205260409020600280820154600160601b900460ff166005811115613353576133536150d6565b14613378576002810154600160601b900460ff166005811115613060576130606150d6565b83516000805b82811015613486576000889050602087838151811061339f5761339f6159be565b60209081029190910181015163ffffffff90811690921b929092176000818152600e845260408082208151808301909252549384168082526401000000009094046001600160601b03169481019490945290929190036134595787838151811061340b5761340b6159be565b60200260200101518a6040517fca0caf94000000000000000000000000000000000000000000000000000000008152600401610e0c92919063ffffffff929092168252602082015260400190565b6020810151613471906001600160601b031685615a20565b935050508061347f906159ea565b905061337e565b508034146134d0576040517ffd7795720000000000000000000000000000000000000000000000000000000081523460048201526024810182905260448101889052606401610e0c565b6001600160a01b03888116600090815260116020526040902054161561350c576040516322ddebd960e21b815260048101889052602401610e0c565b60a087901b6001600160a01b0389161760005b8381101561383957600088828151811061353b5761353b6159be565b602002602001015190506000888381518110613559576135596159be565b60200260200101519050816001600160a01b03168c6001600160a01b031603613598576040516322ddebd960e21b8152600481018c9052602401610e0c565b6001600160a01b038281166000908152601160205260409020541615613608576001600160a01b03828116600090815260116020526040908190205490517f631695bd00000000000000000000000000000000000000000000000000000000815291166004820152602401610e0c565b60008b905060208a8581518110613621576136216159be565b60209081029190910181015163ffffffff90811690921b929092176000818152600e8452604080822054600f90955290205490929091169003613693576040517f12b4401c000000000000000000000000000000000000000000000000000000008152600481018d9052602401610e0c565b6000818152600f602090815260408083208054600181810183559185528385200180546001600160a01b03808a166001600160a01b031990921682179092558a8652600d8552838620845180860190955290845263ffffffff8089168587019081528254948501835591875294909520925192909101805494518416600160a01b027fffffffffffffffff000000000000000000000000000000000000000000000000909516929091169190911792909217909155600289018054600160401b900490911690600861376483615c80565b91906101000a81548163ffffffff021916908363ffffffff160217905550508c60116000856001600160a01b03166001600160a01b0316815260200190815260200160002060006101000a8154816001600160a01b0302191690836001600160a01b03160217905550826001600160a01b03168c8e6001600160a01b03167f6835389a6da5341647f18cbe0a89c56f473f4c17bfaee6e6d07d61f1928e0b7c8560405161381d919063ffffffff91909116815260200190565b60405180910390a450505080613832906159ea565b905061351f565b50600284015463ffffffff64010000000082048116600160401b909204160361387b5760028401805460ff60601b19166c030000000000000000000000001790555b600081815260106020526040812080543492906138a29084906001600160601b0316615b3e565b92506101000a8154816001600160601b0302191690836001600160601b03160217905550886001600160a01b03167fe1fffcc4923d04b559f4d29a8bfc6cda04eb5b0d3c460751c2402c5c5cc9109c3460405161390191815260200190565b60405180910390a250600198975050505050505050565b6007546000906001600160a01b0316331461395b5760075460405163312d21ff60e11b81523360048201526001600160a01b039091166024820152604401610e0c565b60006139668361187d565b9050836001600160a01b0316816001600160a01b0316146139ad5760405163521eb56d60e11b81526001600160a01b03808616600483015282166024820152604401610e0c565b600083815260156020526040902060016002820154600160601b900460ff1660058111156139dd576139dd6150d6565b14613a17576040517fb2c1a45e00000000000000000000000000000000000000000000000000000000815260048101859052602401610e0c565b80546001600160601b03163414613a755780546040517fe1855dd80000000000000000000000000000000000000000000000000000000081523460048201526001600160601b03909116602482015260448101859052606401610e0c565b60028101805460ff60601b19166c0200000000000000000000000017905560405184907fa48b531f972c0e4aca57afcc5c099c52a7bd21bc5e2a1b733eec3be9e88da97a90600090a2506001949350505050565b613b116040805161010081018252600080825260208201819052918101829052606081018290526080810182905260a081018290529060c08201908152602001606081525090565b60008281526015602090815260409182902082516101008101845281546001600160601b0381168252600160601b908190046001600160a01b031693820193909352600182015493810193909352600281015463ffffffff8082166060860152640100000000820481166080860152600160401b82041660a0850152909160c08401910460ff166005811115613ba957613ba96150d6565b6005811115613bba57613bba6150d6565b815260200160038201805480602002602001604051908101604052809291908181526020018280548015613c3957602002820191906000526020600020906000905b82829054906101000a900463ffffffff1663ffffffff1681526020019060040190602082600301049283019260010382029150808411613bfc5790505b5050505050815250509050919050565b60006001600a541115613c6f576040516345f5ce8b60e11b815260040160405180910390fd5b6002600a556007546001600160a01b03163314613cb45760075460405163312d21ff60e11b81523360048201526001600160a01b039091166024820152604401610e0c565b6000613cbf8561187d565b9050856001600160a01b0316816001600160a01b031614613d065760405163521eb56d60e11b81526001600160a01b03808816600483015282166024820152604401610e0c565b6001600160a01b03841660009081526014602052604090205460ff16613d63576040517f14460f200000000000000000000000000000000000000000000000000000000081526001600160a01b0385166004820152602401610e0c565b600085815260156020526040902060036002820154600160601b900460ff166005811115613d9357613d936150d6565b14613ddc576002810154600160601b900460ff166005811115613db857613db86150d6565b604051633c053f9d60e21b8152600481019190915260248101879052604401610e0c565b604080516101008101825282546001600160601b0381168252600160601b908190046001600160a01b03166020830152600184015492820192909252600283015463ffffffff8082166060840152640100000000820481166080840152600160401b82041660a0830152600092613f099291859160c08401910460ff166005811115613e6a57613e6a6150d6565b6005811115613e7b57613e7b6150d6565b815260200160038201805480602002602001604051908101604052809291908181526020018280548015613efa57602002820191906000526020600020906000905b82829054906101000a900463ffffffff1663ffffffff1681526020019060040190602082600301049283019260010382029150808411613ebd5790505b50505050508152505088614433565b60028301546040517ff398dba80000000000000000000000000000000000000000000000000000000081529192506001600160a01b0388169163f398dba891613f5f91859163ffffffff16908a90600401615ca3565b6020604051808303816000875af1158015613f7e573d6000803e3d6000fd5b505050506040513d601f19601f82011682018060405250810190613fa29190615cde565b6000888152601360205260409020600384018054929650613fc292614ded565b506040517f09b3b87e0000000000000000000000000000000000000000000000000000000081526001600160a01b037f000000000000000000000000000000000000000000000000000000000000000016906309b3b87e9061402b906003860190600401615cfb565b600060405180830381865afa158015614048573d6000803e3d6000fd5b505050506040513d6000823e601f3d908101601f191682016040526140709190810190615e83565b600088815260126020908152604090912082516140939391929190910190614cfb565b5081546001600160601b0316600160601b6001600160a01b03861690810291909117835560028301805460ff60601b19166c0400000000000000000000000017905560405188907f2d53f895cd5faf3cddba94a25c2ced2105885b5b37450ff430ffa3cbdf332c7490600090a360405187907fa133ed72c03a7d008deaae618a61613c4fd41c67bba1cad1a6bc0a1c5a9c156e90600090a250506001600a5550949350505050565b60006001600a541115614161576040516345f5ce8b60e11b815260040160405180910390fd5b6002600a556007546001600160a01b031633146141a65760075460405163312d21ff60e11b81523360048201526001600160a01b039091166024820152604401610e0c565b6001600160a01b0386166141cd5760405163d92e233d60e01b815260040160405180910390fd5b6141d8858585614607565b60005b845181101561426c578381815181106141f6576141f66159be565b60200260200101516000015163ffffffff166000148061423c5750838181518110614223576142236159be565b6020026020010151602001516001600160601b03166000145b1561425a57604051637c946ed760e01b815260040160405180910390fd5b80614264816159ea565b9150506141db565b50506009548061427b816159ea565b9150506142c66040805161010081018252600080825260208201819052918101829052606081018290526080810182905260a081018290529060c08201908152602001606081525090565b63ffffffff8316606082015260408101869052600160c0820181815250506142f28186868851866147e7565b6000828152601560209081526040918290208351918401516001600160a01b0316600160601b9081026001600160601b039093169290921781559183015160018301556060830151600283018054608086015160a087015163ffffffff908116600160401b026bffffffff0000000000000000199282166401000000000267ffffffffffffffff199094169190951617919091179081168317825560c0860151869594909360ff60601b19166cffffffffff00000000000000001990921691909117908360058111156143c7576143c76150d6565b021790555060e082015180516143e7916003840191602090910190614cfb565b50505060098290556143f98783614ab7565b60405182907f9169d45eacd63571e315a0504da919b7c89de505493e7b34051802dd0816a06990600090a2506001600a5595945050505050565b60608260a0015163ffffffff1667ffffffffffffffff81111561445857614458615169565b604051908082528060200260200182016040528015614481578160200160208202803683370190505b5090506000805b8460e001515181101561457c57600084905060208660e0015183815181106144b2576144b26159be565b602002602001015163ffffffff16901b8117905060005b6000828152600f6020526040902054811015614567576000828152600f602052604090208054829081106144ff576144ff6159be565b9060005260206000200160009054906101000a90046001600160a01b031685858151811061452f5761452f6159be565b6001600160a01b039092166020928302919091019091015283614551816159ea565b945050808061455f906159ea565b9150506144c9565b50508080614574906159ea565b915050614488565b505092915050565b6060816000036145c757505060408051808201909152600181527f3000000000000000000000000000000000000000000000000000000000000000602082015290565b604e6040519150808252608082016040525b82156145f857600a8084066030018284015290920491600019016145d9565b604e8190039101908152919050565b600083900361462957604051637c946ed760e01b815260040160405180910390fd5b8151158061463957508051825114155b1561466457815181516040516308151c1160e41b815260048101929092526024820152604401610e0c565b60007f00000000000000000000000000000000000000000000000000000000000000006001600160a01b03166318160ddd6040518163ffffffff1660e01b8152600401602060405180830381865afa1580156146c4573d6000803e3d6000fd5b505050506040513d601f19601f820116820180604052508101906146e89190615f1d565b90506000805b84518110156147df57614702826001615a20565b858281518110614714576147146159be565b602002602001015163ffffffff16108061474c57508285828151811061473c5761473c6159be565b602002602001015163ffffffff16115b156147aa57848181518110614763576147636159be565b60200260200101516040517faac42c2c000000000000000000000000000000000000000000000000000000008152600401610e0c919063ffffffff91909116815260200190565b8481815181106147bc576147bc6159be565b602002602001015163ffffffff16915080806147d7906159ea565b9150506146ee565b505050505050565b60008267ffffffffffffffff81111561480257614802615169565b60405190808252806020026020018201604052801561482b578160200160208202803683370190505b5060e087015260005b838110156149bb5785818151811061484e5761484e6159be565b60200260200101518760e00151828151811061486c5761486c6159be565b63ffffffff9092166020928302919091018201528651849190889084908110614897576148976159be565b602002602001015163ffffffff16901b811790508582815181106148bd576148bd6159be565b6020908102919091018101516000838152600e8352604090208151815492909301516001600160601b0316640100000000026fffffffffffffffffffffffffffffffff1990921663ffffffff909316929092171790558551869083908110614927576149276159be565b602002602001015160000151886080018181516149449190615f36565b63ffffffff1690525085516001600160601b0384169087908490811061496c5761496c6159be565b6020026020010151602001516001600160601b031611156149a857858281518110614999576149996159be565b60200260200101516020015192505b50806149b3816159ea565b915050614834565b506001600160601b038116865260808601516000906149db906002615f55565b6149e6906001615f36565b63ffffffff1690506149f9600382615f97565b600003614a1257614a0b600382615fab565b9050614a2b565b614a1d600382615fab565b614a28906001615a20565b90505b80876060015163ffffffff161080614a565750866080015163ffffffff16876060015163ffffffff16115b15614aae57606087015160808801516040517feb3a8ba300000000000000000000000000000000000000000000000000000000815263ffffffff92831660048201526024810184905291166044820152606401610e0c565b50505050505050565b614ac18282614bb4565b6001600160a01b0382163b15614bb057604051630a85bd0160e11b80825233600483015260006024830181905260448301849052608060648401526084830152906001600160a01b0384169063150b7a029060a4016020604051808303816000875af1158015614b35573d6000803e3d6000fd5b505050506040513d601f19601f82011682018060405250810190614b599190615a03565b6001600160e01b03191614614bb05760405162461bcd60e51b815260206004820152601060248201527f554e534146455f524543495049454e54000000000000000000000000000000006044820152606401610e0c565b5050565b6001600160a01b038216614c0a5760405162461bcd60e51b815260206004820152601160248201527f494e56414c49445f524543495049454e540000000000000000000000000000006044820152606401610e0c565b6000818152600260205260409020546001600160a01b031615614c6f5760405162461bcd60e51b815260206004820152600e60248201527f414c52454144595f4d494e5445440000000000000000000000000000000000006044820152606401610e0c565b6001600160a01b038216600081815260036020908152604080832080546001019055848352600290915280822080546001600160a01b0319168417905551839291907fddf252ad1be2c89b69c2b068fc378daa952ba7f163c4a11628f55a4df523b3ef908290a45050565b5080546000825590600052602060002090810190614cf89190614e3b565b50565b82805482825590600052602060002090600701600890048101928215614d9a5791602002820160005b83821115614d6857835183826101000a81548163ffffffff021916908363ffffffff1602179055509260200192600401602081600301049283019260010302614d24565b8015614d985782816101000a81549063ffffffff0219169055600401602081600301049283019260010302614d68565b505b50614da6929150614e72565b5090565b508054600082556007016008900490600052602060002090810190614cf89190614e72565b5080546000825590600052602060002090810190614cf89190614e72565b82805482825590600052602060002090600701600890048101928215614d9a576000526020600020916007016008900482015b82811115614d9a578254825591600101919060010190614e20565b5b80821115614da65780547fffffffffffffffff000000000000000000000000000000000000000000000000168155600101614e3c565b5b80821115614da65760008155600101614e73565b6001600160e01b031981168114614cf857600080fd5b600060208284031215614eaf57600080fd5b8135614eba81614e87565b9392505050565b60005b83811015614edc578181015183820152602001614ec4565b83811115614eeb576000848401525b50505050565b60008151808452614f09816020860160208601614ec1565b601f01601f19169290920160200192915050565b602081526000614eba6020830184614ef1565b600060208284031215614f4257600080fd5b5035919050565b6001600160a01b0381168114614cf857600080fd5b60008060408385031215614f7157600080fd5b8235614f7c81614f49565b946020939093013593505050565b600060208284031215614f9c57600080fd5b8135614eba81614f49565b6000604080830185845260208281860152818651808452606087019150828801935060005b81811015615000578451805163ffffffff1684528401516001600160601b0316848401529383019391850191600101614fcc565b509098975050505050505050565b6000806040838503121561502157600080fd5b50508035926020909101359150565b600081518084526020808501945080840160005b838110156150695781516001600160a01b031687529582019590820190600101615044565b509495945050505050565b82815260406020820152600061508d6040830184615030565b949350505050565b6000806000606084860312156150aa57600080fd5b83356150b581614f49565b925060208401356150c581614f49565b929592945050506040919091013590565b634e487b7160e01b600052602160045260246000fd5b6006811061510a57634e487b7160e01b600052602160045260246000fd5b9052565b6001600160601b03881681526001600160a01b03871660208201526040810186905263ffffffff85811660608301528481166080830152831660a082015260e0810161515d60c08301846150ec565b98975050505050505050565b634e487b7160e01b600052604160045260246000fd5b6040805190810167ffffffffffffffff811182821017156151a2576151a2615169565b60405290565b604051601f8201601f1916810167ffffffffffffffff811182821017156151d1576151d1615169565b604052919050565b600067ffffffffffffffff8311156151f3576151f3615169565b615206601f8401601f19166020016151a8565b905082815283838301111561521a57600080fd5b828260208301376000602084830101529392505050565b60006020828403121561524357600080fd5b813567ffffffffffffffff81111561525a57600080fd5b8201601f8101841361526b57600080fd5b61508d848235602084016151d9565b600067ffffffffffffffff82111561529457615294615169565b5060051b60200190565b600082601f8301126152af57600080fd5b813560206152c46152bf8361527a565b6151a8565b82815260059290921b840181019181810190868411156152e357600080fd5b8286015b848110156153075780356152fa81614f49565b83529183019183016152e7565b509695505050505050565b80356001600160601b038116811461179757600080fd5b60008060006060848603121561533e57600080fd5b833567ffffffffffffffff8082111561535657600080fd5b6153628783880161529e565b945060209150818601358181111561537957600080fd5b86019050601f8101871361538c57600080fd5b803561539a6152bf8261527a565b81815260059190911b820183019083810190898311156153b957600080fd5b928401925b828410156153de576153cf84615312565b825292840192908401906153be565b96999698505050506040949094013593505050565b6000806040838503121561540657600080fd5b823561541181614f49565b91506020830135801515811461542657600080fd5b809150509250929050565b6000806040838503121561544457600080fd5b823560028110614f7c57600080fd5b600081518084526020808501945080840160005b8381101561506957815163ffffffff1687529582019590820190600101615467565b82815260406020820152600061508d6040830184615453565b6000604082018483526020604081850152818551808452606086019150828701935060005b818110156154e3578451835293830193918301916001016154c7565b5090979650505050505050565b60008060008060006080868803121561550857600080fd5b853561551381614f49565b9450602086013561552381614f49565b935060408601359250606086013567ffffffffffffffff8082111561554757600080fd5b818801915088601f83011261555b57600080fd5b81358181111561556a57600080fd5b89602082850101111561557c57600080fd5b9699959850939650602001949392505050565b63ffffffff81168114614cf857600080fd5b600082601f8301126155b257600080fd5b813560206155c26152bf8361527a565b82815260059290921b840181019181810190868411156155e157600080fd5b8286015b848110156153075780356155f88161558f565b83529183019183016155e5565b600082601f83011261561657600080fd5b813560206156266152bf8361527a565b82815260069290921b8401810191818101908684111561564557600080fd5b8286015b8481101561530757604081890312156156625760008081fd5b61566a61517f565b81356156758161558f565b8152615682828601615312565b81860152835291830191604001615649565b60008060008060008060c087890312156156ad57600080fd5b86356156b881614f49565b955060208701359450604087013567ffffffffffffffff808211156156dc57600080fd5b6156e88a838b016155a1565b955060608901359150808211156156fe57600080fd5b5061570b89828a01615605565b935050608087013561571c8161558f565b8092505060a087013590509295509295509295565b6000806000806080858703121561574757600080fd5b843561575281614f49565b935060208501359250604085013567ffffffffffffffff8082111561577657600080fd5b6157828883890161529e565b9350606087013591508082111561579857600080fd5b506157a5878288016155a1565b91505092959194509250565b600080604083850312156157c457600080fd5b82356157cf81614f49565b9150602083013561542681614f49565b602081526001600160601b0382511660208201526001600160a01b0360208301511660408201526040820151606082015260006060830151615829608084018263ffffffff169052565b50608083015163ffffffff811660a08401525060a083015163ffffffff811660c08401525060c083015161586060e08401826150ec565b5060e08301516101008381015261508d610120840182615453565b6000806000806080858703121561589157600080fd5b843561589c81614f49565b93506020850135925060408501356158b381614f49565b9150606085013567ffffffffffffffff8111156158cf57600080fd5b8501601f810187136158e057600080fd5b6157a5878235602084016151d9565b600080600080600060a0868803121561590757600080fd5b853561591281614f49565b945060208601359350604086013567ffffffffffffffff8082111561593657600080fd5b61594289838a016155a1565b9450606088013591508082111561595857600080fd5b5061596588828901615605565b92505060808601356159768161558f565b809150509295509295909350565b600181811c9082168061599857607f821691505b6020821081036159b857634e487b7160e01b600052602260045260246000fd5b50919050565b634e487b7160e01b600052603260045260246000fd5b634e487b7160e01b600052601160045260246000fd5b6000600182016159fc576159fc6159d4565b5060010190565b600060208284031215615a1557600080fd5b8151614eba81614e87565b60008219821115615a3357615a336159d4565b500190565b601f8211156115c557600081815260208120601f850160051c81016020861015615a5f5750805b601f850160051c820191505b818110156147df57828155600101615a6b565b815167ffffffffffffffff811115615a9857615a98615169565b615aac81615aa68454615984565b84615a38565b602080601f831160018114615ae15760008415615ac95750858301515b600019600386901b1c1916600185901b1785556147df565b600085815260208120601f198616915b82811015615b1057888601518255948401946001909101908401615af1565b5085821015615b2e5787850151600019600388901b60f8161c191681555b5050505050600190811b01905550565b60006001600160601b03808316818516808303821115615b6057615b606159d4565b01949350505050565b60006001600160601b0383811690831681811015615b8957615b896159d4565b039392505050565b600063ffffffff83811690831681811015615b8957615b896159d4565b60006001600160a01b03808816835280871660208401525084604083015260806060830152826080830152828460a0840137600060a0848401015260a0601f19601f85011683010190509695505050505050565b6000808454615c1081615984565b60018281168015615c285760018114615c3d57615c6c565b60ff1984168752821515830287019450615c6c565b8860005260208060002060005b85811015615c635781548a820152908401908201615c4a565b50505082870194505b505050508351615b60818360208801614ec1565b600063ffffffff808316818103615c9957615c996159d4565b6001019392505050565b606081526000615cb66060830186615030565b63ffffffff851660208401528281036040840152615cd48185614ef1565b9695505050505050565b600060208284031215615cf057600080fd5b8151614eba81614f49565b60006020808301818452808554615d16818490815260200190565b60008881526020812094509092505b81600782011015615d9b57835463ffffffff808216855281871c811687860152604082811c821690860152606082811c821690860152608082811c82169086015260a082811c82169086015260c082811c9091169085015260e090811c9084015260019093019261010090920191600801615d25565b92549281811015615db75763ffffffff84168352918401916001015b81811015615dd25783851c63ffffffff168352918401916001015b81811015615def57604084901c63ffffffff168352918401916001015b81811015615e0c57606084901c63ffffffff168352918401916001015b81811015615e2957608084901c63ffffffff168352918401916001015b81811015615e465760a084901c63ffffffff168352918401916001015b81811015615e635760c084901c63ffffffff168352918401916001015b81811015615e775760e084901c8352918401915b50909695505050505050565b60006020808385031215615e9657600080fd5b825167ffffffffffffffff811115615ead57600080fd5b8301601f81018513615ebe57600080fd5b8051615ecc6152bf8261527a565b81815260059190911b82018301908381019087831115615eeb57600080fd5b928401925b82841015615f12578351615f038161558f565b82529284019290840190615ef0565b979650505050505050565b600060208284031215615f2f57600080fd5b5051919050565b600063ffffffff808316818516808303821115615b6057615b606159d4565b600063ffffffff80831681851681830481118215151615615f7857615f786159d4565b02949350505050565b634e487b7160e01b600052601260045260246000fd5b600082615fa657615fa6615f81565b500690565b600082615fba57615fba615f81565b50049056fea26469706673582212209583a919d7052d1e3cf889a46c903f51202728e86b83bf1cd5e0ecbf717c822e64736f6c634300080f0033",
  "linkReferences": {},
  "deployedLinkReferences": {}
}