{
  "_format": "hh-sol-artifact-1",
  "contractName": "ServiceStakingNativeToken",
  "sourceName": "contracts/staking/ServiceStakingNativeToken.sol",
  "abi": [
    {
      "inputs": [
        {
          "components": [
            {
              "internalType": "uint256",
              "name": "maxNumServices",
              "type": "uint256"
            },
            {
              "internalType": "uint256",
              "name": "rewardsPerSecond",
              "type": "uint256"
            },
            {
              "internalType": "uint256",
              "name": "minStakingDeposit",
              "type": "uint256"
            },
            {
              "internalType": "uint256",
              "name": "minNumStakingPeriods",
              "type": "uint256"
            },
            {
              "internalType": "uint256",
              "name": "maxNumInactivityPeriods",
              "type": "uint256"
            },
            {
              "internalType": "uint256",
              "name": "livenessPeriod",
              "type": "uint256"
            },
            {
              "internalType": "uint256",
              "name": "livenessRatio",
              "type": "uint256"
            },
            {
              "internalType": "uint256",
              "name": "numAgentInstances",
              "type": "uint256"
            },
            {
              "internalType": "uint256[]",
              "name": "agentIds",
              "type": "uint256[]"
            },
            {
              "internalType": "uint256",
              "name": "threshold",
              "type": "uint256"
            },
            {
              "internalType": "bytes32",
              "name": "configHash",
              "type": "bytes32"
            }
          ],
          "internalType": "struct ServiceStakingBase.StakingParams",
          "name": "_stakingParams",
          "type": "tuple"
        },
        {
          "internalType": "address",
          "name": "_serviceRegistry",
          "type": "address"
        },
        {
          "internalType": "bytes32",
          "name": "_proxyHash",
          "type": "bytes32"
        }
      ],
      "stateMutability": "nonpayable",
      "type": "constructor"
    },
    {
      "inputs": [
        {
          "internalType": "address",
          "name": "operator",
          "type": "address"
        }
      ],
      "name": "AgentInstanceRegistered",
      "type": "error"
    },
    {
      "inputs": [
        {
          "internalType": "uint256",
          "name": "serviceId",
          "type": "uint256"
        }
      ],
      "name": "AgentInstancesSlotsFilled",
      "type": "error"
    },
    {
      "inputs": [
        {
          "internalType": "uint256",
          "name": "agentId",
          "type": "uint256"
        }
      ],
      "name": "AgentNotFound",
      "type": "error"
    },
    {
      "inputs": [
        {
          "internalType": "uint256",
          "name": "agentId",
          "type": "uint256"
        },
        {
          "internalType": "uint256",
          "name": "serviceId",
          "type": "uint256"
        }
      ],
      "name": "AgentNotInService",
      "type": "error"
    },
    {
      "inputs": [
        {
          "internalType": "uint256",
          "name": "componentId",
          "type": "uint256"
        }
      ],
      "name": "ComponentNotFound",
      "type": "error"
    },
    {
      "inputs": [],
      "name": "HashExists",
      "type": "error"
    },
    {
      "inputs": [
        {
          "internalType": "uint256",
          "name": "sent",
          "type": "uint256"
        },
        {
          "internalType": "uint256",
          "name": "expected",
          "type": "uint256"
        },
        {
          "internalType": "uint256",
          "name": "serviceId",
          "type": "uint256"
        }
      ],
      "name": "IncorrectAgentBondingValue",
      "type": "error"
    },
    {
      "inputs": [
        {
          "internalType": "uint256",
          "name": "sent",
          "type": "uint256"
        },
        {
          "internalType": "uint256",
          "name": "expected",
          "type": "uint256"
        },
        {
          "internalType": "uint256",
          "name": "serviceId",
          "type": "uint256"
        }
      ],
      "name": "IncorrectRegistrationDepositValue",
      "type": "error"
    },
    {
      "inputs": [
        {
          "internalType": "uint256",
          "name": "provided",
          "type": "uint256"
        },
        {
          "internalType": "uint256",
          "name": "expected",
          "type": "uint256"
        }
      ],
      "name": "LowerThan",
      "type": "error"
    },
    {
      "inputs": [
        {
          "internalType": "address",
          "name": "sender",
          "type": "address"
        },
        {
          "internalType": "address",
          "name": "manager",
          "type": "address"
        }
      ],
      "name": "ManagerOnly",
      "type": "error"
    },
    {
      "inputs": [
        {
          "internalType": "uint256",
          "name": "maxNumServices",
          "type": "uint256"
        }
      ],
      "name": "MaxNumServicesReached",
      "type": "error"
    },
    {
      "inputs": [],
      "name": "NoRewardsAvailable",
      "type": "error"
    },
    {
      "inputs": [
        {
          "internalType": "uint256",
          "name": "serviceId",
          "type": "uint256"
        },
        {
          "internalType": "uint256",
          "name": "tsProvided",
          "type": "uint256"
        },
        {
          "internalType": "uint256",
          "name": "tsExpected",
          "type": "uint256"
        }
      ],
      "name": "NotEnoughTimeStaked",
      "type": "error"
    },
    {
      "inputs": [
        {
          "internalType": "address",
          "name": "provided",
          "type": "address"
        },
        {
          "internalType": "address",
          "name": "expected",
          "type": "address"
        },
        {
          "internalType": "uint256",
          "name": "serviceId",
          "type": "uint256"
        }
      ],
      "name": "OnlyOwnServiceMultisig",
      "type": "error"
    },
    {
      "inputs": [
        {
          "internalType": "address",
          "name": "operator",
          "type": "address"
        },
        {
          "internalType": "uint256",
          "name": "serviceId",
          "type": "uint256"
        }
      ],
      "name": "OperatorHasNoInstances",
      "type": "error"
    },
    {
      "inputs": [
        {
          "internalType": "uint256",
          "name": "provided",
          "type": "uint256"
        },
        {
          "internalType": "uint256",
          "name": "max",
          "type": "uint256"
        }
      ],
      "name": "Overflow",
      "type": "error"
    },
    {
      "inputs": [
        {
          "internalType": "address",
          "name": "sender",
          "type": "address"
        },
        {
          "internalType": "address",
          "name": "owner",
          "type": "address"
        }
      ],
      "name": "OwnerOnly",
      "type": "error"
    },
    {
      "inputs": [],
      "name": "Paused",
      "type": "error"
    },
    {
      "inputs": [],
      "name": "ReentrancyGuard",
      "type": "error"
    },
    {
      "inputs": [
        {
          "internalType": "uint256",
          "name": "serviceId",
          "type": "uint256"
        }
      ],
      "name": "ServiceMustBeInactive",
      "type": "error"
    },
    {
      "inputs": [
        {
          "internalType": "uint256",
          "name": "serviceId",
          "type": "uint256"
        }
      ],
      "name": "ServiceNotUnstaked",
      "type": "error"
    },
    {
      "inputs": [
        {
          "internalType": "address",
          "name": "token",
          "type": "address"
        },
        {
          "internalType": "address",
          "name": "from",
          "type": "address"
        },
        {
          "internalType": "address",
          "name": "to",
          "type": "address"
        },
        {
          "internalType": "uint256",
          "name": "value",
          "type": "uint256"
        }
      ],
      "name": "TransferFailed",
      "type": "error"
    },
    {
      "inputs": [
        {
          "internalType": "address",
          "name": "multisig",
          "type": "address"
        }
      ],
      "name": "UnauthorizedMultisig",
      "type": "error"
    },
    {
      "inputs": [
        {
          "internalType": "uint256",
          "name": "agentId",
          "type": "uint256"
        }
      ],
      "name": "WrongAgentId",
      "type": "error"
    },
    {
      "inputs": [
        {
          "internalType": "uint256",
          "name": "numValues1",
          "type": "uint256"
        },
        {
          "internalType": "uint256",
          "name": "numValues2",
          "type": "uint256"
        }
      ],
      "name": "WrongArrayLength",
      "type": "error"
    },
    {
      "inputs": [
        {
          "internalType": "uint256",
          "name": "serviceId",
          "type": "uint256"
        }
      ],
      "name": "WrongOperator",
      "type": "error"
    },
    {
      "inputs": [
        {
          "internalType": "uint256",
          "name": "serviceId",
          "type": "uint256"
        }
      ],
      "name": "WrongServiceConfiguration",
      "type": "error"
    },
    {
      "inputs": [
        {
          "internalType": "uint256",
          "name": "state",
          "type": "uint256"
        },
        {
          "internalType": "uint256",
          "name": "serviceId",
          "type": "uint256"
        }
      ],
      "name": "WrongServiceState",
      "type": "error"
    },
    {
      "inputs": [
        {
          "internalType": "uint256",
          "name": "currentThreshold",
          "type": "uint256"
        },
        {
          "internalType": "uint256",
          "name": "minThreshold",
          "type": "uint256"
        },
        {
          "internalType": "uint256",
          "name": "maxThreshold",
          "type": "uint256"
        }
      ],
      "name": "WrongThreshold",
      "type": "error"
    },
    {
      "inputs": [],
      "name": "ZeroAddress",
      "type": "error"
    },
    {
      "inputs": [],
      "name": "ZeroValue",
      "type": "error"
    },
    {
      "anonymous": false,
      "inputs": [
        {
          "indexed": true,
          "internalType": "uint256",
          "name": "epoch",
          "type": "uint256"
        },
        {
          "indexed": false,
          "internalType": "uint256",
          "name": "availableRewards",
          "type": "uint256"
        },
        {
          "indexed": false,
          "internalType": "uint256[]",
          "name": "serviceIds",
          "type": "uint256[]"
        },
        {
          "indexed": false,
          "internalType": "uint256[]",
          "name": "rewards",
          "type": "uint256[]"
        }
      ],
      "name": "Checkpoint",
      "type": "event"
    },
    {
      "anonymous": false,
      "inputs": [
        {
          "indexed": true,
          "internalType": "address",
          "name": "sender",
          "type": "address"
        },
        {
          "indexed": false,
          "internalType": "uint256",
          "name": "amount",
          "type": "uint256"
        },
        {
          "indexed": false,
          "internalType": "uint256",
          "name": "balance",
          "type": "uint256"
        },
        {
          "indexed": false,
          "internalType": "uint256",
          "name": "availableRewards",
          "type": "uint256"
        }
      ],
      "name": "Deposit",
      "type": "event"
    },
    {
      "anonymous": false,
      "inputs": [
        {
          "indexed": false,
          "internalType": "uint256",
          "name": "epoch",
          "type": "uint256"
        },
        {
          "indexed": true,
          "internalType": "uint256",
          "name": "serviceId",
          "type": "uint256"
        },
        {
          "indexed": true,
          "internalType": "address",
          "name": "owner",
          "type": "address"
        },
        {
          "indexed": true,
          "internalType": "address",
          "name": "multisig",
          "type": "address"
        },
        {
          "indexed": false,
          "internalType": "uint256[]",
          "name": "nonces",
          "type": "uint256[]"
        }
      ],
      "name": "ServiceStaked",
      "type": "event"
    },
    {
      "anonymous": false,
      "inputs": [
        {
          "indexed": false,
          "internalType": "uint256",
          "name": "epoch",
          "type": "uint256"
        },
        {
          "indexed": true,
          "internalType": "uint256",
          "name": "serviceId",
          "type": "uint256"
        },
        {
          "indexed": true,
          "internalType": "address",
          "name": "owner",
          "type": "address"
        },
        {
          "indexed": true,
          "internalType": "address",
          "name": "multisig",
          "type": "address"
        },
        {
          "indexed": false,
          "internalType": "uint256[]",
          "name": "nonces",
          "type": "uint256[]"
        },
        {
          "indexed": false,
          "internalType": "uint256",
          "name": "reward",
          "type": "uint256"
        }
      ],
      "name": "ServiceUnstaked",
      "type": "event"
    },
    {
      "anonymous": false,
      "inputs": [
        {
          "indexed": true,
          "internalType": "uint256",
          "name": "epoch",
          "type": "uint256"
        },
        {
          "indexed": false,
          "internalType": "uint256[]",
          "name": "serviceIds",
          "type": "uint256[]"
        },
        {
          "indexed": false,
          "internalType": "address[]",
          "name": "owners",
          "type": "address[]"
        },
        {
          "indexed": false,
          "internalType": "address[]",
          "name": "multisigs",
          "type": "address[]"
        },
        {
          "indexed": false,
          "internalType": "uint256[]",
          "name": "serviceInactivity",
          "type": "uint256[]"
        }
      ],
      "name": "ServicesEvicted",
      "type": "event"
    },
    {
      "anonymous": false,
      "inputs": [
        {
          "indexed": true,
          "internalType": "address",
          "name": "to",
          "type": "address"
        },
        {
          "indexed": false,
          "internalType": "uint256",
          "name": "amount",
          "type": "uint256"
        }
      ],
      "name": "Withdraw",
      "type": "event"
    },
    {
      "inputs": [],
      "name": "VERSION",
      "outputs": [
        {
          "internalType": "string",
          "name": "",
          "type": "string"
        }
      ],
      "stateMutability": "view",
      "type": "function"
    },
    {
      "inputs": [
        {
          "internalType": "uint256",
          "name": "",
          "type": "uint256"
        }
      ],
      "name": "agentIds",
      "outputs": [
        {
          "internalType": "uint256",
          "name": "",
          "type": "uint256"
        }
      ],
      "stateMutability": "view",
      "type": "function"
    },
    {
      "inputs": [],
      "name": "availableRewards",
      "outputs": [
        {
          "internalType": "uint256",
          "name": "",
          "type": "uint256"
        }
      ],
      "stateMutability": "view",
      "type": "function"
    },
    {
      "inputs": [],
      "name": "balance",
      "outputs": [
        {
          "internalType": "uint256",
          "name": "",
          "type": "uint256"
        }
      ],
      "stateMutability": "view",
      "type": "function"
    },
    {
      "inputs": [
        {
          "internalType": "uint256",
          "name": "serviceId",
          "type": "uint256"
        }
      ],
      "name": "calculateServiceStakingLastReward",
      "outputs": [
        {
          "internalType": "uint256",
          "name": "reward",
          "type": "uint256"
        }
      ],
      "stateMutability": "view",
      "type": "function"
    },
    {
      "inputs": [
        {
          "internalType": "uint256",
          "name": "serviceId",
          "type": "uint256"
        }
      ],
      "name": "calculateServiceStakingReward",
      "outputs": [
        {
          "internalType": "uint256",
          "name": "reward",
          "type": "uint256"
        }
      ],
      "stateMutability": "view",
      "type": "function"
    },
    {
      "inputs": [],
      "name": "checkpoint",
      "outputs": [
        {
          "internalType": "uint256[]",
          "name": "",
          "type": "uint256[]"
        },
        {
          "internalType": "uint256[][]",
          "name": "",
          "type": "uint256[][]"
        },
        {
          "internalType": "uint256[]",
          "name": "",
          "type": "uint256[]"
        },
        {
          "internalType": "uint256[]",
          "name": "",
          "type": "uint256[]"
        },
        {
          "internalType": "uint256[]",
          "name": "evictServiceIds",
          "type": "uint256[]"
        }
      ],
      "stateMutability": "nonpayable",
      "type": "function"
    },
    {
      "inputs": [],
      "name": "configHash",
      "outputs": [
        {
          "internalType": "bytes32",
          "name": "",
          "type": "bytes32"
        }
      ],
      "stateMutability": "view",
      "type": "function"
    },
    {
      "inputs": [],
      "name": "epochCounter",
      "outputs": [
        {
          "internalType": "uint256",
          "name": "",
          "type": "uint256"
        }
      ],
      "stateMutability": "view",
      "type": "function"
    },
    {
      "inputs": [],
      "name": "getAgentIds",
      "outputs": [
        {
          "internalType": "uint256[]",
          "name": "",
          "type": "uint256[]"
        }
      ],
      "stateMutability": "view",
      "type": "function"
    },
    {
      "inputs": [],
      "name": "getNextRewardCheckpointTimestamp",
      "outputs": [
        {
          "internalType": "uint256",
          "name": "tsNext",
          "type": "uint256"
        }
      ],
      "stateMutability": "view",
      "type": "function"
    },
    {
      "inputs": [],
      "name": "getServiceIds",
      "outputs": [
        {
          "internalType": "uint256[]",
          "name": "",
          "type": "uint256[]"
        }
      ],
      "stateMutability": "view",
      "type": "function"
    },
    {
      "inputs": [
        {
          "internalType": "uint256",
          "name": "serviceId",
          "type": "uint256"
        }
      ],
      "name": "getServiceInfo",
      "outputs": [
        {
          "components": [
            {
              "internalType": "address",
              "name": "multisig",
              "type": "address"
            },
            {
              "internalType": "address",
              "name": "owner",
              "type": "address"
            },
            {
              "internalType": "uint256[]",
              "name": "nonces",
              "type": "uint256[]"
            },
            {
              "internalType": "uint256",
              "name": "tsStart",
              "type": "uint256"
            },
            {
              "internalType": "uint256",
              "name": "reward",
              "type": "uint256"
            },
            {
              "internalType": "uint256",
              "name": "inactivity",
              "type": "uint256"
            }
          ],
          "internalType": "struct ServiceInfo",
          "name": "sInfo",
          "type": "tuple"
        }
      ],
      "stateMutability": "view",
      "type": "function"
    },
    {
      "inputs": [
        {
          "internalType": "uint256",
          "name": "serviceId",
          "type": "uint256"
        }
      ],
      "name": "getServiceStakingState",
      "outputs": [
        {
          "internalType": "enum ServiceStakingBase.ServiceStakingState",
          "name": "stakingState",
          "type": "uint8"
        }
      ],
      "stateMutability": "view",
      "type": "function"
    },
    {
      "inputs": [],
      "name": "livenessPeriod",
      "outputs": [
        {
          "internalType": "uint256",
          "name": "",
          "type": "uint256"
        }
      ],
      "stateMutability": "view",
      "type": "function"
    },
    {
      "inputs": [],
      "name": "livenessRatio",
      "outputs": [
        {
          "internalType": "uint256",
          "name": "",
          "type": "uint256"
        }
      ],
      "stateMutability": "view",
      "type": "function"
    },
    {
      "inputs": [
        {
          "internalType": "uint256",
          "name": "",
          "type": "uint256"
        }
      ],
      "name": "mapServiceInfo",
      "outputs": [
        {
          "internalType": "address",
          "name": "multisig",
          "type": "address"
        },
        {
          "internalType": "address",
          "name": "owner",
          "type": "address"
        },
        {
          "internalType": "uint256",
          "name": "tsStart",
          "type": "uint256"
        },
        {
          "internalType": "uint256",
          "name": "reward",
          "type": "uint256"
        },
        {
          "internalType": "uint256",
          "name": "inactivity",
          "type": "uint256"
        }
      ],
      "stateMutability": "view",
      "type": "function"
    },
    {
      "inputs": [],
      "name": "maxInactivityDuration",
      "outputs": [
        {
          "internalType": "uint256",
          "name": "",
          "type": "uint256"
        }
      ],
      "stateMutability": "view",
      "type": "function"
    },
    {
      "inputs": [],
      "name": "maxNumInactivityPeriods",
      "outputs": [
        {
          "internalType": "uint256",
          "name": "",
          "type": "uint256"
        }
      ],
      "stateMutability": "view",
      "type": "function"
    },
    {
      "inputs": [],
      "name": "maxNumServices",
      "outputs": [
        {
          "internalType": "uint256",
          "name": "",
          "type": "uint256"
        }
      ],
      "stateMutability": "view",
      "type": "function"
    },
    {
      "inputs": [],
      "name": "minStakingDeposit",
      "outputs": [
        {
          "internalType": "uint256",
          "name": "",
          "type": "uint256"
        }
      ],
      "stateMutability": "view",
      "type": "function"
    },
    {
      "inputs": [],
      "name": "minStakingDuration",
      "outputs": [
        {
          "internalType": "uint256",
          "name": "",
          "type": "uint256"
        }
      ],
      "stateMutability": "view",
      "type": "function"
    },
    {
      "inputs": [],
      "name": "numAgentInstances",
      "outputs": [
        {
          "internalType": "uint256",
          "name": "",
          "type": "uint256"
        }
      ],
      "stateMutability": "view",
      "type": "function"
    },
    {
      "inputs": [
        {
          "internalType": "address",
          "name": "",
          "type": "address"
        },
        {
          "internalType": "address",
          "name": "",
          "type": "address"
        },
        {
          "internalType": "uint256",
          "name": "",
          "type": "uint256"
        },
        {
          "internalType": "bytes",
          "name": "",
          "type": "bytes"
        }
      ],
      "name": "onERC721Received",
      "outputs": [
        {
          "internalType": "bytes4",
          "name": "",
          "type": "bytes4"
        }
      ],
      "stateMutability": "nonpayable",
      "type": "function"
    },
    {
      "inputs": [],
      "name": "proxyHash",
      "outputs": [
        {
          "internalType": "bytes32",
          "name": "",
          "type": "bytes32"
        }
      ],
      "stateMutability": "view",
      "type": "function"
    },
    {
      "inputs": [],
      "name": "rewardsPerSecond",
      "outputs": [
        {
          "internalType": "uint256",
          "name": "",
          "type": "uint256"
        }
      ],
      "stateMutability": "view",
      "type": "function"
    },
    {
      "inputs": [],
      "name": "serviceRegistry",
      "outputs": [
        {
          "internalType": "address",
          "name": "",
          "type": "address"
        }
      ],
      "stateMutability": "view",
      "type": "function"
    },
    {
      "inputs": [
        {
          "internalType": "uint256",
          "name": "",
          "type": "uint256"
        }
      ],
      "name": "setServiceIds",
      "outputs": [
        {
          "internalType": "uint256",
          "name": "",
          "type": "uint256"
        }
      ],
      "stateMutability": "view",
      "type": "function"
    },
    {
      "inputs": [
        {
          "internalType": "uint256",
          "name": "serviceId",
          "type": "uint256"
        }
      ],
      "name": "stake",
      "outputs": [],
      "stateMutability": "nonpayable",
      "type": "function"
    },
    {
      "inputs": [],
      "name": "threshold",
      "outputs": [
        {
          "internalType": "uint256",
          "name": "",
          "type": "uint256"
        }
      ],
      "stateMutability": "view",
      "type": "function"
    },
    {
      "inputs": [],
      "name": "tsCheckpoint",
      "outputs": [
        {
          "internalType": "uint256",
          "name": "",
          "type": "uint256"
        }
      ],
      "stateMutability": "view",
      "type": "function"
    },
    {
      "inputs": [
        {
          "internalType": "uint256",
          "name": "serviceId",
          "type": "uint256"
        }
      ],
      "name": "unstake",
      "outputs": [],
      "stateMutability": "nonpayable",
      "type": "function"
    },
    {
      "stateMutability": "payable",
      "type": "receive"
    }
  ],
  "bytecode": "0x6102206040523480156200001257600080fd5b506040516200374d3803806200374d833981016040819052620000359162000402565b8282828260000151600014806200004e57506020830151155b806200005c575060a0830151155b806200006a575060c0830151155b8062000078575060e0830151155b806200008657506060830151155b806200009457506080830151155b15620000b357604051637c946ed760e01b815260040160405180910390fd5b826080015183606001511015620000f5576060830151608084015160405163491a2bb160e01b8152600481019290925260248201526044015b60405180910390fd5b6002836040015110156200012d57604080840151905163491a2bb160e01b8152600481019190915260026024820152604401620000ec565b6001600160a01b038216620001555760405163d92e233d60e01b815260040160405180910390fd5b82516080908152602084015160a0908152604085015160c09081529185015160e0908152908501516101005290840151610120908152908401516101409081526001600160a01b0384166101a0529084015161016052830151610180526000805b846101000151518110156200029257818561010001518281518110620001e057620001e0620004ff565b6020026020010151116200022d578461010001518181518110620002085762000208620004ff565b6020026020010151604051632ab10b0b60e21b8152600401620000ec91815260200190565b8461010001518181518110620002475762000247620004ff565b602090810291909101015160048054600181810183556000929092527f8a35acfbc15ff81a39ae7d344fd709f28e8600b4aa8c65c6b64bfe7fe36bd19b0182905590925001620001b6565b5081620002b257604051637c946ed760e01b815260040160405180910390fd5b6101c0829052610100516060850151620002cd919062000515565b6101e052610100516080850151620002e6919062000515565b6102005250504260035550620005419350505050565b634e487b7160e01b600052604160045260246000fd5b60405161016081016001600160401b0381118282101715620003385762000338620002fc565b60405290565b600082601f8301126200035057600080fd5b815160206001600160401b03808311156200036f576200036f620002fc565b8260051b604051601f19603f83011681018181108482111715620003975762000397620002fc565b6040529384526020818701810194908101925087851115620003b857600080fd5b6020870191505b84821015620003da57815183529183019190830190620003bf565b979650505050505050565b80516001600160a01b0381168114620003fd57600080fd5b919050565b6000806000606084860312156200041857600080fd5b83516001600160401b03808211156200043057600080fd5b9085019061016082880312156200044657600080fd5b6200045062000312565b825181526020830151602082015260408301516040820152606083015160608201526080830151608082015260a083015160a082015260c083015160c082015260e083015160e08201526101008084015183811115620004af57600080fd5b620004bd8a8287016200033e565b918301919091525061012083810151908201526101409283015192810192909252509250620004ef60208501620003e5565b9150604084015190509250925092565b634e487b7160e01b600052603260045260246000fd5b80820281158282048414176200053b57634e487b7160e01b600052601160045260246000fd5b92915050565b60805160a05160c05160e05161010051610120516101405161016051610180516101a0516101c0516101e051610200516130dc62000671600039600081816107df015281816119610152611bd0015260008181610277015281816108ab01526108fd0152600081816104ad01526111280152600081816106ad01528181610b5f01528181610ee40152818161131b0152611dcf0152600081816106f901528181610fac0152610fdb01526000818161039d0152818161102201526110560152600081816104250152610f6a015260008181610459015261281f0152600081816103d101528181611c820152611f100152600061052401526000818161072d0152611d62015260008181610761015261220601526000818161033101528181610e6b0152610e9f01526130dc6000f3fe6080604052600436106101e75760003560e01c8063a694fc3a11610102578063e1f1176d11610095578063f189e85a11610064578063f189e85a146107a3578063f4dce714146107b8578063f86ad2b6146107cd578063ffa1ad741461080157600080fd5b8063e1f1176d146106e7578063e77cdcc91461071b578063eacdaabc1461074f578063eb338c961461078357600080fd5b8063c2c4c5c1116100d1578063c2c4c5c114610628578063c889921d1461064e578063cae2a5f01461066e578063cbcf252a1461069b57600080fd5b8063a694fc3a14610546578063a74466ad14610566578063b1508760146105f0578063b69ef8a81461061257600080fd5b806356e760581161017a578063809cee2f11610149578063809cee2f1461049b57806382a8ea58146104cf578063879d9090146104fc578063a0ed60e01461051257600080fd5b806356e76058146103f35780635829c5ec14610413578063592cf3fb1461044757806378e061361461047b57600080fd5b80632e17de78116101b65780632e17de78146103535780633e7329971461037557806342cde4e81461038b57806352c824f5146103bf57600080fd5b806308ae7e541461026557806314b19c5a146102ac578063150b7a02146102c257806316a751721461031f57600080fd5b36610260576000346001546101fc91906128e0565b905060003460025461020e91906128e0565b60018390556002819055604080513481526020810185905290810182905290915033907f36af321ec8d3c75236829c5317affd40ddb308863a1236d2d277a4025cccee1e9060600160405180910390a2005b600080fd5b34801561027157600080fd5b506102997f000000000000000000000000000000000000000000000000000000000000000081565b6040519081526020015b60405180910390f35b3480156102b857600080fd5b5061029960005481565b3480156102ce57600080fd5b506102ee6102dd366004612908565b630a85bd0160e11b95945050505050565b6040517fffffffff0000000000000000000000000000000000000000000000000000000090911681526020016102a3565b34801561032b57600080fd5b506102997f000000000000000000000000000000000000000000000000000000000000000081565b34801561035f57600080fd5b5061037361036e3660046129a7565b61083f565b005b34801561038157600080fd5b5061029960035481565b34801561039757600080fd5b506102997f000000000000000000000000000000000000000000000000000000000000000081565b3480156103cb57600080fd5b506102997f000000000000000000000000000000000000000000000000000000000000000081565b3480156103ff57600080fd5b5061029961040e3660046129a7565b610c2d565b34801561041f57600080fd5b506102997f000000000000000000000000000000000000000000000000000000000000000081565b34801561045357600080fd5b506102997f000000000000000000000000000000000000000000000000000000000000000081565b34801561048757600080fd5b506102996104963660046129a7565b610c4e565b3480156104a757600080fd5b506102997f000000000000000000000000000000000000000000000000000000000000000081565b3480156104db57600080fd5b506104ef6104ea3660046129a7565b610d18565b6040516102a391906129fc565b34801561050857600080fd5b5061029960025481565b34801561051e57600080fd5b506102997f000000000000000000000000000000000000000000000000000000000000000081565b34801561055257600080fd5b506103736105613660046129a7565b610e0f565b34801561057257600080fd5b506105bd6105813660046129a7565b6005602081905260009182526040909120805460018201546003830154600484015493909401546001600160a01b039283169492909116929085565b604080516001600160a01b039687168152959094166020860152928401919091526060830152608082015260a0016102a3565b3480156105fc57600080fd5b506106056113dc565b6040516102a39190612a63565b34801561061e57600080fd5b5061029960015481565b34801561063457600080fd5b5061063d611434565b6040516102a3959493929190612a76565b34801561065a57600080fd5b506102996106693660046129a7565b611a69565b34801561067a57600080fd5b5061068e6106893660046129a7565b611b25565b6040516102a39190612b3b565b3480156106a757600080fd5b506106cf7f000000000000000000000000000000000000000000000000000000000000000081565b6040516001600160a01b0390911681526020016102a3565b3480156106f357600080fd5b506102997f000000000000000000000000000000000000000000000000000000000000000081565b34801561072757600080fd5b506102997f000000000000000000000000000000000000000000000000000000000000000081565b34801561075b57600080fd5b506102997f000000000000000000000000000000000000000000000000000000000000000081565b34801561078f57600080fd5b5061029961079e3660046129a7565b611c18565b3480156107af57600080fd5b50610605611c28565b3480156107c457600080fd5b50610299611c7e565b3480156107d957600080fd5b506102997f000000000000000000000000000000000000000000000000000000000000000081565b34801561080d57600080fd5b50610832604051806040016040528060058152602001640302e312e360dc1b81525081565b6040516102a39190612b63565b600081815260056020526040902060018101546001600160a01b0316331461089657600181015460405163521eb56d60e11b81523360048201526001600160a01b0390911660248201526044015b60405180910390fd5b600381015460006108a78242612bb2565b90507f000000000000000000000000000000000000000000000000000000000000000081111580156108db57506000600254115b156109295760405163ba2bbc6b60e01b815260048101859052602481018290527f0000000000000000000000000000000000000000000000000000000000000000604482015260640161088d565b600080610934611434565b9450505050915081516000036109955761094c611c28565b9150815167ffffffffffffffff81111561096857610968612bc5565b604051908082528060200260200182016040528015610991578160200160208202803683370190505b5090505b6000805b83518210156109f657878383815181106109b5576109b5612bdb565b602002602001015103156109f657878483815181106109d6576109d6612bdb565b6020026020010151036109eb575060016109f6565b816001019150610999565b60048701546002880180546040805160208084028201810190925282815260009390929091830182828015610a4a57602002820191906000526020600020905b815481526020019060010190808311610a36575b50508c5460008f8152600560205260408120805473ffffffffffffffffffffffffffffffffffffffff19908116825560018201805490911690559596506001600160a01b039091169493509150610aa690506002830182612849565b50600060038201819055600482018190556005909101558315610b355760068054610ad390600190612bb2565b81548110610ae357610ae3612bdb565b906000526020600020015460068681548110610b0157610b01612bdb565b6000918252602090912001556006805480610b1e57610b1e612bf1565b600190038181906000526020600020016000905590555b604051632142170760e11b8152306004820152336024820152604481018c90526001600160a01b037f000000000000000000000000000000000000000000000000000000000000000016906342842e0e90606401600060405180830381600087803b158015610ba357600080fd5b505af1158015610bb7573d6000803e3d6000fd5b505050506000831115610bce57610bce8184611cb3565b806001600160a01b0316336001600160a01b03168c7f950733f4c0bf951b8e770f3cc619a4288e7b59b1236d59aeaf2c238488e8ae816000548688604051610c1893929190612c07565b60405180910390a45050505050505050505050565b60048181548110610c3d57600080fd5b600091825260209091200154905081565b6000818152600560209081526040808320815160c08101835281546001600160a01b0390811682526001830154168185015260028201805484518187028101870186528181528796939586019390929190830182828015610cce57602002820191906000526020600020905b815481526020019060010190808311610cba575b505050505081526020016003820154815260200160048201548152602001600582015481525050905080608001519150610d0783611a69565b610d1190836128e0565b9392505050565b610d636040518060c0016040528060006001600160a01b0316815260200160006001600160a01b03168152602001606081526020016000815260200160008152602001600081525090565b600082815260056020908152604091829020825160c08101845281546001600160a01b0390811682526001830154168184015260028201805485518186028101860187528181529295939493860193830182828015610de157602002820191906000526020600020905b815481526020019060010190808311610dcd575b5050505050815260200160038201548152602001600482015481526020016005820154815250509050919050565b600254600003610e325760405163afb0be3360e01b815260040160405180910390fd5b6000818152600560205260409020600381015415610e665760405163b4817ce760e01b81526004810183905260240161088d565b6006547f00000000000000000000000000000000000000000000000000000000000000008103610ecb5760405163fd20861560e01b81527f0000000000000000000000000000000000000000000000000000000000000000600482015260240161088d565b60405163ef0e239b60e01b8152600481018490526000907f00000000000000000000000000000000000000000000000000000000000000006001600160a01b03169063ef0e239b90602401600060405180830381865afa158015610f33573d6000803e3d6000fd5b505050506040513d6000823e601f3d908101601f19168201604052610f5b9190810190612d97565b9050806080015163ffffffff167f000000000000000000000000000000000000000000000000000000000000000014610faa57604051637ad404bf60e11b81526004810185905260240161088d565b7f000000000000000000000000000000000000000000000000000000000000000015801590610ffd575080604001517f000000000000000000000000000000000000000000000000000000000000000014155b1561101e57604051637ad404bf60e11b81526004810185905260240161088d565b60007f00000000000000000000000000000000000000000000000000000000000000001180156110785750806060015163ffffffff167f000000000000000000000000000000000000000000000000000000000000000014155b1561109957604051637ad404bf60e11b81526004810185905260240161088d565b60048160c0015160058111156110b1576110b1612b25565b146110f0578060c0015160058111156110cc576110cc612b25565b604051633c053f9d60e21b815260048101919091526024810185905260440161088d565b600081602001516001600160a01b0316803b806020016040519081016040528181526000908060200190933c805190602001209050807f00000000000000000000000000000000000000000000000000000000000000001461117557602082015160405162a2307960e51b81526001600160a01b03909116600482015260240161088d565b600454801561123e5760e0830151518181146111a757604051637ad404bf60e11b81526004810188905260240161088d565b60005b8181101561123b578460e0015181815181106111c8576111c8612bdb565b602002602001015163ffffffff16600482815481106111e9576111e9612bdb565b906000526020600020015414611233576004818154811061120c5761120c612bdb565b9060005260206000200154604051632ab10b0b60e21b815260040161088d91815260200190565b6001016111aa565b50505b61125f8684600001516bffffffffffffffffffffffff168560e00151611d60565b602083015185546001600160a01b03821673ffffffffffffffffffffffffffffffffffffffff19918216178755600187018054909116331790556000906112a590611ee4565b80519091506112bd906002880190602084019061286a565b50426003870155600680546001810182556000919091527ff652222313e28459528d920b65115c16c04f3efc82aaedc97be59f3f377c0d3f01879055604051632142170760e11b8152336004820152306024820152604481018890527f00000000000000000000000000000000000000000000000000000000000000006001600160a01b0316906342842e0e90606401600060405180830381600087803b15801561136757600080fd5b505af115801561137b573d6000803e3d6000fd5b5050505083602001516001600160a01b0316336001600160a01b0316887faa6b005b4958114a0c90492461c24af6525ae0178db7fbf44125ae9217c69ccb600054856040516113cb929190612e75565b60405180910390a450505050505050565b6060600480548060200260200160405190810160405280929190818152602001828054801561142a57602002820191906000526020600020905b815481526020019060010190808311611416575b5050505050905090565b6060806060806060600080600080600080600080611450611ef5565b97509750975097509750975097509750606080845167ffffffffffffffff81111561147d5761147d612bc5565b6040519080825280602002602001820160405280156114a6578160200160208202803683370190505b509a5060008915611839578967ffffffffffffffff8111156114ca576114ca612bc5565b6040519080825280602002602001820160405280156114f3578160200160208202803683370190505b5092508967ffffffffffffffff81111561150f5761150f612bc5565b604051908082528060200260200182016040528015611538578160200160208202803683370190505b5091508a8911156117425760008060015b8c811015611635578b8e8b838151811061156557611565612bdb565b60200260200101516115779190612e8e565b6115819190612ea5565b925061158d83836128e0565b91508a81815181106115a1576115a1612bdb565b602002602001015193508a81815181106115bd576115bd612bdb565b60200260200101518682815181106115d7576115d7612bdb565b602002602001018181525050828582815181106115f6576115f6612bdb565b6020026020010181815250508260056000868152602001908152602001600020600401600082825461162891906128e0565b9091555050600101611549565b508a8d8a60008151811061164b5761164b612bdb565b602002602001015161165d9190612e8e565b6116679190612ea5565b915061167382826128e0565b90508960008151811061168857611688612bdb565b60200260200101519250896000815181106116a5576116a5612bdb565b6020026020010151856000815181106116c0576116c0612bdb565b602002602001018181525050808d11156116eb576116de818e612bb2565b6116e890836128e0565b91505b81846000815181106116ff576116ff612bdb565b6020026020010181815250508160056000858152602001908152602001600020600401600082825461173191906128e0565b9091555060009d5061183392505050565b60005b8a8110156118255788818151811061175f5761175f612bdb565b6020026020010151915088818151811061177b5761177b612bdb565b602002602001015184828151811061179557611795612bdb565b6020026020010181815250508781815181106117b3576117b3612bdb565b60200260200101518382815181106117cd576117cd612bdb565b6020026020010181815250508781815181106117eb576117eb612bdb565b602002602001015160056000848152602001908152602001600020600401600082825461181891906128e0565b9091555050600101611745565b50611830898c612bb2565b9a505b60028b90555b855115611a53576000995060005b86518110156119ec5786818151811061186257611862612bdb565b6020026020010151915085818151811061187e5761187e612bdb565b60200260200101516005600084815260200190815260200160002060020190805190602001906118af92919061286a565b5060008582815181106118c4576118c4612bdb565b602002602001015111156119d1578481815181106118e4576118e4612bdb565b6020026020010151600560008481526020019081526020016000206005015461190d91906128e0565b85828151811061191f5761191f612bdb565b60200260200101818152505084818151811061193d5761193d612bdb565b602002602001015160056000848152602001908152602001600020600501819055507f000000000000000000000000000000000000000000000000000000000000000085828151811061199257611992612bdb565b602002602001015111156119cc57818d82815181106119b3576119b3612bdb565b60209081029190910101528a6119c881612ec7565b9b50505b6119e4565b6000828152600560208190526040822001555b600101611847565b5089156119fe576119fe8c858c6122f3565b42600355600054611a108160016128e0565b60005560405181907f06a98bdd4732811ab3214800ed1ada2dce66a2bce301d250c3ca7d6b461ee66690611a49908f9088908890612ee0565b60405180910390a2505b50939e929d509b50919950969750505050505050565b600080600080600080611a7a611ef5565b5050509450945094509450945060005b84811015611b1a5787838281518110611aa557611aa5612bdb565b602002602001015103611b125785841115611af1578386838381518110611ace57611ace612bdb565b6020026020010151611ae09190612e8e565b611aea9190612ea5565b9650611b1a565b818181518110611b0357611b03612bdb565b60200260200101519650611b1a565b600101611a8a565b505050505050919050565b6000818152600560209081526040808320815160c08101835281546001600160a01b0390811682526001830154168185015260028201805484518187028101870186528181528796939586019390929190830182828015611ba557602002820191906000526020600020905b815481526020019060010190808311611b91575b50505050508152602001600382015481526020016004820154815260200160058201548152505090507f00000000000000000000000000000000000000000000000000000000000000008160a001511115611c035760029150611c12565b606081015115611c1257600191505b50919050565b60068181548110610c3d57600080fd5b6060600680548060200260200160405190810160405280929190818152602001828054801561142a5760200282019190600052602060002090815481526020019060010190808311611416575050505050905090565b60007f0000000000000000000000000000000000000000000000000000000000000000600354611cae91906128e0565b905090565b8060016000828254611cc59190612bb2565b90915550506040516000906001600160a01b0384169083908381818185875af1925050503d8060008114611d15576040519150601f19603f3d011682016040523d82523d6000602084013e611d1a565b606091505b5050905080611d5b5760405163cd3f165960e01b8152600060048201523060248201526001600160a01b03841660448201526064810183905260840161088d565b505050565b7f000000000000000000000000000000000000000000000000000000000000000080831015611dac5760405163491a2bb160e01b8152600481018490526024810182905260440161088d565b604051630ef1435d60e11b81526004810185905260009081906001600160a01b037f00000000000000000000000000000000000000000000000000000000000000001690631de286ba90602401600060405180830381865afa158015611e16573d6000803e3d6000fd5b505050506040513d6000823e601f3d908101601f19168201604052611e3e9190810190612f15565b9150915060005b82811015611edb5783828281518110611e6057611e60612bdb565b6020026020010151602001516bffffffffffffffffffffffff161015611ed357818181518110611e9257611e92612bdb565b6020026020010151602001518460405163491a2bb160e01b815260040161088d9291906bffffffffffffffffffffffff929092168252602082015260400190565b600101611e45565b50505050505050565b6060611eef826126b8565b92915050565b600080600060608060608060606000600354905060025498507f00000000000000000000000000000000000000000000000000000000000000008142611f3b9190612bb2565b10158015611f495750600089115b156122e8576006548067ffffffffffffffff811115611f6a57611f6a612bc5565b604051908082528060200260200182016040528015611f93578160200160208202803683370190505b5094508067ffffffffffffffff811115611faf57611faf612bc5565b604051908082528060200260200182016040528015611fd8578160200160208202803683370190505b5096508067ffffffffffffffff811115611ff457611ff4612bc5565b60405190808252806020026020018201604052801561201d578160200160208202803683370190505b5095508067ffffffffffffffff81111561203957612039612bc5565b60405190808252806020026020018201604052801561206c57816020015b60608152602001906001900390816120575790505b5093508067ffffffffffffffff81111561208857612088612bc5565b6040519080825280602002602001820160405280156120b1578160200160208202803683370190505b50925060005b818110156122e557600681815481106120d2576120d2612bdb565b90600052602060002001548682815181106120ef576120ef612bdb565b60200260200101818152505060006005600088848151811061211357612113612bdb565b60209081029190910181015182528101919091526040016000208054909150612144906001600160a01b0316611ee4565b86838151811061215657612156612bdb565b60209081029190910101526003810154849081811115612174578091505b61217e8242612bb2565b905060006121f889868151811061219757612197612bdb565b6020026020010151856002018054806020026020016040519081016040528092919081815260200182805480156121ed57602002820191906000526020600020905b8154815260200190600101908083116121d9575b505050505084612760565b905080156122b65761222a827f0000000000000000000000000000000000000000000000000000000000000000612e8e565b8b8f8151811061223c5761223c612bdb565b6020026020010181815250508a8e8151811061225a5761225a612bdb565b60200260200101518d61226d91906128e0565b9c5089858151811061228157612281612bdb565b60200260200101518c8f8151811061229b5761229b612bdb565b60209081029190910101526122af8e612ec7565b9d506122d6565b818886815181106122c9576122c9612bdb565b6020026020010181815250505b505050508060010190506120b7565b50505b509091929394959697565b825160008267ffffffffffffffff81111561231057612310612bc5565b604051908082528060200260200182016040528015612339578160200160208202803683370190505b50905060008367ffffffffffffffff81111561235757612357612bc5565b604051908082528060200260200182016040528015612380578160200160208202803683370190505b50905060008467ffffffffffffffff81111561239e5761239e612bc5565b6040519080825280602002602001820160405280156123c7578160200160208202803683370190505b50905060008567ffffffffffffffff8111156123e5576123e5612bc5565b60405190808252806020026020018201604052801561240e578160200160208202803683370190505b50905060008667ffffffffffffffff81111561242c5761242c612bc5565b604051908082528060200260200182016040528015612455578160200160208202803683370190505b50905060008060005b888110156125b55760008c828151811061247a5761247a612bdb565b602002602001015111156125ad578b818151811061249a5761249a612bdb565b60200260200101519150818884815181106124b7576124b7612bdb565b6020908102919091018101919091526000838152600590915260409020600181015488516001600160a01b03909116908990869081106124f9576124f9612bdb565b6001600160a01b0392831660209182029290920101528154885191169088908690811061252857612528612bdb565b60200260200101906001600160a01b031690816001600160a01b0316815250508b828151811061255a5761255a612bdb565b602002602001015186858151811061257457612574612bdb565b6020026020010181815250508185858151811061259357612593612bdb565b6020908102919091010152836125a881612ec7565b945050505b60010161245e565b50885b801561266a57886125c881612fe4565b995060009050846125da600184612bb2565b815181106125ea576125ea612bdb565b6020026020010151905060068a8154811061260757612607612bdb565b90600052602060002001546006828154811061262557612625612bdb565b600091825260209091200155600680548061264257612642612bf1565b60019003818190600052602060002001600090559055508061266390612fe4565b90506125b8565b506000547fd19a3d42ed383465e4058c322d9411aeac76ddb8454d22e139fc99808bd56952888888886040516126a39493929190613035565b60405180910390a25050505050505050505050565b60408051600180825281830190925260609160208083019080368337019050509050816001600160a01b031663affed0e06040518163ffffffff1660e01b8152600401602060405180830381865afa158015612718573d6000803e3d6000fd5b505050506040513d601f19601f8201168201806040525081019061273c919061308d565b8160008151811061274f5761274f612bdb565b602002602001018181525050919050565b600061276d848484612775565b949350505050565b600080821180156127b957508260008151811061279457612794612bdb565b6020026020010151846000815181106127af576127af612bdb565b6020026020010151115b15610d1157600082846000815181106127d4576127d4612bdb565b6020026020010151866000815181106127ef576127ef612bdb565b60200260200101516128019190612bb2565b61281390670de0b6b3a7640000612e8e565b61281d9190612ea5565b7f0000000000000000000000000000000000000000000000000000000000000000111595945050505050565b508054600082559060005260206000209081019061286791906128b5565b50565b8280548282559060005260206000209081019282156128a5579160200282015b828111156128a557825182559160200191906001019061288a565b506128b19291506128b5565b5090565b5b808211156128b157600081556001016128b6565b634e487b7160e01b600052601160045260246000fd5b80820180821115611eef57611eef6128ca565b6001600160a01b038116811461286757600080fd5b60008060008060006080868803121561292057600080fd5b853561292b816128f3565b9450602086013561293b816128f3565b935060408601359250606086013567ffffffffffffffff8082111561295f57600080fd5b818801915088601f83011261297357600080fd5b81358181111561298257600080fd5b89602082850101111561299457600080fd5b9699959850939650602001949392505050565b6000602082840312156129b957600080fd5b5035919050565b60008151808452602080850194506020840160005b838110156129f1578151875295820195908201906001016129d5565b509495945050505050565b6020815260006001600160a01b0380845116602084015280602085015116604084015250604083015160c06060840152612a3960e08401826129c0565b905060608401516080840152608084015160a084015260a084015160c08401528091505092915050565b602081526000610d1160208301846129c0565b60a081526000612a8960a08301886129c0565b6020838203818501528188518084528284019150828160051b850101838b0160005b83811015612ad957601f19878403018552612ac78383516129c0565b94860194925090850190600101612aab565b50508681036040880152612aed818b6129c0565b9450505050508281036060840152612b0581866129c0565b90508281036080840152612b1981856129c0565b98975050505050505050565b634e487b7160e01b600052602160045260246000fd5b6020810160038310612b5d57634e487b7160e01b600052602160045260246000fd5b91905290565b60006020808352835180602085015260005b81811015612b9157858101830151858201604001528201612b75565b506000604082860101526040601f19601f8301168501019250505092915050565b81810381811115611eef57611eef6128ca565b634e487b7160e01b600052604160045260246000fd5b634e487b7160e01b600052603260045260246000fd5b634e487b7160e01b600052603160045260246000fd5b838152606060208201526000612c2060608301856129c0565b9050826040830152949350505050565b604051610100810167ffffffffffffffff81118282101715612c5457612c54612bc5565b60405290565b6040805190810167ffffffffffffffff81118282101715612c5457612c54612bc5565b604051601f8201601f1916810167ffffffffffffffff81118282101715612ca657612ca6612bc5565b604052919050565b80516bffffffffffffffffffffffff81168114612cca57600080fd5b919050565b8051612cca816128f3565b805163ffffffff81168114612cca57600080fd5b805160068110612cca57600080fd5b600067ffffffffffffffff821115612d1757612d17612bc5565b5060051b60200190565b600082601f830112612d3257600080fd5b81516020612d47612d4283612cfd565b612c7d565b8083825260208201915060208460051b870101935086841115612d6957600080fd5b602086015b84811015612d8c57612d7f81612cda565b8352918301918301612d6e565b509695505050505050565b600060208284031215612da957600080fd5b815167ffffffffffffffff80821115612dc157600080fd5b908301906101008286031215612dd657600080fd5b612dde612c30565b612de783612cae565b8152612df560208401612ccf565b602082015260408301516040820152612e1060608401612cda565b6060820152612e2160808401612cda565b6080820152612e3260a08401612cda565b60a0820152612e4360c08401612cee565b60c082015260e083015182811115612e5a57600080fd5b612e6687828601612d21565b60e08301525095945050505050565b82815260406020820152600061276d60408301846129c0565b8082028115828204841417611eef57611eef6128ca565b600082612ec257634e487b7160e01b600052601260045260246000fd5b500490565b600060018201612ed957612ed96128ca565b5060010190565b838152606060208201526000612ef960608301856129c0565b8281036040840152612f0b81856129c0565b9695505050505050565b6000806040808486031215612f2957600080fd5b8351925060208085015167ffffffffffffffff811115612f4857600080fd5b8501601f81018713612f5957600080fd5b8051612f67612d4282612cfd565b81815260069190911b82018301908381019089831115612f8657600080fd5b928401925b82841015612fd45785848b031215612fa35760008081fd5b612fab612c5a565b612fb485612cda565b8152612fc1868601612cae565b8187015282529285019290840190612f8b565b8096505050505050509250929050565b600081612ff357612ff36128ca565b506000190190565b60008151808452602080850194506020840160005b838110156129f15781516001600160a01b031687529582019590820190600101613010565b60808152600061304860808301876129c0565b828103602084015261305a8187612ffb565b9050828103604084015261306e8186612ffb565b9050828103606084015261308281856129c0565b979650505050505050565b60006020828403121561309f57600080fd5b505191905056fea2646970667358221220a6f07913805368e3dcb5daf229af5a2168b5eec0839a5fd004a25ee366d25b9e64736f6c63430008170033",
  "linkReferences": {},
  "deployedLinkReferences": {}
}