{
  "_format": "hh-sol-artifact-1",
  "contractName": "StakingVerifier",
  "sourceName": "contracts/staking/StakingVerifier.sol",
  "abi": [
    {
      "inputs": [
        {
          "internalType": "address",
          "name": "_olas",
          "type": "address"
        },
        {
          "internalType": "uint256",
          "name": "_rewardsPerSecondLimit",
          "type": "uint256"
        }
      ],
      "stateMutability": "nonpayable",
      "type": "constructor"
    },
    {
      "inputs": [
        {
          "internalType": "address",
          "name": "sender",
          "type": "address"
        },
        {
          "internalType": "address",
          "name": "owner",
          "type": "address"
        }
      ],
      "name": "OwnerOnly",
      "type": "error"
    },
    {
      "inputs": [
        {
          "internalType": "uint256",
          "name": "numValues1",
          "type": "uint256"
        },
        {
          "internalType": "uint256",
          "name": "numValues2",
          "type": "uint256"
        }
      ],
      "name": "WrongArrayLength",
      "type": "error"
    },
    {
      "inputs": [],
      "name": "ZeroAddress",
      "type": "error"
    },
    {
      "inputs": [],
      "name": "ZeroValue",
      "type": "error"
    },
    {
      "anonymous": false,
      "inputs": [
        {
          "indexed": false,
          "internalType": "address[]",
          "name": "implementations",
          "type": "address[]"
        },
        {
          "indexed": false,
          "internalType": "bool[]",
          "name": "statuses",
          "type": "bool[]"
        },
        {
          "indexed": false,
          "internalType": "bool",
          "name": "setCheck",
          "type": "bool"
        }
      ],
      "name": "ImplementationsWhitelistUpdated",
      "type": "event"
    },
    {
      "anonymous": false,
      "inputs": [
        {
          "indexed": true,
          "internalType": "address",
          "name": "owner",
          "type": "address"
        }
      ],
      "name": "OwnerUpdated",
      "type": "event"
    },
    {
      "anonymous": false,
      "inputs": [
        {
          "indexed": false,
          "internalType": "bool",
          "name": "setCheck",
          "type": "bool"
        }
      ],
      "name": "SetImplementationsCheck",
      "type": "event"
    },
    {
      "inputs": [
        {
          "internalType": "address",
          "name": "newOwner",
          "type": "address"
        }
      ],
      "name": "changeOwner",
      "outputs": [],
      "stateMutability": "nonpayable",
      "type": "function"
    },
    {
      "inputs": [
        {
          "internalType": "uint256",
          "name": "_rewardsPerSecondLimit",
          "type": "uint256"
        }
      ],
      "name": "changeStakingLimits",
      "outputs": [],
      "stateMutability": "nonpayable",
      "type": "function"
    },
    {
      "inputs": [],
      "name": "implementationsCheck",
      "outputs": [
        {
          "internalType": "bool",
          "name": "",
          "type": "bool"
        }
      ],
      "stateMutability": "view",
      "type": "function"
    },
    {
      "inputs": [
        {
          "internalType": "address",
          "name": "",
          "type": "address"
        }
      ],
      "name": "mapImplementations",
      "outputs": [
        {
          "internalType": "bool",
          "name": "",
          "type": "bool"
        }
      ],
      "stateMutability": "view",
      "type": "function"
    },
    {
      "inputs": [],
      "name": "olas",
      "outputs": [
        {
          "internalType": "address",
          "name": "",
          "type": "address"
        }
      ],
      "stateMutability": "view",
      "type": "function"
    },
    {
      "inputs": [],
      "name": "owner",
      "outputs": [
        {
          "internalType": "address",
          "name": "",
          "type": "address"
        }
      ],
      "stateMutability": "view",
      "type": "function"
    },
    {
      "inputs": [],
      "name": "rewardsPerSecondLimit",
      "outputs": [
        {
          "internalType": "uint256",
          "name": "",
          "type": "uint256"
        }
      ],
      "stateMutability": "view",
      "type": "function"
    },
    {
      "inputs": [
        {
          "internalType": "bool",
          "name": "setCheck",
          "type": "bool"
        }
      ],
      "name": "setImplementationsCheck",
      "outputs": [],
      "stateMutability": "nonpayable",
      "type": "function"
    },
    {
      "inputs": [
        {
          "internalType": "address[]",
          "name": "implementations",
          "type": "address[]"
        },
        {
          "internalType": "bool[]",
          "name": "statuses",
          "type": "bool[]"
        },
        {
          "internalType": "bool",
          "name": "setCheck",
          "type": "bool"
        }
      ],
      "name": "setImplementationsStatuses",
      "outputs": [],
      "stateMutability": "nonpayable",
      "type": "function"
    },
    {
      "inputs": [
        {
          "internalType": "address",
          "name": "implementation",
          "type": "address"
        }
      ],
      "name": "verifyImplementation",
      "outputs": [
        {
          "internalType": "bool",
          "name": "",
          "type": "bool"
        }
      ],
      "stateMutability": "view",
      "type": "function"
    },
    {
      "inputs": [
        {
          "internalType": "address",
          "name": "instance",
          "type": "address"
        },
        {
          "internalType": "address",
          "name": "implementation",
          "type": "address"
        }
      ],
      "name": "verifyInstance",
      "outputs": [
        {
          "internalType": "bool",
          "name": "",
          "type": "bool"
        }
      ],
      "stateMutability": "view",
      "type": "function"
    }
  ],
  "bytecode": "0x60a060405234801561001057600080fd5b50604051610b89380380610b8983398101604081905261002f916100a0565b6001600160a01b0382166100565760405163d92e233d60e01b815260040160405180910390fd5b8060000361007757604051637c946ed760e01b815260040160405180910390fd5b600180546001600160a01b031916331790556001600160a01b03919091166080526000556100da565b600080604083850312156100b357600080fd5b82516001600160a01b03811681146100ca57600080fd5b6020939093015192949293505050565b608051610a8e6100fb6000396000818160d201526104b40152610a8e6000f3fe608060405234801561001057600080fd5b50600436106100c85760003560e01c806396324ed611610081578063c44684181161005b578063c4468418146101b8578063c78c050e146101cb578063fcf7684e146101e257600080fd5b806396324ed61461017f5780639dea4ba614610192578063a6f9dae1146101a557600080fd5b80630d93650c116100b25780630d93650c1461012657806369be670b146101595780638da5cb5b1461016c57600080fd5b806231d115146100cd5780630bea55ed14610111575b600080fd5b6100f47f000000000000000000000000000000000000000000000000000000000000000081565b6040516001600160a01b0390911681526020015b60405180910390f35b61012461011f366004610814565b6101f6565b005b6101496101343660046108e6565b60026020526000908152604090205460ff1681565b6040519015158152602001610108565b61014961016736600461090a565b610390565b6001546100f4906001600160a01b031681565b61014961018d3660046108e6565b610503565b6101246101a0366004610943565b61053f565b6101246101b33660046108e6565b6105a5565b6101246101c636600461095c565b61066e565b6101d460005481565b604051908152602001610108565b60015461014990600160a01b900460ff1681565b6001546001600160a01b0316331461023b5760015460405163521eb56d60e11b81526001600160a01b0390911660048201523360248201526044015b60405180910390fd5b8251158061024b57508151835114155b1561027657825182516040516308151c1160e41b815260048101929092526024820152604401610232565b6001805460ff60a01b1916600160a01b8315150217905560005b835181101561034f5760006001600160a01b03168482815181106102b6576102b6610977565b60200260200101516001600160a01b0316036102e55760405163d92e233d60e01b815260040160405180910390fd5b8281815181106102f7576102f7610977565b60200260200101516002600086848151811061031557610315610977565b6020908102919091018101516001600160a01b03168252810191909152604001600020805460ff1916911515919091179055600101610290565b507fa75993bdbe9ad771324babfee934d208587d3321632d15aa92547ee7122635418383836040516103839392919061098d565b60405180910390a1505050565b600154600090600160a01b900460ff1680156103c557506001600160a01b03821660009081526002602052604090205460ff16155b156103d2575060006104fd565b6000836001600160a01b031663eacdaabc6040518163ffffffff1660e01b8152600401602060405180830381865afa158015610412573d6000803e3d6000fd5b505050506040513d601f19601f820116820180604052508101906104369190610a22565b905060005481111561044c5760009150506104fd565b6000846001600160a01b03166372f702f36040518163ffffffff1660e01b8152600401602060405180830381865afa15801561048c573d6000803e3d6000fd5b505050506040513d601f19601f820116820180604052508101906104b09190610a3b565b90507f00000000000000000000000000000000000000000000000000000000000000006001600160a01b0316816001600160a01b0316146104f6576000925050506104fd565b6001925050505b92915050565b600154600090600160a01b900460ff161561053757506001600160a01b031660009081526002602052604090205460ff1690565b506001919050565b6001546001600160a01b0316331461057f5760015460405163521eb56d60e11b81526001600160a01b039091166004820152336024820152604401610232565b806000036105a057604051637c946ed760e01b815260040160405180910390fd5b600055565b6001546001600160a01b031633146105e55760015460405163521eb56d60e11b81523360048201526001600160a01b039091166024820152604401610232565b6001600160a01b03811661060c5760405163d92e233d60e01b815260040160405180910390fd5b600180547fffffffffffffffffffffffff0000000000000000000000000000000000000000166001600160a01b0383169081179091556040517f4ffd725fc4a22075e9ec71c59edf9c38cdeb588a91b24fc5b61388c5be41282b90600090a250565b6001546001600160a01b031633146106ae5760015460405163521eb56d60e11b81526001600160a01b039091166004820152336024820152604401610232565b60018054821515600160a01b0260ff60a01b199091161790556040517fdc17e046a4e55c5445deae0e2503d60b1ce5ecce83a0dc62c9066bbc7f39db56906106fb90831515815260200190565b60405180910390a150565b634e487b7160e01b600052604160045260246000fd5b604051601f8201601f1916810167ffffffffffffffff8111828210171561074557610745610706565b604052919050565b600067ffffffffffffffff82111561076757610767610706565b5060051b60200190565b6001600160a01b038116811461078657600080fd5b50565b8035801515811461079957600080fd5b919050565b600082601f8301126107af57600080fd5b813560206107c46107bf8361074d565b61071c565b8083825260208201915060208460051b8701019350868411156107e657600080fd5b602086015b84811015610809576107fc81610789565b83529183019183016107eb565b509695505050505050565b60008060006060848603121561082957600080fd5b833567ffffffffffffffff8082111561084157600080fd5b818601915086601f83011261085557600080fd5b813560206108656107bf8361074d565b82815260059290921b8401810191818101908a84111561088457600080fd5b948201945b838610156108ab57853561089c81610771565b82529482019490820190610889565b975050870135925050808211156108c157600080fd5b506108ce8682870161079e565b9250506108dd60408501610789565b90509250925092565b6000602082840312156108f857600080fd5b813561090381610771565b9392505050565b6000806040838503121561091d57600080fd5b823561092881610771565b9150602083013561093881610771565b809150509250929050565b60006020828403121561095557600080fd5b5035919050565b60006020828403121561096e57600080fd5b61090382610789565b634e487b7160e01b600052603260045260246000fd5b606080825284519082018190526000906020906080840190828801845b828110156109cf5781516001600160a01b0316845292840192908401906001016109aa565b5050508381038285015285518082528683019183019060005b81811015610a065783511515835292840192918401916001016109e8565b505085151560408601529250610a1a915050565b949350505050565b600060208284031215610a3457600080fd5b5051919050565b600060208284031215610a4d57600080fd5b81516109038161077156fea2646970667358221220cd09a0e7c22e1ac63c3014437bdc32d6769fe0f67100e977e69b799c1d03d84e64736f6c63430008170033",
  "linkReferences": {},
  "deployedLinkReferences": {}
}