{
  "_format": "hh-sol-artifact-1",
  "contractName": "StakingToken",
  "sourceName": "contracts/staking/StakingToken.sol",
  "abi": [
    {
      "inputs": [],
      "name": "AlreadyInitialized",
      "type": "error"
    },
    {
      "inputs": [
        {
          "internalType": "address",
          "name": "activityChecker",
          "type": "address"
        }
      ],
      "name": "ContractOnly",
      "type": "error"
    },
    {
      "inputs": [
        {
          "internalType": "uint256",
          "name": "provided",
          "type": "uint256"
        },
        {
          "internalType": "uint256",
          "name": "expected",
          "type": "uint256"
        }
      ],
      "name": "LowerThan",
      "type": "error"
    },
    {
      "inputs": [
        {
          "internalType": "uint256",
          "name": "maxNumServices",
          "type": "uint256"
        }
      ],
      "name": "MaxNumServicesReached",
      "type": "error"
    },
    {
      "inputs": [],
      "name": "NoRewardsAvailable",
      "type": "error"
    },
    {
      "inputs": [
        {
          "internalType": "uint256",
          "name": "serviceId",
          "type": "uint256"
        },
        {
          "internalType": "uint256",
          "name": "tsProvided",
          "type": "uint256"
        },
        {
          "internalType": "uint256",
          "name": "tsExpected",
          "type": "uint256"
        }
      ],
      "name": "NotEnoughTimeStaked",
      "type": "error"
    },
    {
      "inputs": [
        {
          "internalType": "address",
          "name": "sender",
          "type": "address"
        },
        {
          "internalType": "address",
          "name": "owner",
          "type": "address"
        }
      ],
      "name": "OwnerOnly",
      "type": "error"
    },
    {
      "inputs": [
        {
          "internalType": "uint256",
          "name": "serviceId",
          "type": "uint256"
        }
      ],
      "name": "ServiceNotUnstaked",
      "type": "error"
    },
    {
      "inputs": [
        {
          "internalType": "address",
          "name": "token",
          "type": "address"
        },
        {
          "internalType": "address",
          "name": "from",
          "type": "address"
        },
        {
          "internalType": "address",
          "name": "to",
          "type": "address"
        },
        {
          "internalType": "uint256",
          "name": "value",
          "type": "uint256"
        }
      ],
      "name": "TokenTransferFailed",
      "type": "error"
    },
    {
      "inputs": [
        {
          "internalType": "address",
          "name": "multisig",
          "type": "address"
        }
      ],
      "name": "UnauthorizedMultisig",
      "type": "error"
    },
    {
      "inputs": [
        {
          "internalType": "uint256",
          "name": "provided",
          "type": "uint256"
        },
        {
          "internalType": "uint256",
          "name": "expected",
          "type": "uint256"
        }
      ],
      "name": "ValueLowerThan",
      "type": "error"
    },
    {
      "inputs": [
        {
          "internalType": "uint256",
          "name": "agentId",
          "type": "uint256"
        }
      ],
      "name": "WrongAgentId",
      "type": "error"
    },
    {
      "inputs": [
        {
          "internalType": "uint256",
          "name": "serviceId",
          "type": "uint256"
        }
      ],
      "name": "WrongServiceConfiguration",
      "type": "error"
    },
    {
      "inputs": [
        {
          "internalType": "uint256",
          "name": "state",
          "type": "uint256"
        },
        {
          "internalType": "uint256",
          "name": "serviceId",
          "type": "uint256"
        }
      ],
      "name": "WrongServiceState",
      "type": "error"
    },
    {
      "inputs": [
        {
          "internalType": "address",
          "name": "expected",
          "type": "address"
        },
        {
          "internalType": "address",
          "name": "provided",
          "type": "address"
        }
      ],
      "name": "WrongStakingToken",
      "type": "error"
    },
    {
      "inputs": [],
      "name": "ZeroAddress",
      "type": "error"
    },
    {
      "inputs": [],
      "name": "ZeroTokenAddress",
      "type": "error"
    },
    {
      "inputs": [],
      "name": "ZeroValue",
      "type": "error"
    },
    {
      "anonymous": false,
      "inputs": [
        {
          "indexed": true,
          "internalType": "uint256",
          "name": "epoch",
          "type": "uint256"
        },
        {
          "indexed": false,
          "internalType": "uint256",
          "name": "availableRewards",
          "type": "uint256"
        },
        {
          "indexed": false,
          "internalType": "uint256[]",
          "name": "serviceIds",
          "type": "uint256[]"
        },
        {
          "indexed": false,
          "internalType": "uint256[]",
          "name": "rewards",
          "type": "uint256[]"
        },
        {
          "indexed": false,
          "internalType": "uint256",
          "name": "epochLength",
          "type": "uint256"
        }
      ],
      "name": "Checkpoint",
      "type": "event"
    },
    {
      "anonymous": false,
      "inputs": [
        {
          "indexed": true,
          "internalType": "address",
          "name": "sender",
          "type": "address"
        },
        {
          "indexed": false,
          "internalType": "uint256",
          "name": "amount",
          "type": "uint256"
        },
        {
          "indexed": false,
          "internalType": "uint256",
          "name": "balance",
          "type": "uint256"
        },
        {
          "indexed": false,
          "internalType": "uint256",
          "name": "availableRewards",
          "type": "uint256"
        }
      ],
      "name": "Deposit",
      "type": "event"
    },
    {
      "anonymous": false,
      "inputs": [
        {
          "indexed": false,
          "internalType": "uint256",
          "name": "epoch",
          "type": "uint256"
        },
        {
          "indexed": true,
          "internalType": "uint256",
          "name": "serviceId",
          "type": "uint256"
        },
        {
          "indexed": true,
          "internalType": "address",
          "name": "owner",
          "type": "address"
        },
        {
          "indexed": true,
          "internalType": "address",
          "name": "multisig",
          "type": "address"
        },
        {
          "indexed": false,
          "internalType": "uint256[]",
          "name": "nonces",
          "type": "uint256[]"
        },
        {
          "indexed": false,
          "internalType": "uint256",
          "name": "reward",
          "type": "uint256"
        }
      ],
      "name": "RewardClaimed",
      "type": "event"
    },
    {
      "anonymous": false,
      "inputs": [
        {
          "indexed": false,
          "internalType": "uint256",
          "name": "epoch",
          "type": "uint256"
        },
        {
          "indexed": true,
          "internalType": "uint256",
          "name": "serviceId",
          "type": "uint256"
        },
        {
          "indexed": false,
          "internalType": "uint256",
          "name": "serviceInactivity",
          "type": "uint256"
        }
      ],
      "name": "ServiceInactivityWarning",
      "type": "event"
    },
    {
      "anonymous": false,
      "inputs": [
        {
          "indexed": false,
          "internalType": "uint256",
          "name": "epoch",
          "type": "uint256"
        },
        {
          "indexed": true,
          "internalType": "uint256",
          "name": "serviceId",
          "type": "uint256"
        },
        {
          "indexed": true,
          "internalType": "address",
          "name": "owner",
          "type": "address"
        },
        {
          "indexed": true,
          "internalType": "address",
          "name": "multisig",
          "type": "address"
        },
        {
          "indexed": false,
          "internalType": "uint256[]",
          "name": "nonces",
          "type": "uint256[]"
        }
      ],
      "name": "ServiceStaked",
      "type": "event"
    },
    {
      "anonymous": false,
      "inputs": [
        {
          "indexed": false,
          "internalType": "uint256",
          "name": "epoch",
          "type": "uint256"
        },
        {
          "indexed": true,
          "internalType": "uint256",
          "name": "serviceId",
          "type": "uint256"
        },
        {
          "indexed": true,
          "internalType": "address",
          "name": "owner",
          "type": "address"
        },
        {
          "indexed": true,
          "internalType": "address",
          "name": "multisig",
          "type": "address"
        },
        {
          "indexed": false,
          "internalType": "uint256[]",
          "name": "nonces",
          "type": "uint256[]"
        },
        {
          "indexed": false,
          "internalType": "uint256",
          "name": "reward",
          "type": "uint256"
        }
      ],
      "name": "ServiceUnstaked",
      "type": "event"
    },
    {
      "anonymous": false,
      "inputs": [
        {
          "indexed": true,
          "internalType": "uint256",
          "name": "epoch",
          "type": "uint256"
        },
        {
          "indexed": false,
          "internalType": "uint256[]",
          "name": "serviceIds",
          "type": "uint256[]"
        },
        {
          "indexed": false,
          "internalType": "address[]",
          "name": "owners",
          "type": "address[]"
        },
        {
          "indexed": false,
          "internalType": "address[]",
          "name": "multisigs",
          "type": "address[]"
        },
        {
          "indexed": false,
          "internalType": "uint256[]",
          "name": "serviceInactivity",
          "type": "uint256[]"
        }
      ],
      "name": "ServicesEvicted",
      "type": "event"
    },
    {
      "anonymous": false,
      "inputs": [
        {
          "indexed": true,
          "internalType": "address",
          "name": "to",
          "type": "address"
        },
        {
          "indexed": false,
          "internalType": "uint256",
          "name": "amount",
          "type": "uint256"
        }
      ],
      "name": "Withdraw",
      "type": "event"
    },
    {
      "inputs": [],
      "name": "VERSION",
      "outputs": [
        {
          "internalType": "string",
          "name": "",
          "type": "string"
        }
      ],
      "stateMutability": "view",
      "type": "function"
    },
    {
      "inputs": [],
      "name": "activityChecker",
      "outputs": [
        {
          "internalType": "address",
          "name": "",
          "type": "address"
        }
      ],
      "stateMutability": "view",
      "type": "function"
    },
    {
      "inputs": [
        {
          "internalType": "uint256",
          "name": "",
          "type": "uint256"
        }
      ],
      "name": "agentIds",
      "outputs": [
        {
          "internalType": "uint256",
          "name": "",
          "type": "uint256"
        }
      ],
      "stateMutability": "view",
      "type": "function"
    },
    {
      "inputs": [],
      "name": "availableRewards",
      "outputs": [
        {
          "internalType": "uint256",
          "name": "",
          "type": "uint256"
        }
      ],
      "stateMutability": "view",
      "type": "function"
    },
    {
      "inputs": [],
      "name": "balance",
      "outputs": [
        {
          "internalType": "uint256",
          "name": "",
          "type": "uint256"
        }
      ],
      "stateMutability": "view",
      "type": "function"
    },
    {
      "inputs": [
        {
          "internalType": "uint256",
          "name": "serviceId",
          "type": "uint256"
        }
      ],
      "name": "calculateStakingLastReward",
      "outputs": [
        {
          "internalType": "uint256",
          "name": "reward",
          "type": "uint256"
        }
      ],
      "stateMutability": "view",
      "type": "function"
    },
    {
      "inputs": [
        {
          "internalType": "uint256",
          "name": "serviceId",
          "type": "uint256"
        }
      ],
      "name": "calculateStakingReward",
      "outputs": [
        {
          "internalType": "uint256",
          "name": "reward",
          "type": "uint256"
        }
      ],
      "stateMutability": "view",
      "type": "function"
    },
    {
      "inputs": [],
      "name": "checkpoint",
      "outputs": [
        {
          "internalType": "uint256[]",
          "name": "",
          "type": "uint256[]"
        },
        {
          "internalType": "uint256[][]",
          "name": "",
          "type": "uint256[][]"
        },
        {
          "internalType": "uint256[]",
          "name": "",
          "type": "uint256[]"
        },
        {
          "internalType": "uint256[]",
          "name": "",
          "type": "uint256[]"
        },
        {
          "internalType": "uint256[]",
          "name": "evictServiceIds",
          "type": "uint256[]"
        }
      ],
      "stateMutability": "nonpayable",
      "type": "function"
    },
    {
      "inputs": [
        {
          "internalType": "uint256",
          "name": "serviceId",
          "type": "uint256"
        }
      ],
      "name": "claim",
      "outputs": [
        {
          "internalType": "uint256",
          "name": "reward",
          "type": "uint256"
        }
      ],
      "stateMutability": "nonpayable",
      "type": "function"
    },
    {
      "inputs": [],
      "name": "configHash",
      "outputs": [
        {
          "internalType": "bytes32",
          "name": "",
          "type": "bytes32"
        }
      ],
      "stateMutability": "view",
      "type": "function"
    },
    {
      "inputs": [
        {
          "internalType": "uint256",
          "name": "amount",
          "type": "uint256"
        }
      ],
      "name": "deposit",
      "outputs": [],
      "stateMutability": "nonpayable",
      "type": "function"
    },
    {
      "inputs": [],
      "name": "epochCounter",
      "outputs": [
        {
          "internalType": "uint256",
          "name": "",
          "type": "uint256"
        }
      ],
      "stateMutability": "view",
      "type": "function"
    },
    {
      "inputs": [],
      "name": "getAgentIds",
      "outputs": [
        {
          "internalType": "uint256[]",
          "name": "",
          "type": "uint256[]"
        }
      ],
      "stateMutability": "view",
      "type": "function"
    },
    {
      "inputs": [],
      "name": "getNextRewardCheckpointTimestamp",
      "outputs": [
        {
          "internalType": "uint256",
          "name": "tsNext",
          "type": "uint256"
        }
      ],
      "stateMutability": "view",
      "type": "function"
    },
    {
      "inputs": [],
      "name": "getServiceIds",
      "outputs": [
        {
          "internalType": "uint256[]",
          "name": "",
          "type": "uint256[]"
        }
      ],
      "stateMutability": "view",
      "type": "function"
    },
    {
      "inputs": [
        {
          "internalType": "uint256",
          "name": "serviceId",
          "type": "uint256"
        }
      ],
      "name": "getServiceInfo",
      "outputs": [
        {
          "components": [
            {
              "internalType": "address",
              "name": "multisig",
              "type": "address"
            },
            {
              "internalType": "address",
              "name": "owner",
              "type": "address"
            },
            {
              "internalType": "uint256[]",
              "name": "nonces",
              "type": "uint256[]"
            },
            {
              "internalType": "uint256",
              "name": "tsStart",
              "type": "uint256"
            },
            {
              "internalType": "uint256",
              "name": "reward",
              "type": "uint256"
            },
            {
              "internalType": "uint256",
              "name": "inactivity",
              "type": "uint256"
            }
          ],
          "internalType": "struct ServiceInfo",
          "name": "sInfo",
          "type": "tuple"
        }
      ],
      "stateMutability": "view",
      "type": "function"
    },
    {
      "inputs": [
        {
          "internalType": "uint256",
          "name": "serviceId",
          "type": "uint256"
        }
      ],
      "name": "getStakingState",
      "outputs": [
        {
          "internalType": "enum StakingBase.StakingState",
          "name": "stakingState",
          "type": "uint8"
        }
      ],
      "stateMutability": "view",
      "type": "function"
    },
    {
      "inputs": [
        {
          "components": [
            {
              "internalType": "bytes32",
              "name": "metadataHash",
              "type": "bytes32"
            },
            {
              "internalType": "uint256",
              "name": "maxNumServices",
              "type": "uint256"
            },
            {
              "internalType": "uint256",
              "name": "rewardsPerSecond",
              "type": "uint256"
            },
            {
              "internalType": "uint256",
              "name": "minStakingDeposit",
              "type": "uint256"
            },
            {
              "internalType": "uint256",
              "name": "minNumStakingPeriods",
              "type": "uint256"
            },
            {
              "internalType": "uint256",
              "name": "maxNumInactivityPeriods",
              "type": "uint256"
            },
            {
              "internalType": "uint256",
              "name": "livenessPeriod",
              "type": "uint256"
            },
            {
              "internalType": "uint256",
              "name": "numAgentInstances",
              "type": "uint256"
            },
            {
              "internalType": "uint256[]",
              "name": "agentIds",
              "type": "uint256[]"
            },
            {
              "internalType": "uint256",
              "name": "threshold",
              "type": "uint256"
            },
            {
              "internalType": "bytes32",
              "name": "configHash",
              "type": "bytes32"
            },
            {
              "internalType": "bytes32",
              "name": "proxyHash",
              "type": "bytes32"
            },
            {
              "internalType": "address",
              "name": "serviceRegistry",
              "type": "address"
            },
            {
              "internalType": "address",
              "name": "activityChecker",
              "type": "address"
            }
          ],
          "internalType": "struct StakingBase.StakingParams",
          "name": "_stakingParams",
          "type": "tuple"
        },
        {
          "internalType": "address",
          "name": "_serviceRegistryTokenUtility",
          "type": "address"
        },
        {
          "internalType": "address",
          "name": "_stakingToken",
          "type": "address"
        }
      ],
      "name": "initialize",
      "outputs": [],
      "stateMutability": "nonpayable",
      "type": "function"
    },
    {
      "inputs": [],
      "name": "livenessPeriod",
      "outputs": [
        {
          "internalType": "uint256",
          "name": "",
          "type": "uint256"
        }
      ],
      "stateMutability": "view",
      "type": "function"
    },
    {
      "inputs": [
        {
          "internalType": "uint256",
          "name": "",
          "type": "uint256"
        }
      ],
      "name": "mapServiceInfo",
      "outputs": [
        {
          "internalType": "address",
          "name": "multisig",
          "type": "address"
        },
        {
          "internalType": "address",
          "name": "owner",
          "type": "address"
        },
        {
          "internalType": "uint256",
          "name": "tsStart",
          "type": "uint256"
        },
        {
          "internalType": "uint256",
          "name": "reward",
          "type": "uint256"
        },
        {
          "internalType": "uint256",
          "name": "inactivity",
          "type": "uint256"
        }
      ],
      "stateMutability": "view",
      "type": "function"
    },
    {
      "inputs": [],
      "name": "maxInactivityDuration",
      "outputs": [
        {
          "internalType": "uint256",
          "name": "",
          "type": "uint256"
        }
      ],
      "stateMutability": "view",
      "type": "function"
    },
    {
      "inputs": [],
      "name": "maxNumInactivityPeriods",
      "outputs": [
        {
          "internalType": "uint256",
          "name": "",
          "type": "uint256"
        }
      ],
      "stateMutability": "view",
      "type": "function"
    },
    {
      "inputs": [],
      "name": "maxNumServices",
      "outputs": [
        {
          "internalType": "uint256",
          "name": "",
          "type": "uint256"
        }
      ],
      "stateMutability": "view",
      "type": "function"
    },
    {
      "inputs": [],
      "name": "metadataHash",
      "outputs": [
        {
          "internalType": "bytes32",
          "name": "",
          "type": "bytes32"
        }
      ],
      "stateMutability": "view",
      "type": "function"
    },
    {
      "inputs": [],
      "name": "minStakingDeposit",
      "outputs": [
        {
          "internalType": "uint256",
          "name": "",
          "type": "uint256"
        }
      ],
      "stateMutability": "view",
      "type": "function"
    },
    {
      "inputs": [],
      "name": "minStakingDuration",
      "outputs": [
        {
          "internalType": "uint256",
          "name": "",
          "type": "uint256"
        }
      ],
      "stateMutability": "view",
      "type": "function"
    },
    {
      "inputs": [],
      "name": "numAgentInstances",
      "outputs": [
        {
          "internalType": "uint256",
          "name": "",
          "type": "uint256"
        }
      ],
      "stateMutability": "view",
      "type": "function"
    },
    {
      "inputs": [
        {
          "internalType": "address",
          "name": "",
          "type": "address"
        },
        {
          "internalType": "address",
          "name": "",
          "type": "address"
        },
        {
          "internalType": "uint256",
          "name": "",
          "type": "uint256"
        },
        {
          "internalType": "bytes",
          "name": "",
          "type": "bytes"
        }
      ],
      "name": "onERC721Received",
      "outputs": [
        {
          "internalType": "bytes4",
          "name": "",
          "type": "bytes4"
        }
      ],
      "stateMutability": "nonpayable",
      "type": "function"
    },
    {
      "inputs": [],
      "name": "proxyHash",
      "outputs": [
        {
          "internalType": "bytes32",
          "name": "",
          "type": "bytes32"
        }
      ],
      "stateMutability": "view",
      "type": "function"
    },
    {
      "inputs": [],
      "name": "rewardsPerSecond",
      "outputs": [
        {
          "internalType": "uint256",
          "name": "",
          "type": "uint256"
        }
      ],
      "stateMutability": "view",
      "type": "function"
    },
    {
      "inputs": [],
      "name": "serviceRegistry",
      "outputs": [
        {
          "internalType": "address",
          "name": "",
          "type": "address"
        }
      ],
      "stateMutability": "view",
      "type": "function"
    },
    {
      "inputs": [],
      "name": "serviceRegistryTokenUtility",
      "outputs": [
        {
          "internalType": "address",
          "name": "",
          "type": "address"
        }
      ],
      "stateMutability": "view",
      "type": "function"
    },
    {
      "inputs": [
        {
          "internalType": "uint256",
          "name": "",
          "type": "uint256"
        }
      ],
      "name": "setServiceIds",
      "outputs": [
        {
          "internalType": "uint256",
          "name": "",
          "type": "uint256"
        }
      ],
      "stateMutability": "view",
      "type": "function"
    },
    {
      "inputs": [
        {
          "internalType": "uint256",
          "name": "serviceId",
          "type": "uint256"
        }
      ],
      "name": "stake",
      "outputs": [],
      "stateMutability": "nonpayable",
      "type": "function"
    },
    {
      "inputs": [],
      "name": "stakingToken",
      "outputs": [
        {
          "internalType": "address",
          "name": "",
          "type": "address"
        }
      ],
      "stateMutability": "view",
      "type": "function"
    },
    {
      "inputs": [],
      "name": "threshold",
      "outputs": [
        {
          "internalType": "uint256",
          "name": "",
          "type": "uint256"
        }
      ],
      "stateMutability": "view",
      "type": "function"
    },
    {
      "inputs": [],
      "name": "tsCheckpoint",
      "outputs": [
        {
          "internalType": "uint256",
          "name": "",
          "type": "uint256"
        }
      ],
      "stateMutability": "view",
      "type": "function"
    },
    {
      "inputs": [
        {
          "internalType": "uint256",
          "name": "serviceId",
          "type": "uint256"
        }
      ],
      "name": "unstake",
      "outputs": [
        {
          "internalType": "uint256",
          "name": "reward",
          "type": "uint256"
        }
      ],
      "stateMutability": "nonpayable",
      "type": "function"
    }
  ],
  "bytecode": "0x608060405234801561001057600080fd5b50613678806100206000396000f3fe608060405234801561001057600080fd5b50600436106102925760003560e01c80638f9e0a6211610160578063cbcf252a116100d8578063f189e85a1161008c578063f86ad2b611610071578063f86ad2b61461056c578063fd0bba8c14610575578063ffa1ad741461059557600080fd5b8063f189e85a1461055c578063f4dce7141461056457600080fd5b8063e77cdcc9116100bd578063e77cdcc914610537578063eacdaabc14610540578063eb338c961461054957600080fd5b8063cbcf252a1461051b578063e1f1176d1461052e57600080fd5b8063b15087601161012f578063b6b55f2511610114578063b6b55f25146104e6578063c2c4c5c1146104f9578063c5a1d7f01461051257600080fd5b8063b1508760146104c8578063b69ef8a8146104dd57600080fd5b80638f9e0a621461041d578063a0ed60e014610430578063a694fc3a14610439578063a74466ad1461044c57600080fd5b806352c824f51161020e5780637fbe2833116101c257806382a8ea58116101a757806382a8ea58146103e157806383f9eb2214610401578063879d90901461041457600080fd5b80637fbe2833146103c5578063809cee2f146103d857600080fd5b80635829c5ec116101f35780635829c5ec1461039457806368704c6c1461039d57806372f702f3146103b257600080fd5b806352c824f51461037857806356e760581461038157600080fd5b80632871405111610265578063379607f51161024a578063379607f5146103535780633e7329971461036657806342cde4e81461036f57600080fd5b806328714051146103155780632e17de781461034057600080fd5b806308ae7e541461029757806314b19c5a146102b3578063150b7a02146102bc57806316a751721461030c575b600080fd5b6102a0600c5481565b6040519081526020015b60405180910390f35b6102a0600e5481565b6102db6102ca366004612bfa565b630a85bd0160e11b95945050505050565b6040517fffffffff0000000000000000000000000000000000000000000000000000000090911681526020016102aa565b6102a060015481565b601554610328906001600160a01b031681565b6040516001600160a01b0390911681526020016102aa565b6102a061034e366004612c99565b6105c6565b6102a0610361366004612c99565b610956565b6102a060115481565b6102a060075481565b6102a060055481565b6102a061038f366004612c99565b610a55565b6102a060065481565b6103b06103ab366004612dda565b610a76565b005b601654610328906001600160a01b031681565b6102a06103d3366004612c99565b610aec565b6102a060095481565b6103f46103ef366004612c99565b610bb6565b6040516102aa9190612f44565b6102a061040f366004612c99565b610cad565b6102a060105481565b600b54610328906001600160a01b031681565b6102a060045481565b6103b0610447366004612c99565b610d69565b61049561045a366004612c99565b601360205260009081526040902080546001820154600383015460048401546005909401546001600160a01b03938416949390921692909185565b604080516001600160a01b039687168152959094166020860152928401919091526060830152608082015260a0016102aa565b6104d0611263565b6040516102aa9190612fab565b6102a0600f5481565b6103b06104f4366004612c99565b6112bb565b61050161134a565b6040516102aa959493929190612fbe565b6102a060005481565b600a54610328906001600160a01b031681565b6102a060085481565b6102a060035481565b6102a060025481565b6102a0610557366004612c99565b6119d6565b6104d06119e6565b6102a0611a3c565b6102a0600d5481565b610588610583366004612c99565b611a53565b6040516102aa9190613083565b6105b9604051806040016040528060058152602001640302e312e360dc1b81525081565b6040516102aa91906130cf565b600081815260136020526040812060018101546001600160a01b0316331461061d57600181015460405163521eb56d60e11b81523360048201526001600160a01b0390911660248201526044015b60405180910390fd5b6003810154600061062e8242613118565b9050600c54811115801561064457506000601054115b1561067757600c5460405163ba2bbc6b60e01b815260048101879052602481018390526044810191909152606401610614565b60008061068261134a565b9450505050915081516000036106e35761069a6119e6565b9150815167ffffffffffffffff8111156106b6576106b6612cb2565b6040519080825280602002602001820160405280156106df578160200160208202803683370190505b5090505b6000805b8351821015610744578883838151811061070357610703613131565b60200260200101510315610744578884838151811061072457610724613131565b60200260200101510361073957506001610744565b8160010191506106e7565b8660040154975060008760020180548060200260200160405190810160405280929190818152602001828054801561079b57602002820191906000526020600020905b815481526020019060010190808311610787575b50508b5460008f815260136020526040812080546001600160a01b0319908116825560018201805490911690559596506001600160a01b0390911694935091506107ea90506002830182612b54565b50600060038201819055600482018190556005909101558215610879576014805461081790600190613118565b8154811061082757610827613131565b90600052602060002001546014858154811061084557610845613131565b600091825260209091200155601480548061086257610862613147565b600190038181906000526020600020016000905590555b600a54604051632142170760e11b8152306004820152336024820152604481018d90526001600160a01b03909116906342842e0e90606401600060405180830381600087803b1580156108cb57600080fd5b505af11580156108df573d6000803e3d6000fd5b5050505060008a11156108f6576108f6818b611b28565b806001600160a01b0316336001600160a01b03168c7f950733f4c0bf951b8e770f3cc619a4288e7b59b1236d59aeaf2c238488e8ae81600e54868f6040516109409392919061315d565b60405180910390a4505050505050505050919050565b600081815260136020526040812060018101546001600160a01b031633146109a857600181015460405163521eb56d60e11b81523360048201526001600160a01b039091166024820152604401610614565b6109b061134a565b505050505080600401549150816000036109dd57604051637c946ed760e01b815260040160405180910390fd5b6000600482015580546001600160a01b03166109f98184611b28565b806001600160a01b0316336001600160a01b0316857f31add0166dae59ea66bbc180e4fae85b72fc9b7b5fc7b0f7257e4721a840c96e600e548660020188604051610a4693929190613186565b60405180910390a45050919050565b60128181548110610a6557600080fd5b600091825260209091200154905081565b610a7f83611b9d565b6001600160a01b0381161580610a9c57506001600160a01b038216155b15610aba57604051636b093aad60e01b815260040160405180910390fd5b601680546001600160a01b039283166001600160a01b0319918216179091556015805493909216921691909117905550565b6000818152601360209081526040808320815160c08101835281546001600160a01b0390811682526001830154168185015260028201805484518187028101870186528181528796939586019390929190830182828015610b6c57602002820191906000526020600020905b815481526020019060010190808311610b58575b505050505081526020016003820154815260200160048201548152602001600582015481525050905080608001519150610ba583610cad565b610baf90836131e4565b9392505050565b610c016040518060c0016040528060006001600160a01b0316815260200160006001600160a01b03168152602001606081526020016000815260200160008152602001600081525090565b600082815260136020908152604091829020825160c08101845281546001600160a01b0390811682526001830154168184015260028201805485518186028101860187528181529295939493860193830182828015610c7f57602002820191906000526020600020905b815481526020019060010190808311610c6b575b5050505050815260200160038201548152602001600482015481526020016005820154815250509050919050565b600080600080600080610cbe611ee2565b5050509450945094509450945060005b84811015610d5e5787838281518110610ce957610ce9613131565b602002602001015103610d565785841115610d35578386838381518110610d1257610d12613131565b6020026020010151610d2491906131f7565b610d2e9190613224565b9650610d5e565b818181518110610d4757610d47613131565b60200260200101519650610d5e565b600101610cce565b505050505050919050565b601054600003610d8c5760405163afb0be3360e01b815260040160405180910390fd5b6000818152601360205260409020600381015415610dc05760405163b4817ce760e01b815260048101839052602401610614565b6014546001548103610deb5760015460405163fd20861560e01b815260040161061491815260200190565b600a5460405163ef0e239b60e01b8152600481018590526000916001600160a01b03169063ef0e239b90602401600060405180830381865afa158015610e35573d6000803e3d6000fd5b505050506040513d6000823e601f3d908101601f19168201604052610e5d91908101906132e8565b9050806080015163ffffffff1660065414610e8e57604051637ad404bf60e11b815260048101859052602401610614565b60085415801590610ea55750806040015160085414155b15610ec657604051637ad404bf60e11b815260048101859052602401610614565b6000600754118015610ee45750806060015163ffffffff1660075414155b15610f0557604051637ad404bf60e11b815260048101859052602401610614565b60048160c001516005811115610f1d57610f1d61306d565b14610f5c578060c001516005811115610f3857610f3861306d565b604051633c053f9d60e21b8152600481019190915260248101859052604401610614565b600081602001516001600160a01b0316803b806020016040519081016040528181526000908060200190933c8051906020012090508060095414610fc357602082015160405162a2307960e51b81526001600160a01b039091166004820152602401610614565b601254801561108c5760e083015151818114610ff557604051637ad404bf60e11b815260048101889052602401610614565b60005b81811015611089578460e00151818151811061101657611016613131565b602002602001015163ffffffff166012828154811061103757611037613131565b906000526020600020015414611081576012818154811061105a5761105a613131565b9060005260206000200154604051632ab10b0b60e21b815260040161061491815260200190565b600101610ff8565b50505b6110ad8684600001516bffffffffffffffffffffffff168560e00151612287565b602083015185546001600160a01b039182166001600160a01b0319918216811788556001880180549092163317909155600b5460405163d564c4bf60e01b81526004810192909252600092169063d564c4bf90602401600060405180830381865afa158015611120573d6000803e3d6000fd5b505050506040513d6000823e601f3d908101601f1916820160405261114891908101906133c6565b80519091506111609060028801906020840190612b75565b50426003870155601480546001810182556000919091527fce6d7b5282bd9a3661ae061feed1dbda4e52ab073b1f9285be6e155d9c38d4ec01879055600a54604051632142170760e11b8152336004820152306024820152604481018990526001600160a01b03909116906342842e0e90606401600060405180830381600087803b1580156111ee57600080fd5b505af1158015611202573d6000803e3d6000fd5b5050505083602001516001600160a01b0316336001600160a01b0316887faa6b005b4958114a0c90492461c24af6525ae0178db7fbf44125ae9217c69ccb600e5485604051611252929190613457565b60405180910390a450505050505050565b606060128054806020026020016040519081016040528092919081815260200182805480156112b157602002820191906000526020600020905b81548152602001906001019080831161129d575b5050505050905090565b600081600f546112cb91906131e4565b90506000826010546112dd91906131e4565b600f8390556010819055601654909150611302906001600160a01b0316333086612477565b604080518481526020810184905290810182905233907f36af321ec8d3c75236829c5317affd40ddb308863a1236d2d277a4025cccee1e9060600160405180910390a2505050565b6060806060806060600080600080600080600080611366611ee2565b97509750975097509750975097509750606080845167ffffffffffffffff81111561139357611393612cb2565b6040519080825280602002602001820160405280156113bc578160200160208202803683370190505b509a506000891561174f578967ffffffffffffffff8111156113e0576113e0612cb2565b604051908082528060200260200182016040528015611409578160200160208202803683370190505b5092508967ffffffffffffffff81111561142557611425612cb2565b60405190808252806020026020018201604052801561144e578160200160208202803683370190505b5091508a8911156116585760008060015b8c81101561154b578b8e8b838151811061147b5761147b613131565b602002602001015161148d91906131f7565b6114979190613224565b92506114a383836131e4565b91508a81815181106114b7576114b7613131565b602002602001015193508a81815181106114d3576114d3613131565b60200260200101518682815181106114ed576114ed613131565b6020026020010181815250508285828151811061150c5761150c613131565b6020026020010181815250508260136000868152602001908152602001600020600401600082825461153e91906131e4565b909155505060010161145f565b508a8d8a60008151811061156157611561613131565b602002602001015161157391906131f7565b61157d9190613224565b915061158982826131e4565b90508960008151811061159e5761159e613131565b60200260200101519250896000815181106115bb576115bb613131565b6020026020010151856000815181106115d6576115d6613131565b602002602001018181525050808d1115611601576115f4818e613118565b6115fe90836131e4565b91505b818460008151811061161557611615613131565b6020026020010181815250508160136000858152602001908152602001600020600401600082825461164791906131e4565b9091555060009d5061174992505050565b60005b8a81101561173b5788818151811061167557611675613131565b6020026020010151915088818151811061169157611691613131565b60200260200101518482815181106116ab576116ab613131565b6020026020010181815250508781815181106116c9576116c9613131565b60200260200101518382815181106116e3576116e3613131565b60200260200101818152505087818151811061170157611701613131565b602002602001015160136000848152602001908152602001600020600401600082825461172e91906131e4565b909155505060010161165b565b50611746898c613118565b9a505b60108b90555b8551156119c057600e5460009a508a5b87518110156119465787818151811061177a5761177a613131565b6020026020010151925086818151811061179657611796613131565b60200260200101516013600085815260200190815260200160002060020190805190602001906117c7929190612b75565b5060008682815181106117dc576117dc613131565b6020026020010151111561192b578581815181106117fc576117fc613131565b6020026020010151601360008581526020019081526020016000206005015461182591906131e4565b86828151811061183757611837613131565b60200260200101818152505085818151811061185557611855613131565b60200260200101516013600085815260200190815260200160002060050181905550600d5486828151811061188c5761188c613131565b602002602001015111156118ca57828e82815181106118ad576118ad613131565b60209081029190910101528b6118c281613478565b9c505061193e565b827f33dc5cdf1e035de8a7fe16ad7a30a441d30ee51719d3f07703ee35d4348f0779838884815181106118ff576118ff613131565b602002602001015160405161191e929190918252602082015260400190565b60405180910390a261193e565b6000838152601360205260408120600501555b60010161175f565b508a15611958576119588d868d612501565b6000601154426119689190613118565b4260115590506119798260016131e4565b600e81905550817f48b735a18ed32318d316214e41387be29c52e29df4598f2b8e40fa843be3f9408e8787856040516119b59493929190613491565b60405180910390a250505b50939e929d509b50919950969750505050505050565b60148181548110610a6557600080fd5b606060148054806020026020016040519081016040528092919081815260200182805480156112b1576020028201919060005260206000209081548152602001906001019080831161129d575050505050905090565b6000600554601154611a4e91906131e4565b905090565b6000818152601360209081526040808320815160c08101835281546001600160a01b0390811682526001830154168185015260028201805484518187028101870186528181528796939586019390929190830182828015611ad357602002820191906000526020600020905b815481526020019060010190808311611abf575b5050505050815260200160038201548152602001600482015481526020016005820154815250509050600d548160a001511115611b135760029150611b22565b606081015115611b2257600191505b50919050565b80600f6000828254611b3a9190613118565b9091555050601654611b56906001600160a01b031683836128c6565b816001600160a01b03167f884edad9ce6fa2440d8a54cc123490eb96d2768479d49ff9c7366125a942436482604051611b9191815260200190565b60405180910390a25050565b600a546001600160a01b031615611bc65760405162dc149f60e41b815260040160405180910390fd5b80511580611bd657506020810151155b80611be357506040810151155b80611bf0575060c0810151155b80611bfd575060e0810151155b80611c0a57506080810151155b80611c17575060a0810151155b15611c3557604051637c946ed760e01b815260040160405180910390fd5b8060a0015181608001511015611c7157608081015160a082015160405163491a2bb160e01b815260048101929092526024820152604401610614565b600281606001511015611ca757606081015160405163491a2bb160e01b8152600481019190915260026024820152604401610614565b6101808101516001600160a01b03161580611cce57506101a08101516001600160a01b0316155b15611cec5760405163d92e233d60e01b815260040160405180910390fd5b806101a001516001600160a01b03163b600003611d2e576101a081015160405163601c0c2160e01b81526001600160a01b039091166004820152602401610614565b8051600090815560208201516001556040820151600255606082015160035560a082015160045560c082015160055560e0820151600655610180820151600a80546001600160a01b039283166001600160a01b0319918216179091556101a0840151600b8054919093169116179055610120820151600755610140820151600855805b82610100015151811015611e8057818361010001518281518110611dd757611dd7613131565b602002602001015111611e1f578261010001518181518110611dfb57611dfb613131565b6020026020010151604051632ab10b0b60e21b815260040161061491815260200190565b8261010001518181518110611e3657611e36613131565b602090810291909101015160128054600181810183556000929092527fbb8a6a4669ba250d26cd7a459eca9d215f8307e33aebe50379bc5a3617ec34440182905590925001611db1565b50610160820151600003611ea757604051637c946ed760e01b815260040160405180910390fd5b6101608201516009556005546080830151611ec291906131f7565b600c5560055460a0830151611ed791906131f7565b600d55505042601155565b600080600060608060608060606000601154905060105498506005548142611f0a9190613118565b10158015611f185750600089115b1561227c576014548067ffffffffffffffff811115611f3957611f39612cb2565b604051908082528060200260200182016040528015611f62578160200160208202803683370190505b5094508067ffffffffffffffff811115611f7e57611f7e612cb2565b604051908082528060200260200182016040528015611fa7578160200160208202803683370190505b5096508067ffffffffffffffff811115611fc357611fc3612cb2565b604051908082528060200260200182016040528015611fec578160200160208202803683370190505b5095508067ffffffffffffffff81111561200857612008612cb2565b60405190808252806020026020018201604052801561203b57816020015b60608152602001906001900390816120265790505b5093508067ffffffffffffffff81111561205757612057612cb2565b604051908082528060200260200182016040528015612080578160200160208202803683370190505b50925060005b8181101561227957601481815481106120a1576120a1613131565b90600052602060002001548682815181106120be576120be613131565b6020026020010181815250506000601360008884815181106120e2576120e2613131565b602002602001015181526020019081526020016000209050600084905060008260030154905081811115612114578091505b61211e8242613118565b83546002850180546040805160208084028201810190925282815294955060009461218b946001600160a01b0316939092909183018282801561218057602002820191906000526020600020905b81548152602001906001019080831161216c575b505050505084612949565b8a878151811061219d5761219d613131565b60209081029190910101529050801561224a57816002546121be91906131f7565b8b8f815181106121d0576121d0613131565b6020026020010181815250508a8e815181106121ee576121ee613131565b60200260200101518d61220191906131e4565b9c5089858151811061221557612215613131565b60200260200101518c8f8151811061222f5761222f613131565b60209081029190910101526122438e613478565b9d5061226a565b8188868151811061225d5761225d613131565b6020026020010181815250505b50505050806001019050612086565b50505b509091929394959697565b601554604051633cebfa4f60e01b81526004810185905260009182916001600160a01b0390911690633cebfa4f906024016040805180830381865afa1580156122d4573d6000803e3d6000fd5b505050506040513d601f19601f820116820180604052508101906122f891906134ce565b60165491935091506001600160a01b0380841691161461234257601654604051630b80380d60e31b81526001600160a01b0391821660048201529083166024820152604401610614565b6003546bffffffffffffffffffffffff821681111561238b57604051632b30b24760e21b81526bffffffffffffffffffffffff8316600482015260248101829052604401610614565b60005b845181101561246e5760155485516000916001600160a01b0316906375c1f934908a908990869081106123c3576123c3613131565b60200260200101516040518363ffffffff1660e01b81526004016123f792919091825263ffffffff16602082015260400190565b602060405180830381865afa158015612414573d6000803e3d6000fd5b505050506040513d601f19601f820116820180604052508101906124389190613503565b90508281101561246557604051632b30b24760e21b81526004810182905260248101849052604401610614565b5060010161238e565b50505050505050565b60006040516323b872dd60e01b6000528460045283602452826044526020600060646000808a5af13d15601f3d11600160005114161716915060006060528060405250806124fa5760405163abae3d6d60e01b81526001600160a01b03808716600483015280861660248301528416604482015260648101839052608401610614565b5050505050565b825160008267ffffffffffffffff81111561251e5761251e612cb2565b604051908082528060200260200182016040528015612547578160200160208202803683370190505b50905060008367ffffffffffffffff81111561256557612565612cb2565b60405190808252806020026020018201604052801561258e578160200160208202803683370190505b50905060008467ffffffffffffffff8111156125ac576125ac612cb2565b6040519080825280602002602001820160405280156125d5578160200160208202803683370190505b50905060008567ffffffffffffffff8111156125f3576125f3612cb2565b60405190808252806020026020018201604052801561261c578160200160208202803683370190505b50905060008667ffffffffffffffff81111561263a5761263a612cb2565b604051908082528060200260200182016040528015612663578160200160208202803683370190505b50905060008060005b888110156127c35760008c828151811061268857612688613131565b602002602001015111156127bb578b81815181106126a8576126a8613131565b60200260200101519150818884815181106126c5576126c5613131565b6020908102919091018101919091526000838152601390915260409020600181015488516001600160a01b039091169089908690811061270757612707613131565b6001600160a01b0392831660209182029290920101528154885191169088908690811061273657612736613131565b60200260200101906001600160a01b031690816001600160a01b0316815250508b828151811061276857612768613131565b602002602001015186858151811061278257612782613131565b602002602001018181525050818585815181106127a1576127a1613131565b6020908102919091010152836127b681613478565b945050505b60010161266c565b50885b801561287857886127d68161351c565b995060009050846127e8600184613118565b815181106127f8576127f8613131565b6020026020010151905060148a8154811061281557612815613131565b90600052602060002001546014828154811061283357612833613131565b600091825260209091200155601480548061285057612850613147565b6001900381819060005260206000200160009055905550806128719061351c565b90506127c6565b50600e547fd19a3d42ed383465e4058c322d9411aeac76ddb8454d22e139fc99808bd56952888888886040516128b1949392919061356d565b60405180910390a25050505050505050505050565b600060405163a9059cbb60e01b6000528360045282602452602060006044600080895af13d15601f3d11600160005114161716915060006060528060405250806129435760405163abae3d6d60e01b81526001600160a01b0380861660048301523060248301528416604482015260648101839052608401610614565b50505050565b600b54604080516001600160a01b0386811660248084019190915283518084039091018152604490920183526020820180517bffffffffffffffffffffffffffffffffffffffffffffffffffffffff1663d564c4bf60e01b17905291516000936060938593849391909216916129be916135ba565b600060405180830381855afa9150503d80600081146129f9576040519150601f19603f3d011682016040523d82523d6000602084013e6129fe565b606091505b5091509150818015612a115750603f8151115b8015612a28575060208151612a2691906135d6565b155b15612b4a5780806020019051810190612a4191906133c6565b600b546040519194506001600160a01b03169063184023a560e01b90612a6f9086908a908a906024016135ea565b60408051601f198184030181529181526020820180517bffffffffffffffffffffffffffffffffffffffffffffffffffffffff167fffffffff00000000000000000000000000000000000000000000000000000000909416939093179092529051612ada91906135ba565b600060405180830381855afa9150503d8060008114612b15576040519150601f19603f3d011682016040523d82523d6000602084013e612b1a565b606091505b509092509050818015612b2e575080516020145b15612b4a5780806020019051810190612b479190613620565b93505b5050935093915050565b5080546000825590600052602060002090810190612b729190612bc0565b50565b828054828255906000526020600020908101928215612bb0579160200282015b82811115612bb0578251825591602001919060010190612b95565b50612bbc929150612bc0565b5090565b5b80821115612bbc5760008155600101612bc1565b6001600160a01b0381168114612b7257600080fd5b8035612bf581612bd5565b919050565b600080600080600060808688031215612c1257600080fd5b8535612c1d81612bd5565b94506020860135612c2d81612bd5565b935060408601359250606086013567ffffffffffffffff80821115612c5157600080fd5b818801915088601f830112612c6557600080fd5b813581811115612c7457600080fd5b896020828501011115612c8657600080fd5b9699959850939650602001949392505050565b600060208284031215612cab57600080fd5b5035919050565b634e487b7160e01b600052604160045260246000fd5b6040516101c0810167ffffffffffffffff81118282101715612cec57612cec612cb2565b60405290565b604051610100810167ffffffffffffffff81118282101715612cec57612cec612cb2565b604051601f8201601f1916810167ffffffffffffffff81118282101715612d3f57612d3f612cb2565b604052919050565b600067ffffffffffffffff821115612d6157612d61612cb2565b5060051b60200190565b600082601f830112612d7c57600080fd5b81356020612d91612d8c83612d47565b612d16565b8083825260208201915060208460051b870101935086841115612db357600080fd5b602086015b84811015612dcf5780358352918301918301612db8565b509695505050505050565b600080600060608486031215612def57600080fd5b833567ffffffffffffffff80821115612e0757600080fd5b908501906101c08288031215612e1c57600080fd5b612e24612cc8565b823581526020830135602082015260408301356040820152606083013560608201526080830135608082015260a083013560a082015260c083013560c082015260e083013560e08201526101008084013583811115612e8257600080fd5b612e8e8a828701612d6b565b91830191909152506101208381013590820152610140808401359082015261016080840135908201526101809150612ec7828401612bea565b828201526101a09150612edb828401612bea565b82820152809550505050612ef160208501612bea565b9150612eff60408501612bea565b90509250925092565b60008151808452602080850194506020840160005b83811015612f3957815187529582019590820190600101612f1d565b509495945050505050565b6020815260006001600160a01b0380845116602084015280602085015116604084015250604083015160c06060840152612f8160e0840182612f08565b905060608401516080840152608084015160a084015260a084015160c08401528091505092915050565b602081526000610baf6020830184612f08565b60a081526000612fd160a0830188612f08565b6020838203818501528188518084528284019150828160051b850101838b0160005b8381101561302157601f1987840301855261300f838351612f08565b94860194925090850190600101612ff3565b50508681036040880152613035818b612f08565b945050505050828103606084015261304d8186612f08565b905082810360808401526130618185612f08565b98975050505050505050565b634e487b7160e01b600052602160045260246000fd5b60208101600383106130a557634e487b7160e01b600052602160045260246000fd5b91905290565b60005b838110156130c65781810151838201526020016130ae565b50506000910152565b60208152600082518060208401526130ee8160408501602087016130ab565b601f01601f19169190910160400192915050565b634e487b7160e01b600052601160045260246000fd5b8181038181111561312b5761312b613102565b92915050565b634e487b7160e01b600052603260045260246000fd5b634e487b7160e01b600052603160045260246000fd5b8381526060602082015260006131766060830185612f08565b9050826040830152949350505050565b600060608201858352602060606020850152818654808452608086019150876000526020600020935060005b818110156131ce578454835260019485019492840192016131b2565b5050809350505050826040830152949350505050565b8082018082111561312b5761312b613102565b808202811582820484141761312b5761312b613102565b634e487b7160e01b600052601260045260246000fd5b6000826132335761323361320e565b500490565b80516bffffffffffffffffffffffff81168114612bf557600080fd5b8051612bf581612bd5565b805163ffffffff81168114612bf557600080fd5b805160068110612bf557600080fd5b600082601f83011261329357600080fd5b815160206132a3612d8c83612d47565b8083825260208201915060208460051b8701019350868411156132c557600080fd5b602086015b84811015612dcf576132db8161325f565b83529183019183016132ca565b6000602082840312156132fa57600080fd5b815167ffffffffffffffff8082111561331257600080fd5b90830190610100828603121561332757600080fd5b61332f612cf2565b61333883613238565b815261334660208401613254565b6020820152604083015160408201526133616060840161325f565b60608201526133726080840161325f565b608082015261338360a0840161325f565b60a082015261339460c08401613273565b60c082015260e0830151828111156133ab57600080fd5b6133b787828601613282565b60e08301525095945050505050565b600060208083850312156133d957600080fd5b825167ffffffffffffffff8111156133f057600080fd5b8301601f8101851361340157600080fd5b805161340f612d8c82612d47565b81815260059190911b8201830190838101908783111561342e57600080fd5b928401925b8284101561344c57835182529284019290840190613433565b979650505050505050565b8281526040602082015260006134706040830184612f08565b949350505050565b60006001820161348a5761348a613102565b5060010190565b8481526080602082015260006134aa6080830186612f08565b82810360408401526134bc8186612f08565b91505082606083015295945050505050565b600080604083850312156134e157600080fd5b82516134ec81612bd5565b91506134fa60208401613238565b90509250929050565b60006020828403121561351557600080fd5b5051919050565b60008161352b5761352b613102565b506000190190565b60008151808452602080850194506020840160005b83811015612f395781516001600160a01b031687529582019590820190600101613548565b6080815260006135806080830187612f08565b82810360208401526135928187613533565b905082810360408401526135a68186613533565b9050828103606084015261344c8185612f08565b600082516135cc8184602087016130ab565b9190910192915050565b6000826135e5576135e561320e565b500690565b6060815260006135fd6060830186612f08565b828103602084015261360f8186612f08565b915050826040830152949350505050565b60006020828403121561363257600080fd5b81518015158114610baf57600080fdfea26469706673582212208493a59a792e2ebba88298c7ce6101c652306dc158a92220bb97f152e0a84dae64736f6c63430008170033",
  "linkReferences": {},
  "deployedLinkReferences": {}
}