{
  "_format": "hh-sol-artifact-1",
  "contractName": "StakingToken",
  "sourceName": "contracts/staking/StakingToken.sol",
  "abi": [
    {
      "inputs": [],
      "name": "AlreadyInitialized",
      "type": "error"
    },
    {
      "inputs": [
        {
          "internalType": "uint256",
          "name": "provided",
          "type": "uint256"
        },
        {
          "internalType": "uint256",
          "name": "expected",
          "type": "uint256"
        }
      ],
      "name": "LowerThan",
      "type": "error"
    },
    {
      "inputs": [
        {
          "internalType": "uint256",
          "name": "maxNumServices",
          "type": "uint256"
        }
      ],
      "name": "MaxNumServicesReached",
      "type": "error"
    },
    {
      "inputs": [],
      "name": "NoRewardsAvailable",
      "type": "error"
    },
    {
      "inputs": [
        {
          "internalType": "uint256",
          "name": "serviceId",
          "type": "uint256"
        },
        {
          "internalType": "uint256",
          "name": "tsProvided",
          "type": "uint256"
        },
        {
          "internalType": "uint256",
          "name": "tsExpected",
          "type": "uint256"
        }
      ],
      "name": "NotEnoughTimeStaked",
      "type": "error"
    },
    {
      "inputs": [
        {
          "internalType": "address",
          "name": "sender",
          "type": "address"
        },
        {
          "internalType": "address",
          "name": "owner",
          "type": "address"
        }
      ],
      "name": "OwnerOnly",
      "type": "error"
    },
    {
      "inputs": [
        {
          "internalType": "uint256",
          "name": "serviceId",
          "type": "uint256"
        }
      ],
      "name": "ServiceNotUnstaked",
      "type": "error"
    },
    {
      "inputs": [
        {
          "internalType": "address",
          "name": "token",
          "type": "address"
        },
        {
          "internalType": "address",
          "name": "from",
          "type": "address"
        },
        {
          "internalType": "address",
          "name": "to",
          "type": "address"
        },
        {
          "internalType": "uint256",
          "name": "value",
          "type": "uint256"
        }
      ],
      "name": "TokenTransferFailed",
      "type": "error"
    },
    {
      "inputs": [
        {
          "internalType": "address",
          "name": "multisig",
          "type": "address"
        }
      ],
      "name": "UnauthorizedMultisig",
      "type": "error"
    },
    {
      "inputs": [
        {
          "internalType": "uint256",
          "name": "provided",
          "type": "uint256"
        },
        {
          "internalType": "uint256",
          "name": "expected",
          "type": "uint256"
        }
      ],
      "name": "ValueLowerThan",
      "type": "error"
    },
    {
      "inputs": [
        {
          "internalType": "uint256",
          "name": "agentId",
          "type": "uint256"
        }
      ],
      "name": "WrongAgentId",
      "type": "error"
    },
    {
      "inputs": [
        {
          "internalType": "uint256",
          "name": "serviceId",
          "type": "uint256"
        }
      ],
      "name": "WrongServiceConfiguration",
      "type": "error"
    },
    {
      "inputs": [
        {
          "internalType": "uint256",
          "name": "state",
          "type": "uint256"
        },
        {
          "internalType": "uint256",
          "name": "serviceId",
          "type": "uint256"
        }
      ],
      "name": "WrongServiceState",
      "type": "error"
    },
    {
      "inputs": [
        {
          "internalType": "address",
          "name": "expected",
          "type": "address"
        },
        {
          "internalType": "address",
          "name": "provided",
          "type": "address"
        }
      ],
      "name": "WrongStakingToken",
      "type": "error"
    },
    {
      "inputs": [],
      "name": "ZeroAddress",
      "type": "error"
    },
    {
      "inputs": [],
      "name": "ZeroTokenAddress",
      "type": "error"
    },
    {
      "inputs": [],
      "name": "ZeroValue",
      "type": "error"
    },
    {
      "anonymous": false,
      "inputs": [
        {
          "indexed": true,
          "internalType": "uint256",
          "name": "epoch",
          "type": "uint256"
        },
        {
          "indexed": false,
          "internalType": "uint256",
          "name": "availableRewards",
          "type": "uint256"
        },
        {
          "indexed": false,
          "internalType": "uint256[]",
          "name": "serviceIds",
          "type": "uint256[]"
        },
        {
          "indexed": false,
          "internalType": "uint256[]",
          "name": "rewards",
          "type": "uint256[]"
        },
        {
          "indexed": false,
          "internalType": "uint256",
          "name": "epochLength",
          "type": "uint256"
        }
      ],
      "name": "Checkpoint",
      "type": "event"
    },
    {
      "anonymous": false,
      "inputs": [
        {
          "indexed": true,
          "internalType": "address",
          "name": "sender",
          "type": "address"
        },
        {
          "indexed": false,
          "internalType": "uint256",
          "name": "amount",
          "type": "uint256"
        },
        {
          "indexed": false,
          "internalType": "uint256",
          "name": "balance",
          "type": "uint256"
        },
        {
          "indexed": false,
          "internalType": "uint256",
          "name": "availableRewards",
          "type": "uint256"
        }
      ],
      "name": "Deposit",
      "type": "event"
    },
    {
      "anonymous": false,
      "inputs": [
        {
          "indexed": false,
          "internalType": "uint256",
          "name": "epoch",
          "type": "uint256"
        },
        {
          "indexed": true,
          "internalType": "uint256",
          "name": "serviceId",
          "type": "uint256"
        },
        {
          "indexed": true,
          "internalType": "address",
          "name": "owner",
          "type": "address"
        },
        {
          "indexed": true,
          "internalType": "address",
          "name": "multisig",
          "type": "address"
        },
        {
          "indexed": false,
          "internalType": "uint256[]",
          "name": "nonces",
          "type": "uint256[]"
        },
        {
          "indexed": false,
          "internalType": "uint256",
          "name": "reward",
          "type": "uint256"
        }
      ],
      "name": "RewardClaimed",
      "type": "event"
    },
    {
      "anonymous": false,
      "inputs": [
        {
          "indexed": false,
          "internalType": "uint256",
          "name": "epoch",
          "type": "uint256"
        },
        {
          "indexed": true,
          "internalType": "uint256",
          "name": "serviceId",
          "type": "uint256"
        },
        {
          "indexed": false,
          "internalType": "uint256",
          "name": "serviceInactivity",
          "type": "uint256"
        }
      ],
      "name": "ServiceInactivityWarning",
      "type": "event"
    },
    {
      "anonymous": false,
      "inputs": [
        {
          "indexed": false,
          "internalType": "uint256",
          "name": "epoch",
          "type": "uint256"
        },
        {
          "indexed": true,
          "internalType": "uint256",
          "name": "serviceId",
          "type": "uint256"
        },
        {
          "indexed": true,
          "internalType": "address",
          "name": "owner",
          "type": "address"
        },
        {
          "indexed": true,
          "internalType": "address",
          "name": "multisig",
          "type": "address"
        },
        {
          "indexed": false,
          "internalType": "uint256[]",
          "name": "nonces",
          "type": "uint256[]"
        }
      ],
      "name": "ServiceStaked",
      "type": "event"
    },
    {
      "anonymous": false,
      "inputs": [
        {
          "indexed": false,
          "internalType": "uint256",
          "name": "epoch",
          "type": "uint256"
        },
        {
          "indexed": true,
          "internalType": "uint256",
          "name": "serviceId",
          "type": "uint256"
        },
        {
          "indexed": true,
          "internalType": "address",
          "name": "owner",
          "type": "address"
        },
        {
          "indexed": true,
          "internalType": "address",
          "name": "multisig",
          "type": "address"
        },
        {
          "indexed": false,
          "internalType": "uint256[]",
          "name": "nonces",
          "type": "uint256[]"
        },
        {
          "indexed": false,
          "internalType": "uint256",
          "name": "reward",
          "type": "uint256"
        }
      ],
      "name": "ServiceUnstaked",
      "type": "event"
    },
    {
      "anonymous": false,
      "inputs": [
        {
          "indexed": true,
          "internalType": "uint256",
          "name": "epoch",
          "type": "uint256"
        },
        {
          "indexed": false,
          "internalType": "uint256[]",
          "name": "serviceIds",
          "type": "uint256[]"
        },
        {
          "indexed": false,
          "internalType": "address[]",
          "name": "owners",
          "type": "address[]"
        },
        {
          "indexed": false,
          "internalType": "address[]",
          "name": "multisigs",
          "type": "address[]"
        },
        {
          "indexed": false,
          "internalType": "uint256[]",
          "name": "serviceInactivity",
          "type": "uint256[]"
        }
      ],
      "name": "ServicesEvicted",
      "type": "event"
    },
    {
      "anonymous": false,
      "inputs": [
        {
          "indexed": true,
          "internalType": "address",
          "name": "to",
          "type": "address"
        },
        {
          "indexed": false,
          "internalType": "uint256",
          "name": "amount",
          "type": "uint256"
        }
      ],
      "name": "Withdraw",
      "type": "event"
    },
    {
      "inputs": [],
      "name": "VERSION",
      "outputs": [
        {
          "internalType": "string",
          "name": "",
          "type": "string"
        }
      ],
      "stateMutability": "view",
      "type": "function"
    },
    {
      "inputs": [],
      "name": "activityChecker",
      "outputs": [
        {
          "internalType": "address",
          "name": "",
          "type": "address"
        }
      ],
      "stateMutability": "view",
      "type": "function"
    },
    {
      "inputs": [
        {
          "internalType": "uint256",
          "name": "",
          "type": "uint256"
        }
      ],
      "name": "agentIds",
      "outputs": [
        {
          "internalType": "uint256",
          "name": "",
          "type": "uint256"
        }
      ],
      "stateMutability": "view",
      "type": "function"
    },
    {
      "inputs": [],
      "name": "availableRewards",
      "outputs": [
        {
          "internalType": "uint256",
          "name": "",
          "type": "uint256"
        }
      ],
      "stateMutability": "view",
      "type": "function"
    },
    {
      "inputs": [],
      "name": "balance",
      "outputs": [
        {
          "internalType": "uint256",
          "name": "",
          "type": "uint256"
        }
      ],
      "stateMutability": "view",
      "type": "function"
    },
    {
      "inputs": [
        {
          "internalType": "uint256",
          "name": "serviceId",
          "type": "uint256"
        }
      ],
      "name": "calculateStakingLastReward",
      "outputs": [
        {
          "internalType": "uint256",
          "name": "reward",
          "type": "uint256"
        }
      ],
      "stateMutability": "view",
      "type": "function"
    },
    {
      "inputs": [
        {
          "internalType": "uint256",
          "name": "serviceId",
          "type": "uint256"
        }
      ],
      "name": "calculateStakingReward",
      "outputs": [
        {
          "internalType": "uint256",
          "name": "reward",
          "type": "uint256"
        }
      ],
      "stateMutability": "view",
      "type": "function"
    },
    {
      "inputs": [],
      "name": "checkpoint",
      "outputs": [
        {
          "internalType": "uint256[]",
          "name": "",
          "type": "uint256[]"
        },
        {
          "internalType": "uint256[][]",
          "name": "",
          "type": "uint256[][]"
        },
        {
          "internalType": "uint256[]",
          "name": "",
          "type": "uint256[]"
        },
        {
          "internalType": "uint256[]",
          "name": "",
          "type": "uint256[]"
        },
        {
          "internalType": "uint256[]",
          "name": "evictServiceIds",
          "type": "uint256[]"
        }
      ],
      "stateMutability": "nonpayable",
      "type": "function"
    },
    {
      "inputs": [
        {
          "internalType": "uint256",
          "name": "serviceId",
          "type": "uint256"
        }
      ],
      "name": "claim",
      "outputs": [
        {
          "internalType": "uint256",
          "name": "reward",
          "type": "uint256"
        }
      ],
      "stateMutability": "nonpayable",
      "type": "function"
    },
    {
      "inputs": [],
      "name": "configHash",
      "outputs": [
        {
          "internalType": "bytes32",
          "name": "",
          "type": "bytes32"
        }
      ],
      "stateMutability": "view",
      "type": "function"
    },
    {
      "inputs": [
        {
          "internalType": "uint256",
          "name": "amount",
          "type": "uint256"
        }
      ],
      "name": "deposit",
      "outputs": [],
      "stateMutability": "nonpayable",
      "type": "function"
    },
    {
      "inputs": [],
      "name": "epochCounter",
      "outputs": [
        {
          "internalType": "uint256",
          "name": "",
          "type": "uint256"
        }
      ],
      "stateMutability": "view",
      "type": "function"
    },
    {
      "inputs": [],
      "name": "getAgentIds",
      "outputs": [
        {
          "internalType": "uint256[]",
          "name": "",
          "type": "uint256[]"
        }
      ],
      "stateMutability": "view",
      "type": "function"
    },
    {
      "inputs": [],
      "name": "getNextRewardCheckpointTimestamp",
      "outputs": [
        {
          "internalType": "uint256",
          "name": "tsNext",
          "type": "uint256"
        }
      ],
      "stateMutability": "view",
      "type": "function"
    },
    {
      "inputs": [],
      "name": "getServiceIds",
      "outputs": [
        {
          "internalType": "uint256[]",
          "name": "",
          "type": "uint256[]"
        }
      ],
      "stateMutability": "view",
      "type": "function"
    },
    {
      "inputs": [
        {
          "internalType": "uint256",
          "name": "serviceId",
          "type": "uint256"
        }
      ],
      "name": "getServiceInfo",
      "outputs": [
        {
          "components": [
            {
              "internalType": "address",
              "name": "multisig",
              "type": "address"
            },
            {
              "internalType": "address",
              "name": "owner",
              "type": "address"
            },
            {
              "internalType": "uint256[]",
              "name": "nonces",
              "type": "uint256[]"
            },
            {
              "internalType": "uint256",
              "name": "tsStart",
              "type": "uint256"
            },
            {
              "internalType": "uint256",
              "name": "reward",
              "type": "uint256"
            },
            {
              "internalType": "uint256",
              "name": "inactivity",
              "type": "uint256"
            }
          ],
          "internalType": "struct ServiceInfo",
          "name": "sInfo",
          "type": "tuple"
        }
      ],
      "stateMutability": "view",
      "type": "function"
    },
    {
      "inputs": [
        {
          "internalType": "uint256",
          "name": "serviceId",
          "type": "uint256"
        }
      ],
      "name": "getStakingState",
      "outputs": [
        {
          "internalType": "enum StakingBase.StakingState",
          "name": "stakingState",
          "type": "uint8"
        }
      ],
      "stateMutability": "view",
      "type": "function"
    },
    {
      "inputs": [
        {
          "components": [
            {
              "internalType": "bytes32",
              "name": "metadataHash",
              "type": "bytes32"
            },
            {
              "internalType": "uint256",
              "name": "maxNumServices",
              "type": "uint256"
            },
            {
              "internalType": "uint256",
              "name": "rewardsPerSecond",
              "type": "uint256"
            },
            {
              "internalType": "uint256",
              "name": "minStakingDeposit",
              "type": "uint256"
            },
            {
              "internalType": "uint256",
              "name": "minNumStakingPeriods",
              "type": "uint256"
            },
            {
              "internalType": "uint256",
              "name": "maxNumInactivityPeriods",
              "type": "uint256"
            },
            {
              "internalType": "uint256",
              "name": "livenessPeriod",
              "type": "uint256"
            },
            {
              "internalType": "uint256",
              "name": "numAgentInstances",
              "type": "uint256"
            },
            {
              "internalType": "uint256[]",
              "name": "agentIds",
              "type": "uint256[]"
            },
            {
              "internalType": "uint256",
              "name": "threshold",
              "type": "uint256"
            },
            {
              "internalType": "bytes32",
              "name": "configHash",
              "type": "bytes32"
            },
            {
              "internalType": "bytes32",
              "name": "proxyHash",
              "type": "bytes32"
            },
            {
              "internalType": "address",
              "name": "serviceRegistry",
              "type": "address"
            },
            {
              "internalType": "address",
              "name": "activityChecker",
              "type": "address"
            }
          ],
          "internalType": "struct StakingBase.StakingParams",
          "name": "_stakingParams",
          "type": "tuple"
        },
        {
          "internalType": "address",
          "name": "_serviceRegistryTokenUtility",
          "type": "address"
        },
        {
          "internalType": "address",
          "name": "_stakingToken",
          "type": "address"
        }
      ],
      "name": "initialize",
      "outputs": [],
      "stateMutability": "nonpayable",
      "type": "function"
    },
    {
      "inputs": [],
      "name": "livenessPeriod",
      "outputs": [
        {
          "internalType": "uint256",
          "name": "",
          "type": "uint256"
        }
      ],
      "stateMutability": "view",
      "type": "function"
    },
    {
      "inputs": [
        {
          "internalType": "uint256",
          "name": "",
          "type": "uint256"
        }
      ],
      "name": "mapServiceInfo",
      "outputs": [
        {
          "internalType": "address",
          "name": "multisig",
          "type": "address"
        },
        {
          "internalType": "address",
          "name": "owner",
          "type": "address"
        },
        {
          "internalType": "uint256",
          "name": "tsStart",
          "type": "uint256"
        },
        {
          "internalType": "uint256",
          "name": "reward",
          "type": "uint256"
        },
        {
          "internalType": "uint256",
          "name": "inactivity",
          "type": "uint256"
        }
      ],
      "stateMutability": "view",
      "type": "function"
    },
    {
      "inputs": [],
      "name": "maxInactivityDuration",
      "outputs": [
        {
          "internalType": "uint256",
          "name": "",
          "type": "uint256"
        }
      ],
      "stateMutability": "view",
      "type": "function"
    },
    {
      "inputs": [],
      "name": "maxNumInactivityPeriods",
      "outputs": [
        {
          "internalType": "uint256",
          "name": "",
          "type": "uint256"
        }
      ],
      "stateMutability": "view",
      "type": "function"
    },
    {
      "inputs": [],
      "name": "maxNumServices",
      "outputs": [
        {
          "internalType": "uint256",
          "name": "",
          "type": "uint256"
        }
      ],
      "stateMutability": "view",
      "type": "function"
    },
    {
      "inputs": [],
      "name": "minStakingDeposit",
      "outputs": [
        {
          "internalType": "uint256",
          "name": "",
          "type": "uint256"
        }
      ],
      "stateMutability": "view",
      "type": "function"
    },
    {
      "inputs": [],
      "name": "minStakingDuration",
      "outputs": [
        {
          "internalType": "uint256",
          "name": "",
          "type": "uint256"
        }
      ],
      "stateMutability": "view",
      "type": "function"
    },
    {
      "inputs": [],
      "name": "numAgentInstances",
      "outputs": [
        {
          "internalType": "uint256",
          "name": "",
          "type": "uint256"
        }
      ],
      "stateMutability": "view",
      "type": "function"
    },
    {
      "inputs": [
        {
          "internalType": "address",
          "name": "",
          "type": "address"
        },
        {
          "internalType": "address",
          "name": "",
          "type": "address"
        },
        {
          "internalType": "uint256",
          "name": "",
          "type": "uint256"
        },
        {
          "internalType": "bytes",
          "name": "",
          "type": "bytes"
        }
      ],
      "name": "onERC721Received",
      "outputs": [
        {
          "internalType": "bytes4",
          "name": "",
          "type": "bytes4"
        }
      ],
      "stateMutability": "nonpayable",
      "type": "function"
    },
    {
      "inputs": [],
      "name": "proxyHash",
      "outputs": [
        {
          "internalType": "bytes32",
          "name": "",
          "type": "bytes32"
        }
      ],
      "stateMutability": "view",
      "type": "function"
    },
    {
      "inputs": [],
      "name": "rewardsPerSecond",
      "outputs": [
        {
          "internalType": "uint256",
          "name": "",
          "type": "uint256"
        }
      ],
      "stateMutability": "view",
      "type": "function"
    },
    {
      "inputs": [],
      "name": "serviceRegistry",
      "outputs": [
        {
          "internalType": "address",
          "name": "",
          "type": "address"
        }
      ],
      "stateMutability": "view",
      "type": "function"
    },
    {
      "inputs": [],
      "name": "serviceRegistryTokenUtility",
      "outputs": [
        {
          "internalType": "address",
          "name": "",
          "type": "address"
        }
      ],
      "stateMutability": "view",
      "type": "function"
    },
    {
      "inputs": [
        {
          "internalType": "uint256",
          "name": "",
          "type": "uint256"
        }
      ],
      "name": "setServiceIds",
      "outputs": [
        {
          "internalType": "uint256",
          "name": "",
          "type": "uint256"
        }
      ],
      "stateMutability": "view",
      "type": "function"
    },
    {
      "inputs": [
        {
          "internalType": "uint256",
          "name": "serviceId",
          "type": "uint256"
        }
      ],
      "name": "stake",
      "outputs": [],
      "stateMutability": "nonpayable",
      "type": "function"
    },
    {
      "inputs": [],
      "name": "stakingToken",
      "outputs": [
        {
          "internalType": "address",
          "name": "",
          "type": "address"
        }
      ],
      "stateMutability": "view",
      "type": "function"
    },
    {
      "inputs": [],
      "name": "threshold",
      "outputs": [
        {
          "internalType": "uint256",
          "name": "",
          "type": "uint256"
        }
      ],
      "stateMutability": "view",
      "type": "function"
    },
    {
      "inputs": [],
      "name": "tsCheckpoint",
      "outputs": [
        {
          "internalType": "uint256",
          "name": "",
          "type": "uint256"
        }
      ],
      "stateMutability": "view",
      "type": "function"
    },
    {
      "inputs": [
        {
          "internalType": "uint256",
          "name": "serviceId",
          "type": "uint256"
        }
      ],
      "name": "unstake",
      "outputs": [
        {
          "internalType": "uint256",
          "name": "reward",
          "type": "uint256"
        }
      ],
      "stateMutability": "nonpayable",
      "type": "function"
    }
  ],
  "bytecode": "0x608060405234801561001057600080fd5b5061363d806100206000396000f3fe608060405234801561001057600080fd5b50600436106102775760003560e01c8063879d909011610160578063cbcf252a116100d8578063f189e85a1161008c578063f86ad2b611610071578063f86ad2b614610548578063fd0bba8c14610551578063ffa1ad741461057157600080fd5b8063f189e85a14610538578063f4dce7141461054057600080fd5b8063e77cdcc9116100bd578063e77cdcc914610513578063eacdaabc1461051c578063eb338c961461052557600080fd5b8063cbcf252a146104f7578063e1f1176d1461050a57600080fd5b8063a74466ad1161012f578063b69ef8a811610114578063b69ef8a8146104c2578063b6b55f25146104cb578063c2c4c5c1146104de57600080fd5b8063a74466ad14610431578063b1508760146104ad57600080fd5b8063879d9090146103f95780638f9e0a6214610402578063a0ed60e014610415578063a694fc3a1461041e57600080fd5b806352c824f5116101f357806372f702f3116101c2578063809cee2f116101a7578063809cee2f146103bd57806382a8ea58146103c657806383f9eb22146103e657600080fd5b806372f702f3146103975780637fbe2833146103aa57600080fd5b806352c824f51461035d57806356e76058146103665780635829c5ec1461037957806368704c6c1461038257600080fd5b8063287140511161024a578063379607f51161022f578063379607f5146103385780633e7329971461034b57806342cde4e81461035457600080fd5b806328714051146102fa5780632e17de781461032557600080fd5b806308ae7e541461027c57806314b19c5a14610298578063150b7a02146102a157806316a75172146102f1575b600080fd5b610285600b5481565b6040519081526020015b60405180910390f35b610285600d5481565b6102c06102af366004612bbf565b630a85bd0160e11b95945050505050565b6040517fffffffff00000000000000000000000000000000000000000000000000000000909116815260200161028f565b61028560005481565b60145461030d906001600160a01b031681565b6040516001600160a01b03909116815260200161028f565b610285610333366004612c5e565b6105a2565b610285610346366004612c5e565b610932565b61028560105481565b61028560065481565b61028560045481565b610285610374366004612c5e565b610a31565b61028560055481565b610395610390366004612d9f565b610a52565b005b60155461030d906001600160a01b031681565b6102856103b8366004612c5e565b610ac8565b61028560085481565b6103d96103d4366004612c5e565b610b92565b60405161028f9190612f09565b6102856103f4366004612c5e565b610c89565b610285600f5481565b600a5461030d906001600160a01b031681565b61028560035481565b61039561042c366004612c5e565b610d45565b61047a61043f366004612c5e565b601260205260009081526040902080546001820154600383015460048401546005909401546001600160a01b03938416949390921692909185565b604080516001600160a01b039687168152959094166020860152928401919091526060830152608082015260a00161028f565b6104b561123f565b60405161028f9190612f70565b610285600e5481565b6103956104d9366004612c5e565b611297565b6104e6611326565b60405161028f959493929190612f83565b60095461030d906001600160a01b031681565b61028560075481565b61028560025481565b61028560015481565b610285610533366004612c5e565b6119b2565b6104b56119c2565b610285611a18565b610285600c5481565b61056461055f366004612c5e565b611a2f565b60405161028f9190613048565b610595604051806040016040528060058152602001640302e312e360dc1b81525081565b60405161028f9190613094565b600081815260126020526040812060018101546001600160a01b031633146105f957600181015460405163521eb56d60e11b81523360048201526001600160a01b0390911660248201526044015b60405180910390fd5b6003810154600061060a82426130dd565b9050600b54811115801561062057506000600f54115b1561065357600b5460405163ba2bbc6b60e01b8152600481018790526024810183905260448101919091526064016105f0565b60008061065e611326565b9450505050915081516000036106bf576106766119c2565b9150815167ffffffffffffffff81111561069257610692612c77565b6040519080825280602002602001820160405280156106bb578160200160208202803683370190505b5090505b6000805b835182101561072057888383815181106106df576106df6130f6565b602002602001015103156107205788848381518110610700576107006130f6565b60200260200101510361071557506001610720565b8160010191506106c3565b8660040154975060008760020180548060200260200160405190810160405280929190818152602001828054801561077757602002820191906000526020600020905b815481526020019060010190808311610763575b50508b5460008f815260126020526040812080546001600160a01b0319908116825560018201805490911690559596506001600160a01b0390911694935091506107c690506002830182612b19565b5060006003820181905560048201819055600590910155821561085557601380546107f3906001906130dd565b81548110610803576108036130f6565b906000526020600020015460138581548110610821576108216130f6565b600091825260209091200155601380548061083e5761083e61310c565b600190038181906000526020600020016000905590555b600954604051632142170760e11b8152306004820152336024820152604481018d90526001600160a01b03909116906342842e0e90606401600060405180830381600087803b1580156108a757600080fd5b505af11580156108bb573d6000803e3d6000fd5b5050505060008a11156108d2576108d2818b611b04565b806001600160a01b0316336001600160a01b03168c7f950733f4c0bf951b8e770f3cc619a4288e7b59b1236d59aeaf2c238488e8ae81600d54868f60405161091c93929190613122565b60405180910390a4505050505050505050919050565b600081815260126020526040812060018101546001600160a01b0316331461098457600181015460405163521eb56d60e11b81523360048201526001600160a01b0390911660248201526044016105f0565b61098c611326565b505050505080600401549150816000036109b957604051637c946ed760e01b815260040160405180910390fd5b6000600482015580546001600160a01b03166109d58184611b04565b806001600160a01b0316336001600160a01b0316857f31add0166dae59ea66bbc180e4fae85b72fc9b7b5fc7b0f7257e4721a840c96e600d548660020188604051610a229392919061314b565b60405180910390a45050919050565b60118181548110610a4157600080fd5b600091825260209091200154905081565b610a5b83611b79565b6001600160a01b0381161580610a7857506001600160a01b038216155b15610a9657604051636b093aad60e01b815260040160405180910390fd5b601580546001600160a01b039283166001600160a01b0319918216179091556014805493909216921691909117905550565b6000818152601260209081526040808320815160c08101835281546001600160a01b0390811682526001830154168185015260028201805484518187028101870186528181528796939586019390929190830182828015610b4857602002820191906000526020600020905b815481526020019060010190808311610b34575b505050505081526020016003820154815260200160048201548152602001600582015481525050905080608001519150610b8183610c89565b610b8b90836131a9565b9392505050565b610bdd6040518060c0016040528060006001600160a01b0316815260200160006001600160a01b03168152602001606081526020016000815260200160008152602001600081525090565b600082815260126020908152604091829020825160c08101845281546001600160a01b0390811682526001830154168184015260028201805485518186028101860187528181529295939493860193830182828015610c5b57602002820191906000526020600020905b815481526020019060010190808311610c47575b5050505050815260200160038201548152602001600482015481526020016005820154815250509050919050565b600080600080600080610c9a611ea7565b5050509450945094509450945060005b84811015610d3a5787838281518110610cc557610cc56130f6565b602002602001015103610d325785841115610d11578386838381518110610cee57610cee6130f6565b6020026020010151610d0091906131bc565b610d0a91906131e9565b9650610d3a565b818181518110610d2357610d236130f6565b60200260200101519650610d3a565b600101610caa565b505050505050919050565b600f54600003610d685760405163afb0be3360e01b815260040160405180910390fd5b6000818152601260205260409020600381015415610d9c5760405163b4817ce760e01b8152600481018390526024016105f0565b6013546000548103610dc75760005460405163fd20861560e01b81526004016105f091815260200190565b60095460405163ef0e239b60e01b8152600481018590526000916001600160a01b03169063ef0e239b90602401600060405180830381865afa158015610e11573d6000803e3d6000fd5b505050506040513d6000823e601f3d908101601f19168201604052610e3991908101906132ad565b9050806080015163ffffffff1660055414610e6a57604051637ad404bf60e11b8152600481018590526024016105f0565b60075415801590610e815750806040015160075414155b15610ea257604051637ad404bf60e11b8152600481018590526024016105f0565b6000600654118015610ec05750806060015163ffffffff1660065414155b15610ee157604051637ad404bf60e11b8152600481018590526024016105f0565b60048160c001516005811115610ef957610ef9613032565b14610f38578060c001516005811115610f1457610f14613032565b604051633c053f9d60e21b81526004810191909152602481018590526044016105f0565b600081602001516001600160a01b0316803b806020016040519081016040528181526000908060200190933c8051906020012090508060085414610f9f57602082015160405162a2307960e51b81526001600160a01b0390911660048201526024016105f0565b60115480156110685760e083015151818114610fd157604051637ad404bf60e11b8152600481018890526024016105f0565b60005b81811015611065578460e001518181518110610ff257610ff26130f6565b602002602001015163ffffffff1660118281548110611013576110136130f6565b90600052602060002001541461105d5760118181548110611036576110366130f6565b9060005260206000200154604051632ab10b0b60e21b81526004016105f091815260200190565b600101610fd4565b50505b6110898684600001516bffffffffffffffffffffffff168560e0015161224c565b602083015185546001600160a01b039182166001600160a01b0319918216811788556001880180549092163317909155600a5460405163d564c4bf60e01b81526004810192909252600092169063d564c4bf90602401600060405180830381865afa1580156110fc573d6000803e3d6000fd5b505050506040513d6000823e601f3d908101601f19168201604052611124919081019061338b565b805190915061113c9060028801906020840190612b3a565b50426003870155601380546001810182556000919091527f66de8ffda797e3de9c05e8fc57b3bf0ec28a930d40b0d285d93c06501cf6a09001879055600954604051632142170760e11b8152336004820152306024820152604481018990526001600160a01b03909116906342842e0e90606401600060405180830381600087803b1580156111ca57600080fd5b505af11580156111de573d6000803e3d6000fd5b5050505083602001516001600160a01b0316336001600160a01b0316887faa6b005b4958114a0c90492461c24af6525ae0178db7fbf44125ae9217c69ccb600d548560405161122e92919061341c565b60405180910390a450505050505050565b6060601180548060200260200160405190810160405280929190818152602001828054801561128d57602002820191906000526020600020905b815481526020019060010190808311611279575b5050505050905090565b600081600e546112a791906131a9565b9050600082600f546112b991906131a9565b600e839055600f8190556015549091506112de906001600160a01b031633308661243c565b604080518481526020810184905290810182905233907f36af321ec8d3c75236829c5317affd40ddb308863a1236d2d277a4025cccee1e9060600160405180910390a2505050565b6060806060806060600080600080600080600080611342611ea7565b97509750975097509750975097509750606080845167ffffffffffffffff81111561136f5761136f612c77565b604051908082528060200260200182016040528015611398578160200160208202803683370190505b509a506000891561172b578967ffffffffffffffff8111156113bc576113bc612c77565b6040519080825280602002602001820160405280156113e5578160200160208202803683370190505b5092508967ffffffffffffffff81111561140157611401612c77565b60405190808252806020026020018201604052801561142a578160200160208202803683370190505b5091508a8911156116345760008060015b8c811015611527578b8e8b8381518110611457576114576130f6565b602002602001015161146991906131bc565b61147391906131e9565b925061147f83836131a9565b91508a8181518110611493576114936130f6565b602002602001015193508a81815181106114af576114af6130f6565b60200260200101518682815181106114c9576114c96130f6565b602002602001018181525050828582815181106114e8576114e86130f6565b6020026020010181815250508260126000868152602001908152602001600020600401600082825461151a91906131a9565b909155505060010161143b565b508a8d8a60008151811061153d5761153d6130f6565b602002602001015161154f91906131bc565b61155991906131e9565b915061156582826131a9565b90508960008151811061157a5761157a6130f6565b6020026020010151925089600081518110611597576115976130f6565b6020026020010151856000815181106115b2576115b26130f6565b602002602001018181525050808d11156115dd576115d0818e6130dd565b6115da90836131a9565b91505b81846000815181106115f1576115f16130f6565b6020026020010181815250508160126000858152602001908152602001600020600401600082825461162391906131a9565b9091555060009d5061172592505050565b60005b8a81101561171757888181518110611651576116516130f6565b6020026020010151915088818151811061166d5761166d6130f6565b6020026020010151848281518110611687576116876130f6565b6020026020010181815250508781815181106116a5576116a56130f6565b60200260200101518382815181106116bf576116bf6130f6565b6020026020010181815250508781815181106116dd576116dd6130f6565b602002602001015160126000848152602001908152602001600020600401600082825461170a91906131a9565b9091555050600101611637565b50611722898c6130dd565b9a505b600f8b90555b85511561199c57600d5460009a508a5b875181101561192257878181518110611756576117566130f6565b60200260200101519250868181518110611772576117726130f6565b60200260200101516012600085815260200190815260200160002060020190805190602001906117a3929190612b3a565b5060008682815181106117b8576117b86130f6565b60200260200101511115611907578581815181106117d8576117d86130f6565b6020026020010151601260008581526020019081526020016000206005015461180191906131a9565b868281518110611813576118136130f6565b602002602001018181525050858181518110611831576118316130f6565b60200260200101516012600085815260200190815260200160002060050181905550600c54868281518110611868576118686130f6565b602002602001015111156118a657828e8281518110611889576118896130f6565b60209081029190910101528b61189e8161343d565b9c505061191a565b827f33dc5cdf1e035de8a7fe16ad7a30a441d30ee51719d3f07703ee35d4348f0779838884815181106118db576118db6130f6565b60200260200101516040516118fa929190918252602082015260400190565b60405180910390a261191a565b6000838152601260205260408120600501555b60010161173b565b508a15611934576119348d868d6124c6565b60006010544261194491906130dd565b4260105590506119558260016131a9565b600d81905550817f48b735a18ed32318d316214e41387be29c52e29df4598f2b8e40fa843be3f9408e8787856040516119919493929190613456565b60405180910390a250505b50939e929d509b50919950969750505050505050565b60138181548110610a4157600080fd5b6060601380548060200260200160405190810160405280929190818152602001828054801561128d5760200282019190600052602060002090815481526020019060010190808311611279575050505050905090565b6000600454601054611a2a91906131a9565b905090565b6000818152601260209081526040808320815160c08101835281546001600160a01b0390811682526001830154168185015260028201805484518187028101870186528181528796939586019390929190830182828015611aaf57602002820191906000526020600020905b815481526020019060010190808311611a9b575b5050505050815260200160038201548152602001600482015481526020016005820154815250509050600c548160a001511115611aef5760029150611afe565b606081015115611afe57600191505b50919050565b80600e6000828254611b1691906130dd565b9091555050601554611b32906001600160a01b0316838361288b565b816001600160a01b03167f884edad9ce6fa2440d8a54cc123490eb96d2768479d49ff9c7366125a942436482604051611b6d91815260200190565b60405180910390a25050565b6009546001600160a01b031615611ba25760405162dc149f60e41b815260040160405180910390fd5b80511580611bb257506020810151155b80611bbf57506040810151155b80611bcc575060c0810151155b80611bd9575060e0810151155b80611be657506080810151155b80611bf3575060a0810151155b15611c1157604051637c946ed760e01b815260040160405180910390fd5b8060a0015181608001511015611c4d57608081015160a082015160405163491a2bb160e01b8152600481019290925260248201526044016105f0565b600281606001511015611c8357606081015160405163491a2bb160e01b81526004810191909152600260248201526044016105f0565b6101808101516001600160a01b03161580611caa57506101a08101516001600160a01b0316155b15611cc85760405163d92e233d60e01b815260040160405180910390fd5b806101a001516001600160a01b03163b600003611cf857604051637c946ed760e01b815260040160405180910390fd5b602081015160009081556040820151600155606082015160025560a082015160035560c082015160045560e0820151600555610180820151600980546001600160a01b039283166001600160a01b0319918216179091556101a0840151600a8054919093169116179055610120820151600655610140820151600755805b82610100015151811015611e4557818361010001518281518110611d9c57611d9c6130f6565b602002602001015111611de4578261010001518181518110611dc057611dc06130f6565b6020026020010151604051632ab10b0b60e21b81526004016105f091815260200190565b8261010001518181518110611dfb57611dfb6130f6565b602090810291909101015160118054600181810183556000929092527f31ecc21a745e3968a04e9570e4425bc18fa8019c68028196b546d1669c200c680182905590925001611d76565b50610160820151600003611e6c57604051637c946ed760e01b815260040160405180910390fd5b6101608201516008556004546080830151611e8791906131bc565b600b5560045460a0830151611e9c91906131bc565b600c55505042601055565b6000806000606080606080606060006010549050600f5498506004548142611ecf91906130dd565b10158015611edd5750600089115b15612241576013548067ffffffffffffffff811115611efe57611efe612c77565b604051908082528060200260200182016040528015611f27578160200160208202803683370190505b5094508067ffffffffffffffff811115611f4357611f43612c77565b604051908082528060200260200182016040528015611f6c578160200160208202803683370190505b5096508067ffffffffffffffff811115611f8857611f88612c77565b604051908082528060200260200182016040528015611fb1578160200160208202803683370190505b5095508067ffffffffffffffff811115611fcd57611fcd612c77565b60405190808252806020026020018201604052801561200057816020015b6060815260200190600190039081611feb5790505b5093508067ffffffffffffffff81111561201c5761201c612c77565b604051908082528060200260200182016040528015612045578160200160208202803683370190505b50925060005b8181101561223e5760138181548110612066576120666130f6565b9060005260206000200154868281518110612083576120836130f6565b6020026020010181815250506000601260008884815181106120a7576120a76130f6565b6020026020010151815260200190815260200160002090506000849050600082600301549050818111156120d9578091505b6120e382426130dd565b835460028501805460408051602080840282018101909252828152949550600094612150946001600160a01b0316939092909183018282801561214557602002820191906000526020600020905b815481526020019060010190808311612131575b50505050508461290e565b8a8781518110612162576121626130f6565b60209081029190910101529050801561220f578160015461218391906131bc565b8b8f81518110612195576121956130f6565b6020026020010181815250508a8e815181106121b3576121b36130f6565b60200260200101518d6121c691906131a9565b9c508985815181106121da576121da6130f6565b60200260200101518c8f815181106121f4576121f46130f6565b60209081029190910101526122088e61343d565b9d5061222f565b81888681518110612222576122226130f6565b6020026020010181815250505b5050505080600101905061204b565b50505b509091929394959697565b601454604051633cebfa4f60e01b81526004810185905260009182916001600160a01b0390911690633cebfa4f906024016040805180830381865afa158015612299573d6000803e3d6000fd5b505050506040513d601f19601f820116820180604052508101906122bd9190613493565b60155491935091506001600160a01b0380841691161461230757601554604051630b80380d60e31b81526001600160a01b03918216600482015290831660248201526044016105f0565b6002546bffffffffffffffffffffffff821681111561235057604051632b30b24760e21b81526bffffffffffffffffffffffff83166004820152602481018290526044016105f0565b60005b84518110156124335760145485516000916001600160a01b0316906375c1f934908a90899086908110612388576123886130f6565b60200260200101516040518363ffffffff1660e01b81526004016123bc92919091825263ffffffff16602082015260400190565b602060405180830381865afa1580156123d9573d6000803e3d6000fd5b505050506040513d601f19601f820116820180604052508101906123fd91906134c8565b90508281101561242a57604051632b30b24760e21b815260048101829052602481018490526044016105f0565b50600101612353565b50505050505050565b60006040516323b872dd60e01b6000528460045283602452826044526020600060646000808a5af13d15601f3d11600160005114161716915060006060528060405250806124bf5760405163abae3d6d60e01b81526001600160a01b038087166004830152808616602483015284166044820152606481018390526084016105f0565b5050505050565b825160008267ffffffffffffffff8111156124e3576124e3612c77565b60405190808252806020026020018201604052801561250c578160200160208202803683370190505b50905060008367ffffffffffffffff81111561252a5761252a612c77565b604051908082528060200260200182016040528015612553578160200160208202803683370190505b50905060008467ffffffffffffffff81111561257157612571612c77565b60405190808252806020026020018201604052801561259a578160200160208202803683370190505b50905060008567ffffffffffffffff8111156125b8576125b8612c77565b6040519080825280602002602001820160405280156125e1578160200160208202803683370190505b50905060008667ffffffffffffffff8111156125ff576125ff612c77565b604051908082528060200260200182016040528015612628578160200160208202803683370190505b50905060008060005b888110156127885760008c828151811061264d5761264d6130f6565b60200260200101511115612780578b818151811061266d5761266d6130f6565b602002602001015191508188848151811061268a5761268a6130f6565b6020908102919091018101919091526000838152601290915260409020600181015488516001600160a01b03909116908990869081106126cc576126cc6130f6565b6001600160a01b039283166020918202929092010152815488519116908890869081106126fb576126fb6130f6565b60200260200101906001600160a01b031690816001600160a01b0316815250508b828151811061272d5761272d6130f6565b6020026020010151868581518110612747576127476130f6565b60200260200101818152505081858581518110612766576127666130f6565b60209081029190910101528361277b8161343d565b945050505b600101612631565b50885b801561283d578861279b816134e1565b995060009050846127ad6001846130dd565b815181106127bd576127bd6130f6565b6020026020010151905060138a815481106127da576127da6130f6565b9060005260206000200154601382815481106127f8576127f86130f6565b60009182526020909120015560138054806128155761281561310c565b600190038181906000526020600020016000905590555080612836906134e1565b905061278b565b50600d547fd19a3d42ed383465e4058c322d9411aeac76ddb8454d22e139fc99808bd56952888888886040516128769493929190613532565b60405180910390a25050505050505050505050565b600060405163a9059cbb60e01b6000528360045282602452602060006044600080895af13d15601f3d11600160005114161716915060006060528060405250806129085760405163abae3d6d60e01b81526001600160a01b03808616600483015230602483015284166044820152606481018390526084016105f0565b50505050565b600a54604080516001600160a01b0386811660248084019190915283518084039091018152604490920183526020820180517bffffffffffffffffffffffffffffffffffffffffffffffffffffffff1663d564c4bf60e01b17905291516000936060938593849391909216916129839161357f565b600060405180830381855afa9150503d80600081146129be576040519150601f19603f3d011682016040523d82523d6000602084013e6129c3565b606091505b50915091508180156129d65750603f8151115b80156129ed5750602081516129eb919061359b565b155b15612b0f5780806020019051810190612a06919061338b565b600a546040519194506001600160a01b03169063184023a560e01b90612a349086908a908a906024016135af565b60408051601f198184030181529181526020820180517bffffffffffffffffffffffffffffffffffffffffffffffffffffffff167fffffffff00000000000000000000000000000000000000000000000000000000909416939093179092529051612a9f919061357f565b600060405180830381855afa9150503d8060008114612ada576040519150601f19603f3d011682016040523d82523d6000602084013e612adf565b606091505b509092509050818015612af3575080516020145b15612b0f5780806020019051810190612b0c91906135e5565b93505b5050935093915050565b5080546000825590600052602060002090810190612b379190612b85565b50565b828054828255906000526020600020908101928215612b75579160200282015b82811115612b75578251825591602001919060010190612b5a565b50612b81929150612b85565b5090565b5b80821115612b815760008155600101612b86565b6001600160a01b0381168114612b3757600080fd5b8035612bba81612b9a565b919050565b600080600080600060808688031215612bd757600080fd5b8535612be281612b9a565b94506020860135612bf281612b9a565b935060408601359250606086013567ffffffffffffffff80821115612c1657600080fd5b818801915088601f830112612c2a57600080fd5b813581811115612c3957600080fd5b896020828501011115612c4b57600080fd5b9699959850939650602001949392505050565b600060208284031215612c7057600080fd5b5035919050565b634e487b7160e01b600052604160045260246000fd5b6040516101c0810167ffffffffffffffff81118282101715612cb157612cb1612c77565b60405290565b604051610100810167ffffffffffffffff81118282101715612cb157612cb1612c77565b604051601f8201601f1916810167ffffffffffffffff81118282101715612d0457612d04612c77565b604052919050565b600067ffffffffffffffff821115612d2657612d26612c77565b5060051b60200190565b600082601f830112612d4157600080fd5b81356020612d56612d5183612d0c565b612cdb565b8083825260208201915060208460051b870101935086841115612d7857600080fd5b602086015b84811015612d945780358352918301918301612d7d565b509695505050505050565b600080600060608486031215612db457600080fd5b833567ffffffffffffffff80821115612dcc57600080fd5b908501906101c08288031215612de157600080fd5b612de9612c8d565b823581526020830135602082015260408301356040820152606083013560608201526080830135608082015260a083013560a082015260c083013560c082015260e083013560e08201526101008084013583811115612e4757600080fd5b612e538a828701612d30565b91830191909152506101208381013590820152610140808401359082015261016080840135908201526101809150612e8c828401612baf565b828201526101a09150612ea0828401612baf565b82820152809550505050612eb660208501612baf565b9150612ec460408501612baf565b90509250925092565b60008151808452602080850194506020840160005b83811015612efe57815187529582019590820190600101612ee2565b509495945050505050565b6020815260006001600160a01b0380845116602084015280602085015116604084015250604083015160c06060840152612f4660e0840182612ecd565b905060608401516080840152608084015160a084015260a084015160c08401528091505092915050565b602081526000610b8b6020830184612ecd565b60a081526000612f9660a0830188612ecd565b6020838203818501528188518084528284019150828160051b850101838b0160005b83811015612fe657601f19878403018552612fd4838351612ecd565b94860194925090850190600101612fb8565b50508681036040880152612ffa818b612ecd565b94505050505082810360608401526130128186612ecd565b905082810360808401526130268185612ecd565b98975050505050505050565b634e487b7160e01b600052602160045260246000fd5b602081016003831061306a57634e487b7160e01b600052602160045260246000fd5b91905290565b60005b8381101561308b578181015183820152602001613073565b50506000910152565b60208152600082518060208401526130b3816040850160208701613070565b601f01601f19169190910160400192915050565b634e487b7160e01b600052601160045260246000fd5b818103818111156130f0576130f06130c7565b92915050565b634e487b7160e01b600052603260045260246000fd5b634e487b7160e01b600052603160045260246000fd5b83815260606020820152600061313b6060830185612ecd565b9050826040830152949350505050565b600060608201858352602060606020850152818654808452608086019150876000526020600020935060005b8181101561319357845483526001948501949284019201613177565b5050809350505050826040830152949350505050565b808201808211156130f0576130f06130c7565b80820281158282048414176130f0576130f06130c7565b634e487b7160e01b600052601260045260246000fd5b6000826131f8576131f86131d3565b500490565b80516bffffffffffffffffffffffff81168114612bba57600080fd5b8051612bba81612b9a565b805163ffffffff81168114612bba57600080fd5b805160068110612bba57600080fd5b600082601f83011261325857600080fd5b81516020613268612d5183612d0c565b8083825260208201915060208460051b87010193508684111561328a57600080fd5b602086015b84811015612d94576132a081613224565b835291830191830161328f565b6000602082840312156132bf57600080fd5b815167ffffffffffffffff808211156132d757600080fd5b9083019061010082860312156132ec57600080fd5b6132f4612cb7565b6132fd836131fd565b815261330b60208401613219565b60208201526040830151604082015261332660608401613224565b606082015261333760808401613224565b608082015261334860a08401613224565b60a082015261335960c08401613238565b60c082015260e08301518281111561337057600080fd5b61337c87828601613247565b60e08301525095945050505050565b6000602080838503121561339e57600080fd5b825167ffffffffffffffff8111156133b557600080fd5b8301601f810185136133c657600080fd5b80516133d4612d5182612d0c565b81815260059190911b820183019083810190878311156133f357600080fd5b928401925b82841015613411578351825292840192908401906133f8565b979650505050505050565b8281526040602082015260006134356040830184612ecd565b949350505050565b60006001820161344f5761344f6130c7565b5060010190565b84815260806020820152600061346f6080830186612ecd565b82810360408401526134818186612ecd565b91505082606083015295945050505050565b600080604083850312156134a657600080fd5b82516134b181612b9a565b91506134bf602084016131fd565b90509250929050565b6000602082840312156134da57600080fd5b5051919050565b6000816134f0576134f06130c7565b506000190190565b60008151808452602080850194506020840160005b83811015612efe5781516001600160a01b03168752958201959082019060010161350d565b6080815260006135456080830187612ecd565b828103602084015261355781876134f8565b9050828103604084015261356b81866134f8565b905082810360608401526134118185612ecd565b60008251613591818460208701613070565b9190910192915050565b6000826135aa576135aa6131d3565b500690565b6060815260006135c26060830186612ecd565b82810360208401526135d48186612ecd565b915050826040830152949350505050565b6000602082840312156135f757600080fd5b81518015158114610b8b57600080fdfea2646970667358221220268aede3a84607345810a66c3920d85432c05e9f46deb4a7d5abaf99c655f2f164736f6c63430008170033",
  "linkReferences": {},
  "deployedLinkReferences": {}
}