{
  "_format": "hh-sol-artifact-1",
  "contractName": "StakingFactory",
  "sourceName": "contracts/staking/StakingFactory.sol",
  "abi": [
    {
      "inputs": [
        {
          "internalType": "address",
          "name": "_verifier",
          "type": "address"
        }
      ],
      "stateMutability": "nonpayable",
      "type": "constructor"
    },
    {
      "inputs": [
        {
          "internalType": "address",
          "name": "implementation",
          "type": "address"
        }
      ],
      "name": "ContractOnly",
      "type": "error"
    },
    {
      "inputs": [
        {
          "internalType": "uint256",
          "name": "expected",
          "type": "uint256"
        },
        {
          "internalType": "uint256",
          "name": "provided",
          "type": "uint256"
        }
      ],
      "name": "IncorrectDataLength",
      "type": "error"
    },
    {
      "inputs": [
        {
          "internalType": "address",
          "name": "instance",
          "type": "address"
        }
      ],
      "name": "InitializationFailed",
      "type": "error"
    },
    {
      "inputs": [
        {
          "internalType": "address",
          "name": "sender",
          "type": "address"
        },
        {
          "internalType": "address",
          "name": "owner",
          "type": "address"
        }
      ],
      "name": "OwnerOnly",
      "type": "error"
    },
    {
      "inputs": [
        {
          "internalType": "address",
          "name": "implementation",
          "type": "address"
        }
      ],
      "name": "ProxyCreationFailed",
      "type": "error"
    },
    {
      "inputs": [
        {
          "internalType": "address",
          "name": "implementation",
          "type": "address"
        }
      ],
      "name": "UnverifiedImplementation",
      "type": "error"
    },
    {
      "inputs": [
        {
          "internalType": "address",
          "name": "instance",
          "type": "address"
        }
      ],
      "name": "UnverifiedProxy",
      "type": "error"
    },
    {
      "inputs": [],
      "name": "ZeroAddress",
      "type": "error"
    },
    {
      "anonymous": false,
      "inputs": [
        {
          "indexed": true,
          "internalType": "address",
          "name": "sender",
          "type": "address"
        },
        {
          "indexed": true,
          "internalType": "address",
          "name": "instance",
          "type": "address"
        },
        {
          "indexed": true,
          "internalType": "address",
          "name": "implementation",
          "type": "address"
        }
      ],
      "name": "InstanceCreated",
      "type": "event"
    },
    {
      "anonymous": false,
      "inputs": [
        {
          "indexed": true,
          "internalType": "address",
          "name": "owner",
          "type": "address"
        }
      ],
      "name": "OwnerUpdated",
      "type": "event"
    },
    {
      "anonymous": false,
      "inputs": [
        {
          "indexed": true,
          "internalType": "address",
          "name": "verifier",
          "type": "address"
        }
      ],
      "name": "VerifierUpdated",
      "type": "event"
    },
    {
      "inputs": [],
      "name": "SELECTOR_DATA_LENGTH",
      "outputs": [
        {
          "internalType": "uint256",
          "name": "",
          "type": "uint256"
        }
      ],
      "stateMutability": "view",
      "type": "function"
    },
    {
      "inputs": [
        {
          "internalType": "address",
          "name": "newOwner",
          "type": "address"
        }
      ],
      "name": "changeOwner",
      "outputs": [],
      "stateMutability": "nonpayable",
      "type": "function"
    },
    {
      "inputs": [
        {
          "internalType": "address",
          "name": "newVerifier",
          "type": "address"
        }
      ],
      "name": "changeVerifier",
      "outputs": [],
      "stateMutability": "nonpayable",
      "type": "function"
    },
    {
      "inputs": [
        {
          "internalType": "address",
          "name": "implementation",
          "type": "address"
        },
        {
          "internalType": "bytes",
          "name": "initPayload",
          "type": "bytes"
        }
      ],
      "name": "createStakingInstance",
      "outputs": [
        {
          "internalType": "address payable",
          "name": "instance",
          "type": "address"
        }
      ],
      "stateMutability": "nonpayable",
      "type": "function"
    },
    {
      "inputs": [
        {
          "internalType": "address",
          "name": "implementation",
          "type": "address"
        }
      ],
      "name": "getProxyAddress",
      "outputs": [
        {
          "internalType": "address",
          "name": "",
          "type": "address"
        }
      ],
      "stateMutability": "view",
      "type": "function"
    },
    {
      "inputs": [
        {
          "internalType": "address",
          "name": "implementation",
          "type": "address"
        },
        {
          "internalType": "uint256",
          "name": "localNonce",
          "type": "uint256"
        }
      ],
      "name": "getProxyAddressWithNonce",
      "outputs": [
        {
          "internalType": "address",
          "name": "",
          "type": "address"
        }
      ],
      "stateMutability": "view",
      "type": "function"
    },
    {
      "inputs": [
        {
          "internalType": "address",
          "name": "",
          "type": "address"
        }
      ],
      "name": "mapInstanceParams",
      "outputs": [
        {
          "internalType": "address",
          "name": "implementation",
          "type": "address"
        },
        {
          "internalType": "address",
          "name": "deployer",
          "type": "address"
        },
        {
          "internalType": "bool",
          "name": "isActive",
          "type": "bool"
        }
      ],
      "stateMutability": "view",
      "type": "function"
    },
    {
      "inputs": [],
      "name": "nonce",
      "outputs": [
        {
          "internalType": "uint256",
          "name": "",
          "type": "uint256"
        }
      ],
      "stateMutability": "view",
      "type": "function"
    },
    {
      "inputs": [],
      "name": "owner",
      "outputs": [
        {
          "internalType": "address",
          "name": "",
          "type": "address"
        }
      ],
      "stateMutability": "view",
      "type": "function"
    },
    {
      "inputs": [
        {
          "internalType": "address",
          "name": "instance",
          "type": "address"
        },
        {
          "internalType": "bool",
          "name": "isActive",
          "type": "bool"
        }
      ],
      "name": "setInstanceActivity",
      "outputs": [],
      "stateMutability": "nonpayable",
      "type": "function"
    },
    {
      "inputs": [],
      "name": "verifier",
      "outputs": [
        {
          "internalType": "address",
          "name": "",
          "type": "address"
        }
      ],
      "stateMutability": "view",
      "type": "function"
    },
    {
      "inputs": [
        {
          "internalType": "address",
          "name": "instance",
          "type": "address"
        }
      ],
      "name": "verifyInstance",
      "outputs": [
        {
          "internalType": "bool",
          "name": "success",
          "type": "bool"
        }
      ],
      "stateMutability": "view",
      "type": "function"
    }
  ],
  "bytecode": "0x608060405234801561001057600080fd5b50604051610f43380380610f4383398101604081905261002f91610062565b60018054336001600160a01b031991821617909155600280549091166001600160a01b0392909216919091179055610092565b60006020828403121561007457600080fd5b81516001600160a01b038116811461008b57600080fd5b9392505050565b610ea2806100a16000396000f3fe608060405234801561001057600080fd5b50600436106100d45760003560e01c8063a6f9dae111610081578063e8dc705a1161005b578063e8dc705a146101ac578063ec2ee1f614610214578063fa2a5b011461022757600080fd5b8063a6f9dae11461017d578063affed0e014610190578063cf04fb941461019957600080fd5b8063508f7019116100b2578063508f701914610142578063555b8adb146101575780638da5cb5b1461016a57600080fd5b80632b7ac3f3146100d95780633ce3778c14610109578063479e372e1461011f575b600080fd5b6002546100ec906001600160a01b031681565b6040516001600160a01b0390911681526020015b60405180910390f35b610111600481565b604051908152602001610100565b61013261012d366004610a70565b61023a565b6040519015158152602001610100565b610155610150366004610aa3565b61031e565b005b6100ec610165366004610ada565b6103b1565b6001546100ec906001600160a01b031681565b61015561018b366004610a70565b6104a9565b61011160005481565b6101556101a7366004610a70565b610567565b6101ec6101ba366004610a70565b600360205260009081526040902080546001909101546001600160a01b0391821691811690600160a01b900460ff1683565b604080516001600160a01b039485168152939092166020840152151590820152606001610100565b6100ec610222366004610b1a565b6105fe565b6100ec610235366004610a70565b610a39565b6001600160a01b0380821660009081526003602052604081208054919290911680610269575060009392505050565b6001820154600160a01b900460ff16610286575060009392505050565b6002546001600160a01b03168015610311576040516369be670b60e01b81526001600160a01b03868116600483015283811660248301528216906369be670b90604401602060405180830381865afa1580156102e6573d6000803e3d6000fd5b505050506040513d601f19601f8201168201806040525081019061030a9190610bdc565b9350610316565b600193505b505050919050565b6001600160a01b03808316600090815260036020526040902060018101549091163381146103755760405163521eb56d60e11b81523360048201526001600160a01b03821660248201526044015b60405180910390fd5b506001018054911515600160a01b027fffffffffffffffffffffff00ffffffffffffffffffffffffffffffffffffffff90921691909117905550565b6040805146602082015290810182905260009081906060016040516020818303038152906040528051906020012090506000604051806020016103f390610a47565b601f1982820381018352601f90910116604081905261042091906001600160a01b03881690602001610c29565b60408051808303601f1901815282825280516020918201207fff00000000000000000000000000000000000000000000000000000000000000828501523060601b6bffffffffffffffffffffffff191660218501526035840195909552605580840195909552815180840390950185526075909201905282519201919091209150505b92915050565b6001546001600160a01b031633146104e95760015460405163521eb56d60e11b81523360048201526001600160a01b03909116602482015260440161036c565b6001600160a01b0381166105105760405163d92e233d60e01b815260040160405180910390fd5b6001805473ffffffffffffffffffffffffffffffffffffffff19166001600160a01b0383169081179091556040517f4ffd725fc4a22075e9ec71c59edf9c38cdeb588a91b24fc5b61388c5be41282b90600090a250565b6001546001600160a01b031633146105a75760015460405163521eb56d60e11b81523360048201526001600160a01b03909116602482015260440161036c565b6002805473ffffffffffffffffffffffffffffffffffffffff19166001600160a01b0383169081179091556040517fd24015cc99cc1700cafca3042840a1d8ac1e3964fd2e0e37ea29c654056ee32790600090a250565b60006001600160a01b0383166106275760405163d92e233d60e01b815260040160405180910390fd5b826001600160a01b03163b60000361065d5760405163601c0c2160e01b81526001600160a01b038416600482015260240161036c565b60048251101561068f5781516004604051631a64813d60e11b815260040161036c929190918252602082015260400190565b6002546001600160a01b031680158015906107115750604051634b19276b60e11b81526001600160a01b0385811660048301528216906396324ed690602401602060405180830381865afa1580156106eb573d6000803e3d6000fd5b505050506040513d601f19601f8201168201806040525081019061070f9190610bdc565b155b1561073a57604051633df7a39d60e21b81526001600160a01b038516600482015260240161036c565b600080546040805146602082015290810182905290919060600160405160208183030381529060405280519060200120905060006040518060200161077e90610a47565b601f1982820381018352601f9091011660408190526107ab91906001600160a01b038a1690602001610c29565b6040516020818303038152906040529050818151826020016000f594506001600160a01b0385166107fa576040516329c25ebd60e11b81526001600160a01b038816600482015260240161036c565b600080866001600160a01b0316886040516108159190610c42565b6000604051808303816000865af19150503d8060008114610852576040519150601f19603f3d011682016040523d82523d6000602084013e610857565b606091505b509150915081610895578051156108715780518082602001fd5b604051633c4c93c960e21b81526001600160a01b038816600482015260240161036c565b6001600160a01b0386161580159061091c57506040516369be670b60e01b81526001600160a01b0388811660048301528a811660248301528716906369be670b90604401602060405180830381865afa1580156108f6573d6000803e3d6000fd5b505050506040513d601f19601f8201168201806040525081019061091a9190610bdc565b155b1561094557604051630a7f26af60e21b81526001600160a01b038816600482015260240161036c565b604080516060810182526001600160a01b038b8116825233602080840191825260018486018181528d851660009081526003909352959091208451815473ffffffffffffffffffffffffffffffffffffffff1916908516178155915191810180549551929093167fffffffffffffffffffffff00000000000000000000000000000000000000000090951694909417600160a01b91151591909102179055906109ef908790610c4e565b60009081556040516001600160a01b03808d1692908b169133917fc88bd7cfbe8bae024ebb6f3cf291adfd7db2588a07e1c78768ea3c81b992496b91a45050505050505092915050565b60006104a3826000546103b1565b6101fd80610c7083390190565b80356001600160a01b0381168114610a6b57600080fd5b919050565b600060208284031215610a8257600080fd5b610a8b82610a54565b9392505050565b8015158114610aa057600080fd5b50565b60008060408385031215610ab657600080fd5b610abf83610a54565b91506020830135610acf81610a92565b809150509250929050565b60008060408385031215610aed57600080fd5b610af683610a54565b946020939093013593505050565b634e487b7160e01b600052604160045260246000fd5b60008060408385031215610b2d57600080fd5b610b3683610a54565b9150602083013567ffffffffffffffff80821115610b5357600080fd5b818501915085601f830112610b6757600080fd5b813581811115610b7957610b79610b04565b604051601f8201601f19908116603f01168101908382118183101715610ba157610ba1610b04565b81604052828152886020848701011115610bba57600080fd5b8260208601602083013760006020848301015280955050505050509250929050565b600060208284031215610bee57600080fd5b8151610a8b81610a92565b6000815160005b81811015610c1a5760208185018101518683015201610c00565b50600093019283525090919050565b6000610c358285610bf9565b9283525050602001919050565b6000610a8b8284610bf9565b808201808211156104a357634e487b7160e01b600052601160045260246000fdfe608060405234801561001057600080fd5b506040516101fd3803806101fd83398101604081905261002f9161007d565b6001600160a01b0381166100565760405163d02c623d60e01b815260040160405180910390fd5b7f9e5e169c1098011e4e5940a3ec1797686b2a8294a9b77a4c676b121bdc0ebb5e556100ad565b60006020828403121561008f57600080fd5b81516001600160a01b03811681146100a657600080fd5b9392505050565b610141806100bc6000396000f3fe6080604052600436106100295760003560e01c806346032dbc14610070578063aaf10f42146100b7575b7f9e5e169c1098011e4e5940a3ec1797686b2a8294a9b77a4c676b121bdc0ebb5e543660008037600080366000845af490503d6000803e8061006a573d6000fd5b503d6000f35b34801561007c57600080fd5b506100a47f9e5e169c1098011e4e5940a3ec1797686b2a8294a9b77a4c676b121bdc0ebb5e81565b6040519081526020015b60405180910390f35b3480156100c357600080fd5b507f9e5e169c1098011e4e5940a3ec1797686b2a8294a9b77a4c676b121bdc0ebb5e5460405173ffffffffffffffffffffffffffffffffffffffff90911681526020016100ae56fea2646970667358221220920e29340f64f8552ca0587a0091b775b013fbeb3e2dd2d8e7958bf9e87236c764736f6c63430008170033a26469706673582212201a05404cd9528e5dab303a2c51d5d5d5bc9dfdd59c7669f6b03f23be3a48746e64736f6c63430008170033",
  "linkReferences": {},
  "deployedLinkReferences": {}
}