{
  "_format": "hh-sol-artifact-1",
  "contractName": "StakingActivityChecker",
  "sourceName": "contracts/staking/StakingActivityChecker.sol",
  "abi": [
    {
      "inputs": [
        {
          "internalType": "uint256",
          "name": "_livenessRatio",
          "type": "uint256"
        }
      ],
      "stateMutability": "nonpayable",
      "type": "constructor"
    },
    {
      "inputs": [],
      "name": "ZeroValue",
      "type": "error"
    },
    {
      "inputs": [
        {
          "internalType": "address",
          "name": "multisig",
          "type": "address"
        }
      ],
      "name": "getMultisigNonces",
      "outputs": [
        {
          "internalType": "uint256[]",
          "name": "nonces",
          "type": "uint256[]"
        }
      ],
      "stateMutability": "view",
      "type": "function"
    },
    {
      "inputs": [
        {
          "internalType": "uint256[]",
          "name": "curNonces",
          "type": "uint256[]"
        },
        {
          "internalType": "uint256[]",
          "name": "lastNonces",
          "type": "uint256[]"
        },
        {
          "internalType": "uint256",
          "name": "ts",
          "type": "uint256"
        }
      ],
      "name": "isRatioPass",
      "outputs": [
        {
          "internalType": "bool",
          "name": "ratioPass",
          "type": "bool"
        }
      ],
      "stateMutability": "view",
      "type": "function"
    },
    {
      "inputs": [],
      "name": "livenessRatio",
      "outputs": [
        {
          "internalType": "uint256",
          "name": "",
          "type": "uint256"
        }
      ],
      "stateMutability": "view",
      "type": "function"
    }
  ],
  "bytecode": "0x60a060405234801561001057600080fd5b5060405161054838038061054883398101604081905261002f91610058565b8060000361005057604051637c946ed760e01b815260040160405180910390fd5b608052610071565b60006020828403121561006a57600080fd5b5051919050565b6080516104b6610092600039600081816073015261016d01526104b66000f3fe608060405234801561001057600080fd5b50600436106100415760003560e01c8063184023a514610046578063592cf3fb1461006e578063d564c4bf146100a3575b600080fd5b610059610054366004610302565b6100c3565b60405190151581526020015b60405180910390f35b6100957f000000000000000000000000000000000000000000000000000000000000000081565b604051908152602001610065565b6100b66100b136600461036f565b610199565b60405161006591906103a5565b600080821180156101075750826000815181106100e2576100e26103e9565b6020026020010151846000815181106100fd576100fd6103e9565b6020026020010151115b156101925760008284600081518110610122576101226103e9565b60200260200101518660008151811061013d5761013d6103e9565b602002602001015161014f9190610415565b61016190670de0b6b3a764000061042e565b61016b9190610445565b7f000000000000000000000000000000000000000000000000000000000000000011159150505b9392505050565b604080516001808252818301909252606091602080830190803683370190505090508173ffffffffffffffffffffffffffffffffffffffff1663affed0e06040518163ffffffff1660e01b8152600401602060405180830381865afa158015610206573d6000803e3d6000fd5b505050506040513d601f19601f8201168201806040525081019061022a9190610467565b8160008151811061023d5761023d6103e9565b602002602001018181525050919050565b634e487b7160e01b600052604160045260246000fd5b600082601f83011261027557600080fd5b8135602067ffffffffffffffff808311156102925761029261024e565b8260051b604051601f19603f830116810181811084821117156102b7576102b761024e565b60405293845260208187018101949081019250878511156102d757600080fd5b6020870191505b848210156102f7578135835291830191908301906102de565b979650505050505050565b60008060006060848603121561031757600080fd5b833567ffffffffffffffff8082111561032f57600080fd5b61033b87838801610264565b9450602086013591508082111561035157600080fd5b5061035e86828701610264565b925050604084013590509250925092565b60006020828403121561038157600080fd5b813573ffffffffffffffffffffffffffffffffffffffff8116811461019257600080fd5b6020808252825182820181905260009190848201906040850190845b818110156103dd578351835292840192918401916001016103c1565b50909695505050505050565b634e487b7160e01b600052603260045260246000fd5b634e487b7160e01b600052601160045260246000fd5b81810381811115610428576104286103ff565b92915050565b8082028115828204841417610428576104286103ff565b60008261046257634e487b7160e01b600052601260045260246000fd5b500490565b60006020828403121561047957600080fd5b505191905056fea26469706673582212201c047047858639ffb82529e53c215e67eb39029c76a84aca1daf42042ebfe72b64736f6c63430008170033",
  "linkReferences": {},
  "deployedLinkReferences": {}
}