{
  "_format": "hh-sol-artifact-1",
  "contractName": "StakingNativeToken",
  "sourceName": "contracts/staking/StakingNativeToken.sol",
  "abi": [
    {
      "inputs": [],
      "name": "AlreadyInitialized",
      "type": "error"
    },
    {
      "inputs": [
        {
          "internalType": "address",
          "name": "activityChecker",
          "type": "address"
        }
      ],
      "name": "ContractOnly",
      "type": "error"
    },
    {
      "inputs": [
        {
          "internalType": "uint256",
          "name": "provided",
          "type": "uint256"
        },
        {
          "internalType": "uint256",
          "name": "expected",
          "type": "uint256"
        }
      ],
      "name": "LowerThan",
      "type": "error"
    },
    {
      "inputs": [
        {
          "internalType": "uint256",
          "name": "maxNumServices",
          "type": "uint256"
        }
      ],
      "name": "MaxNumServicesReached",
      "type": "error"
    },
    {
      "inputs": [],
      "name": "NoRewardsAvailable",
      "type": "error"
    },
    {
      "inputs": [
        {
          "internalType": "uint256",
          "name": "serviceId",
          "type": "uint256"
        },
        {
          "internalType": "uint256",
          "name": "tsProvided",
          "type": "uint256"
        },
        {
          "internalType": "uint256",
          "name": "tsExpected",
          "type": "uint256"
        }
      ],
      "name": "NotEnoughTimeStaked",
      "type": "error"
    },
    {
      "inputs": [
        {
          "internalType": "address",
          "name": "sender",
          "type": "address"
        },
        {
          "internalType": "address",
          "name": "owner",
          "type": "address"
        }
      ],
      "name": "OwnerOnly",
      "type": "error"
    },
    {
      "inputs": [
        {
          "internalType": "uint256",
          "name": "serviceId",
          "type": "uint256"
        }
      ],
      "name": "ServiceNotUnstaked",
      "type": "error"
    },
    {
      "inputs": [
        {
          "internalType": "address",
          "name": "token",
          "type": "address"
        },
        {
          "internalType": "address",
          "name": "from",
          "type": "address"
        },
        {
          "internalType": "address",
          "name": "to",
          "type": "address"
        },
        {
          "internalType": "uint256",
          "name": "value",
          "type": "uint256"
        }
      ],
      "name": "TransferFailed",
      "type": "error"
    },
    {
      "inputs": [
        {
          "internalType": "address",
          "name": "multisig",
          "type": "address"
        }
      ],
      "name": "UnauthorizedMultisig",
      "type": "error"
    },
    {
      "inputs": [
        {
          "internalType": "uint256",
          "name": "agentId",
          "type": "uint256"
        }
      ],
      "name": "WrongAgentId",
      "type": "error"
    },
    {
      "inputs": [
        {
          "internalType": "uint256",
          "name": "serviceId",
          "type": "uint256"
        }
      ],
      "name": "WrongServiceConfiguration",
      "type": "error"
    },
    {
      "inputs": [
        {
          "internalType": "uint256",
          "name": "state",
          "type": "uint256"
        },
        {
          "internalType": "uint256",
          "name": "serviceId",
          "type": "uint256"
        }
      ],
      "name": "WrongServiceState",
      "type": "error"
    },
    {
      "inputs": [],
      "name": "ZeroAddress",
      "type": "error"
    },
    {
      "inputs": [],
      "name": "ZeroValue",
      "type": "error"
    },
    {
      "anonymous": false,
      "inputs": [
        {
          "indexed": true,
          "internalType": "uint256",
          "name": "epoch",
          "type": "uint256"
        },
        {
          "indexed": false,
          "internalType": "uint256",
          "name": "availableRewards",
          "type": "uint256"
        },
        {
          "indexed": false,
          "internalType": "uint256[]",
          "name": "serviceIds",
          "type": "uint256[]"
        },
        {
          "indexed": false,
          "internalType": "uint256[]",
          "name": "rewards",
          "type": "uint256[]"
        },
        {
          "indexed": false,
          "internalType": "uint256",
          "name": "epochLength",
          "type": "uint256"
        }
      ],
      "name": "Checkpoint",
      "type": "event"
    },
    {
      "anonymous": false,
      "inputs": [
        {
          "indexed": true,
          "internalType": "address",
          "name": "sender",
          "type": "address"
        },
        {
          "indexed": false,
          "internalType": "uint256",
          "name": "amount",
          "type": "uint256"
        },
        {
          "indexed": false,
          "internalType": "uint256",
          "name": "balance",
          "type": "uint256"
        },
        {
          "indexed": false,
          "internalType": "uint256",
          "name": "availableRewards",
          "type": "uint256"
        }
      ],
      "name": "Deposit",
      "type": "event"
    },
    {
      "anonymous": false,
      "inputs": [
        {
          "indexed": false,
          "internalType": "uint256",
          "name": "epoch",
          "type": "uint256"
        },
        {
          "indexed": true,
          "internalType": "uint256",
          "name": "serviceId",
          "type": "uint256"
        },
        {
          "indexed": true,
          "internalType": "address",
          "name": "owner",
          "type": "address"
        },
        {
          "indexed": true,
          "internalType": "address",
          "name": "multisig",
          "type": "address"
        },
        {
          "indexed": false,
          "internalType": "uint256[]",
          "name": "nonces",
          "type": "uint256[]"
        },
        {
          "indexed": false,
          "internalType": "uint256",
          "name": "reward",
          "type": "uint256"
        }
      ],
      "name": "RewardClaimed",
      "type": "event"
    },
    {
      "anonymous": false,
      "inputs": [
        {
          "indexed": false,
          "internalType": "uint256",
          "name": "epoch",
          "type": "uint256"
        },
        {
          "indexed": true,
          "internalType": "uint256",
          "name": "serviceId",
          "type": "uint256"
        },
        {
          "indexed": false,
          "internalType": "uint256",
          "name": "serviceInactivity",
          "type": "uint256"
        }
      ],
      "name": "ServiceInactivityWarning",
      "type": "event"
    },
    {
      "anonymous": false,
      "inputs": [
        {
          "indexed": false,
          "internalType": "uint256",
          "name": "epoch",
          "type": "uint256"
        },
        {
          "indexed": true,
          "internalType": "uint256",
          "name": "serviceId",
          "type": "uint256"
        },
        {
          "indexed": true,
          "internalType": "address",
          "name": "owner",
          "type": "address"
        },
        {
          "indexed": true,
          "internalType": "address",
          "name": "multisig",
          "type": "address"
        },
        {
          "indexed": false,
          "internalType": "uint256[]",
          "name": "nonces",
          "type": "uint256[]"
        }
      ],
      "name": "ServiceStaked",
      "type": "event"
    },
    {
      "anonymous": false,
      "inputs": [
        {
          "indexed": false,
          "internalType": "uint256",
          "name": "epoch",
          "type": "uint256"
        },
        {
          "indexed": true,
          "internalType": "uint256",
          "name": "serviceId",
          "type": "uint256"
        },
        {
          "indexed": true,
          "internalType": "address",
          "name": "owner",
          "type": "address"
        },
        {
          "indexed": true,
          "internalType": "address",
          "name": "multisig",
          "type": "address"
        },
        {
          "indexed": false,
          "internalType": "uint256[]",
          "name": "nonces",
          "type": "uint256[]"
        },
        {
          "indexed": false,
          "internalType": "uint256",
          "name": "reward",
          "type": "uint256"
        }
      ],
      "name": "ServiceUnstaked",
      "type": "event"
    },
    {
      "anonymous": false,
      "inputs": [
        {
          "indexed": true,
          "internalType": "uint256",
          "name": "epoch",
          "type": "uint256"
        },
        {
          "indexed": false,
          "internalType": "uint256[]",
          "name": "serviceIds",
          "type": "uint256[]"
        },
        {
          "indexed": false,
          "internalType": "address[]",
          "name": "owners",
          "type": "address[]"
        },
        {
          "indexed": false,
          "internalType": "address[]",
          "name": "multisigs",
          "type": "address[]"
        },
        {
          "indexed": false,
          "internalType": "uint256[]",
          "name": "serviceInactivity",
          "type": "uint256[]"
        }
      ],
      "name": "ServicesEvicted",
      "type": "event"
    },
    {
      "anonymous": false,
      "inputs": [
        {
          "indexed": true,
          "internalType": "address",
          "name": "to",
          "type": "address"
        },
        {
          "indexed": false,
          "internalType": "uint256",
          "name": "amount",
          "type": "uint256"
        }
      ],
      "name": "Withdraw",
      "type": "event"
    },
    {
      "inputs": [],
      "name": "VERSION",
      "outputs": [
        {
          "internalType": "string",
          "name": "",
          "type": "string"
        }
      ],
      "stateMutability": "view",
      "type": "function"
    },
    {
      "inputs": [],
      "name": "activityChecker",
      "outputs": [
        {
          "internalType": "address",
          "name": "",
          "type": "address"
        }
      ],
      "stateMutability": "view",
      "type": "function"
    },
    {
      "inputs": [
        {
          "internalType": "uint256",
          "name": "",
          "type": "uint256"
        }
      ],
      "name": "agentIds",
      "outputs": [
        {
          "internalType": "uint256",
          "name": "",
          "type": "uint256"
        }
      ],
      "stateMutability": "view",
      "type": "function"
    },
    {
      "inputs": [],
      "name": "availableRewards",
      "outputs": [
        {
          "internalType": "uint256",
          "name": "",
          "type": "uint256"
        }
      ],
      "stateMutability": "view",
      "type": "function"
    },
    {
      "inputs": [],
      "name": "balance",
      "outputs": [
        {
          "internalType": "uint256",
          "name": "",
          "type": "uint256"
        }
      ],
      "stateMutability": "view",
      "type": "function"
    },
    {
      "inputs": [
        {
          "internalType": "uint256",
          "name": "serviceId",
          "type": "uint256"
        }
      ],
      "name": "calculateStakingLastReward",
      "outputs": [
        {
          "internalType": "uint256",
          "name": "reward",
          "type": "uint256"
        }
      ],
      "stateMutability": "view",
      "type": "function"
    },
    {
      "inputs": [
        {
          "internalType": "uint256",
          "name": "serviceId",
          "type": "uint256"
        }
      ],
      "name": "calculateStakingReward",
      "outputs": [
        {
          "internalType": "uint256",
          "name": "reward",
          "type": "uint256"
        }
      ],
      "stateMutability": "view",
      "type": "function"
    },
    {
      "inputs": [],
      "name": "checkpoint",
      "outputs": [
        {
          "internalType": "uint256[]",
          "name": "",
          "type": "uint256[]"
        },
        {
          "internalType": "uint256[][]",
          "name": "",
          "type": "uint256[][]"
        },
        {
          "internalType": "uint256[]",
          "name": "",
          "type": "uint256[]"
        },
        {
          "internalType": "uint256[]",
          "name": "",
          "type": "uint256[]"
        },
        {
          "internalType": "uint256[]",
          "name": "evictServiceIds",
          "type": "uint256[]"
        }
      ],
      "stateMutability": "nonpayable",
      "type": "function"
    },
    {
      "inputs": [
        {
          "internalType": "uint256",
          "name": "serviceId",
          "type": "uint256"
        }
      ],
      "name": "claim",
      "outputs": [
        {
          "internalType": "uint256",
          "name": "reward",
          "type": "uint256"
        }
      ],
      "stateMutability": "nonpayable",
      "type": "function"
    },
    {
      "inputs": [],
      "name": "configHash",
      "outputs": [
        {
          "internalType": "bytes32",
          "name": "",
          "type": "bytes32"
        }
      ],
      "stateMutability": "view",
      "type": "function"
    },
    {
      "inputs": [],
      "name": "epochCounter",
      "outputs": [
        {
          "internalType": "uint256",
          "name": "",
          "type": "uint256"
        }
      ],
      "stateMutability": "view",
      "type": "function"
    },
    {
      "inputs": [],
      "name": "getAgentIds",
      "outputs": [
        {
          "internalType": "uint256[]",
          "name": "",
          "type": "uint256[]"
        }
      ],
      "stateMutability": "view",
      "type": "function"
    },
    {
      "inputs": [],
      "name": "getNextRewardCheckpointTimestamp",
      "outputs": [
        {
          "internalType": "uint256",
          "name": "tsNext",
          "type": "uint256"
        }
      ],
      "stateMutability": "view",
      "type": "function"
    },
    {
      "inputs": [],
      "name": "getServiceIds",
      "outputs": [
        {
          "internalType": "uint256[]",
          "name": "",
          "type": "uint256[]"
        }
      ],
      "stateMutability": "view",
      "type": "function"
    },
    {
      "inputs": [
        {
          "internalType": "uint256",
          "name": "serviceId",
          "type": "uint256"
        }
      ],
      "name": "getServiceInfo",
      "outputs": [
        {
          "components": [
            {
              "internalType": "address",
              "name": "multisig",
              "type": "address"
            },
            {
              "internalType": "address",
              "name": "owner",
              "type": "address"
            },
            {
              "internalType": "uint256[]",
              "name": "nonces",
              "type": "uint256[]"
            },
            {
              "internalType": "uint256",
              "name": "tsStart",
              "type": "uint256"
            },
            {
              "internalType": "uint256",
              "name": "reward",
              "type": "uint256"
            },
            {
              "internalType": "uint256",
              "name": "inactivity",
              "type": "uint256"
            }
          ],
          "internalType": "struct ServiceInfo",
          "name": "sInfo",
          "type": "tuple"
        }
      ],
      "stateMutability": "view",
      "type": "function"
    },
    {
      "inputs": [
        {
          "internalType": "uint256",
          "name": "serviceId",
          "type": "uint256"
        }
      ],
      "name": "getStakingState",
      "outputs": [
        {
          "internalType": "enum StakingBase.StakingState",
          "name": "stakingState",
          "type": "uint8"
        }
      ],
      "stateMutability": "view",
      "type": "function"
    },
    {
      "inputs": [
        {
          "components": [
            {
              "internalType": "bytes32",
              "name": "metadataHash",
              "type": "bytes32"
            },
            {
              "internalType": "uint256",
              "name": "maxNumServices",
              "type": "uint256"
            },
            {
              "internalType": "uint256",
              "name": "rewardsPerSecond",
              "type": "uint256"
            },
            {
              "internalType": "uint256",
              "name": "minStakingDeposit",
              "type": "uint256"
            },
            {
              "internalType": "uint256",
              "name": "minNumStakingPeriods",
              "type": "uint256"
            },
            {
              "internalType": "uint256",
              "name": "maxNumInactivityPeriods",
              "type": "uint256"
            },
            {
              "internalType": "uint256",
              "name": "livenessPeriod",
              "type": "uint256"
            },
            {
              "internalType": "uint256",
              "name": "numAgentInstances",
              "type": "uint256"
            },
            {
              "internalType": "uint256[]",
              "name": "agentIds",
              "type": "uint256[]"
            },
            {
              "internalType": "uint256",
              "name": "threshold",
              "type": "uint256"
            },
            {
              "internalType": "bytes32",
              "name": "configHash",
              "type": "bytes32"
            },
            {
              "internalType": "bytes32",
              "name": "proxyHash",
              "type": "bytes32"
            },
            {
              "internalType": "address",
              "name": "serviceRegistry",
              "type": "address"
            },
            {
              "internalType": "address",
              "name": "activityChecker",
              "type": "address"
            }
          ],
          "internalType": "struct StakingBase.StakingParams",
          "name": "_stakingParams",
          "type": "tuple"
        }
      ],
      "name": "initialize",
      "outputs": [],
      "stateMutability": "nonpayable",
      "type": "function"
    },
    {
      "inputs": [],
      "name": "livenessPeriod",
      "outputs": [
        {
          "internalType": "uint256",
          "name": "",
          "type": "uint256"
        }
      ],
      "stateMutability": "view",
      "type": "function"
    },
    {
      "inputs": [
        {
          "internalType": "uint256",
          "name": "",
          "type": "uint256"
        }
      ],
      "name": "mapServiceInfo",
      "outputs": [
        {
          "internalType": "address",
          "name": "multisig",
          "type": "address"
        },
        {
          "internalType": "address",
          "name": "owner",
          "type": "address"
        },
        {
          "internalType": "uint256",
          "name": "tsStart",
          "type": "uint256"
        },
        {
          "internalType": "uint256",
          "name": "reward",
          "type": "uint256"
        },
        {
          "internalType": "uint256",
          "name": "inactivity",
          "type": "uint256"
        }
      ],
      "stateMutability": "view",
      "type": "function"
    },
    {
      "inputs": [],
      "name": "maxInactivityDuration",
      "outputs": [
        {
          "internalType": "uint256",
          "name": "",
          "type": "uint256"
        }
      ],
      "stateMutability": "view",
      "type": "function"
    },
    {
      "inputs": [],
      "name": "maxNumInactivityPeriods",
      "outputs": [
        {
          "internalType": "uint256",
          "name": "",
          "type": "uint256"
        }
      ],
      "stateMutability": "view",
      "type": "function"
    },
    {
      "inputs": [],
      "name": "maxNumServices",
      "outputs": [
        {
          "internalType": "uint256",
          "name": "",
          "type": "uint256"
        }
      ],
      "stateMutability": "view",
      "type": "function"
    },
    {
      "inputs": [],
      "name": "metadataHash",
      "outputs": [
        {
          "internalType": "bytes32",
          "name": "",
          "type": "bytes32"
        }
      ],
      "stateMutability": "view",
      "type": "function"
    },
    {
      "inputs": [],
      "name": "minStakingDeposit",
      "outputs": [
        {
          "internalType": "uint256",
          "name": "",
          "type": "uint256"
        }
      ],
      "stateMutability": "view",
      "type": "function"
    },
    {
      "inputs": [],
      "name": "minStakingDuration",
      "outputs": [
        {
          "internalType": "uint256",
          "name": "",
          "type": "uint256"
        }
      ],
      "stateMutability": "view",
      "type": "function"
    },
    {
      "inputs": [],
      "name": "numAgentInstances",
      "outputs": [
        {
          "internalType": "uint256",
          "name": "",
          "type": "uint256"
        }
      ],
      "stateMutability": "view",
      "type": "function"
    },
    {
      "inputs": [
        {
          "internalType": "address",
          "name": "",
          "type": "address"
        },
        {
          "internalType": "address",
          "name": "",
          "type": "address"
        },
        {
          "internalType": "uint256",
          "name": "",
          "type": "uint256"
        },
        {
          "internalType": "bytes",
          "name": "",
          "type": "bytes"
        }
      ],
      "name": "onERC721Received",
      "outputs": [
        {
          "internalType": "bytes4",
          "name": "",
          "type": "bytes4"
        }
      ],
      "stateMutability": "nonpayable",
      "type": "function"
    },
    {
      "inputs": [],
      "name": "proxyHash",
      "outputs": [
        {
          "internalType": "bytes32",
          "name": "",
          "type": "bytes32"
        }
      ],
      "stateMutability": "view",
      "type": "function"
    },
    {
      "inputs": [],
      "name": "rewardsPerSecond",
      "outputs": [
        {
          "internalType": "uint256",
          "name": "",
          "type": "uint256"
        }
      ],
      "stateMutability": "view",
      "type": "function"
    },
    {
      "inputs": [],
      "name": "serviceRegistry",
      "outputs": [
        {
          "internalType": "address",
          "name": "",
          "type": "address"
        }
      ],
      "stateMutability": "view",
      "type": "function"
    },
    {
      "inputs": [
        {
          "internalType": "uint256",
          "name": "",
          "type": "uint256"
        }
      ],
      "name": "setServiceIds",
      "outputs": [
        {
          "internalType": "uint256",
          "name": "",
          "type": "uint256"
        }
      ],
      "stateMutability": "view",
      "type": "function"
    },
    {
      "inputs": [
        {
          "internalType": "uint256",
          "name": "serviceId",
          "type": "uint256"
        }
      ],
      "name": "stake",
      "outputs": [],
      "stateMutability": "nonpayable",
      "type": "function"
    },
    {
      "inputs": [],
      "name": "threshold",
      "outputs": [
        {
          "internalType": "uint256",
          "name": "",
          "type": "uint256"
        }
      ],
      "stateMutability": "view",
      "type": "function"
    },
    {
      "inputs": [],
      "name": "tsCheckpoint",
      "outputs": [
        {
          "internalType": "uint256",
          "name": "",
          "type": "uint256"
        }
      ],
      "stateMutability": "view",
      "type": "function"
    },
    {
      "inputs": [
        {
          "internalType": "uint256",
          "name": "serviceId",
          "type": "uint256"
        }
      ],
      "name": "unstake",
      "outputs": [
        {
          "internalType": "uint256",
          "name": "reward",
          "type": "uint256"
        }
      ],
      "stateMutability": "nonpayable",
      "type": "function"
    },
    {
      "stateMutability": "payable",
      "type": "receive"
    }
  ],
  "bytecode": "0x608060405234801561001057600080fd5b50613658806100206000396000f3fe6080604052600436106102385760003560e01c80638f9e0a6211610138578063e1f1176d116100b0578063f189e85a1161007f578063f86ad2b611610064578063f86ad2b6146106f2578063fd0bba8c14610708578063ffa1ad741461073557600080fd5b8063f189e85a146106c8578063f4dce714146106dd57600080fd5b8063e1f1176d14610666578063e77cdcc91461067c578063eacdaabc14610692578063eb338c96146106a857600080fd5b8063b150876011610107578063c2c4c5c1116100ec578063c2c4c5c11461060a578063c5a1d7f014610630578063cbcf252a1461064657600080fd5b8063b1508760146105d2578063b69ef8a8146105f457600080fd5b80638f9e0a62146104db578063a0ed60e014610513578063a694fc3a14610529578063a74466ad1461054957600080fd5b806352c824f5116101cb5780637fbe28331161019a57806382a8ea581161017f57806382a8ea581461047857806383f9eb22146104a5578063879d9090146104c557600080fd5b80637fbe283314610442578063809cee2f1461046257600080fd5b806352c824f5146103d457806356e76058146103ea5780635829c5ec1461040a5780635e9b7e701461042057600080fd5b80632e17de78116102075780632e17de7814610368578063379607f5146103885780633e732997146103a857806342cde4e8146103be57600080fd5b806308ae7e54146102b657806314b19c5a146102df578063150b7a02146102f557806316a751721461035257600080fd5b366102b157600034600f5461024d9190612b48565b905060003460105461025f9190612b48565b600f8390556010819055604080513481526020810185905290810182905290915033907f36af321ec8d3c75236829c5317affd40ddb308863a1236d2d277a4025cccee1e9060600160405180910390a2005b600080fd5b3480156102c257600080fd5b506102cc600c5481565b6040519081526020015b60405180910390f35b3480156102eb57600080fd5b506102cc600e5481565b34801561030157600080fd5b50610321610310366004612b86565b630a85bd0160e11b95945050505050565b6040517fffffffff0000000000000000000000000000000000000000000000000000000090911681526020016102d6565b34801561035e57600080fd5b506102cc60015481565b34801561037457600080fd5b506102cc610383366004612c25565b610773565b34801561039457600080fd5b506102cc6103a3366004612c25565b610b10565b3480156103b457600080fd5b506102cc60115481565b3480156103ca57600080fd5b506102cc60075481565b3480156103e057600080fd5b506102cc60055481565b3480156103f657600080fd5b506102cc610405366004612c25565b610c0f565b34801561041657600080fd5b506102cc60065481565b34801561042c57600080fd5b5061044061043b366004612d89565b610c30565b005b34801561044e57600080fd5b506102cc61045d366004612c25565b610c3c565b34801561046e57600080fd5b506102cc60095481565b34801561048457600080fd5b50610498610493366004612c25565b610d06565b6040516102d69190612ed2565b3480156104b157600080fd5b506102cc6104c0366004612c25565b610dfd565b3480156104d157600080fd5b506102cc60105481565b3480156104e757600080fd5b50600b546104fb906001600160a01b031681565b6040516001600160a01b0390911681526020016102d6565b34801561051f57600080fd5b506102cc60045481565b34801561053557600080fd5b50610440610544366004612c25565b610eb9565b34801561055557600080fd5b5061059f610564366004612c25565b601360205260009081526040902080546001820154600383015460048401546005909401546001600160a01b03938416949390921692909185565b604080516001600160a01b039687168152959094166020860152928401919091526060830152608082015260a0016102d6565b3480156105de57600080fd5b506105e76113c0565b6040516102d69190612f39565b34801561060057600080fd5b506102cc600f5481565b34801561061657600080fd5b5061061f611418565b6040516102d6959493929190612f4c565b34801561063c57600080fd5b506102cc60005481565b34801561065257600080fd5b50600a546104fb906001600160a01b031681565b34801561067257600080fd5b506102cc60085481565b34801561068857600080fd5b506102cc60035481565b34801561069e57600080fd5b506102cc60025481565b3480156106b457600080fd5b506102cc6106c3366004612c25565b611aa4565b3480156106d457600080fd5b506105e7611ab4565b3480156106e957600080fd5b506102cc611b0a565b3480156106fe57600080fd5b506102cc600d5481565b34801561071457600080fd5b50610728610723366004612c25565b611b21565b6040516102d69190613011565b34801561074157600080fd5b50610766604051806040016040528060058152602001640302e312e360dc1b81525081565b6040516102d6919061305d565b600081815260136020526040812060018101546001600160a01b031633146107ca57600181015460405163521eb56d60e11b81523360048201526001600160a01b0390911660248201526044015b60405180910390fd5b600381015460006107db8242613090565b9050600c5481111580156107f157506000601054115b1561082457600c5460405163ba2bbc6b60e01b8152600481018790526024810183905260448101919091526064016107c1565b60008061082f611418565b94505050509150815160000361089057610847611ab4565b9150815167ffffffffffffffff81111561086357610863612c3e565b60405190808252806020026020018201604052801561088c578160200160208202803683370190505b5090505b6000805b83518210156108f157888383815181106108b0576108b06130a3565b602002602001015103156108f157888483815181106108d1576108d16130a3565b6020026020010151036108e6575060016108f1565b816001019150610894565b8660040154975060008760020180548060200260200160405190810160405280929190818152602001828054801561094857602002820191906000526020600020905b815481526020019060010190808311610934575b50508b5460008f8152601360205260408120805473ffffffffffffffffffffffffffffffffffffffff19908116825560018201805490911690559596506001600160a01b0390911694935091506109a490506002830182612ab4565b50600060038201819055600482018190556005909101558215610a3357601480546109d190600190613090565b815481106109e1576109e16130a3565b9060005260206000200154601485815481106109ff576109ff6130a3565b6000918252602090912001556014805480610a1c57610a1c6130b9565b600190038181906000526020600020016000905590555b600a54604051632142170760e11b8152306004820152336024820152604481018d90526001600160a01b03909116906342842e0e90606401600060405180830381600087803b158015610a8557600080fd5b505af1158015610a99573d6000803e3d6000fd5b5050505060008a1115610ab057610ab0818b611bf6565b806001600160a01b0316336001600160a01b03168c7f950733f4c0bf951b8e770f3cc619a4288e7b59b1236d59aeaf2c238488e8ae81600e54868f604051610afa939291906130cf565b60405180910390a4505050505050505050919050565b600081815260136020526040812060018101546001600160a01b03163314610b6257600181015460405163521eb56d60e11b81523360048201526001600160a01b0390911660248201526044016107c1565b610b6a611418565b50505050508060040154915081600003610b9757604051637c946ed760e01b815260040160405180910390fd5b6000600482015580546001600160a01b0316610bb38184611bf6565b806001600160a01b0316336001600160a01b0316857f31add0166dae59ea66bbc180e4fae85b72fc9b7b5fc7b0f7257e4721a840c96e600e548660020188604051610c00939291906130f8565b60405180910390a45050919050565b60128181548110610c1f57600080fd5b600091825260209091200154905081565b610c3981611ca3565b50565b6000818152601360209081526040808320815160c08101835281546001600160a01b0390811682526001830154168185015260028201805484518187028101870186528181528796939586019390929190830182828015610cbc57602002820191906000526020600020905b815481526020019060010190808311610ca8575b505050505081526020016003820154815260200160048201548152602001600582015481525050905080608001519150610cf583610dfd565b610cff9083612b48565b9392505050565b610d516040518060c0016040528060006001600160a01b0316815260200160006001600160a01b03168152602001606081526020016000815260200160008152602001600081525090565b600082815260136020908152604091829020825160c08101845281546001600160a01b0390811682526001830154168184015260028201805485518186028101860187528181529295939493860193830182828015610dcf57602002820191906000526020600020905b815481526020019060010190808311610dbb575b5050505050815260200160038201548152602001600482015481526020016005820154815250509050919050565b600080600080600080610e0e611ff5565b5050509450945094509450945060005b84811015610eae5787838281518110610e3957610e396130a3565b602002602001015103610ea65785841115610e85578386838381518110610e6257610e626130a3565b6020026020010151610e749190613156565b610e7e9190613183565b9650610eae565b818181518110610e9757610e976130a3565b60200260200101519650610eae565b600101610e1e565b505050505050919050565b601054600003610edc5760405163afb0be3360e01b815260040160405180910390fd5b6000818152601360205260409020600381015415610f105760405163b4817ce760e01b8152600481018390526024016107c1565b6014546001548103610f3b5760015460405163fd20861560e01b81526004016107c191815260200190565b600a5460405163ef0e239b60e01b8152600481018590526000916001600160a01b03169063ef0e239b90602401600060405180830381865afa158015610f85573d6000803e3d6000fd5b505050506040513d6000823e601f3d908101601f19168201604052610fad9190810190613247565b9050806080015163ffffffff1660065414610fde57604051637ad404bf60e11b8152600481018590526024016107c1565b60085415801590610ff55750806040015160085414155b1561101657604051637ad404bf60e11b8152600481018590526024016107c1565b60006007541180156110345750806060015163ffffffff1660075414155b1561105557604051637ad404bf60e11b8152600481018590526024016107c1565b60048160c00151600581111561106d5761106d612ffb565b146110ac578060c00151600581111561108857611088612ffb565b604051633c053f9d60e21b81526004810191909152602481018590526044016107c1565b600081602001516001600160a01b0316803b806020016040519081016040528181526000908060200190933c805190602001209050806009541461111357602082015160405162a2307960e51b81526001600160a01b0390911660048201526024016107c1565b60125480156111dc5760e08301515181811461114557604051637ad404bf60e11b8152600481018890526024016107c1565b60005b818110156111d9578460e001518181518110611166576111666130a3565b602002602001015163ffffffff1660128281548110611187576111876130a3565b9060005260206000200154146111d157601281815481106111aa576111aa6130a3565b9060005260206000200154604051632ab10b0b60e21b81526004016107c191815260200190565b600101611148565b50505b6111fd8684600001516bffffffffffffffffffffffff168560e0015161239a565b602083015185546001600160a01b0391821673ffffffffffffffffffffffffffffffffffffffff19918216811788556001880180549092163317909155600b5460405163d564c4bf60e01b81526004810192909252600092169063d564c4bf90602401600060405180830381865afa15801561127d573d6000803e3d6000fd5b505050506040513d6000823e601f3d908101601f191682016040526112a59190810190613325565b80519091506112bd9060028801906020840190612ad2565b50426003870155601480546001810182556000919091527fce6d7b5282bd9a3661ae061feed1dbda4e52ab073b1f9285be6e155d9c38d4ec01879055600a54604051632142170760e11b8152336004820152306024820152604481018990526001600160a01b03909116906342842e0e90606401600060405180830381600087803b15801561134b57600080fd5b505af115801561135f573d6000803e3d6000fd5b5050505083602001516001600160a01b0316336001600160a01b0316887faa6b005b4958114a0c90492461c24af6525ae0178db7fbf44125ae9217c69ccb600e54856040516113af9291906133b6565b60405180910390a450505050505050565b6060601280548060200260200160405190810160405280929190818152602001828054801561140e57602002820191906000526020600020905b8154815260200190600101908083116113fa575b5050505050905090565b6060806060806060600080600080600080600080611434611ff5565b97509750975097509750975097509750606080845167ffffffffffffffff81111561146157611461612c3e565b60405190808252806020026020018201604052801561148a578160200160208202803683370190505b509a506000891561181d578967ffffffffffffffff8111156114ae576114ae612c3e565b6040519080825280602002602001820160405280156114d7578160200160208202803683370190505b5092508967ffffffffffffffff8111156114f3576114f3612c3e565b60405190808252806020026020018201604052801561151c578160200160208202803683370190505b5091508a8911156117265760008060015b8c811015611619578b8e8b8381518110611549576115496130a3565b602002602001015161155b9190613156565b6115659190613183565b92506115718383612b48565b91508a8181518110611585576115856130a3565b602002602001015193508a81815181106115a1576115a16130a3565b60200260200101518682815181106115bb576115bb6130a3565b602002602001018181525050828582815181106115da576115da6130a3565b6020026020010181815250508260136000868152602001908152602001600020600401600082825461160c9190612b48565b909155505060010161152d565b508a8d8a60008151811061162f5761162f6130a3565b60200260200101516116419190613156565b61164b9190613183565b91506116578282612b48565b90508960008151811061166c5761166c6130a3565b6020026020010151925089600081518110611689576116896130a3565b6020026020010151856000815181106116a4576116a46130a3565b602002602001018181525050808d11156116cf576116c2818e613090565b6116cc9083612b48565b91505b81846000815181106116e3576116e36130a3565b602002602001018181525050816013600085815260200190815260200160002060040160008282546117159190612b48565b9091555060009d5061181792505050565b60005b8a81101561180957888181518110611743576117436130a3565b6020026020010151915088818151811061175f5761175f6130a3565b6020026020010151848281518110611779576117796130a3565b602002602001018181525050878181518110611797576117976130a3565b60200260200101518382815181106117b1576117b16130a3565b6020026020010181815250508781815181106117cf576117cf6130a3565b60200260200101516013600084815260200190815260200160002060040160008282546117fc9190612b48565b9091555050600101611729565b50611814898c613090565b9a505b60108b90555b855115611a8e57600e5460009a508a5b8751811015611a1457878181518110611848576118486130a3565b60200260200101519250868181518110611864576118646130a3565b6020026020010151601360008581526020019081526020016000206002019080519060200190611895929190612ad2565b5060008682815181106118aa576118aa6130a3565b602002602001015111156119f9578581815181106118ca576118ca6130a3565b602002602001015160136000858152602001908152602001600020600501546118f39190612b48565b868281518110611905576119056130a3565b602002602001018181525050858181518110611923576119236130a3565b60200260200101516013600085815260200190815260200160002060050181905550600d5486828151811061195a5761195a6130a3565b6020026020010151111561199857828e828151811061197b5761197b6130a3565b60209081029190910101528b611990816133d7565b9c5050611a0c565b827f33dc5cdf1e035de8a7fe16ad7a30a441d30ee51719d3f07703ee35d4348f0779838884815181106119cd576119cd6130a3565b60200260200101516040516119ec929190918252602082015260400190565b60405180910390a2611a0c565b6000838152601360205260408120600501555b60010161182d565b508a15611a2657611a268d868d6124e4565b600060115442611a369190613090565b426011559050611a47826001612b48565b600e81905550817f48b735a18ed32318d316214e41387be29c52e29df4598f2b8e40fa843be3f9408e878785604051611a8394939291906133f0565b60405180910390a250505b50939e929d509b50919950969750505050505050565b60148181548110610c1f57600080fd5b6060601480548060200260200160405190810160405280929190818152602001828054801561140e57602002820191906000526020600020908154815260200190600101908083116113fa575050505050905090565b6000600554601154611b1c9190612b48565b905090565b6000818152601360209081526040808320815160c08101835281546001600160a01b0390811682526001830154168185015260028201805484518187028101870186528181528796939586019390929190830182828015611ba157602002820191906000526020600020905b815481526020019060010190808311611b8d575b5050505050815260200160038201548152602001600482015481526020016005820154815250509050600d548160a001511115611be15760029150611bf0565b606081015115611bf057600191505b50919050565b80600f6000828254611c089190613090565b90915550506040516000906001600160a01b0384169083908381818185875af1925050503d8060008114611c58576040519150601f19603f3d011682016040523d82523d6000602084013e611c5d565b606091505b5050905080611c9e5760405163cd3f165960e01b8152600060048201523060248201526001600160a01b0384166044820152606481018390526084016107c1565b505050565b600a546001600160a01b031615611ccc5760405162dc149f60e41b815260040160405180910390fd5b80511580611cdc57506020810151155b80611ce957506040810151155b80611cf6575060c0810151155b80611d03575060e0810151155b80611d1057506080810151155b80611d1d575060a0810151155b15611d3b57604051637c946ed760e01b815260040160405180910390fd5b8060a0015181608001511015611d7757608081015160a082015160405163491a2bb160e01b8152600481019290925260248201526044016107c1565b600281606001511015611dad57606081015160405163491a2bb160e01b81526004810191909152600260248201526044016107c1565b6101808101516001600160a01b03161580611dd457506101a08101516001600160a01b0316155b15611df25760405163d92e233d60e01b815260040160405180910390fd5b806101a001516001600160a01b03163b600003611e34576101a081015160405163601c0c2160e01b81526001600160a01b0390911660048201526024016107c1565b8051600090815560208201516001556040820151600255606082015160035560a082015160045560c082015160055560e0820151600655610180820151600a80546001600160a01b0392831673ffffffffffffffffffffffffffffffffffffffff19918216179091556101a0840151600b8054919093169116179055610120820151600755610140820151600855805b82610100015151811015611f9357818361010001518281518110611eea57611eea6130a3565b602002602001015111611f32578261010001518181518110611f0e57611f0e6130a3565b6020026020010151604051632ab10b0b60e21b81526004016107c191815260200190565b8261010001518181518110611f4957611f496130a3565b602090810291909101015160128054600181810183556000929092527fbb8a6a4669ba250d26cd7a459eca9d215f8307e33aebe50379bc5a3617ec34440182905590925001611ec4565b50610160820151600003611fba57604051637c946ed760e01b815260040160405180910390fd5b6101608201516009556005546080830151611fd59190613156565b600c5560055460a0830151611fea9190613156565b600d55505042601155565b60008060006060806060806060600060115490506010549850600554814261201d9190613090565b1015801561202b5750600089115b1561238f576014548067ffffffffffffffff81111561204c5761204c612c3e565b604051908082528060200260200182016040528015612075578160200160208202803683370190505b5094508067ffffffffffffffff81111561209157612091612c3e565b6040519080825280602002602001820160405280156120ba578160200160208202803683370190505b5096508067ffffffffffffffff8111156120d6576120d6612c3e565b6040519080825280602002602001820160405280156120ff578160200160208202803683370190505b5095508067ffffffffffffffff81111561211b5761211b612c3e565b60405190808252806020026020018201604052801561214e57816020015b60608152602001906001900390816121395790505b5093508067ffffffffffffffff81111561216a5761216a612c3e565b604051908082528060200260200182016040528015612193578160200160208202803683370190505b50925060005b8181101561238c57601481815481106121b4576121b46130a3565b90600052602060002001548682815181106121d1576121d16130a3565b6020026020010181815250506000601360008884815181106121f5576121f56130a3565b602002602001015181526020019081526020016000209050600084905060008260030154905081811115612227578091505b6122318242613090565b83546002850180546040805160208084028201810190925282815294955060009461229e946001600160a01b0316939092909183018282801561229357602002820191906000526020600020905b81548152602001906001019080831161227f575b5050505050846128a9565b8a87815181106122b0576122b06130a3565b60209081029190910101529050801561235d57816002546122d19190613156565b8b8f815181106122e3576122e36130a3565b6020026020010181815250508a8e81518110612301576123016130a3565b60200260200101518d6123149190612b48565b9c50898581518110612328576123286130a3565b60200260200101518c8f81518110612342576123426130a3565b60209081029190910101526123568e6133d7565b9d5061237d565b81888681518110612370576123706130a3565b6020026020010181815250505b50505050806001019050612199565b50505b509091929394959697565b600354808310156123c85760405163491a2bb160e01b815260048101849052602481018290526044016107c1565b600a54604051630ef1435d60e11b81526004810186905260009182916001600160a01b0390911690631de286ba90602401600060405180830381865afa158015612416573d6000803e3d6000fd5b505050506040513d6000823e601f3d908101601f1916820160405261243e919081019061342d565b9150915060005b828110156124db5783828281518110612460576124606130a3565b6020026020010151602001516bffffffffffffffffffffffff1610156124d357818181518110612492576124926130a3565b6020026020010151602001518460405163491a2bb160e01b81526004016107c19291906bffffffffffffffffffffffff929092168252602082015260400190565b600101612445565b50505050505050565b825160008267ffffffffffffffff81111561250157612501612c3e565b60405190808252806020026020018201604052801561252a578160200160208202803683370190505b50905060008367ffffffffffffffff81111561254857612548612c3e565b604051908082528060200260200182016040528015612571578160200160208202803683370190505b50905060008467ffffffffffffffff81111561258f5761258f612c3e565b6040519080825280602002602001820160405280156125b8578160200160208202803683370190505b50905060008567ffffffffffffffff8111156125d6576125d6612c3e565b6040519080825280602002602001820160405280156125ff578160200160208202803683370190505b50905060008667ffffffffffffffff81111561261d5761261d612c3e565b604051908082528060200260200182016040528015612646578160200160208202803683370190505b50905060008060005b888110156127a65760008c828151811061266b5761266b6130a3565b6020026020010151111561279e578b818151811061268b5761268b6130a3565b60200260200101519150818884815181106126a8576126a86130a3565b6020908102919091018101919091526000838152601390915260409020600181015488516001600160a01b03909116908990869081106126ea576126ea6130a3565b6001600160a01b03928316602091820292909201015281548851911690889086908110612719576127196130a3565b60200260200101906001600160a01b031690816001600160a01b0316815250508b828151811061274b5761274b6130a3565b6020026020010151868581518110612765576127656130a3565b60200260200101818152505081858581518110612784576127846130a3565b602090810291909101015283612799816133d7565b945050505b60010161264f565b50885b801561285b57886127b9816134fc565b995060009050846127cb600184613090565b815181106127db576127db6130a3565b6020026020010151905060148a815481106127f8576127f86130a3565b906000526020600020015460148281548110612816576128166130a3565b6000918252602090912001556014805480612833576128336130b9565b600190038181906000526020600020016000905590555080612854906134fc565b90506127a9565b50600e547fd19a3d42ed383465e4058c322d9411aeac76ddb8454d22e139fc99808bd5695288888888604051612894949392919061354d565b60405180910390a25050505050505050505050565b600b54604080516001600160a01b0386811660248084019190915283518084039091018152604490920183526020820180517bffffffffffffffffffffffffffffffffffffffffffffffffffffffff1663d564c4bf60e01b179052915160009360609385938493919092169161291e9161359a565b600060405180830381855afa9150503d8060008114612959576040519150601f19603f3d011682016040523d82523d6000602084013e61295e565b606091505b50915091508180156129715750603f8151115b801561298857506020815161298691906135b6565b155b15612aaa57808060200190518101906129a19190613325565b600b546040519194506001600160a01b03169063184023a560e01b906129cf9086908a908a906024016135ca565b60408051601f198184030181529181526020820180517bffffffffffffffffffffffffffffffffffffffffffffffffffffffff167fffffffff00000000000000000000000000000000000000000000000000000000909416939093179092529051612a3a919061359a565b600060405180830381855afa9150503d8060008114612a75576040519150601f19603f3d011682016040523d82523d6000602084013e612a7a565b606091505b509092509050818015612a8e575080516020145b15612aaa5780806020019051810190612aa79190613600565b93505b5050935093915050565b5080546000825590600052602060002090810190610c399190612b1d565b828054828255906000526020600020908101928215612b0d579160200282015b82811115612b0d578251825591602001919060010190612af2565b50612b19929150612b1d565b5090565b5b80821115612b195760008155600101612b1e565b634e487b7160e01b600052601160045260246000fd5b80820180821115612b5b57612b5b612b32565b92915050565b6001600160a01b0381168114610c3957600080fd5b8035612b8181612b61565b919050565b600080600080600060808688031215612b9e57600080fd5b8535612ba981612b61565b94506020860135612bb981612b61565b935060408601359250606086013567ffffffffffffffff80821115612bdd57600080fd5b818801915088601f830112612bf157600080fd5b813581811115612c0057600080fd5b896020828501011115612c1257600080fd5b9699959850939650602001949392505050565b600060208284031215612c3757600080fd5b5035919050565b634e487b7160e01b600052604160045260246000fd5b6040516101c0810167ffffffffffffffff81118282101715612c7857612c78612c3e565b60405290565b604051610100810167ffffffffffffffff81118282101715612c7857612c78612c3e565b6040805190810167ffffffffffffffff81118282101715612c7857612c78612c3e565b604051601f8201601f1916810167ffffffffffffffff81118282101715612cee57612cee612c3e565b604052919050565b600067ffffffffffffffff821115612d1057612d10612c3e565b5060051b60200190565b600082601f830112612d2b57600080fd5b81356020612d40612d3b83612cf6565b612cc5565b8083825260208201915060208460051b870101935086841115612d6257600080fd5b602086015b84811015612d7e5780358352918301918301612d67565b509695505050505050565b600060208284031215612d9b57600080fd5b813567ffffffffffffffff80821115612db357600080fd5b908301906101c08286031215612dc857600080fd5b612dd0612c54565b823581526020830135602082015260408301356040820152606083013560608201526080830135608082015260a083013560a082015260c083013560c082015260e083013560e08201526101008084013583811115612e2e57600080fd5b612e3a88828701612d1a565b91830191909152506101208381013590820152610140808401359082015261016080840135908201526101809150612e73828401612b76565b828201526101a09150612e87828401612b76565b91810191909152949350505050565b60008151808452602080850194506020840160005b83811015612ec757815187529582019590820190600101612eab565b509495945050505050565b6020815260006001600160a01b0380845116602084015280602085015116604084015250604083015160c06060840152612f0f60e0840182612e96565b905060608401516080840152608084015160a084015260a084015160c08401528091505092915050565b602081526000610cff6020830184612e96565b60a081526000612f5f60a0830188612e96565b6020838203818501528188518084528284019150828160051b850101838b0160005b83811015612faf57601f19878403018552612f9d838351612e96565b94860194925090850190600101612f81565b50508681036040880152612fc3818b612e96565b9450505050508281036060840152612fdb8186612e96565b90508281036080840152612fef8185612e96565b98975050505050505050565b634e487b7160e01b600052602160045260246000fd5b602081016003831061303357634e487b7160e01b600052602160045260246000fd5b91905290565b60005b8381101561305457818101518382015260200161303c565b50506000910152565b602081526000825180602084015261307c816040850160208701613039565b601f01601f19169190910160400192915050565b81810381811115612b5b57612b5b612b32565b634e487b7160e01b600052603260045260246000fd5b634e487b7160e01b600052603160045260246000fd5b8381526060602082015260006130e86060830185612e96565b9050826040830152949350505050565b600060608201858352602060606020850152818654808452608086019150876000526020600020935060005b8181101561314057845483526001948501949284019201613124565b5050809350505050826040830152949350505050565b8082028115828204841417612b5b57612b5b612b32565b634e487b7160e01b600052601260045260246000fd5b6000826131925761319261316d565b500490565b80516bffffffffffffffffffffffff81168114612b8157600080fd5b8051612b8181612b61565b805163ffffffff81168114612b8157600080fd5b805160068110612b8157600080fd5b600082601f8301126131f257600080fd5b81516020613202612d3b83612cf6565b8083825260208201915060208460051b87010193508684111561322457600080fd5b602086015b84811015612d7e5761323a816131be565b8352918301918301613229565b60006020828403121561325957600080fd5b815167ffffffffffffffff8082111561327157600080fd5b90830190610100828603121561328657600080fd5b61328e612c7e565b61329783613197565b81526132a5602084016131b3565b6020820152604083015160408201526132c0606084016131be565b60608201526132d1608084016131be565b60808201526132e260a084016131be565b60a08201526132f360c084016131d2565b60c082015260e08301518281111561330a57600080fd5b613316878286016131e1565b60e08301525095945050505050565b6000602080838503121561333857600080fd5b825167ffffffffffffffff81111561334f57600080fd5b8301601f8101851361336057600080fd5b805161336e612d3b82612cf6565b81815260059190911b8201830190838101908783111561338d57600080fd5b928401925b828410156133ab57835182529284019290840190613392565b979650505050505050565b8281526040602082015260006133cf6040830184612e96565b949350505050565b6000600182016133e9576133e9612b32565b5060010190565b8481526080602082015260006134096080830186612e96565b828103604084015261341b8186612e96565b91505082606083015295945050505050565b600080604080848603121561344157600080fd5b8351925060208085015167ffffffffffffffff81111561346057600080fd5b8501601f8101871361347157600080fd5b805161347f612d3b82612cf6565b81815260069190911b8201830190838101908983111561349e57600080fd5b928401925b828410156134ec5785848b0312156134bb5760008081fd5b6134c3612ca2565b6134cc856131be565b81526134d9868601613197565b81870152825292850192908401906134a3565b8096505050505050509250929050565b60008161350b5761350b612b32565b506000190190565b60008151808452602080850194506020840160005b83811015612ec75781516001600160a01b031687529582019590820190600101613528565b6080815260006135606080830187612e96565b82810360208401526135728187613513565b905082810360408401526135868186613513565b905082810360608401526133ab8185612e96565b600082516135ac818460208701613039565b9190910192915050565b6000826135c5576135c561316d565b500690565b6060815260006135dd6060830186612e96565b82810360208401526135ef8186612e96565b915050826040830152949350505050565b60006020828403121561361257600080fd5b81518015158114610cff57600080fdfea26469706673582212209385c4c662165a3ca974a71837278040ffa4d237e7e23fe91bcd28ebd2414bca64736f6c63430008170033",
  "linkReferences": {},
  "deployedLinkReferences": {}
}